{
  "_format": "hh-sol-artifact-1",
  "contractName": "OptimismCrossDomainForwarder",
  "sourceName": "contracts/chainlink/v0.8/dev/OptimismCrossDomainForwarder.sol",
  "abi": [
    {
      "inputs": [
        {
          "internalType": "contract iOVM_CrossDomainMessenger",
          "name": "crossDomainMessengerAddr",
          "type": "address"
        },
        {
          "internalType": "address",
          "name": "l1OwnerAddr",
          "type": "address"
        }
      ],
      "stateMutability": "nonpayable",
      "type": "constructor"
    },
    {
      "anonymous": false,
      "inputs": [
        {
          "indexed": true,
          "internalType": "address",
          "name": "from",
          "type": "address"
        },
        {
          "indexed": true,
          "internalType": "address",
          "name": "to",
          "type": "address"
        }
      ],
      "name": "L1OwnershipTransferRequested",
      "type": "event"
    },
    {
      "anonymous": false,
      "inputs": [
        {
          "indexed": true,
          "internalType": "address",
          "name": "from",
          "type": "address"
        },
        {
          "indexed": true,
          "internalType": "address",
          "name": "to",
          "type": "address"
        }
      ],
      "name": "L1OwnershipTransferred",
      "type": "event"
    },
    {
      "anonymous": false,
      "inputs": [
        {
          "indexed": true,
          "internalType": "address",
          "name": "from",
          "type": "address"
        },
        {
          "indexed": true,
          "internalType": "address",
          "name": "to",
          "type": "address"
        }
      ],
      "name": "OwnershipTransferRequested",
      "type": "event"
    },
    {
      "anonymous": false,
      "inputs": [
        {
          "indexed": true,
          "internalType": "address",
          "name": "from",
          "type": "address"
        },
        {
          "indexed": true,
          "internalType": "address",
          "name": "to",
          "type": "address"
        }
      ],
      "name": "OwnershipTransferred",
      "type": "event"
    },
    {
      "inputs": [],
      "name": "acceptL1Ownership",
      "outputs": [],
      "stateMutability": "nonpayable",
      "type": "function"
    },
    {
      "inputs": [],
      "name": "acceptOwnership",
      "outputs": [],
      "stateMutability": "nonpayable",
      "type": "function"
    },
    {
      "inputs": [],
      "name": "crossDomainMessenger",
      "outputs": [
        {
          "internalType": "address",
          "name": "",
          "type": "address"
        }
      ],
      "stateMutability": "view",
      "type": "function"
    },
    {
      "inputs": [
        {
          "internalType": "address",
          "name": "target",
          "type": "address"
        },
        {
          "internalType": "bytes",
          "name": "data",
          "type": "bytes"
        }
      ],
      "name": "forward",
      "outputs": [],
      "stateMutability": "nonpayable",
      "type": "function"
    },
    {
      "inputs": [],
      "name": "l1Owner",
      "outputs": [
        {
          "internalType": "address",
          "name": "",
          "type": "address"
        }
      ],
      "stateMutability": "view",
      "type": "function"
    },
    {
      "inputs": [],
      "name": "owner",
      "outputs": [
        {
          "internalType": "address",
          "name": "",
          "type": "address"
        }
      ],
      "stateMutability": "view",
      "type": "function"
    },
    {
      "inputs": [
        {
          "internalType": "address",
          "name": "to",
          "type": "address"
        }
      ],
      "name": "transferL1Ownership",
      "outputs": [],
      "stateMutability": "nonpayable",
      "type": "function"
    },
    {
      "inputs": [
        {
          "internalType": "address",
          "name": "to",
          "type": "address"
        }
      ],
      "name": "transferOwnership",
      "outputs": [],
      "stateMutability": "nonpayable",
      "type": "function"
    },
    {
      "inputs": [],
      "name": "typeAndVersion",
      "outputs": [
        {
          "internalType": "string",
          "name": "",
          "type": "string"
        }
      ],
      "stateMutability": "pure",
      "type": "function"
    }
  ],
  "bytecode": "0x60a06040523480156200001157600080fd5b5060405162001cc738038062001cc7833981810160405281019062000037919062000462565b80338060008073ffffffffffffffffffffffffffffffffffffffff168273ffffffffffffffffffffffffffffffffffffffff161415620000ae576040517f08c379a0000000000000000000000000000000000000000000000000000000008152600401620000a59062000540565b60405180910390fd5b816000806101000a81548173ffffffffffffffffffffffffffffffffffffffff021916908373ffffffffffffffffffffffffffffffffffffffff160217905550600073ffffffffffffffffffffffffffffffffffffffff168173ffffffffffffffffffffffffffffffffffffffff161462000135576200013481620001fc60201b60201c565b5b50505062000149816200032c60201b60201c565b50600073ffffffffffffffffffffffffffffffffffffffff168273ffffffffffffffffffffffffffffffffffffffff161415620001bd576040517f08c379a0000000000000000000000000000000000000000000000000000000008152600401620001b4906200051e565b60405180910390fd5b8173ffffffffffffffffffffffffffffffffffffffff1660808173ffffffffffffffffffffffffffffffffffffffff1660601b815250505050620006b7565b3373ffffffffffffffffffffffffffffffffffffffff168173ffffffffffffffffffffffffffffffffffffffff1614156200026e576040517f08c379a0000000000000000000000000000000000000000000000000000000008152600401620002659062000562565b60405180910390fd5b80600160006101000a81548173ffffffffffffffffffffffffffffffffffffffff021916908373ffffffffffffffffffffffffffffffffffffffff1602179055508073ffffffffffffffffffffffffffffffffffffffff1660008054906101000a900473ffffffffffffffffffffffffffffffffffffffff1673ffffffffffffffffffffffffffffffffffffffff167fed8889f560326eb138920d842192f0eb3dd22b4f139c87a2c57538e05bae127860405160405180910390a350565b6000600260009054906101000a900473ffffffffffffffffffffffffffffffffffffffff16905081600260006101000a81548173ffffffffffffffffffffffffffffffffffffffff021916908373ffffffffffffffffffffffffffffffffffffffff1602179055506000600360006101000a81548173ffffffffffffffffffffffffffffffffffffffff021916908373ffffffffffffffffffffffffffffffffffffffff1602179055508173ffffffffffffffffffffffffffffffffffffffff168173ffffffffffffffffffffffffffffffffffffffff167fb0121dbcab67289d5cb13a1f35ca086715f35ef418e0eda134c4145a086b627260405160405180910390a35050565b600081519050620004458162000683565b92915050565b6000815190506200045c816200069d565b92915050565b600080604083850312156200047c576200047b620005dd565b5b60006200048c858286016200044b565b92505060206200049f8582860162000434565b9150509250929050565b6000620004b860218362000584565b9150620004c582620005e2565b604082019050919050565b6000620004df60188362000584565b9150620004ec8262000631565b602082019050919050565b60006200050660178362000584565b915062000513826200065a565b602082019050919050565b600060208201905081810360008301526200053981620004a9565b9050919050565b600060208201905081810360008301526200055b81620004d0565b9050919050565b600060208201905081810360008301526200057d81620004f7565b9050919050565b600082825260208201905092915050565b6000620005a282620005bd565b9050919050565b6000620005b68262000595565b9050919050565b600073ffffffffffffffffffffffffffffffffffffffff82169050919050565b600080fd5b7f496e76616c69642078446f6d61696e204d657373656e6765722061646472657360008201527f7300000000000000000000000000000000000000000000000000000000000000602082015250565b7f43616e6e6f7420736574206f776e657220746f207a65726f0000000000000000600082015250565b7f43616e6e6f74207472616e7366657220746f2073656c66000000000000000000600082015250565b6200068e8162000595565b81146200069a57600080fd5b50565b620006a881620005a9565b8114620006b457600080fd5b50565b60805160601c6115f1620006d6600039600061087a01526115f16000f3fe608060405234801561001057600080fd5b50600436106100935760003560e01c806396b8d7c01161006657806396b8d7c0146100fa578063b2ec078714610116578063d2db637214610120578063f2fde38b1461013e578063f43b36131461015a57610093565b8063181f5a77146100985780636fadcf72146100b657806379ba5097146100d25780638da5cb5b146100dc575b600080fd5b6100a0610178565b6040516100ad919061114b565b60405180910390f35b6100d060048036038101906100cb9190610f2c565b610198565b005b6100da61034b565b005b6100e46104e0565b6040516100f19190611130565b60405180910390f35b610114600480360381019061010f9190610ed2565b610509565b005b61011e610683565b005b610128610838565b6040516101359190611130565b60405180910390f35b61015860048036038101906101539190610ed2565b610862565b005b610162610876565b60405161016f9190611130565b60405180910390f35b606060405180606001604052806022815260200161159a60229139905090565b6101a0610876565b73ffffffffffffffffffffffffffffffffffffffff163373ffffffffffffffffffffffffffffffffffffffff161461020d576040517f08c379a0000000000000000000000000000000000000000000000000000000008152600401610204906111ad565b60405180910390fd5b610215610838565b73ffffffffffffffffffffffffffffffffffffffff16610233610876565b73ffffffffffffffffffffffffffffffffffffffff16636e296e456040518163ffffffff1660e01b815260040160206040518083038186803b15801561027857600080fd5b505afa15801561028c573d6000803e3d6000fd5b505050506040513d601f19601f820116820180604052508101906102b09190610eff565b73ffffffffffffffffffffffffffffffffffffffff1614610306576040517f08c379a00000000000000000000000000000000000000000000000000000000081526004016102fd9061118d565b60405180910390fd5b61034682826040518060400160405280601781526020017f466f727761726465722063616c6c20726576657274656400000000000000000081525061089e565b505050565b600160009054906101000a900473ffffffffffffffffffffffffffffffffffffffff1673ffffffffffffffffffffffffffffffffffffffff163373ffffffffffffffffffffffffffffffffffffffff16146103db576040517f08c379a00000000000000000000000000000000000000000000000000000000081526004016103d29061116d565b60405180910390fd5b60008060009054906101000a900473ffffffffffffffffffffffffffffffffffffffff169050336000806101000a81548173ffffffffffffffffffffffffffffffffffffffff021916908373ffffffffffffffffffffffffffffffffffffffff1602179055506000600160006101000a81548173ffffffffffffffffffffffffffffffffffffffff021916908373ffffffffffffffffffffffffffffffffffffffff1602179055503373ffffffffffffffffffffffffffffffffffffffff168173ffffffffffffffffffffffffffffffffffffffff167f8be0079c531659141344cd1fd0a4f28419497f9722a3daafe3b4186f6b6457e060405160405180910390a350565b60008060009054906101000a900473ffffffffffffffffffffffffffffffffffffffff16905090565b610511610876565b73ffffffffffffffffffffffffffffffffffffffff163373ffffffffffffffffffffffffffffffffffffffff161461057e576040517f08c379a0000000000000000000000000000000000000000000000000000000008152600401610575906111ad565b60405180910390fd5b610586610838565b73ffffffffffffffffffffffffffffffffffffffff166105a4610876565b73ffffffffffffffffffffffffffffffffffffffff16636e296e456040518163ffffffff1660e01b815260040160206040518083038186803b1580156105e957600080fd5b505afa1580156105fd573d6000803e3d6000fd5b505050506040513d601f19601f820116820180604052508101906106219190610eff565b73ffffffffffffffffffffffffffffffffffffffff1614610677576040517f08c379a000000000000000000000000000000000000000000000000000000000815260040161066e9061118d565b60405180910390fd5b610680816108b6565b50565b600061068d610876565b90508073ffffffffffffffffffffffffffffffffffffffff163373ffffffffffffffffffffffffffffffffffffffff16146106fd576040517f08c379a00000000000000000000000000000000000000000000000000000000081526004016106f4906111ad565b60405180910390fd5b600360009054906101000a900473ffffffffffffffffffffffffffffffffffffffff1673ffffffffffffffffffffffffffffffffffffffff168173ffffffffffffffffffffffffffffffffffffffff16636e296e456040518163ffffffff1660e01b815260040160206040518083038186803b15801561077c57600080fd5b505afa158015610790573d6000803e3d6000fd5b505050506040513d601f19601f820116820180604052508101906107b49190610eff565b73ffffffffffffffffffffffffffffffffffffffff161461080a576040517f08c379a00000000000000000000000000000000000000000000000000000000081526004016108019061120d565b60405180910390fd5b610835600360009054906101000a900473ffffffffffffffffffffffffffffffffffffffff166109e5565b50565b6000600260009054906101000a900473ffffffffffffffffffffffffffffffffffffffff16905090565b61086a610aed565b61087381610b7d565b50565b60007f0000000000000000000000000000000000000000000000000000000000000000905090565b60606108ad8484600085610caa565b90509392505050565b3373ffffffffffffffffffffffffffffffffffffffff168173ffffffffffffffffffffffffffffffffffffffff161415610925576040517f08c379a000000000000000000000000000000000000000000000000000000000815260040161091c9061124d565b60405180910390fd5b80600360006101000a81548173ffffffffffffffffffffffffffffffffffffffff021916908373ffffffffffffffffffffffffffffffffffffffff1602179055508073ffffffffffffffffffffffffffffffffffffffff16600260009054906101000a900473ffffffffffffffffffffffffffffffffffffffff1673ffffffffffffffffffffffffffffffffffffffff167f55eb94b097b1cd6441a2403b6e04742bd36cfd6e6905ea13cbc5879d26e5b20f60405160405180910390a350565b6000600260009054906101000a900473ffffffffffffffffffffffffffffffffffffffff16905081600260006101000a81548173ffffffffffffffffffffffffffffffffffffffff021916908373ffffffffffffffffffffffffffffffffffffffff1602179055506000600360006101000a81548173ffffffffffffffffffffffffffffffffffffffff021916908373ffffffffffffffffffffffffffffffffffffffff1602179055508173ffffffffffffffffffffffffffffffffffffffff168173ffffffffffffffffffffffffffffffffffffffff167fb0121dbcab67289d5cb13a1f35ca086715f35ef418e0eda134c4145a086b627260405160405180910390a35050565b60008054906101000a900473ffffffffffffffffffffffffffffffffffffffff1673ffffffffffffffffffffffffffffffffffffffff163373ffffffffffffffffffffffffffffffffffffffff1614610b7b576040517f08c379a0000000000000000000000000000000000000000000000000000000008152600401610b72906111cd565b60405180910390fd5b565b3373ffffffffffffffffffffffffffffffffffffffff168173ffffffffffffffffffffffffffffffffffffffff161415610bec576040517f08c379a0000000000000000000000000000000000000000000000000000000008152600401610be39061124d565b60405180910390fd5b80600160006101000a81548173ffffffffffffffffffffffffffffffffffffffff021916908373ffffffffffffffffffffffffffffffffffffffff1602179055508073ffffffffffffffffffffffffffffffffffffffff1660008054906101000a900473ffffffffffffffffffffffffffffffffffffffff1673ffffffffffffffffffffffffffffffffffffffff167fed8889f560326eb138920d842192f0eb3dd22b4f139c87a2c57538e05bae127860405160405180910390a350565b606082471015610cef576040517f08c379a0000000000000000000000000000000000000000000000000000000008152600401610ce6906111ed565b60405180910390fd5b610cf885610dbe565b610d37576040517f08c379a0000000000000000000000000000000000000000000000000000000008152600401610d2e9061122d565b60405180910390fd5b6000808673ffffffffffffffffffffffffffffffffffffffff168587604051610d609190611119565b60006040518083038185875af1925050503d8060008114610d9d576040519150601f19603f3d011682016040523d82523d6000602084013e610da2565b606091505b5091509150610db2828286610dd1565b92505050949350505050565b600080823b905060008111915050919050565b60608315610de157829050610e31565b600083511115610df45782518084602001fd5b816040517f08c379a0000000000000000000000000000000000000000000000000000000008152600401610e28919061114b565b60405180910390fd5b9392505050565b6000610e4b610e4684611292565b61126d565b905082815260208101848484011115610e6757610e666113ce565b5b610e72848285611327565b509392505050565b600081359050610e8981611582565b92915050565b600081519050610e9e81611582565b92915050565b600082601f830112610eb957610eb86113c9565b5b8135610ec9848260208601610e38565b91505092915050565b600060208284031215610ee857610ee76113d8565b5b6000610ef684828501610e7a565b91505092915050565b600060208284031215610f1557610f146113d8565b5b6000610f2384828501610e8f565b91505092915050565b60008060408385031215610f4357610f426113d8565b5b6000610f5185828601610e7a565b925050602083013567ffffffffffffffff811115610f7257610f716113d3565b5b610f7e85828601610ea4565b9150509250929050565b610f91816112f5565b82525050565b6000610fa2826112c3565b610fac81856112d9565b9350610fbc818560208601611336565b80840191505092915050565b6000610fd3826112ce565b610fdd81856112e4565b9350610fed818560208601611336565b610ff6816113dd565b840191505092915050565b600061100e6016836112e4565b9150611019826113ee565b602082019050919050565b60006110316022836112e4565b915061103c82611417565b604082019050919050565b6000611054601e836112e4565b915061105f82611466565b602082019050919050565b60006110776016836112e4565b91506110828261148f565b602082019050919050565b600061109a6026836112e4565b91506110a5826114b8565b604082019050919050565b60006110bd6019836112e4565b91506110c882611507565b602082019050919050565b60006110e0601d836112e4565b91506110eb82611530565b602082019050919050565b60006111036017836112e4565b915061110e82611559565b602082019050919050565b60006111258284610f97565b915081905092915050565b60006020820190506111456000830184610f88565b92915050565b600060208201905081810360008301526111658184610fc8565b905092915050565b6000602082019050818103600083015261118681611001565b9050919050565b600060208201905081810360008301526111a681611024565b9050919050565b600060208201905081810360008301526111c681611047565b9050919050565b600060208201905081810360008301526111e68161106a565b9050919050565b600060208201905081810360008301526112068161108d565b9050919050565b60006020820190508181036000830152611226816110b0565b9050919050565b60006020820190508181036000830152611246816110d3565b9050919050565b60006020820190508181036000830152611266816110f6565b9050919050565b6000611277611288565b90506112838282611369565b919050565b6000604051905090565b600067ffffffffffffffff8211156112ad576112ac61139a565b5b6112b6826113dd565b9050602081019050919050565b600081519050919050565b600081519050919050565b600081905092915050565b600082825260208201905092915050565b600061130082611307565b9050919050565b600073ffffffffffffffffffffffffffffffffffffffff82169050919050565b82818337600083830152505050565b60005b83811015611354578082015181840152602081019050611339565b83811115611363576000848401525b50505050565b611372826113dd565b810181811067ffffffffffffffff821117156113915761139061139a565b5b80604052505050565b7f4e487b7100000000000000000000000000000000000000000000000000000000600052604160045260246000fd5b600080fd5b600080fd5b600080fd5b600080fd5b6000601f19601f8301169050919050565b7f4d7573742062652070726f706f736564206f776e657200000000000000000000600082015250565b7f78446f6d61696e2073656e646572206973206e6f7420746865204c31206f776e60008201527f6572000000000000000000000000000000000000000000000000000000000000602082015250565b7f53656e646572206973206e6f7420746865204c32206d657373656e6765720000600082015250565b7f4f6e6c792063616c6c61626c65206279206f776e657200000000000000000000600082015250565b7f416464726573733a20696e73756666696369656e742062616c616e636520666f60008201527f722063616c6c0000000000000000000000000000000000000000000000000000602082015250565b7f4d7573742062652070726f706f736564204c31206f776e657200000000000000600082015250565b7f416464726573733a2063616c6c20746f206e6f6e2d636f6e7472616374000000600082015250565b7f43616e6e6f74207472616e7366657220746f2073656c66000000000000000000600082015250565b61158b816112f5565b811461159657600080fd5b5056fe4f7074696d69736d43726f7373446f6d61696e466f7277617264657220312e302e30a2646970667358221220ecbe9835054e94af5377b9f10947aaf971c8e9fa545c60dc353d5b9dabe0b50064736f6c63430008060033",
  "linkReferences": {},
  "deployedLinkReferences": {}
}