{
  "_format": "hh-sol-artifact-1",
  "contractName": "CronReceiver",
  "sourceName": "contracts/chainlink/v0.8/tests/CronReceiver.sol",
  "abi": [
    {
      "anonymous": false,
      "inputs": [],
      "name": "Received1",
      "type": "event"
    },
    {
      "anonymous": false,
      "inputs": [],
      "name": "Received2",
      "type": "event"
    },
    {
      "inputs": [],
      "name": "handler1",
      "outputs": [],
      "stateMutability": "nonpayable",
      "type": "function"
    },
    {
      "inputs": [],
      "name": "handler2",
      "outputs": [],
      "stateMutability": "nonpayable",
      "type": "function"
    },
    {
      "inputs": [],
      "name": "revertHandler",
      "outputs": [],
      "stateMutability": "nonpayable",
      "type": "function"
    }
  ],
  "bytecode": "0x608060405234801561001057600080fd5b506101ae806100206000396000f3fe608060405234801561001057600080fd5b50600436106100415760003560e01c80637e3fa72a14610046578063b46d9f6014610050578063b70a4ebc1461005a575b600080fd5b61004e610064565b005b610058610092565b005b6100626100cd565b005b7f6936b29a1cce189550679446ea15b73e73e1333ae47dd7114932b37e24db2d1e60405160405180910390a1565b6040517f08c379a00000000000000000000000000000000000000000000000000000000081526004016100c49061011e565b60405180910390fd5b7fe966a2f5c176b2a4b21604eca0403c54c15fd1ed9932fc212bd312a86aedd87360405160405180910390a1565b600061010860078361013e565b91506101138261014f565b602082019050919050565b60006020820190508181036000830152610137816100fb565b9050919050565b600082825260208201905092915050565b7f726576657274210000000000000000000000000000000000000000000000000060008201525056fea2646970667358221220011519f5a40bc87d636bd6f807b1ffe208ede8e52f994307dfeff58fd70c9f2464736f6c63430008060033",
  "linkReferences": {},
  "deployedLinkReferences": {}
}