{
  "_format": "hh-sol-artifact-1",
  "contractName": "ArbitrumCrossDomainForwarder",
  "sourceName": "contracts/chainlink/v0.8/dev/ArbitrumCrossDomainForwarder.sol",
  "abi": [
    {
      "inputs": [
        {
          "internalType": "address",
          "name": "l1OwnerAddr",
          "type": "address"
        }
      ],
      "stateMutability": "nonpayable",
      "type": "constructor"
    },
    {
      "anonymous": false,
      "inputs": [
        {
          "indexed": true,
          "internalType": "address",
          "name": "from",
          "type": "address"
        },
        {
          "indexed": true,
          "internalType": "address",
          "name": "to",
          "type": "address"
        }
      ],
      "name": "L1OwnershipTransferRequested",
      "type": "event"
    },
    {
      "anonymous": false,
      "inputs": [
        {
          "indexed": true,
          "internalType": "address",
          "name": "from",
          "type": "address"
        },
        {
          "indexed": true,
          "internalType": "address",
          "name": "to",
          "type": "address"
        }
      ],
      "name": "L1OwnershipTransferred",
      "type": "event"
    },
    {
      "anonymous": false,
      "inputs": [
        {
          "indexed": true,
          "internalType": "address",
          "name": "from",
          "type": "address"
        },
        {
          "indexed": true,
          "internalType": "address",
          "name": "to",
          "type": "address"
        }
      ],
      "name": "OwnershipTransferRequested",
      "type": "event"
    },
    {
      "anonymous": false,
      "inputs": [
        {
          "indexed": true,
          "internalType": "address",
          "name": "from",
          "type": "address"
        },
        {
          "indexed": true,
          "internalType": "address",
          "name": "to",
          "type": "address"
        }
      ],
      "name": "OwnershipTransferred",
      "type": "event"
    },
    {
      "inputs": [],
      "name": "acceptL1Ownership",
      "outputs": [],
      "stateMutability": "nonpayable",
      "type": "function"
    },
    {
      "inputs": [],
      "name": "acceptOwnership",
      "outputs": [],
      "stateMutability": "nonpayable",
      "type": "function"
    },
    {
      "inputs": [],
      "name": "crossDomainMessenger",
      "outputs": [
        {
          "internalType": "address",
          "name": "",
          "type": "address"
        }
      ],
      "stateMutability": "view",
      "type": "function"
    },
    {
      "inputs": [
        {
          "internalType": "address",
          "name": "target",
          "type": "address"
        },
        {
          "internalType": "bytes",
          "name": "data",
          "type": "bytes"
        }
      ],
      "name": "forward",
      "outputs": [],
      "stateMutability": "nonpayable",
      "type": "function"
    },
    {
      "inputs": [],
      "name": "l1Owner",
      "outputs": [
        {
          "internalType": "address",
          "name": "",
          "type": "address"
        }
      ],
      "stateMutability": "view",
      "type": "function"
    },
    {
      "inputs": [],
      "name": "owner",
      "outputs": [
        {
          "internalType": "address",
          "name": "",
          "type": "address"
        }
      ],
      "stateMutability": "view",
      "type": "function"
    },
    {
      "inputs": [
        {
          "internalType": "address",
          "name": "to",
          "type": "address"
        }
      ],
      "name": "transferL1Ownership",
      "outputs": [],
      "stateMutability": "nonpayable",
      "type": "function"
    },
    {
      "inputs": [
        {
          "internalType": "address",
          "name": "to",
          "type": "address"
        }
      ],
      "name": "transferOwnership",
      "outputs": [],
      "stateMutability": "nonpayable",
      "type": "function"
    },
    {
      "inputs": [],
      "name": "typeAndVersion",
      "outputs": [
        {
          "internalType": "string",
          "name": "",
          "type": "string"
        }
      ],
      "stateMutability": "pure",
      "type": "function"
    }
  ],
  "bytecode": "0x60806040523480156200001157600080fd5b5060405162001774380380620017748339818101604052810190620000379190620003a0565b80338060008073ffffffffffffffffffffffffffffffffffffffff168273ffffffffffffffffffffffffffffffffffffffff161415620000ae576040517f08c379a0000000000000000000000000000000000000000000000000000000008152600401620000a59062000420565b60405180910390fd5b816000806101000a81548173ffffffffffffffffffffffffffffffffffffffff021916908373ffffffffffffffffffffffffffffffffffffffff160217905550600073ffffffffffffffffffffffffffffffffffffffff168173ffffffffffffffffffffffffffffffffffffffff1614620001355762000134816200015160201b60201c565b5b50505062000149816200028160201b60201c565b50506200051a565b3373ffffffffffffffffffffffffffffffffffffffff168173ffffffffffffffffffffffffffffffffffffffff161415620001c3576040517f08c379a0000000000000000000000000000000000000000000000000000000008152600401620001ba9062000442565b60405180910390fd5b80600160006101000a81548173ffffffffffffffffffffffffffffffffffffffff021916908373ffffffffffffffffffffffffffffffffffffffff1602179055508073ffffffffffffffffffffffffffffffffffffffff1660008054906101000a900473ffffffffffffffffffffffffffffffffffffffff1673ffffffffffffffffffffffffffffffffffffffff167fed8889f560326eb138920d842192f0eb3dd22b4f139c87a2c57538e05bae127860405160405180910390a350565b6000600260009054906101000a900473ffffffffffffffffffffffffffffffffffffffff16905081600260006101000a81548173ffffffffffffffffffffffffffffffffffffffff021916908373ffffffffffffffffffffffffffffffffffffffff1602179055506000600360006101000a81548173ffffffffffffffffffffffffffffffffffffffff021916908373ffffffffffffffffffffffffffffffffffffffff1602179055508173ffffffffffffffffffffffffffffffffffffffff168173ffffffffffffffffffffffffffffffffffffffff167fb0121dbcab67289d5cb13a1f35ca086715f35ef418e0eda134c4145a086b627260405160405180910390a35050565b6000815190506200039a8162000500565b92915050565b600060208284031215620003b957620003b8620004a9565b5b6000620003c98482850162000389565b91505092915050565b6000620003e160188362000464565b9150620003ee82620004ae565b602082019050919050565b60006200040860178362000464565b91506200041582620004d7565b602082019050919050565b600060208201905081810360008301526200043b81620003d2565b9050919050565b600060208201905081810360008301526200045d81620003f9565b9050919050565b600082825260208201905092915050565b6000620004828262000489565b9050919050565b600073ffffffffffffffffffffffffffffffffffffffff82169050919050565b600080fd5b7f43616e6e6f7420736574206f776e657220746f207a65726f0000000000000000600082015250565b7f43616e6e6f74207472616e7366657220746f2073656c66000000000000000000600082015250565b6200050b8162000475565b81146200051757600080fd5b50565b61124a806200052a6000396000f3fe608060405234801561001057600080fd5b50600436106100935760003560e01c806396b8d7c01161006657806396b8d7c0146100fa578063b2ec078714610116578063d2db637214610120578063f2fde38b1461013e578063f43b36131461015a57610093565b8063181f5a77146100985780636fadcf72146100b657806379ba5097146100d25780638da5cb5b146100dc575b600080fd5b6100a0610178565b6040516100ad9190610e13565b60405180910390f35b6100d060048036038101906100cb9190610c17565b610198565b005b6100da610252565b005b6100e46103e7565b6040516100f19190610df8565b60405180910390f35b610114600480360381019061010f9190610bea565b610410565b005b61011e610491565b005b610128610556565b6040516101359190610df8565b60405180910390f35b61015860048036038101906101539190610bea565b610580565b005b610162610594565b60405161016f9190610df8565b60405180910390f35b60606040518060600160405280602281526020016111f360229139905090565b6101a0610594565b73ffffffffffffffffffffffffffffffffffffffff163373ffffffffffffffffffffffffffffffffffffffff161461020d576040517f08c379a000000000000000000000000000000000000000000000000000000000815260040161020490610e55565b60405180910390fd5b61024d82826040518060400160405280601781526020017f466f727761726465722063616c6c2072657665727465640000000000000000008152506105ab565b505050565b600160009054906101000a900473ffffffffffffffffffffffffffffffffffffffff1673ffffffffffffffffffffffffffffffffffffffff163373ffffffffffffffffffffffffffffffffffffffff16146102e2576040517f08c379a00000000000000000000000000000000000000000000000000000000081526004016102d990610e35565b60405180910390fd5b60008060009054906101000a900473ffffffffffffffffffffffffffffffffffffffff169050336000806101000a81548173ffffffffffffffffffffffffffffffffffffffff021916908373ffffffffffffffffffffffffffffffffffffffff1602179055506000600160006101000a81548173ffffffffffffffffffffffffffffffffffffffff021916908373ffffffffffffffffffffffffffffffffffffffff1602179055503373ffffffffffffffffffffffffffffffffffffffff168173ffffffffffffffffffffffffffffffffffffffff167f8be0079c531659141344cd1fd0a4f28419497f9722a3daafe3b4186f6b6457e060405160405180910390a350565b60008060009054906101000a900473ffffffffffffffffffffffffffffffffffffffff16905090565b610418610594565b73ffffffffffffffffffffffffffffffffffffffff163373ffffffffffffffffffffffffffffffffffffffff1614610485576040517f08c379a000000000000000000000000000000000000000000000000000000000815260040161047c90610e55565b60405180910390fd5b61048e816105c3565b50565b6104bc600360009054906101000a900473ffffffffffffffffffffffffffffffffffffffff166106f2565b73ffffffffffffffffffffffffffffffffffffffff163373ffffffffffffffffffffffffffffffffffffffff1614610529576040517f08c379a000000000000000000000000000000000000000000000000000000000815260040161052090610eb5565b60405180910390fd5b610554600360009054906101000a900473ffffffffffffffffffffffffffffffffffffffff16610712565b565b6000600260009054906101000a900473ffffffffffffffffffffffffffffffffffffffff16905090565b61058861081a565b610591816108aa565b50565b60006105a66105a1610556565b6106f2565b905090565b60606105ba84846000856109d7565b90509392505050565b3373ffffffffffffffffffffffffffffffffffffffff168173ffffffffffffffffffffffffffffffffffffffff161415610632576040517f08c379a000000000000000000000000000000000000000000000000000000000815260040161062990610ef5565b60405180910390fd5b80600360006101000a81548173ffffffffffffffffffffffffffffffffffffffff021916908373ffffffffffffffffffffffffffffffffffffffff1602179055508073ffffffffffffffffffffffffffffffffffffffff16600260009054906101000a900473ffffffffffffffffffffffffffffffffffffffff1673ffffffffffffffffffffffffffffffffffffffff167f55eb94b097b1cd6441a2403b6e04742bd36cfd6e6905ea13cbc5879d26e5b20f60405160405180910390a350565b600073111100000000000000000000000000000000111182019050919050565b6000600260009054906101000a900473ffffffffffffffffffffffffffffffffffffffff16905081600260006101000a81548173ffffffffffffffffffffffffffffffffffffffff021916908373ffffffffffffffffffffffffffffffffffffffff1602179055506000600360006101000a81548173ffffffffffffffffffffffffffffffffffffffff021916908373ffffffffffffffffffffffffffffffffffffffff1602179055508173ffffffffffffffffffffffffffffffffffffffff168173ffffffffffffffffffffffffffffffffffffffff167fb0121dbcab67289d5cb13a1f35ca086715f35ef418e0eda134c4145a086b627260405160405180910390a35050565b60008054906101000a900473ffffffffffffffffffffffffffffffffffffffff1673ffffffffffffffffffffffffffffffffffffffff163373ffffffffffffffffffffffffffffffffffffffff16146108a8576040517f08c379a000000000000000000000000000000000000000000000000000000000815260040161089f90610e75565b60405180910390fd5b565b3373ffffffffffffffffffffffffffffffffffffffff168173ffffffffffffffffffffffffffffffffffffffff161415610919576040517f08c379a000000000000000000000000000000000000000000000000000000000815260040161091090610ef5565b60405180910390fd5b80600160006101000a81548173ffffffffffffffffffffffffffffffffffffffff021916908373ffffffffffffffffffffffffffffffffffffffff1602179055508073ffffffffffffffffffffffffffffffffffffffff1660008054906101000a900473ffffffffffffffffffffffffffffffffffffffff1673ffffffffffffffffffffffffffffffffffffffff167fed8889f560326eb138920d842192f0eb3dd22b4f139c87a2c57538e05bae127860405160405180910390a350565b606082471015610a1c576040517f08c379a0000000000000000000000000000000000000000000000000000000008152600401610a1390610e95565b60405180910390fd5b610a2585610aeb565b610a64576040517f08c379a0000000000000000000000000000000000000000000000000000000008152600401610a5b90610ed5565b60405180910390fd5b6000808673ffffffffffffffffffffffffffffffffffffffff168587604051610a8d9190610de1565b60006040518083038185875af1925050503d8060008114610aca576040519150601f19603f3d011682016040523d82523d6000602084013e610acf565b606091505b5091509150610adf828286610afe565b92505050949350505050565b600080823b905060008111915050919050565b60608315610b0e57829050610b5e565b600083511115610b215782518084602001fd5b816040517f08c379a0000000000000000000000000000000000000000000000000000000008152600401610b559190610e13565b60405180910390fd5b9392505050565b6000610b78610b7384610f3a565b610f15565b905082815260208101848484011115610b9457610b93611076565b5b610b9f848285610fcf565b509392505050565b600081359050610bb6816111db565b92915050565b600082601f830112610bd157610bd0611071565b5b8135610be1848260208601610b65565b91505092915050565b600060208284031215610c0057610bff611080565b5b6000610c0e84828501610ba7565b91505092915050565b60008060408385031215610c2e57610c2d611080565b5b6000610c3c85828601610ba7565b925050602083013567ffffffffffffffff811115610c5d57610c5c61107b565b5b610c6985828601610bbc565b9150509250929050565b610c7c81610f9d565b82525050565b6000610c8d82610f6b565b610c978185610f81565b9350610ca7818560208601610fde565b80840191505092915050565b6000610cbe82610f76565b610cc88185610f8c565b9350610cd8818560208601610fde565b610ce181611085565b840191505092915050565b6000610cf9601683610f8c565b9150610d0482611096565b602082019050919050565b6000610d1c601e83610f8c565b9150610d27826110bf565b602082019050919050565b6000610d3f601683610f8c565b9150610d4a826110e8565b602082019050919050565b6000610d62602683610f8c565b9150610d6d82611111565b604082019050919050565b6000610d85601983610f8c565b9150610d9082611160565b602082019050919050565b6000610da8601d83610f8c565b9150610db382611189565b602082019050919050565b6000610dcb601783610f8c565b9150610dd6826111b2565b602082019050919050565b6000610ded8284610c82565b915081905092915050565b6000602082019050610e0d6000830184610c73565b92915050565b60006020820190508181036000830152610e2d8184610cb3565b905092915050565b60006020820190508181036000830152610e4e81610cec565b9050919050565b60006020820190508181036000830152610e6e81610d0f565b9050919050565b60006020820190508181036000830152610e8e81610d32565b9050919050565b60006020820190508181036000830152610eae81610d55565b9050919050565b60006020820190508181036000830152610ece81610d78565b9050919050565b60006020820190508181036000830152610eee81610d9b565b9050919050565b60006020820190508181036000830152610f0e81610dbe565b9050919050565b6000610f1f610f30565b9050610f2b8282611011565b919050565b6000604051905090565b600067ffffffffffffffff821115610f5557610f54611042565b5b610f5e82611085565b9050602081019050919050565b600081519050919050565b600081519050919050565b600081905092915050565b600082825260208201905092915050565b6000610fa882610faf565b9050919050565b600073ffffffffffffffffffffffffffffffffffffffff82169050919050565b82818337600083830152505050565b60005b83811015610ffc578082015181840152602081019050610fe1565b8381111561100b576000848401525b50505050565b61101a82611085565b810181811067ffffffffffffffff8211171561103957611038611042565b5b80604052505050565b7f4e487b7100000000000000000000000000000000000000000000000000000000600052604160045260246000fd5b600080fd5b600080fd5b600080fd5b600080fd5b6000601f19601f8301169050919050565b7f4d7573742062652070726f706f736564206f776e657200000000000000000000600082015250565b7f53656e646572206973206e6f7420746865204c32206d657373656e6765720000600082015250565b7f4f6e6c792063616c6c61626c65206279206f776e657200000000000000000000600082015250565b7f416464726573733a20696e73756666696369656e742062616c616e636520666f60008201527f722063616c6c0000000000000000000000000000000000000000000000000000602082015250565b7f4d7573742062652070726f706f736564204c31206f776e657200000000000000600082015250565b7f416464726573733a2063616c6c20746f206e6f6e2d636f6e7472616374000000600082015250565b7f43616e6e6f74207472616e7366657220746f2073656c66000000000000000000600082015250565b6111e481610f9d565b81146111ef57600080fd5b5056fe417262697472756d43726f7373446f6d61696e466f7277617264657220312e302e30a264697066735822122070148fcc5c0cb077a305863219afe0042c6b7513ac7702fd09805d03a99565d864736f6c63430008060033",
  "linkReferences": {},
  "deployedLinkReferences": {}
}