{
  "_format": "hh-sol-artifact-1",
  "contractName": "VRFExternalSubOwnerExample",
  "sourceName": "contracts/chainlink/v0.8/tests/VRFExternalSubOwnerExample.sol",
  "abi": [
    {
      "inputs": [
        {
          "internalType": "address",
          "name": "vrfCoordinator",
          "type": "address"
        },
        {
          "internalType": "address",
          "name": "link",
          "type": "address"
        }
      ],
      "stateMutability": "nonpayable",
      "type": "constructor"
    },
    {
      "inputs": [
        {
          "internalType": "address",
          "name": "have",
          "type": "address"
        },
        {
          "internalType": "address",
          "name": "want",
          "type": "address"
        }
      ],
      "name": "OnlyCoordinatorCanFulfill",
      "type": "error"
    },
    {
      "inputs": [
        {
          "internalType": "uint256",
          "name": "requestId",
          "type": "uint256"
        },
        {
          "internalType": "uint256[]",
          "name": "randomWords",
          "type": "uint256[]"
        }
      ],
      "name": "rawFulfillRandomWords",
      "outputs": [],
      "stateMutability": "nonpayable",
      "type": "function"
    },
    {
      "inputs": [
        {
          "internalType": "uint64",
          "name": "subId",
          "type": "uint64"
        },
        {
          "internalType": "uint32",
          "name": "callbackGasLimit",
          "type": "uint32"
        },
        {
          "internalType": "uint16",
          "name": "requestConfirmations",
          "type": "uint16"
        },
        {
          "internalType": "uint32",
          "name": "numWords",
          "type": "uint32"
        },
        {
          "internalType": "bytes32",
          "name": "keyHash",
          "type": "bytes32"
        }
      ],
      "name": "requestRandomWords",
      "outputs": [],
      "stateMutability": "nonpayable",
      "type": "function"
    },
    {
      "inputs": [
        {
          "internalType": "uint256",
          "name": "",
          "type": "uint256"
        }
      ],
      "name": "s_randomWords",
      "outputs": [
        {
          "internalType": "uint256",
          "name": "",
          "type": "uint256"
        }
      ],
      "stateMutability": "view",
      "type": "function"
    },
    {
      "inputs": [],
      "name": "s_requestId",
      "outputs": [
        {
          "internalType": "uint256",
          "name": "",
          "type": "uint256"
        }
      ],
      "stateMutability": "view",
      "type": "function"
    },
    {
      "inputs": [
        {
          "internalType": "address",
          "name": "newOwner",
          "type": "address"
        }
      ],
      "name": "transferOwnership",
      "outputs": [],
      "stateMutability": "nonpayable",
      "type": "function"
    }
  ],
  "bytecode": "0x60a060405234801561001057600080fd5b50604051610c70380380610c7083398181016040528101906100329190610149565b818073ffffffffffffffffffffffffffffffffffffffff1660808173ffffffffffffffffffffffffffffffffffffffff1660601b8152505050816000806101000a81548173ffffffffffffffffffffffffffffffffffffffff021916908373ffffffffffffffffffffffffffffffffffffffff16021790555080600160006101000a81548173ffffffffffffffffffffffffffffffffffffffff021916908373ffffffffffffffffffffffffffffffffffffffff16021790555033600460006101000a81548173ffffffffffffffffffffffffffffffffffffffff021916908373ffffffffffffffffffffffffffffffffffffffff16021790555050506101d7565b600081519050610143816101c0565b92915050565b600080604083850312156101605761015f6101bb565b5b600061016e85828601610134565b925050602061017f85828601610134565b9150509250929050565b60006101948261019b565b9050919050565b600073ffffffffffffffffffffffffffffffffffffffff82169050919050565b600080fd5b6101c981610189565b81146101d457600080fd5b50565b60805160601c610a746101fc6000396000818161010001526101540152610a746000f3fe608060405234801561001057600080fd5b50600436106100575760003560e01c80631fe543e31461005c5780639561f02314610078578063e89e106a14610094578063f2fde38b146100b2578063f6eaffc8146100ce575b600080fd5b61007660048036038101906100719190610621565b6100fe565b005b610092600480360381019061008d919061067d565b6101be565b005b61009c6102d8565b6040516100a99190610811565b60405180910390f35b6100cc60048036038101906100c7919061059a565b6102de565b005b6100e860048036038101906100e391906105c7565b61037c565b6040516100f59190610811565b60405180910390f35b7f000000000000000000000000000000000000000000000000000000000000000073ffffffffffffffffffffffffffffffffffffffff163373ffffffffffffffffffffffffffffffffffffffff16146101b057337f00000000000000000000000000000000000000000000000000000000000000006040517f1cf993f40000000000000000000000000000000000000000000000000000000081526004016101a7929190610775565b60405180910390fd5b6101ba82826103a0565b5050565b600460009054906101000a900473ffffffffffffffffffffffffffffffffffffffff1673ffffffffffffffffffffffffffffffffffffffff163373ffffffffffffffffffffffffffffffffffffffff161461021857600080fd5b60008054906101000a900473ffffffffffffffffffffffffffffffffffffffff1673ffffffffffffffffffffffffffffffffffffffff16635d3b1d3082878688876040518663ffffffff1660e01b815260040161027995949392919061079e565b602060405180830381600087803b15801561029357600080fd5b505af11580156102a7573d6000803e3d6000fd5b505050506040513d601f19601f820116820180604052508101906102cb91906105f4565b6003819055505050505050565b60035481565b600460009054906101000a900473ffffffffffffffffffffffffffffffffffffffff1673ffffffffffffffffffffffffffffffffffffffff163373ffffffffffffffffffffffffffffffffffffffff161461033857600080fd5b80600460006101000a81548173ffffffffffffffffffffffffffffffffffffffff021916908373ffffffffffffffffffffffffffffffffffffffff16021790555050565b6002818154811061038c57600080fd5b906000526020600020016000915090505481565b60035482146103e4576040517f08c379a00000000000000000000000000000000000000000000000000000000081526004016103db906107f1565b60405180910390fd5b80600290805190602001906103fa9291906103ff565b505050565b82805482825590600052602060002090810192821561043b579160200282015b8281111561043a57825182559160200191906001019061041f565b5b509050610448919061044c565b5090565b5b8082111561046557600081600090555060010161044d565b5090565b600061047c61047784610851565b61082c565b9050808382526020820190508285602086028201111561049f5761049e61096b565b5b60005b858110156104cf57816104b58882610546565b8452602084019350602083019250506001810190506104a2565b5050509392505050565b6000813590506104e8816109b4565b92915050565b600082601f83011261050357610502610966565b5b8135610513848260208601610469565b91505092915050565b60008135905061052b816109cb565b92915050565b600081359050610540816109e2565b92915050565b600081359050610555816109f9565b92915050565b60008151905061056a816109f9565b92915050565b60008135905061057f81610a10565b92915050565b60008135905061059481610a27565b92915050565b6000602082840312156105b0576105af610975565b5b60006105be848285016104d9565b91505092915050565b6000602082840312156105dd576105dc610975565b5b60006105eb84828501610546565b91505092915050565b60006020828403121561060a57610609610975565b5b60006106188482850161055b565b91505092915050565b6000806040838503121561063857610637610975565b5b600061064685828601610546565b925050602083013567ffffffffffffffff81111561066757610666610970565b5b610673858286016104ee565b9150509250929050565b600080600080600060a0868803121561069957610698610975565b5b60006106a788828901610585565b95505060206106b888828901610570565b94505060406106c988828901610531565b93505060606106da88828901610570565b92505060806106eb8882890161051c565b9150509295509295909350565b6107018161088e565b82525050565b610710816108a0565b82525050565b600061072360178361087d565b915061072e8261098b565b602082019050919050565b610742816108aa565b82525050565b610751816108d8565b82525050565b610760816108e2565b82525050565b61076f816108f2565b82525050565b600060408201905061078a60008301856106f8565b61079760208301846106f8565b9392505050565b600060a0820190506107b36000830188610707565b6107c06020830187610766565b6107cd6040830186610739565b6107da6060830185610757565b6107e76080830184610757565b9695505050505050565b6000602082019050818103600083015261080a81610716565b9050919050565b60006020820190506108266000830184610748565b92915050565b6000610836610847565b90506108428282610906565b919050565b6000604051905090565b600067ffffffffffffffff82111561086c5761086b610937565b5b602082029050602081019050919050565b600082825260208201905092915050565b6000610899826108b8565b9050919050565b6000819050919050565b600061ffff82169050919050565b600073ffffffffffffffffffffffffffffffffffffffff82169050919050565b6000819050919050565b600063ffffffff82169050919050565b600067ffffffffffffffff82169050919050565b61090f8261097a565b810181811067ffffffffffffffff8211171561092e5761092d610937565b5b80604052505050565b7f4e487b7100000000000000000000000000000000000000000000000000000000600052604160045260246000fd5b600080fd5b600080fd5b600080fd5b600080fd5b6000601f19601f8301169050919050565b7f7265717565737420494420697320696e636f7272656374000000000000000000600082015250565b6109bd8161088e565b81146109c857600080fd5b50565b6109d4816108a0565b81146109df57600080fd5b50565b6109eb816108aa565b81146109f657600080fd5b50565b610a02816108d8565b8114610a0d57600080fd5b50565b610a19816108e2565b8114610a2457600080fd5b50565b610a30816108f2565b8114610a3b57600080fd5b5056fea2646970667358221220673f6da083044a3e6ccbe28ebce601c21dcd30964029e97bb431954fc9538e0764736f6c63430008060033",
  "linkReferences": {},
  "deployedLinkReferences": {}
}