{
  "_format": "hh-sol-artifact-1",
  "contractName": "ArbitrumSequencerUptimeFeed",
  "sourceName": "contracts/chainlink/v0.8/dev/ArbitrumSequencerUptimeFeed.sol",
  "abi": [
    {
      "inputs": [
        {
          "internalType": "address",
          "name": "flagsAddress",
          "type": "address"
        },
        {
          "internalType": "address",
          "name": "l1SenderAddress",
          "type": "address"
        }
      ],
      "stateMutability": "nonpayable",
      "type": "constructor"
    },
    {
      "inputs": [],
      "name": "AlreadyInitialized",
      "type": "error"
    },
    {
      "inputs": [],
      "name": "InvalidSender",
      "type": "error"
    },
    {
      "inputs": [],
      "name": "NoDataPresent",
      "type": "error"
    },
    {
      "inputs": [],
      "name": "Uninitialized",
      "type": "error"
    },
    {
      "anonymous": false,
      "inputs": [
        {
          "indexed": false,
          "internalType": "address",
          "name": "user",
          "type": "address"
        }
      ],
      "name": "AddedAccess",
      "type": "event"
    },
    {
      "anonymous": false,
      "inputs": [
        {
          "indexed": true,
          "internalType": "int256",
          "name": "current",
          "type": "int256"
        },
        {
          "indexed": true,
          "internalType": "uint256",
          "name": "roundId",
          "type": "uint256"
        },
        {
          "indexed": false,
          "internalType": "uint256",
          "name": "updatedAt",
          "type": "uint256"
        }
      ],
      "name": "AnswerUpdated",
      "type": "event"
    },
    {
      "anonymous": false,
      "inputs": [],
      "name": "CheckAccessDisabled",
      "type": "event"
    },
    {
      "anonymous": false,
      "inputs": [],
      "name": "CheckAccessEnabled",
      "type": "event"
    },
    {
      "anonymous": false,
      "inputs": [],
      "name": "Initialized",
      "type": "event"
    },
    {
      "anonymous": false,
      "inputs": [
        {
          "indexed": true,
          "internalType": "address",
          "name": "from",
          "type": "address"
        },
        {
          "indexed": true,
          "internalType": "address",
          "name": "to",
          "type": "address"
        }
      ],
      "name": "L1SenderTransferred",
      "type": "event"
    },
    {
      "anonymous": false,
      "inputs": [
        {
          "indexed": true,
          "internalType": "uint256",
          "name": "roundId",
          "type": "uint256"
        },
        {
          "indexed": true,
          "internalType": "address",
          "name": "startedBy",
          "type": "address"
        },
        {
          "indexed": false,
          "internalType": "uint256",
          "name": "startedAt",
          "type": "uint256"
        }
      ],
      "name": "NewRound",
      "type": "event"
    },
    {
      "anonymous": false,
      "inputs": [
        {
          "indexed": true,
          "internalType": "address",
          "name": "from",
          "type": "address"
        },
        {
          "indexed": true,
          "internalType": "address",
          "name": "to",
          "type": "address"
        }
      ],
      "name": "OwnershipTransferRequested",
      "type": "event"
    },
    {
      "anonymous": false,
      "inputs": [
        {
          "indexed": true,
          "internalType": "address",
          "name": "from",
          "type": "address"
        },
        {
          "indexed": true,
          "internalType": "address",
          "name": "to",
          "type": "address"
        }
      ],
      "name": "OwnershipTransferred",
      "type": "event"
    },
    {
      "anonymous": false,
      "inputs": [
        {
          "indexed": false,
          "internalType": "address",
          "name": "user",
          "type": "address"
        }
      ],
      "name": "RemovedAccess",
      "type": "event"
    },
    {
      "inputs": [],
      "name": "FLAGS",
      "outputs": [
        {
          "internalType": "contract FlagsInterface",
          "name": "",
          "type": "address"
        }
      ],
      "stateMutability": "view",
      "type": "function"
    },
    {
      "inputs": [],
      "name": "FLAG_L2_SEQ_OFFLINE",
      "outputs": [
        {
          "internalType": "address",
          "name": "",
          "type": "address"
        }
      ],
      "stateMutability": "view",
      "type": "function"
    },
    {
      "inputs": [],
      "name": "acceptOwnership",
      "outputs": [],
      "stateMutability": "nonpayable",
      "type": "function"
    },
    {
      "inputs": [
        {
          "internalType": "address",
          "name": "_user",
          "type": "address"
        }
      ],
      "name": "addAccess",
      "outputs": [],
      "stateMutability": "nonpayable",
      "type": "function"
    },
    {
      "inputs": [],
      "name": "aliasedL1MessageSender",
      "outputs": [
        {
          "internalType": "address",
          "name": "",
          "type": "address"
        }
      ],
      "stateMutability": "view",
      "type": "function"
    },
    {
      "inputs": [],
      "name": "checkEnabled",
      "outputs": [
        {
          "internalType": "bool",
          "name": "",
          "type": "bool"
        }
      ],
      "stateMutability": "view",
      "type": "function"
    },
    {
      "inputs": [],
      "name": "decimals",
      "outputs": [
        {
          "internalType": "uint8",
          "name": "",
          "type": "uint8"
        }
      ],
      "stateMutability": "view",
      "type": "function"
    },
    {
      "inputs": [],
      "name": "description",
      "outputs": [
        {
          "internalType": "string",
          "name": "",
          "type": "string"
        }
      ],
      "stateMutability": "view",
      "type": "function"
    },
    {
      "inputs": [],
      "name": "disableAccessCheck",
      "outputs": [],
      "stateMutability": "nonpayable",
      "type": "function"
    },
    {
      "inputs": [],
      "name": "enableAccessCheck",
      "outputs": [],
      "stateMutability": "nonpayable",
      "type": "function"
    },
    {
      "inputs": [
        {
          "internalType": "uint256",
          "name": "roundId",
          "type": "uint256"
        }
      ],
      "name": "getAnswer",
      "outputs": [
        {
          "internalType": "int256",
          "name": "",
          "type": "int256"
        }
      ],
      "stateMutability": "view",
      "type": "function"
    },
    {
      "inputs": [
        {
          "internalType": "uint80",
          "name": "_roundId",
          "type": "uint80"
        }
      ],
      "name": "getRoundData",
      "outputs": [
        {
          "internalType": "uint80",
          "name": "roundId",
          "type": "uint80"
        },
        {
          "internalType": "int256",
          "name": "answer",
          "type": "int256"
        },
        {
          "internalType": "uint256",
          "name": "startedAt",
          "type": "uint256"
        },
        {
          "internalType": "uint256",
          "name": "updatedAt",
          "type": "uint256"
        },
        {
          "internalType": "uint80",
          "name": "answeredInRound",
          "type": "uint80"
        }
      ],
      "stateMutability": "view",
      "type": "function"
    },
    {
      "inputs": [
        {
          "internalType": "uint256",
          "name": "roundId",
          "type": "uint256"
        }
      ],
      "name": "getTimestamp",
      "outputs": [
        {
          "internalType": "uint256",
          "name": "",
          "type": "uint256"
        }
      ],
      "stateMutability": "view",
      "type": "function"
    },
    {
      "inputs": [
        {
          "internalType": "address",
          "name": "_user",
          "type": "address"
        },
        {
          "internalType": "bytes",
          "name": "_calldata",
          "type": "bytes"
        }
      ],
      "name": "hasAccess",
      "outputs": [
        {
          "internalType": "bool",
          "name": "",
          "type": "bool"
        }
      ],
      "stateMutability": "view",
      "type": "function"
    },
    {
      "inputs": [],
      "name": "initialize",
      "outputs": [],
      "stateMutability": "nonpayable",
      "type": "function"
    },
    {
      "inputs": [],
      "name": "l1Sender",
      "outputs": [
        {
          "internalType": "address",
          "name": "",
          "type": "address"
        }
      ],
      "stateMutability": "view",
      "type": "function"
    },
    {
      "inputs": [],
      "name": "latestAnswer",
      "outputs": [
        {
          "internalType": "int256",
          "name": "",
          "type": "int256"
        }
      ],
      "stateMutability": "view",
      "type": "function"
    },
    {
      "inputs": [],
      "name": "latestRound",
      "outputs": [
        {
          "internalType": "uint256",
          "name": "",
          "type": "uint256"
        }
      ],
      "stateMutability": "view",
      "type": "function"
    },
    {
      "inputs": [],
      "name": "latestRoundData",
      "outputs": [
        {
          "internalType": "uint80",
          "name": "roundId",
          "type": "uint80"
        },
        {
          "internalType": "int256",
          "name": "answer",
          "type": "int256"
        },
        {
          "internalType": "uint256",
          "name": "startedAt",
          "type": "uint256"
        },
        {
          "internalType": "uint256",
          "name": "updatedAt",
          "type": "uint256"
        },
        {
          "internalType": "uint80",
          "name": "answeredInRound",
          "type": "uint80"
        }
      ],
      "stateMutability": "view",
      "type": "function"
    },
    {
      "inputs": [],
      "name": "latestTimestamp",
      "outputs": [
        {
          "internalType": "uint256",
          "name": "",
          "type": "uint256"
        }
      ],
      "stateMutability": "view",
      "type": "function"
    },
    {
      "inputs": [],
      "name": "owner",
      "outputs": [
        {
          "internalType": "address",
          "name": "",
          "type": "address"
        }
      ],
      "stateMutability": "view",
      "type": "function"
    },
    {
      "inputs": [
        {
          "internalType": "address",
          "name": "_user",
          "type": "address"
        }
      ],
      "name": "removeAccess",
      "outputs": [],
      "stateMutability": "nonpayable",
      "type": "function"
    },
    {
      "inputs": [
        {
          "internalType": "address",
          "name": "to",
          "type": "address"
        }
      ],
      "name": "transferL1Sender",
      "outputs": [],
      "stateMutability": "nonpayable",
      "type": "function"
    },
    {
      "inputs": [
        {
          "internalType": "address",
          "name": "to",
          "type": "address"
        }
      ],
      "name": "transferOwnership",
      "outputs": [],
      "stateMutability": "nonpayable",
      "type": "function"
    },
    {
      "inputs": [],
      "name": "typeAndVersion",
      "outputs": [
        {
          "internalType": "string",
          "name": "",
          "type": "string"
        }
      ],
      "stateMutability": "pure",
      "type": "function"
    },
    {
      "inputs": [
        {
          "internalType": "bool",
          "name": "status",
          "type": "bool"
        },
        {
          "internalType": "uint64",
          "name": "timestamp",
          "type": "uint64"
        }
      ],
      "name": "updateStatus",
      "outputs": [],
      "stateMutability": "nonpayable",
      "type": "function"
    },
    {
      "inputs": [],
      "name": "version",
      "outputs": [
        {
          "internalType": "uint256",
          "name": "",
          "type": "uint256"
        }
      ],
      "stateMutability": "view",
      "type": "function"
    }
  ],
  "bytecode": "0x60a06040526040518060600160405280600069ffffffffffffffffffff168152602001600015158152602001600067ffffffffffffffff16815250600460008201518160000160006101000a81548169ffffffffffffffffffff021916908369ffffffffffffffffffff160217905550602082015181600001600a6101000a81548160ff021916908315150217905550604082015181600001600b6101000a81548167ffffffffffffffff021916908367ffffffffffffffff1602179055505050348015620000cd57600080fd5b5060405162002e8a38038062002e8a8339818101604052810190620000f391906200049f565b338060008073ffffffffffffffffffffffffffffffffffffffff168273ffffffffffffffffffffffffffffffffffffffff16141562000169576040517f08c379a0000000000000000000000000000000000000000000000000000000008152600401620001609062000534565b60405180910390fd5b816000806101000a81548173ffffffffffffffffffffffffffffffffffffffff021916908373ffffffffffffffffffffffffffffffffffffffff160217905550600073ffffffffffffffffffffffffffffffffffffffff168173ffffffffffffffffffffffffffffffffffffffff1614620001f057620001ef816200025d60201b60201c565b5b50505060018060146101000a81548160ff0219169083151502179055506200021e816200038d60201b60201c565b8173ffffffffffffffffffffffffffffffffffffffff1660808173ffffffffffffffffffffffffffffffffffffffff1660601b8152505050506200062e565b3373ffffffffffffffffffffffffffffffffffffffff168173ffffffffffffffffffffffffffffffffffffffff161415620002cf576040517f08c379a0000000000000000000000000000000000000000000000000000000008152600401620002c69062000556565b60405180910390fd5b80600160006101000a81548173ffffffffffffffffffffffffffffffffffffffff021916908373ffffffffffffffffffffffffffffffffffffffff1602179055508073ffffffffffffffffffffffffffffffffffffffff1660008054906101000a900473ffffffffffffffffffffffffffffffffffffffff1673ffffffffffffffffffffffffffffffffffffffff167fed8889f560326eb138920d842192f0eb3dd22b4f139c87a2c57538e05bae127860405160405180910390a350565b6000600360009054906101000a900473ffffffffffffffffffffffffffffffffffffffff1690508173ffffffffffffffffffffffffffffffffffffffff168173ffffffffffffffffffffffffffffffffffffffff1614620004845781600360006101000a81548173ffffffffffffffffffffffffffffffffffffffff021916908373ffffffffffffffffffffffffffffffffffffffff1602179055508173ffffffffffffffffffffffffffffffffffffffff168173ffffffffffffffffffffffffffffffffffffffff167f8e6da65f164d652f378f48652c0e1ca58d7c9cc52ceaa40c1dad055cd7681d1860405160405180910390a35b5050565b600081519050620004998162000614565b92915050565b60008060408385031215620004b957620004b8620005bd565b5b6000620004c98582860162000488565b9250506020620004dc8582860162000488565b9150509250929050565b6000620004f560188362000578565b91506200050282620005c2565b602082019050919050565b60006200051c60178362000578565b91506200052982620005eb565b602082019050919050565b600060208201905081810360008301526200054f81620004e6565b9050919050565b6000602082019050818103600083015262000571816200050d565b9050919050565b600082825260208201905092915050565b600062000596826200059d565b9050919050565b600073ffffffffffffffffffffffffffffffffffffffff82169050919050565b600080fd5b7f43616e6e6f7420736574206f776e657220746f207a65726f0000000000000000600082015250565b7f43616e6e6f74207472616e7366657220746f2073656c66000000000000000000600082015250565b6200061f8162000589565b81146200062b57600080fd5b50565b60805160601c6128286200066260003960008181610baa01528181610f3c01528181611c3e0152611d0301526128286000f3fe608060405234801561001057600080fd5b50600436106101a95760003560e01c80638205bf6a116100f9578063b5ab58dc11610097578063dc7f012411610071578063dc7f012414610456578063ed8378f514610474578063f2fde38b14610490578063feaf968c146104ac576101a9565b8063b5ab58dc146103d8578063b633620c14610408578063b7558b7a14610438576101a9565b8063926aa9f6116100d3578063926aa9f61461034c5780639728538f1461036a5780639a6fc8f514610388578063a118f249146103bc576101a9565b80638205bf6a146102f45780638823da6c146103125780638da5cb5b1461032e576101a9565b806354fd4d50116101665780637284e416116101405780637284e416146102b857806379ba5097146102d65780638038e4a1146102e05780638129fc1c146102ea576101a9565b806354fd4d501461024c578063668a0f021461026a5780636b14daf814610288576101a9565b80630a756983146101ae578063181f5a77146101b85780631e8d27dd146101d6578063284afc08146101f4578063313ce5671461021057806350d25bcd1461022e575b600080fd5b6101b66104ce565b005b6101c0610535565b6040516101cd91906122d9565b60405180910390f35b6101de610555565b6040516101eb919061226d565b60405180910390f35b61020e60048036038101906102099190611fe0565b61058e565b005b6102186105a2565b6040516102259190612404565b60405180910390f35b6102366105a7565b60405161024391906122be565b60405180910390f35b6102546106ed565b604051610261919061237b565b60405180910390f35b6102726106f2565b60405161027f919061237b565b60405180910390f35b6102a2600480360381019061029d919061200d565b61083c565b6040516102af9190612288565b60405180910390f35b6102c0610886565b6040516102cd91906122d9565b60405180910390f35b6102de6108bf565b005b6102e8610a54565b005b6102f2610ab9565b005b6102fc610cc5565b604051610309919061237b565b60405180910390f35b61032c60048036038101906103279190611fe0565b610e0d565b005b610336610efa565b604051610343919061226d565b60405180910390f35b610354610f23565b604051610361919061226d565b60405180910390f35b610372610f3a565b60405161037f91906122a3565b60405180910390f35b6103a2600480360381019061039d9190612103565b610f5e565b6040516103b39594939291906123b1565b60405180910390f35b6103d660048036038101906103d19190611fe0565b6110fa565b005b6103f260048036038101906103ed91906120d6565b6111e6565b6040516103ff91906122be565b60405180910390f35b610422600480360381019061041d91906120d6565b6112fd565b60405161042f919061237b565b60405180910390f35b61044061141d565b60405161044d919061226d565b60405180910390f35b61045e611447565b60405161046b9190612288565b60405180910390f35b61048e60048036038101906104899190612096565b61145a565b005b6104aa60048036038101906104a59190611fe0565b6115d1565b005b6104b46115e5565b6040516104c59594939291906123b1565b60405180910390f35b6104d6611753565b600160149054906101000a900460ff1615610533576000600160146101000a81548160ff0219169083151502179055507f3be8a977a014527b50ae38adda80b56911c267328965c98ddc385d248f53963860405160405180910390a15b565b60606040518060600160405280602181526020016127d260219139905090565b60017ffcb7080d752081d6d1922f1ce193a6d77cd0b0baa9294c50202e8702f5839fce60001c61058591906124d1565b60001b60601c81565b610596611753565b61059f816117e3565b50565b600081565b60006105f8336000368080601f016020809104026020016040519081016040528093929190818152602001838380828437600081840152601f19601f8201169050808301925050505050505061083c565b610637576040517f08c379a000000000000000000000000000000000000000000000000000000000815260040161062e9061233b565b60405180910390fd5b600060046040518060600160405290816000820160009054906101000a900469ffffffffffffffffffff1669ffffffffffffffffffff1669ffffffffffffffffffff16815260200160008201600a9054906101000a900460ff1615151515815260200160008201600b9054906101000a900467ffffffffffffffff1667ffffffffffffffff1667ffffffffffffffff168152505090506106da81600001516118dd565b6106e78160200151611927565b91505090565b600181565b6000610743336000368080601f016020809104026020016040519081016040528093929190818152602001838380828437600081840152601f19601f8201169050808301925050505050505061083c565b610782576040517f08c379a00000000000000000000000000000000000000000000000000000000081526004016107799061233b565b60405180910390fd5b600060046040518060600160405290816000820160009054906101000a900469ffffffffffffffffffff1669ffffffffffffffffffff1669ffffffffffffffffffff16815260200160008201600a9054906101000a900460ff1615151515815260200160008201600b9054906101000a900467ffffffffffffffff1667ffffffffffffffff1667ffffffffffffffff1681525050905061082581600001516118dd565b806000015169ffffffffffffffffffff1691505090565b6000610848838361193f565b8061087e57503273ffffffffffffffffffffffffffffffffffffffff168373ffffffffffffffffffffffffffffffffffffffff16145b905092915050565b6040518060400160405280601f81526020017f4c322053657175656e63657220557074696d652053746174757320466565640081525081565b600160009054906101000a900473ffffffffffffffffffffffffffffffffffffffff1673ffffffffffffffffffffffffffffffffffffffff163373ffffffffffffffffffffffffffffffffffffffff161461094f576040517f08c379a0000000000000000000000000000000000000000000000000000000008152600401610946906122fb565b60405180910390fd5b60008060009054906101000a900473ffffffffffffffffffffffffffffffffffffffff169050336000806101000a81548173ffffffffffffffffffffffffffffffffffffffff021916908373ffffffffffffffffffffffffffffffffffffffff1602179055506000600160006101000a81548173ffffffffffffffffffffffffffffffffffffffff021916908373ffffffffffffffffffffffffffffffffffffffff1602179055503373ffffffffffffffffffffffffffffffffffffffff168173ffffffffffffffffffffffffffffffffffffffff167f8be0079c531659141344cd1fd0a4f28419497f9722a3daafe3b4186f6b6457e060405160405180910390a350565b610a5c611753565b600160149054906101000a900460ff16610ab75760018060146101000a81548160ff0219169083151502179055507faebf329500988c6488a0074e5a0a9ff304561fc5c6fc877aeb1d59c8282c348060405160405180910390a15b565b610ac1611753565b600060046040518060600160405290816000820160009054906101000a900469ffffffffffffffffffff1669ffffffffffffffffffff1669ffffffffffffffffffff16815260200160008201600a9054906101000a900460ff1615151515815260200160008201600b9054906101000a900467ffffffffffffffff1667ffffffffffffffff1667ffffffffffffffff168152505090506000816000015169ffffffffffffffffffff1614610ba1576040517f0dc149f000000000000000000000000000000000000000000000000000000000815260040160405180910390fd5b600042905060007f000000000000000000000000000000000000000000000000000000000000000073ffffffffffffffffffffffffffffffffffffffff1663357e47fe60017ffcb7080d752081d6d1922f1ce193a6d77cd0b0baa9294c50202e8702f5839fce60001c610c1491906124d1565b60001b60601c6040518263ffffffff1660e01b8152600401610c36919061226d565b60206040518083038186803b158015610c4e57600080fd5b505afa158015610c62573d6000803e3d6000fd5b505050506040513d601f19601f82011682018060405250810190610c869190612069565b9050610c94600182846119ae565b7f5daa87a0e9463431830481fd4b6e3403442dfb9a12b9c07597e9f61d50b633c860405160405180910390a1505050565b6000610d16336000368080601f016020809104026020016040519081016040528093929190818152602001838380828437600081840152601f19601f8201169050808301925050505050505061083c565b610d55576040517f08c379a0000000000000000000000000000000000000000000000000000000008152600401610d4c9061233b565b60405180910390fd5b600060046040518060600160405290816000820160009054906101000a900469ffffffffffffffffffff1669ffffffffffffffffffff1669ffffffffffffffffffff16815260200160008201600a9054906101000a900460ff1615151515815260200160008201600b9054906101000a900467ffffffffffffffff1667ffffffffffffffff1667ffffffffffffffff16815250509050610df881600001516118dd565b806040015167ffffffffffffffff1691505090565b610e15611753565b600260008273ffffffffffffffffffffffffffffffffffffffff1673ffffffffffffffffffffffffffffffffffffffff16815260200190815260200160002060009054906101000a900460ff1615610ef7576000600260008373ffffffffffffffffffffffffffffffffffffffff1673ffffffffffffffffffffffffffffffffffffffff16815260200190815260200160002060006101000a81548160ff0219169083151502179055507f3d68a6fce901d20453d1a7aa06bf3950302a735948037deb182a8db66df2a0d181604051610eee919061226d565b60405180910390a15b50565b60008060009054906101000a900473ffffffffffffffffffffffffffffffffffffffff16905090565b6000610f35610f3061141d565b611bbf565b905090565b7f000000000000000000000000000000000000000000000000000000000000000081565b6000806000806000610fb5336000368080601f016020809104026020016040519081016040528093929190818152602001838380828437600081840152601f19601f8201169050808301925050505050505061083c565b610ff4576040517f08c379a0000000000000000000000000000000000000000000000000000000008152600401610feb9061233b565b60405180910390fd5b611018600460000160009054906101000a900469ffffffffffffffffffff166118dd565b61102d8669ffffffffffffffffffff16611bdf565b156110df576000600560008869ffffffffffffffffffff1669ffffffffffffffffffff1681526020019081526020016000206040518060400160405290816000820160009054906101000a900460ff161515151581526020016000820160019054906101000a900467ffffffffffffffff1667ffffffffffffffff1667ffffffffffffffff168152505090506110c68160000151611927565b9450806020015167ffffffffffffffff169350506110e8565b60009350600092505b85945082915084905091939590929450565b611102611753565b600260008273ffffffffffffffffffffffffffffffffffffffff1673ffffffffffffffffffffffffffffffffffffffff16815260200190815260200160002060009054906101000a900460ff166111e3576001600260008373ffffffffffffffffffffffffffffffffffffffff1673ffffffffffffffffffffffffffffffffffffffff16815260200190815260200160002060006101000a81548160ff0219169083151502179055507f87286ad1f399c8e82bf0c4ef4fcdc570ea2e1e92176e5c848b6413545b885db4816040516111da919061226d565b60405180910390a15b50565b6000611237336000368080601f016020809104026020016040519081016040528093929190818152602001838380828437600081840152601f19601f8201169050808301925050505050505061083c565b611276576040517f08c379a000000000000000000000000000000000000000000000000000000000815260040161126d9061233b565b60405180910390fd5b61129a600460000160009054906101000a900469ffffffffffffffffffff166118dd565b6112a382611bdf565b156112f3576112ec600560008469ffffffffffffffffffff1669ffffffffffffffffffff16815260200190815260200160002060000160009054906101000a900460ff16611927565b90506112f8565b600090505b919050565b600061134e336000368080601f016020809104026020016040519081016040528093929190818152602001838380828437600081840152601f19601f8201169050808301925050505050505061083c565b61138d576040517f08c379a00000000000000000000000000000000000000000000000000000000081526004016113849061233b565b60405180910390fd5b6113b1600460000160009054906101000a900469ffffffffffffffffffff166118dd565b6113ba82611bdf565b1561141357600560008369ffffffffffffffffffff1669ffffffffffffffffffff16815260200190815260200160002060000160019054906101000a900467ffffffffffffffff1667ffffffffffffffff169050611418565b600090505b919050565b6000600360009054906101000a900473ffffffffffffffffffffffffffffffffffffffff16905090565b600160149054906101000a900460ff1681565b600060046040518060600160405290816000820160009054906101000a900469ffffffffffffffffffff1669ffffffffffffffffffff1669ffffffffffffffffffff16815260200160008201600a9054906101000a900460ff1615151515815260200160008201600b9054906101000a900467ffffffffffffffff1667ffffffffffffffff1667ffffffffffffffff168152505090506114fd81600001516118dd565b611505610f23565b73ffffffffffffffffffffffffffffffffffffffff163373ffffffffffffffffffffffffffffffffffffffff1614611569576040517fddb5de5e00000000000000000000000000000000000000000000000000000000815260040160405180910390fd5b82151581602001511515141561157f57506115cd565b6001816000018181516115929190612491565b91509069ffffffffffffffffffff16908169ffffffffffffffffffff16815250506115c2816000015184846119ae565b6115cb83611c36565b505b5050565b6115d9611753565b6115e281611dc5565b50565b600080600080600061163c336000368080601f016020809104026020016040519081016040528093929190818152602001838380828437600081840152601f19601f8201169050808301925050505050505061083c565b61167b576040517f08c379a00000000000000000000000000000000000000000000000000000000081526004016116729061233b565b60405180910390fd5b600060046040518060600160405290816000820160009054906101000a900469ffffffffffffffffffff1669ffffffffffffffffffff1669ffffffffffffffffffff16815260200160008201600a9054906101000a900460ff1615151515815260200160008201600b9054906101000a900467ffffffffffffffff1667ffffffffffffffff1667ffffffffffffffff1681525050905061171e81600001516118dd565b806000015195506117328160200151611927565b9450806040015167ffffffffffffffff169350839250859150509091929394565b60008054906101000a900473ffffffffffffffffffffffffffffffffffffffff1673ffffffffffffffffffffffffffffffffffffffff163373ffffffffffffffffffffffffffffffffffffffff16146117e1576040517f08c379a00000000000000000000000000000000000000000000000000000000081526004016117d89061231b565b60405180910390fd5b565b6000600360009054906101000a900473ffffffffffffffffffffffffffffffffffffffff1690508173ffffffffffffffffffffffffffffffffffffffff168173ffffffffffffffffffffffffffffffffffffffff16146118d95781600360006101000a81548173ffffffffffffffffffffffffffffffffffffffff021916908373ffffffffffffffffffffffffffffffffffffffff1602179055508173ffffffffffffffffffffffffffffffffffffffff168173ffffffffffffffffffffffffffffffffffffffff167f8e6da65f164d652f378f48652c0e1ca58d7c9cc52ceaa40c1dad055cd7681d1860405160405180910390a35b5050565b60008169ffffffffffffffffffff161415611924576040517f1c72fad400000000000000000000000000000000000000000000000000000000815260040160405180910390fd5b50565b600081611935576000611938565b60015b9050919050565b6000600260008473ffffffffffffffffffffffffffffffffffffffff1673ffffffffffffffffffffffffffffffffffffffff16815260200190815260200160002060009054906101000a900460ff16806119a65750600160149054906101000a900460ff16155b905092915050565b6000604051806040016040528084151581526020018367ffffffffffffffff168152509050600060405180606001604052808669ffffffffffffffffffff16815260200185151581526020018467ffffffffffffffff16815250905081600560008769ffffffffffffffffffff1669ffffffffffffffffffff16815260200190815260200160002060008201518160000160006101000a81548160ff02191690831515021790555060208201518160000160016101000a81548167ffffffffffffffff021916908367ffffffffffffffff16021790555090505080600460008201518160000160006101000a81548169ffffffffffffffffffff021916908369ffffffffffffffffffff160217905550602082015181600001600a6101000a81548160ff021916908315150217905550604082015181600001600b6101000a81548167ffffffffffffffff021916908367ffffffffffffffff1602179055509050503373ffffffffffffffffffffffffffffffffffffffff168569ffffffffffffffffffff167f0109fc6f55cf40689f02fbaad7af7fe7bbac8a3d2186600afc7d3e10cac6027185604051611b639190612396565b60405180910390a38469ffffffffffffffffffff16611b8185611927565b7f0559884fd3a460db3073b7fc896cc77986f16e378210ded43186175bf646fc5f85604051611bb09190612396565b60405180910390a35050505050565b600073111100000000000000000000000000000000111182019050919050565b60008082118015611bfc575069ffffffffffffffffffff80168211155b8015611c2f575081600460000160009054906101000a900469ffffffffffffffffffff1669ffffffffffffffffffff1610155b9050919050565b8015611d01577f000000000000000000000000000000000000000000000000000000000000000073ffffffffffffffffffffffffffffffffffffffff1663d74af26360017ffcb7080d752081d6d1922f1ce193a6d77cd0b0baa9294c50202e8702f5839fce60001c611ca891906124d1565b60001b60601c6040518263ffffffff1660e01b8152600401611cca919061226d565b600060405180830381600087803b158015611ce457600080fd5b505af1158015611cf8573d6000803e3d6000fd5b50505050611dc2565b7f000000000000000000000000000000000000000000000000000000000000000073ffffffffffffffffffffffffffffffffffffffff1663e37a836660017ffcb7080d752081d6d1922f1ce193a6d77cd0b0baa9294c50202e8702f5839fce60001c611d6d91906124d1565b60001b60601c6040518263ffffffff1660e01b8152600401611d8f919061226d565b600060405180830381600087803b158015611da957600080fd5b505af1158015611dbd573d6000803e3d6000fd5b505050505b50565b3373ffffffffffffffffffffffffffffffffffffffff168173ffffffffffffffffffffffffffffffffffffffff161415611e34576040517f08c379a0000000000000000000000000000000000000000000000000000000008152600401611e2b9061235b565b60405180910390fd5b80600160006101000a81548173ffffffffffffffffffffffffffffffffffffffff021916908373ffffffffffffffffffffffffffffffffffffffff1602179055508073ffffffffffffffffffffffffffffffffffffffff1660008054906101000a900473ffffffffffffffffffffffffffffffffffffffff1673ffffffffffffffffffffffffffffffffffffffff167fed8889f560326eb138920d842192f0eb3dd22b4f139c87a2c57538e05bae127860405160405180910390a350565b6000611f05611f0084612444565b61241f565b905082815260208101848484011115611f2157611f2061269a565b5b611f2c8482856125c4565b509392505050565b600081359050611f438161275e565b92915050565b600081359050611f5881612775565b92915050565b600081519050611f6d81612775565b92915050565b600082601f830112611f8857611f87612695565b5b8135611f98848260208601611ef2565b91505092915050565b600081359050611fb08161278c565b92915050565b600081359050611fc5816127a3565b92915050565b600081359050611fda816127ba565b92915050565b600060208284031215611ff657611ff56126a4565b5b600061200484828501611f34565b91505092915050565b60008060408385031215612024576120236126a4565b5b600061203285828601611f34565b925050602083013567ffffffffffffffff8111156120535761205261269f565b5b61205f85828601611f73565b9150509250929050565b60006020828403121561207f5761207e6126a4565b5b600061208d84828501611f5e565b91505092915050565b600080604083850312156120ad576120ac6126a4565b5b60006120bb85828601611f49565b92505060206120cc85828601611fb6565b9150509250929050565b6000602082840312156120ec576120eb6126a4565b5b60006120fa84828501611fa1565b91505092915050565b600060208284031215612119576121186126a4565b5b600061212784828501611fcb565b91505092915050565b61213981612505565b82525050565b61214881612517565b82525050565b6121578161258e565b82525050565b61216681612523565b82525050565b600061217782612475565b6121818185612480565b93506121918185602086016125d3565b61219a816126a9565b840191505092915050565b60006121b2601683612480565b91506121bd826126ba565b602082019050919050565b60006121d5601683612480565b91506121e0826126e3565b602082019050919050565b60006121f8600983612480565b91506122038261270c565b602082019050919050565b600061221b601783612480565b915061222682612735565b602082019050919050565b61223a8161254d565b82525050565b612249816125b2565b82525050565b61225881612578565b82525050565b6122678161256b565b82525050565b60006020820190506122826000830184612130565b92915050565b600060208201905061229d600083018461213f565b92915050565b60006020820190506122b8600083018461214e565b92915050565b60006020820190506122d3600083018461215d565b92915050565b600060208201905081810360008301526122f3818461216c565b905092915050565b60006020820190508181036000830152612314816121a5565b9050919050565b60006020820190508181036000830152612334816121c8565b9050919050565b60006020820190508181036000830152612354816121eb565b9050919050565b600060208201905081810360008301526123748161220e565b9050919050565b60006020820190506123906000830184612231565b92915050565b60006020820190506123ab6000830184612240565b92915050565b600060a0820190506123c6600083018861224f565b6123d3602083018761215d565b6123e06040830186612231565b6123ed6060830185612231565b6123fa608083018461224f565b9695505050505050565b6000602082019050612419600083018461225e565b92915050565b600061242961243a565b90506124358282612606565b919050565b6000604051905090565b600067ffffffffffffffff82111561245f5761245e612666565b5b612468826126a9565b9050602081019050919050565b600081519050919050565b600082825260208201905092915050565b600061249c82612578565b91506124a783612578565b92508269ffffffffffffffffffff038211156124c6576124c5612637565b5b828201905092915050565b60006124dc8261254d565b91506124e78361254d565b9250828210156124fa576124f9612637565b5b828203905092915050565b60006125108261252d565b9050919050565b60008115159050919050565b6000819050919050565b600073ffffffffffffffffffffffffffffffffffffffff82169050919050565b6000819050919050565b600067ffffffffffffffff82169050919050565b600060ff82169050919050565b600069ffffffffffffffffffff82169050919050565b6000612599826125a0565b9050919050565b60006125ab8261252d565b9050919050565b60006125bd82612557565b9050919050565b82818337600083830152505050565b60005b838110156125f15780820151818401526020810190506125d6565b83811115612600576000848401525b50505050565b61260f826126a9565b810181811067ffffffffffffffff8211171561262e5761262d612666565b5b80604052505050565b7f4e487b7100000000000000000000000000000000000000000000000000000000600052601160045260246000fd5b7f4e487b7100000000000000000000000000000000000000000000000000000000600052604160045260246000fd5b600080fd5b600080fd5b600080fd5b600080fd5b6000601f19601f8301169050919050565b7f4d7573742062652070726f706f736564206f776e657200000000000000000000600082015250565b7f4f6e6c792063616c6c61626c65206279206f776e657200000000000000000000600082015250565b7f4e6f206163636573730000000000000000000000000000000000000000000000600082015250565b7f43616e6e6f74207472616e7366657220746f2073656c66000000000000000000600082015250565b61276781612505565b811461277257600080fd5b50565b61277e81612517565b811461278957600080fd5b50565b6127958161254d565b81146127a057600080fd5b50565b6127ac81612557565b81146127b757600080fd5b50565b6127c381612578565b81146127ce57600080fd5b5056fe417262697472756d53657175656e636572557074696d654665656420312e302e30a264697066735822122038d7b364c288ecf11e0ed2a9ebb407c4ca0516892ea63b4cbcbe160d70d1272464736f6c63430008060033",
  "linkReferences": {},
  "deployedLinkReferences": {}
}