{
  "_format": "hh-sol-artifact-1",
  "contractName": "ChainlinkTestHelper",
  "sourceName": "contracts/chainlink/v0.8/tests/ChainlinkTestHelper.sol",
  "abi": [
    {
      "anonymous": false,
      "inputs": [
        {
          "indexed": false,
          "internalType": "bytes",
          "name": "payload",
          "type": "bytes"
        }
      ],
      "name": "RequestData",
      "type": "event"
    },
    {
      "inputs": [
        {
          "internalType": "string",
          "name": "_key",
          "type": "string"
        },
        {
          "internalType": "string",
          "name": "_value",
          "type": "string"
        }
      ],
      "name": "add",
      "outputs": [],
      "stateMutability": "nonpayable",
      "type": "function"
    },
    {
      "inputs": [
        {
          "internalType": "string",
          "name": "_key",
          "type": "string"
        },
        {
          "internalType": "bytes",
          "name": "_value",
          "type": "bytes"
        }
      ],
      "name": "addBytes",
      "outputs": [],
      "stateMutability": "nonpayable",
      "type": "function"
    },
    {
      "inputs": [
        {
          "internalType": "string",
          "name": "_key",
          "type": "string"
        },
        {
          "internalType": "int256",
          "name": "_value",
          "type": "int256"
        }
      ],
      "name": "addInt",
      "outputs": [],
      "stateMutability": "nonpayable",
      "type": "function"
    },
    {
      "inputs": [
        {
          "internalType": "string",
          "name": "_key",
          "type": "string"
        },
        {
          "internalType": "string[]",
          "name": "_values",
          "type": "string[]"
        }
      ],
      "name": "addStringArray",
      "outputs": [],
      "stateMutability": "nonpayable",
      "type": "function"
    },
    {
      "inputs": [
        {
          "internalType": "string",
          "name": "_key",
          "type": "string"
        },
        {
          "internalType": "uint256",
          "name": "_value",
          "type": "uint256"
        }
      ],
      "name": "addUint",
      "outputs": [],
      "stateMutability": "nonpayable",
      "type": "function"
    },
    {
      "inputs": [],
      "name": "closeEvent",
      "outputs": [],
      "stateMutability": "nonpayable",
      "type": "function"
    },
    {
      "inputs": [
        {
          "internalType": "bytes",
          "name": "data",
          "type": "bytes"
        }
      ],
      "name": "setBuffer",
      "outputs": [],
      "stateMutability": "nonpayable",
      "type": "function"
    }
  ],
  "bytecode": "0x608060405234801561001057600080fd5b50612350806100206000396000f3fe608060405234801561001057600080fd5b506004361061007d5760003560e01c80635e31692e1161005b5780635e31692e146100c4578063c85ddbc0146100e0578063cc39406f146100fc578063ebdf86ca146101185761007d565b806303dc5326146100825780630e734a581461008c5780632255beb0146100a8575b600080fd5b61008a610134565b005b6100a660048036038101906100a19190611be0565b610174565b005b6100c260048036038101906100bd9190611a94565b6103c3565b005b6100de60048036038101906100d99190611b0c565b610612565b005b6100fa60048036038101906100f59190611a1c565b610861565b005b610116600480360381019061011191906119d3565b610ab0565b005b610132600480360381019061012d9190611b68565b610cfc565b005b7f84485ae823e5c366e9581c146349e23f73b2f459d9eee1b9f15f36aac3b3145a600060030160000160405161016a9190611ccb565b60405180910390a1565b6000806040518060a0016040529081600082015481526020016001820160009054906101000a900473ffffffffffffffffffffffffffffffffffffffff1673ffffffffffffffffffffffffffffffffffffffff1673ffffffffffffffffffffffffffffffffffffffff1681526020016001820160149054906101000a900460e01b7bffffffffffffffffffffffffffffffffffffffffffffffffffffffff19167bffffffffffffffffffffffffffffffffffffffffffffffffffffffff191681526020016002820154815260200160038201604051806040016040529081600082018054610261906120ed565b80601f016020809104026020016040519081016040528092919081815260200182805461028d906120ed565b80156102da5780601f106102af576101008083540402835291602001916102da565b820191906000526020600020905b8154815290600101906020018083116102bd57829003601f168201915b50505050508152602001600182015481525050815250509050610308838383610f4b9092919063ffffffff16565b80600080820151816000015560208201518160010160006101000a81548173ffffffffffffffffffffffffffffffffffffffff021916908373ffffffffffffffffffffffffffffffffffffffff16021790555060408201518160010160146101000a81548163ffffffff021916908360e01c02179055506060820151816002015560808201518160030160008201518160000190805190602001906103ae929190611750565b50602082015181600101555050905050505050565b6000806040518060a0016040529081600082015481526020016001820160009054906101000a900473ffffffffffffffffffffffffffffffffffffffff1673ffffffffffffffffffffffffffffffffffffffff1673ffffffffffffffffffffffffffffffffffffffff1681526020016001820160149054906101000a900460e01b7bffffffffffffffffffffffffffffffffffffffffffffffffffffffff19167bffffffffffffffffffffffffffffffffffffffffffffffffffffffff1916815260200160028201548152602001600382016040518060400160405290816000820180546104b0906120ed565b80601f01602080910402602001604051908101604052809291908181526020018280546104dc906120ed565b80156105295780601f106104fe57610100808354040283529160200191610529565b820191906000526020600020905b81548152906001019060200180831161050c57829003601f168201915b50505050508152602001600182015481525050815250509050610557838383610f7e9092919063ffffffff16565b80600080820151816000015560208201518160010160006101000a81548173ffffffffffffffffffffffffffffffffffffffff021916908373ffffffffffffffffffffffffffffffffffffffff16021790555060408201518160010160146101000a81548163ffffffff021916908360e01c02179055506060820151816002015560808201518160030160008201518160000190805190602001906105fd929190611750565b50602082015181600101555050905050505050565b6000806040518060a0016040529081600082015481526020016001820160009054906101000a900473ffffffffffffffffffffffffffffffffffffffff1673ffffffffffffffffffffffffffffffffffffffff1673ffffffffffffffffffffffffffffffffffffffff1681526020016001820160149054906101000a900460e01b7bffffffffffffffffffffffffffffffffffffffffffffffffffffffff19167bffffffffffffffffffffffffffffffffffffffffffffffffffffffff1916815260200160028201548152602001600382016040518060400160405290816000820180546106ff906120ed565b80601f016020809104026020016040519081016040528092919081815260200182805461072b906120ed565b80156107785780601f1061074d57610100808354040283529160200191610778565b820191906000526020600020905b81548152906001019060200180831161075b57829003601f168201915b505050505081526020016001820154815250508152505090506107a6838383610fb19092919063ffffffff16565b80600080820151816000015560208201518160010160006101000a81548173ffffffffffffffffffffffffffffffffffffffff021916908373ffffffffffffffffffffffffffffffffffffffff16021790555060408201518160010160146101000a81548163ffffffff021916908360e01c021790555060608201518160020155608082015181600301600082015181600001908051906020019061084c929190611750565b50602082015181600101555050905050505050565b6000806040518060a0016040529081600082015481526020016001820160009054906101000a900473ffffffffffffffffffffffffffffffffffffffff1673ffffffffffffffffffffffffffffffffffffffff1673ffffffffffffffffffffffffffffffffffffffff1681526020016001820160149054906101000a900460e01b7bffffffffffffffffffffffffffffffffffffffffffffffffffffffff19167bffffffffffffffffffffffffffffffffffffffffffffffffffffffff19168152602001600282015481526020016003820160405180604001604052908160008201805461094e906120ed565b80601f016020809104026020016040519081016040528092919081815260200182805461097a906120ed565b80156109c75780601f1061099c576101008083540402835291602001916109c7565b820191906000526020600020905b8154815290600101906020018083116109aa57829003601f168201915b505050505081526020016001820154815250508152505090506109f5838383610fe49092919063ffffffff16565b80600080820151816000015560208201518160010160006101000a81548173ffffffffffffffffffffffffffffffffffffffff021916908373ffffffffffffffffffffffffffffffffffffffff16021790555060408201518160010160146101000a81548163ffffffff021916908360e01c0217905550606082015181600201556080820151816003016000820151816000019080519060200190610a9b929190611750565b50602082015181600101555050905050505050565b6000806040518060a0016040529081600082015481526020016001820160009054906101000a900473ffffffffffffffffffffffffffffffffffffffff1673ffffffffffffffffffffffffffffffffffffffff1673ffffffffffffffffffffffffffffffffffffffff1681526020016001820160149054906101000a900460e01b7bffffffffffffffffffffffffffffffffffffffffffffffffffffffff19167bffffffffffffffffffffffffffffffffffffffffffffffffffffffff191681526020016002820154815260200160038201604051806040016040529081600082018054610b9d906120ed565b80601f0160208091040260200160405190810160405280929190818152602001828054610bc9906120ed565b8015610c165780601f10610beb57610100808354040283529160200191610c16565b820191906000526020600020905b815481529060010190602001808311610bf957829003601f168201915b50505050508152602001600182015481525050815250509050610c42828261106b90919063ffffffff16565b80600080820151816000015560208201518160010160006101000a81548173ffffffffffffffffffffffffffffffffffffffff021916908373ffffffffffffffffffffffffffffffffffffffff16021790555060408201518160010160146101000a81548163ffffffff021916908360e01c0217905550606082015181600201556080820151816003016000820151816000019080519060200190610ce8929190611750565b506020820151816001015550509050505050565b6000806040518060a0016040529081600082015481526020016001820160009054906101000a900473ffffffffffffffffffffffffffffffffffffffff1673ffffffffffffffffffffffffffffffffffffffff1673ffffffffffffffffffffffffffffffffffffffff1681526020016001820160149054906101000a900460e01b7bffffffffffffffffffffffffffffffffffffffffffffffffffffffff19167bffffffffffffffffffffffffffffffffffffffffffffffffffffffff191681526020016002820154815260200160038201604051806040016040529081600082018054610de9906120ed565b80601f0160208091040260200160405190810160405280929190818152602001828054610e15906120ed565b8015610e625780601f10610e3757610100808354040283529160200191610e62565b820191906000526020600020905b815481529060010190602001808311610e4557829003601f168201915b50505050508152602001600182015481525050815250509050610e9083838361108e9092919063ffffffff16565b80600080820151816000015560208201518160010160006101000a81548173ffffffffffffffffffffffffffffffffffffffff021916908373ffffffffffffffffffffffffffffffffffffffff16021790555060408201518160010160146101000a81548163ffffffff021916908360e01c0217905550606082015181600201556080820151816003016000820151816000019080519060200190610f36929190611750565b50602082015181600101555050905050505050565b610f628284608001516110c190919063ffffffff16565b610f798184608001516110e690919063ffffffff16565b505050565b610f958284608001516110c190919063ffffffff16565b610fac81846080015161111690919063ffffffff16565b505050565b610fc88284608001516110c190919063ffffffff16565b610fdf81846080015161113b90919063ffffffff16565b505050565b610ffb8284608001516110c190919063ffffffff16565b61100883608001516111e8565b60005b81518110156110585761104582828151811061102a57611029612257565b5b602002602001015185608001516110c190919063ffffffff16565b808061105090612150565b91505061100b565b5061106683608001516111f6565b505050565b61107a82608001518251611204565b5061108982608001518261126e565b505050565b6110a58284608001516110c190919063ffffffff16565b6110bc8184608001516110c190919063ffffffff16565b505050565b6110ce8260038351611290565b6110e1818361126e90919063ffffffff16565b505050565b67ffffffffffffffff811115611105576111008282611415565b611112565b61111182600083611290565b5b5050565b6111238260028351611290565b611136818361126e90919063ffffffff16565b505050565b7fffffffffffffffffffffffffffffffffffffffffffffffff00000000000000008112156111725761116d8282611461565b6111e4565b67ffffffffffffffff8113156111915761118c8282611415565b6111e3565b600081126111aa576111a582600083611290565b6111e2565b6111e1826001837fffffffffffffffffffffffffffffffffffffffffffffffffffffffffffffffff6111dc9190612002565b611290565b5b5b5b5050565b6111f38160046114d8565b50565b6112018160076114d8565b50565b61120c6117d6565b600060208361121b9190612199565b146112475760208261122d9190612199565b60206112399190612096565b826112449190611de1565b91505b81836020018181525050604051808452600081528281016020016040525082905092915050565b6112766117d6565b611288838460000151518485516114fa565b905092915050565b60178167ffffffffffffffff16116112c7576112c18160058460ff16901b60ff1617846115e990919063ffffffff16565b50611410565b60ff8167ffffffffffffffff161161131d576112f6601860058460ff16901b17846115e990919063ffffffff16565b506113178167ffffffffffffffff166001856116099092919063ffffffff16565b5061140f565b61ffff8167ffffffffffffffff16116113745761134d601960058460ff16901b17846115e990919063ffffffff16565b5061136e8167ffffffffffffffff166002856116099092919063ffffffff16565b5061140e565b63ffffffff8167ffffffffffffffff16116113cd576113a6601a60058460ff16901b17846115e990919063ffffffff16565b506113c78167ffffffffffffffff166004856116099092919063ffffffff16565b5061140d565b6113ea601b60058460ff16901b17846115e990919063ffffffff16565b5061140b8167ffffffffffffffff166008856116099092919063ffffffff16565b505b5b5b5b505050565b61143360026005600660ff16901b17836115e990919063ffffffff16565b5061145d82826040516020016114499190611ced565b604051602081830303815290604052611116565b5050565b61147f60036005600660ff16901b17836115e990919063ffffffff16565b506114d482827fffffffffffffffffffffffffffffffffffffffffffffffffffffffffffffffff6114b09190612002565b6040516020016114c09190611ced565b604051602081830303815290604052611116565b5050565b6114f5601f60058360ff16901b17836115e990919063ffffffff16565b505050565b6115026117d6565b825182111561151057600080fd5b846020015182856115219190611de1565b111561155657611555856002611546886020015188876115419190611de1565b61162b565b6115509190611fa8565b611647565b5b6000808651805187602083010193508088870111156115755787860182525b60208701925050505b602084106115bc57805182526020826115979190611de1565b91506020816115a69190611de1565b90506020846115b59190612096565b935061157e565b60006001856020036101000a03905080198251168184511681811785525050508692505050949350505050565b6115f16117d6565b611601838460000151518461166b565b905092915050565b6116116117d6565b6116228485600001515185856116c2565b90509392505050565b60008183111561163d57829050611641565b8190505b92915050565b60008260000151905061165a8383611204565b50611665838261126e565b50505050565b6116736117d6565b836020015183106116995761169884600286602001516116939190611fa8565b611647565b5b83518051602085830101848153818614156116b5576001820183525b5050508390509392505050565b6116ca6117d6565b846020015184836116db9190611de1565b11156117035761170285600286856116f39190611de1565b6116fd9190611fa8565b611647565b5b60006001836101006117159190611e8a565b61171f9190612096565b905085518386820101858319825116178152815185880111156117425784870182525b505085915050949350505050565b82805461175c906120ed565b90600052602060002090601f01602090048101928261177e57600085556117c5565b82601f1061179757805160ff19168380011785556117c5565b828001600101855582156117c5579182015b828111156117c45782518255916020019190600101906117a9565b5b5090506117d291906117f0565b5090565b604051806040016040528060608152602001600081525090565b5b808211156118095760008160009055506001016117f1565b5090565b600061182061181b84611d2d565b611d08565b90508083825260208201905082856020860282011115611843576118426122ba565b5b60005b8581101561189157813567ffffffffffffffff811115611869576118686122b5565b5b8086016118768982611990565b85526020850194506020840193505050600181019050611846565b5050509392505050565b60006118ae6118a984611d59565b611d08565b9050828152602081018484840111156118ca576118c96122bf565b5b6118d58482856120de565b509392505050565b60006118f06118eb84611d8a565b611d08565b90508281526020810184848401111561190c5761190b6122bf565b5b6119178482856120de565b509392505050565b600082601f830112611934576119336122b5565b5b813561194484826020860161180d565b91505092915050565b600082601f830112611962576119616122b5565b5b813561197284826020860161189b565b91505092915050565b60008135905061198a816122ec565b92915050565b600082601f8301126119a5576119a46122b5565b5b81356119b58482602086016118dd565b91505092915050565b6000813590506119cd81612303565b92915050565b6000602082840312156119e9576119e86122c9565b5b600082013567ffffffffffffffff811115611a0757611a066122c4565b5b611a138482850161194d565b91505092915050565b60008060408385031215611a3357611a326122c9565b5b600083013567ffffffffffffffff811115611a5157611a506122c4565b5b611a5d85828601611990565b925050602083013567ffffffffffffffff811115611a7e57611a7d6122c4565b5b611a8a8582860161191f565b9150509250929050565b60008060408385031215611aab57611aaa6122c9565b5b600083013567ffffffffffffffff811115611ac957611ac86122c4565b5b611ad585828601611990565b925050602083013567ffffffffffffffff811115611af657611af56122c4565b5b611b028582860161194d565b9150509250929050565b60008060408385031215611b2357611b226122c9565b5b600083013567ffffffffffffffff811115611b4157611b406122c4565b5b611b4d85828601611990565b9250506020611b5e8582860161197b565b9150509250929050565b60008060408385031215611b7f57611b7e6122c9565b5b600083013567ffffffffffffffff811115611b9d57611b9c6122c4565b5b611ba985828601611990565b925050602083013567ffffffffffffffff811115611bca57611bc96122c4565b5b611bd685828601611990565b9150509250929050565b60008060408385031215611bf757611bf66122c9565b5b600083013567ffffffffffffffff811115611c1557611c146122c4565b5b611c2185828601611990565b9250506020611c32858286016119be565b9150509250929050565b60008154611c49816120ed565b611c538186611dd0565b94506001821660008114611c6e5760018114611c8057611cb3565b60ff1983168652602086019350611cb3565b611c8985611dbb565b60005b83811015611cab57815481890152600182019150602081019050611c8c565b808801955050505b50505092915050565b611cc5816120d4565b82525050565b60006020820190508181036000830152611ce58184611c3c565b905092915050565b6000602082019050611d026000830184611cbc565b92915050565b6000611d12611d23565b9050611d1e828261211f565b919050565b6000604051905090565b600067ffffffffffffffff821115611d4857611d47612286565b5b602082029050602081019050919050565b600067ffffffffffffffff821115611d7457611d73612286565b5b611d7d826122ce565b9050602081019050919050565b600067ffffffffffffffff821115611da557611da4612286565b5b611dae826122ce565b9050602081019050919050565b60008190508160005260206000209050919050565b600082825260208201905092915050565b6000611dec826120d4565b9150611df7836120d4565b9250827fffffffffffffffffffffffffffffffffffffffffffffffffffffffffffffffff03821115611e2c57611e2b6121ca565b5b828201905092915050565b6000808291508390505b6001851115611e8157808604811115611e5d57611e5c6121ca565b5b6001851615611e6c5780820291505b8081029050611e7a856122df565b9450611e41565b94509492505050565b6000611e95826120d4565b9150611ea0836120d4565b9250611ecd7fffffffffffffffffffffffffffffffffffffffffffffffffffffffffffffffff8484611ed5565b905092915050565b600082611ee55760019050611fa1565b81611ef35760009050611fa1565b8160018114611f095760028114611f1357611f42565b6001915050611fa1565b60ff841115611f2557611f246121ca565b5b8360020a915084821115611f3c57611f3b6121ca565b5b50611fa1565b5060208310610133831016604e8410600b8410161715611f775782820a905083811115611f7257611f716121ca565b5b611fa1565b611f848484846001611e37565b92509050818404811115611f9b57611f9a6121ca565b5b81810290505b9392505050565b6000611fb3826120d4565b9150611fbe836120d4565b9250817fffffffffffffffffffffffffffffffffffffffffffffffffffffffffffffffff0483118215151615611ff757611ff66121ca565b5b828202905092915050565b600061200d826120ca565b9150612018836120ca565b9250827f800000000000000000000000000000000000000000000000000000000000000001821260008412151615612053576120526121ca565b5b827f7fffffffffffffffffffffffffffffffffffffffffffffffffffffffffffffff01821360008412161561208b5761208a6121ca565b5b828203905092915050565b60006120a1826120d4565b91506120ac836120d4565b9250828210156120bf576120be6121ca565b5b828203905092915050565b6000819050919050565b6000819050919050565b82818337600083830152505050565b6000600282049050600182168061210557607f821691505b6020821081141561211957612118612228565b5b50919050565b612128826122ce565b810181811067ffffffffffffffff8211171561214757612146612286565b5b80604052505050565b600061215b826120d4565b91507fffffffffffffffffffffffffffffffffffffffffffffffffffffffffffffffff82141561218e5761218d6121ca565b5b600182019050919050565b60006121a4826120d4565b91506121af836120d4565b9250826121bf576121be6121f9565b5b828206905092915050565b7f4e487b7100000000000000000000000000000000000000000000000000000000600052601160045260246000fd5b7f4e487b7100000000000000000000000000000000000000000000000000000000600052601260045260246000fd5b7f4e487b7100000000000000000000000000000000000000000000000000000000600052602260045260246000fd5b7f4e487b7100000000000000000000000000000000000000000000000000000000600052603260045260246000fd5b7f4e487b7100000000000000000000000000000000000000000000000000000000600052604160045260246000fd5b600080fd5b600080fd5b600080fd5b600080fd5b600080fd5b6000601f19601f8301169050919050565b60008160011c9050919050565b6122f5816120ca565b811461230057600080fd5b50565b61230c816120d4565b811461231757600080fd5b5056fea264697066735822122010ff9c905e0eb0847f8276c212b3c01504062693275b14fc656d22ce3fdfcd2764736f6c63430008060033",
  "linkReferences": {},
  "deployedLinkReferences": {}
}