{
  "_format": "hh-sol-artifact-1",
  "contractName": "MockOVMCrossDomainMessenger",
  "sourceName": "contracts/chainlink/v0.8/tests/vendor/MockOVMCrossDomainMessenger.sol",
  "abi": [
    {
      "inputs": [
        {
          "internalType": "address",
          "name": "sender",
          "type": "address"
        }
      ],
      "stateMutability": "nonpayable",
      "type": "constructor"
    },
    {
      "anonymous": false,
      "inputs": [
        {
          "indexed": false,
          "internalType": "bytes32",
          "name": "msgHash",
          "type": "bytes32"
        }
      ],
      "name": "FailedRelayedMessage",
      "type": "event"
    },
    {
      "anonymous": false,
      "inputs": [
        {
          "indexed": false,
          "internalType": "bytes32",
          "name": "msgHash",
          "type": "bytes32"
        }
      ],
      "name": "RelayedMessage",
      "type": "event"
    },
    {
      "anonymous": false,
      "inputs": [
        {
          "indexed": false,
          "internalType": "bytes",
          "name": "message",
          "type": "bytes"
        }
      ],
      "name": "SentMessage",
      "type": "event"
    },
    {
      "inputs": [
        {
          "internalType": "address",
          "name": "sender",
          "type": "address"
        }
      ],
      "name": "_setMockMessageSender",
      "outputs": [],
      "stateMutability": "nonpayable",
      "type": "function"
    },
    {
      "inputs": [
        {
          "internalType": "address",
          "name": "_target",
          "type": "address"
        },
        {
          "internalType": "bytes",
          "name": "_message",
          "type": "bytes"
        },
        {
          "internalType": "uint32",
          "name": "_gasLimit",
          "type": "uint32"
        }
      ],
      "name": "sendMessage",
      "outputs": [],
      "stateMutability": "nonpayable",
      "type": "function"
    },
    {
      "inputs": [],
      "name": "xDomainMessageSender",
      "outputs": [
        {
          "internalType": "address",
          "name": "",
          "type": "address"
        }
      ],
      "stateMutability": "view",
      "type": "function"
    }
  ],
  "bytecode": "0x608060405234801561001057600080fd5b506040516108713803806108718339818101604052810190610032919061008d565b806000806101000a81548173ffffffffffffffffffffffffffffffffffffffff021916908373ffffffffffffffffffffffffffffffffffffffff16021790555050610108565b600081519050610087816100f1565b92915050565b6000602082840312156100a3576100a26100ec565b5b60006100b184828501610078565b91505092915050565b60006100c5826100cc565b9050919050565b600073ffffffffffffffffffffffffffffffffffffffff82169050919050565b600080fd5b6100fa816100ba565b811461010557600080fd5b50565b61075a806101176000396000f3fe608060405234801561001057600080fd5b50600436106100415760003560e01c80633b61c142146100465780633dbb202b146100625780636e296e451461007e575b600080fd5b610060600480360381019061005b91906103b9565b61009c565b005b61007c600480360381019061007791906103e6565b6100df565b005b61008661016a565b6040516100939190610530565b60405180910390f35b806000806101000a81548173ffffffffffffffffffffffffffffffffffffffff021916908373ffffffffffffffffffffffffffffffffffffffff16021790555050565b6101638484848080601f016020809104026020016040519081016040528093929190818152602001838380828437600081840152601f19601f820116905080830192505050505050506040518060400160405280601481526020017f73656e644d657373616765207265766572746564000000000000000000000000815250610193565b5050505050565b60008060009054906101000a900473ffffffffffffffffffffffffffffffffffffffff16905090565b60606101a284846000856101ab565b90509392505050565b6060824710156101f0576040517f08c379a00000000000000000000000000000000000000000000000000000000081526004016101e79061056d565b60405180910390fd5b6101f9856102bf565b610238576040517f08c379a000000000000000000000000000000000000000000000000000000000815260040161022f9061058d565b60405180910390fd5b6000808673ffffffffffffffffffffffffffffffffffffffff1685876040516102619190610519565b60006040518083038185875af1925050503d806000811461029e576040519150601f19603f3d011682016040523d82523d6000602084013e6102a3565b606091505b50915091506102b38282866102d2565b92505050949350505050565b600080823b905060008111915050919050565b606083156102e257829050610332565b6000835111156102f55782518084602001fd5b816040517f08c379a0000000000000000000000000000000000000000000000000000000008152600401610329919061054b565b60405180910390fd5b9392505050565b600081359050610348816106f6565b92915050565b60008083601f84011261036457610363610659565b5b8235905067ffffffffffffffff81111561038157610380610654565b5b60208301915083600182028301111561039d5761039c61065e565b5b9250929050565b6000813590506103b38161070d565b92915050565b6000602082840312156103cf576103ce610668565b5b60006103dd84828501610339565b91505092915050565b60008060008060608587031215610400576103ff610668565b5b600061040e87828801610339565b945050602085013567ffffffffffffffff81111561042f5761042e610663565b5b61043b8782880161034e565b9350935050604061044e878288016103a4565b91505092959194509250565b610463816105df565b82525050565b6000610474826105ad565b61047e81856105c3565b935061048e818560208601610621565b80840191505092915050565b60006104a5826105b8565b6104af81856105ce565b93506104bf818560208601610621565b6104c88161066d565b840191505092915050565b60006104e06026836105ce565b91506104eb8261067e565b604082019050919050565b6000610503601d836105ce565b915061050e826106cd565b602082019050919050565b60006105258284610469565b915081905092915050565b6000602082019050610545600083018461045a565b92915050565b60006020820190508181036000830152610565818461049a565b905092915050565b60006020820190508181036000830152610586816104d3565b9050919050565b600060208201905081810360008301526105a6816104f6565b9050919050565b600081519050919050565b600081519050919050565b600081905092915050565b600082825260208201905092915050565b60006105ea826105f1565b9050919050565b600073ffffffffffffffffffffffffffffffffffffffff82169050919050565b600063ffffffff82169050919050565b60005b8381101561063f578082015181840152602081019050610624565b8381111561064e576000848401525b50505050565b600080fd5b600080fd5b600080fd5b600080fd5b600080fd5b6000601f19601f8301169050919050565b7f416464726573733a20696e73756666696369656e742062616c616e636520666f60008201527f722063616c6c0000000000000000000000000000000000000000000000000000602082015250565b7f416464726573733a2063616c6c20746f206e6f6e2d636f6e7472616374000000600082015250565b6106ff816105df565b811461070a57600080fd5b50565b61071681610611565b811461072157600080fd5b5056fea2646970667358221220ef475cdf6b38fbab72ee6c0b5a462216b859374a96a14b37675231347225dcca64736f6c63430008060033",
  "linkReferences": {},
  "deployedLinkReferences": {}
}