{
  "_format": "hh-sol-artifact-1",
  "contractName": "OptimismCrossDomainGovernor",
  "sourceName": "contracts/chainlink/v0.8/dev/OptimismCrossDomainGovernor.sol",
  "abi": [
    {
      "inputs": [
        {
          "internalType": "contract iOVM_CrossDomainMessenger",
          "name": "crossDomainMessengerAddr",
          "type": "address"
        },
        {
          "internalType": "address",
          "name": "l1OwnerAddr",
          "type": "address"
        }
      ],
      "stateMutability": "nonpayable",
      "type": "constructor"
    },
    {
      "anonymous": false,
      "inputs": [
        {
          "indexed": true,
          "internalType": "address",
          "name": "from",
          "type": "address"
        },
        {
          "indexed": true,
          "internalType": "address",
          "name": "to",
          "type": "address"
        }
      ],
      "name": "L1OwnershipTransferRequested",
      "type": "event"
    },
    {
      "anonymous": false,
      "inputs": [
        {
          "indexed": true,
          "internalType": "address",
          "name": "from",
          "type": "address"
        },
        {
          "indexed": true,
          "internalType": "address",
          "name": "to",
          "type": "address"
        }
      ],
      "name": "L1OwnershipTransferred",
      "type": "event"
    },
    {
      "anonymous": false,
      "inputs": [
        {
          "indexed": true,
          "internalType": "address",
          "name": "from",
          "type": "address"
        },
        {
          "indexed": true,
          "internalType": "address",
          "name": "to",
          "type": "address"
        }
      ],
      "name": "OwnershipTransferRequested",
      "type": "event"
    },
    {
      "anonymous": false,
      "inputs": [
        {
          "indexed": true,
          "internalType": "address",
          "name": "from",
          "type": "address"
        },
        {
          "indexed": true,
          "internalType": "address",
          "name": "to",
          "type": "address"
        }
      ],
      "name": "OwnershipTransferred",
      "type": "event"
    },
    {
      "inputs": [],
      "name": "acceptL1Ownership",
      "outputs": [],
      "stateMutability": "nonpayable",
      "type": "function"
    },
    {
      "inputs": [],
      "name": "acceptOwnership",
      "outputs": [],
      "stateMutability": "nonpayable",
      "type": "function"
    },
    {
      "inputs": [],
      "name": "crossDomainMessenger",
      "outputs": [
        {
          "internalType": "address",
          "name": "",
          "type": "address"
        }
      ],
      "stateMutability": "view",
      "type": "function"
    },
    {
      "inputs": [
        {
          "internalType": "address",
          "name": "target",
          "type": "address"
        },
        {
          "internalType": "bytes",
          "name": "data",
          "type": "bytes"
        }
      ],
      "name": "forward",
      "outputs": [],
      "stateMutability": "nonpayable",
      "type": "function"
    },
    {
      "inputs": [
        {
          "internalType": "address",
          "name": "target",
          "type": "address"
        },
        {
          "internalType": "bytes",
          "name": "data",
          "type": "bytes"
        }
      ],
      "name": "forwardDelegate",
      "outputs": [],
      "stateMutability": "nonpayable",
      "type": "function"
    },
    {
      "inputs": [],
      "name": "l1Owner",
      "outputs": [
        {
          "internalType": "address",
          "name": "",
          "type": "address"
        }
      ],
      "stateMutability": "view",
      "type": "function"
    },
    {
      "inputs": [],
      "name": "owner",
      "outputs": [
        {
          "internalType": "address",
          "name": "",
          "type": "address"
        }
      ],
      "stateMutability": "view",
      "type": "function"
    },
    {
      "inputs": [
        {
          "internalType": "address",
          "name": "to",
          "type": "address"
        }
      ],
      "name": "transferL1Ownership",
      "outputs": [],
      "stateMutability": "nonpayable",
      "type": "function"
    },
    {
      "inputs": [
        {
          "internalType": "address",
          "name": "to",
          "type": "address"
        }
      ],
      "name": "transferOwnership",
      "outputs": [],
      "stateMutability": "nonpayable",
      "type": "function"
    },
    {
      "inputs": [],
      "name": "typeAndVersion",
      "outputs": [
        {
          "internalType": "string",
          "name": "",
          "type": "string"
        }
      ],
      "stateMutability": "pure",
      "type": "function"
    }
  ],
  "bytecode": "0x60a06040523480156200001157600080fd5b506040516200217738038062002177833981810160405281019062000037919062000466565b818180338060008073ffffffffffffffffffffffffffffffffffffffff168273ffffffffffffffffffffffffffffffffffffffff161415620000b0576040517f08c379a0000000000000000000000000000000000000000000000000000000008152600401620000a79062000544565b60405180910390fd5b816000806101000a81548173ffffffffffffffffffffffffffffffffffffffff021916908373ffffffffffffffffffffffffffffffffffffffff160217905550600073ffffffffffffffffffffffffffffffffffffffff168173ffffffffffffffffffffffffffffffffffffffff1614620001375762000136816200020060201b60201c565b5b5050506200014b816200033060201b60201c565b50600073ffffffffffffffffffffffffffffffffffffffff168273ffffffffffffffffffffffffffffffffffffffff161415620001bf576040517f08c379a0000000000000000000000000000000000000000000000000000000008152600401620001b69062000522565b60405180910390fd5b8173ffffffffffffffffffffffffffffffffffffffff1660808173ffffffffffffffffffffffffffffffffffffffff1660601b8152505050505050620006bb565b3373ffffffffffffffffffffffffffffffffffffffff168173ffffffffffffffffffffffffffffffffffffffff16141562000272576040517f08c379a0000000000000000000000000000000000000000000000000000000008152600401620002699062000566565b60405180910390fd5b80600160006101000a81548173ffffffffffffffffffffffffffffffffffffffff021916908373ffffffffffffffffffffffffffffffffffffffff1602179055508073ffffffffffffffffffffffffffffffffffffffff1660008054906101000a900473ffffffffffffffffffffffffffffffffffffffff1673ffffffffffffffffffffffffffffffffffffffff167fed8889f560326eb138920d842192f0eb3dd22b4f139c87a2c57538e05bae127860405160405180910390a350565b6000600260009054906101000a900473ffffffffffffffffffffffffffffffffffffffff16905081600260006101000a81548173ffffffffffffffffffffffffffffffffffffffff021916908373ffffffffffffffffffffffffffffffffffffffff1602179055506000600360006101000a81548173ffffffffffffffffffffffffffffffffffffffff021916908373ffffffffffffffffffffffffffffffffffffffff1602179055508173ffffffffffffffffffffffffffffffffffffffff168173ffffffffffffffffffffffffffffffffffffffff167fb0121dbcab67289d5cb13a1f35ca086715f35ef418e0eda134c4145a086b627260405160405180910390a35050565b600081519050620004498162000687565b92915050565b6000815190506200046081620006a1565b92915050565b6000806040838503121562000480576200047f620005e1565b5b600062000490858286016200044f565b9250506020620004a38582860162000438565b9150509250929050565b6000620004bc60218362000588565b9150620004c982620005e6565b604082019050919050565b6000620004e360188362000588565b9150620004f08262000635565b602082019050919050565b60006200050a60178362000588565b915062000517826200065e565b602082019050919050565b600060208201905081810360008301526200053d81620004ad565b9050919050565b600060208201905081810360008301526200055f81620004d4565b9050919050565b600060208201905081810360008301526200058181620004fb565b9050919050565b600082825260208201905092915050565b6000620005a682620005c1565b9050919050565b6000620005ba8262000599565b9050919050565b600073ffffffffffffffffffffffffffffffffffffffff82169050919050565b600080fd5b7f496e76616c69642078446f6d61696e204d657373656e6765722061646472657360008201527f7300000000000000000000000000000000000000000000000000000000000000602082015250565b7f43616e6e6f7420736574206f776e657220746f207a65726f0000000000000000600082015250565b7f43616e6e6f74207472616e7366657220746f2073656c66000000000000000000600082015250565b620006928162000599565b81146200069e57600080fd5b50565b620006ac81620005ad565b8114620006b857600080fd5b50565b60805160601c611a9d620006da6000396000610b360152611a9d6000f3fe608060405234801561001057600080fd5b506004361061009e5760003560e01c806396b8d7c01161006657806396b8d7c014610121578063b2ec07871461013d578063d2db637214610147578063f2fde38b14610165578063f43b3613146101815761009e565b8063181f5a77146100a357806326929eb6146100c15780636fadcf72146100dd57806379ba5097146100f95780638da5cb5b14610103575b600080fd5b6100ab61019f565b6040516100b8919061151a565b60405180910390f35b6100db60048036038101906100d691906112b5565b6101bf565b005b6100f760048036038101906100f291906112b5565b6103e3565b005b610101610607565b005b61010b61079c565b60405161011891906114ff565b60405180910390f35b61013b6004803603810190610136919061125b565b6107c5565b005b61014561093f565b005b61014f610af4565b60405161015c91906114ff565b60405180910390f35b61017f600480360381019061017a919061125b565b610b1e565b005b610189610b32565b60405161019691906114ff565b60405180910390f35b6060604051806060016040528060218152602001611a4760219139905090565b60006101c9610b32565b90508073ffffffffffffffffffffffffffffffffffffffff163373ffffffffffffffffffffffffffffffffffffffff161480610237575061020861079c565b73ffffffffffffffffffffffffffffffffffffffff163373ffffffffffffffffffffffffffffffffffffffff16145b610276576040517f08c379a000000000000000000000000000000000000000000000000000000000815260040161026d9061155c565b60405180910390fd5b8073ffffffffffffffffffffffffffffffffffffffff163373ffffffffffffffffffffffffffffffffffffffff16141561039d576102b2610af4565b73ffffffffffffffffffffffffffffffffffffffff168173ffffffffffffffffffffffffffffffffffffffff16636e296e456040518163ffffffff1660e01b815260040160206040518083038186803b15801561030e57600080fd5b505afa158015610322573d6000803e3d6000fd5b505050506040513d601f19601f820116820180604052508101906103469190611288565b73ffffffffffffffffffffffffffffffffffffffff161461039c576040517f08c379a00000000000000000000000000000000000000000000000000000000081526004016103939061157c565b60405180910390fd5b5b6103dd83836040518060400160405280601e81526020017f476f7665726e6f722064656c656761746563616c6c2072657665727465640000815250610b5a565b50505050565b60006103ed610b32565b90508073ffffffffffffffffffffffffffffffffffffffff163373ffffffffffffffffffffffffffffffffffffffff16148061045b575061042c61079c565b73ffffffffffffffffffffffffffffffffffffffff163373ffffffffffffffffffffffffffffffffffffffff16145b61049a576040517f08c379a00000000000000000000000000000000000000000000000000000000081526004016104919061155c565b60405180910390fd5b8073ffffffffffffffffffffffffffffffffffffffff163373ffffffffffffffffffffffffffffffffffffffff1614156105c1576104d6610af4565b73ffffffffffffffffffffffffffffffffffffffff168173ffffffffffffffffffffffffffffffffffffffff16636e296e456040518163ffffffff1660e01b815260040160206040518083038186803b15801561053257600080fd5b505afa158015610546573d6000803e3d6000fd5b505050506040513d601f19601f8201168201806040525081019061056a9190611288565b73ffffffffffffffffffffffffffffffffffffffff16146105c0576040517f08c379a00000000000000000000000000000000000000000000000000000000081526004016105b79061157c565b60405180910390fd5b5b61060183836040518060400160405280601681526020017f476f7665726e6f722063616c6c20726576657274656400000000000000000000815250610c27565b50505050565b600160009054906101000a900473ffffffffffffffffffffffffffffffffffffffff1673ffffffffffffffffffffffffffffffffffffffff163373ffffffffffffffffffffffffffffffffffffffff1614610697576040517f08c379a000000000000000000000000000000000000000000000000000000000815260040161068e9061153c565b60405180910390fd5b60008060009054906101000a900473ffffffffffffffffffffffffffffffffffffffff169050336000806101000a81548173ffffffffffffffffffffffffffffffffffffffff021916908373ffffffffffffffffffffffffffffffffffffffff1602179055506000600160006101000a81548173ffffffffffffffffffffffffffffffffffffffff021916908373ffffffffffffffffffffffffffffffffffffffff1602179055503373ffffffffffffffffffffffffffffffffffffffff168173ffffffffffffffffffffffffffffffffffffffff167f8be0079c531659141344cd1fd0a4f28419497f9722a3daafe3b4186f6b6457e060405160405180910390a350565b60008060009054906101000a900473ffffffffffffffffffffffffffffffffffffffff16905090565b6107cd610b32565b73ffffffffffffffffffffffffffffffffffffffff163373ffffffffffffffffffffffffffffffffffffffff161461083a576040517f08c379a00000000000000000000000000000000000000000000000000000000081526004016108319061159c565b60405180910390fd5b610842610af4565b73ffffffffffffffffffffffffffffffffffffffff16610860610b32565b73ffffffffffffffffffffffffffffffffffffffff16636e296e456040518163ffffffff1660e01b815260040160206040518083038186803b1580156108a557600080fd5b505afa1580156108b9573d6000803e3d6000fd5b505050506040513d601f19601f820116820180604052508101906108dd9190611288565b73ffffffffffffffffffffffffffffffffffffffff1614610933576040517f08c379a000000000000000000000000000000000000000000000000000000000815260040161092a9061157c565b60405180910390fd5b61093c81610c3f565b50565b6000610949610b32565b90508073ffffffffffffffffffffffffffffffffffffffff163373ffffffffffffffffffffffffffffffffffffffff16146109b9576040517f08c379a00000000000000000000000000000000000000000000000000000000081526004016109b09061159c565b60405180910390fd5b600360009054906101000a900473ffffffffffffffffffffffffffffffffffffffff1673ffffffffffffffffffffffffffffffffffffffff168173ffffffffffffffffffffffffffffffffffffffff16636e296e456040518163ffffffff1660e01b815260040160206040518083038186803b158015610a3857600080fd5b505afa158015610a4c573d6000803e3d6000fd5b505050506040513d601f19601f82011682018060405250810190610a709190611288565b73ffffffffffffffffffffffffffffffffffffffff1614610ac6576040517f08c379a0000000000000000000000000000000000000000000000000000000008152600401610abd906115fc565b60405180910390fd5b610af1600360009054906101000a900473ffffffffffffffffffffffffffffffffffffffff16610d6e565b50565b6000600260009054906101000a900473ffffffffffffffffffffffffffffffffffffffff16905090565b610b26610e76565b610b2f81610f06565b50565b60007f0000000000000000000000000000000000000000000000000000000000000000905090565b6060610b6584611033565b610ba4576040517f08c379a0000000000000000000000000000000000000000000000000000000008152600401610b9b9061161c565b60405180910390fd5b6000808573ffffffffffffffffffffffffffffffffffffffff1685604051610bcc91906114e8565b600060405180830381855af49150503d8060008114610c07576040519150601f19603f3d011682016040523d82523d6000602084013e610c0c565b606091505b5091509150610c1c828286611046565b925050509392505050565b6060610c3684846000856110ad565b90509392505050565b3373ffffffffffffffffffffffffffffffffffffffff168173ffffffffffffffffffffffffffffffffffffffff161415610cae576040517f08c379a0000000000000000000000000000000000000000000000000000000008152600401610ca59061165c565b60405180910390fd5b80600360006101000a81548173ffffffffffffffffffffffffffffffffffffffff021916908373ffffffffffffffffffffffffffffffffffffffff1602179055508073ffffffffffffffffffffffffffffffffffffffff16600260009054906101000a900473ffffffffffffffffffffffffffffffffffffffff1673ffffffffffffffffffffffffffffffffffffffff167f55eb94b097b1cd6441a2403b6e04742bd36cfd6e6905ea13cbc5879d26e5b20f60405160405180910390a350565b6000600260009054906101000a900473ffffffffffffffffffffffffffffffffffffffff16905081600260006101000a81548173ffffffffffffffffffffffffffffffffffffffff021916908373ffffffffffffffffffffffffffffffffffffffff1602179055506000600360006101000a81548173ffffffffffffffffffffffffffffffffffffffff021916908373ffffffffffffffffffffffffffffffffffffffff1602179055508173ffffffffffffffffffffffffffffffffffffffff168173ffffffffffffffffffffffffffffffffffffffff167fb0121dbcab67289d5cb13a1f35ca086715f35ef418e0eda134c4145a086b627260405160405180910390a35050565b60008054906101000a900473ffffffffffffffffffffffffffffffffffffffff1673ffffffffffffffffffffffffffffffffffffffff163373ffffffffffffffffffffffffffffffffffffffff1614610f04576040517f08c379a0000000000000000000000000000000000000000000000000000000008152600401610efb906115bc565b60405180910390fd5b565b3373ffffffffffffffffffffffffffffffffffffffff168173ffffffffffffffffffffffffffffffffffffffff161415610f75576040517f08c379a0000000000000000000000000000000000000000000000000000000008152600401610f6c9061165c565b60405180910390fd5b80600160006101000a81548173ffffffffffffffffffffffffffffffffffffffff021916908373ffffffffffffffffffffffffffffffffffffffff1602179055508073ffffffffffffffffffffffffffffffffffffffff1660008054906101000a900473ffffffffffffffffffffffffffffffffffffffff1673ffffffffffffffffffffffffffffffffffffffff167fed8889f560326eb138920d842192f0eb3dd22b4f139c87a2c57538e05bae127860405160405180910390a350565b600080823b905060008111915050919050565b60608315611056578290506110a6565b6000835111156110695782518084602001fd5b816040517f08c379a000000000000000000000000000000000000000000000000000000000815260040161109d919061151a565b60405180910390fd5b9392505050565b6060824710156110f2576040517f08c379a00000000000000000000000000000000000000000000000000000000081526004016110e9906115dc565b60405180910390fd5b6110fb85611033565b61113a576040517f08c379a00000000000000000000000000000000000000000000000000000000081526004016111319061163c565b60405180910390fd5b6000808673ffffffffffffffffffffffffffffffffffffffff16858760405161116391906114e8565b60006040518083038185875af1925050503d80600081146111a0576040519150601f19603f3d011682016040523d82523d6000602084013e6111a5565b606091505b50915091506111b5828286611046565b92505050949350505050565b60006111d46111cf846116a1565b61167c565b9050828152602081018484840111156111f0576111ef6117dd565b5b6111fb848285611736565b509392505050565b60008135905061121281611a2f565b92915050565b60008151905061122781611a2f565b92915050565b600082601f830112611242576112416117d8565b5b81356112528482602086016111c1565b91505092915050565b600060208284031215611271576112706117e7565b5b600061127f84828501611203565b91505092915050565b60006020828403121561129e5761129d6117e7565b5b60006112ac84828501611218565b91505092915050565b600080604083850312156112cc576112cb6117e7565b5b60006112da85828601611203565b925050602083013567ffffffffffffffff8111156112fb576112fa6117e2565b5b6113078582860161122d565b9150509250929050565b61131a81611704565b82525050565b600061132b826116d2565b61133581856116e8565b9350611345818560208601611745565b80840191505092915050565b600061135c826116dd565b61136681856116f3565b9350611376818560208601611745565b61137f816117ec565b840191505092915050565b60006113976016836116f3565b91506113a2826117fd565b602082019050919050565b60006113ba6027836116f3565b91506113c582611826565b604082019050919050565b60006113dd6022836116f3565b91506113e882611875565b604082019050919050565b6000611400601e836116f3565b915061140b826118c4565b602082019050919050565b60006114236016836116f3565b915061142e826118ed565b602082019050919050565b60006114466026836116f3565b915061145182611916565b604082019050919050565b60006114696019836116f3565b915061147482611965565b602082019050919050565b600061148c6026836116f3565b91506114978261198e565b604082019050919050565b60006114af601d836116f3565b91506114ba826119dd565b602082019050919050565b60006114d26017836116f3565b91506114dd82611a06565b602082019050919050565b60006114f48284611320565b915081905092915050565b60006020820190506115146000830184611311565b92915050565b600060208201905081810360008301526115348184611351565b905092915050565b600060208201905081810360008301526115558161138a565b9050919050565b60006020820190508181036000830152611575816113ad565b9050919050565b60006020820190508181036000830152611595816113d0565b9050919050565b600060208201905081810360008301526115b5816113f3565b9050919050565b600060208201905081810360008301526115d581611416565b9050919050565b600060208201905081810360008301526115f581611439565b9050919050565b600060208201905081810360008301526116158161145c565b9050919050565b600060208201905081810360008301526116358161147f565b9050919050565b60006020820190508181036000830152611655816114a2565b9050919050565b60006020820190508181036000830152611675816114c5565b9050919050565b6000611686611697565b90506116928282611778565b919050565b6000604051905090565b600067ffffffffffffffff8211156116bc576116bb6117a9565b5b6116c5826117ec565b9050602081019050919050565b600081519050919050565b600081519050919050565b600081905092915050565b600082825260208201905092915050565b600061170f82611716565b9050919050565b600073ffffffffffffffffffffffffffffffffffffffff82169050919050565b82818337600083830152505050565b60005b83811015611763578082015181840152602081019050611748565b83811115611772576000848401525b50505050565b611781826117ec565b810181811067ffffffffffffffff821117156117a05761179f6117a9565b5b80604052505050565b7f4e487b7100000000000000000000000000000000000000000000000000000000600052604160045260246000fd5b600080fd5b600080fd5b600080fd5b600080fd5b6000601f19601f8301169050919050565b7f4d7573742062652070726f706f736564206f776e657200000000000000000000600082015250565b7f53656e646572206973206e6f7420746865204c32206d657373656e676572206f60008201527f72206f776e657200000000000000000000000000000000000000000000000000602082015250565b7f78446f6d61696e2073656e646572206973206e6f7420746865204c31206f776e60008201527f6572000000000000000000000000000000000000000000000000000000000000602082015250565b7f53656e646572206973206e6f7420746865204c32206d657373656e6765720000600082015250565b7f4f6e6c792063616c6c61626c65206279206f776e657200000000000000000000600082015250565b7f416464726573733a20696e73756666696369656e742062616c616e636520666f60008201527f722063616c6c0000000000000000000000000000000000000000000000000000602082015250565b7f4d7573742062652070726f706f736564204c31206f776e657200000000000000600082015250565b7f416464726573733a2064656c65676174652063616c6c20746f206e6f6e2d636f60008201527f6e74726163740000000000000000000000000000000000000000000000000000602082015250565b7f416464726573733a2063616c6c20746f206e6f6e2d636f6e7472616374000000600082015250565b7f43616e6e6f74207472616e7366657220746f2073656c66000000000000000000600082015250565b611a3881611704565b8114611a4357600080fd5b5056fe4f7074696d69736d43726f7373446f6d61696e476f7665726e6f7220312e302e30a26469706673582212207f238b2300ef6e94c4f294d56a840093cdb694226d0b66e7eaa262c408abb75164736f6c63430008060033",
  "linkReferences": {},
  "deployedLinkReferences": {}
}