{
  "_format": "hh-sol-artifact-1",
  "contractName": "VRFSingleConsumerExample",
  "sourceName": "contracts/chainlink/v0.8/tests/VRFSingleConsumerExample.sol",
  "abi": [
    {
      "inputs": [
        {
          "internalType": "address",
          "name": "vrfCoordinator",
          "type": "address"
        },
        {
          "internalType": "address",
          "name": "link",
          "type": "address"
        },
        {
          "internalType": "uint32",
          "name": "callbackGasLimit",
          "type": "uint32"
        },
        {
          "internalType": "uint16",
          "name": "requestConfirmations",
          "type": "uint16"
        },
        {
          "internalType": "uint32",
          "name": "numWords",
          "type": "uint32"
        },
        {
          "internalType": "bytes32",
          "name": "keyHash",
          "type": "bytes32"
        }
      ],
      "stateMutability": "nonpayable",
      "type": "constructor"
    },
    {
      "inputs": [
        {
          "internalType": "address",
          "name": "have",
          "type": "address"
        },
        {
          "internalType": "address",
          "name": "want",
          "type": "address"
        }
      ],
      "name": "OnlyCoordinatorCanFulfill",
      "type": "error"
    },
    {
      "inputs": [
        {
          "internalType": "uint256",
          "name": "amount",
          "type": "uint256"
        }
      ],
      "name": "fundAndRequestRandomWords",
      "outputs": [],
      "stateMutability": "nonpayable",
      "type": "function"
    },
    {
      "inputs": [
        {
          "internalType": "uint256",
          "name": "requestId",
          "type": "uint256"
        },
        {
          "internalType": "uint256[]",
          "name": "randomWords",
          "type": "uint256[]"
        }
      ],
      "name": "rawFulfillRandomWords",
      "outputs": [],
      "stateMutability": "nonpayable",
      "type": "function"
    },
    {
      "inputs": [],
      "name": "requestRandomWords",
      "outputs": [],
      "stateMutability": "nonpayable",
      "type": "function"
    },
    {
      "inputs": [
        {
          "internalType": "uint256",
          "name": "",
          "type": "uint256"
        }
      ],
      "name": "s_randomWords",
      "outputs": [
        {
          "internalType": "uint256",
          "name": "",
          "type": "uint256"
        }
      ],
      "stateMutability": "view",
      "type": "function"
    },
    {
      "inputs": [],
      "name": "s_requestConfig",
      "outputs": [
        {
          "internalType": "uint64",
          "name": "subId",
          "type": "uint64"
        },
        {
          "internalType": "uint32",
          "name": "callbackGasLimit",
          "type": "uint32"
        },
        {
          "internalType": "uint16",
          "name": "requestConfirmations",
          "type": "uint16"
        },
        {
          "internalType": "uint32",
          "name": "numWords",
          "type": "uint32"
        },
        {
          "internalType": "bytes32",
          "name": "keyHash",
          "type": "bytes32"
        }
      ],
      "stateMutability": "view",
      "type": "function"
    },
    {
      "inputs": [],
      "name": "s_requestId",
      "outputs": [
        {
          "internalType": "uint256",
          "name": "",
          "type": "uint256"
        }
      ],
      "stateMutability": "view",
      "type": "function"
    },
    {
      "inputs": [],
      "name": "subscribe",
      "outputs": [],
      "stateMutability": "nonpayable",
      "type": "function"
    },
    {
      "inputs": [
        {
          "internalType": "uint256",
          "name": "amount",
          "type": "uint256"
        }
      ],
      "name": "topUpSubscription",
      "outputs": [],
      "stateMutability": "nonpayable",
      "type": "function"
    },
    {
      "inputs": [
        {
          "internalType": "address",
          "name": "to",
          "type": "address"
        }
      ],
      "name": "unsubscribe",
      "outputs": [],
      "stateMutability": "nonpayable",
      "type": "function"
    },
    {
      "inputs": [
        {
          "internalType": "uint256",
          "name": "amount",
          "type": "uint256"
        },
        {
          "internalType": "address",
          "name": "to",
          "type": "address"
        }
      ],
      "name": "withdraw",
      "outputs": [],
      "stateMutability": "nonpayable",
      "type": "function"
    }
  ],
  "bytecode": "0x60a06040523480156200001157600080fd5b5060405162001e3d38038062001e3d83398181016040528101906200003791906200054b565b858073ffffffffffffffffffffffffffffffffffffffff1660808173ffffffffffffffffffffffffffffffffffffffff1660601b8152505050856000806101000a81548173ffffffffffffffffffffffffffffffffffffffff021916908373ffffffffffffffffffffffffffffffffffffffff16021790555084600160006101000a81548173ffffffffffffffffffffffffffffffffffffffff021916908373ffffffffffffffffffffffffffffffffffffffff16021790555033600660006101000a81548173ffffffffffffffffffffffffffffffffffffffff021916908373ffffffffffffffffffffffffffffffffffffffff1602179055506040518060a00160405280600067ffffffffffffffff1681526020018563ffffffff1681526020018461ffff1681526020018363ffffffff16815260200182815250600260008201518160000160006101000a81548167ffffffffffffffff021916908367ffffffffffffffff16021790555060208201518160000160086101000a81548163ffffffff021916908363ffffffff160217905550604082015181600001600c6101000a81548161ffff021916908361ffff160217905550606082015181600001600e6101000a81548163ffffffff021916908363ffffffff16021790555060808201518160010155905050620002336200023f60201b60201c565b505050505050620007bd565b600660009054906101000a900473ffffffffffffffffffffffffffffffffffffffff1673ffffffffffffffffffffffffffffffffffffffff163373ffffffffffffffffffffffffffffffffffffffff16146200029a57600080fd5b6000600167ffffffffffffffff811115620002ba57620002b962000707565b5b604051908082528060200260200182016040528015620002e95781602001602082028036833780820191505090505b5090503081600081518110620003045762000303620006d8565b5b602002602001019073ffffffffffffffffffffffffffffffffffffffff16908173ffffffffffffffffffffffffffffffffffffffff168152505060008054906101000a900473ffffffffffffffffffffffffffffffffffffffff1673ffffffffffffffffffffffffffffffffffffffff1663a21a23e46040518163ffffffff1660e01b8152600401602060405180830381600087803b158015620003a757600080fd5b505af1158015620003bc573d6000803e3d6000fd5b505050506040513d601f19601f82011682018060405250810190620003e29190620005e7565b600260000160006101000a81548167ffffffffffffffff021916908367ffffffffffffffff16021790555060008054906101000a900473ffffffffffffffffffffffffffffffffffffffff1673ffffffffffffffffffffffffffffffffffffffff16637341c10c600260000160009054906101000a900467ffffffffffffffff16836000815181106200047a5762000479620006d8565b5b60200260200101516040518363ffffffff1660e01b8152600401620004a19291906200063b565b600060405180830381600087803b158015620004bc57600080fd5b505af1158015620004d1573d6000803e3d6000fd5b5050505050565b600081519050620004e9816200073b565b92915050565b600081519050620005008162000755565b92915050565b60008151905062000517816200076f565b92915050565b6000815190506200052e8162000789565b92915050565b6000815190506200054581620007a3565b92915050565b60008060008060008060c087890312156200056b576200056a62000736565b5b60006200057b89828a01620004d8565b96505060206200058e89828a01620004d8565b9550506040620005a189828a016200051d565b9450506060620005b489828a0162000506565b9350506080620005c789828a016200051d565b92505060a0620005da89828a01620004ef565b9150509295509295509295565b6000602082840312156200060057620005ff62000736565b5b6000620006108482850162000534565b91505092915050565b620006248162000668565b82525050565b6200063581620006c4565b82525050565b60006040820190506200065260008301856200062a565b62000661602083018462000619565b9392505050565b6000620006758262000694565b9050919050565b6000819050919050565b600061ffff82169050919050565b600073ffffffffffffffffffffffffffffffffffffffff82169050919050565b600063ffffffff82169050919050565b600067ffffffffffffffff82169050919050565b7f4e487b7100000000000000000000000000000000000000000000000000000000600052603260045260246000fd5b7f4e487b7100000000000000000000000000000000000000000000000000000000600052604160045260246000fd5b600080fd5b620007468162000668565b81146200075257600080fd5b50565b62000760816200067c565b81146200076c57600080fd5b50565b6200077a8162000686565b81146200078657600080fd5b50565b6200079481620006b4565b8114620007a057600080fd5b50565b620007ae81620006c4565b8114620007ba57600080fd5b50565b60805160601c61165a620007e3600039600081816102c20152610316015261165a6000f3fe608060405234801561001057600080fd5b506004361061009d5760003560e01c806386850e931161006657806386850e93146101345780638f449a0514610150578063e0c862891461015a578063e89e106a14610164578063f6eaffc8146101825761009d565b8062f714ce146100a25780631fe543e3146100be5780636fd700bb146100da5780637262561c146100f65780637db9263f14610112575b600080fd5b6100bc60048036038101906100b79190611082565b6101b2565b005b6100d860048036038101906100d391906110c2565b6102c0565b005b6100f460048036038101906100ef9190611028565b610380565b005b610110600480360381019061010b9190610fce565b61066e565b005b61011a61079e565b60405161012b959493929190611363565b60405180910390f35b61014e60048036038101906101499190611028565b610804565b005b61015861096b565b005b610162610bf1565b005b61016c610dd4565b6040516101799190611304565b60405180910390f35b61019c60048036038101906101979190611028565b610dda565b6040516101a99190611304565b60405180910390f35b600660009054906101000a900473ffffffffffffffffffffffffffffffffffffffff1673ffffffffffffffffffffffffffffffffffffffff163373ffffffffffffffffffffffffffffffffffffffff161461020c57600080fd5b600160009054906101000a900473ffffffffffffffffffffffffffffffffffffffff1673ffffffffffffffffffffffffffffffffffffffff1663a9059cbb82846040518363ffffffff1660e01b815260040161026992919061122a565b602060405180830381600087803b15801561028357600080fd5b505af1158015610297573d6000803e3d6000fd5b505050506040513d601f19601f820116820180604052508101906102bb9190610ffb565b505050565b7f000000000000000000000000000000000000000000000000000000000000000073ffffffffffffffffffffffffffffffffffffffff163373ffffffffffffffffffffffffffffffffffffffff161461037257337f00000000000000000000000000000000000000000000000000000000000000006040517f1cf993f4000000000000000000000000000000000000000000000000000000008152600401610369929190611201565b60405180910390fd5b61037c8282610dfe565b5050565b600660009054906101000a900473ffffffffffffffffffffffffffffffffffffffff1673ffffffffffffffffffffffffffffffffffffffff163373ffffffffffffffffffffffffffffffffffffffff16146103da57600080fd5b600060026040518060a00160405290816000820160009054906101000a900467ffffffffffffffff1667ffffffffffffffff1667ffffffffffffffff1681526020016000820160089054906101000a900463ffffffff1663ffffffff1663ffffffff16815260200160008201600c9054906101000a900461ffff1661ffff1661ffff16815260200160008201600e9054906101000a900463ffffffff1663ffffffff1663ffffffff1681526020016001820154815250509050600160009054906101000a900473ffffffffffffffffffffffffffffffffffffffff1673ffffffffffffffffffffffffffffffffffffffff16634000aea060008054906101000a900473ffffffffffffffffffffffffffffffffffffffff1684600260000160009054906101000a900467ffffffffffffffff1660405160200161051d919061131f565b6040516020818303038152906040526040518463ffffffff1660e01b815260040161054a93929190611253565b602060405180830381600087803b15801561056457600080fd5b505af1158015610578573d6000803e3d6000fd5b505050506040513d601f19601f8201168201806040525081019061059c9190610ffb565b5060008054906101000a900473ffffffffffffffffffffffffffffffffffffffff1673ffffffffffffffffffffffffffffffffffffffff16635d3b1d30826080015183600001518460400151856020015186606001516040518663ffffffff1660e01b8152600401610612959493929190611291565b602060405180830381600087803b15801561062c57600080fd5b505af1158015610640573d6000803e3d6000fd5b505050506040513d601f19601f820116820180604052508101906106649190611055565b6005819055505050565b600660009054906101000a900473ffffffffffffffffffffffffffffffffffffffff1673ffffffffffffffffffffffffffffffffffffffff163373ffffffffffffffffffffffffffffffffffffffff16146106c857600080fd5b60008054906101000a900473ffffffffffffffffffffffffffffffffffffffff1673ffffffffffffffffffffffffffffffffffffffff1663d7ae1d30600260000160009054906101000a900467ffffffffffffffff16836040518363ffffffff1660e01b815260040161073c92919061133a565b600060405180830381600087803b15801561075657600080fd5b505af115801561076a573d6000803e3d6000fd5b505050506000600260000160006101000a81548167ffffffffffffffff021916908367ffffffffffffffff16021790555050565b60028060000160009054906101000a900467ffffffffffffffff16908060000160089054906101000a900463ffffffff169080600001600c9054906101000a900461ffff169080600001600e9054906101000a900463ffffffff16908060010154905085565b600660009054906101000a900473ffffffffffffffffffffffffffffffffffffffff1673ffffffffffffffffffffffffffffffffffffffff163373ffffffffffffffffffffffffffffffffffffffff161461085e57600080fd5b600160009054906101000a900473ffffffffffffffffffffffffffffffffffffffff1673ffffffffffffffffffffffffffffffffffffffff16634000aea060008054906101000a900473ffffffffffffffffffffffffffffffffffffffff1683600260000160009054906101000a900467ffffffffffffffff166040516020016108e8919061131f565b6040516020818303038152906040526040518463ffffffff1660e01b815260040161091593929190611253565b602060405180830381600087803b15801561092f57600080fd5b505af1158015610943573d6000803e3d6000fd5b505050506040513d601f19601f820116820180604052508101906109679190610ffb565b5050565b600660009054906101000a900473ffffffffffffffffffffffffffffffffffffffff1673ffffffffffffffffffffffffffffffffffffffff163373ffffffffffffffffffffffffffffffffffffffff16146109c557600080fd5b6000600167ffffffffffffffff8111156109e2576109e161154b565b5b604051908082528060200260200182016040528015610a105781602001602082028036833780820191505090505b5090503081600081518110610a2857610a2761151c565b5b602002602001019073ffffffffffffffffffffffffffffffffffffffff16908173ffffffffffffffffffffffffffffffffffffffff168152505060008054906101000a900473ffffffffffffffffffffffffffffffffffffffff1673ffffffffffffffffffffffffffffffffffffffff1663a21a23e46040518163ffffffff1660e01b8152600401602060405180830381600087803b158015610aca57600080fd5b505af1158015610ade573d6000803e3d6000fd5b505050506040513d601f19601f82011682018060405250810190610b02919061111e565b600260000160006101000a81548167ffffffffffffffff021916908367ffffffffffffffff16021790555060008054906101000a900473ffffffffffffffffffffffffffffffffffffffff1673ffffffffffffffffffffffffffffffffffffffff16637341c10c600260000160009054906101000a900467ffffffffffffffff1683600081518110610b9757610b9661151c565b5b60200260200101516040518363ffffffff1660e01b8152600401610bbc92919061133a565b600060405180830381600087803b158015610bd657600080fd5b505af1158015610bea573d6000803e3d6000fd5b5050505050565b600660009054906101000a900473ffffffffffffffffffffffffffffffffffffffff1673ffffffffffffffffffffffffffffffffffffffff163373ffffffffffffffffffffffffffffffffffffffff1614610c4b57600080fd5b600060026040518060a00160405290816000820160009054906101000a900467ffffffffffffffff1667ffffffffffffffff1667ffffffffffffffff1681526020016000820160089054906101000a900463ffffffff1663ffffffff1663ffffffff16815260200160008201600c9054906101000a900461ffff1661ffff1661ffff16815260200160008201600e9054906101000a900463ffffffff1663ffffffff1663ffffffff168152602001600182015481525050905060008054906101000a900473ffffffffffffffffffffffffffffffffffffffff1673ffffffffffffffffffffffffffffffffffffffff16635d3b1d30826080015183600001518460400151856020015186606001516040518663ffffffff1660e01b8152600401610d79959493929190611291565b602060405180830381600087803b158015610d9357600080fd5b505af1158015610da7573d6000803e3d6000fd5b505050506040513d601f19601f82011682018060405250810190610dcb9190611055565b60058190555050565b60055481565b60048181548110610dea57600080fd5b906000526020600020016000915090505481565b6005548214610e42576040517f08c379a0000000000000000000000000000000000000000000000000000000008152600401610e39906112e4565b60405180910390fd5b8060049080519060200190610e58929190610e5d565b505050565b828054828255906000526020600020908101928215610e99579160200282015b82811115610e98578251825591602001919060010190610e7d565b5b509050610ea69190610eaa565b5090565b5b80821115610ec3576000816000905550600101610eab565b5090565b6000610eda610ed5846113db565b6113b6565b90508083825260208201905082856020860282011115610efd57610efc61157f565b5b60005b85811015610f2d5781610f138882610f8f565b845260208401935060208301925050600181019050610f00565b5050509392505050565b600081359050610f46816115c8565b92915050565b600082601f830112610f6157610f6061157a565b5b8135610f71848260208601610ec7565b91505092915050565b600081519050610f89816115df565b92915050565b600081359050610f9e816115f6565b92915050565b600081519050610fb3816115f6565b92915050565b600081519050610fc88161160d565b92915050565b600060208284031215610fe457610fe3611589565b5b6000610ff284828501610f37565b91505092915050565b60006020828403121561101157611010611589565b5b600061101f84828501610f7a565b91505092915050565b60006020828403121561103e5761103d611589565b5b600061104c84828501610f8f565b91505092915050565b60006020828403121561106b5761106a611589565b5b600061107984828501610fa4565b91505092915050565b6000806040838503121561109957611098611589565b5b60006110a785828601610f8f565b92505060206110b885828601610f37565b9150509250929050565b600080604083850312156110d9576110d8611589565b5b60006110e785828601610f8f565b925050602083013567ffffffffffffffff81111561110857611107611584565b5b61111485828601610f4c565b9150509250929050565b60006020828403121561113457611133611589565b5b600061114284828501610fb9565b91505092915050565b61115481611434565b82525050565b61116381611452565b82525050565b600061117482611407565b61117e8185611412565b935061118e8185602086016114b8565b6111978161158e565b840191505092915050565b60006111af601783611423565b91506111ba8261159f565b602082019050919050565b6111ce8161145c565b82525050565b6111dd8161148a565b82525050565b6111ec81611494565b82525050565b6111fb816114a4565b82525050565b6000604082019050611216600083018561114b565b611223602083018461114b565b9392505050565b600060408201905061123f600083018561114b565b61124c60208301846111d4565b9392505050565b6000606082019050611268600083018661114b565b61127560208301856111d4565b81810360408301526112878184611169565b9050949350505050565b600060a0820190506112a6600083018861115a565b6112b360208301876111f2565b6112c060408301866111c5565b6112cd60608301856111e3565b6112da60808301846111e3565b9695505050505050565b600060208201905081810360008301526112fd816111a2565b9050919050565b600060208201905061131960008301846111d4565b92915050565b600060208201905061133460008301846111f2565b92915050565b600060408201905061134f60008301856111f2565b61135c602083018461114b565b9392505050565b600060a08201905061137860008301886111f2565b61138560208301876111e3565b61139260408301866111c5565b61139f60608301856111e3565b6113ac608083018461115a565b9695505050505050565b60006113c06113d1565b90506113cc82826114eb565b919050565b6000604051905090565b600067ffffffffffffffff8211156113f6576113f561154b565b5b602082029050602081019050919050565b600081519050919050565b600082825260208201905092915050565b600082825260208201905092915050565b600061143f8261146a565b9050919050565b60008115159050919050565b6000819050919050565b600061ffff82169050919050565b600073ffffffffffffffffffffffffffffffffffffffff82169050919050565b6000819050919050565b600063ffffffff82169050919050565b600067ffffffffffffffff82169050919050565b60005b838110156114d65780820151818401526020810190506114bb565b838111156114e5576000848401525b50505050565b6114f48261158e565b810181811067ffffffffffffffff821117156115135761151261154b565b5b80604052505050565b7f4e487b7100000000000000000000000000000000000000000000000000000000600052603260045260246000fd5b7f4e487b7100000000000000000000000000000000000000000000000000000000600052604160045260246000fd5b600080fd5b600080fd5b600080fd5b600080fd5b6000601f19601f8301169050919050565b7f7265717565737420494420697320696e636f7272656374000000000000000000600082015250565b6115d181611434565b81146115dc57600080fd5b50565b6115e881611446565b81146115f357600080fd5b50565b6115ff8161148a565b811461160a57600080fd5b50565b611616816114a4565b811461162157600080fd5b5056fea26469706673582212205156f3c51590516891d384ab252186050a2c539267b27f922d9ea9e97521159d64736f6c63430008060033",
  "linkReferences": {},
  "deployedLinkReferences": {}
}