{
  "_format": "hh-sol-artifact-1",
  "contractName": "VRFCoordinatorMock",
  "sourceName": "contracts/chainlink/v0.8/mocks/VRFCoordinatorMock.sol",
  "abi": [
    {
      "inputs": [
        {
          "internalType": "address",
          "name": "linkAddress",
          "type": "address"
        }
      ],
      "stateMutability": "nonpayable",
      "type": "constructor"
    },
    {
      "anonymous": false,
      "inputs": [
        {
          "indexed": true,
          "internalType": "address",
          "name": "sender",
          "type": "address"
        },
        {
          "indexed": true,
          "internalType": "bytes32",
          "name": "keyHash",
          "type": "bytes32"
        },
        {
          "indexed": true,
          "internalType": "uint256",
          "name": "seed",
          "type": "uint256"
        }
      ],
      "name": "RandomnessRequest",
      "type": "event"
    },
    {
      "inputs": [],
      "name": "LINK",
      "outputs": [
        {
          "internalType": "contract LinkTokenInterface",
          "name": "",
          "type": "address"
        }
      ],
      "stateMutability": "view",
      "type": "function"
    },
    {
      "inputs": [
        {
          "internalType": "bytes32",
          "name": "requestId",
          "type": "bytes32"
        },
        {
          "internalType": "uint256",
          "name": "randomness",
          "type": "uint256"
        },
        {
          "internalType": "address",
          "name": "consumerContract",
          "type": "address"
        }
      ],
      "name": "callBackWithRandomness",
      "outputs": [],
      "stateMutability": "nonpayable",
      "type": "function"
    },
    {
      "inputs": [
        {
          "internalType": "address",
          "name": "sender",
          "type": "address"
        },
        {
          "internalType": "uint256",
          "name": "fee",
          "type": "uint256"
        },
        {
          "internalType": "bytes",
          "name": "_data",
          "type": "bytes"
        }
      ],
      "name": "onTokenTransfer",
      "outputs": [],
      "stateMutability": "nonpayable",
      "type": "function"
    }
  ],
  "bytecode": "0x608060405234801561001057600080fd5b5060405161099f38038061099f8339818101604052810190610032919061008d565b806000806101000a81548173ffffffffffffffffffffffffffffffffffffffff021916908373ffffffffffffffffffffffffffffffffffffffff16021790555050610108565b600081519050610087816100f1565b92915050565b6000602082840312156100a3576100a26100ec565b5b60006100b184828501610078565b91505092915050565b60006100c5826100cc565b9050919050565b600073ffffffffffffffffffffffffffffffffffffffff82169050919050565b600080fd5b6100fa816100ba565b811461010557600080fd5b50565b610888806101176000396000f3fe608060405234801561001057600080fd5b50600436106100415760003560e01c80631b6b6d2314610046578063a4c0ed3614610064578063cf55fe9714610080575b600080fd5b61004e61009c565b60405161005b91906105b2565b60405180910390f35b61007e600480360381019061007991906103cc565b6100c0565b005b61009a6004803603810190610095919061047b565b6101b5565b005b60008054906101000a900473ffffffffffffffffffffffffffffffffffffffff1681565b60008054906101000a900473ffffffffffffffffffffffffffffffffffffffff1673ffffffffffffffffffffffffffffffffffffffff163373ffffffffffffffffffffffffffffffffffffffff161461014e576040517f08c379a0000000000000000000000000000000000000000000000000000000008152600401610145906105ed565b60405180910390fd5b60008082806020019051810190610165919061043b565b9150915080828673ffffffffffffffffffffffffffffffffffffffff167f7a9a0a6960d95b32cded93c30e63e7c2eb9e877230813c172110ea54dc1c915c60405160405180910390a45050505050565b6000806394985ddd60e01b85856040516024016101d3929190610589565b604051602081830303815290604052907bffffffffffffffffffffffffffffffffffffffffffffffffffffffff19166020820180517bffffffffffffffffffffffffffffffffffffffffffffffffffffffff838183161783525050505090506000620324b09050805a101561027d576040517f08c379a0000000000000000000000000000000000000000000000000000000008152600401610274906105cd565b60405180910390fd5b60008473ffffffffffffffffffffffffffffffffffffffff16836040516102a49190610572565b6000604051808303816000865af19150503d80600081146102e1576040519150601f19603f3d011682016040523d82523d6000602084013e6102e6565b606091505b5050905050505050505050565b600061030661030184610632565b61060d565b9050828152602081018484840111156103225761032161079b565b5b61032d8482856106f4565b509392505050565b6000813590506103448161080d565b92915050565b60008135905061035981610824565b92915050565b60008151905061036e81610824565b92915050565b600082601f83011261038957610388610796565b5b81356103998482602086016102f3565b91505092915050565b6000813590506103b18161083b565b92915050565b6000815190506103c68161083b565b92915050565b6000806000606084860312156103e5576103e46107a5565b5b60006103f386828701610335565b9350506020610404868287016103a2565b925050604084013567ffffffffffffffff811115610425576104246107a0565b5b61043186828701610374565b9150509250925092565b60008060408385031215610452576104516107a5565b5b60006104608582860161035f565b9250506020610471858286016103b7565b9150509250929050565b600080600060608486031215610494576104936107a5565b5b60006104a28682870161034a565b93505060206104b3868287016103a2565b92505060406104c486828701610335565b9150509250925092565b6104d78161069c565b82525050565b60006104e882610663565b6104f2818561066e565b9350610502818560208601610703565b80840191505092915050565b610517816106d0565b82525050565b600061052a601b83610679565b9150610535826107bb565b602082019050919050565b600061054d601383610679565b9150610558826107e4565b602082019050919050565b61056c816106c6565b82525050565b600061057e82846104dd565b915081905092915050565b600060408201905061059e60008301856104ce565b6105ab6020830184610563565b9392505050565b60006020820190506105c7600083018461050e565b92915050565b600060208201905081810360008301526105e68161051d565b9050919050565b6000602082019050818103600083015261060681610540565b9050919050565b6000610617610628565b90506106238282610736565b919050565b6000604051905090565b600067ffffffffffffffff82111561064d5761064c610767565b5b610656826107aa565b9050602081019050919050565b600081519050919050565b600081905092915050565b600082825260208201905092915050565b6000610695826106a6565b9050919050565b6000819050919050565b600073ffffffffffffffffffffffffffffffffffffffff82169050919050565b6000819050919050565b60006106db826106e2565b9050919050565b60006106ed826106a6565b9050919050565b82818337600083830152505050565b60005b83811015610721578082015181840152602081019050610706565b83811115610730576000848401525b50505050565b61073f826107aa565b810181811067ffffffffffffffff8211171561075e5761075d610767565b5b80604052505050565b7f4e487b7100000000000000000000000000000000000000000000000000000000600052604160045260246000fd5b600080fd5b600080fd5b600080fd5b600080fd5b6000601f19601f8301169050919050565b7f6e6f7420656e6f7567682067617320666f7220636f6e73756d65720000000000600082015250565b7f4d75737420757365204c494e4b20746f6b656e00000000000000000000000000600082015250565b6108168161068a565b811461082157600080fd5b50565b61082d8161069c565b811461083857600080fd5b50565b610844816106c6565b811461084f57600080fd5b5056fea26469706673582212203ab339efd5ebe1058c81785b575b8763d072f225e02f1ecfc37f11022dfaa28e64736f6c63430008060033",
  "linkReferences": {},
  "deployedLinkReferences": {}
}