{
  "_format": "hh-sol-artifact-1",
  "contractName": "VRFV2RevertingExample",
  "sourceName": "contracts/chainlink/v0.8/tests/VRFV2RevertingExample.sol",
  "abi": [
    {
      "inputs": [
        {
          "internalType": "address",
          "name": "vrfCoordinator",
          "type": "address"
        },
        {
          "internalType": "address",
          "name": "link",
          "type": "address"
        }
      ],
      "stateMutability": "nonpayable",
      "type": "constructor"
    },
    {
      "inputs": [
        {
          "internalType": "address",
          "name": "have",
          "type": "address"
        },
        {
          "internalType": "address",
          "name": "want",
          "type": "address"
        }
      ],
      "name": "OnlyCoordinatorCanFulfill",
      "type": "error"
    },
    {
      "inputs": [
        {
          "internalType": "uint256",
          "name": "requestId",
          "type": "uint256"
        },
        {
          "internalType": "uint256[]",
          "name": "randomWords",
          "type": "uint256[]"
        }
      ],
      "name": "rawFulfillRandomWords",
      "outputs": [],
      "stateMutability": "nonpayable",
      "type": "function"
    },
    {
      "inputs": [],
      "name": "s_gasAvailable",
      "outputs": [
        {
          "internalType": "uint256",
          "name": "",
          "type": "uint256"
        }
      ],
      "stateMutability": "view",
      "type": "function"
    },
    {
      "inputs": [
        {
          "internalType": "uint256",
          "name": "",
          "type": "uint256"
        }
      ],
      "name": "s_randomWords",
      "outputs": [
        {
          "internalType": "uint256",
          "name": "",
          "type": "uint256"
        }
      ],
      "stateMutability": "view",
      "type": "function"
    },
    {
      "inputs": [],
      "name": "s_requestId",
      "outputs": [
        {
          "internalType": "uint256",
          "name": "",
          "type": "uint256"
        }
      ],
      "stateMutability": "view",
      "type": "function"
    },
    {
      "inputs": [],
      "name": "s_subId",
      "outputs": [
        {
          "internalType": "uint64",
          "name": "",
          "type": "uint64"
        }
      ],
      "stateMutability": "view",
      "type": "function"
    },
    {
      "inputs": [
        {
          "internalType": "uint96",
          "name": "amount",
          "type": "uint96"
        }
      ],
      "name": "testCreateSubscriptionAndFund",
      "outputs": [],
      "stateMutability": "nonpayable",
      "type": "function"
    },
    {
      "inputs": [
        {
          "internalType": "bytes32",
          "name": "keyHash",
          "type": "bytes32"
        },
        {
          "internalType": "uint64",
          "name": "subId",
          "type": "uint64"
        },
        {
          "internalType": "uint16",
          "name": "minReqConfs",
          "type": "uint16"
        },
        {
          "internalType": "uint32",
          "name": "callbackGasLimit",
          "type": "uint32"
        },
        {
          "internalType": "uint32",
          "name": "numWords",
          "type": "uint32"
        }
      ],
      "name": "testRequestRandomness",
      "outputs": [
        {
          "internalType": "uint256",
          "name": "",
          "type": "uint256"
        }
      ],
      "stateMutability": "nonpayable",
      "type": "function"
    },
    {
      "inputs": [
        {
          "internalType": "uint96",
          "name": "amount",
          "type": "uint96"
        }
      ],
      "name": "topUpSubscription",
      "outputs": [],
      "stateMutability": "nonpayable",
      "type": "function"
    },
    {
      "inputs": [
        {
          "internalType": "address[]",
          "name": "consumers",
          "type": "address[]"
        }
      ],
      "name": "updateSubscription",
      "outputs": [],
      "stateMutability": "nonpayable",
      "type": "function"
    }
  ],
  "bytecode": "0x60a06040523480156200001157600080fd5b506040516200150f3803806200150f833981810160405281019062000037919062000111565b818073ffffffffffffffffffffffffffffffffffffffff1660808173ffffffffffffffffffffffffffffffffffffffff1660601b815250505081600260006101000a81548173ffffffffffffffffffffffffffffffffffffffff021916908373ffffffffffffffffffffffffffffffffffffffff16021790555080600360006101000a81548173ffffffffffffffffffffffffffffffffffffffff021916908373ffffffffffffffffffffffffffffffffffffffff1602179055505050620001ab565b6000815190506200010b8162000191565b92915050565b600080604083850312156200012b576200012a6200018c565b5b60006200013b85828601620000fa565b92505060206200014e85828601620000fa565b9150509250929050565b600062000165826200016c565b9050919050565b600073ffffffffffffffffffffffffffffffffffffffff82169050919050565b600080fd5b6200019c8162000158565b8114620001a857600080fd5b50565b60805160601c61133e620001d1600039600081816101c40152610218015261133e6000f3fe608060405234801561001057600080fd5b50600436106100935760003560e01c80636802f726116100665780636802f7261461011c578063706da1ca14610138578063e89e106a14610156578063f08c5daa14610174578063f6eaffc81461019257610093565b80631fe543e31461009857806327784fad146100b45780632fa4e442146100e457806336bfffed14610100575b600080fd5b6100b260048036038101906100ad9190610c50565b6101c2565b005b6100ce60048036038101906100c99190610b7b565b610282565b6040516100db9190610ee8565b60405180910390f35b6100fe60048036038101906100f99190610cd9565b61034d565b005b61011a60048036038101906101159190610b05565b6104bd565b005b61013660048036038101906101319190610cd9565b610603565b005b6101406108a8565b60405161014d9190610f03565b60405180910390f35b61015e6108c2565b60405161016b9190610ee8565b60405180910390f35b61017c6108c8565b6040516101899190610ee8565b60405180910390f35b6101ac60048036038101906101a79190610bf6565b6108ce565b6040516101b99190610ee8565b60405180910390f35b7f000000000000000000000000000000000000000000000000000000000000000073ffffffffffffffffffffffffffffffffffffffff163373ffffffffffffffffffffffffffffffffffffffff161461027457337f00000000000000000000000000000000000000000000000000000000000000006040517f1cf993f400000000000000000000000000000000000000000000000000000000815260040161026b929190610dee565b60405180910390fd5b61027e82826108f2565b5050565b6000600260009054906101000a900473ffffffffffffffffffffffffffffffffffffffff1673ffffffffffffffffffffffffffffffffffffffff16635d3b1d3087878787876040518663ffffffff1660e01b81526004016102e7959493929190610e55565b602060405180830381600087803b15801561030157600080fd5b505af1158015610315573d6000803e3d6000fd5b505050506040513d601f19601f820116820180604052508101906103399190610c23565b600181905550600154905095945050505050565b6000600360149054906101000a900467ffffffffffffffff1667ffffffffffffffff1614156103b1576040517f08c379a00000000000000000000000000000000000000000000000000000000081526004016103a890610ea8565b60405180910390fd5b600360009054906101000a900473ffffffffffffffffffffffffffffffffffffffff1673ffffffffffffffffffffffffffffffffffffffff16634000aea0600260009054906101000a900473ffffffffffffffffffffffffffffffffffffffff1683600360149054906101000a900467ffffffffffffffff1660405160200161043a9190610f03565b6040516020818303038152906040526040518463ffffffff1660e01b815260040161046793929190610e17565b602060405180830381600087803b15801561048157600080fd5b505af1158015610495573d6000803e3d6000fd5b505050506040513d601f19601f820116820180604052508101906104b99190610b4e565b5050565b6000600360149054906101000a900467ffffffffffffffff1667ffffffffffffffff161415610521576040517f08c379a000000000000000000000000000000000000000000000000000000000815260040161051890610ec8565b60405180910390fd5b60005b81518110156105ff57600260009054906101000a900473ffffffffffffffffffffffffffffffffffffffff1673ffffffffffffffffffffffffffffffffffffffff16637341c10c600360149054906101000a900467ffffffffffffffff168484815181106105955761059461117b565b5b60200260200101516040518363ffffffff1660e01b81526004016105ba929190610f1e565b600060405180830381600087803b1580156105d457600080fd5b505af11580156105e8573d6000803e3d6000fd5b5050505080806105f790611103565b915050610524565b5050565b6000600360149054906101000a900467ffffffffffffffff1667ffffffffffffffff16141561079c57600260009054906101000a900473ffffffffffffffffffffffffffffffffffffffff1673ffffffffffffffffffffffffffffffffffffffff1663a21a23e46040518163ffffffff1660e01b8152600401602060405180830381600087803b15801561069657600080fd5b505af11580156106aa573d6000803e3d6000fd5b505050506040513d601f19601f820116820180604052508101906106ce9190610cac565b600360146101000a81548167ffffffffffffffff021916908367ffffffffffffffff160217905550600260009054906101000a900473ffffffffffffffffffffffffffffffffffffffff1673ffffffffffffffffffffffffffffffffffffffff16637341c10c600360149054906101000a900467ffffffffffffffff16306040518363ffffffff1660e01b8152600401610769929190610f1e565b600060405180830381600087803b15801561078357600080fd5b505af1158015610797573d6000803e3d6000fd5b505050505b600360009054906101000a900473ffffffffffffffffffffffffffffffffffffffff1673ffffffffffffffffffffffffffffffffffffffff16634000aea0600260009054906101000a900473ffffffffffffffffffffffffffffffffffffffff1683600360149054906101000a900467ffffffffffffffff166040516020016108259190610f03565b6040516020818303038152906040526040518463ffffffff1660e01b815260040161085293929190610e17565b602060405180830381600087803b15801561086c57600080fd5b505af1158015610880573d6000803e3d6000fd5b505050506040513d601f19601f820116820180604052508101906108a49190610b4e565b5050565b600360149054906101000a900467ffffffffffffffff1681565b60015481565b60045481565b600081815481106108de57600080fd5b906000526020600020016000915090505481565b600080fd5b600061090a61090584610f6c565b610f47565b9050808382526020820190508285602086028201111561092d5761092c6111de565b5b60005b8581101561095d578161094388826109d7565b845260208401935060208301925050600181019050610930565b5050509392505050565b600061097a61097584610f98565b610f47565b9050808382526020820190508285602086028201111561099d5761099c6111de565b5b60005b858110156109cd57816109b38882610a87565b8452602084019350602083019250506001810190506109a0565b5050509392505050565b6000813590506109e681611250565b92915050565b600082601f830112610a0157610a006111d9565b5b8135610a118482602086016108f7565b91505092915050565b600082601f830112610a2f57610a2e6111d9565b5b8135610a3f848260208601610967565b91505092915050565b600081519050610a5781611267565b92915050565b600081359050610a6c8161127e565b92915050565b600081359050610a8181611295565b92915050565b600081359050610a96816112ac565b92915050565b600081519050610aab816112ac565b92915050565b600081359050610ac0816112c3565b92915050565b600081359050610ad5816112da565b92915050565b600081519050610aea816112da565b92915050565b600081359050610aff816112f1565b92915050565b600060208284031215610b1b57610b1a6111e8565b5b600082013567ffffffffffffffff811115610b3957610b386111e3565b5b610b45848285016109ec565b91505092915050565b600060208284031215610b6457610b636111e8565b5b6000610b7284828501610a48565b91505092915050565b600080600080600060a08688031215610b9757610b966111e8565b5b6000610ba588828901610a5d565b9550506020610bb688828901610ac6565b9450506040610bc788828901610a72565b9350506060610bd888828901610ab1565b9250506080610be988828901610ab1565b9150509295509295909350565b600060208284031215610c0c57610c0b6111e8565b5b6000610c1a84828501610a87565b91505092915050565b600060208284031215610c3957610c386111e8565b5b6000610c4784828501610a9c565b91505092915050565b60008060408385031215610c6757610c666111e8565b5b6000610c7585828601610a87565b925050602083013567ffffffffffffffff811115610c9657610c956111e3565b5b610ca285828601610a1a565b9150509250929050565b600060208284031215610cc257610cc16111e8565b5b6000610cd084828501610adb565b91505092915050565b600060208284031215610cef57610cee6111e8565b5b6000610cfd84828501610af0565b91505092915050565b610d0f81610ff1565b82525050565b610d1e8161100f565b82525050565b6000610d2f82610fc4565b610d398185610fcf565b9350610d4981856020860161109f565b610d52816111ed565b840191505092915050565b6000610d6a600b83610fe0565b9150610d75826111fe565b602082019050919050565b6000610d8d600d83610fe0565b9150610d9882611227565b602082019050919050565b610dac81611019565b82525050565b610dbb81611047565b82525050565b610dca81611051565b82525050565b610dd981611061565b82525050565b610de88161108d565b82525050565b6000604082019050610e036000830185610d06565b610e106020830184610d06565b9392505050565b6000606082019050610e2c6000830186610d06565b610e396020830185610ddf565b8181036040830152610e4b8184610d24565b9050949350505050565b600060a082019050610e6a6000830188610d15565b610e776020830187610dd0565b610e846040830186610da3565b610e916060830185610dc1565b610e9e6080830184610dc1565b9695505050505050565b60006020820190508181036000830152610ec181610d5d565b9050919050565b60006020820190508181036000830152610ee181610d80565b9050919050565b6000602082019050610efd6000830184610db2565b92915050565b6000602082019050610f186000830184610dd0565b92915050565b6000604082019050610f336000830185610dd0565b610f406020830184610d06565b9392505050565b6000610f51610f62565b9050610f5d82826110d2565b919050565b6000604051905090565b600067ffffffffffffffff821115610f8757610f866111aa565b5b602082029050602081019050919050565b600067ffffffffffffffff821115610fb357610fb26111aa565b5b602082029050602081019050919050565b600081519050919050565b600082825260208201905092915050565b600082825260208201905092915050565b6000610ffc82611027565b9050919050565b60008115159050919050565b6000819050919050565b600061ffff82169050919050565b600073ffffffffffffffffffffffffffffffffffffffff82169050919050565b6000819050919050565b600063ffffffff82169050919050565b600067ffffffffffffffff82169050919050565b60006bffffffffffffffffffffffff82169050919050565b600061109882611075565b9050919050565b60005b838110156110bd5780820151818401526020810190506110a2565b838111156110cc576000848401525b50505050565b6110db826111ed565b810181811067ffffffffffffffff821117156110fa576110f96111aa565b5b80604052505050565b600061110e82611047565b91507fffffffffffffffffffffffffffffffffffffffffffffffffffffffffffffffff8214156111415761114061114c565b5b600182019050919050565b7f4e487b7100000000000000000000000000000000000000000000000000000000600052601160045260246000fd5b7f4e487b7100000000000000000000000000000000000000000000000000000000600052603260045260246000fd5b7f4e487b7100000000000000000000000000000000000000000000000000000000600052604160045260246000fd5b600080fd5b600080fd5b600080fd5b600080fd5b6000601f19601f8301169050919050565b7f737562206e6f7420736574000000000000000000000000000000000000000000600082015250565b7f7375624944206e6f742073657400000000000000000000000000000000000000600082015250565b61125981610ff1565b811461126457600080fd5b50565b61127081611003565b811461127b57600080fd5b50565b6112878161100f565b811461129257600080fd5b50565b61129e81611019565b81146112a957600080fd5b50565b6112b581611047565b81146112c057600080fd5b50565b6112cc81611051565b81146112d757600080fd5b50565b6112e381611061565b81146112ee57600080fd5b50565b6112fa81611075565b811461130557600080fd5b5056fea2646970667358221220f4dda1c2a5d39b3b71a98f16ddf3e609fcfe05a5fad2ddaa95edde4e096b898a64736f6c63430008060033",
  "linkReferences": {},
  "deployedLinkReferences": {}
}