{
  "_format": "hh-sol-artifact-1",
  "contractName": "Greeter",
  "sourceName": "contracts/chainlink/v0.8/tests/Greeter.sol",
  "abi": [
    {
      "inputs": [
        {
          "internalType": "address",
          "name": "owner",
          "type": "address"
        }
      ],
      "stateMutability": "nonpayable",
      "type": "constructor"
    },
    {
      "anonymous": false,
      "inputs": [
        {
          "indexed": true,
          "internalType": "address",
          "name": "from",
          "type": "address"
        },
        {
          "indexed": true,
          "internalType": "address",
          "name": "to",
          "type": "address"
        }
      ],
      "name": "OwnershipTransferRequested",
      "type": "event"
    },
    {
      "anonymous": false,
      "inputs": [
        {
          "indexed": true,
          "internalType": "address",
          "name": "from",
          "type": "address"
        },
        {
          "indexed": true,
          "internalType": "address",
          "name": "to",
          "type": "address"
        }
      ],
      "name": "OwnershipTransferred",
      "type": "event"
    },
    {
      "inputs": [],
      "name": "acceptOwnership",
      "outputs": [],
      "stateMutability": "nonpayable",
      "type": "function"
    },
    {
      "inputs": [],
      "name": "greeting",
      "outputs": [
        {
          "internalType": "string",
          "name": "",
          "type": "string"
        }
      ],
      "stateMutability": "view",
      "type": "function"
    },
    {
      "inputs": [],
      "name": "owner",
      "outputs": [
        {
          "internalType": "address",
          "name": "",
          "type": "address"
        }
      ],
      "stateMutability": "view",
      "type": "function"
    },
    {
      "inputs": [
        {
          "internalType": "string",
          "name": "_greeting",
          "type": "string"
        }
      ],
      "name": "setGreeting",
      "outputs": [],
      "stateMutability": "nonpayable",
      "type": "function"
    },
    {
      "inputs": [
        {
          "internalType": "address",
          "name": "to",
          "type": "address"
        }
      ],
      "name": "transferOwnership",
      "outputs": [],
      "stateMutability": "nonpayable",
      "type": "function"
    },
    {
      "inputs": [],
      "name": "triggerRevert",
      "outputs": [],
      "stateMutability": "pure",
      "type": "function"
    }
  ],
  "bytecode": "0x60806040523480156200001157600080fd5b5060405162000f4438038062000f44833981810160405281019062000037919062000285565b808060008073ffffffffffffffffffffffffffffffffffffffff168273ffffffffffffffffffffffffffffffffffffffff161415620000ad576040517f08c379a0000000000000000000000000000000000000000000000000000000008152600401620000a49062000305565b60405180910390fd5b816000806101000a81548173ffffffffffffffffffffffffffffffffffffffff021916908373ffffffffffffffffffffffffffffffffffffffff160217905550600073ffffffffffffffffffffffffffffffffffffffff168173ffffffffffffffffffffffffffffffffffffffff1614620001345762000133816200013e60201b60201c565b5b50505050620003ff565b3373ffffffffffffffffffffffffffffffffffffffff168173ffffffffffffffffffffffffffffffffffffffff161415620001b0576040517f08c379a0000000000000000000000000000000000000000000000000000000008152600401620001a79062000327565b60405180910390fd5b80600160006101000a81548173ffffffffffffffffffffffffffffffffffffffff021916908373ffffffffffffffffffffffffffffffffffffffff1602179055508073ffffffffffffffffffffffffffffffffffffffff1660008054906101000a900473ffffffffffffffffffffffffffffffffffffffff1673ffffffffffffffffffffffffffffffffffffffff167fed8889f560326eb138920d842192f0eb3dd22b4f139c87a2c57538e05bae127860405160405180910390a350565b6000815190506200027f81620003e5565b92915050565b6000602082840312156200029e576200029d6200038e565b5b6000620002ae848285016200026e565b91505092915050565b6000620002c660188362000349565b9150620002d38262000393565b602082019050919050565b6000620002ed60178362000349565b9150620002fa82620003bc565b602082019050919050565b600060208201905081810360008301526200032081620002b7565b9050919050565b600060208201905081810360008301526200034281620002de565b9050919050565b600082825260208201905092915050565b600062000367826200036e565b9050919050565b600073ffffffffffffffffffffffffffffffffffffffff82169050919050565b600080fd5b7f43616e6e6f7420736574206f776e657220746f207a65726f0000000000000000600082015250565b7f43616e6e6f74207472616e7366657220746f2073656c66000000000000000000600082015250565b620003f0816200035a565b8114620003fc57600080fd5b50565b610b35806200040f6000396000f3fe608060405234801561001057600080fd5b50600436106100625760003560e01c806379ba5097146100675780638da5cb5b14610071578063a41368621461008f578063ef690cc0146100ab578063f2fde38b146100c9578063fd028551146100e5575b600080fd5b61006f6100ef565b005b610079610284565b6040516100869190610832565b60405180910390f35b6100a960048036038101906100a491906106ee565b6102ad565b005b6100b3610311565b6040516100c0919061084d565b60405180910390f35b6100e360048036038101906100de91906106c1565b61039f565b005b6100ed6103b3565b005b600160009054906101000a900473ffffffffffffffffffffffffffffffffffffffff1673ffffffffffffffffffffffffffffffffffffffff163373ffffffffffffffffffffffffffffffffffffffff161461017f576040517f08c379a00000000000000000000000000000000000000000000000000000000081526004016101769061086f565b60405180910390fd5b60008060009054906101000a900473ffffffffffffffffffffffffffffffffffffffff169050336000806101000a81548173ffffffffffffffffffffffffffffffffffffffff021916908373ffffffffffffffffffffffffffffffffffffffff1602179055506000600160006101000a81548173ffffffffffffffffffffffffffffffffffffffff021916908373ffffffffffffffffffffffffffffffffffffffff1602179055503373ffffffffffffffffffffffffffffffffffffffff168173ffffffffffffffffffffffffffffffffffffffff167f8be0079c531659141344cd1fd0a4f28419497f9722a3daafe3b4186f6b6457e060405160405180910390a350565b60008060009054906101000a900473ffffffffffffffffffffffffffffffffffffffff16905090565b6102b56103f6565b600082829050116102fb576040517f08c379a00000000000000000000000000000000000000000000000000000000081526004016102f2906108ef565b60405180910390fd5b81816002919061030c9291906105b3565b505050565b6002805461031e90610990565b80601f016020809104026020016040519081016040528092919081815260200182805461034a90610990565b80156103975780601f1061036c57610100808354040283529160200191610397565b820191906000526020600020905b81548152906001019060200180831161037a57829003601f168201915b505050505081565b6103a76103f6565b6103b081610486565b50565b60006103f4576040517f08c379a00000000000000000000000000000000000000000000000000000000081526004016103eb906108af565b60405180910390fd5b565b60008054906101000a900473ffffffffffffffffffffffffffffffffffffffff1673ffffffffffffffffffffffffffffffffffffffff163373ffffffffffffffffffffffffffffffffffffffff1614610484576040517f08c379a000000000000000000000000000000000000000000000000000000000815260040161047b9061088f565b60405180910390fd5b565b3373ffffffffffffffffffffffffffffffffffffffff168173ffffffffffffffffffffffffffffffffffffffff1614156104f5576040517f08c379a00000000000000000000000000000000000000000000000000000000081526004016104ec906108cf565b60405180910390fd5b80600160006101000a81548173ffffffffffffffffffffffffffffffffffffffff021916908373ffffffffffffffffffffffffffffffffffffffff1602179055508073ffffffffffffffffffffffffffffffffffffffff1660008054906101000a900473ffffffffffffffffffffffffffffffffffffffff1673ffffffffffffffffffffffffffffffffffffffff167fed8889f560326eb138920d842192f0eb3dd22b4f139c87a2c57538e05bae127860405160405180910390a350565b8280546105bf90610990565b90600052602060002090601f0160209004810192826105e15760008555610628565b82601f106105fa57803560ff1916838001178555610628565b82800160010185558215610628579182015b8281111561062757823582559160200191906001019061060c565b5b5090506106359190610639565b5090565b5b8082111561065257600081600090555060010161063a565b5090565b60008135905061066581610ae8565b92915050565b60008083601f840112610681576106806109f6565b5b8235905067ffffffffffffffff81111561069e5761069d6109f1565b5b6020830191508360018202830111156106ba576106b96109fb565b5b9250929050565b6000602082840312156106d7576106d6610a05565b5b60006106e584828501610656565b91505092915050565b6000806020838503121561070557610704610a05565b5b600083013567ffffffffffffffff81111561072357610722610a00565b5b61072f8582860161066b565b92509250509250929050565b6107448161092b565b82525050565b60006107558261090f565b61075f818561091a565b935061076f81856020860161095d565b61077881610a0a565b840191505092915050565b600061079060168361091a565b915061079b82610a1b565b602082019050919050565b60006107b360168361091a565b91506107be82610a44565b602082019050919050565b60006107d660198361091a565b91506107e182610a6d565b602082019050919050565b60006107f960178361091a565b915061080482610a96565b602082019050919050565b600061081c60178361091a565b915061082782610abf565b602082019050919050565b6000602082019050610847600083018461073b565b92915050565b60006020820190508181036000830152610867818461074a565b905092915050565b6000602082019050818103600083015261088881610783565b9050919050565b600060208201905081810360008301526108a8816107a6565b9050919050565b600060208201905081810360008301526108c8816107c9565b9050919050565b600060208201905081810360008301526108e8816107ec565b9050919050565b600060208201905081810360008301526109088161080f565b9050919050565b600081519050919050565b600082825260208201905092915050565b60006109368261093d565b9050919050565b600073ffffffffffffffffffffffffffffffffffffffff82169050919050565b60005b8381101561097b578082015181840152602081019050610960565b8381111561098a576000848401525b50505050565b600060028204905060018216806109a857607f821691505b602082108114156109bc576109bb6109c2565b5b50919050565b7f4e487b7100000000000000000000000000000000000000000000000000000000600052602260045260246000fd5b600080fd5b600080fd5b600080fd5b600080fd5b600080fd5b6000601f19601f8301169050919050565b7f4d7573742062652070726f706f736564206f776e657200000000000000000000600082015250565b7f4f6e6c792063616c6c61626c65206279206f776e657200000000000000000000600082015250565b7f477265657465723a207265766572742074726967676572656400000000000000600082015250565b7f43616e6e6f74207472616e7366657220746f2073656c66000000000000000000600082015250565b7f496e76616c6964206772656574696e67206c656e677468000000000000000000600082015250565b610af18161092b565b8114610afc57600080fd5b5056fea2646970667358221220a45bb84a2890f20b6f46db79691c453cf008c959ca50d54b49cd91a96a662e7764736f6c63430008060033",
  "linkReferences": {},
  "deployedLinkReferences": {}
}