{
  "_format": "hh-sol-artifact-1",
  "contractName": "OptimismValidator",
  "sourceName": "contracts/chainlink/v0.8/dev/OptimismValidator.sol",
  "abi": [
    {
      "inputs": [
        {
          "internalType": "address",
          "name": "crossDomainMessengerAddr",
          "type": "address"
        },
        {
          "internalType": "address",
          "name": "l2CrossDomainForwarderAddr",
          "type": "address"
        },
        {
          "internalType": "address",
          "name": "l2FlagsAddr",
          "type": "address"
        }
      ],
      "stateMutability": "nonpayable",
      "type": "constructor"
    },
    {
      "anonymous": false,
      "inputs": [
        {
          "indexed": false,
          "internalType": "address",
          "name": "user",
          "type": "address"
        }
      ],
      "name": "AddedAccess",
      "type": "event"
    },
    {
      "anonymous": false,
      "inputs": [],
      "name": "CheckAccessDisabled",
      "type": "event"
    },
    {
      "anonymous": false,
      "inputs": [],
      "name": "CheckAccessEnabled",
      "type": "event"
    },
    {
      "anonymous": false,
      "inputs": [
        {
          "indexed": true,
          "internalType": "address",
          "name": "from",
          "type": "address"
        },
        {
          "indexed": true,
          "internalType": "address",
          "name": "to",
          "type": "address"
        }
      ],
      "name": "OwnershipTransferRequested",
      "type": "event"
    },
    {
      "anonymous": false,
      "inputs": [
        {
          "indexed": true,
          "internalType": "address",
          "name": "from",
          "type": "address"
        },
        {
          "indexed": true,
          "internalType": "address",
          "name": "to",
          "type": "address"
        }
      ],
      "name": "OwnershipTransferred",
      "type": "event"
    },
    {
      "anonymous": false,
      "inputs": [
        {
          "indexed": false,
          "internalType": "address",
          "name": "user",
          "type": "address"
        }
      ],
      "name": "RemovedAccess",
      "type": "event"
    },
    {
      "inputs": [],
      "name": "CROSS_DOMAIN_MESSENGER",
      "outputs": [
        {
          "internalType": "address",
          "name": "",
          "type": "address"
        }
      ],
      "stateMutability": "view",
      "type": "function"
    },
    {
      "inputs": [],
      "name": "FLAG_OPTIMISM_SEQ_OFFLINE",
      "outputs": [
        {
          "internalType": "address",
          "name": "",
          "type": "address"
        }
      ],
      "stateMutability": "view",
      "type": "function"
    },
    {
      "inputs": [],
      "name": "L2_CROSS_DOMAIN_FORWARDER",
      "outputs": [
        {
          "internalType": "address",
          "name": "",
          "type": "address"
        }
      ],
      "stateMutability": "view",
      "type": "function"
    },
    {
      "inputs": [],
      "name": "L2_FLAGS",
      "outputs": [
        {
          "internalType": "address",
          "name": "",
          "type": "address"
        }
      ],
      "stateMutability": "view",
      "type": "function"
    },
    {
      "inputs": [],
      "name": "acceptOwnership",
      "outputs": [],
      "stateMutability": "nonpayable",
      "type": "function"
    },
    {
      "inputs": [
        {
          "internalType": "address",
          "name": "_user",
          "type": "address"
        }
      ],
      "name": "addAccess",
      "outputs": [],
      "stateMutability": "nonpayable",
      "type": "function"
    },
    {
      "inputs": [],
      "name": "checkEnabled",
      "outputs": [
        {
          "internalType": "bool",
          "name": "",
          "type": "bool"
        }
      ],
      "stateMutability": "view",
      "type": "function"
    },
    {
      "inputs": [],
      "name": "disableAccessCheck",
      "outputs": [],
      "stateMutability": "nonpayable",
      "type": "function"
    },
    {
      "inputs": [],
      "name": "enableAccessCheck",
      "outputs": [],
      "stateMutability": "nonpayable",
      "type": "function"
    },
    {
      "inputs": [
        {
          "internalType": "address",
          "name": "_user",
          "type": "address"
        },
        {
          "internalType": "bytes",
          "name": "",
          "type": "bytes"
        }
      ],
      "name": "hasAccess",
      "outputs": [
        {
          "internalType": "bool",
          "name": "",
          "type": "bool"
        }
      ],
      "stateMutability": "view",
      "type": "function"
    },
    {
      "inputs": [],
      "name": "owner",
      "outputs": [
        {
          "internalType": "address",
          "name": "",
          "type": "address"
        }
      ],
      "stateMutability": "view",
      "type": "function"
    },
    {
      "inputs": [
        {
          "internalType": "address",
          "name": "_user",
          "type": "address"
        }
      ],
      "name": "removeAccess",
      "outputs": [],
      "stateMutability": "nonpayable",
      "type": "function"
    },
    {
      "inputs": [
        {
          "internalType": "address",
          "name": "to",
          "type": "address"
        }
      ],
      "name": "transferOwnership",
      "outputs": [],
      "stateMutability": "nonpayable",
      "type": "function"
    },
    {
      "inputs": [],
      "name": "typeAndVersion",
      "outputs": [
        {
          "internalType": "string",
          "name": "",
          "type": "string"
        }
      ],
      "stateMutability": "pure",
      "type": "function"
    },
    {
      "inputs": [
        {
          "internalType": "uint256",
          "name": "",
          "type": "uint256"
        },
        {
          "internalType": "int256",
          "name": "previousAnswer",
          "type": "int256"
        },
        {
          "internalType": "uint256",
          "name": "",
          "type": "uint256"
        },
        {
          "internalType": "int256",
          "name": "currentAnswer",
          "type": "int256"
        }
      ],
      "name": "validate",
      "outputs": [
        {
          "internalType": "bool",
          "name": "",
          "type": "bool"
        }
      ],
      "stateMutability": "nonpayable",
      "type": "function"
    }
  ],
  "bytecode": "0x60e06040523480156200001157600080fd5b5060405162001d2438038062001d2483398181016040528101906200003791906200049f565b338060008073ffffffffffffffffffffffffffffffffffffffff168273ffffffffffffffffffffffffffffffffffffffff161415620000ad576040517f08c379a0000000000000000000000000000000000000000000000000000000008152600401620000a49062000624565b60405180910390fd5b816000806101000a81548173ffffffffffffffffffffffffffffffffffffffff021916908373ffffffffffffffffffffffffffffffffffffffff160217905550600073ffffffffffffffffffffffffffffffffffffffff168173ffffffffffffffffffffffffffffffffffffffff1614620001345762000133816200035860201b60201c565b5b50505060018060146101000a81548160ff021916908315150217905550600073ffffffffffffffffffffffffffffffffffffffff168373ffffffffffffffffffffffffffffffffffffffff161415620001c4576040517f08c379a0000000000000000000000000000000000000000000000000000000008152600401620001bb9062000602565b60405180910390fd5b600073ffffffffffffffffffffffffffffffffffffffff168273ffffffffffffffffffffffffffffffffffffffff16141562000237576040517f08c379a00000000000000000000000000000000000000000000000000000000081526004016200022e90620005be565b60405180910390fd5b600073ffffffffffffffffffffffffffffffffffffffff168173ffffffffffffffffffffffffffffffffffffffff161415620002aa576040517f08c379a0000000000000000000000000000000000000000000000000000000008152600401620002a190620005e0565b60405180910390fd5b8273ffffffffffffffffffffffffffffffffffffffff1660808173ffffffffffffffffffffffffffffffffffffffff1660601b815250508173ffffffffffffffffffffffffffffffffffffffff1660a08173ffffffffffffffffffffffffffffffffffffffff1660601b815250508073ffffffffffffffffffffffffffffffffffffffff1660c08173ffffffffffffffffffffffffffffffffffffffff1660601b81525050505050620007e5565b3373ffffffffffffffffffffffffffffffffffffffff168173ffffffffffffffffffffffffffffffffffffffff161415620003ca576040517f08c379a0000000000000000000000000000000000000000000000000000000008152600401620003c19062000646565b60405180910390fd5b80600160006101000a81548173ffffffffffffffffffffffffffffffffffffffff021916908373ffffffffffffffffffffffffffffffffffffffff1602179055508073ffffffffffffffffffffffffffffffffffffffff1660008054906101000a900473ffffffffffffffffffffffffffffffffffffffff1673ffffffffffffffffffffffffffffffffffffffff167fed8889f560326eb138920d842192f0eb3dd22b4f139c87a2c57538e05bae127860405160405180910390a350565b6000815190506200049981620007cb565b92915050565b600080600060608486031215620004bb57620004ba620006ad565b5b6000620004cb8682870162000488565b9350506020620004de8682870162000488565b9250506040620004f18682870162000488565b9150509250925092565b60006200050a60248362000668565b91506200051782620006b2565b604082019050919050565b60006200053160188362000668565b91506200053e8262000701565b602082019050919050565b60006200055860218362000668565b915062000565826200072a565b604082019050919050565b60006200057f60188362000668565b91506200058c8262000779565b602082019050919050565b6000620005a660178362000668565b9150620005b382620007a2565b602082019050919050565b60006020820190508181036000830152620005d981620004fb565b9050919050565b60006020820190508181036000830152620005fb8162000522565b9050919050565b600060208201905081810360008301526200061d8162000549565b9050919050565b600060208201905081810360008301526200063f8162000570565b9050919050565b60006020820190508181036000830152620006618162000597565b9050919050565b600082825260208201905092915050565b600062000686826200068d565b9050919050565b600073ffffffffffffffffffffffffffffffffffffffff82169050919050565b600080fd5b7f496e76616c6964204c322078446f6d61696e20466f727761726465722061646460008201527f7265737300000000000000000000000000000000000000000000000000000000602082015250565b7f496e76616c6964204c3220466c61677320616464726573730000000000000000600082015250565b7f496e76616c69642078446f6d61696e204d657373656e6765722061646472657360008201527f7300000000000000000000000000000000000000000000000000000000000000602082015250565b7f43616e6e6f7420736574206f776e657220746f207a65726f0000000000000000600082015250565b7f43616e6e6f74207472616e7366657220746f2073656c66000000000000000000600082015250565b620007d68162000679565b8114620007e257600080fd5b50565b60805160601c60a05160601c60c05160601c6114f1620008336000396000818161036801526109030152600081816108300152610b3f0152600081816103070152610b0301526114f16000f3fe608060405234801561001057600080fd5b50600436106100f55760003560e01c80638038e4a111610097578063a975f94211610066578063a975f94214610216578063beed9b5114610234578063dc7f012414610264578063f2fde38b14610282576100f5565b80638038e4a1146101b65780638823da6c146101c05780638da5cb5b146101dc578063a118f249146101fa576100f5565b80632b62c33a116100d35780632b62c33a1461014057806362353c471461015e5780636b14daf81461017c57806379ba5097146101ac576100f5565b80630a756983146100fa57806316be836c14610104578063181f5a7714610122575b600080fd5b61010261029e565b005b61010c610305565b6040516101199190611072565b60405180910390f35b61012a610329565b6040516101379190611116565b60405180910390f35b610148610366565b6040516101559190611072565b60405180910390f35b61016661038a565b6040516101739190611072565b60405180910390f35b61019660048036038101906101919190610e84565b6103c3565b6040516101a391906110fb565b60405180910390f35b6101b4610432565b005b6101be6105c7565b005b6101da60048036038101906101d59190610e57565b61062c565b005b6101e4610719565b6040516101f19190611072565b60405180910390f35b610214600480360381019061020f9190610e57565b610742565b005b61021e61082e565b60405161022b9190611072565b60405180910390f35b61024e60048036038101906102499190610ee0565b610852565b60405161025b91906110fb565b60405180910390f35b61026c610bc4565b60405161027991906110fb565b60405180910390f35b61029c60048036038101906102979190610e57565b610bd7565b005b6102a6610beb565b600160149054906101000a900460ff1615610303576000600160146101000a81548160ff0219169083151502179055507f3be8a977a014527b50ae38adda80b56911c267328965c98ddc385d248f53963860405160405180910390a15b565b7f000000000000000000000000000000000000000000000000000000000000000081565b60606040518060400160405280601781526020017f4f7074696d69736d56616c696461746f7220302e312e30000000000000000000815250905090565b7f000000000000000000000000000000000000000000000000000000000000000081565b60017f6101bcde09d322cf8ae794576755b23289be35b52f55509f46bb490d6d29c3b060001c6103ba9190611246565b60001b60601c81565b6000600260008473ffffffffffffffffffffffffffffffffffffffff1673ffffffffffffffffffffffffffffffffffffffff16815260200190815260200160002060009054906101000a900460ff168061042a5750600160149054906101000a900460ff16155b905092915050565b600160009054906101000a900473ffffffffffffffffffffffffffffffffffffffff1673ffffffffffffffffffffffffffffffffffffffff163373ffffffffffffffffffffffffffffffffffffffff16146104c2576040517f08c379a00000000000000000000000000000000000000000000000000000000081526004016104b990611138565b60405180910390fd5b60008060009054906101000a900473ffffffffffffffffffffffffffffffffffffffff169050336000806101000a81548173ffffffffffffffffffffffffffffffffffffffff021916908373ffffffffffffffffffffffffffffffffffffffff1602179055506000600160006101000a81548173ffffffffffffffffffffffffffffffffffffffff021916908373ffffffffffffffffffffffffffffffffffffffff1602179055503373ffffffffffffffffffffffffffffffffffffffff168173ffffffffffffffffffffffffffffffffffffffff167f8be0079c531659141344cd1fd0a4f28419497f9722a3daafe3b4186f6b6457e060405160405180910390a350565b6105cf610beb565b600160149054906101000a900460ff1661062a5760018060146101000a81548160ff0219169083151502179055507faebf329500988c6488a0074e5a0a9ff304561fc5c6fc877aeb1d59c8282c348060405160405180910390a15b565b610634610beb565b600260008273ffffffffffffffffffffffffffffffffffffffff1673ffffffffffffffffffffffffffffffffffffffff16815260200190815260200160002060009054906101000a900460ff1615610716576000600260008373ffffffffffffffffffffffffffffffffffffffff1673ffffffffffffffffffffffffffffffffffffffff16815260200190815260200160002060006101000a81548160ff0219169083151502179055507f3d68a6fce901d20453d1a7aa06bf3950302a735948037deb182a8db66df2a0d18160405161070d9190611072565b60405180910390a15b50565b60008060009054906101000a900473ffffffffffffffffffffffffffffffffffffffff16905090565b61074a610beb565b600260008273ffffffffffffffffffffffffffffffffffffffff1673ffffffffffffffffffffffffffffffffffffffff16815260200190815260200160002060009054906101000a900460ff1661082b576001600260008373ffffffffffffffffffffffffffffffffffffffff1673ffffffffffffffffffffffffffffffffffffffff16815260200190815260200160002060006101000a81548160ff0219169083151502179055507f87286ad1f399c8e82bf0c4ef4fcdc570ea2e1e92176e5c848b6413545b885db4816040516108229190611072565b60405180910390a15b50565b7f000000000000000000000000000000000000000000000000000000000000000081565b60006108a3336000368080601f016020809104026020016040519081016040528093929190818152602001838380828437600081840152601f19601f820116905080830192505050505050506103c3565b6108e2576040517f08c379a00000000000000000000000000000000000000000000000000000000081526004016108d990611178565b60405180910390fd5b818414156108f35760019050610bbc565b6000636fadcf7260e01b905060007f000000000000000000000000000000000000000000000000000000000000000090506000600185146109de5763e37a836660e01b60017f6101bcde09d322cf8ae794576755b23289be35b52f55509f46bb490d6d29c3b060001c6109669190611246565b60001b60601c60405160240161097c9190611072565b604051602081830303815290604052907bffffffffffffffffffffffffffffffffffffffffffffffffffffffff19166020820180517bffffffffffffffffffffffffffffffffffffffffffffffffffffffff8381831617835250505050610a8a565b63d74af26360e01b60017f6101bcde09d322cf8ae794576755b23289be35b52f55509f46bb490d6d29c3b060001c610a169190611246565b60001b60601c604051602401610a2c9190611072565b604051602081830303815290604052907bffffffffffffffffffffffffffffffffffffffffffffffffffffffff19166020820180517bffffffffffffffffffffffffffffffffffffffffffffffffffffffff83818316178352505050505b90506000838383604051602401610aa292919061108d565b604051602081830303815290604052907bffffffffffffffffffffffffffffffffffffffffffffffffffffffff19166020820180517bffffffffffffffffffffffffffffffffffffffffffffffffffffffff838183161783525050505090507f000000000000000000000000000000000000000000000000000000000000000073ffffffffffffffffffffffffffffffffffffffff16633dbb202b7f00000000000000000000000000000000000000000000000000000000000000008362124f806040518463ffffffff1660e01b8152600401610b81939291906110bd565b600060405180830381600087803b158015610b9b57600080fd5b505af1158015610baf573d6000803e3d6000fd5b5050505060019450505050505b949350505050565b600160149054906101000a900460ff1681565b610bdf610beb565b610be881610c7b565b50565b60008054906101000a900473ffffffffffffffffffffffffffffffffffffffff1673ffffffffffffffffffffffffffffffffffffffff163373ffffffffffffffffffffffffffffffffffffffff1614610c79576040517f08c379a0000000000000000000000000000000000000000000000000000000008152600401610c7090611158565b60405180910390fd5b565b3373ffffffffffffffffffffffffffffffffffffffff168173ffffffffffffffffffffffffffffffffffffffff161415610cea576040517f08c379a0000000000000000000000000000000000000000000000000000000008152600401610ce190611198565b60405180910390fd5b80600160006101000a81548173ffffffffffffffffffffffffffffffffffffffff021916908373ffffffffffffffffffffffffffffffffffffffff1602179055508073ffffffffffffffffffffffffffffffffffffffff1660008054906101000a900473ffffffffffffffffffffffffffffffffffffffff1673ffffffffffffffffffffffffffffffffffffffff167fed8889f560326eb138920d842192f0eb3dd22b4f139c87a2c57538e05bae127860405160405180910390a350565b6000610dbb610db6846111dd565b6111b8565b905082815260208101848484011115610dd757610dd66113b2565b5b610de28482856112dc565b509392505050565b600081359050610df981611476565b92915050565b600082601f830112610e1457610e136113ad565b5b8135610e24848260208601610da8565b91505092915050565b600081359050610e3c8161148d565b92915050565b600081359050610e51816114a4565b92915050565b600060208284031215610e6d57610e6c6113bc565b5b6000610e7b84828501610dea565b91505092915050565b60008060408385031215610e9b57610e9a6113bc565b5b6000610ea985828601610dea565b925050602083013567ffffffffffffffff811115610eca57610ec96113b7565b5b610ed685828601610dff565b9150509250929050565b60008060008060808587031215610efa57610ef96113bc565b5b6000610f0887828801610e42565b9450506020610f1987828801610e2d565b9350506040610f2a87828801610e42565b9250506060610f3b87828801610e2d565b91505092959194509250565b610f508161127a565b82525050565b610f5f8161128c565b82525050565b6000610f708261120e565b610f7a8185611224565b9350610f8a8185602086016112eb565b610f93816113c1565b840191505092915050565b6000610fa982611219565b610fb38185611235565b9350610fc38185602086016112eb565b610fcc816113c1565b840191505092915050565b6000610fe4601683611235565b9150610fef826113d2565b602082019050919050565b6000611007601683611235565b9150611012826113fb565b602082019050919050565b600061102a600983611235565b915061103582611424565b602082019050919050565b600061104d601783611235565b91506110588261144d565b602082019050919050565b61106c816112cc565b82525050565b60006020820190506110876000830184610f47565b92915050565b60006040820190506110a26000830185610f47565b81810360208301526110b48184610f65565b90509392505050565b60006060820190506110d26000830186610f47565b81810360208301526110e48185610f65565b90506110f36040830184611063565b949350505050565b60006020820190506111106000830184610f56565b92915050565b600060208201905081810360008301526111308184610f9e565b905092915050565b6000602082019050818103600083015261115181610fd7565b9050919050565b6000602082019050818103600083015261117181610ffa565b9050919050565b600060208201905081810360008301526111918161101d565b9050919050565b600060208201905081810360008301526111b181611040565b9050919050565b60006111c26111d3565b90506111ce828261131e565b919050565b6000604051905090565b600067ffffffffffffffff8211156111f8576111f761137e565b5b611201826113c1565b9050602081019050919050565b600081519050919050565b600081519050919050565b600082825260208201905092915050565b600082825260208201905092915050565b6000611251826112c2565b915061125c836112c2565b92508282101561126f5761126e61134f565b5b828203905092915050565b6000611285826112a2565b9050919050565b60008115159050919050565b6000819050919050565b600073ffffffffffffffffffffffffffffffffffffffff82169050919050565b6000819050919050565b600063ffffffff82169050919050565b82818337600083830152505050565b60005b838110156113095780820151818401526020810190506112ee565b83811115611318576000848401525b50505050565b611327826113c1565b810181811067ffffffffffffffff821117156113465761134561137e565b5b80604052505050565b7f4e487b7100000000000000000000000000000000000000000000000000000000600052601160045260246000fd5b7f4e487b7100000000000000000000000000000000000000000000000000000000600052604160045260246000fd5b600080fd5b600080fd5b600080fd5b600080fd5b6000601f19601f8301169050919050565b7f4d7573742062652070726f706f736564206f776e657200000000000000000000600082015250565b7f4f6e6c792063616c6c61626c65206279206f776e657200000000000000000000600082015250565b7f4e6f206163636573730000000000000000000000000000000000000000000000600082015250565b7f43616e6e6f74207472616e7366657220746f2073656c66000000000000000000600082015250565b61147f8161127a565b811461148a57600080fd5b50565b61149681611298565b81146114a157600080fd5b50565b6114ad816112c2565b81146114b857600080fd5b5056fea26469706673582212203dea1b1595c58fa4b3b286e9ff3629bdb5ef27a91e60d3ac4fb1bc718c5ac1bd64736f6c63430008060033",
  "linkReferences": {},
  "deployedLinkReferences": {}
}