{
  "_format": "hh-sol-artifact-1",
  "contractName": "KeeperCompatibleTestHelper",
  "sourceName": "contracts/chainlink/v0.8/tests/KeeperCompatibleTestHelper.sol",
  "abi": [
    {
      "inputs": [],
      "name": "OnlySimulatedBackend",
      "type": "error"
    },
    {
      "inputs": [
        {
          "internalType": "bytes",
          "name": "",
          "type": "bytes"
        }
      ],
      "name": "checkUpkeep",
      "outputs": [
        {
          "internalType": "bool",
          "name": "",
          "type": "bool"
        },
        {
          "internalType": "bytes",
          "name": "",
          "type": "bytes"
        }
      ],
      "stateMutability": "nonpayable",
      "type": "function"
    },
    {
      "inputs": [
        {
          "internalType": "bytes",
          "name": "",
          "type": "bytes"
        }
      ],
      "name": "performUpkeep",
      "outputs": [],
      "stateMutability": "nonpayable",
      "type": "function"
    },
    {
      "inputs": [],
      "name": "testCannotExecute",
      "outputs": [],
      "stateMutability": "view",
      "type": "function"
    }
  ],
  "bytecode": "0x608060405234801561001057600080fd5b506102f4806100206000396000f3fe608060405234801561001057600080fd5b50600436106100415760003560e01c80632e825c86146100465780634585e33b146100505780636e04ff0d1461006c575b600080fd5b61004e61009d565b005b61006a60048036038101906100659190610174565b6100a7565b005b61008660048036038101906100819190610174565b6100ab565b604051610094929190610209565b60405180910390f35b6100a56100b6565b565b5050565b600060609250929050565b600073ffffffffffffffffffffffffffffffffffffffff163273ffffffffffffffffffffffffffffffffffffffff161461011c576040517fb60ac5db00000000000000000000000000000000000000000000000000000000815260040160405180910390fd5b565b60008083601f84011261013457610133610299565b5b8235905067ffffffffffffffff81111561015157610150610294565b5b60208301915083600182028301111561016d5761016c61029e565b5b9250929050565b6000806020838503121561018b5761018a6102a8565b5b600083013567ffffffffffffffff8111156101a9576101a86102a3565b5b6101b58582860161011e565b92509250509250929050565b6101ca81610255565b82525050565b60006101db82610239565b6101e58185610244565b93506101f5818560208601610261565b6101fe816102ad565b840191505092915050565b600060408201905061021e60008301856101c1565b818103602083015261023081846101d0565b90509392505050565b600081519050919050565b600082825260208201905092915050565b60008115159050919050565b60005b8381101561027f578082015181840152602081019050610264565b8381111561028e576000848401525b50505050565b600080fd5b600080fd5b600080fd5b600080fd5b600080fd5b6000601f19601f830116905091905056fea2646970667358221220eebe5ccf074595435c1ff3713092b200558d10d09c108a5d75de5eda8a2cf4ac64736f6c63430008060033",
  "linkReferences": {},
  "deployedLinkReferences": {}
}