{
  "_format": "hh-sol-artifact-1",
  "contractName": "ArbitrumValidator",
  "sourceName": "contracts/chainlink/v0.8/dev/ArbitrumValidator.sol",
  "abi": [
    {
      "inputs": [
        {
          "internalType": "address",
          "name": "crossDomainMessengerAddr",
          "type": "address"
        },
        {
          "internalType": "address",
          "name": "l2ArbitrumSequencerUptimeFeedAddr",
          "type": "address"
        },
        {
          "internalType": "address",
          "name": "configACAddr",
          "type": "address"
        },
        {
          "internalType": "uint256",
          "name": "maxGas",
          "type": "uint256"
        },
        {
          "internalType": "uint256",
          "name": "gasPriceBid",
          "type": "uint256"
        },
        {
          "internalType": "address",
          "name": "gasPriceL1FeedAddr",
          "type": "address"
        },
        {
          "internalType": "enum ArbitrumValidator.PaymentStrategy",
          "name": "paymentStrategy",
          "type": "uint8"
        }
      ],
      "stateMutability": "nonpayable",
      "type": "constructor"
    },
    {
      "anonymous": false,
      "inputs": [
        {
          "indexed": false,
          "internalType": "address",
          "name": "user",
          "type": "address"
        }
      ],
      "name": "AddedAccess",
      "type": "event"
    },
    {
      "anonymous": false,
      "inputs": [],
      "name": "CheckAccessDisabled",
      "type": "event"
    },
    {
      "anonymous": false,
      "inputs": [],
      "name": "CheckAccessEnabled",
      "type": "event"
    },
    {
      "anonymous": false,
      "inputs": [
        {
          "indexed": true,
          "internalType": "address",
          "name": "previous",
          "type": "address"
        },
        {
          "indexed": true,
          "internalType": "address",
          "name": "current",
          "type": "address"
        }
      ],
      "name": "ConfigACSet",
      "type": "event"
    },
    {
      "anonymous": false,
      "inputs": [
        {
          "indexed": false,
          "internalType": "uint256",
          "name": "maxGas",
          "type": "uint256"
        },
        {
          "indexed": false,
          "internalType": "uint256",
          "name": "gasPriceBid",
          "type": "uint256"
        },
        {
          "indexed": true,
          "internalType": "address",
          "name": "gasPriceL1FeedAddr",
          "type": "address"
        }
      ],
      "name": "GasConfigSet",
      "type": "event"
    },
    {
      "anonymous": false,
      "inputs": [
        {
          "indexed": true,
          "internalType": "uint256",
          "name": "id",
          "type": "uint256"
        },
        {
          "indexed": false,
          "internalType": "uint256",
          "name": "amount",
          "type": "uint256"
        },
        {
          "indexed": true,
          "internalType": "address",
          "name": "refundAddr",
          "type": "address"
        }
      ],
      "name": "L2WithdrawalRequested",
      "type": "event"
    },
    {
      "anonymous": false,
      "inputs": [
        {
          "indexed": true,
          "internalType": "address",
          "name": "from",
          "type": "address"
        },
        {
          "indexed": true,
          "internalType": "address",
          "name": "to",
          "type": "address"
        }
      ],
      "name": "OwnershipTransferRequested",
      "type": "event"
    },
    {
      "anonymous": false,
      "inputs": [
        {
          "indexed": true,
          "internalType": "address",
          "name": "from",
          "type": "address"
        },
        {
          "indexed": true,
          "internalType": "address",
          "name": "to",
          "type": "address"
        }
      ],
      "name": "OwnershipTransferred",
      "type": "event"
    },
    {
      "anonymous": false,
      "inputs": [
        {
          "indexed": true,
          "internalType": "enum ArbitrumValidator.PaymentStrategy",
          "name": "paymentStrategy",
          "type": "uint8"
        }
      ],
      "name": "PaymentStrategySet",
      "type": "event"
    },
    {
      "anonymous": false,
      "inputs": [
        {
          "indexed": false,
          "internalType": "address",
          "name": "user",
          "type": "address"
        }
      ],
      "name": "RemovedAccess",
      "type": "event"
    },
    {
      "inputs": [],
      "name": "CROSS_DOMAIN_MESSENGER",
      "outputs": [
        {
          "internalType": "address",
          "name": "",
          "type": "address"
        }
      ],
      "stateMutability": "view",
      "type": "function"
    },
    {
      "inputs": [],
      "name": "L2_ALIAS",
      "outputs": [
        {
          "internalType": "address",
          "name": "",
          "type": "address"
        }
      ],
      "stateMutability": "view",
      "type": "function"
    },
    {
      "inputs": [],
      "name": "L2_SEQ_STATUS_RECORDER",
      "outputs": [
        {
          "internalType": "address",
          "name": "",
          "type": "address"
        }
      ],
      "stateMutability": "view",
      "type": "function"
    },
    {
      "inputs": [],
      "name": "acceptOwnership",
      "outputs": [],
      "stateMutability": "nonpayable",
      "type": "function"
    },
    {
      "inputs": [
        {
          "internalType": "address",
          "name": "_user",
          "type": "address"
        }
      ],
      "name": "addAccess",
      "outputs": [],
      "stateMutability": "nonpayable",
      "type": "function"
    },
    {
      "inputs": [],
      "name": "checkEnabled",
      "outputs": [
        {
          "internalType": "bool",
          "name": "",
          "type": "bool"
        }
      ],
      "stateMutability": "view",
      "type": "function"
    },
    {
      "inputs": [],
      "name": "configAC",
      "outputs": [
        {
          "internalType": "address",
          "name": "",
          "type": "address"
        }
      ],
      "stateMutability": "view",
      "type": "function"
    },
    {
      "inputs": [],
      "name": "disableAccessCheck",
      "outputs": [],
      "stateMutability": "nonpayable",
      "type": "function"
    },
    {
      "inputs": [],
      "name": "enableAccessCheck",
      "outputs": [],
      "stateMutability": "nonpayable",
      "type": "function"
    },
    {
      "inputs": [],
      "name": "gasConfig",
      "outputs": [
        {
          "components": [
            {
              "internalType": "uint256",
              "name": "maxGas",
              "type": "uint256"
            },
            {
              "internalType": "uint256",
              "name": "gasPriceBid",
              "type": "uint256"
            },
            {
              "internalType": "address",
              "name": "gasPriceL1FeedAddr",
              "type": "address"
            }
          ],
          "internalType": "struct ArbitrumValidator.GasConfig",
          "name": "",
          "type": "tuple"
        }
      ],
      "stateMutability": "view",
      "type": "function"
    },
    {
      "inputs": [
        {
          "internalType": "address",
          "name": "_user",
          "type": "address"
        },
        {
          "internalType": "bytes",
          "name": "",
          "type": "bytes"
        }
      ],
      "name": "hasAccess",
      "outputs": [
        {
          "internalType": "bool",
          "name": "",
          "type": "bool"
        }
      ],
      "stateMutability": "view",
      "type": "function"
    },
    {
      "inputs": [],
      "name": "owner",
      "outputs": [
        {
          "internalType": "address",
          "name": "",
          "type": "address"
        }
      ],
      "stateMutability": "view",
      "type": "function"
    },
    {
      "inputs": [],
      "name": "paymentStrategy",
      "outputs": [
        {
          "internalType": "enum ArbitrumValidator.PaymentStrategy",
          "name": "",
          "type": "uint8"
        }
      ],
      "stateMutability": "view",
      "type": "function"
    },
    {
      "inputs": [
        {
          "internalType": "address",
          "name": "_user",
          "type": "address"
        }
      ],
      "name": "removeAccess",
      "outputs": [],
      "stateMutability": "nonpayable",
      "type": "function"
    },
    {
      "inputs": [
        {
          "internalType": "address",
          "name": "accessController",
          "type": "address"
        }
      ],
      "name": "setConfigAC",
      "outputs": [],
      "stateMutability": "nonpayable",
      "type": "function"
    },
    {
      "inputs": [
        {
          "internalType": "uint256",
          "name": "maxGas",
          "type": "uint256"
        },
        {
          "internalType": "uint256",
          "name": "gasPriceBid",
          "type": "uint256"
        },
        {
          "internalType": "address",
          "name": "gasPriceL1FeedAddr",
          "type": "address"
        }
      ],
      "name": "setGasConfig",
      "outputs": [],
      "stateMutability": "nonpayable",
      "type": "function"
    },
    {
      "inputs": [
        {
          "internalType": "enum ArbitrumValidator.PaymentStrategy",
          "name": "paymentStrategy",
          "type": "uint8"
        }
      ],
      "name": "setPaymentStrategy",
      "outputs": [],
      "stateMutability": "nonpayable",
      "type": "function"
    },
    {
      "inputs": [
        {
          "internalType": "address",
          "name": "to",
          "type": "address"
        }
      ],
      "name": "transferOwnership",
      "outputs": [],
      "stateMutability": "nonpayable",
      "type": "function"
    },
    {
      "inputs": [],
      "name": "typeAndVersion",
      "outputs": [
        {
          "internalType": "string",
          "name": "",
          "type": "string"
        }
      ],
      "stateMutability": "pure",
      "type": "function"
    },
    {
      "inputs": [
        {
          "internalType": "uint256",
          "name": "",
          "type": "uint256"
        },
        {
          "internalType": "int256",
          "name": "previousAnswer",
          "type": "int256"
        },
        {
          "internalType": "uint256",
          "name": "",
          "type": "uint256"
        },
        {
          "internalType": "int256",
          "name": "currentAnswer",
          "type": "int256"
        }
      ],
      "name": "validate",
      "outputs": [
        {
          "internalType": "bool",
          "name": "",
          "type": "bool"
        }
      ],
      "stateMutability": "nonpayable",
      "type": "function"
    },
    {
      "inputs": [],
      "name": "withdrawFunds",
      "outputs": [],
      "stateMutability": "nonpayable",
      "type": "function"
    },
    {
      "inputs": [
        {
          "internalType": "uint256",
          "name": "amount",
          "type": "uint256"
        },
        {
          "internalType": "address",
          "name": "refundAddr",
          "type": "address"
        }
      ],
      "name": "withdrawFundsFromL2",
      "outputs": [
        {
          "internalType": "uint256",
          "name": "id",
          "type": "uint256"
        }
      ],
      "stateMutability": "nonpayable",
      "type": "function"
    },
    {
      "inputs": [
        {
          "internalType": "address payable",
          "name": "recipient",
          "type": "address"
        }
      ],
      "name": "withdrawFundsTo",
      "outputs": [],
      "stateMutability": "nonpayable",
      "type": "function"
    },
    {
      "stateMutability": "payable",
      "type": "receive"
    }
  ],
  "bytecode": "0x60e06040526200001a306200033260201b620013aa1760201c565b73ffffffffffffffffffffffffffffffffffffffff1660c09073ffffffffffffffffffffffffffffffffffffffff1660601b8152503480156200005c57600080fd5b50604051620038f2380380620038f283398181016040528101906200008291906200081b565b338060008073ffffffffffffffffffffffffffffffffffffffff168273ffffffffffffffffffffffffffffffffffffffff161415620000f8576040517f08c379a0000000000000000000000000000000000000000000000000000000008152600401620000ef9062000a56565b60405180910390fd5b816000806101000a81548173ffffffffffffffffffffffffffffffffffffffff021916908373ffffffffffffffffffffffffffffffffffffffff160217905550600073ffffffffffffffffffffffffffffffffffffffff168173ffffffffffffffffffffffffffffffffffffffff16146200017f576200017e816200035260201b60201c565b5b50505060018060146101000a81548160ff021916908315150217905550600073ffffffffffffffffffffffffffffffffffffffff168773ffffffffffffffffffffffffffffffffffffffff1614156200020f576040517f08c379a00000000000000000000000000000000000000000000000000000000081526004016200020690620009f0565b60405180910390fd5b600073ffffffffffffffffffffffffffffffffffffffff168673ffffffffffffffffffffffffffffffffffffffff16141562000282576040517f08c379a0000000000000000000000000000000000000000000000000000000008152600401620002799062000a34565b60405180910390fd5b8673ffffffffffffffffffffffffffffffffffffffff1660808173ffffffffffffffffffffffffffffffffffffffff1660601b815250508573ffffffffffffffffffffffffffffffffffffffff1660a08173ffffffffffffffffffffffffffffffffffffffff1660601b8152505062000301856200048260201b60201c565b620003148484846200057d60201b60201c565b62000325816200076460201b60201c565b5050505050505062000d64565b600073111100000000000000000000000000000000111182019050919050565b3373ffffffffffffffffffffffffffffffffffffffff168173ffffffffffffffffffffffffffffffffffffffff161415620003c4576040517f08c379a0000000000000000000000000000000000000000000000000000000008152600401620003bb9062000a9a565b60405180910390fd5b80600160006101000a81548173ffffffffffffffffffffffffffffffffffffffff021916908373ffffffffffffffffffffffffffffffffffffffff1602179055508073ffffffffffffffffffffffffffffffffffffffff1660008054906101000a900473ffffffffffffffffffffffffffffffffffffffff1673ffffffffffffffffffffffffffffffffffffffff167fed8889f560326eb138920d842192f0eb3dd22b4f139c87a2c57538e05bae127860405160405180910390a350565b6000600760009054906101000a900473ffffffffffffffffffffffffffffffffffffffff1690508073ffffffffffffffffffffffffffffffffffffffff168273ffffffffffffffffffffffffffffffffffffffff1614620005795781600760006101000a81548173ffffffffffffffffffffffffffffffffffffffff021916908373ffffffffffffffffffffffffffffffffffffffff1602179055508173ffffffffffffffffffffffffffffffffffffffff168173ffffffffffffffffffffffffffffffffffffffff167f6b0ce63879b19fa36f93da30a36f44140d8c3c727b6c75a16165c2017037d2cc60405160405180910390a35b5050565b60008311620005c3576040517f08c379a0000000000000000000000000000000000000000000000000000000008152600401620005ba9062000a78565b60405180910390fd5b6000821162000609576040517f08c379a0000000000000000000000000000000000000000000000000000000008152600401620006009062000abc565b60405180910390fd5b600073ffffffffffffffffffffffffffffffffffffffff168173ffffffffffffffffffffffffffffffffffffffff1614156200067c576040517f08c379a0000000000000000000000000000000000000000000000000000000008152600401620006739062000a12565b60405180910390fd5b60405180606001604052808481526020018381526020018273ffffffffffffffffffffffffffffffffffffffff168152506004600082015181600001556020820151816001015560408201518160020160006101000a81548173ffffffffffffffffffffffffffffffffffffffff021916908373ffffffffffffffffffffffffffffffffffffffff1602179055509050508073ffffffffffffffffffffffffffffffffffffffff167f35674f8e28e701bef8f072d1034d588998f6966a59806b4299f6749c86b269e384846040516200075792919062000ade565b60405180910390a2505050565b80600360006101000a81548160ff021916908360018111156200078c576200078b62000b5a565b5b0217905550806001811115620007a757620007a662000b5a565b5b7fcc19f6868f2a8f851b1b59973487a53f0ac827f88698345b1529ef7c77b22bb560405160405180910390a250565b600081519050620007e78162000d1f565b92915050565b600081519050620007fe8162000d39565b92915050565b600081519050620008158162000d4a565b92915050565b600080600080600080600060e0888a0312156200083d576200083c62000b89565b5b60006200084d8a828b01620007d6565b9750506020620008608a828b01620007d6565b9650506040620008738a828b01620007d6565b9550506060620008868a828b0162000804565b9450506080620008998a828b0162000804565b93505060a0620008ac8a828b01620007d6565b92505060c0620008bf8a828b01620007ed565b91505092959891949750929550565b6000620008dd60218362000b0b565b9150620008ea8262000b8e565b604082019050919050565b60006200090460248362000b0b565b9150620009118262000bdd565b604082019050919050565b60006200092b60348362000b0b565b9150620009388262000c2c565b604082019050919050565b60006200095260188362000b0b565b91506200095f8262000c7b565b602082019050919050565b600062000979600f8362000b0b565b9150620009868262000ca4565b602082019050919050565b6000620009a060178362000b0b565b9150620009ad8262000ccd565b602082019050919050565b6000620009c760158362000b0b565b9150620009d48262000cf6565b602082019050919050565b620009ea8162000b50565b82525050565b6000602082019050818103600083015262000a0b81620008ce565b9050919050565b6000602082019050818103600083015262000a2d81620008f5565b9050919050565b6000602082019050818103600083015262000a4f816200091c565b9050919050565b6000602082019050818103600083015262000a718162000943565b9050919050565b6000602082019050818103600083015262000a93816200096a565b9050919050565b6000602082019050818103600083015262000ab58162000991565b9050919050565b6000602082019050818103600083015262000ad781620009b8565b9050919050565b600060408201905062000af56000830185620009df565b62000b046020830184620009df565b9392505050565b600082825260208201905092915050565b600062000b298262000b30565b9050919050565b600073ffffffffffffffffffffffffffffffffffffffff82169050919050565b6000819050919050565b7f4e487b7100000000000000000000000000000000000000000000000000000000600052602160045260246000fd5b600080fd5b7f496e76616c69642078446f6d61696e204d657373656e6765722061646472657360008201527f7300000000000000000000000000000000000000000000000000000000000000602082015250565b7f4761732070726963652041676772656761746f72206973207a65726f2061646460008201527f7265737300000000000000000000000000000000000000000000000000000000602082015250565b7f496e76616c696420417262697472756d53657175656e636572557074696d654660008201527f65656420636f6e74726163742061646472657373000000000000000000000000602082015250565b7f43616e6e6f7420736574206f776e657220746f207a65726f0000000000000000600082015250565b7f4d617820676173206973207a65726f0000000000000000000000000000000000600082015250565b7f43616e6e6f74207472616e7366657220746f2073656c66000000000000000000600082015250565b7f47617320707269636520626964206973207a65726f0000000000000000000000600082015250565b62000d2a8162000b1c565b811462000d3657600080fd5b50565b6002811062000d4757600080fd5b50565b62000d558162000b50565b811462000d6157600080fd5b50565b60805160601c60a05160601c60c05160601c612b3962000db96000396000818161062d015261114b0152600081816112ac015261136101526000818161058201528181610746015261126f0152612b396000f3fe6080604052600436106101445760003560e01c80636b14daf8116100b6578063a118f2491161006f578063a118f249146103f7578063a2e6e0eb14610420578063beed9b5114610449578063bfb9d1ab14610486578063dc7f0124146104b1578063f2fde38b146104dc5761014b565b80636b14daf81461030f57806379ba50971461034c5780638038e4a1146103635780638823da6c1461037a5780638a67ad0f146103a35780638da5cb5b146103cc5761014b565b8063276bf08f11610108578063276bf08f146101fd5780633e48f0151461022857806344c2fa0c14610253578063490a4432146102905780635def6ea7146102bb5780635e521eca146102e45761014b565b806302163e6c146101505780630a7569831461017957806316be836c14610190578063181f5a77146101bb57806324600fc3146101e65761014b565b3661014b57005b600080fd5b34801561015c57600080fd5b5061017760048036038101906101729190611c2d565b610505565b005b34801561018557600080fd5b5061018e610519565b005b34801561019c57600080fd5b506101a5610580565b6040516101b291906121ab565b60405180910390f35b3480156101c757600080fd5b506101d06105a4565b6040516101dd9190612361565b60405180910390f35b3480156101f257600080fd5b506101fb6105e1565b005b34801561020957600080fd5b50610212610601565b60405161021f91906121ab565b60405180910390f35b34801561023457600080fd5b5061023d61062b565b60405161024a91906121ab565b60405180910390f35b34801561025f57600080fd5b5061027a60048036038101906102759190611d6a565b61064f565b60405161028791906124be565b60405180910390f35b34801561029c57600080fd5b506102a561085b565b6040516102b291906124a3565b60405180910390f35b3480156102c757600080fd5b506102e260048036038101906102dd9190611e11565b6108df565b005b3480156102f057600080fd5b506102f9610a76565b6040516103069190612346565b60405180910390f35b34801561031b57600080fd5b5061033660048036038101906103319190611c87565b610a8d565b6040516103439190612302565b60405180910390f35b34801561035857600080fd5b50610361610afc565b005b34801561036f57600080fd5b50610378610c91565b005b34801561038657600080fd5b506103a1600480360381019061039c9190611c2d565b610cf6565b005b3480156103af57600080fd5b506103ca60048036038101906103c59190611d10565b610de3565b005b3480156103d857600080fd5b506103e1610f76565b6040516103ee91906121ab565b60405180910390f35b34801561040357600080fd5b5061041e60048036038101906104199190611c2d565b610f9f565b005b34801561042c57600080fd5b5061044760048036038101906104429190611c5a565b61108b565b005b34801561045557600080fd5b50610470600480360381019061046b9190611daa565b6110a6565b60405161047d9190612302565b60405180910390f35b34801561049257600080fd5b5061049b61135f565b6040516104a891906121ab565b60405180910390f35b3480156104bd57600080fd5b506104c6611383565b6040516104d39190612302565b60405180910390f35b3480156104e857600080fd5b5061050360048036038101906104fe9190611c2d565b611396565b005b61050d6113ca565b6105168161145a565b50565b6105216113ca565b600160149054906101000a900460ff161561057e576000600160146101000a81548160ff0219169083151502179055507f3be8a977a014527b50ae38adda80b56911c267328965c98ddc385d248f53963860405160405180910390a15b565b7f000000000000000000000000000000000000000000000000000000000000000081565b60606040518060400160405280601781526020017f417262697472756d56616c696461746f7220312e302e30000000000000000000815250905090565b6105e96113ca565b600033905060004790506105fd8282611554565b5050565b6000600760009054906101000a900473ffffffffffffffffffffffffffffffffffffffff16905090565b7f000000000000000000000000000000000000000000000000000000000000000081565b60006106596113ca565b60006325e1606360e01b3060405160240161067491906121ab565b604051602081830303815290604052907bffffffffffffffffffffffffffffffffffffffffffffffffffffffff19166020820180517bffffffffffffffffffffffffffffffffffffffffffffffffffffffff8381831617835250505050905060006106df8251611648565b905060006201d4c0905060006004600101549050600080600181111561070857610707612812565b5b600360009054906101000a900460ff16600181111561072a57610729612812565b5b14610736576000610742565b610741848484611732565b5b90507f000000000000000000000000000000000000000000000000000000000000000073ffffffffffffffffffffffffffffffffffffffff16631b871c8d8260648b888c8d8a8a8e6040518a63ffffffff1660e01b81526004016107ad98979695949392919061227d565b6020604051808303818588803b1580156107c657600080fd5b505af11580156107da573d6000803e3d6000fd5b50505050506040513d601f19601f820116820180604052508101906107ff9190611d3d565b95508673ffffffffffffffffffffffffffffffffffffffff16867f06f76b16d832d9e442e96306c36f3f2a819b64bd28441aa14fef67308a95c7168a60405161084891906124be565b60405180910390a3505050505092915050565b610863611ac9565b600460405180606001604052908160008201548152602001600182015481526020016002820160009054906101000a900473ffffffffffffffffffffffffffffffffffffffff1673ffffffffffffffffffffffffffffffffffffffff1673ffffffffffffffffffffffffffffffffffffffff1681525050905090565b6108e7610f76565b73ffffffffffffffffffffffffffffffffffffffff163373ffffffffffffffffffffffffffffffffffffffff161480610a275750600073ffffffffffffffffffffffffffffffffffffffff16600760009054906101000a900473ffffffffffffffffffffffffffffffffffffffff1673ffffffffffffffffffffffffffffffffffffffff1614158015610a265750600760009054906101000a900473ffffffffffffffffffffffffffffffffffffffff1673ffffffffffffffffffffffffffffffffffffffff16636b14daf8336000366040518463ffffffff1660e01b81526004016109d5939291906121c6565b60206040518083038186803b1580156109ed57600080fd5b505afa158015610a01573d6000803e3d6000fd5b505050506040513d601f19601f82011682018060405250810190610a259190611ce3565b5b5b610a66576040517f08c379a0000000000000000000000000000000000000000000000000000000008152600401610a5d90612423565b60405180910390fd5b610a71838383611754565b505050565b6000600360009054906101000a900460ff16905090565b6000600260008473ffffffffffffffffffffffffffffffffffffffff1673ffffffffffffffffffffffffffffffffffffffff16815260200190815260200160002060009054906101000a900460ff1680610af45750600160149054906101000a900460ff16155b905092915050565b600160009054906101000a900473ffffffffffffffffffffffffffffffffffffffff1673ffffffffffffffffffffffffffffffffffffffff163373ffffffffffffffffffffffffffffffffffffffff1614610b8c576040517f08c379a0000000000000000000000000000000000000000000000000000000008152600401610b8390612383565b60405180910390fd5b60008060009054906101000a900473ffffffffffffffffffffffffffffffffffffffff169050336000806101000a81548173ffffffffffffffffffffffffffffffffffffffff021916908373ffffffffffffffffffffffffffffffffffffffff1602179055506000600160006101000a81548173ffffffffffffffffffffffffffffffffffffffff021916908373ffffffffffffffffffffffffffffffffffffffff1602179055503373ffffffffffffffffffffffffffffffffffffffff168173ffffffffffffffffffffffffffffffffffffffff167f8be0079c531659141344cd1fd0a4f28419497f9722a3daafe3b4186f6b6457e060405160405180910390a350565b610c996113ca565b600160149054906101000a900460ff16610cf45760018060146101000a81548160ff0219169083151502179055507faebf329500988c6488a0074e5a0a9ff304561fc5c6fc877aeb1d59c8282c348060405160405180910390a15b565b610cfe6113ca565b600260008273ffffffffffffffffffffffffffffffffffffffff1673ffffffffffffffffffffffffffffffffffffffff16815260200190815260200160002060009054906101000a900460ff1615610de0576000600260008373ffffffffffffffffffffffffffffffffffffffff1673ffffffffffffffffffffffffffffffffffffffff16815260200190815260200160002060006101000a81548160ff0219169083151502179055507f3d68a6fce901d20453d1a7aa06bf3950302a735948037deb182a8db66df2a0d181604051610dd791906121ab565b60405180910390a15b50565b610deb610f76565b73ffffffffffffffffffffffffffffffffffffffff163373ffffffffffffffffffffffffffffffffffffffff161480610f2b5750600073ffffffffffffffffffffffffffffffffffffffff16600760009054906101000a900473ffffffffffffffffffffffffffffffffffffffff1673ffffffffffffffffffffffffffffffffffffffff1614158015610f2a5750600760009054906101000a900473ffffffffffffffffffffffffffffffffffffffff1673ffffffffffffffffffffffffffffffffffffffff16636b14daf8336000366040518463ffffffff1660e01b8152600401610ed9939291906121c6565b60206040518083038186803b158015610ef157600080fd5b505afa158015610f05573d6000803e3d6000fd5b505050506040513d601f19601f82011682018060405250810190610f299190611ce3565b5b5b610f6a576040517f08c379a0000000000000000000000000000000000000000000000000000000008152600401610f6190612423565b60405180910390fd5b610f7381611930565b50565b60008060009054906101000a900473ffffffffffffffffffffffffffffffffffffffff16905090565b610fa76113ca565b600260008273ffffffffffffffffffffffffffffffffffffffff1673ffffffffffffffffffffffffffffffffffffffff16815260200190815260200160002060009054906101000a900460ff16611088576001600260008373ffffffffffffffffffffffffffffffffffffffff1673ffffffffffffffffffffffffffffffffffffffff16815260200190815260200160002060006101000a81548160ff0219169083151502179055507f87286ad1f399c8e82bf0c4ef4fcdc570ea2e1e92176e5c848b6413545b885db48160405161107f91906121ab565b60405180910390a15b50565b6110936113ca565b60004790506110a28282611554565b5050565b60006110f7336000368080601f016020809104026020016040519081016040528093929190818152602001838380828437600081840152601f19601f82011690508083019250505050505050610a8d565b611136576040517f08c379a000000000000000000000000000000000000000000000000000000000815260040161112d90612423565b60405180910390fd5b818414156111475760019050611357565b60007f00000000000000000000000000000000000000000000000000000000000000009050600063ed8378f560e01b905060006001851490506000429050600083838360405160240161119b92919061231d565b604051602081830303815290604052907bffffffffffffffffffffffffffffffffffffffffffffffffffffffff19166020820180517bffffffffffffffffffffffffffffffffffffffffffffffffffffffff8381831617835250505050905060006112068251611648565b90506000600460000154905060006004600101549050600080600181111561123157611230612812565b5b600360009054906101000a900460ff16600181111561125357611252612812565b5b1461125f57600061126b565b61126a848484611732565b5b90507f000000000000000000000000000000000000000000000000000000000000000073ffffffffffffffffffffffffffffffffffffffff16631b871c8d827f00000000000000000000000000000000000000000000000000000000000000006000888e8f8a8a8e6040518a63ffffffff1660e01b81526004016112f69897969594939291906121f8565b6020604051808303818588803b15801561130f57600080fd5b505af1158015611323573d6000803e3d6000fd5b50505050506040513d601f19601f820116820180604052508101906113489190611d3d565b50600199505050505050505050505b949350505050565b7f000000000000000000000000000000000000000000000000000000000000000081565b600160149054906101000a900460ff1681565b61139e6113ca565b6113a78161199c565b50565b600073111100000000000000000000000000000000111182019050919050565b60008054906101000a900473ffffffffffffffffffffffffffffffffffffffff1673ffffffffffffffffffffffffffffffffffffffff163373ffffffffffffffffffffffffffffffffffffffff1614611458576040517f08c379a000000000000000000000000000000000000000000000000000000000815260040161144f906123a3565b60405180910390fd5b565b6000600760009054906101000a900473ffffffffffffffffffffffffffffffffffffffff1690508073ffffffffffffffffffffffffffffffffffffffff168273ffffffffffffffffffffffffffffffffffffffff16146115505781600760006101000a81548173ffffffffffffffffffffffffffffffffffffffff021916908373ffffffffffffffffffffffffffffffffffffffff1602179055508173ffffffffffffffffffffffffffffffffffffffff168173ffffffffffffffffffffffffffffffffffffffff167f6b0ce63879b19fa36f93da30a36f44140d8c3c727b6c75a16165c2017037d2cc60405160405180910390a35b5050565b80471015611597576040517f08c379a000000000000000000000000000000000000000000000000000000000815260040161158e90612403565b60405180910390fd5b60008273ffffffffffffffffffffffffffffffffffffffff16826040516115bd90612196565b60006040518083038185875af1925050503d80600081146115fa576040519150601f19603f3d011682016040523d82523d6000602084013e6115ff565b606091505b5050905080611643576040517f08c379a000000000000000000000000000000000000000000000000000000000815260040161163a906123e3565b60405180910390fd5b505050565b600080600460020160009054906101000a900473ffffffffffffffffffffffffffffffffffffffff1673ffffffffffffffffffffffffffffffffffffffff1663feaf968c6040518163ffffffff1660e01b815260040160a06040518083038186803b1580156116b657600080fd5b505afa1580156116ca573d6000803e3d6000fd5b505050506040513d601f19601f820116820180604052508101906116ee9190611e64565b50505091505060006003826117039190612622565b90508061010085836117159190612622565b61171f91906125f1565b611729919061259b565b92505050919050565b600081836117409190612622565b8461174b919061259b565b90509392505050565b60008311611797576040517f08c379a000000000000000000000000000000000000000000000000000000000815260040161178e90612443565b60405180910390fd5b600082116117da576040517f08c379a00000000000000000000000000000000000000000000000000000000081526004016117d190612483565b60405180910390fd5b600073ffffffffffffffffffffffffffffffffffffffff168173ffffffffffffffffffffffffffffffffffffffff16141561184a576040517f08c379a0000000000000000000000000000000000000000000000000000000008152600401611841906123c3565b60405180910390fd5b60405180606001604052808481526020018381526020018273ffffffffffffffffffffffffffffffffffffffff168152506004600082015181600001556020820151816001015560408201518160020160006101000a81548173ffffffffffffffffffffffffffffffffffffffff021916908373ffffffffffffffffffffffffffffffffffffffff1602179055509050508073ffffffffffffffffffffffffffffffffffffffff167f35674f8e28e701bef8f072d1034d588998f6966a59806b4299f6749c86b269e384846040516119239291906124d9565b60405180910390a2505050565b80600360006101000a81548160ff0219169083600181111561195557611954612812565b5b021790555080600181111561196d5761196c612812565b5b7fcc19f6868f2a8f851b1b59973487a53f0ac827f88698345b1529ef7c77b22bb560405160405180910390a250565b3373ffffffffffffffffffffffffffffffffffffffff168173ffffffffffffffffffffffffffffffffffffffff161415611a0b576040517f08c379a0000000000000000000000000000000000000000000000000000000008152600401611a0290612463565b60405180910390fd5b80600160006101000a81548173ffffffffffffffffffffffffffffffffffffffff021916908373ffffffffffffffffffffffffffffffffffffffff1602179055508073ffffffffffffffffffffffffffffffffffffffff1660008054906101000a900473ffffffffffffffffffffffffffffffffffffffff1673ffffffffffffffffffffffffffffffffffffffff167fed8889f560326eb138920d842192f0eb3dd22b4f139c87a2c57538e05bae127860405160405180910390a350565b60405180606001604052806000815260200160008152602001600073ffffffffffffffffffffffffffffffffffffffff1681525090565b6000611b13611b0e84612527565b612502565b905082815260208101848484011115611b2f57611b2e612875565b5b611b3a848285612741565b509392505050565b600081359050611b5181612a69565b92915050565b600081359050611b6681612a80565b92915050565b600081519050611b7b81612a97565b92915050565b600082601f830112611b9657611b95612870565b5b8135611ba6848260208601611b00565b91505092915050565b600081359050611bbe81612aae565b92915050565b600081359050611bd381612abe565b92915050565b600081519050611be881612abe565b92915050565b600081359050611bfd81612ad5565b92915050565b600081519050611c1281612ad5565b92915050565b600081519050611c2781612aec565b92915050565b600060208284031215611c4357611c4261287f565b5b6000611c5184828501611b42565b91505092915050565b600060208284031215611c7057611c6f61287f565b5b6000611c7e84828501611b57565b91505092915050565b60008060408385031215611c9e57611c9d61287f565b5b6000611cac85828601611b42565b925050602083013567ffffffffffffffff811115611ccd57611ccc61287a565b5b611cd985828601611b81565b9150509250929050565b600060208284031215611cf957611cf861287f565b5b6000611d0784828501611b6c565b91505092915050565b600060208284031215611d2657611d2561287f565b5b6000611d3484828501611baf565b91505092915050565b600060208284031215611d5357611d5261287f565b5b6000611d6184828501611c03565b91505092915050565b60008060408385031215611d8157611d8061287f565b5b6000611d8f85828601611bee565b9250506020611da085828601611b42565b9150509250929050565b60008060008060808587031215611dc457611dc361287f565b5b6000611dd287828801611bee565b9450506020611de387828801611bc4565b9350506040611df487828801611bee565b9250506060611e0587828801611bc4565b91505092959194509250565b600080600060608486031215611e2a57611e2961287f565b5b6000611e3886828701611bee565b9350506020611e4986828701611bee565b9250506040611e5a86828701611b42565b9150509250925092565b600080600080600060a08688031215611e8057611e7f61287f565b5b6000611e8e88828901611c18565b9550506020611e9f88828901611bd9565b9450506040611eb088828901611c03565b9350506060611ec188828901611c03565b9250506080611ed288828901611c18565b9150509295509295909350565b611ee88161267c565b82525050565b611ef78161267c565b82525050565b611f06816126a0565b82525050565b6000611f18838561256e565b9350611f25838584612741565b611f2e83612884565b840190509392505050565b6000611f4482612558565b611f4e818561256e565b9350611f5e818560208601612750565b611f6781612884565b840191505092915050565b611f7b8161271d565b82525050565b611f8a8161272f565b82525050565b6000611f9b82612563565b611fa5818561258a565b9350611fb5818560208601612750565b611fbe81612884565b840191505092915050565b6000611fd660168361258a565b9150611fe182612895565b602082019050919050565b6000611ff960168361258a565b9150612004826128be565b602082019050919050565b600061201c60248361258a565b9150612027826128e7565b604082019050919050565b600061203f603a8361258a565b915061204a82612936565b604082019050919050565b6000612062601d8361258a565b915061206d82612985565b602082019050919050565b600061208560098361258a565b9150612090826129ae565b602082019050919050565b60006120a8600f8361258a565b91506120b3826129d7565b602082019050919050565b60006120cb60008361257f565b91506120d682612a00565b600082019050919050565b60006120ee60178361258a565b91506120f982612a03565b602082019050919050565b600061211160158361258a565b915061211c82612a2c565b602082019050919050565b60608201600082015161213d6000850182612169565b5060208201516121506020850182612169565b5060408201516121636040850182611edf565b50505050565b612172816126e9565b82525050565b612181816126e9565b82525050565b612190816126f3565b82525050565b60006121a1826120be565b9150819050919050565b60006020820190506121c06000830184611eee565b92915050565b60006040820190506121db6000830186611eee565b81810360208301526121ee818486611f0c565b9050949350505050565b60006101008201905061220e600083018b611eee565b61221b602083018a611f81565b6122286040830189612178565b6122356060830188611eee565b6122426080830187611eee565b61224f60a0830186612178565b61225c60c0830185612178565b81810360e083015261226e8184611f39565b90509998505050505050505050565b600061010082019050612293600083018b611eee565b6122a0602083018a612178565b6122ad6040830189612178565b6122ba6060830188611eee565b6122c76080830187611eee565b6122d460a0830186612178565b6122e160c0830185612178565b81810360e08301526122f38184611f39565b90509998505050505050505050565b60006020820190506123176000830184611efd565b92915050565b60006040820190506123326000830185611efd565b61233f6020830184612187565b9392505050565b600060208201905061235b6000830184611f72565b92915050565b6000602082019050818103600083015261237b8184611f90565b905092915050565b6000602082019050818103600083015261239c81611fc9565b9050919050565b600060208201905081810360008301526123bc81611fec565b9050919050565b600060208201905081810360008301526123dc8161200f565b9050919050565b600060208201905081810360008301526123fc81612032565b9050919050565b6000602082019050818103600083015261241c81612055565b9050919050565b6000602082019050818103600083015261243c81612078565b9050919050565b6000602082019050818103600083015261245c8161209b565b9050919050565b6000602082019050818103600083015261247c816120e1565b9050919050565b6000602082019050818103600083015261249c81612104565b9050919050565b60006060820190506124b86000830184612127565b92915050565b60006020820190506124d36000830184612178565b92915050565b60006040820190506124ee6000830185612178565b6124fb6020830184612178565b9392505050565b600061250c61251d565b90506125188282612783565b919050565b6000604051905090565b600067ffffffffffffffff82111561254257612541612841565b5b61254b82612884565b9050602081019050919050565b600081519050919050565b600081519050919050565b600082825260208201905092915050565b600081905092915050565b600082825260208201905092915050565b60006125a6826126e9565b91506125b1836126e9565b9250827fffffffffffffffffffffffffffffffffffffffffffffffffffffffffffffffff038211156125e6576125e56127b4565b5b828201905092915050565b60006125fc826126e9565b9150612607836126e9565b925082612617576126166127e3565b5b828204905092915050565b600061262d826126e9565b9150612638836126e9565b9250817fffffffffffffffffffffffffffffffffffffffffffffffffffffffffffffffff0483118215151615612671576126706127b4565b5b828202905092915050565b6000612687826126c9565b9050919050565b6000612699826126c9565b9050919050565b60008115159050919050565b60008190506126ba82612a55565b919050565b6000819050919050565b600073ffffffffffffffffffffffffffffffffffffffff82169050919050565b6000819050919050565b600067ffffffffffffffff82169050919050565b600069ffffffffffffffffffff82169050919050565b6000612728826126ac565b9050919050565b600061273a826126e9565b9050919050565b82818337600083830152505050565b60005b8381101561276e578082015181840152602081019050612753565b8381111561277d576000848401525b50505050565b61278c82612884565b810181811067ffffffffffffffff821117156127ab576127aa612841565b5b80604052505050565b7f4e487b7100000000000000000000000000000000000000000000000000000000600052601160045260246000fd5b7f4e487b7100000000000000000000000000000000000000000000000000000000600052601260045260246000fd5b7f4e487b7100000000000000000000000000000000000000000000000000000000600052602160045260246000fd5b7f4e487b7100000000000000000000000000000000000000000000000000000000600052604160045260246000fd5b600080fd5b600080fd5b600080fd5b600080fd5b6000601f19601f8301169050919050565b7f4d7573742062652070726f706f736564206f776e657200000000000000000000600082015250565b7f4f6e6c792063616c6c61626c65206279206f776e657200000000000000000000600082015250565b7f4761732070726963652041676772656761746f72206973207a65726f2061646460008201527f7265737300000000000000000000000000000000000000000000000000000000602082015250565b7f416464726573733a20756e61626c6520746f2073656e642076616c75652c207260008201527f6563697069656e74206d61792068617665207265766572746564000000000000602082015250565b7f416464726573733a20696e73756666696369656e742062616c616e6365000000600082015250565b7f4e6f206163636573730000000000000000000000000000000000000000000000600082015250565b7f4d617820676173206973207a65726f0000000000000000000000000000000000600082015250565b50565b7f43616e6e6f74207472616e7366657220746f2073656c66000000000000000000600082015250565b7f47617320707269636520626964206973207a65726f0000000000000000000000600082015250565b60028110612a6657612a65612812565b5b50565b612a728161267c565b8114612a7d57600080fd5b50565b612a898161268e565b8114612a9457600080fd5b50565b612aa0816126a0565b8114612aab57600080fd5b50565b60028110612abb57600080fd5b50565b612ac7816126bf565b8114612ad257600080fd5b50565b612ade816126e9565b8114612ae957600080fd5b50565b612af581612707565b8114612b0057600080fd5b5056fea2646970667358221220b8c3944ab88a71418eecf21397016a21457ce53bca12de64c6a698493dac949664736f6c63430008060033",
  "linkReferences": {},
  "deployedLinkReferences": {}
}