{
  "_format": "hh-sol-artifact-1",
  "contractName": "GameNFT",
  "sourceName": "contracts/GameNft.sol",
  "abi": [
    {
      "inputs": [
        {
          "internalType": "address",
          "name": "owner",
          "type": "address"
        },
        {
          "internalType": "string",
          "name": "_name",
          "type": "string"
        },
        {
          "internalType": "string",
          "name": "_symbol",
          "type": "string"
        }
      ],
      "stateMutability": "nonpayable",
      "type": "constructor"
    },
    {
      "anonymous": false,
      "inputs": [
        {
          "indexed": true,
          "internalType": "address",
          "name": "owner",
          "type": "address"
        },
        {
          "indexed": true,
          "internalType": "address",
          "name": "approved",
          "type": "address"
        },
        {
          "indexed": true,
          "internalType": "uint256",
          "name": "tokenId",
          "type": "uint256"
        }
      ],
      "name": "Approval",
      "type": "event"
    },
    {
      "anonymous": false,
      "inputs": [
        {
          "indexed": true,
          "internalType": "address",
          "name": "owner",
          "type": "address"
        },
        {
          "indexed": true,
          "internalType": "address",
          "name": "operator",
          "type": "address"
        },
        {
          "indexed": false,
          "internalType": "bool",
          "name": "approved",
          "type": "bool"
        }
      ],
      "name": "ApprovalForAll",
      "type": "event"
    },
    {
      "anonymous": false,
      "inputs": [
        {
          "indexed": true,
          "internalType": "address",
          "name": "from",
          "type": "address"
        },
        {
          "indexed": true,
          "internalType": "address",
          "name": "to",
          "type": "address"
        },
        {
          "indexed": true,
          "internalType": "uint256",
          "name": "tokenId",
          "type": "uint256"
        }
      ],
      "name": "Transfer",
      "type": "event"
    },
    {
      "inputs": [
        {
          "internalType": "address",
          "name": "to",
          "type": "address"
        },
        {
          "internalType": "uint256",
          "name": "tokenId",
          "type": "uint256"
        }
      ],
      "name": "approve",
      "outputs": [],
      "stateMutability": "nonpayable",
      "type": "function"
    },
    {
      "inputs": [
        {
          "internalType": "address",
          "name": "owner",
          "type": "address"
        }
      ],
      "name": "balanceOf",
      "outputs": [
        {
          "internalType": "uint256",
          "name": "",
          "type": "uint256"
        }
      ],
      "stateMutability": "view",
      "type": "function"
    },
    {
      "inputs": [],
      "name": "getAddress",
      "outputs": [
        {
          "internalType": "address",
          "name": "",
          "type": "address"
        }
      ],
      "stateMutability": "view",
      "type": "function"
    },
    {
      "inputs": [
        {
          "internalType": "uint256",
          "name": "tokenId",
          "type": "uint256"
        }
      ],
      "name": "getApproved",
      "outputs": [
        {
          "internalType": "address",
          "name": "",
          "type": "address"
        }
      ],
      "stateMutability": "view",
      "type": "function"
    },
    {
      "inputs": [
        {
          "internalType": "address",
          "name": "owner",
          "type": "address"
        },
        {
          "internalType": "address",
          "name": "operator",
          "type": "address"
        }
      ],
      "name": "isApprovedForAll",
      "outputs": [
        {
          "internalType": "bool",
          "name": "",
          "type": "bool"
        }
      ],
      "stateMutability": "view",
      "type": "function"
    },
    {
      "inputs": [],
      "name": "name",
      "outputs": [
        {
          "internalType": "string",
          "name": "",
          "type": "string"
        }
      ],
      "stateMutability": "view",
      "type": "function"
    },
    {
      "inputs": [
        {
          "internalType": "uint256",
          "name": "tokenId",
          "type": "uint256"
        }
      ],
      "name": "ownerOf",
      "outputs": [
        {
          "internalType": "address",
          "name": "",
          "type": "address"
        }
      ],
      "stateMutability": "view",
      "type": "function"
    },
    {
      "inputs": [
        {
          "internalType": "address",
          "name": "from",
          "type": "address"
        },
        {
          "internalType": "address",
          "name": "to",
          "type": "address"
        },
        {
          "internalType": "uint256",
          "name": "tokenId",
          "type": "uint256"
        }
      ],
      "name": "safeTransferFrom",
      "outputs": [],
      "stateMutability": "nonpayable",
      "type": "function"
    },
    {
      "inputs": [
        {
          "internalType": "address",
          "name": "from",
          "type": "address"
        },
        {
          "internalType": "address",
          "name": "to",
          "type": "address"
        },
        {
          "internalType": "uint256",
          "name": "tokenId",
          "type": "uint256"
        },
        {
          "internalType": "bytes",
          "name": "_data",
          "type": "bytes"
        }
      ],
      "name": "safeTransferFrom",
      "outputs": [],
      "stateMutability": "nonpayable",
      "type": "function"
    },
    {
      "inputs": [
        {
          "internalType": "address",
          "name": "operator",
          "type": "address"
        },
        {
          "internalType": "bool",
          "name": "approved",
          "type": "bool"
        }
      ],
      "name": "setApprovalForAll",
      "outputs": [],
      "stateMutability": "nonpayable",
      "type": "function"
    },
    {
      "inputs": [
        {
          "internalType": "bytes4",
          "name": "interfaceId",
          "type": "bytes4"
        }
      ],
      "name": "supportsInterface",
      "outputs": [
        {
          "internalType": "bool",
          "name": "",
          "type": "bool"
        }
      ],
      "stateMutability": "view",
      "type": "function"
    },
    {
      "inputs": [],
      "name": "symbol",
      "outputs": [
        {
          "internalType": "string",
          "name": "",
          "type": "string"
        }
      ],
      "stateMutability": "view",
      "type": "function"
    },
    {
      "inputs": [
        {
          "internalType": "uint256",
          "name": "tokenId",
          "type": "uint256"
        }
      ],
      "name": "tokenURI",
      "outputs": [
        {
          "internalType": "string",
          "name": "",
          "type": "string"
        }
      ],
      "stateMutability": "view",
      "type": "function"
    },
    {
      "inputs": [
        {
          "internalType": "address",
          "name": "from",
          "type": "address"
        },
        {
          "internalType": "address",
          "name": "to",
          "type": "address"
        },
        {
          "internalType": "uint256",
          "name": "tokenId",
          "type": "uint256"
        }
      ],
      "name": "transferFrom",
      "outputs": [],
      "stateMutability": "nonpayable",
      "type": "function"
    }
  ],
  "bytecode": "0x60806040523480156200001157600080fd5b5060405162002c3b38038062002c3b833981810160405281019062000037919062000425565b8181816000908051906020019062000051929190620002e0565b5080600190805190602001906200006a929190620002e0565b505050620000808360016200008960201b60201c565b5050506200081c565b600073ffffffffffffffffffffffffffffffffffffffff168273ffffffffffffffffffffffffffffffffffffffff161415620000fc576040517f08c379a0000000000000000000000000000000000000000000000000000000008152600401620000f3906200052f565b60405180910390fd5b6200010d816200026f60201b60201c565b1562000150576040517f08c379a000000000000000000000000000000000000000000000000000000000815260040162000147906200050d565b60405180910390fd5b6200016460008383620002db60201b60201c565b6001600360008473ffffffffffffffffffffffffffffffffffffffff1673ffffffffffffffffffffffffffffffffffffffff1681526020019081526020016000206000828254620001b69190620005c1565b92505081905550816002600083815260200190815260200160002060006101000a81548173ffffffffffffffffffffffffffffffffffffffff021916908373ffffffffffffffffffffffffffffffffffffffff160217905550808273ffffffffffffffffffffffffffffffffffffffff16600073ffffffffffffffffffffffffffffffffffffffff167fddf252ad1be2c89b69c2b068fc378daa952ba7f163c4a11628f55a4df523b3ef60405160405180910390a45050565b60008073ffffffffffffffffffffffffffffffffffffffff166002600084815260200190815260200160002060009054906101000a900473ffffffffffffffffffffffffffffffffffffffff1673ffffffffffffffffffffffffffffffffffffffff1614159050919050565b505050565b828054620002ee9062000692565b90600052602060002090601f0160209004810192826200031257600085556200035e565b82601f106200032d57805160ff19168380011785556200035e565b828001600101855582156200035e579182015b828111156200035d57825182559160200191906001019062000340565b5b5090506200036d919062000371565b5090565b5b808211156200038c57600081600090555060010162000372565b5090565b6000620003a7620003a1846200057a565b62000551565b905082815260208101848484011115620003c657620003c562000790565b5b620003d38482856200065c565b509392505050565b600081519050620003ec8162000802565b92915050565b600082601f8301126200040a57620004096200078b565b5b81516200041c84826020860162000390565b91505092915050565b6000806000606084860312156200044157620004406200079a565b5b60006200045186828701620003db565b935050602084015167ffffffffffffffff81111562000475576200047462000795565b5b6200048386828701620003f2565b925050604084015167ffffffffffffffff811115620004a757620004a662000795565b5b620004b586828701620003f2565b9150509250925092565b6000620004ce601c83620005b0565b9150620004db82620007b0565b602082019050919050565b6000620004f5602083620005b0565b91506200050282620007d9565b602082019050919050565b600060208201905081810360008301526200052881620004bf565b9050919050565b600060208201905081810360008301526200054a81620004e6565b9050919050565b60006200055d62000570565b90506200056b8282620006c8565b919050565b6000604051905090565b600067ffffffffffffffff8211156200059857620005976200075c565b5b620005a3826200079f565b9050602081019050919050565b600082825260208201905092915050565b6000620005ce8262000652565b9150620005db8362000652565b9250827fffffffffffffffffffffffffffffffffffffffffffffffffffffffffffffffff03821115620006135762000612620006fe565b5b828201905092915050565b60006200062b8262000632565b9050919050565b600073ffffffffffffffffffffffffffffffffffffffff82169050919050565b6000819050919050565b60005b838110156200067c5780820151818401526020810190506200065f565b838111156200068c576000848401525b50505050565b60006002820490506001821680620006ab57607f821691505b60208210811415620006c257620006c16200072d565b5b50919050565b620006d3826200079f565b810181811067ffffffffffffffff82111715620006f557620006f46200075c565b5b80604052505050565b7f4e487b7100000000000000000000000000000000000000000000000000000000600052601160045260246000fd5b7f4e487b7100000000000000000000000000000000000000000000000000000000600052602260045260246000fd5b7f4e487b7100000000000000000000000000000000000000000000000000000000600052604160045260246000fd5b600080fd5b600080fd5b600080fd5b600080fd5b6000601f19601f8301169050919050565b7f4552433732313a20746f6b656e20616c7265616479206d696e74656400000000600082015250565b7f4552433732313a206d696e7420746f20746865207a65726f2061646472657373600082015250565b6200080d816200061e565b81146200081957600080fd5b50565b61240f806200082c6000396000f3fe608060405234801561001057600080fd5b50600436106100ea5760003560e01c80636352211e1161008c578063a22cb46511610066578063a22cb4651461025d578063b88d4fde14610279578063c87b56dd14610295578063e985e9c5146102c5576100ea565b80636352211e146101df57806370a082311461020f57806395d89b411461023f576100ea565b8063095ea7b3116100c8578063095ea7b31461016d57806323b872dd1461018957806338cc4831146101a557806342842e0e146101c3576100ea565b806301ffc9a7146100ef57806306fdde031461011f578063081812fc1461013d575b600080fd5b6101096004803603810190610104919061169a565b6102f5565b6040516101169190611a20565b60405180910390f35b6101276103d7565b6040516101349190611a3b565b60405180910390f35b610157600480360381019061015291906116f4565b610469565b60405161016491906119b9565b60405180910390f35b6101876004803603810190610182919061165a565b6104ee565b005b6101a3600480360381019061019e9190611544565b610606565b005b6101ad610666565b6040516101ba91906119b9565b60405180910390f35b6101dd60048036038101906101d89190611544565b61066e565b005b6101f960048036038101906101f491906116f4565b61068e565b60405161020691906119b9565b60405180910390f35b610229600480360381019061022491906114d7565b610740565b6040516102369190611bdd565b60405180910390f35b6102476107f8565b6040516102549190611a3b565b60405180910390f35b6102776004803603810190610272919061161a565b61088a565b005b610293600480360381019061028e9190611597565b6108a0565b005b6102af60048036038101906102aa91906116f4565b610902565b6040516102bc9190611a3b565b60405180910390f35b6102df60048036038101906102da9190611504565b6109a9565b6040516102ec9190611a20565b60405180910390f35b60007f80ac58cd000000000000000000000000000000000000000000000000000000007bffffffffffffffffffffffffffffffffffffffffffffffffffffffff1916827bffffffffffffffffffffffffffffffffffffffffffffffffffffffff191614806103c057507f5b5e139f000000000000000000000000000000000000000000000000000000007bffffffffffffffffffffffffffffffffffffffffffffffffffffffff1916827bffffffffffffffffffffffffffffffffffffffffffffffffffffffff1916145b806103d057506103cf82610a3d565b5b9050919050565b6060600080546103e690611e02565b80601f016020809104026020016040519081016040528092919081815260200182805461041290611e02565b801561045f5780601f106104345761010080835404028352916020019161045f565b820191906000526020600020905b81548152906001019060200180831161044257829003601f168201915b5050505050905090565b600061047482610aa7565b6104b3576040517f08c379a00000000000000000000000000000000000000000000000000000000081526004016104aa90611b3d565b60405180910390fd5b6004600083815260200190815260200160002060009054906101000a900473ffffffffffffffffffffffffffffffffffffffff169050919050565b60006104f98261068e565b90508073ffffffffffffffffffffffffffffffffffffffff168373ffffffffffffffffffffffffffffffffffffffff16141561056a576040517f08c379a000000000000000000000000000000000000000000000000000000000815260040161056190611b9d565b60405180910390fd5b8073ffffffffffffffffffffffffffffffffffffffff16610589610b13565b73ffffffffffffffffffffffffffffffffffffffff1614806105b857506105b7816105b2610b13565b6109a9565b5b6105f7576040517f08c379a00000000000000000000000000000000000000000000000000000000081526004016105ee90611add565b60405180910390fd5b6106018383610b1b565b505050565b610617610611610b13565b82610bd4565b610656576040517f08c379a000000000000000000000000000000000000000000000000000000000815260040161064d90611bbd565b60405180910390fd5b610661838383610cb2565b505050565b600030905090565b610689838383604051806020016040528060008152506108a0565b505050565b6000806002600084815260200190815260200160002060009054906101000a900473ffffffffffffffffffffffffffffffffffffffff169050600073ffffffffffffffffffffffffffffffffffffffff168173ffffffffffffffffffffffffffffffffffffffff161415610737576040517f08c379a000000000000000000000000000000000000000000000000000000000815260040161072e90611b1d565b60405180910390fd5b80915050919050565b60008073ffffffffffffffffffffffffffffffffffffffff168273ffffffffffffffffffffffffffffffffffffffff1614156107b1576040517f08c379a00000000000000000000000000000000000000000000000000000000081526004016107a890611afd565b60405180910390fd5b600360008373ffffffffffffffffffffffffffffffffffffffff1673ffffffffffffffffffffffffffffffffffffffff168152602001908152602001600020549050919050565b60606001805461080790611e02565b80601f016020809104026020016040519081016040528092919081815260200182805461083390611e02565b80156108805780601f1061085557610100808354040283529160200191610880565b820191906000526020600020905b81548152906001019060200180831161086357829003601f168201915b5050505050905090565b61089c610895610b13565b8383610f0e565b5050565b6108b16108ab610b13565b83610bd4565b6108f0576040517f08c379a00000000000000000000000000000000000000000000000000000000081526004016108e790611bbd565b60405180910390fd5b6108fc8484848461107b565b50505050565b606061090d82610aa7565b61094c576040517f08c379a000000000000000000000000000000000000000000000000000000000815260040161094390611b7d565b60405180910390fd5b60006109566110d7565b9050600081511161097657604051806020016040528060008152506109a1565b80610980846110ee565b604051602001610991929190611995565b6040516020818303038152906040525b915050919050565b6000600560008473ffffffffffffffffffffffffffffffffffffffff1673ffffffffffffffffffffffffffffffffffffffff16815260200190815260200160002060008373ffffffffffffffffffffffffffffffffffffffff1673ffffffffffffffffffffffffffffffffffffffff16815260200190815260200160002060009054906101000a900460ff16905092915050565b60007f01ffc9a7000000000000000000000000000000000000000000000000000000007bffffffffffffffffffffffffffffffffffffffffffffffffffffffff1916827bffffffffffffffffffffffffffffffffffffffffffffffffffffffff1916149050919050565b60008073ffffffffffffffffffffffffffffffffffffffff166002600084815260200190815260200160002060009054906101000a900473ffffffffffffffffffffffffffffffffffffffff1673ffffffffffffffffffffffffffffffffffffffff1614159050919050565b600033905090565b816004600083815260200190815260200160002060006101000a81548173ffffffffffffffffffffffffffffffffffffffff021916908373ffffffffffffffffffffffffffffffffffffffff160217905550808273ffffffffffffffffffffffffffffffffffffffff16610b8e8361068e565b73ffffffffffffffffffffffffffffffffffffffff167f8c5be1e5ebec7d5bd14f71427d1e84f3dd0314c0f7b2291e5b200ac8c7c3b92560405160405180910390a45050565b6000610bdf82610aa7565b610c1e576040517f08c379a0000000000000000000000000000000000000000000000000000000008152600401610c1590611abd565b60405180910390fd5b6000610c298361068e565b90508073ffffffffffffffffffffffffffffffffffffffff168473ffffffffffffffffffffffffffffffffffffffff161480610c9857508373ffffffffffffffffffffffffffffffffffffffff16610c8084610469565b73ffffffffffffffffffffffffffffffffffffffff16145b80610ca95750610ca881856109a9565b5b91505092915050565b8273ffffffffffffffffffffffffffffffffffffffff16610cd28261068e565b73ffffffffffffffffffffffffffffffffffffffff1614610d28576040517f08c379a0000000000000000000000000000000000000000000000000000000008152600401610d1f90611b5d565b60405180910390fd5b600073ffffffffffffffffffffffffffffffffffffffff168273ffffffffffffffffffffffffffffffffffffffff161415610d98576040517f08c379a0000000000000000000000000000000000000000000000000000000008152600401610d8f90611a7d565b60405180910390fd5b610da383838361124f565b610dae600082610b1b565b6001600360008573ffffffffffffffffffffffffffffffffffffffff1673ffffffffffffffffffffffffffffffffffffffff1681526020019081526020016000206000828254610dfe9190611d18565b925050819055506001600360008473ffffffffffffffffffffffffffffffffffffffff1673ffffffffffffffffffffffffffffffffffffffff1681526020019081526020016000206000828254610e559190611c91565b92505081905550816002600083815260200190815260200160002060006101000a81548173ffffffffffffffffffffffffffffffffffffffff021916908373ffffffffffffffffffffffffffffffffffffffff160217905550808273ffffffffffffffffffffffffffffffffffffffff168473ffffffffffffffffffffffffffffffffffffffff167fddf252ad1be2c89b69c2b068fc378daa952ba7f163c4a11628f55a4df523b3ef60405160405180910390a4505050565b8173ffffffffffffffffffffffffffffffffffffffff168373ffffffffffffffffffffffffffffffffffffffff161415610f7d576040517f08c379a0000000000000000000000000000000000000000000000000000000008152600401610f7490611a9d565b60405180910390fd5b80600560008573ffffffffffffffffffffffffffffffffffffffff1673ffffffffffffffffffffffffffffffffffffffff16815260200190815260200160002060008473ffffffffffffffffffffffffffffffffffffffff1673ffffffffffffffffffffffffffffffffffffffff16815260200190815260200160002060006101000a81548160ff0219169083151502179055508173ffffffffffffffffffffffffffffffffffffffff168373ffffffffffffffffffffffffffffffffffffffff167f17307eab39ab6107e8899845ad3d59bd9653f200f220920489ca2b5937696c318360405161106e9190611a20565b60405180910390a3505050565b611086848484610cb2565b61109284848484611254565b6110d1576040517f08c379a00000000000000000000000000000000000000000000000000000000081526004016110c890611a5d565b60405180910390fd5b50505050565b606060405180602001604052806000815250905090565b60606000821415611136576040518060400160405280600181526020017f3000000000000000000000000000000000000000000000000000000000000000815250905061124a565b600082905060005b6000821461116857808061115190611e65565b915050600a826111619190611ce7565b915061113e565b60008167ffffffffffffffff81111561118457611183611f9b565b5b6040519080825280601f01601f1916602001820160405280156111b65781602001600182028036833780820191505090505b5090505b60008514611243576001826111cf9190611d18565b9150600a856111de9190611eae565b60306111ea9190611c91565b60f81b818381518110611200576111ff611f6c565b5b60200101907effffffffffffffffffffffffffffffffffffffffffffffffffffffffffffff1916908160001a905350600a8561123c9190611ce7565b94506111ba565b8093505050505b919050565b505050565b60006112758473ffffffffffffffffffffffffffffffffffffffff166113eb565b156113de578373ffffffffffffffffffffffffffffffffffffffff1663150b7a0261129e610b13565b8786866040518563ffffffff1660e01b81526004016112c094939291906119d4565b602060405180830381600087803b1580156112da57600080fd5b505af192505050801561130b57506040513d601f19601f8201168201806040525081019061130891906116c7565b60015b61138e573d806000811461133b576040519150601f19603f3d011682016040523d82523d6000602084013e611340565b606091505b50600081511415611386576040517f08c379a000000000000000000000000000000000000000000000000000000000815260040161137d90611a5d565b60405180910390fd5b805181602001fd5b63150b7a0260e01b7bffffffffffffffffffffffffffffffffffffffffffffffffffffffff1916817bffffffffffffffffffffffffffffffffffffffffffffffffffffffff1916149150506113e3565b600190505b949350505050565b600080823b905060008111915050919050565b600061141161140c84611c1d565b611bf8565b90508281526020810184848401111561142d5761142c611fcf565b5b611438848285611dc0565b509392505050565b60008135905061144f8161237d565b92915050565b60008135905061146481612394565b92915050565b600081359050611479816123ab565b92915050565b60008151905061148e816123ab565b92915050565b600082601f8301126114a9576114a8611fca565b5b81356114b98482602086016113fe565b91505092915050565b6000813590506114d1816123c2565b92915050565b6000602082840312156114ed576114ec611fd9565b5b60006114fb84828501611440565b91505092915050565b6000806040838503121561151b5761151a611fd9565b5b600061152985828601611440565b925050602061153a85828601611440565b9150509250929050565b60008060006060848603121561155d5761155c611fd9565b5b600061156b86828701611440565b935050602061157c86828701611440565b925050604061158d868287016114c2565b9150509250925092565b600080600080608085870312156115b1576115b0611fd9565b5b60006115bf87828801611440565b94505060206115d087828801611440565b93505060406115e1878288016114c2565b925050606085013567ffffffffffffffff81111561160257611601611fd4565b5b61160e87828801611494565b91505092959194509250565b6000806040838503121561163157611630611fd9565b5b600061163f85828601611440565b925050602061165085828601611455565b9150509250929050565b6000806040838503121561167157611670611fd9565b5b600061167f85828601611440565b9250506020611690858286016114c2565b9150509250929050565b6000602082840312156116b0576116af611fd9565b5b60006116be8482850161146a565b91505092915050565b6000602082840312156116dd576116dc611fd9565b5b60006116eb8482850161147f565b91505092915050565b60006020828403121561170a57611709611fd9565b5b6000611718848285016114c2565b91505092915050565b61172a81611d4c565b82525050565b61173981611d5e565b82525050565b600061174a82611c4e565b6117548185611c64565b9350611764818560208601611dcf565b61176d81611fde565b840191505092915050565b600061178382611c59565b61178d8185611c75565b935061179d818560208601611dcf565b6117a681611fde565b840191505092915050565b60006117bc82611c59565b6117c68185611c86565b93506117d6818560208601611dcf565b80840191505092915050565b60006117ef603283611c75565b91506117fa82611fef565b604082019050919050565b6000611812602483611c75565b915061181d8261203e565b604082019050919050565b6000611835601983611c75565b91506118408261208d565b602082019050919050565b6000611858602c83611c75565b9150611863826120b6565b604082019050919050565b600061187b603883611c75565b915061188682612105565b604082019050919050565b600061189e602a83611c75565b91506118a982612154565b604082019050919050565b60006118c1602983611c75565b91506118cc826121a3565b604082019050919050565b60006118e4602c83611c75565b91506118ef826121f2565b604082019050919050565b6000611907602983611c75565b915061191282612241565b604082019050919050565b600061192a602f83611c75565b915061193582612290565b604082019050919050565b600061194d602183611c75565b9150611958826122df565b604082019050919050565b6000611970603183611c75565b915061197b8261232e565b604082019050919050565b61198f81611db6565b82525050565b60006119a182856117b1565b91506119ad82846117b1565b91508190509392505050565b60006020820190506119ce6000830184611721565b92915050565b60006080820190506119e96000830187611721565b6119f66020830186611721565b611a036040830185611986565b8181036060830152611a15818461173f565b905095945050505050565b6000602082019050611a356000830184611730565b92915050565b60006020820190508181036000830152611a558184611778565b905092915050565b60006020820190508181036000830152611a76816117e2565b9050919050565b60006020820190508181036000830152611a9681611805565b9050919050565b60006020820190508181036000830152611ab681611828565b9050919050565b60006020820190508181036000830152611ad68161184b565b9050919050565b60006020820190508181036000830152611af68161186e565b9050919050565b60006020820190508181036000830152611b1681611891565b9050919050565b60006020820190508181036000830152611b36816118b4565b9050919050565b60006020820190508181036000830152611b56816118d7565b9050919050565b60006020820190508181036000830152611b76816118fa565b9050919050565b60006020820190508181036000830152611b968161191d565b9050919050565b60006020820190508181036000830152611bb681611940565b9050919050565b60006020820190508181036000830152611bd681611963565b9050919050565b6000602082019050611bf26000830184611986565b92915050565b6000611c02611c13565b9050611c0e8282611e34565b919050565b6000604051905090565b600067ffffffffffffffff821115611c3857611c37611f9b565b5b611c4182611fde565b9050602081019050919050565b600081519050919050565b600081519050919050565b600082825260208201905092915050565b600082825260208201905092915050565b600081905092915050565b6000611c9c82611db6565b9150611ca783611db6565b9250827fffffffffffffffffffffffffffffffffffffffffffffffffffffffffffffffff03821115611cdc57611cdb611edf565b5b828201905092915050565b6000611cf282611db6565b9150611cfd83611db6565b925082611d0d57611d0c611f0e565b5b828204905092915050565b6000611d2382611db6565b9150611d2e83611db6565b925082821015611d4157611d40611edf565b5b828203905092915050565b6000611d5782611d96565b9050919050565b60008115159050919050565b60007fffffffff0000000000000000000000000000000000000000000000000000000082169050919050565b600073ffffffffffffffffffffffffffffffffffffffff82169050919050565b6000819050919050565b82818337600083830152505050565b60005b83811015611ded578082015181840152602081019050611dd2565b83811115611dfc576000848401525b50505050565b60006002820490506001821680611e1a57607f821691505b60208210811415611e2e57611e2d611f3d565b5b50919050565b611e3d82611fde565b810181811067ffffffffffffffff82111715611e5c57611e5b611f9b565b5b80604052505050565b6000611e7082611db6565b91507fffffffffffffffffffffffffffffffffffffffffffffffffffffffffffffffff821415611ea357611ea2611edf565b5b600182019050919050565b6000611eb982611db6565b9150611ec483611db6565b925082611ed457611ed3611f0e565b5b828206905092915050565b7f4e487b7100000000000000000000000000000000000000000000000000000000600052601160045260246000fd5b7f4e487b7100000000000000000000000000000000000000000000000000000000600052601260045260246000fd5b7f4e487b7100000000000000000000000000000000000000000000000000000000600052602260045260246000fd5b7f4e487b7100000000000000000000000000000000000000000000000000000000600052603260045260246000fd5b7f4e487b7100000000000000000000000000000000000000000000000000000000600052604160045260246000fd5b600080fd5b600080fd5b600080fd5b600080fd5b6000601f19601f8301169050919050565b7f4552433732313a207472616e7366657220746f206e6f6e20455243373231526560008201527f63656976657220696d706c656d656e7465720000000000000000000000000000602082015250565b7f4552433732313a207472616e7366657220746f20746865207a65726f2061646460008201527f7265737300000000000000000000000000000000000000000000000000000000602082015250565b7f4552433732313a20617070726f766520746f2063616c6c657200000000000000600082015250565b7f4552433732313a206f70657261746f7220717565727920666f72206e6f6e657860008201527f697374656e7420746f6b656e0000000000000000000000000000000000000000602082015250565b7f4552433732313a20617070726f76652063616c6c6572206973206e6f74206f7760008201527f6e6572206e6f7220617070726f76656420666f7220616c6c0000000000000000602082015250565b7f4552433732313a2062616c616e636520717565727920666f7220746865207a6560008201527f726f206164647265737300000000000000000000000000000000000000000000602082015250565b7f4552433732313a206f776e657220717565727920666f72206e6f6e657869737460008201527f656e7420746f6b656e0000000000000000000000000000000000000000000000602082015250565b7f4552433732313a20617070726f76656420717565727920666f72206e6f6e657860008201527f697374656e7420746f6b656e0000000000000000000000000000000000000000602082015250565b7f4552433732313a207472616e73666572206f6620746f6b656e2074686174206960008201527f73206e6f74206f776e0000000000000000000000000000000000000000000000602082015250565b7f4552433732314d657461646174613a2055524920717565727920666f72206e6f60008201527f6e6578697374656e7420746f6b656e0000000000000000000000000000000000602082015250565b7f4552433732313a20617070726f76616c20746f2063757272656e74206f776e6560008201527f7200000000000000000000000000000000000000000000000000000000000000602082015250565b7f4552433732313a207472616e736665722063616c6c6572206973206e6f74206f60008201527f776e6572206e6f7220617070726f766564000000000000000000000000000000602082015250565b61238681611d4c565b811461239157600080fd5b50565b61239d81611d5e565b81146123a857600080fd5b50565b6123b481611d6a565b81146123bf57600080fd5b50565b6123cb81611db6565b81146123d657600080fd5b5056fea2646970667358221220c7ab7a979a46765068eccc466facfec3442290aebf170044aefbe5269e16c39b64736f6c63430008060033",
  "linkReferences": {},
  "deployedLinkReferences": {}
}