{
  "_format": "hh-sol-artifact-1",
  "contractName": "VRFCoordinatorV2",
  "sourceName": "contracts/chainlink/v0.8/dev/VRFCoordinatorV2.sol",
  "abi": [
    {
      "inputs": [
        {
          "internalType": "address",
          "name": "link",
          "type": "address"
        },
        {
          "internalType": "address",
          "name": "blockhashStore",
          "type": "address"
        },
        {
          "internalType": "address",
          "name": "linkEthFeed",
          "type": "address"
        }
      ],
      "stateMutability": "nonpayable",
      "type": "constructor"
    },
    {
      "inputs": [
        {
          "internalType": "uint256",
          "name": "internalBalance",
          "type": "uint256"
        },
        {
          "internalType": "uint256",
          "name": "externalBalance",
          "type": "uint256"
        }
      ],
      "name": "BalanceInvariantViolated",
      "type": "error"
    },
    {
      "inputs": [
        {
          "internalType": "uint256",
          "name": "blockNum",
          "type": "uint256"
        }
      ],
      "name": "BlockhashNotInStore",
      "type": "error"
    },
    {
      "inputs": [
        {
          "internalType": "uint32",
          "name": "have",
          "type": "uint32"
        },
        {
          "internalType": "uint32",
          "name": "want",
          "type": "uint32"
        }
      ],
      "name": "GasLimitTooBig",
      "type": "error"
    },
    {
      "inputs": [],
      "name": "IncorrectCommitment",
      "type": "error"
    },
    {
      "inputs": [],
      "name": "InsufficientBalance",
      "type": "error"
    },
    {
      "inputs": [
        {
          "internalType": "uint256",
          "name": "have",
          "type": "uint256"
        },
        {
          "internalType": "uint256",
          "name": "want",
          "type": "uint256"
        }
      ],
      "name": "InsufficientGasForConsumer",
      "type": "error"
    },
    {
      "inputs": [],
      "name": "InvalidCalldata",
      "type": "error"
    },
    {
      "inputs": [
        {
          "internalType": "uint64",
          "name": "subId",
          "type": "uint64"
        },
        {
          "internalType": "address",
          "name": "consumer",
          "type": "address"
        }
      ],
      "name": "InvalidConsumer",
      "type": "error"
    },
    {
      "inputs": [
        {
          "internalType": "int256",
          "name": "linkWei",
          "type": "int256"
        }
      ],
      "name": "InvalidLinkWeiPrice",
      "type": "error"
    },
    {
      "inputs": [
        {
          "internalType": "uint16",
          "name": "have",
          "type": "uint16"
        },
        {
          "internalType": "uint16",
          "name": "min",
          "type": "uint16"
        },
        {
          "internalType": "uint16",
          "name": "max",
          "type": "uint16"
        }
      ],
      "name": "InvalidRequestConfirmations",
      "type": "error"
    },
    {
      "inputs": [],
      "name": "InvalidSubscription",
      "type": "error"
    },
    {
      "inputs": [
        {
          "internalType": "address",
          "name": "proposedOwner",
          "type": "address"
        }
      ],
      "name": "MustBeRequestedOwner",
      "type": "error"
    },
    {
      "inputs": [
        {
          "internalType": "address",
          "name": "owner",
          "type": "address"
        }
      ],
      "name": "MustBeSubOwner",
      "type": "error"
    },
    {
      "inputs": [],
      "name": "NoCorrespondingRequest",
      "type": "error"
    },
    {
      "inputs": [
        {
          "internalType": "bytes32",
          "name": "keyHash",
          "type": "bytes32"
        }
      ],
      "name": "NoSuchProvingKey",
      "type": "error"
    },
    {
      "inputs": [
        {
          "internalType": "uint32",
          "name": "have",
          "type": "uint32"
        },
        {
          "internalType": "uint32",
          "name": "want",
          "type": "uint32"
        }
      ],
      "name": "NumWordsTooBig",
      "type": "error"
    },
    {
      "inputs": [],
      "name": "OnlyCallableFromLink",
      "type": "error"
    },
    {
      "inputs": [],
      "name": "PaymentTooLarge",
      "type": "error"
    },
    {
      "inputs": [],
      "name": "PendingRequestExists",
      "type": "error"
    },
    {
      "inputs": [
        {
          "internalType": "bytes32",
          "name": "keyHash",
          "type": "bytes32"
        }
      ],
      "name": "ProvingKeyAlreadyRegistered",
      "type": "error"
    },
    {
      "inputs": [],
      "name": "Reentrant",
      "type": "error"
    },
    {
      "inputs": [],
      "name": "TooManyConsumers",
      "type": "error"
    },
    {
      "anonymous": false,
      "inputs": [
        {
          "indexed": false,
          "internalType": "uint16",
          "name": "minimumRequestConfirmations",
          "type": "uint16"
        },
        {
          "indexed": false,
          "internalType": "uint32",
          "name": "maxGasLimit",
          "type": "uint32"
        },
        {
          "indexed": false,
          "internalType": "uint32",
          "name": "stalenessSeconds",
          "type": "uint32"
        },
        {
          "indexed": false,
          "internalType": "uint32",
          "name": "gasAfterPaymentCalculation",
          "type": "uint32"
        },
        {
          "indexed": false,
          "internalType": "int256",
          "name": "fallbackWeiPerUnitLink",
          "type": "int256"
        },
        {
          "components": [
            {
              "internalType": "uint32",
              "name": "fulfillmentFlatFeeLinkPPMTier1",
              "type": "uint32"
            },
            {
              "internalType": "uint32",
              "name": "fulfillmentFlatFeeLinkPPMTier2",
              "type": "uint32"
            },
            {
              "internalType": "uint32",
              "name": "fulfillmentFlatFeeLinkPPMTier3",
              "type": "uint32"
            },
            {
              "internalType": "uint32",
              "name": "fulfillmentFlatFeeLinkPPMTier4",
              "type": "uint32"
            },
            {
              "internalType": "uint32",
              "name": "fulfillmentFlatFeeLinkPPMTier5",
              "type": "uint32"
            },
            {
              "internalType": "uint24",
              "name": "reqsForTier2",
              "type": "uint24"
            },
            {
              "internalType": "uint24",
              "name": "reqsForTier3",
              "type": "uint24"
            },
            {
              "internalType": "uint24",
              "name": "reqsForTier4",
              "type": "uint24"
            },
            {
              "internalType": "uint24",
              "name": "reqsForTier5",
              "type": "uint24"
            }
          ],
          "indexed": false,
          "internalType": "struct VRFCoordinatorV2.FeeConfig",
          "name": "feeConfig",
          "type": "tuple"
        }
      ],
      "name": "ConfigSet",
      "type": "event"
    },
    {
      "anonymous": false,
      "inputs": [
        {
          "indexed": false,
          "internalType": "address",
          "name": "to",
          "type": "address"
        },
        {
          "indexed": false,
          "internalType": "uint256",
          "name": "amount",
          "type": "uint256"
        }
      ],
      "name": "FundsRecovered",
      "type": "event"
    },
    {
      "anonymous": false,
      "inputs": [
        {
          "indexed": true,
          "internalType": "address",
          "name": "from",
          "type": "address"
        },
        {
          "indexed": true,
          "internalType": "address",
          "name": "to",
          "type": "address"
        }
      ],
      "name": "OwnershipTransferRequested",
      "type": "event"
    },
    {
      "anonymous": false,
      "inputs": [
        {
          "indexed": true,
          "internalType": "address",
          "name": "from",
          "type": "address"
        },
        {
          "indexed": true,
          "internalType": "address",
          "name": "to",
          "type": "address"
        }
      ],
      "name": "OwnershipTransferred",
      "type": "event"
    },
    {
      "anonymous": false,
      "inputs": [
        {
          "indexed": false,
          "internalType": "bytes32",
          "name": "keyHash",
          "type": "bytes32"
        },
        {
          "indexed": true,
          "internalType": "address",
          "name": "oracle",
          "type": "address"
        }
      ],
      "name": "ProvingKeyDeregistered",
      "type": "event"
    },
    {
      "anonymous": false,
      "inputs": [
        {
          "indexed": false,
          "internalType": "bytes32",
          "name": "keyHash",
          "type": "bytes32"
        },
        {
          "indexed": true,
          "internalType": "address",
          "name": "oracle",
          "type": "address"
        }
      ],
      "name": "ProvingKeyRegistered",
      "type": "event"
    },
    {
      "anonymous": false,
      "inputs": [
        {
          "indexed": true,
          "internalType": "uint256",
          "name": "requestId",
          "type": "uint256"
        },
        {
          "indexed": false,
          "internalType": "uint256",
          "name": "outputSeed",
          "type": "uint256"
        },
        {
          "indexed": false,
          "internalType": "uint96",
          "name": "payment",
          "type": "uint96"
        },
        {
          "indexed": false,
          "internalType": "bool",
          "name": "success",
          "type": "bool"
        }
      ],
      "name": "RandomWordsFulfilled",
      "type": "event"
    },
    {
      "anonymous": false,
      "inputs": [
        {
          "indexed": true,
          "internalType": "bytes32",
          "name": "keyHash",
          "type": "bytes32"
        },
        {
          "indexed": false,
          "internalType": "uint256",
          "name": "requestId",
          "type": "uint256"
        },
        {
          "indexed": false,
          "internalType": "uint256",
          "name": "preSeed",
          "type": "uint256"
        },
        {
          "indexed": true,
          "internalType": "uint64",
          "name": "subId",
          "type": "uint64"
        },
        {
          "indexed": false,
          "internalType": "uint16",
          "name": "minimumRequestConfirmations",
          "type": "uint16"
        },
        {
          "indexed": false,
          "internalType": "uint32",
          "name": "callbackGasLimit",
          "type": "uint32"
        },
        {
          "indexed": false,
          "internalType": "uint32",
          "name": "numWords",
          "type": "uint32"
        },
        {
          "indexed": true,
          "internalType": "address",
          "name": "sender",
          "type": "address"
        }
      ],
      "name": "RandomWordsRequested",
      "type": "event"
    },
    {
      "anonymous": false,
      "inputs": [
        {
          "indexed": true,
          "internalType": "uint64",
          "name": "subId",
          "type": "uint64"
        },
        {
          "indexed": false,
          "internalType": "address",
          "name": "to",
          "type": "address"
        },
        {
          "indexed": false,
          "internalType": "uint256",
          "name": "amount",
          "type": "uint256"
        }
      ],
      "name": "SubscriptionCanceled",
      "type": "event"
    },
    {
      "anonymous": false,
      "inputs": [
        {
          "indexed": true,
          "internalType": "uint64",
          "name": "subId",
          "type": "uint64"
        },
        {
          "indexed": false,
          "internalType": "address",
          "name": "consumer",
          "type": "address"
        }
      ],
      "name": "SubscriptionConsumerAdded",
      "type": "event"
    },
    {
      "anonymous": false,
      "inputs": [
        {
          "indexed": true,
          "internalType": "uint64",
          "name": "subId",
          "type": "uint64"
        },
        {
          "indexed": false,
          "internalType": "address",
          "name": "consumer",
          "type": "address"
        }
      ],
      "name": "SubscriptionConsumerRemoved",
      "type": "event"
    },
    {
      "anonymous": false,
      "inputs": [
        {
          "indexed": true,
          "internalType": "uint64",
          "name": "subId",
          "type": "uint64"
        },
        {
          "indexed": false,
          "internalType": "address",
          "name": "owner",
          "type": "address"
        }
      ],
      "name": "SubscriptionCreated",
      "type": "event"
    },
    {
      "anonymous": false,
      "inputs": [
        {
          "indexed": true,
          "internalType": "uint64",
          "name": "subId",
          "type": "uint64"
        },
        {
          "indexed": false,
          "internalType": "uint256",
          "name": "oldBalance",
          "type": "uint256"
        },
        {
          "indexed": false,
          "internalType": "uint256",
          "name": "newBalance",
          "type": "uint256"
        }
      ],
      "name": "SubscriptionFunded",
      "type": "event"
    },
    {
      "anonymous": false,
      "inputs": [
        {
          "indexed": true,
          "internalType": "uint64",
          "name": "subId",
          "type": "uint64"
        },
        {
          "indexed": false,
          "internalType": "address",
          "name": "from",
          "type": "address"
        },
        {
          "indexed": false,
          "internalType": "address",
          "name": "to",
          "type": "address"
        }
      ],
      "name": "SubscriptionOwnerTransferRequested",
      "type": "event"
    },
    {
      "anonymous": false,
      "inputs": [
        {
          "indexed": true,
          "internalType": "uint64",
          "name": "subId",
          "type": "uint64"
        },
        {
          "indexed": false,
          "internalType": "address",
          "name": "from",
          "type": "address"
        },
        {
          "indexed": false,
          "internalType": "address",
          "name": "to",
          "type": "address"
        }
      ],
      "name": "SubscriptionOwnerTransferred",
      "type": "event"
    },
    {
      "inputs": [],
      "name": "BLOCKHASH_STORE",
      "outputs": [
        {
          "internalType": "contract BlockhashStoreInterface",
          "name": "",
          "type": "address"
        }
      ],
      "stateMutability": "view",
      "type": "function"
    },
    {
      "inputs": [],
      "name": "LINK",
      "outputs": [
        {
          "internalType": "contract LinkTokenInterface",
          "name": "",
          "type": "address"
        }
      ],
      "stateMutability": "view",
      "type": "function"
    },
    {
      "inputs": [],
      "name": "LINK_ETH_FEED",
      "outputs": [
        {
          "internalType": "contract AggregatorV3Interface",
          "name": "",
          "type": "address"
        }
      ],
      "stateMutability": "view",
      "type": "function"
    },
    {
      "inputs": [],
      "name": "MAX_CONSUMERS",
      "outputs": [
        {
          "internalType": "uint16",
          "name": "",
          "type": "uint16"
        }
      ],
      "stateMutability": "view",
      "type": "function"
    },
    {
      "inputs": [],
      "name": "MAX_NUM_WORDS",
      "outputs": [
        {
          "internalType": "uint32",
          "name": "",
          "type": "uint32"
        }
      ],
      "stateMutability": "view",
      "type": "function"
    },
    {
      "inputs": [],
      "name": "MAX_REQUEST_CONFIRMATIONS",
      "outputs": [
        {
          "internalType": "uint16",
          "name": "",
          "type": "uint16"
        }
      ],
      "stateMutability": "view",
      "type": "function"
    },
    {
      "inputs": [],
      "name": "acceptOwnership",
      "outputs": [],
      "stateMutability": "nonpayable",
      "type": "function"
    },
    {
      "inputs": [
        {
          "internalType": "uint64",
          "name": "subId",
          "type": "uint64"
        }
      ],
      "name": "acceptSubscriptionOwnerTransfer",
      "outputs": [],
      "stateMutability": "nonpayable",
      "type": "function"
    },
    {
      "inputs": [
        {
          "internalType": "uint64",
          "name": "subId",
          "type": "uint64"
        },
        {
          "internalType": "address",
          "name": "consumer",
          "type": "address"
        }
      ],
      "name": "addConsumer",
      "outputs": [],
      "stateMutability": "nonpayable",
      "type": "function"
    },
    {
      "inputs": [
        {
          "internalType": "uint64",
          "name": "subId",
          "type": "uint64"
        },
        {
          "internalType": "address",
          "name": "to",
          "type": "address"
        }
      ],
      "name": "cancelSubscription",
      "outputs": [],
      "stateMutability": "nonpayable",
      "type": "function"
    },
    {
      "inputs": [],
      "name": "createSubscription",
      "outputs": [
        {
          "internalType": "uint64",
          "name": "",
          "type": "uint64"
        }
      ],
      "stateMutability": "nonpayable",
      "type": "function"
    },
    {
      "inputs": [
        {
          "internalType": "uint256[2]",
          "name": "publicProvingKey",
          "type": "uint256[2]"
        }
      ],
      "name": "deregisterProvingKey",
      "outputs": [],
      "stateMutability": "nonpayable",
      "type": "function"
    },
    {
      "inputs": [
        {
          "components": [
            {
              "internalType": "uint256[2]",
              "name": "pk",
              "type": "uint256[2]"
            },
            {
              "internalType": "uint256[2]",
              "name": "gamma",
              "type": "uint256[2]"
            },
            {
              "internalType": "uint256",
              "name": "c",
              "type": "uint256"
            },
            {
              "internalType": "uint256",
              "name": "s",
              "type": "uint256"
            },
            {
              "internalType": "uint256",
              "name": "seed",
              "type": "uint256"
            },
            {
              "internalType": "address",
              "name": "uWitness",
              "type": "address"
            },
            {
              "internalType": "uint256[2]",
              "name": "cGammaWitness",
              "type": "uint256[2]"
            },
            {
              "internalType": "uint256[2]",
              "name": "sHashWitness",
              "type": "uint256[2]"
            },
            {
              "internalType": "uint256",
              "name": "zInv",
              "type": "uint256"
            }
          ],
          "internalType": "struct VRF.Proof",
          "name": "proof",
          "type": "tuple"
        },
        {
          "components": [
            {
              "internalType": "uint64",
              "name": "blockNum",
              "type": "uint64"
            },
            {
              "internalType": "uint64",
              "name": "subId",
              "type": "uint64"
            },
            {
              "internalType": "uint32",
              "name": "callbackGasLimit",
              "type": "uint32"
            },
            {
              "internalType": "uint32",
              "name": "numWords",
              "type": "uint32"
            },
            {
              "internalType": "address",
              "name": "sender",
              "type": "address"
            }
          ],
          "internalType": "struct VRFCoordinatorV2.RequestCommitment",
          "name": "rc",
          "type": "tuple"
        }
      ],
      "name": "fulfillRandomWords",
      "outputs": [
        {
          "internalType": "uint96",
          "name": "",
          "type": "uint96"
        }
      ],
      "stateMutability": "nonpayable",
      "type": "function"
    },
    {
      "inputs": [
        {
          "internalType": "uint256",
          "name": "requestId",
          "type": "uint256"
        }
      ],
      "name": "getCommitment",
      "outputs": [
        {
          "internalType": "bytes32",
          "name": "",
          "type": "bytes32"
        }
      ],
      "stateMutability": "view",
      "type": "function"
    },
    {
      "inputs": [],
      "name": "getConfig",
      "outputs": [
        {
          "internalType": "uint16",
          "name": "minimumRequestConfirmations",
          "type": "uint16"
        },
        {
          "internalType": "uint32",
          "name": "maxGasLimit",
          "type": "uint32"
        },
        {
          "internalType": "uint32",
          "name": "stalenessSeconds",
          "type": "uint32"
        },
        {
          "internalType": "uint32",
          "name": "gasAfterPaymentCalculation",
          "type": "uint32"
        }
      ],
      "stateMutability": "view",
      "type": "function"
    },
    {
      "inputs": [],
      "name": "getCurrentSubId",
      "outputs": [
        {
          "internalType": "uint64",
          "name": "",
          "type": "uint64"
        }
      ],
      "stateMutability": "view",
      "type": "function"
    },
    {
      "inputs": [],
      "name": "getFallbackWeiPerUnitLink",
      "outputs": [
        {
          "internalType": "int256",
          "name": "",
          "type": "int256"
        }
      ],
      "stateMutability": "view",
      "type": "function"
    },
    {
      "inputs": [],
      "name": "getFeeConfig",
      "outputs": [
        {
          "internalType": "uint32",
          "name": "fulfillmentFlatFeeLinkPPMTier1",
          "type": "uint32"
        },
        {
          "internalType": "uint32",
          "name": "fulfillmentFlatFeeLinkPPMTier2",
          "type": "uint32"
        },
        {
          "internalType": "uint32",
          "name": "fulfillmentFlatFeeLinkPPMTier3",
          "type": "uint32"
        },
        {
          "internalType": "uint32",
          "name": "fulfillmentFlatFeeLinkPPMTier4",
          "type": "uint32"
        },
        {
          "internalType": "uint32",
          "name": "fulfillmentFlatFeeLinkPPMTier5",
          "type": "uint32"
        },
        {
          "internalType": "uint24",
          "name": "reqsForTier2",
          "type": "uint24"
        },
        {
          "internalType": "uint24",
          "name": "reqsForTier3",
          "type": "uint24"
        },
        {
          "internalType": "uint24",
          "name": "reqsForTier4",
          "type": "uint24"
        },
        {
          "internalType": "uint24",
          "name": "reqsForTier5",
          "type": "uint24"
        }
      ],
      "stateMutability": "view",
      "type": "function"
    },
    {
      "inputs": [
        {
          "internalType": "uint64",
          "name": "reqCount",
          "type": "uint64"
        }
      ],
      "name": "getFeeTier",
      "outputs": [
        {
          "internalType": "uint32",
          "name": "",
          "type": "uint32"
        }
      ],
      "stateMutability": "view",
      "type": "function"
    },
    {
      "inputs": [],
      "name": "getRequestConfig",
      "outputs": [
        {
          "internalType": "uint16",
          "name": "",
          "type": "uint16"
        },
        {
          "internalType": "uint32",
          "name": "",
          "type": "uint32"
        },
        {
          "internalType": "bytes32[]",
          "name": "",
          "type": "bytes32[]"
        }
      ],
      "stateMutability": "view",
      "type": "function"
    },
    {
      "inputs": [
        {
          "internalType": "uint64",
          "name": "subId",
          "type": "uint64"
        }
      ],
      "name": "getSubscription",
      "outputs": [
        {
          "internalType": "uint96",
          "name": "balance",
          "type": "uint96"
        },
        {
          "internalType": "uint64",
          "name": "reqCount",
          "type": "uint64"
        },
        {
          "internalType": "address",
          "name": "owner",
          "type": "address"
        },
        {
          "internalType": "address[]",
          "name": "consumers",
          "type": "address[]"
        }
      ],
      "stateMutability": "view",
      "type": "function"
    },
    {
      "inputs": [],
      "name": "getTotalBalance",
      "outputs": [
        {
          "internalType": "uint256",
          "name": "",
          "type": "uint256"
        }
      ],
      "stateMutability": "view",
      "type": "function"
    },
    {
      "inputs": [
        {
          "internalType": "uint256[2]",
          "name": "publicKey",
          "type": "uint256[2]"
        }
      ],
      "name": "hashOfKey",
      "outputs": [
        {
          "internalType": "bytes32",
          "name": "",
          "type": "bytes32"
        }
      ],
      "stateMutability": "pure",
      "type": "function"
    },
    {
      "inputs": [
        {
          "internalType": "address",
          "name": "",
          "type": "address"
        },
        {
          "internalType": "uint256",
          "name": "amount",
          "type": "uint256"
        },
        {
          "internalType": "bytes",
          "name": "data",
          "type": "bytes"
        }
      ],
      "name": "onTokenTransfer",
      "outputs": [],
      "stateMutability": "nonpayable",
      "type": "function"
    },
    {
      "inputs": [
        {
          "internalType": "address",
          "name": "recipient",
          "type": "address"
        },
        {
          "internalType": "uint96",
          "name": "amount",
          "type": "uint96"
        }
      ],
      "name": "oracleWithdraw",
      "outputs": [],
      "stateMutability": "nonpayable",
      "type": "function"
    },
    {
      "inputs": [],
      "name": "owner",
      "outputs": [
        {
          "internalType": "address",
          "name": "",
          "type": "address"
        }
      ],
      "stateMutability": "view",
      "type": "function"
    },
    {
      "inputs": [
        {
          "internalType": "uint64",
          "name": "subId",
          "type": "uint64"
        }
      ],
      "name": "ownerCancelSubscription",
      "outputs": [],
      "stateMutability": "nonpayable",
      "type": "function"
    },
    {
      "inputs": [
        {
          "internalType": "uint64",
          "name": "subId",
          "type": "uint64"
        }
      ],
      "name": "pendingRequestExists",
      "outputs": [
        {
          "internalType": "bool",
          "name": "",
          "type": "bool"
        }
      ],
      "stateMutability": "view",
      "type": "function"
    },
    {
      "inputs": [
        {
          "internalType": "address",
          "name": "to",
          "type": "address"
        }
      ],
      "name": "recoverFunds",
      "outputs": [],
      "stateMutability": "nonpayable",
      "type": "function"
    },
    {
      "inputs": [
        {
          "internalType": "address",
          "name": "oracle",
          "type": "address"
        },
        {
          "internalType": "uint256[2]",
          "name": "publicProvingKey",
          "type": "uint256[2]"
        }
      ],
      "name": "registerProvingKey",
      "outputs": [],
      "stateMutability": "nonpayable",
      "type": "function"
    },
    {
      "inputs": [
        {
          "internalType": "uint64",
          "name": "subId",
          "type": "uint64"
        },
        {
          "internalType": "address",
          "name": "consumer",
          "type": "address"
        }
      ],
      "name": "removeConsumer",
      "outputs": [],
      "stateMutability": "nonpayable",
      "type": "function"
    },
    {
      "inputs": [
        {
          "internalType": "bytes32",
          "name": "keyHash",
          "type": "bytes32"
        },
        {
          "internalType": "uint64",
          "name": "subId",
          "type": "uint64"
        },
        {
          "internalType": "uint16",
          "name": "requestConfirmations",
          "type": "uint16"
        },
        {
          "internalType": "uint32",
          "name": "callbackGasLimit",
          "type": "uint32"
        },
        {
          "internalType": "uint32",
          "name": "numWords",
          "type": "uint32"
        }
      ],
      "name": "requestRandomWords",
      "outputs": [
        {
          "internalType": "uint256",
          "name": "",
          "type": "uint256"
        }
      ],
      "stateMutability": "nonpayable",
      "type": "function"
    },
    {
      "inputs": [
        {
          "internalType": "uint64",
          "name": "subId",
          "type": "uint64"
        },
        {
          "internalType": "address",
          "name": "newOwner",
          "type": "address"
        }
      ],
      "name": "requestSubscriptionOwnerTransfer",
      "outputs": [],
      "stateMutability": "nonpayable",
      "type": "function"
    },
    {
      "inputs": [
        {
          "internalType": "uint16",
          "name": "minimumRequestConfirmations",
          "type": "uint16"
        },
        {
          "internalType": "uint32",
          "name": "maxGasLimit",
          "type": "uint32"
        },
        {
          "internalType": "uint32",
          "name": "stalenessSeconds",
          "type": "uint32"
        },
        {
          "internalType": "uint32",
          "name": "gasAfterPaymentCalculation",
          "type": "uint32"
        },
        {
          "internalType": "int256",
          "name": "fallbackWeiPerUnitLink",
          "type": "int256"
        },
        {
          "components": [
            {
              "internalType": "uint32",
              "name": "fulfillmentFlatFeeLinkPPMTier1",
              "type": "uint32"
            },
            {
              "internalType": "uint32",
              "name": "fulfillmentFlatFeeLinkPPMTier2",
              "type": "uint32"
            },
            {
              "internalType": "uint32",
              "name": "fulfillmentFlatFeeLinkPPMTier3",
              "type": "uint32"
            },
            {
              "internalType": "uint32",
              "name": "fulfillmentFlatFeeLinkPPMTier4",
              "type": "uint32"
            },
            {
              "internalType": "uint32",
              "name": "fulfillmentFlatFeeLinkPPMTier5",
              "type": "uint32"
            },
            {
              "internalType": "uint24",
              "name": "reqsForTier2",
              "type": "uint24"
            },
            {
              "internalType": "uint24",
              "name": "reqsForTier3",
              "type": "uint24"
            },
            {
              "internalType": "uint24",
              "name": "reqsForTier4",
              "type": "uint24"
            },
            {
              "internalType": "uint24",
              "name": "reqsForTier5",
              "type": "uint24"
            }
          ],
          "internalType": "struct VRFCoordinatorV2.FeeConfig",
          "name": "feeConfig",
          "type": "tuple"
        }
      ],
      "name": "setConfig",
      "outputs": [],
      "stateMutability": "nonpayable",
      "type": "function"
    },
    {
      "inputs": [
        {
          "internalType": "address",
          "name": "to",
          "type": "address"
        }
      ],
      "name": "transferOwnership",
      "outputs": [],
      "stateMutability": "nonpayable",
      "type": "function"
    },
    {
      "inputs": [],
      "name": "typeAndVersion",
      "outputs": [
        {
          "internalType": "string",
          "name": "",
          "type": "string"
        }
      ],
      "stateMutability": "pure",
      "type": "function"
    }
  ],
  "bytecode": "0x60e06040523480156200001157600080fd5b5060405162008f3938038062008f3983398181016040528101906200003791906200032c565b338060008073ffffffffffffffffffffffffffffffffffffffff168273ffffffffffffffffffffffffffffffffffffffff161415620000ad576040517f08c379a0000000000000000000000000000000000000000000000000000000008152600401620000a490620003d6565b60405180910390fd5b816000806101000a81548173ffffffffffffffffffffffffffffffffffffffff021916908373ffffffffffffffffffffffffffffffffffffffff160217905550600073ffffffffffffffffffffffffffffffffffffffff168173ffffffffffffffffffffffffffffffffffffffff161462000134576200013381620001e560201b60201c565b5b5050508273ffffffffffffffffffffffffffffffffffffffff1660808173ffffffffffffffffffffffffffffffffffffffff1660601b815250508073ffffffffffffffffffffffffffffffffffffffff1660a08173ffffffffffffffffffffffffffffffffffffffff1660601b815250508173ffffffffffffffffffffffffffffffffffffffff1660c08173ffffffffffffffffffffffffffffffffffffffff1660601b81525050505050620004d0565b3373ffffffffffffffffffffffffffffffffffffffff168173ffffffffffffffffffffffffffffffffffffffff16141562000257576040517f08c379a00000000000000000000000000000000000000000000000000000000081526004016200024e90620003f8565b60405180910390fd5b80600160006101000a81548173ffffffffffffffffffffffffffffffffffffffff021916908373ffffffffffffffffffffffffffffffffffffffff1602179055508073ffffffffffffffffffffffffffffffffffffffff1660008054906101000a900473ffffffffffffffffffffffffffffffffffffffff1673ffffffffffffffffffffffffffffffffffffffff167fed8889f560326eb138920d842192f0eb3dd22b4f139c87a2c57538e05bae127860405160405180910390a350565b6000815190506200032681620004b6565b92915050565b6000806000606084860312156200034857620003476200045f565b5b6000620003588682870162000315565b93505060206200036b8682870162000315565b92505060406200037e8682870162000315565b9150509250925092565b6000620003976018836200041a565b9150620003a48262000464565b602082019050919050565b6000620003be6017836200041a565b9150620003cb826200048d565b602082019050919050565b60006020820190508181036000830152620003f18162000388565b9050919050565b600060208201905081810360008301526200041381620003af565b9050919050565b600082825260208201905092915050565b600062000438826200043f565b9050919050565b600073ffffffffffffffffffffffffffffffffffffffff82169050919050565b600080fd5b7f43616e6e6f7420736574206f776e657220746f207a65726f0000000000000000600082015250565b7f43616e6e6f74207472616e7366657220746f2073656c66000000000000000000600082015250565b620004c1816200042b565b8114620004cd57600080fd5b50565b60805160601c60a05160601c60c05160601c6189ff6200053a600039600081816119a30152614a820152600081816132a00152614ef6015260008181610dd4015281816118bc01528181612f9801528181613cef01528181613e2601526146f301526189ff6000f3fe608060405234801561001057600080fd5b506004361061021b5760003560e01c80636f64f03f11610125578063ad178361116100ad578063d2f9f9a71161007c578063d2f9f9a714610604578063d7ae1d3014610634578063e72f6e3014610650578063e82ad7d41461066c578063f2fde38b1461069c5761021b565b8063ad17836114610565578063af198b9714610583578063c3f909d4146105b3578063caf70c4a146105d45761021b565b80638da5cb5b116100f45780638da5cb5b146104be5780639f87fad7146104dc578063a21a23e4146104f8578063a47c769614610516578063a4c0ed36146105495761021b565b80636f64f03f146104605780637341c10c1461047c57806379ba50971461049857806382359740146104a25761021b565b8063356dac71116101a85780635fbbc0d2116101775780635fbbc0d2146103b257806364d51a2a146103d857806366316d8d146103f6578063689c45171461041257806369bcdb7d146104305761021b565b8063356dac711461032a57806340d6bb82146103485780634cb48a54146103665780635d3b1d30146103825761021b565b806308821d58116101ef57806308821d581461029657806312b58349146102b257806315c48b84146102d0578063181f5a77146102ee5780631b6b6d231461030c5761021b565b80620122911461022057806302bcc5b61461024057806304c357cb1461025c57806306bfa63714610278575b600080fd5b6102286106b8565b6040516102379392919061791e565b60405180910390f35b61025a60048036038101906102559190616b24565b610746565b005b61027660048036038101906102719190616b51565b610856565b005b610280610af8565b60405161028d9190617cd8565b60405180910390f35b6102b060048036038101906102ab91906168cb565b610b16565b005b6102ba610d60565b6040516102c79190617a03565b60405180910390f35b6102d8610d90565b6040516102e591906178cc565b60405180910390f35b6102f6610d95565b604051610303919061766a565b60405180910390f35b610314610dd2565b6040516103219190617634565b60405180910390f35b610332610df6565b60405161033f919061764f565b60405180910390f35b610350610e00565b60405161035d9190617bec565b60405180910390f35b610380600480360381019061037b9190616a3c565b610e06565b005b61039c6004803603810190610397919061697f565b611152565b6040516103a99190617a03565b60405180910390f35b6103ba6115e6565b6040516103cf99989796959493929190617c30565b60405180910390f35b6103e06116d3565b6040516103ed91906178cc565b60405180910390f35b610410600480360381019061040b919061688b565b6116d8565b005b61041a6119a1565b6040516104279190617619565b60405180910390f35b61044a60048036038101906104459190616aca565b6119c5565b6040516104579190617530565b60405180910390f35b61047a600480360381019061047591906167d7565b6119e2565b005b61049660048036038101906104919190616b51565b611ba0565b005b6104a0611f6c565b005b6104bc60048036038101906104b79190616b24565b612101565b005b6104c661246a565b6040516104d39190617464565b60405180910390f35b6104f660048036038101906104f19190616b51565b612493565b005b6105006129df565b60405161050d9190617cd8565b60405180910390f35b610530600480360381019061052b9190616b24565b612d06565b6040516105409493929190617d37565b60405180910390f35b610563600480360381019061055e9190616817565b612f4c565b005b61056d61329e565b60405161057a91906175fe565b60405180910390f35b61059d600480360381019061059891906169fa565b6132c2565b6040516105aa9190617d1c565b60405180910390f35b6105bb613807565b6040516105cb949392919061795c565b60405180910390f35b6105ee60048036038101906105e991906168f8565b613871565b6040516105fb9190617530565b60405180910390f35b61061e60048036038101906106199190616b24565b6138a1565b60405161062b9190617bec565b60405180910390f35b61064e60048036038101906106499190616b51565b613b22565b005b61066a600480360381019061066591906167aa565b613ce3565b005b61068660048036038101906106819190616b24565b613f12565b6040516106939190617515565b60405180910390f35b6106b660048036038101906106b191906167aa565b6141e4565b005b6000806060600b60000160009054906101000a900461ffff16600b60000160029054906101000a900463ffffffff1660078080548060200260200160405190810160405280929190818152602001828054801561073457602002820191906000526020600020905b815481526020019060010190808311610720575b50505050509050925092509250909192565b61074e6141f8565b600073ffffffffffffffffffffffffffffffffffffffff16600360008367ffffffffffffffff1667ffffffffffffffff16815260200190815260200160002060000160009054906101000a900473ffffffffffffffffffffffffffffffffffffffff1673ffffffffffffffffffffffffffffffffffffffff1614156107ff576040517f1f6a65b600000000000000000000000000000000000000000000000000000000815260040160405180910390fd5b61085381600360008467ffffffffffffffff1667ffffffffffffffff16815260200190815260200160002060000160009054906101000a900473ffffffffffffffffffffffffffffffffffffffff16614288565b50565b816000600360008367ffffffffffffffff1667ffffffffffffffff16815260200190815260200160002060000160009054906101000a900473ffffffffffffffffffffffffffffffffffffffff169050600073ffffffffffffffffffffffffffffffffffffffff168173ffffffffffffffffffffffffffffffffffffffff16141561090d576040517f1f6a65b600000000000000000000000000000000000000000000000000000000815260040160405180910390fd5b8073ffffffffffffffffffffffffffffffffffffffff163373ffffffffffffffffffffffffffffffffffffffff161461097d57806040517fd8a3fb520000000000000000000000000000000000000000000000000000000081526004016109749190617464565b60405180910390fd5b600b60000160069054906101000a900460ff16156109c7576040517fed3ba6a600000000000000000000000000000000000000000000000000000000815260040160405180910390fd5b8273ffffffffffffffffffffffffffffffffffffffff16600360008667ffffffffffffffff1667ffffffffffffffff16815260200190815260200160002060010160009054906101000a900473ffffffffffffffffffffffffffffffffffffffff1673ffffffffffffffffffffffffffffffffffffffff1614610af25782600360008667ffffffffffffffff1667ffffffffffffffff16815260200190815260200160002060010160006101000a81548173ffffffffffffffffffffffffffffffffffffffff021916908373ffffffffffffffffffffffffffffffffffffffff1602179055508367ffffffffffffffff167f69436ea6df009049404f564eff6622cd00522b0bd6a89efd9e52a355c4a879be3385604051610ae992919061747f565b60405180910390a25b50505050565b6000600560009054906101000a900467ffffffffffffffff16905090565b610b1e6141f8565b6000610b60826002806020026040519081016040528092919082600260200280828437600081840152601f19601f820116905080830192505050505050613871565b905060006006600083815260200190815260200160002060009054906101000a900473ffffffffffffffffffffffffffffffffffffffff169050600073ffffffffffffffffffffffffffffffffffffffff168173ffffffffffffffffffffffffffffffffffffffff161415610c0c57816040517f77f5b84c000000000000000000000000000000000000000000000000000000008152600401610c039190617530565b60405180910390fd5b6006600083815260200190815260200160002060006101000a81549073ffffffffffffffffffffffffffffffffffffffff021916905560005b600780549050811015610d0c578260078281548110610c6757610c666184db565b5b90600052602060002001541415610cf957600060076001600780549050610c8e919061802e565b81548110610c9f57610c9e6184db565b5b906000526020600020015490508060078381548110610cc157610cc06184db565b5b90600052602060002001819055506007805480610ce157610ce06184ac565b5b60019003818190600052602060002001600090559055505b8080610d049061836b565b915050610c45565b508073ffffffffffffffffffffffffffffffffffffffff167f72be339577868f868798bac2c93e52d6f034fef4689a9848996c14ebb7416c0d83604051610d539190617530565b60405180910390a2505050565b6000600560089054906101000a90046bffffffffffffffffffffffff166bffffffffffffffffffffffff16905090565b60c881565b60606040518060400160405280601681526020017f565246436f6f7264696e61746f72563220312e302e3000000000000000000000815250905090565b7f000000000000000000000000000000000000000000000000000000000000000081565b6000600a54905090565b6101f481565b610e0e6141f8565b60c861ffff168661ffff161115610e6157858660c86040517fa7386976000000000000000000000000000000000000000000000000000000008152600401610e58939291906178e7565b60405180910390fd5b60008213610ea657816040517f43d4cf66000000000000000000000000000000000000000000000000000000008152600401610e9d919061764f565b60405180910390fd5b6040518060a001604052808761ffff1681526020018663ffffffff1681526020016000151581526020018563ffffffff1681526020018463ffffffff16815250600b60008201518160000160006101000a81548161ffff021916908361ffff16021790555060208201518160000160026101000a81548163ffffffff021916908363ffffffff16021790555060408201518160000160066101000a81548160ff02191690831515021790555060608201518160000160076101000a81548163ffffffff021916908363ffffffff160217905550608082015181600001600b6101000a81548163ffffffff021916908363ffffffff16021790555090505080600c60008201518160000160006101000a81548163ffffffff021916908363ffffffff16021790555060208201518160000160046101000a81548163ffffffff021916908363ffffffff16021790555060408201518160000160086101000a81548163ffffffff021916908363ffffffff160217905550606082015181600001600c6101000a81548163ffffffff021916908363ffffffff16021790555060808201518160000160106101000a81548163ffffffff021916908363ffffffff16021790555060a08201518160000160146101000a81548162ffffff021916908362ffffff16021790555060c08201518160000160176101000a81548162ffffff021916908362ffffff16021790555060e082015181600001601a6101000a81548162ffffff021916908362ffffff16021790555061010082015181600001601d6101000a81548162ffffff021916908362ffffff16021790555090505081600a819055507fc21e3bd2e0b339d2848f0dd956947a88966c242c0c0c582a33137a5c1ceb5cb28686868686600c604051611142969594939291906179a1565b60405180910390a1505050505050565b6000600b60000160069054906101000a900460ff161561119e576040517fed3ba6a600000000000000000000000000000000000000000000000000000000815260040160405180910390fd5b600073ffffffffffffffffffffffffffffffffffffffff16600360008767ffffffffffffffff1667ffffffffffffffff16815260200190815260200160002060000160009054906101000a900473ffffffffffffffffffffffffffffffffffffffff1673ffffffffffffffffffffffffffffffffffffffff16141561124f576040517f1f6a65b600000000000000000000000000000000000000000000000000000000815260040160405180910390fd5b6000600260003373ffffffffffffffffffffffffffffffffffffffff1673ffffffffffffffffffffffffffffffffffffffff16815260200190815260200160002060008767ffffffffffffffff1667ffffffffffffffff16815260200190815260200160002060009054906101000a900467ffffffffffffffff16905060008167ffffffffffffffff16141561131e5785336040517ff0019fe6000000000000000000000000000000000000000000000000000000008152600401611315929190617cf3565b60405180910390fd5b600b60000160009054906101000a900461ffff1661ffff168561ffff16108061134f575060c861ffff168561ffff16115b156113a95784600b60000160009054906101000a900461ffff1660c86040517fa73869760000000000000000000000000000000000000000000000000000000081526004016113a0939291906178e7565b60405180910390fd5b600b60000160029054906101000a900463ffffffff1663ffffffff168463ffffffff1611156114265783600b60000160029054906101000a900463ffffffff166040517ff5d7e01e00000000000000000000000000000000000000000000000000000000815260040161141d929190617c07565b60405180910390fd5b6101f463ffffffff168363ffffffff16111561147d57826101f46040517f47386bec000000000000000000000000000000000000000000000000000000008152600401611474929190617c07565b60405180910390fd5b600060018261148c9190617f23565b905060008061149d8a338b8661482d565b9150915081438a8989336040516020016114bc96959493929190617af3565b6040516020818303038152906040528051906020012060096000848152602001908152602001600020819055503373ffffffffffffffffffffffffffffffffffffffff168967ffffffffffffffff168b7f63373d1c4696214b898952999c9aaec57dac1ee2723cec59bea6888f489a977285858d8d8d604051611543959493929190617aa0565b60405180910390a482600260003373ffffffffffffffffffffffffffffffffffffffff1673ffffffffffffffffffffffffffffffffffffffff16815260200190815260200160002060008b67ffffffffffffffff1667ffffffffffffffff16815260200190815260200160002060006101000a81548167ffffffffffffffff021916908367ffffffffffffffff1602179055508194505050505095945050505050565b6000806000806000806000806000600c60000160009054906101000a900463ffffffff16600c60000160049054906101000a900463ffffffff16600c60000160089054906101000a900463ffffffff16600c600001600c9054906101000a900463ffffffff16600c60000160109054906101000a900463ffffffff16600c60000160149054906101000a900462ffffff16600c60000160179054906101000a900462ffffff16600c600001601a9054906101000a900462ffffff16600c600001601d9054906101000a900462ffffff16985098509850985098509850985098509850909192939495969798565b606481565b600b60000160069054906101000a900460ff1615611722576040517fed3ba6a600000000000000000000000000000000000000000000000000000000815260040160405180910390fd5b806bffffffffffffffffffffffff16600860003373ffffffffffffffffffffffffffffffffffffffff1673ffffffffffffffffffffffffffffffffffffffff16815260200190815260200160002060009054906101000a90046bffffffffffffffffffffffff166bffffffffffffffffffffffff1610156117cf576040517ff4d678b800000000000000000000000000000000000000000000000000000000815260040160405180910390fd5b80600860003373ffffffffffffffffffffffffffffffffffffffff1673ffffffffffffffffffffffffffffffffffffffff16815260200190815260200160002060008282829054906101000a90046bffffffffffffffffffffffff166118359190618062565b92506101000a8154816bffffffffffffffffffffffff02191690836bffffffffffffffffffffffff16021790555080600560088282829054906101000a90046bffffffffffffffffffffffff1661188c9190618062565b92506101000a8154816bffffffffffffffffffffffff02191690836bffffffffffffffffffffffff1602179055507f000000000000000000000000000000000000000000000000000000000000000073ffffffffffffffffffffffffffffffffffffffff1663a9059cbb83836040518363ffffffff1660e01b81526004016119159291906174d1565b602060405180830381600087803b15801561192f57600080fd5b505af1158015611943573d6000803e3d6000fd5b505050506040513d601f19601f820116820180604052508101906119679190616925565b61199d576040517ff4d678b800000000000000000000000000000000000000000000000000000000815260040160405180910390fd5b5050565b7f000000000000000000000000000000000000000000000000000000000000000081565b600060096000838152602001908152602001600020549050919050565b6119ea6141f8565b6000611a2c826002806020026040519081016040528092919082600260200280828437600081840152601f19601f820116905080830192505050505050613871565b9050600073ffffffffffffffffffffffffffffffffffffffff166006600083815260200190815260200160002060009054906101000a900473ffffffffffffffffffffffffffffffffffffffff1673ffffffffffffffffffffffffffffffffffffffff1614611ad257806040517f4a0b8fa7000000000000000000000000000000000000000000000000000000008152600401611ac99190617530565b60405180910390fd5b826006600083815260200190815260200160002060006101000a81548173ffffffffffffffffffffffffffffffffffffffff021916908373ffffffffffffffffffffffffffffffffffffffff16021790555060078190806001815401808255809150506001900390600052602060002001600090919091909150558273ffffffffffffffffffffffffffffffffffffffff167fe729ae16526293f74ade739043022254f1489f616295a25bf72dfb4511ed73b882604051611b939190617530565b60405180910390a2505050565b816000600360008367ffffffffffffffff1667ffffffffffffffff16815260200190815260200160002060000160009054906101000a900473ffffffffffffffffffffffffffffffffffffffff169050600073ffffffffffffffffffffffffffffffffffffffff168173ffffffffffffffffffffffffffffffffffffffff161415611c57576040517f1f6a65b600000000000000000000000000000000000000000000000000000000815260040160405180910390fd5b8073ffffffffffffffffffffffffffffffffffffffff163373ffffffffffffffffffffffffffffffffffffffff1614611cc757806040517fd8a3fb52000000000000000000000000000000000000000000000000000000008152600401611cbe9190617464565b60405180910390fd5b600b60000160069054906101000a900460ff1615611d11576040517fed3ba6a600000000000000000000000000000000000000000000000000000000815260040160405180910390fd5b606461ffff16600360008667ffffffffffffffff1667ffffffffffffffff168152602001908152602001600020600201805490501415611d7d576040517f05a48e0f00000000000000000000000000000000000000000000000000000000815260040160405180910390fd5b6000600260008573ffffffffffffffffffffffffffffffffffffffff1673ffffffffffffffffffffffffffffffffffffffff16815260200190815260200160002060008667ffffffffffffffff1667ffffffffffffffff16815260200190815260200160002060009054906101000a900467ffffffffffffffff1667ffffffffffffffff1614611e0c57611f66565b6001600260008573ffffffffffffffffffffffffffffffffffffffff1673ffffffffffffffffffffffffffffffffffffffff16815260200190815260200160002060008667ffffffffffffffff1667ffffffffffffffff16815260200190815260200160002060006101000a81548167ffffffffffffffff021916908367ffffffffffffffff160217905550600360008567ffffffffffffffff1667ffffffffffffffff168152602001908152602001600020600201839080600181540180825580915050600190039060005260206000200160009091909190916101000a81548173ffffffffffffffffffffffffffffffffffffffff021916908373ffffffffffffffffffffffffffffffffffffffff1602179055508367ffffffffffffffff167f43dc749a04ac8fb825cbd514f7c0e13f13bc6f2ee66043b76629d51776cff8e084604051611f5d9190617464565b60405180910390a25b50505050565b600160009054906101000a900473ffffffffffffffffffffffffffffffffffffffff1673ffffffffffffffffffffffffffffffffffffffff163373ffffffffffffffffffffffffffffffffffffffff1614611ffc576040517f08c379a0000000000000000000000000000000000000000000000000000000008152600401611ff39061768c565b60405180910390fd5b60008060009054906101000a900473ffffffffffffffffffffffffffffffffffffffff169050336000806101000a81548173ffffffffffffffffffffffffffffffffffffffff021916908373ffffffffffffffffffffffffffffffffffffffff1602179055506000600160006101000a81548173ffffffffffffffffffffffffffffffffffffffff021916908373ffffffffffffffffffffffffffffffffffffffff1602179055503373ffffffffffffffffffffffffffffffffffffffff168173ffffffffffffffffffffffffffffffffffffffff167f8be0079c531659141344cd1fd0a4f28419497f9722a3daafe3b4186f6b6457e060405160405180910390a350565b600b60000160069054906101000a900460ff161561214b576040517fed3ba6a600000000000000000000000000000000000000000000000000000000815260040160405180910390fd5b600073ffffffffffffffffffffffffffffffffffffffff16600360008367ffffffffffffffff1667ffffffffffffffff16815260200190815260200160002060000160009054906101000a900473ffffffffffffffffffffffffffffffffffffffff1673ffffffffffffffffffffffffffffffffffffffff1614156121fc576040517f1f6a65b600000000000000000000000000000000000000000000000000000000815260040160405180910390fd5b3373ffffffffffffffffffffffffffffffffffffffff16600360008367ffffffffffffffff1667ffffffffffffffff16815260200190815260200160002060010160009054906101000a900473ffffffffffffffffffffffffffffffffffffffff1673ffffffffffffffffffffffffffffffffffffffff161461230057600360008267ffffffffffffffff1667ffffffffffffffff16815260200190815260200160002060010160009054906101000a900473ffffffffffffffffffffffffffffffffffffffff166040517fd084e9750000000000000000000000000000000000000000000000000000000081526004016122f79190617464565b60405180910390fd5b6000600360008367ffffffffffffffff1667ffffffffffffffff16815260200190815260200160002060000160009054906101000a900473ffffffffffffffffffffffffffffffffffffffff16905033600360008467ffffffffffffffff1667ffffffffffffffff16815260200190815260200160002060000160006101000a81548173ffffffffffffffffffffffffffffffffffffffff021916908373ffffffffffffffffffffffffffffffffffffffff1602179055506000600360008467ffffffffffffffff1667ffffffffffffffff16815260200190815260200160002060010160006101000a81548173ffffffffffffffffffffffffffffffffffffffff021916908373ffffffffffffffffffffffffffffffffffffffff1602179055508167ffffffffffffffff167f6f1dc65165ffffedfd8e507b4a0f1fcfdada045ed11f6c26ba27cedfe87802f0823360405161245e92919061747f565b60405180910390a25050565b60008060009054906101000a900473ffffffffffffffffffffffffffffffffffffffff16905090565b816000600360008367ffffffffffffffff1667ffffffffffffffff16815260200190815260200160002060000160009054906101000a900473ffffffffffffffffffffffffffffffffffffffff169050600073ffffffffffffffffffffffffffffffffffffffff168173ffffffffffffffffffffffffffffffffffffffff16141561254a576040517f1f6a65b600000000000000000000000000000000000000000000000000000000815260040160405180910390fd5b8073ffffffffffffffffffffffffffffffffffffffff163373ffffffffffffffffffffffffffffffffffffffff16146125ba57806040517fd8a3fb520000000000000000000000000000000000000000000000000000000081526004016125b19190617464565b60405180910390fd5b600b60000160069054906101000a900460ff1615612604576040517fed3ba6a600000000000000000000000000000000000000000000000000000000815260040160405180910390fd5b6000600260008573ffffffffffffffffffffffffffffffffffffffff1673ffffffffffffffffffffffffffffffffffffffff16815260200190815260200160002060008667ffffffffffffffff1667ffffffffffffffff16815260200190815260200160002060009054906101000a900467ffffffffffffffff1667ffffffffffffffff1614156126ce5783836040517ff0019fe60000000000000000000000000000000000000000000000000000000081526004016126c5929190617cf3565b60405180910390fd5b6000600360008667ffffffffffffffff1667ffffffffffffffff16815260200190815260200160002060020180548060200260200160405190810160405280929190818152602001828054801561277a57602002820191906000526020600020905b8160009054906101000a900473ffffffffffffffffffffffffffffffffffffffff1673ffffffffffffffffffffffffffffffffffffffff1681526020019060010190808311612730575b50505050509050600060018251612791919061802e565b905060005b8251811015612919578573ffffffffffffffffffffffffffffffffffffffff168382815181106127c9576127c86184db565b5b602002602001015173ffffffffffffffffffffffffffffffffffffffff161415612906576000838381518110612802576128016184db565b5b6020026020010151905080600360008a67ffffffffffffffff1667ffffffffffffffff1681526020019081526020016000206002018381548110612849576128486184db565b5b9060005260206000200160006101000a81548173ffffffffffffffffffffffffffffffffffffffff021916908373ffffffffffffffffffffffffffffffffffffffff160217905550600360008967ffffffffffffffff1667ffffffffffffffff1681526020019081526020016000206002018054806128cb576128ca6184ac565b5b6001900381819060005260206000200160006101000a81549073ffffffffffffffffffffffffffffffffffffffff0219169055905550612919565b80806129119061836b565b915050612796565b50600260008673ffffffffffffffffffffffffffffffffffffffff1673ffffffffffffffffffffffffffffffffffffffff16815260200190815260200160002060008767ffffffffffffffff1667ffffffffffffffff16815260200190815260200160002060006101000a81549067ffffffffffffffff02191690558567ffffffffffffffff167f182bff9831466789164ca77075fffd84916d35a8180ba73c27e45634549b445b866040516129cf9190617464565b60405180910390a2505050505050565b6000600b60000160069054906101000a900460ff1615612a2b576040517fed3ba6a600000000000000000000000000000000000000000000000000000000815260040160405180910390fd5b6005600081819054906101000a900467ffffffffffffffff1680929190612a51906183b4565b91906101000a81548167ffffffffffffffff021916908367ffffffffffffffff160217905550506000600560009054906101000a900467ffffffffffffffff16905060008067ffffffffffffffff811115612aaf57612aae61850a565b5b604051908082528060200260200182016040528015612add5781602001602082028036833780820191505090505b509050604051806040016040528060006bffffffffffffffffffffffff168152602001600067ffffffffffffffff16815250600460008467ffffffffffffffff1667ffffffffffffffff16815260200190815260200160002060008201518160000160006101000a8154816bffffffffffffffffffffffff02191690836bffffffffffffffffffffffff160217905550602082015181600001600c6101000a81548167ffffffffffffffff021916908367ffffffffffffffff16021790555090505060405180606001604052803373ffffffffffffffffffffffffffffffffffffffff168152602001600073ffffffffffffffffffffffffffffffffffffffff16815260200182815250600360008467ffffffffffffffff1667ffffffffffffffff16815260200190815260200160002060008201518160000160006101000a81548173ffffffffffffffffffffffffffffffffffffffff021916908373ffffffffffffffffffffffffffffffffffffffff16021790555060208201518160010160006101000a81548173ffffffffffffffffffffffffffffffffffffffff021916908373ffffffffffffffffffffffffffffffffffffffff1602179055506040820151816002019080519060200190612cb89291906161fe565b509050508167ffffffffffffffff167f464722b4166576d3dcbba877b999bc35cf911f4eaf434b7eba68fa113951d0bf33604051612cf69190617464565b60405180910390a2819250505090565b60008060006060600073ffffffffffffffffffffffffffffffffffffffff16600360008767ffffffffffffffff1667ffffffffffffffff16815260200190815260200160002060000160009054906101000a900473ffffffffffffffffffffffffffffffffffffffff1673ffffffffffffffffffffffffffffffffffffffff161415612dbe576040517f1f6a65b600000000000000000000000000000000000000000000000000000000815260040160405180910390fd5b600460008667ffffffffffffffff1667ffffffffffffffff16815260200190815260200160002060000160009054906101000a90046bffffffffffffffffffffffff16600460008767ffffffffffffffff1667ffffffffffffffff168152602001908152602001600020600001600c9054906101000a900467ffffffffffffffff16600360008867ffffffffffffffff1667ffffffffffffffff16815260200190815260200160002060000160009054906101000a900473ffffffffffffffffffffffffffffffffffffffff16600360008967ffffffffffffffff1667ffffffffffffffff16815260200190815260200160002060020180805480602002602001604051908101604052809291908181526020018280548015612f3657602002820191906000526020600020905b8160009054906101000a900473ffffffffffffffffffffffffffffffffffffffff1673ffffffffffffffffffffffffffffffffffffffff1681526020019060010190808311612eec575b5050505050905093509350935093509193509193565b600b60000160069054906101000a900460ff1615612f96576040517fed3ba6a600000000000000000000000000000000000000000000000000000000815260040160405180910390fd5b7f000000000000000000000000000000000000000000000000000000000000000073ffffffffffffffffffffffffffffffffffffffff163373ffffffffffffffffffffffffffffffffffffffff161461301b576040517f44b0e3c300000000000000000000000000000000000000000000000000000000815260040160405180910390fd5b60208282905014613058576040517f8129bbcd00000000000000000000000000000000000000000000000000000000815260040160405180910390fd5b600082828101906130699190616b24565b9050600073ffffffffffffffffffffffffffffffffffffffff16600360008367ffffffffffffffff1667ffffffffffffffff16815260200190815260200160002060000160009054906101000a900473ffffffffffffffffffffffffffffffffffffffff1673ffffffffffffffffffffffffffffffffffffffff16141561311c576040517f1f6a65b600000000000000000000000000000000000000000000000000000000815260040160405180910390fd5b6000600460008367ffffffffffffffff1667ffffffffffffffff16815260200190815260200160002060000160009054906101000a90046bffffffffffffffffffffffff166bffffffffffffffffffffffff16905084600460008467ffffffffffffffff1667ffffffffffffffff16815260200190815260200160002060000160008282829054906101000a90046bffffffffffffffffffffffff166131c29190617f61565b92506101000a8154816bffffffffffffffffffffffff02191690836bffffffffffffffffffffffff16021790555084600560088282829054906101000a90046bffffffffffffffffffffffff166132199190617f61565b92506101000a8154816bffffffffffffffffffffffff02191690836bffffffffffffffffffffffff1602179055508167ffffffffffffffff167fd39ec07f4e209f627a4c427971473820dc129761ba28de8906bd56f57101d4f88287846132809190617ecd565b60405161328e929190617a77565b60405180910390a2505050505050565b7f000000000000000000000000000000000000000000000000000000000000000081565b6000600b60000160069054906101000a900460ff161561330e576040517fed3ba6a600000000000000000000000000000000000000000000000000000000815260040160405180910390fd5b60005a90506000806000613322878761489f565b9250925092506000866060015163ffffffff1667ffffffffffffffff81111561334e5761334d61850a565b5b60405190808252806020026020018201604052801561337c5781602001602082028036833780820191505090505b50905060005b876060015163ffffffff168110156133f25782816040516020016133a7929190617a77565b6040516020818303038152906040528051906020012060001c8282815181106133d3576133d26184db565b5b60200260200101818152505080806133ea9061836b565b915050613382565b506009600084815260200190815260200160002060009055600080631fe543e360e01b8584604051602401613428929190617a47565b604051602081830303815290604052907bffffffffffffffffffffffffffffffffffffffffffffffffffffffff19166020820180517bffffffffffffffffffffffffffffffffffffffffffffffffffffffff838183161783525050505090506001600b60000160066101000a81548160ff02191690831515021790555060006134c08a6040015163ffffffff168b6080015184614bc7565b90506000600b60000160066101000a81548160ff0219169083151502179055506000600460008c6020015167ffffffffffffffff1667ffffffffffffffff168152602001908152602001600020600001600c9054906101000a900467ffffffffffffffff1690506001600460008d6020015167ffffffffffffffff1667ffffffffffffffff168152602001908152602001600020600001600c8282829054906101000a900467ffffffffffffffff166135799190617f23565b92506101000a81548167ffffffffffffffff021916908367ffffffffffffffff16021790555060006135d08a600b600001600b9054906101000a900463ffffffff1663ffffffff166135ca856138a1565b3a614c14565b9050806bffffffffffffffffffffffff16600460008e6020015167ffffffffffffffff1667ffffffffffffffff16815260200190815260200160002060000160009054906101000a90046bffffffffffffffffffffffff166bffffffffffffffffffffffff16101561366e576040517ff4d678b800000000000000000000000000000000000000000000000000000000815260040160405180910390fd5b80600460008e6020015167ffffffffffffffff1667ffffffffffffffff16815260200190815260200160002060000160008282829054906101000a90046bffffffffffffffffffffffff166136c39190618062565b92506101000a8154816bffffffffffffffffffffffff02191690836bffffffffffffffffffffffff1602179055508060086000600660008d815260200190815260200160002060009054906101000a900473ffffffffffffffffffffffffffffffffffffffff1673ffffffffffffffffffffffffffffffffffffffff1673ffffffffffffffffffffffffffffffffffffffff16815260200190815260200160002060008282829054906101000a90046bffffffffffffffffffffffff1661378a9190617f61565b92506101000a8154816bffffffffffffffffffffffff02191690836bffffffffffffffffffffffff160217905550877f7dffc5ae5ee4e2e4df1651cf6ad329a73cebdb728f37ea0187b9b17e036756e48883866040516137ec93929190617bb5565b60405180910390a2809a505050505050505050505092915050565b600080600080600b60000160009054906101000a900461ffff16600b60000160029054906101000a900463ffffffff16600b60000160079054906101000a900463ffffffff16600b600001600b9054906101000a900463ffffffff16935093509350935090919293565b60008160405160200161388491906174fa565b604051602081830303815290604052805190602001209050919050565b600080600c604051806101200160405290816000820160009054906101000a900463ffffffff1663ffffffff1663ffffffff1681526020016000820160049054906101000a900463ffffffff1663ffffffff1663ffffffff1681526020016000820160089054906101000a900463ffffffff1663ffffffff1663ffffffff16815260200160008201600c9054906101000a900463ffffffff1663ffffffff1663ffffffff1681526020016000820160109054906101000a900463ffffffff1663ffffffff1663ffffffff1681526020016000820160149054906101000a900462ffffff1662ffffff1662ffffff1681526020016000820160179054906101000a900462ffffff1662ffffff1662ffffff16815260200160008201601a9054906101000a900462ffffff1662ffffff1662ffffff16815260200160008201601d9054906101000a900462ffffff1662ffffff1662ffffff168152505090508267ffffffffffffffff16600011158015613a2c57508060a0015162ffffff168367ffffffffffffffff1611155b15613a3e578060000151915050613b1d565b8267ffffffffffffffff168160a0015162ffffff16108015613a7357508060c0015162ffffff168367ffffffffffffffff1611155b15613a85578060200151915050613b1d565b8267ffffffffffffffff168160c0015162ffffff16108015613aba57508060e0015162ffffff168367ffffffffffffffff1611155b15613acc578060400151915050613b1d565b8267ffffffffffffffff168160e0015162ffffff16108015613b02575080610100015162ffffff168367ffffffffffffffff1611155b15613b14578060600151915050613b1d565b80608001519150505b919050565b816000600360008367ffffffffffffffff1667ffffffffffffffff16815260200190815260200160002060000160009054906101000a900473ffffffffffffffffffffffffffffffffffffffff169050600073ffffffffffffffffffffffffffffffffffffffff168173ffffffffffffffffffffffffffffffffffffffff161415613bd9576040517f1f6a65b600000000000000000000000000000000000000000000000000000000815260040160405180910390fd5b8073ffffffffffffffffffffffffffffffffffffffff163373ffffffffffffffffffffffffffffffffffffffff1614613c4957806040517fd8a3fb52000000000000000000000000000000000000000000000000000000008152600401613c409190617464565b60405180910390fd5b600b60000160069054906101000a900460ff1615613c93576040517fed3ba6a600000000000000000000000000000000000000000000000000000000815260040160405180910390fd5b613c9c84613f12565b15613cd3576040517fb42f66e800000000000000000000000000000000000000000000000000000000815260040160405180910390fd5b613cdd8484614288565b50505050565b613ceb6141f8565b60007f000000000000000000000000000000000000000000000000000000000000000073ffffffffffffffffffffffffffffffffffffffff166370a08231306040518263ffffffff1660e01b8152600401613d469190617464565b60206040518083038186803b158015613d5e57600080fd5b505afa158015613d72573d6000803e3d6000fd5b505050506040513d601f19601f82011682018060405250810190613d969190616af7565b90506000600560089054906101000a90046bffffffffffffffffffffffff166bffffffffffffffffffffffff16905081811115613e0c5780826040517fa99da302000000000000000000000000000000000000000000000000000000008152600401613e03929190617a77565b60405180910390fd5b81811015613f0d5760008183613e22919061802e565b90507f000000000000000000000000000000000000000000000000000000000000000073ffffffffffffffffffffffffffffffffffffffff1663a9059cbb85836040518363ffffffff1660e01b8152600401613e7f9291906174a8565b602060405180830381600087803b158015613e9957600080fd5b505af1158015613ead573d6000803e3d6000fd5b505050506040513d601f19601f82011682018060405250810190613ed19190616925565b507f59bfc682b673f8cbf945f1e454df9334834abf7dfe7f92237ca29ecb9b4366008482604051613f039291906174a8565b60405180910390a1505b505050565b600080600360008467ffffffffffffffff1667ffffffffffffffff1681526020019081526020016000206040518060600160405290816000820160009054906101000a900473ffffffffffffffffffffffffffffffffffffffff1673ffffffffffffffffffffffffffffffffffffffff1673ffffffffffffffffffffffffffffffffffffffff1681526020016001820160009054906101000a900473ffffffffffffffffffffffffffffffffffffffff1673ffffffffffffffffffffffffffffffffffffffff1673ffffffffffffffffffffffffffffffffffffffff1681526020016002820180548060200260200160405190810160405280929190818152602001828054801561407857602002820191906000526020600020905b8160009054906101000a900473ffffffffffffffffffffffffffffffffffffffff1673ffffffffffffffffffffffffffffffffffffffff168152602001906001019080831161402e575b505050505081525050905060005b8160400151518110156141d85760005b6007805490508110156141c4576000614183600783815481106140bc576140bb6184db565b5b9060005260206000200154856040015185815181106140de576140dd6184db565b5b6020026020010151886002600089604001518981518110614102576141016184db565b5b602002602001015173ffffffffffffffffffffffffffffffffffffffff1673ffffffffffffffffffffffffffffffffffffffff16815260200190815260200160002060008b67ffffffffffffffff1667ffffffffffffffff16815260200190815260200160002060009054906101000a900467ffffffffffffffff1661482d565b5090506000801b6009600083815260200190815260200160002054146141b05760019450505050506141df565b5080806141bc9061836b565b915050614096565b5080806141d09061836b565b915050614086565b5060009150505b919050565b6141ec6141f8565b6141f581614d2f565b50565b60008054906101000a900473ffffffffffffffffffffffffffffffffffffffff1673ffffffffffffffffffffffffffffffffffffffff163373ffffffffffffffffffffffffffffffffffffffff1614614286576040517f08c379a000000000000000000000000000000000000000000000000000000000815260040161427d906176ec565b60405180910390fd5b565b600b60000160069054906101000a900460ff16156142d2576040517fed3ba6a600000000000000000000000000000000000000000000000000000000815260040160405180910390fd5b6000600360008467ffffffffffffffff1667ffffffffffffffff1681526020019081526020016000206040518060600160405290816000820160009054906101000a900473ffffffffffffffffffffffffffffffffffffffff1673ffffffffffffffffffffffffffffffffffffffff1673ffffffffffffffffffffffffffffffffffffffff1681526020016001820160009054906101000a900473ffffffffffffffffffffffffffffffffffffffff1673ffffffffffffffffffffffffffffffffffffffff1673ffffffffffffffffffffffffffffffffffffffff1681526020016002820180548060200260200160405190810160405280929190818152602001828054801561443757602002820191906000526020600020905b8160009054906101000a900473ffffffffffffffffffffffffffffffffffffffff1673ffffffffffffffffffffffffffffffffffffffff16815260200190600101908083116143ed575b50505050508152505090506000600460008567ffffffffffffffff1667ffffffffffffffff1681526020019081526020016000206040518060400160405290816000820160009054906101000a90046bffffffffffffffffffffffff166bffffffffffffffffffffffff166bffffffffffffffffffffffff16815260200160008201600c9054906101000a900467ffffffffffffffff1667ffffffffffffffff1667ffffffffffffffff1681525050905060008160000151905060005b8360400151518110156145ad57600260008560400151838151811061451c5761451b6184db565b5b602002602001015173ffffffffffffffffffffffffffffffffffffffff1673ffffffffffffffffffffffffffffffffffffffff16815260200190815260200160002060008767ffffffffffffffff1667ffffffffffffffff16815260200190815260200160002060006101000a81549067ffffffffffffffff021916905580806145a59061836b565b9150506144f4565b50600360008667ffffffffffffffff1667ffffffffffffffff168152602001908152602001600020600080820160006101000a81549073ffffffffffffffffffffffffffffffffffffffff02191690556001820160006101000a81549073ffffffffffffffffffffffffffffffffffffffff02191690556002820160006146349190616288565b5050600460008667ffffffffffffffff1667ffffffffffffffff168152602001908152602001600020600080820160006101000a8154906bffffffffffffffffffffffff021916905560008201600c6101000a81549067ffffffffffffffff0219169055505080600560088282829054906101000a90046bffffffffffffffffffffffff166146c39190618062565b92506101000a8154816bffffffffffffffffffffffff02191690836bffffffffffffffffffffffff1602179055507f000000000000000000000000000000000000000000000000000000000000000073ffffffffffffffffffffffffffffffffffffffff1663a9059cbb85836bffffffffffffffffffffffff166040518363ffffffff1660e01b815260040161475a9291906174a8565b602060405180830381600087803b15801561477457600080fd5b505af1158015614788573d6000803e3d6000fd5b505050506040513d601f19601f820116820180604052508101906147ac9190616925565b6147e2576040517ff4d678b800000000000000000000000000000000000000000000000000000000815260040160405180910390fd5b8467ffffffffffffffff167fe8ed5b475a5b5987aa9165e8731bb78043f39eee32ec5a1169a89e27fcd49815858360405161481e9291906174d1565b60405180910390a25050505050565b600080600086868686604051602001614849949392919061754b565b6040516020818303038152906040528051906020012060001c90508681604051602001614877929190617590565b6040516020818303038152906040528051906020012060001c81925092505094509492505050565b60008060006148b18560000151613871565b925060006006600085815260200190815260200160002060009054906101000a900473ffffffffffffffffffffffffffffffffffffffff169050600073ffffffffffffffffffffffffffffffffffffffff168173ffffffffffffffffffffffffffffffffffffffff16141561495d57836040517f77f5b84c0000000000000000000000000000000000000000000000000000000081526004016149549190617530565b60405180910390fd5b838660800151604051602001614974929190617590565b6040516020818303038152906040528051906020012060001c92506000600960008581526020019081526020016000205490506000801b8114156149e4576040517f3688124a00000000000000000000000000000000000000000000000000000000815260040160405180910390fd5b8386600001518760200151886040015189606001518a60800151604051602001614a1396959493929190617b54565b604051602081830303815290604052805190602001208114614a61576040517fd529142c00000000000000000000000000000000000000000000000000000000815260040160405180910390fd5b6000866000015167ffffffffffffffff164090506000801b811415614b7c577f000000000000000000000000000000000000000000000000000000000000000073ffffffffffffffffffffffffffffffffffffffff1663e9413d3888600001516040518263ffffffff1660e01b8152600401614add9190617cbd565b60206040518083038186803b158015614af557600080fd5b505afa158015614b09573d6000803e3d6000fd5b505050506040513d601f19601f82011682018060405250810190614b2d9190616952565b90506000801b811415614b7b5786600001516040517f175dadad000000000000000000000000000000000000000000000000000000008152600401614b729190617cbd565b60405180910390fd5b5b6000886080015182604051602001614b95929190617438565b6040516020818303038152906040528051906020012060001c9050614bba8982614e5c565b9450505050509250925092565b60005a611388811015614bd957600080fd5b611388810390508460408204820311614bf157600080fd5b833b614bfc57600080fd5b6000808451602086016000888af19150509392505050565b600080614c1f614ec9565b905060008113614c6657806040517f43d4cf66000000000000000000000000000000000000000000000000000000008152600401614c5d919061764f565b60405180910390fd5b6000815a8888614c769190617ecd565b614c80919061802e565b85670de0b6b3a7640000614c949190617fd4565b614c9e9190617fd4565b614ca89190617fa3565b905060008563ffffffff1664e8d4a51000614cc39190617fd4565b9050806b033b2e3c9fd0803ce8000000614cdd919061802e565b821115614d16576040517fe80fa38100000000000000000000000000000000000000000000000000000000815260040160405180910390fd5b8082614d229190617ecd565b9350505050949350505050565b3373ffffffffffffffffffffffffffffffffffffffff168173ffffffffffffffffffffffffffffffffffffffff161415614d9e576040517f08c379a0000000000000000000000000000000000000000000000000000000008152600401614d959061782c565b60405180910390fd5b80600160006101000a81548173ffffffffffffffffffffffffffffffffffffffff021916908373ffffffffffffffffffffffffffffffffffffffff1602179055508073ffffffffffffffffffffffffffffffffffffffff1660008054906101000a900473ffffffffffffffffffffffffffffffffffffffff1673ffffffffffffffffffffffffffffffffffffffff167fed8889f560326eb138920d842192f0eb3dd22b4f139c87a2c57538e05bae127860405160405180910390a350565b6000614e908360000151846020015185604001518660600151868860a001518960c001518a60e001518b6101000151614fd5565b60038360200151604051602001614ea8929190617a1e565b6040516020818303038152906040528051906020012060001c905092915050565b600080600b60000160079054906101000a900463ffffffff1690506000808263ffffffff161190506000807f000000000000000000000000000000000000000000000000000000000000000073ffffffffffffffffffffffffffffffffffffffff1663feaf968c6040518163ffffffff1660e01b815260040160a06040518083038186803b158015614f5a57600080fd5b505afa158015614f6e573d6000803e3d6000fd5b505050506040513d601f19601f82011682018060405250810190614f929190616b91565b9091929350909150508093508192505050828015614fc057508142614fb7919061802e565b8463ffffffff16105b15614fcb57600a5490505b8094505050505090565b614fde896151c2565b61501d576040517f08c379a0000000000000000000000000000000000000000000000000000000008152600401615014906177cc565b60405180910390fd5b615026886151c2565b615065576040517f08c379a000000000000000000000000000000000000000000000000000000000815260040161505c906177ec565b60405180910390fd5b61506e836151c2565b6150ad576040517f08c379a00000000000000000000000000000000000000000000000000000000081526004016150a4906177ac565b60405180910390fd5b6150b6826151c2565b6150f5576040517f08c379a00000000000000000000000000000000000000000000000000000000081526004016150ec906178ac565b60405180910390fd5b615101878a8887615343565b615140576040517f08c379a00000000000000000000000000000000000000000000000000000000081526004016151379061776c565b60405180910390fd5b600061514c8a87615561565b9050600061515f898b878b8689896155f3565b90506000615170838d8d8a8661577a565b9050808a146151b4576040517f08c379a00000000000000000000000000000000000000000000000000000000081526004016151ab9061780c565b60405180910390fd5b505050505050505050505050565b60007ffffffffffffffffffffffffffffffffffffffffffffffffffffffffefffffc2f826000600281106151f9576151f86184db565b5b60200201511061523e576040517f08c379a00000000000000000000000000000000000000000000000000000000081526004016152359061772c565b60405180910390fd5b7ffffffffffffffffffffffffffffffffffffffffffffffffffffffffefffffc2f82600160028110615273576152726184db565b5b6020020151106152b8576040517f08c379a00000000000000000000000000000000000000000000000000000000081526004016152af9061788c565b60405180910390fd5b7ffffffffffffffffffffffffffffffffffffffffffffffffffffffffefffffc2f806152e7576152e661847d565b5b826001600281106152fb576152fa6184db565b5b602002015183600160028110615314576153136184db565b5b60200201510961533b83600060028110615331576153306184db565b5b60200201516157bc565b149050919050565b60008073ffffffffffffffffffffffffffffffffffffffff168273ffffffffffffffffffffffffffffffffffffffff1614156153b4576040517f08c379a00000000000000000000000000000000000000000000000000000000081526004016153ab9061774c565b60405180910390fd5b6000806002866001600281106153cd576153cc6184db565b5b6020020151816153e0576153df61847d565b5b06146153ed57601c6153f0565b601b5b905060007ffffffffffffffffffffffffffffffffebaaedce6af48a03bbfd25e8cd0364141806154235761542261847d565b5b8587600060028110615438576154376184db565b5b6020020151097ffffffffffffffffffffffffffffffffebaaedce6af48a03bbfd25e8cd03641410360001b905060007ffffffffffffffffffffffffffffffffebaaedce6af48a03bbfd25e8cd0364141806154965761549561847d565b5b876000600281106154aa576154a96184db565b5b6020020151890960001b90506000600183858a6000600281106154d0576154cf6184db565b5b602002015160001b85604051600081526020016040526040516154f694939291906175b9565b6020604051602081039080840390855afa158015615518573d6000803e3d6000fd5b5050506020604051035190508573ffffffffffffffffffffffffffffffffffffffff168173ffffffffffffffffffffffffffffffffffffffff1614945050505050949350505050565b6155696162a9565b61559660018484604051602001615582939291906173fb565b60405160208183030381529060405261585f565b90505b6155a2816151c2565b6155ed576155e6816000600281106155bd576155bc6184db565b5b60200201516040516020016155d29190617370565b60405160208183030381529060405261585f565b9050615599565b92915050565b6155fb6162a9565b7ffffffffffffffffffffffffffffffffffffffffffffffffffffffffefffffc2f836000600281106156305761562f6184db565b5b6020020151816156435761564261847d565b5b067ffffffffffffffffffffffffffffffffffffffffffffffffffffffffefffffc2f87600060028110615679576156786184db565b5b60200201518161568c5761568b61847d565b5b0614156156ce576040517f08c379a00000000000000000000000000000000000000000000000000000000081526004016156c5906176cc565b60405180910390fd5b6156d9878988615963565b615718576040517f08c379a000000000000000000000000000000000000000000000000000000000815260040161570f9061784c565b60405180910390fd5b615723848685615963565b615762576040517f08c379a0000000000000000000000000000000000000000000000000000000008152600401615759906176ac565b60405180910390fd5b61576d868484615afb565b9050979650505050505050565b6000600286868685876040516020016157989695949392919061738b565b6040516020818303038152906040528051906020012060001c905095945050505050565b6000807ffffffffffffffffffffffffffffffffffffffffffffffffffffffffefffffc2f806157ee576157ed61847d565b5b7ffffffffffffffffffffffffffffffffffffffffffffffffffffffffefffffc2f8061581d5761581c61847d565b5b848509840990507ffffffffffffffffffffffffffffffffffffffffffffffffffffffffefffffc2f806158535761585261847d565b5b60078208915050919050565b6158676162a9565b61587082615c77565b81600060028110615884576158836184db565b5b6020020181815250506158b66158b1826000600281106158a7576158a66184db565b5b60200201516157bc565b615ce4565b816001600281106158ca576158c96184db565b5b60200201818152505060016002826001600281106158eb576158ea6184db565b5b6020020151816158fe576158fd61847d565b5b06141561595e5780600160028110615919576159186184db565b5b60200201517ffffffffffffffffffffffffffffffffffffffffffffffffffffffffefffffc2f0381600160028110615954576159536184db565b5b6020020181815250505b919050565b6000808314156159a8576040517f08c379a000000000000000000000000000000000000000000000000000000000815260040161599f9061786c565b60405180910390fd5b6000846000600281106159be576159bd6184db565b5b602002015190506000806002876001600281106159de576159dd6184db565b5b60200201516159ed919061841d565b146159f957601c6159fc565b601b5b905060007ffffffffffffffffffffffffffffffffebaaedce6af48a03bbfd25e8cd036414180615a2f57615a2e61847d565b5b83870960001b9050600060016000801b848660001b8560405160008152602001604052604051615a6294939291906175b9565b6020604051602081039080840390855afa158015615a84573d6000803e3d6000fd5b505050602060405103519050600086604051602001615aa39190617355565b6040516020818303038152906040528051906020012060001c90508073ffffffffffffffffffffffffffffffffffffffff168273ffffffffffffffffffffffffffffffffffffffff1614955050505050509392505050565b615b036162a9565b6000806000615b7487600060028110615b1f57615b1e6184db565b5b602002015188600160028110615b3857615b376184db565b5b602002015188600060028110615b5157615b506184db565b5b602002015189600160028110615b6a57615b696184db565b5b6020020151615d27565b80935081945082955050505060017ffffffffffffffffffffffffffffffffffffffffffffffffffffffffefffffc2f80615bb157615bb061847d565b5b86830914615bf4576040517f08c379a0000000000000000000000000000000000000000000000000000000008152600401615beb9061778c565b60405180910390fd5b60405180604001604052807ffffffffffffffffffffffffffffffffffffffffffffffffffffffffefffffc2f80615c2e57615c2d61847d565b5b87860981526020017ffffffffffffffffffffffffffffffffffffffffffffffffffffffffefffffc2f80615c6557615c6461847d565b5b87850981525093505050509392505050565b6000818051906020012060001c90505b7ffffffffffffffffffffffffffffffffffffffffffffffffffffffffefffffc2f8110615cdf5780604051602001615cbf9190617370565b6040516020818303038152906040528051906020012060001c9050615c87565b919050565b6000615d2082600260017ffffffffffffffffffffffffffffffffffffffffffffffffffffffffefffffc2f615d199190617ecd565b901c615f1e565b9050919050565b60008060008060006001809150915060007ffffffffffffffffffffffffffffffffffffffffffffffffffffffffefffffc2f80615d6757615d6661847d565b5b897ffffffffffffffffffffffffffffffffffffffffffffffffffffffffefffffc2f038808905060007ffffffffffffffffffffffffffffffffffffffffffffffffffffffffefffffc2f80615dbf57615dbe61847d565b5b8b7ffffffffffffffffffffffffffffffffffffffffffffffffffffffffefffffc2f038a0890506000615df48383858561607e565b8092508199505050615e0888828e886160f6565b8092508199505050615e1c88828c876160f6565b80925081995050506000615e328d878b856160f6565b8092508199505050615e468882868661607e565b8092508199505050615e5a88828e896160f6565b8092508199505050808214615f0a577ffffffffffffffffffffffffffffffffffffffffffffffffffffffffefffffc2f80615e9857615e9761847d565b5b818a0998507ffffffffffffffffffffffffffffffffffffffffffffffffffffffffefffffc2f80615ecc57615ecb61847d565b5b82890997507ffffffffffffffffffffffffffffffffffffffffffffffffffffffffefffffc2f80615f0057615eff61847d565b5b8183099650615f0e565b8196505b5050505050509450945094915050565b600080615f296162cb565b602081600060068110615f3f57615f3e6184db565b5b602002018181525050602081600160068110615f5e57615f5d6184db565b5b602002018181525050602081600260068110615f7d57615f7c6184db565b5b6020020181815250508481600360068110615f9b57615f9a6184db565b5b6020020181815250508381600460068110615fb957615fb86184db565b5b6020020181815250507ffffffffffffffffffffffffffffffffffffffffffffffffffffffffefffffc2f81600560068110615ff757615ff66184db565b5b6020020181815250506160086162ed565b60208160c0846005600019fa9250600083141561605a576040517f08c379a00000000000000000000000000000000000000000000000000000000081526004016160519061770c565b60405180910390fd5b8060006001811061606e5761606d6184db565b5b6020020151935050505092915050565b6000807ffffffffffffffffffffffffffffffffffffffffffffffffffffffffefffffc2f806160b0576160af61847d565b5b8487097ffffffffffffffffffffffffffffffffffffffffffffffffffffffffefffffc2f806160e2576160e161847d565b5b848709809250819350505094509492505050565b60008060007ffffffffffffffffffffffffffffffffffffffffffffffffffffffffefffffc2f8061612a5761612961847d565b5b878509905060007ffffffffffffffffffffffffffffffffffffffffffffffffffffffffefffffc2f806161605761615f61847d565b5b87877ffffffffffffffffffffffffffffffffffffffffffffffffffffffffefffffc2f030990507ffffffffffffffffffffffffffffffffffffffffffffffffffffffffefffffc2f806161b6576161b561847d565b5b8183087ffffffffffffffffffffffffffffffffffffffffffffffffffffffffefffffc2f806161e8576161e761847d565b5b8689098094508195505050505094509492505050565b828054828255906000526020600020908101928215616277579160200282015b828111156162765782518260006101000a81548173ffffffffffffffffffffffffffffffffffffffff021916908373ffffffffffffffffffffffffffffffffffffffff1602179055509160200191906001019061621e565b5b509050616284919061630f565b5090565b50805460008255906000526020600020908101906162a6919061630f565b50565b6040518060400160405280600290602082028036833780820191505090505090565b6040518060c00160405280600690602082028036833780820191505090505090565b6040518060200160405280600190602082028036833780820191505090505090565b5b80821115616328576000816000905550600101616310565b5090565b600061633f61633a84617da8565b617d83565b9050808285602086028201111561635957616358618548565b5b60005b85811015616389578161636f888261672c565b84526020840193506020830192505060018101905061635c565b5050509392505050565b6000813590506163a2816188cc565b92915050565b6000819050826020600202820111156163c4576163c3618548565b5b92915050565b600082601f8301126163df576163de61853e565b5b60026163ec84828561632c565b91505092915050565b600081519050616404816188e3565b92915050565b600081359050616419816188fa565b92915050565b60008151905061642e816188fa565b92915050565b60008083601f84011261644a5761644961853e565b5b8235905067ffffffffffffffff81111561646757616466618539565b5b60208301915083600182028301111561648357616482618548565b5b9250929050565b60008135905061649981618911565b92915050565b6000815190506164ae81618911565b92915050565b600061012082840312156164cb576164ca618543565b5b6164d6610120617d83565b905060006164e684828501616756565b60008301525060206164fa84828501616756565b602083015250604061650e84828501616756565b604083015250606061652284828501616756565b606083015250608061653684828501616756565b60808301525060a061654a84828501616717565b60a08301525060c061655e84828501616717565b60c08301525060e061657284828501616717565b60e08301525061010061658784828501616717565b6101008301525092915050565b60006101a082840312156165ab576165aa618543565b5b6165b6610120617d83565b905060006165c6848285016163ca565b60008301525060406165da848285016163ca565b60208301525060806165ee8482850161672c565b60408301525060a06166028482850161672c565b60608301525060c06166168482850161672c565b60808301525060e061662a84828501616393565b60a08301525061010061663f848285016163ca565b60c083015250610140616654848285016163ca565b60e0830152506101806166698482850161672c565b6101008301525092915050565b600060a0828403121561668c5761668b618543565b5b61669660a0617d83565b905060006166a68482850161676b565b60008301525060206166ba8482850161676b565b60208301525060406166ce84828501616756565b60408301525060606166e284828501616756565b60608301525060806166f684828501616393565b60808301525092915050565b60008135905061671181618928565b92915050565b6000813590506167268161893f565b92915050565b60008135905061673b81618956565b92915050565b60008151905061675081618956565b92915050565b6000813590506167658161896d565b92915050565b60008135905061677a81618984565b92915050565b60008151905061678f8161899b565b92915050565b6000813590506167a4816189b2565b92915050565b6000602082840312156167c0576167bf618552565b5b60006167ce84828501616393565b91505092915050565b600080606083850312156167ee576167ed618552565b5b60006167fc85828601616393565b925050602061680d858286016163a8565b9150509250929050565b6000806000806060858703121561683157616830618552565b5b600061683f87828801616393565b94505060206168508782880161672c565b935050604085013567ffffffffffffffff8111156168715761687061854d565b5b61687d87828801616434565b925092505092959194509250565b600080604083850312156168a2576168a1618552565b5b60006168b085828601616393565b92505060206168c185828601616795565b9150509250929050565b6000604082840312156168e1576168e0618552565b5b60006168ef848285016163a8565b91505092915050565b60006040828403121561690e5761690d618552565b5b600061691c848285016163ca565b91505092915050565b60006020828403121561693b5761693a618552565b5b6000616949848285016163f5565b91505092915050565b60006020828403121561696857616967618552565b5b60006169768482850161641f565b91505092915050565b600080600080600060a0868803121561699b5761699a618552565b5b60006169a98882890161640a565b95505060206169ba8882890161676b565b94505060406169cb88828901616702565b93505060606169dc88828901616756565b92505060806169ed88828901616756565b9150509295509295909350565b6000806102408385031215616a1257616a11618552565b5b6000616a2085828601616594565b9250506101a0616a3285828601616676565b9150509250929050565b6000806000806000806101c08789031215616a5a57616a59618552565b5b6000616a6889828a01616702565b9650506020616a7989828a01616756565b9550506040616a8a89828a01616756565b9450506060616a9b89828a01616756565b9350506080616aac89828a0161648a565b92505060a0616abd89828a016164b4565b9150509295509295509295565b600060208284031215616ae057616adf618552565b5b6000616aee8482850161672c565b91505092915050565b600060208284031215616b0d57616b0c618552565b5b6000616b1b84828501616741565b91505092915050565b600060208284031215616b3a57616b39618552565b5b6000616b488482850161676b565b91505092915050565b60008060408385031215616b6857616b67618552565b5b6000616b768582860161676b565b9250506020616b8785828601616393565b9150509250929050565b600080600080600060a08688031215616bad57616bac618552565b5b6000616bbb88828901616780565b9550506020616bcc8882890161649f565b9450506040616bdd88828901616741565b9350506060616bee88828901616741565b9250506080616bff88828901616780565b9150509295509295909350565b6000616c188383616c6c565b60208301905092915050565b6000616c308383616e78565b60208301905092915050565b6000616c4883836172a8565b60208301905092915050565b6000616c6083836172c6565b60208301905092915050565b616c75816180b5565b82525050565b616c84816180b5565b82525050565b616c9b616c96826180b5565b6183e5565b82525050565b6000616cac82617e08565b616cb68185617e73565b9350616cc183617dce565b8060005b83811015616cf2578151616cd98882616c0c565b9750616ce483617e3f565b925050600181019050616cc5565b5085935050505092915050565b6000616d0a82617e13565b616d148185617e84565b9350616d1f83617dde565b8060005b83811015616d50578151616d378882616c24565b9750616d4283617e4c565b925050600181019050616d23565b5085935050505092915050565b616d6681617e1e565b616d708184617e95565b9250616d7b82617dee565b8060005b83811015616dac578151616d938782616c3c565b9650616d9e83617e59565b925050600181019050616d7f565b505050505050565b616dbd81617e1e565b616dc78184617ea0565b9250616dd282617dee565b8060005b83811015616e03578151616dea8782616c54565b9650616df583617e59565b925050600181019050616dd6565b505050505050565b6000616e1682617e29565b616e208185617eab565b9350616e2b83617df8565b8060005b83811015616e5c578151616e438882616c3c565b9750616e4e83617e66565b925050600181019050616e2f565b5085935050505092915050565b616e72816180c7565b82525050565b616e81816180d3565b82525050565b616e90816180d3565b82525050565b616ea7616ea2826180d3565b6183f7565b82525050565b616eb68161818d565b82525050565b616ec5816181b1565b82525050565b616ed4816181d5565b82525050565b616ee3816180dd565b82525050565b6000616ef482617e34565b616efe8185617ebc565b9350616f0e81856020860161821d565b616f1781618557565b840191505092915050565b6000616f2f601683617ebc565b9150616f3a826185ea565b602082019050919050565b6000616f52601783617ebc565b9150616f5d82618613565b602082019050919050565b6000616f75601e83617ebc565b9150616f808261863c565b602082019050919050565b6000616f98601683617ebc565b9150616fa382618665565b602082019050919050565b6000616fbb601283617ebc565b9150616fc68261868e565b602082019050919050565b6000616fde601283617ebc565b9150616fe9826186b7565b602082019050919050565b6000617001600b83617ebc565b915061700c826186e0565b602082019050919050565b6000617024601983617ebc565b915061702f82618709565b602082019050919050565b6000617047601983617ebc565b915061705282618732565b602082019050919050565b600061706a601d83617ebc565b91506170758261875b565b602082019050919050565b600061708d601a83617ebc565b915061709882618784565b602082019050919050565b60006170b0601583617ebc565b91506170bb826187ad565b602082019050919050565b60006170d3600d83617ebc565b91506170de826187d6565b602082019050919050565b60006170f6601783617ebc565b9150617101826187ff565b602082019050919050565b6000617119601683617ebc565b915061712482618828565b602082019050919050565b600061713c600b83617ebc565b915061714782618851565b602082019050919050565b600061715f601283617ebc565b915061716a8261887a565b602082019050919050565b6000617182601c83617ebc565b915061718d826188a3565b602082019050919050565b610120820160008083015490506171ae81618250565b6171bb60008601826172ec565b506171c581618306565b6171d260208601826172ec565b506171dc81618320565b6171e960408601826172ec565b506171f38161826a565b61720060608601826172ec565b5061720a81618284565b61721760808601826172ec565b506172218161829e565b61722e60a086018261728a565b50617238816182b8565b61724560c086018261728a565b5061724f816182d2565b61725c60e086018261728a565b50617266816182ec565b61727461010086018261728a565b5050505050565b617284816180e7565b82525050565b61729381618115565b82525050565b6172a281618115565b82525050565b6172b181618124565b82525050565b6172c081618124565b82525050565b6172cf81618124565b82525050565b6172e66172e182618124565b618413565b82525050565b6172f58161812e565b82525050565b6173048161812e565b82525050565b617313816181f9565b82525050565b6173228161813e565b82525050565b61733181618152565b82525050565b6173408161820b565b82525050565b61734f81618175565b82525050565b60006173618284616db4565b60408201915081905092915050565b600061737c82846172d5565b60208201915081905092915050565b600061739782896172d5565b6020820191506173a78288616db4565b6040820191506173b78287616db4565b6040820191506173c78286616db4565b6040820191506173d78285616db4565b6040820191506173e78284616c8a565b601482019150819050979650505050505050565b600061740782866172d5565b6020820191506174178285616db4565b60408201915061742782846172d5565b602082019150819050949350505050565b600061744482856172d5565b6020820191506174548284616e96565b6020820191508190509392505050565b60006020820190506174796000830184616c7b565b92915050565b60006040820190506174946000830185616c7b565b6174a16020830184616c7b565b9392505050565b60006040820190506174bd6000830185616c7b565b6174ca60208301846172b7565b9392505050565b60006040820190506174e66000830185616c7b565b6174f36020830184617337565b9392505050565b600060408201905061750f6000830184616d5d565b92915050565b600060208201905061752a6000830184616e69565b92915050565b60006020820190506175456000830184616e87565b92915050565b60006080820190506175606000830187616e87565b61756d6020830186616c7b565b61757a6040830185617319565b6175876060830184617319565b95945050505050565b60006040820190506175a56000830185616e87565b6175b260208301846172b7565b9392505050565b60006080820190506175ce6000830187616e87565b6175db6020830186617328565b6175e86040830185616e87565b6175f56060830184616e87565b95945050505050565b60006020820190506176136000830184616ead565b92915050565b600060208201905061762e6000830184616ebc565b92915050565b60006020820190506176496000830184616ecb565b92915050565b60006020820190506176646000830184616eda565b92915050565b600060208201905081810360008301526176848184616ee9565b905092915050565b600060208201905081810360008301526176a581616f22565b9050919050565b600060208201905081810360008301526176c581616f45565b9050919050565b600060208201905081810360008301526176e581616f68565b9050919050565b6000602082019050818103600083015261770581616f8b565b9050919050565b6000602082019050818103600083015261772581616fae565b9050919050565b6000602082019050818103600083015261774581616fd1565b9050919050565b6000602082019050818103600083015261776581616ff4565b9050919050565b6000602082019050818103600083015261778581617017565b9050919050565b600060208201905081810360008301526177a58161703a565b9050919050565b600060208201905081810360008301526177c58161705d565b9050919050565b600060208201905081810360008301526177e581617080565b9050919050565b60006020820190508181036000830152617805816170a3565b9050919050565b60006020820190508181036000830152617825816170c6565b9050919050565b60006020820190508181036000830152617845816170e9565b9050919050565b600060208201905081810360008301526178658161710c565b9050919050565b600060208201905081810360008301526178858161712f565b9050919050565b600060208201905081810360008301526178a581617152565b9050919050565b600060208201905081810360008301526178c581617175565b9050919050565b60006020820190506178e1600083018461727b565b92915050565b60006060820190506178fc600083018661727b565b617909602083018561727b565b617916604083018461727b565b949350505050565b6000606082019050617933600083018661727b565b61794060208301856172fb565b81810360408301526179528184616cff565b9050949350505050565b6000608082019050617971600083018761727b565b61797e60208301866172fb565b61798b60408301856172fb565b61799860608301846172fb565b95945050505050565b60006101c0820190506179b7600083018961727b565b6179c460208301886172fb565b6179d160408301876172fb565b6179de60608301866172fb565b6179eb6080830185616eda565b6179f860a0830184617198565b979650505050505050565b6000602082019050617a1860008301846172b7565b92915050565b6000606082019050617a3360008301856172b7565b617a406020830184616d5d565b9392505050565b6000604082019050617a5c60008301856172b7565b8181036020830152617a6e8184616e0b565b90509392505050565b6000604082019050617a8c60008301856172b7565b617a9960208301846172b7565b9392505050565b600060a082019050617ab560008301886172b7565b617ac260208301876172b7565b617acf604083018661727b565b617adc60608301856172fb565b617ae960808301846172fb565b9695505050505050565b600060c082019050617b0860008301896172b7565b617b1560208301886172b7565b617b226040830187617319565b617b2f60608301866172fb565b617b3c60808301856172fb565b617b4960a0830184616c7b565b979650505050505050565b600060c082019050617b6960008301896172b7565b617b766020830188617319565b617b836040830187617319565b617b9060608301866172fb565b617b9d60808301856172fb565b617baa60a0830184616c7b565b979650505050505050565b6000606082019050617bca60008301866172b7565b617bd76020830185617346565b617be46040830184616e69565b949350505050565b6000602082019050617c0160008301846172fb565b92915050565b6000604082019050617c1c60008301856172fb565b617c2960208301846172fb565b9392505050565b600061012082019050617c46600083018c6172fb565b617c53602083018b6172fb565b617c60604083018a6172fb565b617c6d60608301896172fb565b617c7a60808301886172fb565b617c8760a0830187617299565b617c9460c0830186617299565b617ca160e0830185617299565b617caf610100830184617299565b9a9950505050505050505050565b6000602082019050617cd2600083018461730a565b92915050565b6000602082019050617ced6000830184617319565b92915050565b6000604082019050617d086000830185617319565b617d156020830184616c7b565b9392505050565b6000602082019050617d316000830184617346565b92915050565b6000608082019050617d4c6000830187617346565b617d596020830186617319565b617d666040830185616c7b565b8181036060830152617d788184616ca1565b905095945050505050565b6000617d8d617d9e565b9050617d99828261833a565b919050565b6000604051905090565b600067ffffffffffffffff821115617dc357617dc261850a565b5b602082029050919050565b6000819050602082019050919050565b6000819050602082019050919050565b6000819050919050565b6000819050602082019050919050565b600081519050919050565b600081519050919050565b600060029050919050565b600081519050919050565b600081519050919050565b6000602082019050919050565b6000602082019050919050565b6000602082019050919050565b6000602082019050919050565b600082825260208201905092915050565b600082825260208201905092915050565b600081905092915050565b600081905092915050565b600082825260208201905092915050565b600082825260208201905092915050565b6000617ed882618124565b9150617ee383618124565b9250827fffffffffffffffffffffffffffffffffffffffffffffffffffffffffffffffff03821115617f1857617f1761844e565b5b828201905092915050565b6000617f2e8261813e565b9150617f398361813e565b92508267ffffffffffffffff03821115617f5657617f5561844e565b5b828201905092915050565b6000617f6c82618175565b9150617f7783618175565b9250826bffffffffffffffffffffffff03821115617f9857617f9761844e565b5b828201905092915050565b6000617fae82618124565b9150617fb983618124565b925082617fc957617fc861847d565b5b828204905092915050565b6000617fdf82618124565b9150617fea83618124565b9250817fffffffffffffffffffffffffffffffffffffffffffffffffffffffffffffffff04831182151516156180235761802261844e565b5b828202905092915050565b600061803982618124565b915061804483618124565b9250828210156180575761805661844e565b5b828203905092915050565b600061806d82618175565b915061807883618175565b92508282101561808b5761808a61844e565b5b828203905092915050565b600062ffffff82169050919050565b600063ffffffff82169050919050565b60006180c0826180f5565b9050919050565b60008115159050919050565b6000819050919050565b6000819050919050565b600061ffff82169050919050565b600073ffffffffffffffffffffffffffffffffffffffff82169050919050565b600062ffffff82169050919050565b6000819050919050565b600063ffffffff82169050919050565b600067ffffffffffffffff82169050919050565b600060ff82169050919050565b600069ffffffffffffffffffff82169050919050565b60006bffffffffffffffffffffffff82169050919050565b60006181988261819f565b9050919050565b60006181aa826180f5565b9050919050565b60006181bc826181c3565b9050919050565b60006181ce826180f5565b9050919050565b60006181e0826181e7565b9050919050565b60006181f2826180f5565b9050919050565b60006182048261813e565b9050919050565b600061821682618175565b9050919050565b60005b8381101561823b578082015181840152602081019050618220565b8381111561824a576000848401525b50505050565b600061826361825e83618575565b6180a5565b9050919050565b600061827d618278836185dd565b6180a5565b9050919050565b600061829761829283618582565b6180a5565b9050919050565b60006182b16182ac8361858f565b618096565b9050919050565b60006182cb6182c68361859c565b618096565b9050919050565b60006182e56182e0836185a9565b618096565b9050919050565b60006182ff6182fa836185b6565b618096565b9050919050565b6000618319618314836185c3565b6180a5565b9050919050565b600061833361832e836185d0565b6180a5565b9050919050565b61834382618557565b810181811067ffffffffffffffff821117156183625761836161850a565b5b80604052505050565b600061837682618124565b91507fffffffffffffffffffffffffffffffffffffffffffffffffffffffffffffffff8214156183a9576183a861844e565b5b600182019050919050565b60006183bf8261813e565b915067ffffffffffffffff8214156183da576183d961844e565b5b600182019050919050565b60006183f082618401565b9050919050565b6000819050919050565b600061840c82618568565b9050919050565b6000819050919050565b600061842882618124565b915061843383618124565b9250826184435761844261847d565b5b828206905092915050565b7f4e487b7100000000000000000000000000000000000000000000000000000000600052601160045260246000fd5b7f4e487b7100000000000000000000000000000000000000000000000000000000600052601260045260246000fd5b7f4e487b7100000000000000000000000000000000000000000000000000000000600052603160045260246000fd5b7f4e487b7100000000000000000000000000000000000000000000000000000000600052603260045260246000fd5b7f4e487b7100000000000000000000000000000000000000000000000000000000600052604160045260246000fd5b600080fd5b600080fd5b600080fd5b600080fd5b600080fd5b600080fd5b6000601f19601f8301169050919050565b60008160601b9050919050565b60008160001c9050919050565b60008160801c9050919050565b60008160a01c9050919050565b60008160b81c9050919050565b60008160d01c9050919050565b60008160e81c9050919050565b60008160201c9050919050565b60008160401c9050919050565b60008160601c9050919050565b7f4d7573742062652070726f706f736564206f776e657200000000000000000000600082015250565b7f5365636f6e64206d756c20636865636b206661696c6564000000000000000000600082015250565b7f706f696e747320696e2073756d206d7573742062652064697374696e63740000600082015250565b7f4f6e6c792063616c6c61626c65206279206f776e657200000000000000000000600082015250565b7f6269674d6f64457870206661696c757265210000000000000000000000000000600082015250565b7f696e76616c696420782d6f7264696e6174650000000000000000000000000000600082015250565b7f626164207769746e657373000000000000000000000000000000000000000000600082015250565b7f6164647228632a706b2b732a6729213d5f755769746e65737300000000000000600082015250565b7f696e765a206d75737420626520696e7665727365206f66207a00000000000000600082015250565b7f6347616d6d615769746e657373206973206e6f74206f6e206375727665000000600082015250565b7f7075626c6963206b6579206973206e6f74206f6e206375727665000000000000600082015250565b7f67616d6d61206973206e6f74206f6e2063757276650000000000000000000000600082015250565b7f696e76616c69642070726f6f6600000000000000000000000000000000000000600082015250565b7f43616e6e6f74207472616e7366657220746f2073656c66000000000000000000600082015250565b7f4669727374206d756c20636865636b206661696c656400000000000000000000600082015250565b7f7a65726f207363616c6172000000000000000000000000000000000000000000600082015250565b7f696e76616c696420792d6f7264696e6174650000000000000000000000000000600082015250565b7f73486173685769746e657373206973206e6f74206f6e20637572766500000000600082015250565b6188d5816180b5565b81146188e057600080fd5b50565b6188ec816180c7565b81146188f757600080fd5b50565b618903816180d3565b811461890e57600080fd5b50565b61891a816180dd565b811461892557600080fd5b50565b618931816180e7565b811461893c57600080fd5b50565b61894881618115565b811461895357600080fd5b50565b61895f81618124565b811461896a57600080fd5b50565b6189768161812e565b811461898157600080fd5b50565b61898d8161813e565b811461899857600080fd5b50565b6189a48161815f565b81146189af57600080fd5b50565b6189bb81618175565b81146189c657600080fd5b5056fea26469706673582212204601e269e669d45aa1a9c24a0da822c2bd1ce5d5d6064e355d357ca03761e5d164736f6c63430008060033",
  "linkReferences": {},
  "deployedLinkReferences": {}
}