{
  "_format": "hh-sol-artifact-1",
  "contractName": "VRFOwnerlessConsumerExample",
  "sourceName": "contracts/chainlink/v0.8/tests/VRFOwnerlessConsumerExample.sol",
  "abi": [
    {
      "inputs": [
        {
          "internalType": "address",
          "name": "_vrfCoordinator",
          "type": "address"
        },
        {
          "internalType": "address",
          "name": "_link",
          "type": "address"
        }
      ],
      "stateMutability": "nonpayable",
      "type": "constructor"
    },
    {
      "inputs": [],
      "name": "OnlyCallableFromLink",
      "type": "error"
    },
    {
      "inputs": [
        {
          "internalType": "address",
          "name": "",
          "type": "address"
        },
        {
          "internalType": "uint256",
          "name": "_amount",
          "type": "uint256"
        },
        {
          "internalType": "bytes",
          "name": "_data",
          "type": "bytes"
        }
      ],
      "name": "onTokenTransfer",
      "outputs": [],
      "stateMutability": "nonpayable",
      "type": "function"
    },
    {
      "inputs": [
        {
          "internalType": "bytes32",
          "name": "requestId",
          "type": "bytes32"
        },
        {
          "internalType": "uint256",
          "name": "randomness",
          "type": "uint256"
        }
      ],
      "name": "rawFulfillRandomness",
      "outputs": [],
      "stateMutability": "nonpayable",
      "type": "function"
    },
    {
      "inputs": [],
      "name": "s_randomnessOutput",
      "outputs": [
        {
          "internalType": "uint256",
          "name": "",
          "type": "uint256"
        }
      ],
      "stateMutability": "view",
      "type": "function"
    },
    {
      "inputs": [],
      "name": "s_requestId",
      "outputs": [
        {
          "internalType": "bytes32",
          "name": "",
          "type": "bytes32"
        }
      ],
      "stateMutability": "view",
      "type": "function"
    }
  ],
  "bytecode": "0x60c060405234801561001057600080fd5b50604051610bf8380380610bf8833981810160405281019061003291906100c0565b81818173ffffffffffffffffffffffffffffffffffffffff1660a08173ffffffffffffffffffffffffffffffffffffffff1660601b815250508073ffffffffffffffffffffffffffffffffffffffff1660808173ffffffffffffffffffffffffffffffffffffffff1660601b815250505050505061014e565b6000815190506100ba81610137565b92915050565b600080604083850312156100d7576100d6610132565b5b60006100e5858286016100ab565b92505060206100f6858286016100ab565b9150509250929050565b600061010b82610112565b9050919050565b600073ffffffffffffffffffffffffffffffffffffffff82169050919050565b600080fd5b61014081610100565b811461014b57600080fd5b50565b60805160601c60a05160601c610a726101866000396000818160cd01526102ab015260008181610169015261026f0152610a726000f3fe608060405234801561001057600080fd5b506004361061004c5760003560e01c80635eb797831461005157806394985ddd1461006f578063a4c0ed361461008b578063e89e106a146100a7575b600080fd5b6100596100c5565b60405161006691906107fe565b60405180910390f35b610089600480360381019061008491906105b1565b6100cb565b005b6100a560048036038101906100a091906104e3565b610167565b005b6100af610216565b6040516100bc9190610735565b60405180910390f35b60015481565b7f000000000000000000000000000000000000000000000000000000000000000073ffffffffffffffffffffffffffffffffffffffff163373ffffffffffffffffffffffffffffffffffffffff1614610159576040517f08c379a0000000000000000000000000000000000000000000000000000000008152600401610150906107de565b60405180910390fd5b610163828261021c565b5050565b7f000000000000000000000000000000000000000000000000000000000000000073ffffffffffffffffffffffffffffffffffffffff163373ffffffffffffffffffffffffffffffffffffffff16146101ec576040517f44b0e3c300000000000000000000000000000000000000000000000000000000815260040160405180910390fd5b600082828101906101fd9190610584565b9050610209818561026b565b6002819055505050505050565b60025481565b6002548214610260576040517f08c379a0000000000000000000000000000000000000000000000000000000008152600401610257906107be565b60405180910390fd5b806001819055505050565b60007f000000000000000000000000000000000000000000000000000000000000000073ffffffffffffffffffffffffffffffffffffffff16634000aea07f0000000000000000000000000000000000000000000000000000000000000000848660006040516020016102df929190610750565b6040516020818303038152906040526040518463ffffffff1660e01b815260040161030c939291906106f7565b602060405180830381600087803b15801561032657600080fd5b505af115801561033a573d6000803e3d6000fd5b505050506040513d601f19601f8201168201806040525081019061035e9190610557565b50600061038084600030600080898152602001908152602001600020546103ca565b90506001600080868152602001908152602001600020546103a19190610846565b600080868152602001908152602001600020819055506103c18482610406565b91505092915050565b6000848484846040516020016103e39493929190610779565b6040516020818303038152906040528051906020012060001c9050949350505050565b6000828260405160200161041b9291906106cb565b60405160208183030381529060405280519060200120905092915050565b600081359050610448816109e0565b92915050565b60008151905061045d816109f7565b92915050565b60008135905061047281610a0e565b92915050565b60008083601f84011261048e5761048d610969565b5b8235905067ffffffffffffffff8111156104ab576104aa610964565b5b6020830191508360018202830111156104c7576104c661096e565b5b9250929050565b6000813590506104dd81610a25565b92915050565b600080600080606085870312156104fd576104fc610978565b5b600061050b87828801610439565b945050602061051c878288016104ce565b935050604085013567ffffffffffffffff81111561053d5761053c610973565b5b61054987828801610478565b925092505092959194509250565b60006020828403121561056d5761056c610978565b5b600061057b8482850161044e565b91505092915050565b60006020828403121561059a57610599610978565b5b60006105a884828501610463565b91505092915050565b600080604083850312156105c8576105c7610978565b5b60006105d685828601610463565b92505060206105e7858286016104ce565b9150509250929050565b6105fa8161089c565b82525050565b610609816108ba565b82525050565b61062061061b826108ba565b610921565b82525050565b600061063182610819565b61063b8185610824565b935061064b8185602086016108ee565b6106548161097d565b840191505092915050565b600061066c601783610835565b91506106778261098e565b602082019050919050565b600061068f601f83610835565b915061069a826109b7565b602082019050919050565b6106ae816108e4565b82525050565b6106c56106c0826108e4565b61092b565b82525050565b60006106d7828561060f565b6020820191506106e782846106b4565b6020820191508190509392505050565b600060608201905061070c60008301866105f1565b61071960208301856106a5565b818103604083015261072b8184610626565b9050949350505050565b600060208201905061074a6000830184610600565b92915050565b60006040820190506107656000830185610600565b61077260208301846106a5565b9392505050565b600060808201905061078e6000830187610600565b61079b60208301866106a5565b6107a860408301856105f1565b6107b560608301846106a5565b95945050505050565b600060208201905081810360008301526107d78161065f565b9050919050565b600060208201905081810360008301526107f781610682565b9050919050565b600060208201905061081360008301846106a5565b92915050565b600081519050919050565b600082825260208201905092915050565b600082825260208201905092915050565b6000610851826108e4565b915061085c836108e4565b9250827fffffffffffffffffffffffffffffffffffffffffffffffffffffffffffffffff0382111561089157610890610935565b5b828201905092915050565b60006108a7826108c4565b9050919050565b60008115159050919050565b6000819050919050565b600073ffffffffffffffffffffffffffffffffffffffff82169050919050565b6000819050919050565b60005b8381101561090c5780820151818401526020810190506108f1565b8381111561091b576000848401525b50505050565b6000819050919050565b6000819050919050565b7f4e487b7100000000000000000000000000000000000000000000000000000000600052601160045260246000fd5b600080fd5b600080fd5b600080fd5b600080fd5b600080fd5b6000601f19601f8301169050919050565b7f7265717565737420494420697320696e636f7272656374000000000000000000600082015250565b7f4f6e6c7920565246436f6f7264696e61746f722063616e2066756c66696c6c00600082015250565b6109e98161089c565b81146109f457600080fd5b50565b610a00816108ae565b8114610a0b57600080fd5b50565b610a17816108ba565b8114610a2257600080fd5b50565b610a2e816108e4565b8114610a3957600080fd5b5056fea2646970667358221220ebf6b8a9b274eec93c77ba5c282344d275b7ae6fd348d19a127866f6820f835a64736f6c63430008060033",
  "linkReferences": {},
  "deployedLinkReferences": {}
}