{
  "_format": "hh-sol-artifact-1",
  "contractName": "VRFCoordinatorV2TestHelper",
  "sourceName": "contracts/chainlink/v0.8/tests/VRFCoordinatorV2TestHelper.sol",
  "abi": [
    {
      "inputs": [
        {
          "internalType": "address",
          "name": "link",
          "type": "address"
        },
        {
          "internalType": "address",
          "name": "blockhashStore",
          "type": "address"
        },
        {
          "internalType": "address",
          "name": "linkEthFeed",
          "type": "address"
        }
      ],
      "stateMutability": "nonpayable",
      "type": "constructor"
    },
    {
      "inputs": [
        {
          "internalType": "uint256",
          "name": "internalBalance",
          "type": "uint256"
        },
        {
          "internalType": "uint256",
          "name": "externalBalance",
          "type": "uint256"
        }
      ],
      "name": "BalanceInvariantViolated",
      "type": "error"
    },
    {
      "inputs": [
        {
          "internalType": "uint256",
          "name": "blockNum",
          "type": "uint256"
        }
      ],
      "name": "BlockhashNotInStore",
      "type": "error"
    },
    {
      "inputs": [
        {
          "internalType": "uint32",
          "name": "have",
          "type": "uint32"
        },
        {
          "internalType": "uint32",
          "name": "want",
          "type": "uint32"
        }
      ],
      "name": "GasLimitTooBig",
      "type": "error"
    },
    {
      "inputs": [],
      "name": "IncorrectCommitment",
      "type": "error"
    },
    {
      "inputs": [],
      "name": "InsufficientBalance",
      "type": "error"
    },
    {
      "inputs": [
        {
          "internalType": "uint256",
          "name": "have",
          "type": "uint256"
        },
        {
          "internalType": "uint256",
          "name": "want",
          "type": "uint256"
        }
      ],
      "name": "InsufficientGasForConsumer",
      "type": "error"
    },
    {
      "inputs": [],
      "name": "InvalidCalldata",
      "type": "error"
    },
    {
      "inputs": [
        {
          "internalType": "uint64",
          "name": "subId",
          "type": "uint64"
        },
        {
          "internalType": "address",
          "name": "consumer",
          "type": "address"
        }
      ],
      "name": "InvalidConsumer",
      "type": "error"
    },
    {
      "inputs": [
        {
          "internalType": "int256",
          "name": "linkWei",
          "type": "int256"
        }
      ],
      "name": "InvalidLinkWeiPrice",
      "type": "error"
    },
    {
      "inputs": [
        {
          "internalType": "uint16",
          "name": "have",
          "type": "uint16"
        },
        {
          "internalType": "uint16",
          "name": "min",
          "type": "uint16"
        },
        {
          "internalType": "uint16",
          "name": "max",
          "type": "uint16"
        }
      ],
      "name": "InvalidRequestConfirmations",
      "type": "error"
    },
    {
      "inputs": [],
      "name": "InvalidSubscription",
      "type": "error"
    },
    {
      "inputs": [
        {
          "internalType": "address",
          "name": "proposedOwner",
          "type": "address"
        }
      ],
      "name": "MustBeRequestedOwner",
      "type": "error"
    },
    {
      "inputs": [
        {
          "internalType": "address",
          "name": "owner",
          "type": "address"
        }
      ],
      "name": "MustBeSubOwner",
      "type": "error"
    },
    {
      "inputs": [],
      "name": "NoCorrespondingRequest",
      "type": "error"
    },
    {
      "inputs": [
        {
          "internalType": "bytes32",
          "name": "keyHash",
          "type": "bytes32"
        }
      ],
      "name": "NoSuchProvingKey",
      "type": "error"
    },
    {
      "inputs": [
        {
          "internalType": "uint32",
          "name": "have",
          "type": "uint32"
        },
        {
          "internalType": "uint32",
          "name": "want",
          "type": "uint32"
        }
      ],
      "name": "NumWordsTooBig",
      "type": "error"
    },
    {
      "inputs": [],
      "name": "OnlyCallableFromLink",
      "type": "error"
    },
    {
      "inputs": [],
      "name": "PaymentTooLarge",
      "type": "error"
    },
    {
      "inputs": [],
      "name": "PendingRequestExists",
      "type": "error"
    },
    {
      "inputs": [
        {
          "internalType": "bytes32",
          "name": "keyHash",
          "type": "bytes32"
        }
      ],
      "name": "ProvingKeyAlreadyRegistered",
      "type": "error"
    },
    {
      "inputs": [],
      "name": "Reentrant",
      "type": "error"
    },
    {
      "inputs": [],
      "name": "TooManyConsumers",
      "type": "error"
    },
    {
      "anonymous": false,
      "inputs": [
        {
          "indexed": false,
          "internalType": "uint16",
          "name": "minimumRequestConfirmations",
          "type": "uint16"
        },
        {
          "indexed": false,
          "internalType": "uint32",
          "name": "maxGasLimit",
          "type": "uint32"
        },
        {
          "indexed": false,
          "internalType": "uint32",
          "name": "stalenessSeconds",
          "type": "uint32"
        },
        {
          "indexed": false,
          "internalType": "uint32",
          "name": "gasAfterPaymentCalculation",
          "type": "uint32"
        },
        {
          "indexed": false,
          "internalType": "int256",
          "name": "fallbackWeiPerUnitLink",
          "type": "int256"
        },
        {
          "components": [
            {
              "internalType": "uint32",
              "name": "fulfillmentFlatFeeLinkPPMTier1",
              "type": "uint32"
            },
            {
              "internalType": "uint32",
              "name": "fulfillmentFlatFeeLinkPPMTier2",
              "type": "uint32"
            },
            {
              "internalType": "uint32",
              "name": "fulfillmentFlatFeeLinkPPMTier3",
              "type": "uint32"
            },
            {
              "internalType": "uint32",
              "name": "fulfillmentFlatFeeLinkPPMTier4",
              "type": "uint32"
            },
            {
              "internalType": "uint32",
              "name": "fulfillmentFlatFeeLinkPPMTier5",
              "type": "uint32"
            },
            {
              "internalType": "uint24",
              "name": "reqsForTier2",
              "type": "uint24"
            },
            {
              "internalType": "uint24",
              "name": "reqsForTier3",
              "type": "uint24"
            },
            {
              "internalType": "uint24",
              "name": "reqsForTier4",
              "type": "uint24"
            },
            {
              "internalType": "uint24",
              "name": "reqsForTier5",
              "type": "uint24"
            }
          ],
          "indexed": false,
          "internalType": "struct VRFCoordinatorV2.FeeConfig",
          "name": "feeConfig",
          "type": "tuple"
        }
      ],
      "name": "ConfigSet",
      "type": "event"
    },
    {
      "anonymous": false,
      "inputs": [
        {
          "indexed": false,
          "internalType": "address",
          "name": "to",
          "type": "address"
        },
        {
          "indexed": false,
          "internalType": "uint256",
          "name": "amount",
          "type": "uint256"
        }
      ],
      "name": "FundsRecovered",
      "type": "event"
    },
    {
      "anonymous": false,
      "inputs": [
        {
          "indexed": true,
          "internalType": "address",
          "name": "from",
          "type": "address"
        },
        {
          "indexed": true,
          "internalType": "address",
          "name": "to",
          "type": "address"
        }
      ],
      "name": "OwnershipTransferRequested",
      "type": "event"
    },
    {
      "anonymous": false,
      "inputs": [
        {
          "indexed": true,
          "internalType": "address",
          "name": "from",
          "type": "address"
        },
        {
          "indexed": true,
          "internalType": "address",
          "name": "to",
          "type": "address"
        }
      ],
      "name": "OwnershipTransferred",
      "type": "event"
    },
    {
      "anonymous": false,
      "inputs": [
        {
          "indexed": false,
          "internalType": "bytes32",
          "name": "keyHash",
          "type": "bytes32"
        },
        {
          "indexed": true,
          "internalType": "address",
          "name": "oracle",
          "type": "address"
        }
      ],
      "name": "ProvingKeyDeregistered",
      "type": "event"
    },
    {
      "anonymous": false,
      "inputs": [
        {
          "indexed": false,
          "internalType": "bytes32",
          "name": "keyHash",
          "type": "bytes32"
        },
        {
          "indexed": true,
          "internalType": "address",
          "name": "oracle",
          "type": "address"
        }
      ],
      "name": "ProvingKeyRegistered",
      "type": "event"
    },
    {
      "anonymous": false,
      "inputs": [
        {
          "indexed": true,
          "internalType": "uint256",
          "name": "requestId",
          "type": "uint256"
        },
        {
          "indexed": false,
          "internalType": "uint256",
          "name": "outputSeed",
          "type": "uint256"
        },
        {
          "indexed": false,
          "internalType": "uint96",
          "name": "payment",
          "type": "uint96"
        },
        {
          "indexed": false,
          "internalType": "bool",
          "name": "success",
          "type": "bool"
        }
      ],
      "name": "RandomWordsFulfilled",
      "type": "event"
    },
    {
      "anonymous": false,
      "inputs": [
        {
          "indexed": true,
          "internalType": "bytes32",
          "name": "keyHash",
          "type": "bytes32"
        },
        {
          "indexed": false,
          "internalType": "uint256",
          "name": "requestId",
          "type": "uint256"
        },
        {
          "indexed": false,
          "internalType": "uint256",
          "name": "preSeed",
          "type": "uint256"
        },
        {
          "indexed": true,
          "internalType": "uint64",
          "name": "subId",
          "type": "uint64"
        },
        {
          "indexed": false,
          "internalType": "uint16",
          "name": "minimumRequestConfirmations",
          "type": "uint16"
        },
        {
          "indexed": false,
          "internalType": "uint32",
          "name": "callbackGasLimit",
          "type": "uint32"
        },
        {
          "indexed": false,
          "internalType": "uint32",
          "name": "numWords",
          "type": "uint32"
        },
        {
          "indexed": true,
          "internalType": "address",
          "name": "sender",
          "type": "address"
        }
      ],
      "name": "RandomWordsRequested",
      "type": "event"
    },
    {
      "anonymous": false,
      "inputs": [
        {
          "indexed": true,
          "internalType": "uint64",
          "name": "subId",
          "type": "uint64"
        },
        {
          "indexed": false,
          "internalType": "address",
          "name": "to",
          "type": "address"
        },
        {
          "indexed": false,
          "internalType": "uint256",
          "name": "amount",
          "type": "uint256"
        }
      ],
      "name": "SubscriptionCanceled",
      "type": "event"
    },
    {
      "anonymous": false,
      "inputs": [
        {
          "indexed": true,
          "internalType": "uint64",
          "name": "subId",
          "type": "uint64"
        },
        {
          "indexed": false,
          "internalType": "address",
          "name": "consumer",
          "type": "address"
        }
      ],
      "name": "SubscriptionConsumerAdded",
      "type": "event"
    },
    {
      "anonymous": false,
      "inputs": [
        {
          "indexed": true,
          "internalType": "uint64",
          "name": "subId",
          "type": "uint64"
        },
        {
          "indexed": false,
          "internalType": "address",
          "name": "consumer",
          "type": "address"
        }
      ],
      "name": "SubscriptionConsumerRemoved",
      "type": "event"
    },
    {
      "anonymous": false,
      "inputs": [
        {
          "indexed": true,
          "internalType": "uint64",
          "name": "subId",
          "type": "uint64"
        },
        {
          "indexed": false,
          "internalType": "address",
          "name": "owner",
          "type": "address"
        }
      ],
      "name": "SubscriptionCreated",
      "type": "event"
    },
    {
      "anonymous": false,
      "inputs": [
        {
          "indexed": true,
          "internalType": "uint64",
          "name": "subId",
          "type": "uint64"
        },
        {
          "indexed": false,
          "internalType": "uint256",
          "name": "oldBalance",
          "type": "uint256"
        },
        {
          "indexed": false,
          "internalType": "uint256",
          "name": "newBalance",
          "type": "uint256"
        }
      ],
      "name": "SubscriptionFunded",
      "type": "event"
    },
    {
      "anonymous": false,
      "inputs": [
        {
          "indexed": true,
          "internalType": "uint64",
          "name": "subId",
          "type": "uint64"
        },
        {
          "indexed": false,
          "internalType": "address",
          "name": "from",
          "type": "address"
        },
        {
          "indexed": false,
          "internalType": "address",
          "name": "to",
          "type": "address"
        }
      ],
      "name": "SubscriptionOwnerTransferRequested",
      "type": "event"
    },
    {
      "anonymous": false,
      "inputs": [
        {
          "indexed": true,
          "internalType": "uint64",
          "name": "subId",
          "type": "uint64"
        },
        {
          "indexed": false,
          "internalType": "address",
          "name": "from",
          "type": "address"
        },
        {
          "indexed": false,
          "internalType": "address",
          "name": "to",
          "type": "address"
        }
      ],
      "name": "SubscriptionOwnerTransferred",
      "type": "event"
    },
    {
      "inputs": [],
      "name": "BLOCKHASH_STORE",
      "outputs": [
        {
          "internalType": "contract BlockhashStoreInterface",
          "name": "",
          "type": "address"
        }
      ],
      "stateMutability": "view",
      "type": "function"
    },
    {
      "inputs": [],
      "name": "LINK",
      "outputs": [
        {
          "internalType": "contract LinkTokenInterface",
          "name": "",
          "type": "address"
        }
      ],
      "stateMutability": "view",
      "type": "function"
    },
    {
      "inputs": [],
      "name": "LINK_ETH_FEED",
      "outputs": [
        {
          "internalType": "contract AggregatorV3Interface",
          "name": "",
          "type": "address"
        }
      ],
      "stateMutability": "view",
      "type": "function"
    },
    {
      "inputs": [],
      "name": "MAX_CONSUMERS",
      "outputs": [
        {
          "internalType": "uint16",
          "name": "",
          "type": "uint16"
        }
      ],
      "stateMutability": "view",
      "type": "function"
    },
    {
      "inputs": [],
      "name": "MAX_NUM_WORDS",
      "outputs": [
        {
          "internalType": "uint32",
          "name": "",
          "type": "uint32"
        }
      ],
      "stateMutability": "view",
      "type": "function"
    },
    {
      "inputs": [],
      "name": "MAX_REQUEST_CONFIRMATIONS",
      "outputs": [
        {
          "internalType": "uint16",
          "name": "",
          "type": "uint16"
        }
      ],
      "stateMutability": "view",
      "type": "function"
    },
    {
      "inputs": [],
      "name": "acceptOwnership",
      "outputs": [],
      "stateMutability": "nonpayable",
      "type": "function"
    },
    {
      "inputs": [
        {
          "internalType": "uint64",
          "name": "subId",
          "type": "uint64"
        }
      ],
      "name": "acceptSubscriptionOwnerTransfer",
      "outputs": [],
      "stateMutability": "nonpayable",
      "type": "function"
    },
    {
      "inputs": [
        {
          "internalType": "uint64",
          "name": "subId",
          "type": "uint64"
        },
        {
          "internalType": "address",
          "name": "consumer",
          "type": "address"
        }
      ],
      "name": "addConsumer",
      "outputs": [],
      "stateMutability": "nonpayable",
      "type": "function"
    },
    {
      "inputs": [
        {
          "internalType": "uint256",
          "name": "gasAfterPaymentCalculation",
          "type": "uint256"
        },
        {
          "internalType": "uint32",
          "name": "fulfillmentFlatFeeLinkPPM",
          "type": "uint32"
        },
        {
          "internalType": "uint256",
          "name": "weiPerUnitGas",
          "type": "uint256"
        }
      ],
      "name": "calculatePaymentAmountTest",
      "outputs": [],
      "stateMutability": "nonpayable",
      "type": "function"
    },
    {
      "inputs": [
        {
          "internalType": "uint64",
          "name": "subId",
          "type": "uint64"
        },
        {
          "internalType": "address",
          "name": "to",
          "type": "address"
        }
      ],
      "name": "cancelSubscription",
      "outputs": [],
      "stateMutability": "nonpayable",
      "type": "function"
    },
    {
      "inputs": [],
      "name": "createSubscription",
      "outputs": [
        {
          "internalType": "uint64",
          "name": "",
          "type": "uint64"
        }
      ],
      "stateMutability": "nonpayable",
      "type": "function"
    },
    {
      "inputs": [
        {
          "internalType": "uint256[2]",
          "name": "publicProvingKey",
          "type": "uint256[2]"
        }
      ],
      "name": "deregisterProvingKey",
      "outputs": [],
      "stateMutability": "nonpayable",
      "type": "function"
    },
    {
      "inputs": [
        {
          "components": [
            {
              "internalType": "uint256[2]",
              "name": "pk",
              "type": "uint256[2]"
            },
            {
              "internalType": "uint256[2]",
              "name": "gamma",
              "type": "uint256[2]"
            },
            {
              "internalType": "uint256",
              "name": "c",
              "type": "uint256"
            },
            {
              "internalType": "uint256",
              "name": "s",
              "type": "uint256"
            },
            {
              "internalType": "uint256",
              "name": "seed",
              "type": "uint256"
            },
            {
              "internalType": "address",
              "name": "uWitness",
              "type": "address"
            },
            {
              "internalType": "uint256[2]",
              "name": "cGammaWitness",
              "type": "uint256[2]"
            },
            {
              "internalType": "uint256[2]",
              "name": "sHashWitness",
              "type": "uint256[2]"
            },
            {
              "internalType": "uint256",
              "name": "zInv",
              "type": "uint256"
            }
          ],
          "internalType": "struct VRF.Proof",
          "name": "proof",
          "type": "tuple"
        },
        {
          "components": [
            {
              "internalType": "uint64",
              "name": "blockNum",
              "type": "uint64"
            },
            {
              "internalType": "uint64",
              "name": "subId",
              "type": "uint64"
            },
            {
              "internalType": "uint32",
              "name": "callbackGasLimit",
              "type": "uint32"
            },
            {
              "internalType": "uint32",
              "name": "numWords",
              "type": "uint32"
            },
            {
              "internalType": "address",
              "name": "sender",
              "type": "address"
            }
          ],
          "internalType": "struct VRFCoordinatorV2.RequestCommitment",
          "name": "rc",
          "type": "tuple"
        }
      ],
      "name": "fulfillRandomWords",
      "outputs": [
        {
          "internalType": "uint96",
          "name": "",
          "type": "uint96"
        }
      ],
      "stateMutability": "nonpayable",
      "type": "function"
    },
    {
      "inputs": [
        {
          "internalType": "uint256",
          "name": "requestId",
          "type": "uint256"
        }
      ],
      "name": "getCommitment",
      "outputs": [
        {
          "internalType": "bytes32",
          "name": "",
          "type": "bytes32"
        }
      ],
      "stateMutability": "view",
      "type": "function"
    },
    {
      "inputs": [],
      "name": "getConfig",
      "outputs": [
        {
          "internalType": "uint16",
          "name": "minimumRequestConfirmations",
          "type": "uint16"
        },
        {
          "internalType": "uint32",
          "name": "maxGasLimit",
          "type": "uint32"
        },
        {
          "internalType": "uint32",
          "name": "stalenessSeconds",
          "type": "uint32"
        },
        {
          "internalType": "uint32",
          "name": "gasAfterPaymentCalculation",
          "type": "uint32"
        }
      ],
      "stateMutability": "view",
      "type": "function"
    },
    {
      "inputs": [],
      "name": "getCurrentSubId",
      "outputs": [
        {
          "internalType": "uint64",
          "name": "",
          "type": "uint64"
        }
      ],
      "stateMutability": "view",
      "type": "function"
    },
    {
      "inputs": [],
      "name": "getFallbackWeiPerUnitLink",
      "outputs": [
        {
          "internalType": "int256",
          "name": "",
          "type": "int256"
        }
      ],
      "stateMutability": "view",
      "type": "function"
    },
    {
      "inputs": [],
      "name": "getFeeConfig",
      "outputs": [
        {
          "internalType": "uint32",
          "name": "fulfillmentFlatFeeLinkPPMTier1",
          "type": "uint32"
        },
        {
          "internalType": "uint32",
          "name": "fulfillmentFlatFeeLinkPPMTier2",
          "type": "uint32"
        },
        {
          "internalType": "uint32",
          "name": "fulfillmentFlatFeeLinkPPMTier3",
          "type": "uint32"
        },
        {
          "internalType": "uint32",
          "name": "fulfillmentFlatFeeLinkPPMTier4",
          "type": "uint32"
        },
        {
          "internalType": "uint32",
          "name": "fulfillmentFlatFeeLinkPPMTier5",
          "type": "uint32"
        },
        {
          "internalType": "uint24",
          "name": "reqsForTier2",
          "type": "uint24"
        },
        {
          "internalType": "uint24",
          "name": "reqsForTier3",
          "type": "uint24"
        },
        {
          "internalType": "uint24",
          "name": "reqsForTier4",
          "type": "uint24"
        },
        {
          "internalType": "uint24",
          "name": "reqsForTier5",
          "type": "uint24"
        }
      ],
      "stateMutability": "view",
      "type": "function"
    },
    {
      "inputs": [
        {
          "internalType": "uint64",
          "name": "reqCount",
          "type": "uint64"
        }
      ],
      "name": "getFeeTier",
      "outputs": [
        {
          "internalType": "uint32",
          "name": "",
          "type": "uint32"
        }
      ],
      "stateMutability": "view",
      "type": "function"
    },
    {
      "inputs": [],
      "name": "getGasStart",
      "outputs": [
        {
          "internalType": "uint256",
          "name": "",
          "type": "uint256"
        }
      ],
      "stateMutability": "view",
      "type": "function"
    },
    {
      "inputs": [],
      "name": "getPaymentAmount",
      "outputs": [
        {
          "internalType": "uint96",
          "name": "",
          "type": "uint96"
        }
      ],
      "stateMutability": "view",
      "type": "function"
    },
    {
      "inputs": [],
      "name": "getRequestConfig",
      "outputs": [
        {
          "internalType": "uint16",
          "name": "",
          "type": "uint16"
        },
        {
          "internalType": "uint32",
          "name": "",
          "type": "uint32"
        },
        {
          "internalType": "bytes32[]",
          "name": "",
          "type": "bytes32[]"
        }
      ],
      "stateMutability": "view",
      "type": "function"
    },
    {
      "inputs": [
        {
          "internalType": "uint64",
          "name": "subId",
          "type": "uint64"
        }
      ],
      "name": "getSubscription",
      "outputs": [
        {
          "internalType": "uint96",
          "name": "balance",
          "type": "uint96"
        },
        {
          "internalType": "uint64",
          "name": "reqCount",
          "type": "uint64"
        },
        {
          "internalType": "address",
          "name": "owner",
          "type": "address"
        },
        {
          "internalType": "address[]",
          "name": "consumers",
          "type": "address[]"
        }
      ],
      "stateMutability": "view",
      "type": "function"
    },
    {
      "inputs": [],
      "name": "getTotalBalance",
      "outputs": [
        {
          "internalType": "uint256",
          "name": "",
          "type": "uint256"
        }
      ],
      "stateMutability": "view",
      "type": "function"
    },
    {
      "inputs": [
        {
          "internalType": "uint256[2]",
          "name": "publicKey",
          "type": "uint256[2]"
        }
      ],
      "name": "hashOfKey",
      "outputs": [
        {
          "internalType": "bytes32",
          "name": "",
          "type": "bytes32"
        }
      ],
      "stateMutability": "pure",
      "type": "function"
    },
    {
      "inputs": [
        {
          "internalType": "address",
          "name": "",
          "type": "address"
        },
        {
          "internalType": "uint256",
          "name": "amount",
          "type": "uint256"
        },
        {
          "internalType": "bytes",
          "name": "data",
          "type": "bytes"
        }
      ],
      "name": "onTokenTransfer",
      "outputs": [],
      "stateMutability": "nonpayable",
      "type": "function"
    },
    {
      "inputs": [
        {
          "internalType": "address",
          "name": "recipient",
          "type": "address"
        },
        {
          "internalType": "uint96",
          "name": "amount",
          "type": "uint96"
        }
      ],
      "name": "oracleWithdraw",
      "outputs": [],
      "stateMutability": "nonpayable",
      "type": "function"
    },
    {
      "inputs": [],
      "name": "owner",
      "outputs": [
        {
          "internalType": "address",
          "name": "",
          "type": "address"
        }
      ],
      "stateMutability": "view",
      "type": "function"
    },
    {
      "inputs": [
        {
          "internalType": "uint64",
          "name": "subId",
          "type": "uint64"
        }
      ],
      "name": "ownerCancelSubscription",
      "outputs": [],
      "stateMutability": "nonpayable",
      "type": "function"
    },
    {
      "inputs": [
        {
          "internalType": "uint64",
          "name": "subId",
          "type": "uint64"
        }
      ],
      "name": "pendingRequestExists",
      "outputs": [
        {
          "internalType": "bool",
          "name": "",
          "type": "bool"
        }
      ],
      "stateMutability": "view",
      "type": "function"
    },
    {
      "inputs": [
        {
          "internalType": "address",
          "name": "to",
          "type": "address"
        }
      ],
      "name": "recoverFunds",
      "outputs": [],
      "stateMutability": "nonpayable",
      "type": "function"
    },
    {
      "inputs": [
        {
          "internalType": "address",
          "name": "oracle",
          "type": "address"
        },
        {
          "internalType": "uint256[2]",
          "name": "publicProvingKey",
          "type": "uint256[2]"
        }
      ],
      "name": "registerProvingKey",
      "outputs": [],
      "stateMutability": "nonpayable",
      "type": "function"
    },
    {
      "inputs": [
        {
          "internalType": "uint64",
          "name": "subId",
          "type": "uint64"
        },
        {
          "internalType": "address",
          "name": "consumer",
          "type": "address"
        }
      ],
      "name": "removeConsumer",
      "outputs": [],
      "stateMutability": "nonpayable",
      "type": "function"
    },
    {
      "inputs": [
        {
          "internalType": "bytes32",
          "name": "keyHash",
          "type": "bytes32"
        },
        {
          "internalType": "uint64",
          "name": "subId",
          "type": "uint64"
        },
        {
          "internalType": "uint16",
          "name": "requestConfirmations",
          "type": "uint16"
        },
        {
          "internalType": "uint32",
          "name": "callbackGasLimit",
          "type": "uint32"
        },
        {
          "internalType": "uint32",
          "name": "numWords",
          "type": "uint32"
        }
      ],
      "name": "requestRandomWords",
      "outputs": [
        {
          "internalType": "uint256",
          "name": "",
          "type": "uint256"
        }
      ],
      "stateMutability": "nonpayable",
      "type": "function"
    },
    {
      "inputs": [
        {
          "internalType": "uint64",
          "name": "subId",
          "type": "uint64"
        },
        {
          "internalType": "address",
          "name": "newOwner",
          "type": "address"
        }
      ],
      "name": "requestSubscriptionOwnerTransfer",
      "outputs": [],
      "stateMutability": "nonpayable",
      "type": "function"
    },
    {
      "inputs": [
        {
          "internalType": "uint16",
          "name": "minimumRequestConfirmations",
          "type": "uint16"
        },
        {
          "internalType": "uint32",
          "name": "maxGasLimit",
          "type": "uint32"
        },
        {
          "internalType": "uint32",
          "name": "stalenessSeconds",
          "type": "uint32"
        },
        {
          "internalType": "uint32",
          "name": "gasAfterPaymentCalculation",
          "type": "uint32"
        },
        {
          "internalType": "int256",
          "name": "fallbackWeiPerUnitLink",
          "type": "int256"
        },
        {
          "components": [
            {
              "internalType": "uint32",
              "name": "fulfillmentFlatFeeLinkPPMTier1",
              "type": "uint32"
            },
            {
              "internalType": "uint32",
              "name": "fulfillmentFlatFeeLinkPPMTier2",
              "type": "uint32"
            },
            {
              "internalType": "uint32",
              "name": "fulfillmentFlatFeeLinkPPMTier3",
              "type": "uint32"
            },
            {
              "internalType": "uint32",
              "name": "fulfillmentFlatFeeLinkPPMTier4",
              "type": "uint32"
            },
            {
              "internalType": "uint32",
              "name": "fulfillmentFlatFeeLinkPPMTier5",
              "type": "uint32"
            },
            {
              "internalType": "uint24",
              "name": "reqsForTier2",
              "type": "uint24"
            },
            {
              "internalType": "uint24",
              "name": "reqsForTier3",
              "type": "uint24"
            },
            {
              "internalType": "uint24",
              "name": "reqsForTier4",
              "type": "uint24"
            },
            {
              "internalType": "uint24",
              "name": "reqsForTier5",
              "type": "uint24"
            }
          ],
          "internalType": "struct VRFCoordinatorV2.FeeConfig",
          "name": "feeConfig",
          "type": "tuple"
        }
      ],
      "name": "setConfig",
      "outputs": [],
      "stateMutability": "nonpayable",
      "type": "function"
    },
    {
      "inputs": [
        {
          "internalType": "address",
          "name": "to",
          "type": "address"
        }
      ],
      "name": "transferOwnership",
      "outputs": [],
      "stateMutability": "nonpayable",
      "type": "function"
    },
    {
      "inputs": [],
      "name": "typeAndVersion",
      "outputs": [
        {
          "internalType": "string",
          "name": "",
          "type": "string"
        }
      ],
      "stateMutability": "pure",
      "type": "function"
    }
  ],
  "bytecode": "0x60e06040523480156200001157600080fd5b506040516200907838038062009078833981810160405281019062000037919062000332565b828282338060008073ffffffffffffffffffffffffffffffffffffffff168273ffffffffffffffffffffffffffffffffffffffff161415620000b0576040517f08c379a0000000000000000000000000000000000000000000000000000000008152600401620000a790620003dc565b60405180910390fd5b816000806101000a81548173ffffffffffffffffffffffffffffffffffffffff021916908373ffffffffffffffffffffffffffffffffffffffff160217905550600073ffffffffffffffffffffffffffffffffffffffff168173ffffffffffffffffffffffffffffffffffffffff161462000137576200013681620001eb60201b60201c565b5b5050508273ffffffffffffffffffffffffffffffffffffffff1660808173ffffffffffffffffffffffffffffffffffffffff1660601b815250508073ffffffffffffffffffffffffffffffffffffffff1660a08173ffffffffffffffffffffffffffffffffffffffff1660601b815250508173ffffffffffffffffffffffffffffffffffffffff1660c08173ffffffffffffffffffffffffffffffffffffffff1660601b81525050505050505050620004d6565b3373ffffffffffffffffffffffffffffffffffffffff168173ffffffffffffffffffffffffffffffffffffffff1614156200025d576040517f08c379a00000000000000000000000000000000000000000000000000000000081526004016200025490620003fe565b60405180910390fd5b80600160006101000a81548173ffffffffffffffffffffffffffffffffffffffff021916908373ffffffffffffffffffffffffffffffffffffffff1602179055508073ffffffffffffffffffffffffffffffffffffffff1660008054906101000a900473ffffffffffffffffffffffffffffffffffffffff1673ffffffffffffffffffffffffffffffffffffffff167fed8889f560326eb138920d842192f0eb3dd22b4f139c87a2c57538e05bae127860405160405180910390a350565b6000815190506200032c81620004bc565b92915050565b6000806000606084860312156200034e576200034d62000465565b5b60006200035e868287016200031b565b935050602062000371868287016200031b565b925050604062000384868287016200031b565b9150509250925092565b60006200039d60188362000420565b9150620003aa826200046a565b602082019050919050565b6000620003c460178362000420565b9150620003d18262000493565b602082019050919050565b60006020820190508181036000830152620003f7816200038e565b9050919050565b600060208201905081810360008301526200041981620003b5565b9050919050565b600082825260208201905092915050565b60006200043e8262000445565b9050919050565b600073ffffffffffffffffffffffffffffffffffffffff82169050919050565b600080fd5b7f43616e6e6f7420736574206f776e657220746f207a65726f0000000000000000600082015250565b7f43616e6e6f74207472616e7366657220746f2073656c66000000000000000000600082015250565b620004c78162000431565b8114620004d357600080fd5b50565b60805160601c60a05160601c60c05160601c618b386200054060003960008181611a3e0152614c830152600081816133860152614f6f015260008181610e4d015281816119570152818161307e01528181613dd501528181613f0c01526147d90152618b386000f3fe608060405234801561001057600080fd5b506004361061023c5760003560e01c80636f64f03f1161013b578063a4c0ed36116100b8578063d2f9f9a71161007c578063d2f9f9a71461067d578063d7ae1d30146106ad578063e72f6e30146106c9578063e82ad7d4146106e5578063f2fde38b146107155761023c565b8063a4c0ed36146105c2578063ad178361146105de578063af198b97146105fc578063c3f909d41461062c578063caf70c4a1461064d5761023c565b806382359740116100ff578063823597401461051b5780638da5cb5b146105375780639f87fad714610555578063a21a23e414610571578063a47c76961461058f5761023c565b80636f64f03f1461049f5780637341c10c146104bb5780637697bc18146104d7578063775de59d146104f557806379ba5097146105115761023c565b8063356dac71116101c95780635fbbc0d21161018d5780635fbbc0d2146103f157806364d51a2a1461041757806366316d8d14610435578063689c45171461045157806369bcdb7d1461046f5761023c565b8063356dac711461034b5780633e8817aa1461036957806340d6bb82146103875780634cb48a54146103a55780635d3b1d30146103c15761023c565b806308821d581161021057806308821d58146102b757806312b58349146102d357806315c48b84146102f1578063181f5a771461030f5780631b6b6d231461032d5761023c565b80620122911461024157806302bcc5b61461026157806304c357cb1461027d57806306bfa63714610299575b600080fd5b610249610731565b60405161025893929190617a57565b60405180910390f35b61027b60048036038101906102769190616c5d565b6107bf565b005b61029760048036038101906102929190616c8a565b6108cf565b005b6102a1610b71565b6040516102ae9190617e11565b60405180910390f35b6102d160048036038101906102cc91906169b1565b610b8f565b005b6102db610dd9565b6040516102e89190617b3c565b60405180910390f35b6102f9610e09565b6040516103069190617a05565b60405180910390f35b610317610e0e565b60405161032491906177a3565b60405180910390f35b610335610e4b565b604051610342919061776d565b60405180910390f35b610353610e6f565b6040516103609190617788565b60405180910390f35b610371610e79565b60405161037e9190617e55565b60405180910390f35b61038f610e9b565b60405161039c9190617d25565b60405180910390f35b6103bf60048036038101906103ba9190616b22565b610ea1565b005b6103db60048036038101906103d69190616a65565b6111ed565b6040516103e89190617b3c565b60405180910390f35b6103f9611681565b60405161040e99989796959493929190617d69565b60405180910390f35b61041f61176e565b60405161042c9190617a05565b60405180910390f35b61044f600480360381019061044a9190616971565b611773565b005b610459611a3c565b6040516104669190617752565b60405180910390f35b61048960048036038101906104849190616bb0565b611a60565b6040516104969190617669565b60405180910390f35b6104b960048036038101906104b491906168bd565b611a7d565b005b6104d560048036038101906104d09190616c8a565b611c3b565b005b6104df612007565b6040516104ec9190617b3c565b60405180910390f35b61050f600480360381019061050a9190616c0a565b612011565b005b610519612052565b005b61053560048036038101906105309190616c5d565b6121e7565b005b61053f612550565b60405161054c919061759d565b60405180910390f35b61056f600480360381019061056a9190616c8a565b612579565b005b610579612ac5565b6040516105869190617e11565b60405180910390f35b6105a960048036038101906105a49190616c5d565b612dec565b6040516105b99493929190617e70565b60405180910390f35b6105dc60048036038101906105d791906168fd565b613032565b005b6105e6613384565b6040516105f39190617737565b60405180910390f35b61061660048036038101906106119190616ae0565b6133a8565b6040516106239190617e55565b60405180910390f35b6106346138ed565b6040516106449493929190617a95565b60405180910390f35b610667600480360381019061066291906169de565b613957565b6040516106749190617669565b60405180910390f35b61069760048036038101906106929190616c5d565b613987565b6040516106a49190617d25565b60405180910390f35b6106c760048036038101906106c29190616c8a565b613c08565b005b6106e360048036038101906106de9190616890565b613dc9565b005b6106ff60048036038101906106fa9190616c5d565b613ff8565b60405161070c919061764e565b60405180910390f35b61072f600480360381019061072a9190616890565b6142ca565b005b6000806060600b60000160009054906101000a900461ffff16600b60000160029054906101000a900463ffffffff166007808054806020026020016040519081016040528092919081815260200182805480156107ad57602002820191906000526020600020905b815481526020019060010190808311610799575b50505050509050925092509250909192565b6107c76142de565b600073ffffffffffffffffffffffffffffffffffffffff16600360008367ffffffffffffffff1667ffffffffffffffff16815260200190815260200160002060000160009054906101000a900473ffffffffffffffffffffffffffffffffffffffff1673ffffffffffffffffffffffffffffffffffffffff161415610878576040517f1f6a65b600000000000000000000000000000000000000000000000000000000815260040160405180910390fd5b6108cc81600360008467ffffffffffffffff1667ffffffffffffffff16815260200190815260200160002060000160009054906101000a900473ffffffffffffffffffffffffffffffffffffffff1661436e565b50565b816000600360008367ffffffffffffffff1667ffffffffffffffff16815260200190815260200160002060000160009054906101000a900473ffffffffffffffffffffffffffffffffffffffff169050600073ffffffffffffffffffffffffffffffffffffffff168173ffffffffffffffffffffffffffffffffffffffff161415610986576040517f1f6a65b600000000000000000000000000000000000000000000000000000000815260040160405180910390fd5b8073ffffffffffffffffffffffffffffffffffffffff163373ffffffffffffffffffffffffffffffffffffffff16146109f657806040517fd8a3fb520000000000000000000000000000000000000000000000000000000081526004016109ed919061759d565b60405180910390fd5b600b60000160069054906101000a900460ff1615610a40576040517fed3ba6a600000000000000000000000000000000000000000000000000000000815260040160405180910390fd5b8273ffffffffffffffffffffffffffffffffffffffff16600360008667ffffffffffffffff1667ffffffffffffffff16815260200190815260200160002060010160009054906101000a900473ffffffffffffffffffffffffffffffffffffffff1673ffffffffffffffffffffffffffffffffffffffff1614610b6b5782600360008667ffffffffffffffff1667ffffffffffffffff16815260200190815260200160002060010160006101000a81548173ffffffffffffffffffffffffffffffffffffffff021916908373ffffffffffffffffffffffffffffffffffffffff1602179055508367ffffffffffffffff167f69436ea6df009049404f564eff6622cd00522b0bd6a89efd9e52a355c4a879be3385604051610b629291906175b8565b60405180910390a25b50505050565b6000600560009054906101000a900467ffffffffffffffff16905090565b610b976142de565b6000610bd9826002806020026040519081016040528092919082600260200280828437600081840152601f19601f820116905080830192505050505050613957565b905060006006600083815260200190815260200160002060009054906101000a900473ffffffffffffffffffffffffffffffffffffffff169050600073ffffffffffffffffffffffffffffffffffffffff168173ffffffffffffffffffffffffffffffffffffffff161415610c8557816040517f77f5b84c000000000000000000000000000000000000000000000000000000008152600401610c7c9190617669565b60405180910390fd5b6006600083815260200190815260200160002060006101000a81549073ffffffffffffffffffffffffffffffffffffffff021916905560005b600780549050811015610d85578260078281548110610ce057610cdf618614565b5b90600052602060002001541415610d7257600060076001600780549050610d079190618167565b81548110610d1857610d17618614565b5b906000526020600020015490508060078381548110610d3a57610d39618614565b5b90600052602060002001819055506007805480610d5a57610d596185e5565b5b60019003818190600052602060002001600090559055505b8080610d7d906184a4565b915050610cbe565b508073ffffffffffffffffffffffffffffffffffffffff167f72be339577868f868798bac2c93e52d6f034fef4689a9848996c14ebb7416c0d83604051610dcc9190617669565b60405180910390a2505050565b6000600560089054906101000a90046bffffffffffffffffffffffff166bffffffffffffffffffffffff16905090565b60c881565b60606040518060400160405280601681526020017f565246436f6f7264696e61746f72563220312e302e3000000000000000000000815250905090565b7f000000000000000000000000000000000000000000000000000000000000000081565b6000600a54905090565b6000600d60009054906101000a90046bffffffffffffffffffffffff16905090565b6101f481565b610ea96142de565b60c861ffff168661ffff161115610efc57858660c86040517fa7386976000000000000000000000000000000000000000000000000000000008152600401610ef393929190617a20565b60405180910390fd5b60008213610f4157816040517f43d4cf66000000000000000000000000000000000000000000000000000000008152600401610f389190617788565b60405180910390fd5b6040518060a001604052808761ffff1681526020018663ffffffff1681526020016000151581526020018563ffffffff1681526020018463ffffffff16815250600b60008201518160000160006101000a81548161ffff021916908361ffff16021790555060208201518160000160026101000a81548163ffffffff021916908363ffffffff16021790555060408201518160000160066101000a81548160ff02191690831515021790555060608201518160000160076101000a81548163ffffffff021916908363ffffffff160217905550608082015181600001600b6101000a81548163ffffffff021916908363ffffffff16021790555090505080600c60008201518160000160006101000a81548163ffffffff021916908363ffffffff16021790555060208201518160000160046101000a81548163ffffffff021916908363ffffffff16021790555060408201518160000160086101000a81548163ffffffff021916908363ffffffff160217905550606082015181600001600c6101000a81548163ffffffff021916908363ffffffff16021790555060808201518160000160106101000a81548163ffffffff021916908363ffffffff16021790555060a08201518160000160146101000a81548162ffffff021916908362ffffff16021790555060c08201518160000160176101000a81548162ffffff021916908362ffffff16021790555060e082015181600001601a6101000a81548162ffffff021916908362ffffff16021790555061010082015181600001601d6101000a81548162ffffff021916908362ffffff16021790555090505081600a819055507fc21e3bd2e0b339d2848f0dd956947a88966c242c0c0c582a33137a5c1ceb5cb28686868686600c6040516111dd96959493929190617ada565b60405180910390a1505050505050565b6000600b60000160069054906101000a900460ff1615611239576040517fed3ba6a600000000000000000000000000000000000000000000000000000000815260040160405180910390fd5b600073ffffffffffffffffffffffffffffffffffffffff16600360008767ffffffffffffffff1667ffffffffffffffff16815260200190815260200160002060000160009054906101000a900473ffffffffffffffffffffffffffffffffffffffff1673ffffffffffffffffffffffffffffffffffffffff1614156112ea576040517f1f6a65b600000000000000000000000000000000000000000000000000000000815260040160405180910390fd5b6000600260003373ffffffffffffffffffffffffffffffffffffffff1673ffffffffffffffffffffffffffffffffffffffff16815260200190815260200160002060008767ffffffffffffffff1667ffffffffffffffff16815260200190815260200160002060009054906101000a900467ffffffffffffffff16905060008167ffffffffffffffff1614156113b95785336040517ff0019fe60000000000000000000000000000000000000000000000000000000081526004016113b0929190617e2c565b60405180910390fd5b600b60000160009054906101000a900461ffff1661ffff168561ffff1610806113ea575060c861ffff168561ffff16115b156114445784600b60000160009054906101000a900461ffff1660c86040517fa738697600000000000000000000000000000000000000000000000000000000815260040161143b93929190617a20565b60405180910390fd5b600b60000160029054906101000a900463ffffffff1663ffffffff168463ffffffff1611156114c15783600b60000160029054906101000a900463ffffffff166040517ff5d7e01e0000000000000000000000000000000000000000000000000000000081526004016114b8929190617d40565b60405180910390fd5b6101f463ffffffff168363ffffffff16111561151857826101f46040517f47386bec00000000000000000000000000000000000000000000000000000000815260040161150f929190617d40565b60405180910390fd5b6000600182611527919061805c565b90506000806115388a338b86614913565b9150915081438a89893360405160200161155796959493929190617c2c565b6040516020818303038152906040528051906020012060096000848152602001908152602001600020819055503373ffffffffffffffffffffffffffffffffffffffff168967ffffffffffffffff168b7f63373d1c4696214b898952999c9aaec57dac1ee2723cec59bea6888f489a977285858d8d8d6040516115de959493929190617bd9565b60405180910390a482600260003373ffffffffffffffffffffffffffffffffffffffff1673ffffffffffffffffffffffffffffffffffffffff16815260200190815260200160002060008b67ffffffffffffffff1667ffffffffffffffff16815260200190815260200160002060006101000a81548167ffffffffffffffff021916908367ffffffffffffffff1602179055508194505050505095945050505050565b6000806000806000806000806000600c60000160009054906101000a900463ffffffff16600c60000160049054906101000a900463ffffffff16600c60000160089054906101000a900463ffffffff16600c600001600c9054906101000a900463ffffffff16600c60000160109054906101000a900463ffffffff16600c60000160149054906101000a900462ffffff16600c60000160179054906101000a900462ffffff16600c600001601a9054906101000a900462ffffff16600c600001601d9054906101000a900462ffffff16985098509850985098509850985098509850909192939495969798565b606481565b600b60000160069054906101000a900460ff16156117bd576040517fed3ba6a600000000000000000000000000000000000000000000000000000000815260040160405180910390fd5b806bffffffffffffffffffffffff16600860003373ffffffffffffffffffffffffffffffffffffffff1673ffffffffffffffffffffffffffffffffffffffff16815260200190815260200160002060009054906101000a90046bffffffffffffffffffffffff166bffffffffffffffffffffffff16101561186a576040517ff4d678b800000000000000000000000000000000000000000000000000000000815260040160405180910390fd5b80600860003373ffffffffffffffffffffffffffffffffffffffff1673ffffffffffffffffffffffffffffffffffffffff16815260200190815260200160002060008282829054906101000a90046bffffffffffffffffffffffff166118d0919061819b565b92506101000a8154816bffffffffffffffffffffffff02191690836bffffffffffffffffffffffff16021790555080600560088282829054906101000a90046bffffffffffffffffffffffff16611927919061819b565b92506101000a8154816bffffffffffffffffffffffff02191690836bffffffffffffffffffffffff1602179055507f000000000000000000000000000000000000000000000000000000000000000073ffffffffffffffffffffffffffffffffffffffff1663a9059cbb83836040518363ffffffff1660e01b81526004016119b092919061760a565b602060405180830381600087803b1580156119ca57600080fd5b505af11580156119de573d6000803e3d6000fd5b505050506040513d601f19601f82011682018060405250810190611a029190616a0b565b611a38576040517ff4d678b800000000000000000000000000000000000000000000000000000000815260040160405180910390fd5b5050565b7f000000000000000000000000000000000000000000000000000000000000000081565b600060096000838152602001908152602001600020549050919050565b611a856142de565b6000611ac7826002806020026040519081016040528092919082600260200280828437600081840152601f19601f820116905080830192505050505050613957565b9050600073ffffffffffffffffffffffffffffffffffffffff166006600083815260200190815260200160002060009054906101000a900473ffffffffffffffffffffffffffffffffffffffff1673ffffffffffffffffffffffffffffffffffffffff1614611b6d57806040517f4a0b8fa7000000000000000000000000000000000000000000000000000000008152600401611b649190617669565b60405180910390fd5b826006600083815260200190815260200160002060006101000a81548173ffffffffffffffffffffffffffffffffffffffff021916908373ffffffffffffffffffffffffffffffffffffffff16021790555060078190806001815401808255809150506001900390600052602060002001600090919091909150558273ffffffffffffffffffffffffffffffffffffffff167fe729ae16526293f74ade739043022254f1489f616295a25bf72dfb4511ed73b882604051611c2e9190617669565b60405180910390a2505050565b816000600360008367ffffffffffffffff1667ffffffffffffffff16815260200190815260200160002060000160009054906101000a900473ffffffffffffffffffffffffffffffffffffffff169050600073ffffffffffffffffffffffffffffffffffffffff168173ffffffffffffffffffffffffffffffffffffffff161415611cf2576040517f1f6a65b600000000000000000000000000000000000000000000000000000000815260040160405180910390fd5b8073ffffffffffffffffffffffffffffffffffffffff163373ffffffffffffffffffffffffffffffffffffffff1614611d6257806040517fd8a3fb52000000000000000000000000000000000000000000000000000000008152600401611d59919061759d565b60405180910390fd5b600b60000160069054906101000a900460ff1615611dac576040517fed3ba6a600000000000000000000000000000000000000000000000000000000815260040160405180910390fd5b606461ffff16600360008667ffffffffffffffff1667ffffffffffffffff168152602001908152602001600020600201805490501415611e18576040517f05a48e0f00000000000000000000000000000000000000000000000000000000815260040160405180910390fd5b6000600260008573ffffffffffffffffffffffffffffffffffffffff1673ffffffffffffffffffffffffffffffffffffffff16815260200190815260200160002060008667ffffffffffffffff1667ffffffffffffffff16815260200190815260200160002060009054906101000a900467ffffffffffffffff1667ffffffffffffffff1614611ea757612001565b6001600260008573ffffffffffffffffffffffffffffffffffffffff1673ffffffffffffffffffffffffffffffffffffffff16815260200190815260200160002060008667ffffffffffffffff1667ffffffffffffffff16815260200190815260200160002060006101000a81548167ffffffffffffffff021916908367ffffffffffffffff160217905550600360008567ffffffffffffffff1667ffffffffffffffff168152602001908152602001600020600201839080600181540180825580915050600190039060005260206000200160009091909190916101000a81548173ffffffffffffffffffffffffffffffffffffffff021916908373ffffffffffffffffffffffffffffffffffffffff1602179055508367ffffffffffffffff167f43dc749a04ac8fb825cbd514f7c0e13f13bc6f2ee66043b76629d51776cff8e084604051611ff8919061759d565b60405180910390a25b50505050565b6000600e54905090565b61201d5a848484614985565b600d60006101000a8154816bffffffffffffffffffffffff02191690836bffffffffffffffffffffffff160217905550505050565b600160009054906101000a900473ffffffffffffffffffffffffffffffffffffffff1673ffffffffffffffffffffffffffffffffffffffff163373ffffffffffffffffffffffffffffffffffffffff16146120e2576040517f08c379a00000000000000000000000000000000000000000000000000000000081526004016120d9906177c5565b60405180910390fd5b60008060009054906101000a900473ffffffffffffffffffffffffffffffffffffffff169050336000806101000a81548173ffffffffffffffffffffffffffffffffffffffff021916908373ffffffffffffffffffffffffffffffffffffffff1602179055506000600160006101000a81548173ffffffffffffffffffffffffffffffffffffffff021916908373ffffffffffffffffffffffffffffffffffffffff1602179055503373ffffffffffffffffffffffffffffffffffffffff168173ffffffffffffffffffffffffffffffffffffffff167f8be0079c531659141344cd1fd0a4f28419497f9722a3daafe3b4186f6b6457e060405160405180910390a350565b600b60000160069054906101000a900460ff1615612231576040517fed3ba6a600000000000000000000000000000000000000000000000000000000815260040160405180910390fd5b600073ffffffffffffffffffffffffffffffffffffffff16600360008367ffffffffffffffff1667ffffffffffffffff16815260200190815260200160002060000160009054906101000a900473ffffffffffffffffffffffffffffffffffffffff1673ffffffffffffffffffffffffffffffffffffffff1614156122e2576040517f1f6a65b600000000000000000000000000000000000000000000000000000000815260040160405180910390fd5b3373ffffffffffffffffffffffffffffffffffffffff16600360008367ffffffffffffffff1667ffffffffffffffff16815260200190815260200160002060010160009054906101000a900473ffffffffffffffffffffffffffffffffffffffff1673ffffffffffffffffffffffffffffffffffffffff16146123e657600360008267ffffffffffffffff1667ffffffffffffffff16815260200190815260200160002060010160009054906101000a900473ffffffffffffffffffffffffffffffffffffffff166040517fd084e9750000000000000000000000000000000000000000000000000000000081526004016123dd919061759d565b60405180910390fd5b6000600360008367ffffffffffffffff1667ffffffffffffffff16815260200190815260200160002060000160009054906101000a900473ffffffffffffffffffffffffffffffffffffffff16905033600360008467ffffffffffffffff1667ffffffffffffffff16815260200190815260200160002060000160006101000a81548173ffffffffffffffffffffffffffffffffffffffff021916908373ffffffffffffffffffffffffffffffffffffffff1602179055506000600360008467ffffffffffffffff1667ffffffffffffffff16815260200190815260200160002060010160006101000a81548173ffffffffffffffffffffffffffffffffffffffff021916908373ffffffffffffffffffffffffffffffffffffffff1602179055508167ffffffffffffffff167f6f1dc65165ffffedfd8e507b4a0f1fcfdada045ed11f6c26ba27cedfe87802f082336040516125449291906175b8565b60405180910390a25050565b60008060009054906101000a900473ffffffffffffffffffffffffffffffffffffffff16905090565b816000600360008367ffffffffffffffff1667ffffffffffffffff16815260200190815260200160002060000160009054906101000a900473ffffffffffffffffffffffffffffffffffffffff169050600073ffffffffffffffffffffffffffffffffffffffff168173ffffffffffffffffffffffffffffffffffffffff161415612630576040517f1f6a65b600000000000000000000000000000000000000000000000000000000815260040160405180910390fd5b8073ffffffffffffffffffffffffffffffffffffffff163373ffffffffffffffffffffffffffffffffffffffff16146126a057806040517fd8a3fb52000000000000000000000000000000000000000000000000000000008152600401612697919061759d565b60405180910390fd5b600b60000160069054906101000a900460ff16156126ea576040517fed3ba6a600000000000000000000000000000000000000000000000000000000815260040160405180910390fd5b6000600260008573ffffffffffffffffffffffffffffffffffffffff1673ffffffffffffffffffffffffffffffffffffffff16815260200190815260200160002060008667ffffffffffffffff1667ffffffffffffffff16815260200190815260200160002060009054906101000a900467ffffffffffffffff1667ffffffffffffffff1614156127b45783836040517ff0019fe60000000000000000000000000000000000000000000000000000000081526004016127ab929190617e2c565b60405180910390fd5b6000600360008667ffffffffffffffff1667ffffffffffffffff16815260200190815260200160002060020180548060200260200160405190810160405280929190818152602001828054801561286057602002820191906000526020600020905b8160009054906101000a900473ffffffffffffffffffffffffffffffffffffffff1673ffffffffffffffffffffffffffffffffffffffff1681526020019060010190808311612816575b505050505090506000600182516128779190618167565b905060005b82518110156129ff578573ffffffffffffffffffffffffffffffffffffffff168382815181106128af576128ae618614565b5b602002602001015173ffffffffffffffffffffffffffffffffffffffff1614156129ec5760008383815181106128e8576128e7618614565b5b6020026020010151905080600360008a67ffffffffffffffff1667ffffffffffffffff168152602001908152602001600020600201838154811061292f5761292e618614565b5b9060005260206000200160006101000a81548173ffffffffffffffffffffffffffffffffffffffff021916908373ffffffffffffffffffffffffffffffffffffffff160217905550600360008967ffffffffffffffff1667ffffffffffffffff1681526020019081526020016000206002018054806129b1576129b06185e5565b5b6001900381819060005260206000200160006101000a81549073ffffffffffffffffffffffffffffffffffffffff02191690559055506129ff565b80806129f7906184a4565b91505061287c565b50600260008673ffffffffffffffffffffffffffffffffffffffff1673ffffffffffffffffffffffffffffffffffffffff16815260200190815260200160002060008767ffffffffffffffff1667ffffffffffffffff16815260200190815260200160002060006101000a81549067ffffffffffffffff02191690558567ffffffffffffffff167f182bff9831466789164ca77075fffd84916d35a8180ba73c27e45634549b445b86604051612ab5919061759d565b60405180910390a2505050505050565b6000600b60000160069054906101000a900460ff1615612b11576040517fed3ba6a600000000000000000000000000000000000000000000000000000000815260040160405180910390fd5b6005600081819054906101000a900467ffffffffffffffff1680929190612b37906184ed565b91906101000a81548167ffffffffffffffff021916908367ffffffffffffffff160217905550506000600560009054906101000a900467ffffffffffffffff16905060008067ffffffffffffffff811115612b9557612b94618643565b5b604051908082528060200260200182016040528015612bc35781602001602082028036833780820191505090505b509050604051806040016040528060006bffffffffffffffffffffffff168152602001600067ffffffffffffffff16815250600460008467ffffffffffffffff1667ffffffffffffffff16815260200190815260200160002060008201518160000160006101000a8154816bffffffffffffffffffffffff02191690836bffffffffffffffffffffffff160217905550602082015181600001600c6101000a81548167ffffffffffffffff021916908367ffffffffffffffff16021790555090505060405180606001604052803373ffffffffffffffffffffffffffffffffffffffff168152602001600073ffffffffffffffffffffffffffffffffffffffff16815260200182815250600360008467ffffffffffffffff1667ffffffffffffffff16815260200190815260200160002060008201518160000160006101000a81548173ffffffffffffffffffffffffffffffffffffffff021916908373ffffffffffffffffffffffffffffffffffffffff16021790555060208201518160010160006101000a81548173ffffffffffffffffffffffffffffffffffffffff021916908373ffffffffffffffffffffffffffffffffffffffff1602179055506040820151816002019080519060200190612d9e9291906162e4565b509050508167ffffffffffffffff167f464722b4166576d3dcbba877b999bc35cf911f4eaf434b7eba68fa113951d0bf33604051612ddc919061759d565b60405180910390a2819250505090565b60008060006060600073ffffffffffffffffffffffffffffffffffffffff16600360008767ffffffffffffffff1667ffffffffffffffff16815260200190815260200160002060000160009054906101000a900473ffffffffffffffffffffffffffffffffffffffff1673ffffffffffffffffffffffffffffffffffffffff161415612ea4576040517f1f6a65b600000000000000000000000000000000000000000000000000000000815260040160405180910390fd5b600460008667ffffffffffffffff1667ffffffffffffffff16815260200190815260200160002060000160009054906101000a90046bffffffffffffffffffffffff16600460008767ffffffffffffffff1667ffffffffffffffff168152602001908152602001600020600001600c9054906101000a900467ffffffffffffffff16600360008867ffffffffffffffff1667ffffffffffffffff16815260200190815260200160002060000160009054906101000a900473ffffffffffffffffffffffffffffffffffffffff16600360008967ffffffffffffffff1667ffffffffffffffff1681526020019081526020016000206002018080548060200260200160405190810160405280929190818152602001828054801561301c57602002820191906000526020600020905b8160009054906101000a900473ffffffffffffffffffffffffffffffffffffffff1673ffffffffffffffffffffffffffffffffffffffff1681526020019060010190808311612fd2575b5050505050905093509350935093509193509193565b600b60000160069054906101000a900460ff161561307c576040517fed3ba6a600000000000000000000000000000000000000000000000000000000815260040160405180910390fd5b7f000000000000000000000000000000000000000000000000000000000000000073ffffffffffffffffffffffffffffffffffffffff163373ffffffffffffffffffffffffffffffffffffffff1614613101576040517f44b0e3c300000000000000000000000000000000000000000000000000000000815260040160405180910390fd5b6020828290501461313e576040517f8129bbcd00000000000000000000000000000000000000000000000000000000815260040160405180910390fd5b6000828281019061314f9190616c5d565b9050600073ffffffffffffffffffffffffffffffffffffffff16600360008367ffffffffffffffff1667ffffffffffffffff16815260200190815260200160002060000160009054906101000a900473ffffffffffffffffffffffffffffffffffffffff1673ffffffffffffffffffffffffffffffffffffffff161415613202576040517f1f6a65b600000000000000000000000000000000000000000000000000000000815260040160405180910390fd5b6000600460008367ffffffffffffffff1667ffffffffffffffff16815260200190815260200160002060000160009054906101000a90046bffffffffffffffffffffffff166bffffffffffffffffffffffff16905084600460008467ffffffffffffffff1667ffffffffffffffff16815260200190815260200160002060000160008282829054906101000a90046bffffffffffffffffffffffff166132a8919061809a565b92506101000a8154816bffffffffffffffffffffffff02191690836bffffffffffffffffffffffff16021790555084600560088282829054906101000a90046bffffffffffffffffffffffff166132ff919061809a565b92506101000a8154816bffffffffffffffffffffffff02191690836bffffffffffffffffffffffff1602179055508167ffffffffffffffff167fd39ec07f4e209f627a4c427971473820dc129761ba28de8906bd56f57101d4f88287846133669190618006565b604051613374929190617bb0565b60405180910390a2505050505050565b7f000000000000000000000000000000000000000000000000000000000000000081565b6000600b60000160069054906101000a900460ff16156133f4576040517fed3ba6a600000000000000000000000000000000000000000000000000000000815260040160405180910390fd5b60005a905060008060006134088787614aa0565b9250925092506000866060015163ffffffff1667ffffffffffffffff81111561343457613433618643565b5b6040519080825280602002602001820160405280156134625781602001602082028036833780820191505090505b50905060005b876060015163ffffffff168110156134d857828160405160200161348d929190617bb0565b6040516020818303038152906040528051906020012060001c8282815181106134b9576134b8618614565b5b60200260200101818152505080806134d0906184a4565b915050613468565b506009600084815260200190815260200160002060009055600080631fe543e360e01b858460405160240161350e929190617b80565b604051602081830303815290604052907bffffffffffffffffffffffffffffffffffffffffffffffffffffffff19166020820180517bffffffffffffffffffffffffffffffffffffffffffffffffffffffff838183161783525050505090506001600b60000160066101000a81548160ff02191690831515021790555060006135a68a6040015163ffffffff168b6080015184614dc8565b90506000600b60000160066101000a81548160ff0219169083151502179055506000600460008c6020015167ffffffffffffffff1667ffffffffffffffff168152602001908152602001600020600001600c9054906101000a900467ffffffffffffffff1690506001600460008d6020015167ffffffffffffffff1667ffffffffffffffff168152602001908152602001600020600001600c8282829054906101000a900467ffffffffffffffff1661365f919061805c565b92506101000a81548167ffffffffffffffff021916908367ffffffffffffffff16021790555060006136b68a600b600001600b9054906101000a900463ffffffff1663ffffffff166136b085613987565b3a614985565b9050806bffffffffffffffffffffffff16600460008e6020015167ffffffffffffffff1667ffffffffffffffff16815260200190815260200160002060000160009054906101000a90046bffffffffffffffffffffffff166bffffffffffffffffffffffff161015613754576040517ff4d678b800000000000000000000000000000000000000000000000000000000815260040160405180910390fd5b80600460008e6020015167ffffffffffffffff1667ffffffffffffffff16815260200190815260200160002060000160008282829054906101000a90046bffffffffffffffffffffffff166137a9919061819b565b92506101000a8154816bffffffffffffffffffffffff02191690836bffffffffffffffffffffffff1602179055508060086000600660008d815260200190815260200160002060009054906101000a900473ffffffffffffffffffffffffffffffffffffffff1673ffffffffffffffffffffffffffffffffffffffff1673ffffffffffffffffffffffffffffffffffffffff16815260200190815260200160002060008282829054906101000a90046bffffffffffffffffffffffff16613870919061809a565b92506101000a8154816bffffffffffffffffffffffff02191690836bffffffffffffffffffffffff160217905550877f7dffc5ae5ee4e2e4df1651cf6ad329a73cebdb728f37ea0187b9b17e036756e48883866040516138d293929190617cee565b60405180910390a2809a505050505050505050505092915050565b600080600080600b60000160009054906101000a900461ffff16600b60000160029054906101000a900463ffffffff16600b60000160079054906101000a900463ffffffff16600b600001600b9054906101000a900463ffffffff16935093509350935090919293565b60008160405160200161396a9190617633565b604051602081830303815290604052805190602001209050919050565b600080600c604051806101200160405290816000820160009054906101000a900463ffffffff1663ffffffff1663ffffffff1681526020016000820160049054906101000a900463ffffffff1663ffffffff1663ffffffff1681526020016000820160089054906101000a900463ffffffff1663ffffffff1663ffffffff16815260200160008201600c9054906101000a900463ffffffff1663ffffffff1663ffffffff1681526020016000820160109054906101000a900463ffffffff1663ffffffff1663ffffffff1681526020016000820160149054906101000a900462ffffff1662ffffff1662ffffff1681526020016000820160179054906101000a900462ffffff1662ffffff1662ffffff16815260200160008201601a9054906101000a900462ffffff1662ffffff1662ffffff16815260200160008201601d9054906101000a900462ffffff1662ffffff1662ffffff168152505090508267ffffffffffffffff16600011158015613b1257508060a0015162ffffff168367ffffffffffffffff1611155b15613b24578060000151915050613c03565b8267ffffffffffffffff168160a0015162ffffff16108015613b5957508060c0015162ffffff168367ffffffffffffffff1611155b15613b6b578060200151915050613c03565b8267ffffffffffffffff168160c0015162ffffff16108015613ba057508060e0015162ffffff168367ffffffffffffffff1611155b15613bb2578060400151915050613c03565b8267ffffffffffffffff168160e0015162ffffff16108015613be8575080610100015162ffffff168367ffffffffffffffff1611155b15613bfa578060600151915050613c03565b80608001519150505b919050565b816000600360008367ffffffffffffffff1667ffffffffffffffff16815260200190815260200160002060000160009054906101000a900473ffffffffffffffffffffffffffffffffffffffff169050600073ffffffffffffffffffffffffffffffffffffffff168173ffffffffffffffffffffffffffffffffffffffff161415613cbf576040517f1f6a65b600000000000000000000000000000000000000000000000000000000815260040160405180910390fd5b8073ffffffffffffffffffffffffffffffffffffffff163373ffffffffffffffffffffffffffffffffffffffff1614613d2f57806040517fd8a3fb52000000000000000000000000000000000000000000000000000000008152600401613d26919061759d565b60405180910390fd5b600b60000160069054906101000a900460ff1615613d79576040517fed3ba6a600000000000000000000000000000000000000000000000000000000815260040160405180910390fd5b613d8284613ff8565b15613db9576040517fb42f66e800000000000000000000000000000000000000000000000000000000815260040160405180910390fd5b613dc3848461436e565b50505050565b613dd16142de565b60007f000000000000000000000000000000000000000000000000000000000000000073ffffffffffffffffffffffffffffffffffffffff166370a08231306040518263ffffffff1660e01b8152600401613e2c919061759d565b60206040518083038186803b158015613e4457600080fd5b505afa158015613e58573d6000803e3d6000fd5b505050506040513d601f19601f82011682018060405250810190613e7c9190616bdd565b90506000600560089054906101000a90046bffffffffffffffffffffffff166bffffffffffffffffffffffff16905081811115613ef25780826040517fa99da302000000000000000000000000000000000000000000000000000000008152600401613ee9929190617bb0565b60405180910390fd5b81811015613ff35760008183613f089190618167565b90507f000000000000000000000000000000000000000000000000000000000000000073ffffffffffffffffffffffffffffffffffffffff1663a9059cbb85836040518363ffffffff1660e01b8152600401613f659291906175e1565b602060405180830381600087803b158015613f7f57600080fd5b505af1158015613f93573d6000803e3d6000fd5b505050506040513d601f19601f82011682018060405250810190613fb79190616a0b565b507f59bfc682b673f8cbf945f1e454df9334834abf7dfe7f92237ca29ecb9b4366008482604051613fe99291906175e1565b60405180910390a1505b505050565b600080600360008467ffffffffffffffff1667ffffffffffffffff1681526020019081526020016000206040518060600160405290816000820160009054906101000a900473ffffffffffffffffffffffffffffffffffffffff1673ffffffffffffffffffffffffffffffffffffffff1673ffffffffffffffffffffffffffffffffffffffff1681526020016001820160009054906101000a900473ffffffffffffffffffffffffffffffffffffffff1673ffffffffffffffffffffffffffffffffffffffff1673ffffffffffffffffffffffffffffffffffffffff1681526020016002820180548060200260200160405190810160405280929190818152602001828054801561415e57602002820191906000526020600020905b8160009054906101000a900473ffffffffffffffffffffffffffffffffffffffff1673ffffffffffffffffffffffffffffffffffffffff1681526020019060010190808311614114575b505050505081525050905060005b8160400151518110156142be5760005b6007805490508110156142aa576000614269600783815481106141a2576141a1618614565b5b9060005260206000200154856040015185815181106141c4576141c3618614565b5b60200260200101518860026000896040015189815181106141e8576141e7618614565b5b602002602001015173ffffffffffffffffffffffffffffffffffffffff1673ffffffffffffffffffffffffffffffffffffffff16815260200190815260200160002060008b67ffffffffffffffff1667ffffffffffffffff16815260200190815260200160002060009054906101000a900467ffffffffffffffff16614913565b5090506000801b6009600083815260200190815260200160002054146142965760019450505050506142c5565b5080806142a2906184a4565b91505061417c565b5080806142b6906184a4565b91505061416c565b5060009150505b919050565b6142d26142de565b6142db81614e15565b50565b60008054906101000a900473ffffffffffffffffffffffffffffffffffffffff1673ffffffffffffffffffffffffffffffffffffffff163373ffffffffffffffffffffffffffffffffffffffff161461436c576040517f08c379a000000000000000000000000000000000000000000000000000000000815260040161436390617825565b60405180910390fd5b565b600b60000160069054906101000a900460ff16156143b8576040517fed3ba6a600000000000000000000000000000000000000000000000000000000815260040160405180910390fd5b6000600360008467ffffffffffffffff1667ffffffffffffffff1681526020019081526020016000206040518060600160405290816000820160009054906101000a900473ffffffffffffffffffffffffffffffffffffffff1673ffffffffffffffffffffffffffffffffffffffff1673ffffffffffffffffffffffffffffffffffffffff1681526020016001820160009054906101000a900473ffffffffffffffffffffffffffffffffffffffff1673ffffffffffffffffffffffffffffffffffffffff1673ffffffffffffffffffffffffffffffffffffffff1681526020016002820180548060200260200160405190810160405280929190818152602001828054801561451d57602002820191906000526020600020905b8160009054906101000a900473ffffffffffffffffffffffffffffffffffffffff1673ffffffffffffffffffffffffffffffffffffffff16815260200190600101908083116144d3575b50505050508152505090506000600460008567ffffffffffffffff1667ffffffffffffffff1681526020019081526020016000206040518060400160405290816000820160009054906101000a90046bffffffffffffffffffffffff166bffffffffffffffffffffffff166bffffffffffffffffffffffff16815260200160008201600c9054906101000a900467ffffffffffffffff1667ffffffffffffffff1667ffffffffffffffff1681525050905060008160000151905060005b83604001515181101561469357600260008560400151838151811061460257614601618614565b5b602002602001015173ffffffffffffffffffffffffffffffffffffffff1673ffffffffffffffffffffffffffffffffffffffff16815260200190815260200160002060008767ffffffffffffffff1667ffffffffffffffff16815260200190815260200160002060006101000a81549067ffffffffffffffff0219169055808061468b906184a4565b9150506145da565b50600360008667ffffffffffffffff1667ffffffffffffffff168152602001908152602001600020600080820160006101000a81549073ffffffffffffffffffffffffffffffffffffffff02191690556001820160006101000a81549073ffffffffffffffffffffffffffffffffffffffff021916905560028201600061471a919061636e565b5050600460008667ffffffffffffffff1667ffffffffffffffff168152602001908152602001600020600080820160006101000a8154906bffffffffffffffffffffffff021916905560008201600c6101000a81549067ffffffffffffffff0219169055505080600560088282829054906101000a90046bffffffffffffffffffffffff166147a9919061819b565b92506101000a8154816bffffffffffffffffffffffff02191690836bffffffffffffffffffffffff1602179055507f000000000000000000000000000000000000000000000000000000000000000073ffffffffffffffffffffffffffffffffffffffff1663a9059cbb85836bffffffffffffffffffffffff166040518363ffffffff1660e01b81526004016148409291906175e1565b602060405180830381600087803b15801561485a57600080fd5b505af115801561486e573d6000803e3d6000fd5b505050506040513d601f19601f820116820180604052508101906148929190616a0b565b6148c8576040517ff4d678b800000000000000000000000000000000000000000000000000000000815260040160405180910390fd5b8467ffffffffffffffff167fe8ed5b475a5b5987aa9165e8731bb78043f39eee32ec5a1169a89e27fcd49815858360405161490492919061760a565b60405180910390a25050505050565b60008060008686868660405160200161492f9493929190617684565b6040516020818303038152906040528051906020012060001c9050868160405160200161495d9291906176c9565b6040516020818303038152906040528051906020012060001c81925092505094509492505050565b600080614990614f42565b9050600081136149d757806040517f43d4cf660000000000000000000000000000000000000000000000000000000081526004016149ce9190617788565b60405180910390fd5b6000815a88886149e79190618006565b6149f19190618167565b85670de0b6b3a7640000614a05919061810d565b614a0f919061810d565b614a1991906180dc565b905060008563ffffffff1664e8d4a51000614a34919061810d565b9050806b033b2e3c9fd0803ce8000000614a4e9190618167565b821115614a87576040517fe80fa38100000000000000000000000000000000000000000000000000000000815260040160405180910390fd5b8082614a939190618006565b9350505050949350505050565b6000806000614ab28560000151613957565b925060006006600085815260200190815260200160002060009054906101000a900473ffffffffffffffffffffffffffffffffffffffff169050600073ffffffffffffffffffffffffffffffffffffffff168173ffffffffffffffffffffffffffffffffffffffff161415614b5e57836040517f77f5b84c000000000000000000000000000000000000000000000000000000008152600401614b559190617669565b60405180910390fd5b838660800151604051602001614b759291906176c9565b6040516020818303038152906040528051906020012060001c92506000600960008581526020019081526020016000205490506000801b811415614be5576040517f3688124a00000000000000000000000000000000000000000000000000000000815260040160405180910390fd5b8386600001518760200151886040015189606001518a60800151604051602001614c1496959493929190617c8d565b604051602081830303815290604052805190602001208114614c62576040517fd529142c00000000000000000000000000000000000000000000000000000000815260040160405180910390fd5b6000866000015167ffffffffffffffff164090506000801b811415614d7d577f000000000000000000000000000000000000000000000000000000000000000073ffffffffffffffffffffffffffffffffffffffff1663e9413d3888600001516040518263ffffffff1660e01b8152600401614cde9190617df6565b60206040518083038186803b158015614cf657600080fd5b505afa158015614d0a573d6000803e3d6000fd5b505050506040513d601f19601f82011682018060405250810190614d2e9190616a38565b90506000801b811415614d7c5786600001516040517f175dadad000000000000000000000000000000000000000000000000000000008152600401614d739190617df6565b60405180910390fd5b5b6000886080015182604051602001614d96929190617571565b6040516020818303038152906040528051906020012060001c9050614dbb898261504e565b9450505050509250925092565b60005a611388811015614dda57600080fd5b611388810390508460408204820311614df257600080fd5b833b614dfd57600080fd5b6000808451602086016000888af19150509392505050565b3373ffffffffffffffffffffffffffffffffffffffff168173ffffffffffffffffffffffffffffffffffffffff161415614e84576040517f08c379a0000000000000000000000000000000000000000000000000000000008152600401614e7b90617965565b60405180910390fd5b80600160006101000a81548173ffffffffffffffffffffffffffffffffffffffff021916908373ffffffffffffffffffffffffffffffffffffffff1602179055508073ffffffffffffffffffffffffffffffffffffffff1660008054906101000a900473ffffffffffffffffffffffffffffffffffffffff1673ffffffffffffffffffffffffffffffffffffffff167fed8889f560326eb138920d842192f0eb3dd22b4f139c87a2c57538e05bae127860405160405180910390a350565b600080600b60000160079054906101000a900463ffffffff1690506000808263ffffffff161190506000807f000000000000000000000000000000000000000000000000000000000000000073ffffffffffffffffffffffffffffffffffffffff1663feaf968c6040518163ffffffff1660e01b815260040160a06040518083038186803b158015614fd357600080fd5b505afa158015614fe7573d6000803e3d6000fd5b505050506040513d601f19601f8201168201806040525081019061500b9190616cca565b9091929350909150508093508192505050828015615039575081426150309190618167565b8463ffffffff16105b1561504457600a5490505b8094505050505090565b60006150828360000151846020015185604001518660600151868860a001518960c001518a60e001518b61010001516150bb565b6003836020015160405160200161509a929190617b57565b6040516020818303038152906040528051906020012060001c905092915050565b6150c4896152a8565b615103576040517f08c379a00000000000000000000000000000000000000000000000000000000081526004016150fa90617905565b60405180910390fd5b61510c886152a8565b61514b576040517f08c379a000000000000000000000000000000000000000000000000000000000815260040161514290617925565b60405180910390fd5b615154836152a8565b615193576040517f08c379a000000000000000000000000000000000000000000000000000000000815260040161518a906178e5565b60405180910390fd5b61519c826152a8565b6151db576040517f08c379a00000000000000000000000000000000000000000000000000000000081526004016151d2906179e5565b60405180910390fd5b6151e7878a8887615429565b615226576040517f08c379a000000000000000000000000000000000000000000000000000000000815260040161521d906178a5565b60405180910390fd5b60006152328a87615647565b90506000615245898b878b8689896156d9565b90506000615256838d8d8a86615860565b9050808a1461529a576040517f08c379a000000000000000000000000000000000000000000000000000000000815260040161529190617945565b60405180910390fd5b505050505050505050505050565b60007ffffffffffffffffffffffffffffffffffffffffffffffffffffffffefffffc2f826000600281106152df576152de618614565b5b602002015110615324576040517f08c379a000000000000000000000000000000000000000000000000000000000815260040161531b90617865565b60405180910390fd5b7ffffffffffffffffffffffffffffffffffffffffffffffffffffffffefffffc2f8260016002811061535957615358618614565b5b60200201511061539e576040517f08c379a0000000000000000000000000000000000000000000000000000000008152600401615395906179c5565b60405180910390fd5b7ffffffffffffffffffffffffffffffffffffffffffffffffffffffffefffffc2f806153cd576153cc6185b6565b5b826001600281106153e1576153e0618614565b5b6020020151836001600281106153fa576153f9618614565b5b6020020151096154218360006002811061541757615416618614565b5b60200201516158a2565b149050919050565b60008073ffffffffffffffffffffffffffffffffffffffff168273ffffffffffffffffffffffffffffffffffffffff16141561549a576040517f08c379a000000000000000000000000000000000000000000000000000000000815260040161549190617885565b60405180910390fd5b6000806002866001600281106154b3576154b2618614565b5b6020020151816154c6576154c56185b6565b5b06146154d357601c6154d6565b601b5b905060007ffffffffffffffffffffffffffffffffebaaedce6af48a03bbfd25e8cd036414180615509576155086185b6565b5b858760006002811061551e5761551d618614565b5b6020020151097ffffffffffffffffffffffffffffffffebaaedce6af48a03bbfd25e8cd03641410360001b905060007ffffffffffffffffffffffffffffffffebaaedce6af48a03bbfd25e8cd03641418061557c5761557b6185b6565b5b876000600281106155905761558f618614565b5b6020020151890960001b90506000600183858a6000600281106155b6576155b5618614565b5b602002015160001b85604051600081526020016040526040516155dc94939291906176f2565b6020604051602081039080840390855afa1580156155fe573d6000803e3d6000fd5b5050506020604051035190508573ffffffffffffffffffffffffffffffffffffffff168173ffffffffffffffffffffffffffffffffffffffff1614945050505050949350505050565b61564f61638f565b61567c6001848460405160200161566893929190617534565b604051602081830303815290604052615945565b90505b615688816152a8565b6156d3576156cc816000600281106156a3576156a2618614565b5b60200201516040516020016156b891906174a9565b604051602081830303815290604052615945565b905061567f565b92915050565b6156e161638f565b7ffffffffffffffffffffffffffffffffffffffffffffffffffffffffefffffc2f8360006002811061571657615715618614565b5b602002015181615729576157286185b6565b5b067ffffffffffffffffffffffffffffffffffffffffffffffffffffffffefffffc2f8760006002811061575f5761575e618614565b5b602002015181615772576157716185b6565b5b0614156157b4576040517f08c379a00000000000000000000000000000000000000000000000000000000081526004016157ab90617805565b60405180910390fd5b6157bf878988615a49565b6157fe576040517f08c379a00000000000000000000000000000000000000000000000000000000081526004016157f590617985565b60405180910390fd5b615809848685615a49565b615848576040517f08c379a000000000000000000000000000000000000000000000000000000000815260040161583f906177e5565b60405180910390fd5b615853868484615be1565b9050979650505050505050565b60006002868686858760405160200161587e969594939291906174c4565b6040516020818303038152906040528051906020012060001c905095945050505050565b6000807ffffffffffffffffffffffffffffffffffffffffffffffffffffffffefffffc2f806158d4576158d36185b6565b5b7ffffffffffffffffffffffffffffffffffffffffffffffffffffffffefffffc2f80615903576159026185b6565b5b848509840990507ffffffffffffffffffffffffffffffffffffffffffffffffffffffffefffffc2f80615939576159386185b6565b5b60078208915050919050565b61594d61638f565b61595682615d5d565b8160006002811061596a57615969618614565b5b60200201818152505061599c6159978260006002811061598d5761598c618614565b5b60200201516158a2565b615dca565b816001600281106159b0576159af618614565b5b60200201818152505060016002826001600281106159d1576159d0618614565b5b6020020151816159e4576159e36185b6565b5b061415615a4457806001600281106159ff576159fe618614565b5b60200201517ffffffffffffffffffffffffffffffffffffffffffffffffffffffffefffffc2f0381600160028110615a3a57615a39618614565b5b6020020181815250505b919050565b600080831415615a8e576040517f08c379a0000000000000000000000000000000000000000000000000000000008152600401615a85906179a5565b60405180910390fd5b600084600060028110615aa457615aa3618614565b5b60200201519050600080600287600160028110615ac457615ac3618614565b5b6020020151615ad39190618556565b14615adf57601c615ae2565b601b5b905060007ffffffffffffffffffffffffffffffffebaaedce6af48a03bbfd25e8cd036414180615b1557615b146185b6565b5b83870960001b9050600060016000801b848660001b8560405160008152602001604052604051615b4894939291906176f2565b6020604051602081039080840390855afa158015615b6a573d6000803e3d6000fd5b505050602060405103519050600086604051602001615b89919061748e565b6040516020818303038152906040528051906020012060001c90508073ffffffffffffffffffffffffffffffffffffffff168273ffffffffffffffffffffffffffffffffffffffff1614955050505050509392505050565b615be961638f565b6000806000615c5a87600060028110615c0557615c04618614565b5b602002015188600160028110615c1e57615c1d618614565b5b602002015188600060028110615c3757615c36618614565b5b602002015189600160028110615c5057615c4f618614565b5b6020020151615e0d565b80935081945082955050505060017ffffffffffffffffffffffffffffffffffffffffffffffffffffffffefffffc2f80615c9757615c966185b6565b5b86830914615cda576040517f08c379a0000000000000000000000000000000000000000000000000000000008152600401615cd1906178c5565b60405180910390fd5b60405180604001604052807ffffffffffffffffffffffffffffffffffffffffffffffffffffffffefffffc2f80615d1457615d136185b6565b5b87860981526020017ffffffffffffffffffffffffffffffffffffffffffffffffffffffffefffffc2f80615d4b57615d4a6185b6565b5b87850981525093505050509392505050565b6000818051906020012060001c90505b7ffffffffffffffffffffffffffffffffffffffffffffffffffffffffefffffc2f8110615dc55780604051602001615da591906174a9565b6040516020818303038152906040528051906020012060001c9050615d6d565b919050565b6000615e0682600260017ffffffffffffffffffffffffffffffffffffffffffffffffffffffffefffffc2f615dff9190618006565b901c616004565b9050919050565b60008060008060006001809150915060007ffffffffffffffffffffffffffffffffffffffffffffffffffffffffefffffc2f80615e4d57615e4c6185b6565b5b897ffffffffffffffffffffffffffffffffffffffffffffffffffffffffefffffc2f038808905060007ffffffffffffffffffffffffffffffffffffffffffffffffffffffffefffffc2f80615ea557615ea46185b6565b5b8b7ffffffffffffffffffffffffffffffffffffffffffffffffffffffffefffffc2f038a0890506000615eda83838585616164565b8092508199505050615eee88828e886161dc565b8092508199505050615f0288828c876161dc565b80925081995050506000615f188d878b856161dc565b8092508199505050615f2c88828686616164565b8092508199505050615f4088828e896161dc565b8092508199505050808214615ff0577ffffffffffffffffffffffffffffffffffffffffffffffffffffffffefffffc2f80615f7e57615f7d6185b6565b5b818a0998507ffffffffffffffffffffffffffffffffffffffffffffffffffffffffefffffc2f80615fb257615fb16185b6565b5b82890997507ffffffffffffffffffffffffffffffffffffffffffffffffffffffffefffffc2f80615fe657615fe56185b6565b5b8183099650615ff4565b8196505b5050505050509450945094915050565b60008061600f6163b1565b60208160006006811061602557616024618614565b5b60200201818152505060208160016006811061604457616043618614565b5b60200201818152505060208160026006811061606357616062618614565b5b602002018181525050848160036006811061608157616080618614565b5b602002018181525050838160046006811061609f5761609e618614565b5b6020020181815250507ffffffffffffffffffffffffffffffffffffffffffffffffffffffffefffffc2f816005600681106160dd576160dc618614565b5b6020020181815250506160ee6163d3565b60208160c0846005600019fa92506000831415616140576040517f08c379a000000000000000000000000000000000000000000000000000000000815260040161613790617845565b60405180910390fd5b8060006001811061615457616153618614565b5b6020020151935050505092915050565b6000807ffffffffffffffffffffffffffffffffffffffffffffffffffffffffefffffc2f80616196576161956185b6565b5b8487097ffffffffffffffffffffffffffffffffffffffffffffffffffffffffefffffc2f806161c8576161c76185b6565b5b848709809250819350505094509492505050565b60008060007ffffffffffffffffffffffffffffffffffffffffffffffffffffffffefffffc2f806162105761620f6185b6565b5b878509905060007ffffffffffffffffffffffffffffffffffffffffffffffffffffffffefffffc2f80616246576162456185b6565b5b87877ffffffffffffffffffffffffffffffffffffffffffffffffffffffffefffffc2f030990507ffffffffffffffffffffffffffffffffffffffffffffffffffffffffefffffc2f8061629c5761629b6185b6565b5b8183087ffffffffffffffffffffffffffffffffffffffffffffffffffffffffefffffc2f806162ce576162cd6185b6565b5b8689098094508195505050505094509492505050565b82805482825590600052602060002090810192821561635d579160200282015b8281111561635c5782518260006101000a81548173ffffffffffffffffffffffffffffffffffffffff021916908373ffffffffffffffffffffffffffffffffffffffff16021790555091602001919060010190616304565b5b50905061636a91906163f5565b5090565b508054600082559060005260206000209081019061638c91906163f5565b50565b6040518060400160405280600290602082028036833780820191505090505090565b6040518060c00160405280600690602082028036833780820191505090505090565b6040518060200160405280600190602082028036833780820191505090505090565b5b8082111561640e5760008160009055506001016163f6565b5090565b600061642561642084617ee1565b617ebc565b9050808285602086028201111561643f5761643e618681565b5b60005b8581101561646f57816164558882616812565b845260208401935060208301925050600181019050616442565b5050509392505050565b60008135905061648881618a05565b92915050565b6000819050826020600202820111156164aa576164a9618681565b5b92915050565b600082601f8301126164c5576164c4618677565b5b60026164d2848285616412565b91505092915050565b6000815190506164ea81618a1c565b92915050565b6000813590506164ff81618a33565b92915050565b60008151905061651481618a33565b92915050565b60008083601f8401126165305761652f618677565b5b8235905067ffffffffffffffff81111561654d5761654c618672565b5b60208301915083600182028301111561656957616568618681565b5b9250929050565b60008135905061657f81618a4a565b92915050565b60008151905061659481618a4a565b92915050565b600061012082840312156165b1576165b061867c565b5b6165bc610120617ebc565b905060006165cc8482850161683c565b60008301525060206165e08482850161683c565b60208301525060406165f48482850161683c565b60408301525060606166088482850161683c565b606083015250608061661c8482850161683c565b60808301525060a0616630848285016167fd565b60a08301525060c0616644848285016167fd565b60c08301525060e0616658848285016167fd565b60e08301525061010061666d848285016167fd565b6101008301525092915050565b60006101a082840312156166915761669061867c565b5b61669c610120617ebc565b905060006166ac848285016164b0565b60008301525060406166c0848285016164b0565b60208301525060806166d484828501616812565b60408301525060a06166e884828501616812565b60608301525060c06166fc84828501616812565b60808301525060e061671084828501616479565b60a083015250610100616725848285016164b0565b60c08301525061014061673a848285016164b0565b60e08301525061018061674f84828501616812565b6101008301525092915050565b600060a082840312156167725761677161867c565b5b61677c60a0617ebc565b9050600061678c84828501616851565b60008301525060206167a084828501616851565b60208301525060406167b48482850161683c565b60408301525060606167c88482850161683c565b60608301525060806167dc84828501616479565b60808301525092915050565b6000813590506167f781618a61565b92915050565b60008135905061680c81618a78565b92915050565b60008135905061682181618a8f565b92915050565b60008151905061683681618a8f565b92915050565b60008135905061684b81618aa6565b92915050565b60008135905061686081618abd565b92915050565b60008151905061687581618ad4565b92915050565b60008135905061688a81618aeb565b92915050565b6000602082840312156168a6576168a561868b565b5b60006168b484828501616479565b91505092915050565b600080606083850312156168d4576168d361868b565b5b60006168e285828601616479565b92505060206168f38582860161648e565b9150509250929050565b600080600080606085870312156169175761691661868b565b5b600061692587828801616479565b945050602061693687828801616812565b935050604085013567ffffffffffffffff81111561695757616956618686565b5b6169638782880161651a565b925092505092959194509250565b600080604083850312156169885761698761868b565b5b600061699685828601616479565b92505060206169a78582860161687b565b9150509250929050565b6000604082840312156169c7576169c661868b565b5b60006169d58482850161648e565b91505092915050565b6000604082840312156169f4576169f361868b565b5b6000616a02848285016164b0565b91505092915050565b600060208284031215616a2157616a2061868b565b5b6000616a2f848285016164db565b91505092915050565b600060208284031215616a4e57616a4d61868b565b5b6000616a5c84828501616505565b91505092915050565b600080600080600060a08688031215616a8157616a8061868b565b5b6000616a8f888289016164f0565b9550506020616aa088828901616851565b9450506040616ab1888289016167e8565b9350506060616ac28882890161683c565b9250506080616ad38882890161683c565b9150509295509295909350565b6000806102408385031215616af857616af761868b565b5b6000616b068582860161667a565b9250506101a0616b188582860161675c565b9150509250929050565b6000806000806000806101c08789031215616b4057616b3f61868b565b5b6000616b4e89828a016167e8565b9650506020616b5f89828a0161683c565b9550506040616b7089828a0161683c565b9450506060616b8189828a0161683c565b9350506080616b9289828a01616570565b92505060a0616ba389828a0161659a565b9150509295509295509295565b600060208284031215616bc657616bc561868b565b5b6000616bd484828501616812565b91505092915050565b600060208284031215616bf357616bf261868b565b5b6000616c0184828501616827565b91505092915050565b600080600060608486031215616c2357616c2261868b565b5b6000616c3186828701616812565b9350506020616c428682870161683c565b9250506040616c5386828701616812565b9150509250925092565b600060208284031215616c7357616c7261868b565b5b6000616c8184828501616851565b91505092915050565b60008060408385031215616ca157616ca061868b565b5b6000616caf85828601616851565b9250506020616cc085828601616479565b9150509250929050565b600080600080600060a08688031215616ce657616ce561868b565b5b6000616cf488828901616866565b9550506020616d0588828901616585565b9450506040616d1688828901616827565b9350506060616d2788828901616827565b9250506080616d3888828901616866565b9150509295509295909350565b6000616d518383616da5565b60208301905092915050565b6000616d698383616fb1565b60208301905092915050565b6000616d8183836173e1565b60208301905092915050565b6000616d9983836173ff565b60208301905092915050565b616dae816181ee565b82525050565b616dbd816181ee565b82525050565b616dd4616dcf826181ee565b61851e565b82525050565b6000616de582617f41565b616def8185617fac565b9350616dfa83617f07565b8060005b83811015616e2b578151616e128882616d45565b9750616e1d83617f78565b925050600181019050616dfe565b5085935050505092915050565b6000616e4382617f4c565b616e4d8185617fbd565b9350616e5883617f17565b8060005b83811015616e89578151616e708882616d5d565b9750616e7b83617f85565b925050600181019050616e5c565b5085935050505092915050565b616e9f81617f57565b616ea98184617fce565b9250616eb482617f27565b8060005b83811015616ee5578151616ecc8782616d75565b9650616ed783617f92565b925050600181019050616eb8565b505050505050565b616ef681617f57565b616f008184617fd9565b9250616f0b82617f27565b8060005b83811015616f3c578151616f238782616d8d565b9650616f2e83617f92565b925050600181019050616f0f565b505050505050565b6000616f4f82617f62565b616f598185617fe4565b9350616f6483617f31565b8060005b83811015616f95578151616f7c8882616d75565b9750616f8783617f9f565b925050600181019050616f68565b5085935050505092915050565b616fab81618200565b82525050565b616fba8161820c565b82525050565b616fc98161820c565b82525050565b616fe0616fdb8261820c565b618530565b82525050565b616fef816182c6565b82525050565b616ffe816182ea565b82525050565b61700d8161830e565b82525050565b61701c81618216565b82525050565b600061702d82617f6d565b6170378185617ff5565b9350617047818560208601618356565b61705081618690565b840191505092915050565b6000617068601683617ff5565b915061707382618723565b602082019050919050565b600061708b601783617ff5565b91506170968261874c565b602082019050919050565b60006170ae601e83617ff5565b91506170b982618775565b602082019050919050565b60006170d1601683617ff5565b91506170dc8261879e565b602082019050919050565b60006170f4601283617ff5565b91506170ff826187c7565b602082019050919050565b6000617117601283617ff5565b9150617122826187f0565b602082019050919050565b600061713a600b83617ff5565b915061714582618819565b602082019050919050565b600061715d601983617ff5565b915061716882618842565b602082019050919050565b6000617180601983617ff5565b915061718b8261886b565b602082019050919050565b60006171a3601d83617ff5565b91506171ae82618894565b602082019050919050565b60006171c6601a83617ff5565b91506171d1826188bd565b602082019050919050565b60006171e9601583617ff5565b91506171f4826188e6565b602082019050919050565b600061720c600d83617ff5565b91506172178261890f565b602082019050919050565b600061722f601783617ff5565b915061723a82618938565b602082019050919050565b6000617252601683617ff5565b915061725d82618961565b602082019050919050565b6000617275600b83617ff5565b91506172808261898a565b602082019050919050565b6000617298601283617ff5565b91506172a3826189b3565b602082019050919050565b60006172bb601c83617ff5565b91506172c6826189dc565b602082019050919050565b610120820160008083015490506172e781618389565b6172f46000860182617425565b506172fe8161843f565b61730b6020860182617425565b5061731581618459565b6173226040860182617425565b5061732c816183a3565b6173396060860182617425565b50617343816183bd565b6173506080860182617425565b5061735a816183d7565b61736760a08601826173c3565b50617371816183f1565b61737e60c08601826173c3565b506173888161840b565b61739560e08601826173c3565b5061739f81618425565b6173ad6101008601826173c3565b5050505050565b6173bd81618220565b82525050565b6173cc8161824e565b82525050565b6173db8161824e565b82525050565b6173ea8161825d565b82525050565b6173f98161825d565b82525050565b6174088161825d565b82525050565b61741f61741a8261825d565b61854c565b82525050565b61742e81618267565b82525050565b61743d81618267565b82525050565b61744c81618332565b82525050565b61745b81618277565b82525050565b61746a8161828b565b82525050565b61747981618344565b82525050565b617488816182ae565b82525050565b600061749a8284616eed565b60408201915081905092915050565b60006174b5828461740e565b60208201915081905092915050565b60006174d0828961740e565b6020820191506174e08288616eed565b6040820191506174f08287616eed565b6040820191506175008286616eed565b6040820191506175108285616eed565b6040820191506175208284616dc3565b601482019150819050979650505050505050565b6000617540828661740e565b6020820191506175508285616eed565b604082019150617560828461740e565b602082019150819050949350505050565b600061757d828561740e565b60208201915061758d8284616fcf565b6020820191508190509392505050565b60006020820190506175b26000830184616db4565b92915050565b60006040820190506175cd6000830185616db4565b6175da6020830184616db4565b9392505050565b60006040820190506175f66000830185616db4565b61760360208301846173f0565b9392505050565b600060408201905061761f6000830185616db4565b61762c6020830184617470565b9392505050565b60006040820190506176486000830184616e96565b92915050565b60006020820190506176636000830184616fa2565b92915050565b600060208201905061767e6000830184616fc0565b92915050565b60006080820190506176996000830187616fc0565b6176a66020830186616db4565b6176b36040830185617452565b6176c06060830184617452565b95945050505050565b60006040820190506176de6000830185616fc0565b6176eb60208301846173f0565b9392505050565b60006080820190506177076000830187616fc0565b6177146020830186617461565b6177216040830185616fc0565b61772e6060830184616fc0565b95945050505050565b600060208201905061774c6000830184616fe6565b92915050565b60006020820190506177676000830184616ff5565b92915050565b60006020820190506177826000830184617004565b92915050565b600060208201905061779d6000830184617013565b92915050565b600060208201905081810360008301526177bd8184617022565b905092915050565b600060208201905081810360008301526177de8161705b565b9050919050565b600060208201905081810360008301526177fe8161707e565b9050919050565b6000602082019050818103600083015261781e816170a1565b9050919050565b6000602082019050818103600083015261783e816170c4565b9050919050565b6000602082019050818103600083015261785e816170e7565b9050919050565b6000602082019050818103600083015261787e8161710a565b9050919050565b6000602082019050818103600083015261789e8161712d565b9050919050565b600060208201905081810360008301526178be81617150565b9050919050565b600060208201905081810360008301526178de81617173565b9050919050565b600060208201905081810360008301526178fe81617196565b9050919050565b6000602082019050818103600083015261791e816171b9565b9050919050565b6000602082019050818103600083015261793e816171dc565b9050919050565b6000602082019050818103600083015261795e816171ff565b9050919050565b6000602082019050818103600083015261797e81617222565b9050919050565b6000602082019050818103600083015261799e81617245565b9050919050565b600060208201905081810360008301526179be81617268565b9050919050565b600060208201905081810360008301526179de8161728b565b9050919050565b600060208201905081810360008301526179fe816172ae565b9050919050565b6000602082019050617a1a60008301846173b4565b92915050565b6000606082019050617a3560008301866173b4565b617a4260208301856173b4565b617a4f60408301846173b4565b949350505050565b6000606082019050617a6c60008301866173b4565b617a796020830185617434565b8181036040830152617a8b8184616e38565b9050949350505050565b6000608082019050617aaa60008301876173b4565b617ab76020830186617434565b617ac46040830185617434565b617ad16060830184617434565b95945050505050565b60006101c082019050617af060008301896173b4565b617afd6020830188617434565b617b0a6040830187617434565b617b176060830186617434565b617b246080830185617013565b617b3160a08301846172d1565b979650505050505050565b6000602082019050617b5160008301846173f0565b92915050565b6000606082019050617b6c60008301856173f0565b617b796020830184616e96565b9392505050565b6000604082019050617b9560008301856173f0565b8181036020830152617ba78184616f44565b90509392505050565b6000604082019050617bc560008301856173f0565b617bd260208301846173f0565b9392505050565b600060a082019050617bee60008301886173f0565b617bfb60208301876173f0565b617c0860408301866173b4565b617c156060830185617434565b617c226080830184617434565b9695505050505050565b600060c082019050617c4160008301896173f0565b617c4e60208301886173f0565b617c5b6040830187617452565b617c686060830186617434565b617c756080830185617434565b617c8260a0830184616db4565b979650505050505050565b600060c082019050617ca260008301896173f0565b617caf6020830188617452565b617cbc6040830187617452565b617cc96060830186617434565b617cd66080830185617434565b617ce360a0830184616db4565b979650505050505050565b6000606082019050617d0360008301866173f0565b617d10602083018561747f565b617d1d6040830184616fa2565b949350505050565b6000602082019050617d3a6000830184617434565b92915050565b6000604082019050617d556000830185617434565b617d626020830184617434565b9392505050565b600061012082019050617d7f600083018c617434565b617d8c602083018b617434565b617d99604083018a617434565b617da66060830189617434565b617db36080830188617434565b617dc060a08301876173d2565b617dcd60c08301866173d2565b617dda60e08301856173d2565b617de86101008301846173d2565b9a9950505050505050505050565b6000602082019050617e0b6000830184617443565b92915050565b6000602082019050617e266000830184617452565b92915050565b6000604082019050617e416000830185617452565b617e4e6020830184616db4565b9392505050565b6000602082019050617e6a600083018461747f565b92915050565b6000608082019050617e85600083018761747f565b617e926020830186617452565b617e9f6040830185616db4565b8181036060830152617eb18184616dda565b905095945050505050565b6000617ec6617ed7565b9050617ed28282618473565b919050565b6000604051905090565b600067ffffffffffffffff821115617efc57617efb618643565b5b602082029050919050565b6000819050602082019050919050565b6000819050602082019050919050565b6000819050919050565b6000819050602082019050919050565b600081519050919050565b600081519050919050565b600060029050919050565b600081519050919050565b600081519050919050565b6000602082019050919050565b6000602082019050919050565b6000602082019050919050565b6000602082019050919050565b600082825260208201905092915050565b600082825260208201905092915050565b600081905092915050565b600081905092915050565b600082825260208201905092915050565b600082825260208201905092915050565b60006180118261825d565b915061801c8361825d565b9250827fffffffffffffffffffffffffffffffffffffffffffffffffffffffffffffffff0382111561805157618050618587565b5b828201905092915050565b600061806782618277565b915061807283618277565b92508267ffffffffffffffff0382111561808f5761808e618587565b5b828201905092915050565b60006180a5826182ae565b91506180b0836182ae565b9250826bffffffffffffffffffffffff038211156180d1576180d0618587565b5b828201905092915050565b60006180e78261825d565b91506180f28361825d565b925082618102576181016185b6565b5b828204905092915050565b60006181188261825d565b91506181238361825d565b9250817fffffffffffffffffffffffffffffffffffffffffffffffffffffffffffffffff048311821515161561815c5761815b618587565b5b828202905092915050565b60006181728261825d565b915061817d8361825d565b9250828210156181905761818f618587565b5b828203905092915050565b60006181a6826182ae565b91506181b1836182ae565b9250828210156181c4576181c3618587565b5b828203905092915050565b600062ffffff82169050919050565b600063ffffffff82169050919050565b60006181f98261822e565b9050919050565b60008115159050919050565b6000819050919050565b6000819050919050565b600061ffff82169050919050565b600073ffffffffffffffffffffffffffffffffffffffff82169050919050565b600062ffffff82169050919050565b6000819050919050565b600063ffffffff82169050919050565b600067ffffffffffffffff82169050919050565b600060ff82169050919050565b600069ffffffffffffffffffff82169050919050565b60006bffffffffffffffffffffffff82169050919050565b60006182d1826182d8565b9050919050565b60006182e38261822e565b9050919050565b60006182f5826182fc565b9050919050565b60006183078261822e565b9050919050565b600061831982618320565b9050919050565b600061832b8261822e565b9050919050565b600061833d82618277565b9050919050565b600061834f826182ae565b9050919050565b60005b83811015618374578082015181840152602081019050618359565b83811115618383576000848401525b50505050565b600061839c618397836186ae565b6181de565b9050919050565b60006183b66183b183618716565b6181de565b9050919050565b60006183d06183cb836186bb565b6181de565b9050919050565b60006183ea6183e5836186c8565b6181cf565b9050919050565b60006184046183ff836186d5565b6181cf565b9050919050565b600061841e618419836186e2565b6181cf565b9050919050565b6000618438618433836186ef565b6181cf565b9050919050565b600061845261844d836186fc565b6181de565b9050919050565b600061846c61846783618709565b6181de565b9050919050565b61847c82618690565b810181811067ffffffffffffffff8211171561849b5761849a618643565b5b80604052505050565b60006184af8261825d565b91507fffffffffffffffffffffffffffffffffffffffffffffffffffffffffffffffff8214156184e2576184e1618587565b5b600182019050919050565b60006184f882618277565b915067ffffffffffffffff82141561851357618512618587565b5b600182019050919050565b60006185298261853a565b9050919050565b6000819050919050565b6000618545826186a1565b9050919050565b6000819050919050565b60006185618261825d565b915061856c8361825d565b92508261857c5761857b6185b6565b5b828206905092915050565b7f4e487b7100000000000000000000000000000000000000000000000000000000600052601160045260246000fd5b7f4e487b7100000000000000000000000000000000000000000000000000000000600052601260045260246000fd5b7f4e487b7100000000000000000000000000000000000000000000000000000000600052603160045260246000fd5b7f4e487b7100000000000000000000000000000000000000000000000000000000600052603260045260246000fd5b7f4e487b7100000000000000000000000000000000000000000000000000000000600052604160045260246000fd5b600080fd5b600080fd5b600080fd5b600080fd5b600080fd5b600080fd5b6000601f19601f8301169050919050565b60008160601b9050919050565b60008160001c9050919050565b60008160801c9050919050565b60008160a01c9050919050565b60008160b81c9050919050565b60008160d01c9050919050565b60008160e81c9050919050565b60008160201c9050919050565b60008160401c9050919050565b60008160601c9050919050565b7f4d7573742062652070726f706f736564206f776e657200000000000000000000600082015250565b7f5365636f6e64206d756c20636865636b206661696c6564000000000000000000600082015250565b7f706f696e747320696e2073756d206d7573742062652064697374696e63740000600082015250565b7f4f6e6c792063616c6c61626c65206279206f776e657200000000000000000000600082015250565b7f6269674d6f64457870206661696c757265210000000000000000000000000000600082015250565b7f696e76616c696420782d6f7264696e6174650000000000000000000000000000600082015250565b7f626164207769746e657373000000000000000000000000000000000000000000600082015250565b7f6164647228632a706b2b732a6729213d5f755769746e65737300000000000000600082015250565b7f696e765a206d75737420626520696e7665727365206f66207a00000000000000600082015250565b7f6347616d6d615769746e657373206973206e6f74206f6e206375727665000000600082015250565b7f7075626c6963206b6579206973206e6f74206f6e206375727665000000000000600082015250565b7f67616d6d61206973206e6f74206f6e2063757276650000000000000000000000600082015250565b7f696e76616c69642070726f6f6600000000000000000000000000000000000000600082015250565b7f43616e6e6f74207472616e7366657220746f2073656c66000000000000000000600082015250565b7f4669727374206d756c20636865636b206661696c656400000000000000000000600082015250565b7f7a65726f207363616c6172000000000000000000000000000000000000000000600082015250565b7f696e76616c696420792d6f7264696e6174650000000000000000000000000000600082015250565b7f73486173685769746e657373206973206e6f74206f6e20637572766500000000600082015250565b618a0e816181ee565b8114618a1957600080fd5b50565b618a2581618200565b8114618a3057600080fd5b50565b618a3c8161820c565b8114618a4757600080fd5b50565b618a5381618216565b8114618a5e57600080fd5b50565b618a6a81618220565b8114618a7557600080fd5b50565b618a818161824e565b8114618a8c57600080fd5b50565b618a988161825d565b8114618aa357600080fd5b50565b618aaf81618267565b8114618aba57600080fd5b50565b618ac681618277565b8114618ad157600080fd5b50565b618add81618298565b8114618ae857600080fd5b50565b618af4816182ae565b8114618aff57600080fd5b5056fea26469706673582212203b62cc55cbaf5c9cf016d8309a7ca16aa11e6411a04039d43d9a142d671557dc64736f6c63430008060033",
  "linkReferences": {},
  "deployedLinkReferences": {}
}