{
  "_format": "hh-sol-artifact-1",
  "contractName": "VRFConsumer",
  "sourceName": "contracts/chainlink/v0.8/tests/VRFConsumer.sol",
  "abi": [
    {
      "inputs": [
        {
          "internalType": "address",
          "name": "vrfCoordinator",
          "type": "address"
        },
        {
          "internalType": "address",
          "name": "link",
          "type": "address"
        }
      ],
      "stateMutability": "nonpayable",
      "type": "constructor"
    },
    {
      "inputs": [],
      "name": "randomnessOutput",
      "outputs": [
        {
          "internalType": "uint256",
          "name": "",
          "type": "uint256"
        }
      ],
      "stateMutability": "view",
      "type": "function"
    },
    {
      "inputs": [
        {
          "internalType": "bytes32",
          "name": "requestId",
          "type": "bytes32"
        },
        {
          "internalType": "uint256",
          "name": "randomness",
          "type": "uint256"
        }
      ],
      "name": "rawFulfillRandomness",
      "outputs": [],
      "stateMutability": "nonpayable",
      "type": "function"
    },
    {
      "inputs": [],
      "name": "requestId",
      "outputs": [
        {
          "internalType": "bytes32",
          "name": "",
          "type": "bytes32"
        }
      ],
      "stateMutability": "view",
      "type": "function"
    },
    {
      "inputs": [
        {
          "internalType": "bytes32",
          "name": "keyHash",
          "type": "bytes32"
        },
        {
          "internalType": "uint256",
          "name": "fee",
          "type": "uint256"
        }
      ],
      "name": "testRequestRandomness",
      "outputs": [
        {
          "internalType": "bytes32",
          "name": "",
          "type": "bytes32"
        }
      ],
      "stateMutability": "nonpayable",
      "type": "function"
    }
  ],
  "bytecode": "0x60c060405234801561001057600080fd5b5060405161098b38038061098b833981810160405281019061003291906100c0565b81818173ffffffffffffffffffffffffffffffffffffffff1660a08173ffffffffffffffffffffffffffffffffffffffff1660601b815250508073ffffffffffffffffffffffffffffffffffffffff1660808173ffffffffffffffffffffffffffffffffffffffff1660601b815250505050505061014e565b6000815190506100ba81610137565b92915050565b600080604083850312156100d7576100d6610132565b5b60006100e5858286016100ab565b92505060206100f6858286016100ab565b9150509250929050565b600061010b82610112565b9050919050565b600073ffffffffffffffffffffffffffffffffffffffff82169050919050565b600080fd5b61014081610100565b811461014b57600080fd5b50565b60805160601c60a05160601c61080c61017f6000396000818160fa01526101d401526000610198015261080c6000f3fe608060405234801561001057600080fd5b506004361061004b5760003560e01c80626d6cae146100505780632f47fd861461006e578063866ee7481461008c57806394985ddd146100bc575b600080fd5b6100586100d8565b6040516100659190610543565b60405180910390f35b6100766100de565b60405161008391906105ec565b60405180910390f35b6100a660048036038101906100a191906103e2565b6100e4565b6040516100b39190610543565b60405180910390f35b6100d660048036038101906100d191906103e2565b6100f8565b005b60025481565b60015481565b60006100f08383610194565b905092915050565b7f000000000000000000000000000000000000000000000000000000000000000073ffffffffffffffffffffffffffffffffffffffff163373ffffffffffffffffffffffffffffffffffffffff1614610186576040517f08c379a000000000000000000000000000000000000000000000000000000000815260040161017d906105cc565b60405180910390fd5b61019082826102f3565b5050565b60007f000000000000000000000000000000000000000000000000000000000000000073ffffffffffffffffffffffffffffffffffffffff16634000aea07f00000000000000000000000000000000000000000000000000000000000000008486600060405160200161020892919061055e565b6040516020818303038152906040526040518463ffffffff1660e01b815260040161023593929190610505565b602060405180830381600087803b15801561024f57600080fd5b505af1158015610263573d6000803e3d6000fd5b505050506040513d601f19601f8201168201806040525081019061028791906103b5565b5060006102a98460003060008089815260200190815260200160002054610307565b90506001600080868152602001908152602001600020546102ca9190610634565b600080868152602001908152602001600020819055506102ea8482610343565b91505092915050565b806001819055506002546002819055505050565b6000848484846040516020016103209493929190610587565b6040516020818303038152906040528051906020012060001c9050949350505050565b600082826040516020016103589291906104d9565b60405160208183030381529060405280519060200120905092915050565b60008151905061038581610791565b92915050565b60008135905061039a816107a8565b92915050565b6000813590506103af816107bf565b92915050565b6000602082840312156103cb576103ca610752565b5b60006103d984828501610376565b91505092915050565b600080604083850312156103f9576103f8610752565b5b60006104078582860161038b565b9250506020610418858286016103a0565b9150509250929050565b61042b8161068a565b82525050565b61043a816106a8565b82525050565b61045161044c826106a8565b61070f565b82525050565b600061046282610607565b61046c8185610612565b935061047c8185602086016106dc565b61048581610757565b840191505092915050565b600061049d601f83610623565b91506104a882610768565b602082019050919050565b6104bc816106d2565b82525050565b6104d36104ce826106d2565b610719565b82525050565b60006104e58285610440565b6020820191506104f582846104c2565b6020820191508190509392505050565b600060608201905061051a6000830186610422565b61052760208301856104b3565b81810360408301526105398184610457565b9050949350505050565b60006020820190506105586000830184610431565b92915050565b60006040820190506105736000830185610431565b61058060208301846104b3565b9392505050565b600060808201905061059c6000830187610431565b6105a960208301866104b3565b6105b66040830185610422565b6105c360608301846104b3565b95945050505050565b600060208201905081810360008301526105e581610490565b9050919050565b600060208201905061060160008301846104b3565b92915050565b600081519050919050565b600082825260208201905092915050565b600082825260208201905092915050565b600061063f826106d2565b915061064a836106d2565b9250827fffffffffffffffffffffffffffffffffffffffffffffffffffffffffffffffff0382111561067f5761067e610723565b5b828201905092915050565b6000610695826106b2565b9050919050565b60008115159050919050565b6000819050919050565b600073ffffffffffffffffffffffffffffffffffffffff82169050919050565b6000819050919050565b60005b838110156106fa5780820151818401526020810190506106df565b83811115610709576000848401525b50505050565b6000819050919050565b6000819050919050565b7f4e487b7100000000000000000000000000000000000000000000000000000000600052601160045260246000fd5b600080fd5b6000601f19601f8301169050919050565b7f4f6e6c7920565246436f6f7264696e61746f722063616e2066756c66696c6c00600082015250565b61079a8161069c565b81146107a557600080fd5b50565b6107b1816106a8565b81146107bc57600080fd5b50565b6107c8816106d2565b81146107d357600080fd5b5056fea2646970667358221220781a87543f746ed8e7af3e02723a6cf0bcb6e2245fd0a659fe9485b89d602ff864736f6c63430008060033",
  "linkReferences": {},
  "deployedLinkReferences": {}
}