{
  "_format": "hh-sol-artifact-1",
  "contractName": "FeedConsumer",
  "sourceName": "contracts/chainlink/v0.8/tests/FeedConsumer.sol",
  "abi": [
    {
      "inputs": [
        {
          "internalType": "address",
          "name": "feedAddress",
          "type": "address"
        }
      ],
      "stateMutability": "nonpayable",
      "type": "constructor"
    },
    {
      "inputs": [],
      "name": "AGGREGATOR",
      "outputs": [
        {
          "internalType": "contract AggregatorV2V3Interface",
          "name": "",
          "type": "address"
        }
      ],
      "stateMutability": "view",
      "type": "function"
    },
    {
      "inputs": [],
      "name": "decimals",
      "outputs": [
        {
          "internalType": "uint8",
          "name": "",
          "type": "uint8"
        }
      ],
      "stateMutability": "view",
      "type": "function"
    },
    {
      "inputs": [],
      "name": "description",
      "outputs": [
        {
          "internalType": "string",
          "name": "",
          "type": "string"
        }
      ],
      "stateMutability": "view",
      "type": "function"
    },
    {
      "inputs": [
        {
          "internalType": "uint256",
          "name": "roundId",
          "type": "uint256"
        }
      ],
      "name": "getAnswer",
      "outputs": [
        {
          "internalType": "int256",
          "name": "",
          "type": "int256"
        }
      ],
      "stateMutability": "view",
      "type": "function"
    },
    {
      "inputs": [
        {
          "internalType": "uint80",
          "name": "_roundId",
          "type": "uint80"
        }
      ],
      "name": "getRoundData",
      "outputs": [
        {
          "internalType": "uint80",
          "name": "roundId",
          "type": "uint80"
        },
        {
          "internalType": "int256",
          "name": "answer",
          "type": "int256"
        },
        {
          "internalType": "uint256",
          "name": "startedAt",
          "type": "uint256"
        },
        {
          "internalType": "uint256",
          "name": "updatedAt",
          "type": "uint256"
        },
        {
          "internalType": "uint80",
          "name": "answeredInRound",
          "type": "uint80"
        }
      ],
      "stateMutability": "view",
      "type": "function"
    },
    {
      "inputs": [
        {
          "internalType": "uint256",
          "name": "roundId",
          "type": "uint256"
        }
      ],
      "name": "getTimestamp",
      "outputs": [
        {
          "internalType": "uint256",
          "name": "",
          "type": "uint256"
        }
      ],
      "stateMutability": "view",
      "type": "function"
    },
    {
      "inputs": [],
      "name": "latestAnswer",
      "outputs": [
        {
          "internalType": "int256",
          "name": "answer",
          "type": "int256"
        }
      ],
      "stateMutability": "view",
      "type": "function"
    },
    {
      "inputs": [],
      "name": "latestRound",
      "outputs": [
        {
          "internalType": "uint256",
          "name": "",
          "type": "uint256"
        }
      ],
      "stateMutability": "view",
      "type": "function"
    },
    {
      "inputs": [],
      "name": "latestRoundData",
      "outputs": [
        {
          "internalType": "uint80",
          "name": "roundId",
          "type": "uint80"
        },
        {
          "internalType": "int256",
          "name": "answer",
          "type": "int256"
        },
        {
          "internalType": "uint256",
          "name": "startedAt",
          "type": "uint256"
        },
        {
          "internalType": "uint256",
          "name": "updatedAt",
          "type": "uint256"
        },
        {
          "internalType": "uint80",
          "name": "answeredInRound",
          "type": "uint80"
        }
      ],
      "stateMutability": "view",
      "type": "function"
    },
    {
      "inputs": [],
      "name": "latestTimestamp",
      "outputs": [
        {
          "internalType": "uint256",
          "name": "",
          "type": "uint256"
        }
      ],
      "stateMutability": "view",
      "type": "function"
    },
    {
      "inputs": [],
      "name": "version",
      "outputs": [
        {
          "internalType": "uint256",
          "name": "",
          "type": "uint256"
        }
      ],
      "stateMutability": "view",
      "type": "function"
    }
  ],
  "bytecode": "0x60a06040523480156200001157600080fd5b50604051620010dc380380620010dc83398181016040528101906200003791906200008c565b8073ffffffffffffffffffffffffffffffffffffffff1660808173ffffffffffffffffffffffffffffffffffffffff1660601b815250505062000111565b6000815190506200008681620000f7565b92915050565b600060208284031215620000a557620000a4620000f2565b5b6000620000b58482850162000075565b91505092915050565b6000620000cb82620000d2565b9050919050565b600073ffffffffffffffffffffffffffffffffffffffff82169050919050565b600080fd5b6200010281620000be565b81146200010e57600080fd5b50565b60805160601c610f66620001766000396000818161023a015281816102df0152818161038401528181610429015281816104ce0152818161057801528181610623015281816106e10152818161079301528181610843015261086f0152610f666000f3fe608060405234801561001057600080fd5b50600436106100a95760003560e01c80638205bf6a116100715780638205bf6a146101445780639a6fc8f514610162578063b5ab58dc14610196578063b633620c146101c6578063eb365adc146101f6578063feaf968c14610214576100a9565b8063313ce567146100ae57806350d25bcd146100cc57806354fd4d50146100ea578063668a0f02146101085780637284e41614610126575b600080fd5b6100b6610236565b6040516100c39190610d14565b60405180910390f35b6100d46102db565b6040516100e19190610c4e565b60405180910390f35b6100f2610380565b6040516100ff9190610c8b565b60405180910390f35b610110610425565b60405161011d9190610c8b565b60405180910390f35b61012e6104ca565b60405161013b9190610c69565b60405180910390f35b61014c610574565b6040516101599190610c8b565b60405180910390f35b61017c60048036038101906101779190610ada565b610619565b60405161018d959493929190610cc1565b60405180910390f35b6101b060048036038101906101ab9190610a80565b6106dd565b6040516101bd9190610c4e565b60405180910390f35b6101e060048036038101906101db9190610a80565b61078f565b6040516101ed9190610c8b565b60405180910390f35b6101fe610841565b60405161020b9190610c33565b60405180910390f35b61021c610865565b60405161022d959493929190610cc1565b60405180910390f35b60007f000000000000000000000000000000000000000000000000000000000000000073ffffffffffffffffffffffffffffffffffffffff1663313ce5676040518163ffffffff1660e01b815260040160206040518083038186803b15801561029e57600080fd5b505afa1580156102b2573d6000803e3d6000fd5b505050506040513d601f19601f820116820180604052508101906102d69190610b82565b905090565b60007f000000000000000000000000000000000000000000000000000000000000000073ffffffffffffffffffffffffffffffffffffffff166350d25bcd6040518163ffffffff1660e01b815260040160206040518083038186803b15801561034357600080fd5b505afa158015610357573d6000803e3d6000fd5b505050506040513d601f19601f8201168201806040525081019061037b9190610a0a565b905090565b60007f000000000000000000000000000000000000000000000000000000000000000073ffffffffffffffffffffffffffffffffffffffff166354fd4d506040518163ffffffff1660e01b815260040160206040518083038186803b1580156103e857600080fd5b505afa1580156103fc573d6000803e3d6000fd5b505050506040513d601f19601f820116820180604052508101906104209190610aad565b905090565b60007f000000000000000000000000000000000000000000000000000000000000000073ffffffffffffffffffffffffffffffffffffffff1663668a0f026040518163ffffffff1660e01b815260040160206040518083038186803b15801561048d57600080fd5b505afa1580156104a1573d6000803e3d6000fd5b505050506040513d601f19601f820116820180604052508101906104c59190610aad565b905090565b60607f000000000000000000000000000000000000000000000000000000000000000073ffffffffffffffffffffffffffffffffffffffff16637284e4166040518163ffffffff1660e01b815260040160006040518083038186803b15801561053257600080fd5b505afa158015610546573d6000803e3d6000fd5b505050506040513d6000823e3d601f19601f8201168201806040525081019061056f9190610a37565b905090565b60007f000000000000000000000000000000000000000000000000000000000000000073ffffffffffffffffffffffffffffffffffffffff16638205bf6a6040518163ffffffff1660e01b815260040160206040518083038186803b1580156105dc57600080fd5b505afa1580156105f0573d6000803e3d6000fd5b505050506040513d601f19601f820116820180604052508101906106149190610aad565b905090565b60008060008060007f000000000000000000000000000000000000000000000000000000000000000073ffffffffffffffffffffffffffffffffffffffff16639a6fc8f5876040518263ffffffff1660e01b815260040161067a9190610ca6565b60a06040518083038186803b15801561069257600080fd5b505afa1580156106a6573d6000803e3d6000fd5b505050506040513d601f19601f820116820180604052508101906106ca9190610b07565b9450945094509450945091939590929450565b60007f000000000000000000000000000000000000000000000000000000000000000073ffffffffffffffffffffffffffffffffffffffff1663b5ab58dc836040518263ffffffff1660e01b81526004016107389190610c8b565b60206040518083038186803b15801561075057600080fd5b505afa158015610764573d6000803e3d6000fd5b505050506040513d601f19601f820116820180604052508101906107889190610a0a565b9050919050565b60007f000000000000000000000000000000000000000000000000000000000000000073ffffffffffffffffffffffffffffffffffffffff1663b633620c836040518263ffffffff1660e01b81526004016107ea9190610c8b565b60206040518083038186803b15801561080257600080fd5b505afa158015610816573d6000803e3d6000fd5b505050506040513d601f19601f8201168201806040525081019061083a9190610aad565b9050919050565b7f000000000000000000000000000000000000000000000000000000000000000081565b60008060008060007f000000000000000000000000000000000000000000000000000000000000000073ffffffffffffffffffffffffffffffffffffffff1663feaf968c6040518163ffffffff1660e01b815260040160a06040518083038186803b1580156108d357600080fd5b505afa1580156108e7573d6000803e3d6000fd5b505050506040513d601f19601f8201168201806040525081019061090b9190610b07565b945094509450945094509091929394565b600061092f61092a84610d54565b610d2f565b90508281526020810184848401111561094b5761094a610eb4565b5b610956848285610e1c565b509392505050565b60008151905061096d81610ed4565b92915050565b600082601f83011261098857610987610eaf565b5b815161099884826020860161091c565b91505092915050565b6000813590506109b081610eeb565b92915050565b6000815190506109c581610eeb565b92915050565b6000813590506109da81610f19565b92915050565b6000815190506109ef81610f19565b92915050565b600081519050610a0481610f02565b92915050565b600060208284031215610a2057610a1f610ebe565b5b6000610a2e8482850161095e565b91505092915050565b600060208284031215610a4d57610a4c610ebe565b5b600082015167ffffffffffffffff811115610a6b57610a6a610eb9565b5b610a7784828501610973565b91505092915050565b600060208284031215610a9657610a95610ebe565b5b6000610aa4848285016109a1565b91505092915050565b600060208284031215610ac357610ac2610ebe565b5b6000610ad1848285016109b6565b91505092915050565b600060208284031215610af057610aef610ebe565b5b6000610afe848285016109cb565b91505092915050565b600080600080600060a08688031215610b2357610b22610ebe565b5b6000610b31888289016109e0565b9550506020610b428882890161095e565b9450506040610b53888289016109b6565b9350506060610b64888289016109b6565b9250506080610b75888289016109e0565b9150509295509295909350565b600060208284031215610b9857610b97610ebe565b5b6000610ba6848285016109f5565b91505092915050565b610bb881610df8565b82525050565b610bc781610da1565b82525050565b6000610bd882610d85565b610be28185610d90565b9350610bf2818560208601610e1c565b610bfb81610ec3565b840191505092915050565b610c0f81610dcb565b82525050565b610c1e81610de2565b82525050565b610c2d81610dd5565b82525050565b6000602082019050610c486000830184610baf565b92915050565b6000602082019050610c636000830184610bbe565b92915050565b60006020820190508181036000830152610c838184610bcd565b905092915050565b6000602082019050610ca06000830184610c06565b92915050565b6000602082019050610cbb6000830184610c15565b92915050565b600060a082019050610cd66000830188610c15565b610ce36020830187610bbe565b610cf06040830186610c06565b610cfd6060830185610c06565b610d0a6080830184610c15565b9695505050505050565b6000602082019050610d296000830184610c24565b92915050565b6000610d39610d4a565b9050610d458282610e4f565b919050565b6000604051905090565b600067ffffffffffffffff821115610d6f57610d6e610e80565b5b610d7882610ec3565b9050602081019050919050565b600081519050919050565b600082825260208201905092915050565b6000819050919050565b600073ffffffffffffffffffffffffffffffffffffffff82169050919050565b6000819050919050565b600060ff82169050919050565b600069ffffffffffffffffffff82169050919050565b6000610e0382610e0a565b9050919050565b6000610e1582610dab565b9050919050565b60005b83811015610e3a578082015181840152602081019050610e1f565b83811115610e49576000848401525b50505050565b610e5882610ec3565b810181811067ffffffffffffffff82111715610e7757610e76610e80565b5b80604052505050565b7f4e487b7100000000000000000000000000000000000000000000000000000000600052604160045260246000fd5b600080fd5b600080fd5b600080fd5b600080fd5b6000601f19601f8301169050919050565b610edd81610da1565b8114610ee857600080fd5b50565b610ef481610dcb565b8114610eff57600080fd5b50565b610f0b81610dd5565b8114610f1657600080fd5b50565b610f2281610de2565b8114610f2d57600080fd5b5056fea2646970667358221220071f829c3aa0ade53c61078cd90fb0e88121b914d3e7c40e257033c2d7d1fbe864736f6c63430008060033",
  "linkReferences": {},
  "deployedLinkReferences": {}
}