{
  "_format": "hh-sol-artifact-1",
  "contractName": "ChainlinkClientTestHelper",
  "sourceName": "contracts/chainlink/v0.8/tests/ChainlinkClientTestHelper.sol",
  "abi": [
    {
      "inputs": [
        {
          "internalType": "address",
          "name": "_link",
          "type": "address"
        },
        {
          "internalType": "address",
          "name": "_oracle",
          "type": "address"
        }
      ],
      "stateMutability": "nonpayable",
      "type": "constructor"
    },
    {
      "anonymous": false,
      "inputs": [
        {
          "indexed": true,
          "internalType": "bytes32",
          "name": "id",
          "type": "bytes32"
        }
      ],
      "name": "ChainlinkCancelled",
      "type": "event"
    },
    {
      "anonymous": false,
      "inputs": [
        {
          "indexed": true,
          "internalType": "bytes32",
          "name": "id",
          "type": "bytes32"
        }
      ],
      "name": "ChainlinkFulfilled",
      "type": "event"
    },
    {
      "anonymous": false,
      "inputs": [
        {
          "indexed": true,
          "internalType": "bytes32",
          "name": "id",
          "type": "bytes32"
        }
      ],
      "name": "ChainlinkRequested",
      "type": "event"
    },
    {
      "anonymous": false,
      "inputs": [
        {
          "indexed": false,
          "internalType": "uint256",
          "name": "amount",
          "type": "uint256"
        }
      ],
      "name": "LinkAmount",
      "type": "event"
    },
    {
      "anonymous": false,
      "inputs": [
        {
          "indexed": false,
          "internalType": "bytes32",
          "name": "id",
          "type": "bytes32"
        },
        {
          "indexed": false,
          "internalType": "address",
          "name": "callbackAddress",
          "type": "address"
        },
        {
          "indexed": false,
          "internalType": "bytes4",
          "name": "callbackfunctionSelector",
          "type": "bytes4"
        },
        {
          "indexed": false,
          "internalType": "bytes",
          "name": "data",
          "type": "bytes"
        }
      ],
      "name": "Request",
      "type": "event"
    },
    {
      "inputs": [
        {
          "internalType": "bytes32",
          "name": "_requestId",
          "type": "bytes32"
        },
        {
          "internalType": "bytes32",
          "name": "",
          "type": "bytes32"
        }
      ],
      "name": "fulfillRequest",
      "outputs": [],
      "stateMutability": "nonpayable",
      "type": "function"
    },
    {
      "inputs": [
        {
          "internalType": "address",
          "name": "_oracle",
          "type": "address"
        },
        {
          "internalType": "bytes32",
          "name": "_requestId",
          "type": "bytes32"
        }
      ],
      "name": "publicAddExternalRequest",
      "outputs": [],
      "stateMutability": "nonpayable",
      "type": "function"
    },
    {
      "inputs": [
        {
          "internalType": "bytes32",
          "name": "_requestId",
          "type": "bytes32"
        },
        {
          "internalType": "uint256",
          "name": "_payment",
          "type": "uint256"
        },
        {
          "internalType": "bytes4",
          "name": "_callbackFunctionId",
          "type": "bytes4"
        },
        {
          "internalType": "uint256",
          "name": "_expiration",
          "type": "uint256"
        }
      ],
      "name": "publicCancelRequest",
      "outputs": [],
      "stateMutability": "nonpayable",
      "type": "function"
    },
    {
      "inputs": [],
      "name": "publicChainlinkToken",
      "outputs": [
        {
          "internalType": "address",
          "name": "",
          "type": "address"
        }
      ],
      "stateMutability": "view",
      "type": "function"
    },
    {
      "inputs": [
        {
          "internalType": "bytes32",
          "name": "_requestId",
          "type": "bytes32"
        },
        {
          "internalType": "bytes32",
          "name": "",
          "type": "bytes32"
        }
      ],
      "name": "publicFulfillChainlinkRequest",
      "outputs": [],
      "stateMutability": "nonpayable",
      "type": "function"
    },
    {
      "inputs": [
        {
          "internalType": "uint256",
          "name": "_amount",
          "type": "uint256"
        }
      ],
      "name": "publicLINK",
      "outputs": [],
      "stateMutability": "nonpayable",
      "type": "function"
    },
    {
      "inputs": [
        {
          "internalType": "bytes32",
          "name": "_id",
          "type": "bytes32"
        },
        {
          "internalType": "address",
          "name": "_address",
          "type": "address"
        },
        {
          "internalType": "bytes",
          "name": "_fulfillmentSignature",
          "type": "bytes"
        }
      ],
      "name": "publicNewRequest",
      "outputs": [],
      "stateMutability": "nonpayable",
      "type": "function"
    },
    {
      "inputs": [],
      "name": "publicOracleAddress",
      "outputs": [
        {
          "internalType": "address",
          "name": "",
          "type": "address"
        }
      ],
      "stateMutability": "view",
      "type": "function"
    },
    {
      "inputs": [
        {
          "internalType": "bytes32",
          "name": "_id",
          "type": "bytes32"
        },
        {
          "internalType": "address",
          "name": "_address",
          "type": "address"
        },
        {
          "internalType": "bytes",
          "name": "_fulfillmentSignature",
          "type": "bytes"
        },
        {
          "internalType": "uint256",
          "name": "_wei",
          "type": "uint256"
        }
      ],
      "name": "publicRequest",
      "outputs": [],
      "stateMutability": "nonpayable",
      "type": "function"
    },
    {
      "inputs": [
        {
          "internalType": "bytes32",
          "name": "_id",
          "type": "bytes32"
        },
        {
          "internalType": "bytes",
          "name": "_fulfillmentSignature",
          "type": "bytes"
        },
        {
          "internalType": "uint256",
          "name": "_wei",
          "type": "uint256"
        }
      ],
      "name": "publicRequestOracleData",
      "outputs": [],
      "stateMutability": "nonpayable",
      "type": "function"
    },
    {
      "inputs": [
        {
          "internalType": "address",
          "name": "_oracle",
          "type": "address"
        },
        {
          "internalType": "bytes32",
          "name": "_id",
          "type": "bytes32"
        },
        {
          "internalType": "bytes",
          "name": "_fulfillmentSignature",
          "type": "bytes"
        },
        {
          "internalType": "uint256",
          "name": "_wei",
          "type": "uint256"
        }
      ],
      "name": "publicRequestOracleDataFrom",
      "outputs": [],
      "stateMutability": "nonpayable",
      "type": "function"
    },
    {
      "inputs": [
        {
          "internalType": "address",
          "name": "_oracle",
          "type": "address"
        },
        {
          "internalType": "bytes32",
          "name": "_id",
          "type": "bytes32"
        },
        {
          "internalType": "address",
          "name": "_address",
          "type": "address"
        },
        {
          "internalType": "bytes",
          "name": "_fulfillmentSignature",
          "type": "bytes"
        },
        {
          "internalType": "uint256",
          "name": "_wei",
          "type": "uint256"
        }
      ],
      "name": "publicRequestRunTo",
      "outputs": [],
      "stateMutability": "nonpayable",
      "type": "function"
    }
  ],
  "bytecode": "0x608060405260016004553480156200001657600080fd5b5060405162001bbd38038062001bbd83398181016040528101906200003c919062000105565b6200004d826200006660201b60201c565b6200005e81620000aa60201b60201c565b50506200019f565b80600260006101000a81548173ffffffffffffffffffffffffffffffffffffffff021916908373ffffffffffffffffffffffffffffffffffffffff16021790555050565b80600360006101000a81548173ffffffffffffffffffffffffffffffffffffffff021916908373ffffffffffffffffffffffffffffffffffffffff16021790555050565b600081519050620000ff8162000185565b92915050565b600080604083850312156200011f576200011e62000180565b5b60006200012f85828601620000ee565b92505060206200014285828601620000ee565b9150509250929050565b6000620001598262000160565b9050919050565b600073ffffffffffffffffffffffffffffffffffffffff82169050919050565b600080fd5b62000190816200014c565b81146200019c57600080fd5b50565b611a0e80620001af6000396000f3fe608060405234801561001057600080fd5b50600436106100b45760003560e01c806398bb2b2d1161007157806398bb2b2d14610161578063a1179a271461017f578063ad7e401c1461019b578063d9a26716146101b7578063e24fe90c146101d3578063f7ea03ff146101ef576100b4565b80633f14df82146100b9578063448d6c10146100d55780635491ec6a146100f15780635d64e3101461010d57806366a4f35014610129578063831b5cbd14610145575b600080fd5b6100d360048036038101906100ce919061113f565b61020d565b005b6100ef60048036038101906100ea91906110d8565b61025a565b005b61010b60048036038101906101069190610db0565b61026c565b005b61012760048036038101906101229190611029565b61027a565b005b610143600480360381019061013e9190610fa6565b610287565b005b61015f600480360381019061015a9190611069565b6102af565b005b6101696102d5565b60405161017691906112a4565b60405180910390f35b61019960048036038101906101949190610df0565b6102e4565b005b6101b560048036038101906101b09190611029565b61030e565b005b6101d160048036038101906101cc9190610f37565b61031f565b005b6101ed60048036038101906101e89190610e87565b61038c565b005b6101f76103b4565b60405161020491906112a4565b60405180910390f35b7f81c82a6ea1ed1cf28a5376c6d13caab9047c853ec5107907ec9431c50ec1a85c81670de0b6b3a764000061024291906115dd565b60405161024f91906114e9565b60405180910390a150565b610266848484846103c3565b50505050565b61027682826104d6565b5050565b610283826105d0565b5050565b600061029b858585805190602001206106d9565b90506102a7818361070a565b505050505050565b60006102c2848480519060200120610741565b90506102ce8183610771565b5050505050565b60006102df6107a8565b905090565b60006102f8858585805190602001206106d9565b90506103058682846107d2565b50505050505050565b61031b826000801b61027a565b5050565b6000610333848484805190602001206106d9565b90507f6ae3654efc50e419eaebe21a0569020545587e83c4409cfb1d3a4217cbed8a2181600001518260200151836040015184608001516000015160405161037e94939291906113f8565b60405180910390a150505050565b600061039f848480519060200120610741565b90506103ac85828461089e565b505050505050565b60006103be610968565b905090565b60006005600086815260200190815260200160002060009054906101000a900473ffffffffffffffffffffffffffffffffffffffff1690506005600086815260200190815260200160002060006101000a81549073ffffffffffffffffffffffffffffffffffffffff0219169055847fe1fe3afa0f7f761ff0a8b89086790efd5140d2907ebd5b7ff6bfcb5e075fd4c560405160405180910390a28073ffffffffffffffffffffffffffffffffffffffff16636ee4d553868686866040518563ffffffff1660e01b815260040161049d9493929190611444565b600060405180830381600087803b1580156104b757600080fd5b505af11580156104cb573d6000803e3d6000fd5b505050505050505050565b80600073ffffffffffffffffffffffffffffffffffffffff166005600083815260200190815260200160002060009054906101000a900473ffffffffffffffffffffffffffffffffffffffff1673ffffffffffffffffffffffffffffffffffffffff1614610579576040517f08c379a0000000000000000000000000000000000000000000000000000000008152600401610570906114c9565b60405180910390fd5b826005600084815260200190815260200160002060006101000a81548173ffffffffffffffffffffffffffffffffffffffff021916908373ffffffffffffffffffffffffffffffffffffffff160217905550505050565b806005600082815260200190815260200160002060009054906101000a900473ffffffffffffffffffffffffffffffffffffffff1673ffffffffffffffffffffffffffffffffffffffff163373ffffffffffffffffffffffffffffffffffffffff1614610672576040517f08c379a0000000000000000000000000000000000000000000000000000000008152600401610669906114a9565b60405180910390fd5b6005600082815260200190815260200160002060006101000a81549073ffffffffffffffffffffffffffffffffffffffff0219169055807f7cc135e0cebb02c3480ae5d74d377283180a2601f8f644edf7987b009316c63a60405160405180910390a25050565b6106e1610c50565b6106e9610c50565b61070085858584610992909392919063ffffffff16565b9150509392505050565b6000610739600360009054906101000a900473ffffffffffffffffffffffffffffffffffffffff1684846107d2565b905092915050565b610749610c50565b610751610c50565b61076884308584610992909392919063ffffffff16565b91505092915050565b60006107a0600360009054906101000a900473ffffffffffffffffffffffffffffffffffffffff16848461089e565b905092915050565b6000600260009054906101000a900473ffffffffffffffffffffffffffffffffffffffff16905090565b60008060045490506001816107e79190611587565b6004819055506000634042994660e01b60008087600001513089604001518760018c60800151600001516040516024016108289897969594939291906112bf565b604051602081830303815290604052907bffffffffffffffffffffffffffffffffffffffffffffffffffffffff19166020820180517bffffffffffffffffffffffffffffffffffffffffffffffffffffffff8381831617835250505050905061089386838684610a42565b925050509392505050565b60008060045490506001816108b39190611587565b6004819055506000633c6d41b960e01b600080876000015188604001518660028b60800151600001516040516024016108f29796959493929190611344565b604051602081830303815290604052907bffffffffffffffffffffffffffffffffffffffffffffffffffffffff19166020820180517bffffffffffffffffffffffffffffffffffffffffffffffffffffffff8381831617835250505050905061095d86838684610a42565b925050509392505050565b6000600360009054906101000a900473ffffffffffffffffffffffffffffffffffffffff16905090565b61099a610c50565b6109aa8560800151610100610be6565b508385600001818152505082856020019073ffffffffffffffffffffffffffffffffffffffff16908173ffffffffffffffffffffffffffffffffffffffff16815250508185604001907bffffffffffffffffffffffffffffffffffffffffffffffffffffffff191690817bffffffffffffffffffffffffffffffffffffffffffffffffffffffff191681525050849050949350505050565b60003084604051602001610a57929190611278565b604051602081830303815290604052805190602001209050846005600083815260200190815260200160002060006101000a81548173ffffffffffffffffffffffffffffffffffffffff021916908373ffffffffffffffffffffffffffffffffffffffff160217905550807fb5e6e01e79f91267dc17b4e6314d5d4d03593d2ceee0fbb452b750bd70ea5af960405160405180910390a2600260009054906101000a900473ffffffffffffffffffffffffffffffffffffffff1673ffffffffffffffffffffffffffffffffffffffff16634000aea08685856040518463ffffffff1660e01b8152600401610b4d939291906113ba565b602060405180830381600087803b158015610b6757600080fd5b505af1158015610b7b573d6000803e3d6000fd5b505050506040513d601f19601f82011682018060405250810190610b9f9190610f0a565b610bde576040517f08c379a0000000000000000000000000000000000000000000000000000000008152600401610bd590611489565b60405180910390fd5b949350505050565b610bee610cbd565b6000602083610bfd91906117ae565b14610c2957602082610c0f91906117ae565b6020610c1b9190611637565b82610c269190611587565b91505b81836020018181525050604051808452600081528281016020016040525082905092915050565b6040518060a0016040528060008019168152602001600073ffffffffffffffffffffffffffffffffffffffff16815260200160007bffffffffffffffffffffffffffffffffffffffffffffffffffffffff1916815260200160008152602001610cb7610cbd565b81525090565b604051806040016040528060608152602001600081525090565b6000610cea610ce584611529565b611504565b905082815260208101848484011115610d0657610d05611871565b5b610d1184828561170d565b509392505050565b600081359050610d2881611965565b92915050565b600081519050610d3d8161197c565b92915050565b600081359050610d5281611993565b92915050565b600081359050610d67816119aa565b92915050565b600082601f830112610d8257610d8161186c565b5b8135610d92848260208601610cd7565b91505092915050565b600081359050610daa816119c1565b92915050565b60008060408385031215610dc757610dc661187b565b5b6000610dd585828601610d19565b9250506020610de685828601610d43565b9150509250929050565b600080600080600060a08688031215610e0c57610e0b61187b565b5b6000610e1a88828901610d19565b9550506020610e2b88828901610d43565b9450506040610e3c88828901610d19565b935050606086013567ffffffffffffffff811115610e5d57610e5c611876565b5b610e6988828901610d6d565b9250506080610e7a88828901610d9b565b9150509295509295909350565b60008060008060808587031215610ea157610ea061187b565b5b6000610eaf87828801610d19565b9450506020610ec087828801610d43565b935050604085013567ffffffffffffffff811115610ee157610ee0611876565b5b610eed87828801610d6d565b9250506060610efe87828801610d9b565b91505092959194509250565b600060208284031215610f2057610f1f61187b565b5b6000610f2e84828501610d2e565b91505092915050565b600080600060608486031215610f5057610f4f61187b565b5b6000610f5e86828701610d43565b9350506020610f6f86828701610d19565b925050604084013567ffffffffffffffff811115610f9057610f8f611876565b5b610f9c86828701610d6d565b9150509250925092565b60008060008060808587031215610fc057610fbf61187b565b5b6000610fce87828801610d43565b9450506020610fdf87828801610d19565b935050604085013567ffffffffffffffff81111561100057610fff611876565b5b61100c87828801610d6d565b925050606061101d87828801610d9b565b91505092959194509250565b600080604083850312156110405761103f61187b565b5b600061104e85828601610d43565b925050602061105f85828601610d43565b9150509250929050565b6000806000606084860312156110825761108161187b565b5b600061109086828701610d43565b935050602084013567ffffffffffffffff8111156110b1576110b0611876565b5b6110bd86828701610d6d565b92505060406110ce86828701610d9b565b9150509250925092565b600080600080608085870312156110f2576110f161187b565b5b600061110087828801610d43565b945050602061111187828801610d9b565b935050604061112287828801610d58565b925050606061113387828801610d9b565b91505092959194509250565b6000602082840312156111555761115461187b565b5b600061116384828501610d9b565b91505092915050565b6111758161166b565b82525050565b61118481611689565b82525050565b61119381611693565b82525050565b60006111a48261155a565b6111ae8185611565565b93506111be81856020860161171c565b6111c781611880565b840191505092915050565b6111e36111de826116e9565b611780565b82525050565b60006111f6602383611576565b91506112018261189e565b604082019050919050565b6000611219602883611576565b9150611224826118ed565b604082019050919050565b600061123c601a83611576565b91506112478261193c565b602082019050919050565b61125b816116df565b82525050565b61127261126d826116df565b6117a4565b82525050565b600061128482856111d2565b6014820191506112948284611261565b6020820191508190509392505050565b60006020820190506112b9600083018461116c565b92915050565b6000610100820190506112d5600083018b61116c565b6112e2602083018a611252565b6112ef604083018961117b565b6112fc606083018861116c565b611309608083018761118a565b61131660a0830186611252565b61132360c0830185611252565b81810360e08301526113358184611199565b90509998505050505050505050565b600060e082019050611359600083018a61116c565b6113666020830189611252565b611373604083018861117b565b611380606083018761118a565b61138d6080830186611252565b61139a60a0830185611252565b81810360c08301526113ac8184611199565b905098975050505050505050565b60006060820190506113cf600083018661116c565b6113dc6020830185611252565b81810360408301526113ee8184611199565b9050949350505050565b600060808201905061140d600083018761117b565b61141a602083018661116c565b611427604083018561118a565b81810360608301526114398184611199565b905095945050505050565b6000608082019050611459600083018761117b565b6114666020830186611252565b611473604083018561118a565b6114806060830184611252565b95945050505050565b600060208201905081810360008301526114a2816111e9565b9050919050565b600060208201905081810360008301526114c28161120c565b9050919050565b600060208201905081810360008301526114e28161122f565b9050919050565b60006020820190506114fe6000830184611252565b92915050565b600061150e61151f565b905061151a828261174f565b919050565b6000604051905090565b600067ffffffffffffffff8211156115445761154361183d565b5b61154d82611880565b9050602081019050919050565b600081519050919050565b600082825260208201905092915050565b600082825260208201905092915050565b6000611592826116df565b915061159d836116df565b9250827fffffffffffffffffffffffffffffffffffffffffffffffffffffffffffffffff038211156115d2576115d16117df565b5b828201905092915050565b60006115e8826116df565b91506115f3836116df565b9250817fffffffffffffffffffffffffffffffffffffffffffffffffffffffffffffffff048311821515161561162c5761162b6117df565b5b828202905092915050565b6000611642826116df565b915061164d836116df565b9250828210156116605761165f6117df565b5b828203905092915050565b6000611676826116bf565b9050919050565b60008115159050919050565b6000819050919050565b60007fffffffff0000000000000000000000000000000000000000000000000000000082169050919050565b600073ffffffffffffffffffffffffffffffffffffffff82169050919050565b6000819050919050565b60006116f4826116fb565b9050919050565b6000611706826116bf565b9050919050565b82818337600083830152505050565b60005b8381101561173a57808201518184015260208101905061171f565b83811115611749576000848401525b50505050565b61175882611880565b810181811067ffffffffffffffff821117156117775761177661183d565b5b80604052505050565b600061178b82611792565b9050919050565b600061179d82611891565b9050919050565b6000819050919050565b60006117b9826116df565b91506117c4836116df565b9250826117d4576117d361180e565b5b828206905092915050565b7f4e487b7100000000000000000000000000000000000000000000000000000000600052601160045260246000fd5b7f4e487b7100000000000000000000000000000000000000000000000000000000600052601260045260246000fd5b7f4e487b7100000000000000000000000000000000000000000000000000000000600052604160045260246000fd5b600080fd5b600080fd5b600080fd5b600080fd5b6000601f19601f8301169050919050565b60008160601b9050919050565b7f756e61626c6520746f207472616e73666572416e6443616c6c20746f206f726160008201527f636c650000000000000000000000000000000000000000000000000000000000602082015250565b7f536f75726365206d75737420626520746865206f7261636c65206f662074686560008201527f2072657175657374000000000000000000000000000000000000000000000000602082015250565b7f5265717565737420697320616c72656164792070656e64696e67000000000000600082015250565b61196e8161166b565b811461197957600080fd5b50565b6119858161167d565b811461199057600080fd5b50565b61199c81611689565b81146119a757600080fd5b50565b6119b381611693565b81146119be57600080fd5b50565b6119ca816116df565b81146119d557600080fd5b5056fea2646970667358221220a10dbd64c9ca1d15790cb48ad87a9c4e314b7b9a4f9607ccf65f0fe697338c6d64736f6c63430008060033",
  "linkReferences": {},
  "deployedLinkReferences": {}
}