{
  "_format": "hh-sol-artifact-1",
  "contractName": "CronUpkeepTestHelper",
  "sourceName": "contracts/chainlink/v0.8/tests/CronUpkeepTestHelper.sol",
  "abi": [
    {
      "inputs": [
        {
          "internalType": "address",
          "name": "owner",
          "type": "address"
        },
        {
          "internalType": "address",
          "name": "delegate",
          "type": "address"
        }
      ],
      "stateMutability": "nonpayable",
      "type": "constructor"
    },
    {
      "inputs": [
        {
          "internalType": "uint256",
          "name": "id",
          "type": "uint256"
        },
        {
          "internalType": "string",
          "name": "reason",
          "type": "string"
        }
      ],
      "name": "CallFailed",
      "type": "error"
    },
    {
      "inputs": [
        {
          "internalType": "uint256",
          "name": "id",
          "type": "uint256"
        }
      ],
      "name": "CronJobIDNotFound",
      "type": "error"
    },
    {
      "inputs": [
        {
          "internalType": "string",
          "name": "field",
          "type": "string"
        },
        {
          "internalType": "string",
          "name": "reason",
          "type": "string"
        }
      ],
      "name": "InvalidField",
      "type": "error"
    },
    {
      "inputs": [],
      "name": "InvalidHandler",
      "type": "error"
    },
    {
      "inputs": [
        {
          "internalType": "string",
          "name": "reason",
          "type": "string"
        }
      ],
      "name": "InvalidSpec",
      "type": "error"
    },
    {
      "inputs": [],
      "name": "ListTooLarge",
      "type": "error"
    },
    {
      "inputs": [],
      "name": "OnlySimulatedBackend",
      "type": "error"
    },
    {
      "inputs": [],
      "name": "TickDoesntMatchSpec",
      "type": "error"
    },
    {
      "inputs": [],
      "name": "TickInFuture",
      "type": "error"
    },
    {
      "inputs": [],
      "name": "TickTooOld",
      "type": "error"
    },
    {
      "inputs": [],
      "name": "UnknownFieldType",
      "type": "error"
    },
    {
      "anonymous": false,
      "inputs": [
        {
          "indexed": true,
          "internalType": "uint256",
          "name": "id",
          "type": "uint256"
        },
        {
          "indexed": false,
          "internalType": "address",
          "name": "target",
          "type": "address"
        },
        {
          "indexed": false,
          "internalType": "bytes",
          "name": "handler",
          "type": "bytes"
        }
      ],
      "name": "CronJobCreated",
      "type": "event"
    },
    {
      "anonymous": false,
      "inputs": [
        {
          "indexed": true,
          "internalType": "uint256",
          "name": "id",
          "type": "uint256"
        }
      ],
      "name": "CronJobDeleted",
      "type": "event"
    },
    {
      "anonymous": false,
      "inputs": [
        {
          "indexed": true,
          "internalType": "uint256",
          "name": "id",
          "type": "uint256"
        },
        {
          "indexed": false,
          "internalType": "uint256",
          "name": "timestamp",
          "type": "uint256"
        }
      ],
      "name": "CronJobExecuted",
      "type": "event"
    },
    {
      "anonymous": false,
      "inputs": [
        {
          "indexed": true,
          "internalType": "address",
          "name": "from",
          "type": "address"
        },
        {
          "indexed": true,
          "internalType": "address",
          "name": "to",
          "type": "address"
        }
      ],
      "name": "OwnershipTransferRequested",
      "type": "event"
    },
    {
      "anonymous": false,
      "inputs": [
        {
          "indexed": true,
          "internalType": "address",
          "name": "from",
          "type": "address"
        },
        {
          "indexed": true,
          "internalType": "address",
          "name": "to",
          "type": "address"
        }
      ],
      "name": "OwnershipTransferred",
      "type": "event"
    },
    {
      "anonymous": false,
      "inputs": [
        {
          "indexed": false,
          "internalType": "address",
          "name": "account",
          "type": "address"
        }
      ],
      "name": "Paused",
      "type": "event"
    },
    {
      "anonymous": false,
      "inputs": [
        {
          "indexed": false,
          "internalType": "address",
          "name": "account",
          "type": "address"
        }
      ],
      "name": "Unpaused",
      "type": "event"
    },
    {
      "stateMutability": "payable",
      "type": "fallback"
    },
    {
      "inputs": [],
      "name": "acceptOwnership",
      "outputs": [],
      "stateMutability": "nonpayable",
      "type": "function"
    },
    {
      "inputs": [
        {
          "internalType": "bytes",
          "name": "",
          "type": "bytes"
        }
      ],
      "name": "checkUpkeep",
      "outputs": [
        {
          "internalType": "bool",
          "name": "",
          "type": "bool"
        },
        {
          "internalType": "bytes",
          "name": "",
          "type": "bytes"
        }
      ],
      "stateMutability": "nonpayable",
      "type": "function"
    },
    {
      "inputs": [
        {
          "internalType": "address",
          "name": "target",
          "type": "address"
        },
        {
          "internalType": "bytes",
          "name": "handler",
          "type": "bytes"
        },
        {
          "internalType": "bytes",
          "name": "encodedCronSpec",
          "type": "bytes"
        }
      ],
      "name": "createCronJobFromEncodedSpec",
      "outputs": [],
      "stateMutability": "nonpayable",
      "type": "function"
    },
    {
      "inputs": [
        {
          "internalType": "address",
          "name": "target",
          "type": "address"
        },
        {
          "internalType": "bytes",
          "name": "handler",
          "type": "bytes"
        },
        {
          "internalType": "string",
          "name": "cronString",
          "type": "string"
        }
      ],
      "name": "createCronJobFromString",
      "outputs": [],
      "stateMutability": "nonpayable",
      "type": "function"
    },
    {
      "inputs": [
        {
          "internalType": "string",
          "name": "cronString",
          "type": "string"
        }
      ],
      "name": "cronStringToEncodedSpec",
      "outputs": [
        {
          "internalType": "bytes",
          "name": "",
          "type": "bytes"
        }
      ],
      "stateMutability": "pure",
      "type": "function"
    },
    {
      "inputs": [
        {
          "internalType": "uint256",
          "name": "id",
          "type": "uint256"
        }
      ],
      "name": "deleteCronJob",
      "outputs": [],
      "stateMutability": "nonpayable",
      "type": "function"
    },
    {
      "inputs": [],
      "name": "getActiveCronJobIDs",
      "outputs": [
        {
          "internalType": "uint256[]",
          "name": "",
          "type": "uint256[]"
        }
      ],
      "stateMutability": "view",
      "type": "function"
    },
    {
      "inputs": [
        {
          "internalType": "uint256",
          "name": "id",
          "type": "uint256"
        }
      ],
      "name": "getCronJob",
      "outputs": [
        {
          "internalType": "address",
          "name": "target",
          "type": "address"
        },
        {
          "internalType": "bytes",
          "name": "handler",
          "type": "bytes"
        },
        {
          "internalType": "string",
          "name": "cronString",
          "type": "string"
        },
        {
          "internalType": "uint256",
          "name": "nextTick",
          "type": "uint256"
        }
      ],
      "stateMutability": "view",
      "type": "function"
    },
    {
      "inputs": [],
      "name": "owner",
      "outputs": [
        {
          "internalType": "address",
          "name": "",
          "type": "address"
        }
      ],
      "stateMutability": "view",
      "type": "function"
    },
    {
      "inputs": [],
      "name": "pause",
      "outputs": [],
      "stateMutability": "nonpayable",
      "type": "function"
    },
    {
      "inputs": [],
      "name": "paused",
      "outputs": [
        {
          "internalType": "bool",
          "name": "",
          "type": "bool"
        }
      ],
      "stateMutability": "view",
      "type": "function"
    },
    {
      "inputs": [
        {
          "internalType": "bytes",
          "name": "performData",
          "type": "bytes"
        }
      ],
      "name": "performUpkeep",
      "outputs": [],
      "stateMutability": "nonpayable",
      "type": "function"
    },
    {
      "inputs": [
        {
          "internalType": "address",
          "name": "to",
          "type": "address"
        }
      ],
      "name": "transferOwnership",
      "outputs": [],
      "stateMutability": "nonpayable",
      "type": "function"
    },
    {
      "inputs": [
        {
          "internalType": "bytes",
          "name": "checkData",
          "type": "bytes"
        }
      ],
      "name": "txCheckUpkeep",
      "outputs": [],
      "stateMutability": "nonpayable",
      "type": "function"
    },
    {
      "inputs": [],
      "name": "unpause",
      "outputs": [],
      "stateMutability": "nonpayable",
      "type": "function"
    },
    {
      "stateMutability": "payable",
      "type": "receive"
    }
  ],
  "bytecode": "0x60a060405260016002553480156200001657600080fd5b506040516200704a3803806200704a83398181016040528101906200003c9190620002e1565b8181818060008073ffffffffffffffffffffffffffffffffffffffff168273ffffffffffffffffffffffffffffffffffffffff161415620000b4576040517f08c379a0000000000000000000000000000000000000000000000000000000008152600401620000ab9062000376565b60405180910390fd5b816000806101000a81548173ffffffffffffffffffffffffffffffffffffffff021916908373ffffffffffffffffffffffffffffffffffffffff160217905550600073ffffffffffffffffffffffffffffffffffffffff168173ffffffffffffffffffffffffffffffffffffffff16146200013b576200013a816200019a60201b60201c565b5b5050506000600160146101000a81548160ff0219169083151502179055508073ffffffffffffffffffffffffffffffffffffffff1660808173ffffffffffffffffffffffffffffffffffffffff1660601b815250505050505062000470565b3373ffffffffffffffffffffffffffffffffffffffff168173ffffffffffffffffffffffffffffffffffffffff1614156200020c576040517f08c379a0000000000000000000000000000000000000000000000000000000008152600401620002039062000398565b60405180910390fd5b80600160006101000a81548173ffffffffffffffffffffffffffffffffffffffff021916908373ffffffffffffffffffffffffffffffffffffffff1602179055508073ffffffffffffffffffffffffffffffffffffffff1660008054906101000a900473ffffffffffffffffffffffffffffffffffffffff1673ffffffffffffffffffffffffffffffffffffffff167fed8889f560326eb138920d842192f0eb3dd22b4f139c87a2c57538e05bae127860405160405180910390a350565b600081519050620002db8162000456565b92915050565b60008060408385031215620002fb57620002fa620003ff565b5b60006200030b85828601620002ca565b92505060206200031e85828601620002ca565b9150509250929050565b600062000337601883620003ba565b9150620003448262000404565b602082019050919050565b60006200035e601783620003ba565b91506200036b826200042d565b602082019050919050565b60006020820190508181036000830152620003918162000328565b9050919050565b60006020820190508181036000830152620003b3816200034f565b9050919050565b600082825260208201905092915050565b6000620003d882620003df565b9050919050565b600073ffffffffffffffffffffffffffffffffffffffff82169050919050565b600080fd5b7f43616e6e6f7420736574206f776e657220746f207a65726f0000000000000000600082015250565b7f43616e6e6f74207472616e7366657220746f2073656c66000000000000000000600082015250565b6200046181620003cb565b81146200046d57600080fd5b50565b60805160601c616bb46200049660003960008181610ea901526117390152616bb46000f3fe6080604052600436106100ec5760003560e01c80637d67dfb31161008a578063960202921161005957806396020292146102d6578063cb647f10146102ff578063ea87605b1461032a578063f2fde38b14610353576100fb565b80637d67dfb31461022e57806380fc37b31461026b5780638456cb59146102945780638da5cb5b146102ab576100fb565b80635077e92f116100c65780635077e92f1461016e5780635c975abb146101ae5780636e04ff0d146101d957806379ba509714610217576100fb565b80633076c929146101055780633f4ba83a1461012e5780634585e33b14610145576100fb565b366100fb576100f961037c565b005b61010361037c565b005b34801561011157600080fd5b5061012c60048036038101906101279190615370565b610396565b005b34801561013a57600080fd5b506101436103b4565b005b34801561015157600080fd5b5061016c600480360381019061016791906153fb565b6103c6565b005b34801561017a57600080fd5b5061019560048036038101906101909190615551565b61054c565b6040516101a59493929190615d4c565b60405180910390f35b3480156101ba57600080fd5b506101c3610e39565b6040516101d09190615dc1565b60405180910390f35b3480156101e557600080fd5b5061020060048036038101906101fb91906153fb565b610e50565b60405161020e929190615ddc565b60405180910390f35b34801561022357600080fd5b5061022c610ed4565b005b34801561023a57600080fd5b5061025560048036038101906102509190615491565b611069565b6040516102629190615e30565b60405180910390f35b34801561027757600080fd5b50610292600480360381019061028d91906152e5565b6110fe565b005b3480156102a057600080fd5b506102a9611127565b005b3480156102b757600080fd5b506102c0611139565b6040516102cd9190615d01565b60405180910390f35b3480156102e257600080fd5b506102fd60048036038101906102f891906153fb565b611162565b005b34801561030b57600080fd5b50610314611260565b6040516103219190615d9f565b60405180910390f35b34801561033657600080fd5b50610351600480360381019061034c9190615551565b611317565b005b34801561035f57600080fd5b5061037a600480360381019061037591906152b8565b61171f565b005b610384611733565b61039461038f611735565b61175d565b565b60006103a182611783565b90506103ae848483611987565b50505050565b6103bc611fa5565b6103c4612035565b565b6103ce610e39565b1561040e576040517f08c379a000000000000000000000000000000000000000000000000000000000815260040161040590615f60565b60405180910390fd5b600080600080858581019061042391906155ab565b9350935093509350610437848484846120d7565b4260056000868152602001908152602001600020819055506000808373ffffffffffffffffffffffffffffffffffffffff16836040516104779190615bd3565b6000604051808303816000865af19150503d80600081146104b4576040519150601f19603f3d011682016040523d82523d6000602084013e6104b9565b606091505b50915091508161050a57856104cd8261288c565b6040517fd3de9446000000000000000000000000000000000000000000000000000000008152600401610501929190615ff7565b60405180910390fd5b857f30f05dfc7571f43926790e295bb282b76b7174d9121c31c2b26def175b63a7594260405161053a9190615fdc565b60405180910390a25050505050505050565b60006060806000846105688160036128f790919063ffffffff16565b6105a957806040517f453d079a0000000000000000000000000000000000000000000000000000000081526004016105a09190615fdc565b60405180910390fd5b6000600660008881526020019081526020016000206040518060a0016040529081600082016040518060e00160405290816000820160009054906101000a900460ff1660048111156105fe576105fd61687d565b5b60048111156106105761060f61687d565b5b81526020016000820160019054906101000a900460ff1660ff1660ff1681526020016000820160029054906101000a900460ff1660ff1660ff1681526020016000820160039054906101000a900460ff1660ff1660ff1681526020016000820160049054906101000a900460ff1660ff1660ff1681526020016000820160059054906101000a900460ff1660ff1660ff16815260200160018201601a806020026040519081016040528092919082601a8015610707576020028201916000905b82829054906101000a900460ff1660ff16815260200190600101906020826000010492830192600103820291508084116106d05790505b5050505050815250508152602001600282016040518060e00160405290816000820160009054906101000a900460ff1660048111156107495761074861687d565b5b600481111561075b5761075a61687d565b5b81526020016000820160019054906101000a900460ff1660ff1660ff1681526020016000820160029054906101000a900460ff1660ff1660ff1681526020016000820160039054906101000a900460ff1660ff1660ff1681526020016000820160049054906101000a900460ff1660ff1660ff1681526020016000820160059054906101000a900460ff1660ff1660ff16815260200160018201601a806020026040519081016040528092919082601a8015610852576020028201916000905b82829054906101000a900460ff1660ff168152602001906001019060208260000104928301926001038202915080841161081b5790505b5050505050815250508152602001600482016040518060e00160405290816000820160009054906101000a900460ff1660048111156108945761089361687d565b5b60048111156108a6576108a561687d565b5b81526020016000820160019054906101000a900460ff1660ff1660ff1681526020016000820160029054906101000a900460ff1660ff1660ff1681526020016000820160039054906101000a900460ff1660ff1660ff1681526020016000820160049054906101000a900460ff1660ff1660ff1681526020016000820160059054906101000a900460ff1660ff1660ff16815260200160018201601a806020026040519081016040528092919082601a801561099d576020028201916000905b82829054906101000a900460ff1660ff16815260200190600101906020826000010492830192600103820291508084116109665790505b5050505050815250508152602001600682016040518060e00160405290816000820160009054906101000a900460ff1660048111156109df576109de61687d565b5b60048111156109f1576109f061687d565b5b81526020016000820160019054906101000a900460ff1660ff1660ff1681526020016000820160029054906101000a900460ff1660ff1660ff1681526020016000820160039054906101000a900460ff1660ff1660ff1681526020016000820160049054906101000a900460ff1660ff1660ff1681526020016000820160059054906101000a900460ff1660ff1660ff16815260200160018201601a806020026040519081016040528092919082601a8015610ae8576020028201916000905b82829054906101000a900460ff1660ff1681526020019060010190602082600001049283019260010382029150808411610ab15790505b5050505050815250508152602001600882016040518060e00160405290816000820160009054906101000a900460ff166004811115610b2a57610b2961687d565b5b6004811115610b3c57610b3b61687d565b5b81526020016000820160019054906101000a900460ff1660ff1660ff1681526020016000820160029054906101000a900460ff1660ff1660ff1681526020016000820160039054906101000a900460ff1660ff1660ff1681526020016000820160049054906101000a900460ff1660ff1660ff1681526020016000820160059054906101000a900460ff1660ff1660ff16815260200160018201601a806020026040519081016040528092919082601a8015610c33576020028201916000905b82829054906101000a900460ff1660ff1681526020019060010190602082600001049283019260010382029150808411610bfc5790505b5050505050815250508152505090506007600088815260200190815260200160002060009054906101000a900473ffffffffffffffffffffffffffffffffffffffff166008600089815260200190815260200160002073__$e40eea5aa87277fbecb84887800c1cc45b$__63a1ab24f4846040518263ffffffff1660e01b8152600401610cc09190615fc0565b60006040518083038186803b158015610cd857600080fd5b505af4158015610cec573d6000803e3d6000fd5b505050506040513d6000823e3d601f19601f82011682018060405250810190610d1591906154da565b73__$e40eea5aa87277fbecb84887800c1cc45b$__6334373a3b856040518263ffffffff1660e01b8152600401610d4c9190615fc0565b60206040518083038186803b158015610d6457600080fd5b505af4158015610d78573d6000803e3d6000fd5b505050506040513d601f19601f82011682018060405250810190610d9c919061557e565b828054610da890616692565b80601f0160208091040260200160405190810160405280929190818152602001828054610dd490616692565b8015610e215780601f10610df657610100808354040283529160200191610e21565b820191906000526020600020905b815481529060010190602001808311610e0457829003601f168201915b50505050509250955095509550955050509193509193565b6000600160149054906101000a900460ff16905090565b60006060610e5c610e39565b15610e9c576040517f08c379a0000000000000000000000000000000000000000000000000000000008152600401610e9390615f60565b60405180910390fd5b610ea4612911565b610ecd7f000000000000000000000000000000000000000000000000000000000000000061175d565b9250929050565b600160009054906101000a900473ffffffffffffffffffffffffffffffffffffffff1673ffffffffffffffffffffffffffffffffffffffff163373ffffffffffffffffffffffffffffffffffffffff1614610f64576040517f08c379a0000000000000000000000000000000000000000000000000000000008152600401610f5b90615f00565b60405180910390fd5b60008060009054906101000a900473ffffffffffffffffffffffffffffffffffffffff169050336000806101000a81548173ffffffffffffffffffffffffffffffffffffffff021916908373ffffffffffffffffffffffffffffffffffffffff1602179055506000600160006101000a81548173ffffffffffffffffffffffffffffffffffffffff021916908373ffffffffffffffffffffffffffffffffffffffff1602179055503373ffffffffffffffffffffffffffffffffffffffff168173ffffffffffffffffffffffffffffffffffffffff167f8be0079c531659141344cd1fd0a4f28419497f9722a3daafe3b4186f6b6457e060405160405180910390a350565b606073__$e40eea5aa87277fbecb84887800c1cc45b$__63e04b9769836040518263ffffffff1660e01b81526004016110a29190615e52565b60006040518083038186803b1580156110ba57600080fd5b505af41580156110ce573d6000803e3d6000fd5b505050506040513d6000823e3d601f19601f820116820180604052508101906110f79190615448565b9050919050565b6000818060200190518101906111149190615523565b9050611121848483611987565b50505050565b61112f611fa5565b611137612979565b565b60008060009054906101000a900473ffffffffffffffffffffffffffffffffffffffff16905090565b3073ffffffffffffffffffffffffffffffffffffffff167f6e04ff0de877a98ba3775bf6d0e027260dd0d07a8fc82408913ee51d3b19c03f83836040516024016111ad929190615e0c565b604051602081830303815290604052907bffffffffffffffffffffffffffffffffffffffffffffffffffffffff19166020820180517bffffffffffffffffffffffffffffffffffffffffffffffffffffffff83818316178352505050506040516112179190615bd3565b6000604051808303816000865af19150503d8060008114611254576040519150601f19603f3d011682016040523d82523d6000602084013e611259565b606091505b5050505050565b6060600061126e6003612a1b565b905060008167ffffffffffffffff81111561128c5761128b616939565b5b6040519080825280602002602001820160405280156112ba5781602001602082028036833780820191505090505b50905060005b8281101561130e576112dc816003612a3090919063ffffffff16565b8282815181106112ef576112ee61690a565b5b6020026020010181815250508080611306906166f5565b9150506112c0565b50809250505090565b61131f611fa5565b806113348160036128f790919063ffffffff16565b61137557806040517f453d079a00000000000000000000000000000000000000000000000000000000815260040161136c9190615fdc565b60405180910390fd5b6005600083815260200190815260200160002060009055600660008381526020019081526020016000206000808201600080820160006101000a81549060ff02191690556000820160016101000a81549060ff02191690556000820160026101000a81549060ff02191690556000820160036101000a81549060ff02191690556000820160046101000a81549060ff02191690556000820160056101000a81549060ff021916905560018201600061142d9190614b87565b505060028201600080820160006101000a81549060ff02191690556000820160016101000a81549060ff02191690556000820160026101000a81549060ff02191690556000820160036101000a81549060ff02191690556000820160046101000a81549060ff02191690556000820160056101000a81549060ff02191690556001820160006114bc9190614b87565b505060048201600080820160006101000a81549060ff02191690556000820160016101000a81549060ff02191690556000820160026101000a81549060ff02191690556000820160036101000a81549060ff02191690556000820160046101000a81549060ff02191690556000820160056101000a81549060ff021916905560018201600061154b9190614b87565b505060068201600080820160006101000a81549060ff02191690556000820160016101000a81549060ff02191690556000820160026101000a81549060ff02191690556000820160036101000a81549060ff02191690556000820160046101000a81549060ff02191690556000820160056101000a81549060ff02191690556001820160006115da9190614b87565b505060088201600080820160006101000a81549060ff02191690556000820160016101000a81549060ff02191690556000820160026101000a81549060ff02191690556000820160036101000a81549060ff02191690556000820160046101000a81549060ff02191690556000820160056101000a81549060ff02191690556001820160006116699190614b87565b505050506007600083815260200190815260200160002060006101000a81549073ffffffffffffffffffffffffffffffffffffffff02191690556008600083815260200190815260200160002060006116c29190614b8e565b60096000838152602001908152602001600020600090556116ed826003612a4a90919063ffffffff16565b50817f7aaa5a7c35e162386d922bd67e91ea476d38d9bb931bc369d8b15ab11325097460405160405180910390a25050565b611727611fa5565b61173081612a64565b50565b565b60007f0000000000000000000000000000000000000000000000000000000000000000905090565b3660008037600080366000845af43d6000803e806000811461177e573d6000f35b3d6000fd5b61178b614bce565b60006117cb6040518060400160405280600181526020017f2000000000000000000000000000000000000000000000000000000000000000815250612b91565b905060006117d884612b91565b905060046117ef8383612bbf90919063ffffffff16565b1461182f576040517faf64694e00000000000000000000000000000000000000000000000000000000815260040161182690615f20565b60405180910390fd5b60006118448383612c6790919063ffffffff16565b9050600061185b8484612c6790919063ffffffff16565b905060006118728585612c6790919063ffffffff16565b905060006118898686612c6790919063ffffffff16565b9050600061189685612c81565b14806118aa575060006118a884612c81565b145b806118bd575060006118bb83612c81565b145b806118d0575060006118ce82612c81565b145b806118e3575060006118e186612c81565b145b15611923576040517faf64694e00000000000000000000000000000000000000000000000000000000815260040161191a90615fa0565b60405180910390fd5b61197a6040518060a0016040528061193a87612d90565b815260200161194886612d90565b815260200161195685612d90565b815260200161196484612d90565b815260200161197288612d90565b815250613181565b9650505050505050919050565b61198f611fa5565b600060025490506119aa81600361330590919063ffffffff16565b50836007600083815260200190815260200160002060006101000a81548173ffffffffffffffffffffffffffffffffffffffff021916908373ffffffffffffffffffffffffffffffffffffffff16021790555082600860008381526020019081526020016000209080519060200190611a24929190614c1b565b50816006600083815260200190815260200160002060008201518160000160008201518160000160006101000a81548160ff02191690836004811115611a6d57611a6c61687d565b5b021790555060208201518160000160016101000a81548160ff021916908360ff16021790555060408201518160000160026101000a81548160ff021916908360ff16021790555060608201518160000160036101000a81548160ff021916908360ff16021790555060808201518160000160046101000a81548160ff021916908360ff16021790555060a08201518160000160056101000a81548160ff021916908360ff16021790555060c08201518160010190601a611b2e929190614ca1565b50505060208201518160020160008201518160000160006101000a81548160ff02191690836004811115611b6557611b6461687d565b5b021790555060208201518160000160016101000a81548160ff021916908360ff16021790555060408201518160000160026101000a81548160ff021916908360ff16021790555060608201518160000160036101000a81548160ff021916908360ff16021790555060808201518160000160046101000a81548160ff021916908360ff16021790555060a08201518160000160056101000a81548160ff021916908360ff16021790555060c08201518160010190601a611c26929190614ca1565b50505060408201518160040160008201518160000160006101000a81548160ff02191690836004811115611c5d57611c5c61687d565b5b021790555060208201518160000160016101000a81548160ff021916908360ff16021790555060408201518160000160026101000a81548160ff021916908360ff16021790555060608201518160000160036101000a81548160ff021916908360ff16021790555060808201518160000160046101000a81548160ff021916908360ff16021790555060a08201518160000160056101000a81548160ff021916908360ff16021790555060c08201518160010190601a611d1e929190614ca1565b50505060608201518160060160008201518160000160006101000a81548160ff02191690836004811115611d5557611d5461687d565b5b021790555060208201518160000160016101000a81548160ff021916908360ff16021790555060408201518160000160026101000a81548160ff021916908360ff16021790555060608201518160000160036101000a81548160ff021916908360ff16021790555060808201518160000160046101000a81548160ff021916908360ff16021790555060a08201518160000160056101000a81548160ff021916908360ff16021790555060c08201518160010190601a611e16929190614ca1565b50505060808201518160080160008201518160000160006101000a81548160ff02191690836004811115611e4d57611e4c61687d565b5b021790555060208201518160000160016101000a81548160ff021916908360ff16021790555060408201518160000160026101000a81548160ff021916908360ff16021790555060608201518160000160036101000a81548160ff021916908360ff16021790555060808201518160000160046101000a81548160ff021916908360ff16021790555060a08201518160000160056101000a81548160ff021916908360ff16021790555060c08201518160010190601a611f0e929190614ca1565b505050905050426005600083815260200190815260200160002081905550611f36848461331f565b600960008381526020019081526020016000208190555060026000815480929190611f60906166f5565b9190505550807fe66fb0bca0f9d6a395d3eaf5f39c6ac87dd34aff4e3f2f9a9b33a46f155896278585604051611f97929190615d1c565b60405180910390a250505050565b60008054906101000a900473ffffffffffffffffffffffffffffffffffffffff1673ffffffffffffffffffffffffffffffffffffffff163373ffffffffffffffffffffffffffffffffffffffff1614612033576040517f08c379a000000000000000000000000000000000000000000000000000000000815260040161202a90615f40565b60405180910390fd5b565b61203d610e39565b61207c576040517f08c379a000000000000000000000000000000000000000000000000000000000815260040161207390615ee0565b60405180910390fd5b6000600160146101000a81548160ff0219169083151502179055507f5db9ee0a495bf2e6ff9c91a7834c1ba4fdd244a5e8aa4e537bd38aeae4b073aa6120c0613352565b6040516120cd9190615d01565b60405180910390a1565b82421015612111576040517fa0ef619600000000000000000000000000000000000000000000000000000000815260040160405180910390fd5b6005600085815260200190815260200160002054831161215d576040517f753a4acf00000000000000000000000000000000000000000000000000000000815260040160405180910390fd5b6127fb600660008681526020019081526020016000206040518060a0016040529081600082016040518060e00160405290816000820160009054906101000a900460ff1660048111156121b3576121b261687d565b5b60048111156121c5576121c461687d565b5b81526020016000820160019054906101000a900460ff1660ff1660ff1681526020016000820160029054906101000a900460ff1660ff1660ff1681526020016000820160039054906101000a900460ff1660ff1660ff1681526020016000820160049054906101000a900460ff1660ff1660ff1681526020016000820160059054906101000a900460ff1660ff1660ff16815260200160018201601a806020026040519081016040528092919082601a80156122bc576020028201916000905b82829054906101000a900460ff1660ff16815260200190600101906020826000010492830192600103820291508084116122855790505b5050505050815250508152602001600282016040518060e00160405290816000820160009054906101000a900460ff1660048111156122fe576122fd61687d565b5b60048111156123105761230f61687d565b5b81526020016000820160019054906101000a900460ff1660ff1660ff1681526020016000820160029054906101000a900460ff1660ff1660ff1681526020016000820160039054906101000a900460ff1660ff1660ff1681526020016000820160049054906101000a900460ff1660ff1660ff1681526020016000820160059054906101000a900460ff1660ff1660ff16815260200160018201601a806020026040519081016040528092919082601a8015612407576020028201916000905b82829054906101000a900460ff1660ff16815260200190600101906020826000010492830192600103820291508084116123d05790505b5050505050815250508152602001600482016040518060e00160405290816000820160009054906101000a900460ff1660048111156124495761244861687d565b5b600481111561245b5761245a61687d565b5b81526020016000820160019054906101000a900460ff1660ff1660ff1681526020016000820160029054906101000a900460ff1660ff1660ff1681526020016000820160039054906101000a900460ff1660ff1660ff1681526020016000820160049054906101000a900460ff1660ff1660ff1681526020016000820160059054906101000a900460ff1660ff1660ff16815260200160018201601a806020026040519081016040528092919082601a8015612552576020028201916000905b82829054906101000a900460ff1660ff168152602001906001019060208260000104928301926001038202915080841161251b5790505b5050505050815250508152602001600682016040518060e00160405290816000820160009054906101000a900460ff1660048111156125945761259361687d565b5b60048111156125a6576125a561687d565b5b81526020016000820160019054906101000a900460ff1660ff1660ff1681526020016000820160029054906101000a900460ff1660ff1660ff1681526020016000820160039054906101000a900460ff1660ff1660ff1681526020016000820160049054906101000a900460ff1660ff1660ff1681526020016000820160059054906101000a900460ff1660ff1660ff16815260200160018201601a806020026040519081016040528092919082601a801561269d576020028201916000905b82829054906101000a900460ff1660ff16815260200190600101906020826000010492830192600103820291508084116126665790505b5050505050815250508152602001600882016040518060e00160405290816000820160009054906101000a900460ff1660048111156126df576126de61687d565b5b60048111156126f1576126f061687d565b5b81526020016000820160019054906101000a900460ff1660ff1660ff1681526020016000820160029054906101000a900460ff1660ff1660ff1681526020016000820160039054906101000a900460ff1660ff1660ff1681526020016000820160049054906101000a900460ff1660ff1660ff1681526020016000820160059054906101000a900460ff1660ff1660ff16815260200160018201601a806020026040519081016040528092919082601a80156127e8576020028201916000905b82829054906101000a900460ff1660ff16815260200190600101906020826000010492830192600103820291508084116127b15790505b505050505081525050815250508461335a565b612831576040517f1653b6bd00000000000000000000000000000000000000000000000000000000815260040160405180910390fd5b600960008581526020019081526020016000205461284f838361331f565b14612886576040517fd8f59fa500000000000000000000000000000000000000000000000000000000815260040160405180910390fd5b50505050565b60606044825110156128d5576040518060400160405280601d81526020017f7472616e73616374696f6e2072657665727465642073696c656e746c7900000081525090506128f2565b600482019150818060200190518101906128ef91906154da565b90505b919050565b6000612909836000018360001b6133d1565b905092915050565b600073ffffffffffffffffffffffffffffffffffffffff163273ffffffffffffffffffffffffffffffffffffffff1614612977576040517fb60ac5db00000000000000000000000000000000000000000000000000000000815260040160405180910390fd5b565b612981610e39565b156129c1576040517f08c379a00000000000000000000000000000000000000000000000000000000081526004016129b890615f60565b60405180910390fd5b60018060146101000a81548160ff0219169083151502179055507f62e78cea01bee320cd4e420270b5ea74000d11b0c9f74754ebdbfc544b05a258612a04613352565b604051612a119190615d01565b60405180910390a1565b6000612a29826000016133f4565b9050919050565b6000612a3f8360000183613405565b60001c905092915050565b6000612a5c836000018360001b613430565b905092915050565b3373ffffffffffffffffffffffffffffffffffffffff168173ffffffffffffffffffffffffffffffffffffffff161415612ad3576040517f08c379a0000000000000000000000000000000000000000000000000000000008152600401612aca90615f80565b60405180910390fd5b80600160006101000a81548173ffffffffffffffffffffffffffffffffffffffff021916908373ffffffffffffffffffffffffffffffffffffffff1602179055508073ffffffffffffffffffffffffffffffffffffffff1660008054906101000a900473ffffffffffffffffffffffffffffffffffffffff1673ffffffffffffffffffffffffffffffffffffffff167fed8889f560326eb138920d842192f0eb3dd22b4f139c87a2c57538e05bae127860405160405180910390a350565b612b99614d3b565b600060208301905060405180604001604052808451815260200182815250915050919050565b6000808260000151612be38560000151866020015186600001518760200151613544565b612bed919061618e565b90505b83600001518460200151612c04919061618e565b8111612c60578180612c15906166f5565b9250508260000151612c4f856020015183612c30919061651a565b8660000151612c3f919061651a565b8386600001518760200151613544565b612c59919061618e565b9050612bf0565b5092915050565b612c6f614d3b565b612c7a83838361368e565b5092915050565b600080601f8360200151612c95919061651a565b90506000836000015182612ca9919061618e565b9050600092505b80821015612d8957600060ff835116905060808160ff161015612ce157600183612cda919061618e565b9250612d75565b60e08160ff161015612d0157600283612cfa919061618e565b9250612d74565b60f08160ff161015612d2157600383612d1a919061618e565b9250612d73565b60f88160ff161015612d4157600483612d3a919061618e565b9250612d72565b60fc8160ff161015612d6157600583612d5a919061618e565b9250612d71565b600683612d6e919061618e565b92505b5b5b5b5b508280612d81906166f5565b935050612cb0565b5050919050565b612d98614d55565b6000612dd86040518060400160405280600181526020017f2a00000000000000000000000000000000000000000000000000000000000000815250612b91565b90506000612e1a6040518060400160405280600181526020017f2d00000000000000000000000000000000000000000000000000000000000000815250612b91565b90506000612e5c6040518060400160405280600181526020017f2f00000000000000000000000000000000000000000000000000000000000000815250612b91565b90506000612e9e6040518060400160405280600181526020017f2c00000000000000000000000000000000000000000000000000000000000000815250612b91565b9050612ea8614d55565b612ebb858861375990919063ffffffff16565b15612ef657600081600001906004811115612ed957612ed861687d565b5b90816004811115612eed57612eec61687d565b5b81525050613174565b612f09848861376f90919063ffffffff16565b15612f9057600381600001906004811115612f2757612f2661687d565b5b90816004811115612f3b57612f3a61687d565b5b815250506000612f548589612c6790919063ffffffff16565b9050612f5f8161379c565b826060019060ff16908160ff1681525050612f798861379c565b826080019060ff16908160ff168152505050613173565b612fa3838861376f90919063ffffffff16565b1561300c57600281600001906004811115612fc157612fc061687d565b5b90816004811115612fd557612fd461687d565b5b81525050612fec8388612c6790919063ffffffff16565b50612ff68761379c565b816040019060ff16908160ff1681525050613172565b61301f828861376f90919063ffffffff16565b156131255760048160000190600481111561303d5761303c61687d565b5b908160048111156130515761305061687d565b5b8152505061305d614d3b565b5b600061306989612c81565b111561311f5760198260a0015160ff1611156130b1576040517f88b27b5f00000000000000000000000000000000000000000000000000000000815260040160405180910390fd5b6130c48389612c6790919063ffffffff16565b90506130cf8161379c565b8260c001518360a0015160ff16601a81106130ed576130ec61690a565b5b602002019060ff16908160ff16815250508160a00180518091906131109061673e565b60ff1660ff168152505061305e565b50613171565b60018160000190600481111561313e5761313d61687d565b5b908160048111156131525761315161687d565b5b8152505061315f8761379c565b816020019060ff16908160ff16815250505b5b5b5b8095505050505050919050565b613189614bce565b6131d082608001516040518060400160405280600b81526020017f646179206f66207765656b0000000000000000000000000000000000000000008152506000600661384d565b61321782606001516040518060400160405280600581526020017f6d6f6e74680000000000000000000000000000000000000000000000000000008152506001600c61384d565b60006132268360600151613cab565b905061326e83604001516040518060400160405280600381526020017f646179000000000000000000000000000000000000000000000000000000000081525060018461384d565b6132b583602001516040518060400160405280600481526020017f686f7572000000000000000000000000000000000000000000000000000000008152506000601761384d565b6132fc83600001516040518060400160405280600681526020017f6d696e75746500000000000000000000000000000000000000000000000000008152506000603b61384d565b82915050919050565b6000613317836000018360001b613eb4565b905092915050565b60008282604051602001613334929190615bab565b60405160208183030381529060405280519060200120905092915050565b600033905090565b60008061336683613f24565b905061337a84606001518260200151614135565b8015613394575061339384604001518260400151614135565b5b80156133ae57506133ad84602001518260600151614135565b5b80156133c857506133c784600001518260800151614135565b5b91505092915050565b600080836001016000848152602001908152602001600020541415905092915050565b600081600001805490509050919050565b600082600001828154811061341d5761341c61690a565b5b9060005260206000200154905092915050565b60008083600101600084815260200190815260200160002054905060008114613538576000600182613462919061651a565b905060006001866000018054905061347a919061651a565b90508181146134e957600086600001828154811061349b5761349a61690a565b5b90600052602060002001549050808760000184815481106134bf576134be61690a565b5b90600052602060002001819055508387600101600083815260200190815260200160002081905550505b856000018054806134fd576134fc6168db565b5b60019003818190600052602060002001600090559055856001016000868152602001908152602001600020600090556001935050505061353e565b60009150505b92915050565b600080849050600086851161367557602085116136175760008086111561359d576001866020613574919061651a565b600861358091906163bd565b600261358c919061629f565b613596919061651a565b1960001b90505b60008186511690506000878a8a6135b4919061618e565b6135be919061651a565b905060008386511690505b828114613609578186106135f0578a8a6135e3919061618e565b9650505050505050613686565b85806135fb906166f5565b9650508386511690506135c9565b859650505050505050613686565b60008585209050600091505b858861362f919061651a565b82116136735760008684209050808214156136505783945050505050613686565b60018461365d919061618e565b935050818061366b906166f5565b925050613623565b505b8686613681919061618e565b925050505b949350505050565b613696614d3b565b60006136b48560000151866020015186600001518760200151613544565b905084602001518360200181815250508460200151816136d4919061651a565b836000018181525050846000015185602001516136f1919061618e565b81141561370857600085600001818152505061374e565b8360000151836000015161371c919061618e565b8560000181815161372d919061651a565b91508181525050836000015181613744919061618e565b8560200181815250505b829150509392505050565b6000806137668484614329565b14905092915050565b600082602001516137928460000151856020015185600001518660200151614463565b1415905092915050565b6000806137a88361459c565b905060008060009050600091505b82518260ff161015613842576000838360ff16815181106137da576137d961690a565b5b602001015160f81c60f81b60f81c905060308160ff1610158015613802575060398160ff1611155b1561382e57603081613814919061654e565b600a836138219190616417565b61382b91906161e4565b91505b50818061383a9061673e565b9250506137b6565b809350505050919050565b600060048111156138615761386061687d565b5b846000015160048111156138785761387761687d565b5b141561388357613ca5565b600160048111156138975761389661687d565b5b846000015160048111156138ae576138ad61687d565b5b141561395a578160ff16846020015160ff1610806138d557508060ff16846020015160ff16115b156139555760006138e88360ff16614618565b6138f48360ff16614618565b604051602001613905929190615c7d565b604051602081830303815290604052905083816040517f2068975400000000000000000000000000000000000000000000000000000000815260040161394c929190615e74565b60405180910390fd5b613ca4565b6002600481111561396e5761396d61687d565b5b846000015160048111156139855761398461687d565b5b1415613a2d576001846040015160ff1610806139aa57508060ff16846040015160ff16115b15613a285760006139bb6001614618565b6139c78360ff16614618565b6040516020016139d8929190615bea565b604051602081830303815290604052905083816040517f20689754000000000000000000000000000000000000000000000000000000008152600401613a1f929190615e74565b60405180910390fd5b613ca3565b60036004811115613a4157613a4061687d565b5b84600001516004811115613a5857613a5761687d565b5b1415613b09578060ff16846080015160ff161180613a845750836060015160ff16846080015160ff1611155b15613b04576000613a978360ff16614618565b613aa38360ff16614618565b604051602001613ab4929190615cbf565b604051602081830303815290604052905083816040517f20689754000000000000000000000000000000000000000000000000000000008152600401613afb929190615e74565b60405180910390fd5b613ca2565b600480811115613b1c57613b1b61687d565b5b84600001516004811115613b3357613b3261687d565b5b1415613c6f5760028460a0015160ff161015613b8657826040517f20689754000000000000000000000000000000000000000000000000000000008152600401613b7d9190615eab565b60405180910390fd5b6000613b948360ff16614618565b613ba08360ff16614618565b604051602001613bb1929190615c3b565b6040516020818303038152906040529050600080600090505b8660a0015160ff16811015613c67578660c0015181601a8110613bf057613bef61690a565b5b602002015191508460ff168260ff161080613c1057508360ff168260ff16115b15613c545785836040517f20689754000000000000000000000000000000000000000000000000000000008152600401613c4b929190615e74565b60405180910390fd5b8080613c5f906166f5565b915050613bca565b505050613ca1565b6040517f7d8d432900000000000000000000000000000000000000000000000000000000815260040160405180910390fd5b5b5b5b5b50505050565b6000806004811115613cc057613cbf61687d565b5b82600001516004811115613cd757613cd661687d565b5b1480613d0b575060036004811115613cf257613cf161687d565b5b82600001516004811115613d0957613d0861687d565b5b145b15613d1957601f9050613eaf565b60016004811115613d2d57613d2c61687d565b5b82600001516004811115613d4457613d4361687d565b5b1415613d6057613d59826020015160046147a1565b9050613eaf565b60026004811115613d7457613d7361687d565b5b82600001516004811115613d8b57613d8a61687d565b5b1415613dc5576009826040015160ff161480613dae5750600b826040015160ff16145b15613dbc57601e9050613eaf565b601f9050613eaf565b600480811115613dd857613dd761687d565b5b82600001516004811115613def57613dee61687d565b5b1415613e7d57600080600090505b8360a0015160ff16811015613e73576000613e348560c0015183601a8110613e2857613e2761690a565b5b602002015160046147a1565b9050601f8160ff161415613e4d57809350505050613eaf565b8260ff168160ff161115613e5f578092505b508080613e6b906166f5565b915050613dfd565b5080915050613eaf565b6040517f7d8d432900000000000000000000000000000000000000000000000000000000815260040160405180910390fd5b919050565b6000613ec083836133d1565b613f19578260000182908060018154018082558091505060019003906000526020600020016000909190919091505582600001805490508360010160008481526020019081526020016000208190555060019050613f1e565b600090505b92915050565b613f2c614db9565b60008080613f398561486d565b846000019061ffff16908161ffff1681525050613f5b6107b261ffff16614984565b613f6c856000015161ffff16614984565b613f76919061651a565b9150816301e28500613f8891906163bd565b83613f93919061618e565b9250816107b28560000151613fa891906164e6565b61ffff16613fb6919061651a565b6301e13380613fc591906163bd565b83613fd0919061618e565b92506000600191505b600c8260ff161161405057613ff28286600001516147a1565b60ff166201518061400391906163bd565b9050858482614012919061618e565b111561402f5781856020019060ff16908160ff1681525050614050565b808461403b919061618e565b935081806140489061673e565b925050613fd9565b600191505b614067856020015186600001516147a1565b60ff168260ff16116140c457858462015180614083919061618e565b11156140a05781856040019060ff16908160ff16815250506140c4565b62015180846140af919061618e565b935081806140bc9061673e565b925050614055565b6140cd866149d8565b856060019060ff16908160ff16815250506140e786614a05565b856080019060ff16908160ff168152505061410186614a26565b8560a0019060ff16908160ff168152505061411b86614a3c565b8560c0019060ff16908160ff168152505050505050919050565b600080600481111561414a5761414961687d565b5b836000015160048111156141615761416061687d565b5b14156141705760019050614323565b600260048111156141845761418361687d565b5b8360000151600481111561419b5761419a61687d565b5b14156141be5760008360400151836141b391906167ee565b60ff16149050614323565b600160048111156141d2576141d161687d565b5b836000015160048111156141e9576141e861687d565b5b141561420357826020015160ff168260ff16149050614323565b600360048111156142175761421661687d565b5b8360000151600481111561422e5761422d61687d565b5b141561425f57826060015160ff168260ff16101580156142585750826080015160ff168260ff1611155b9050614323565b6004808111156142725761427161687d565b5b836000015160048111156142895761428861687d565b5b14156142f15760005b8360a0015160ff168110156142e7578360c0015181601a81106142b8576142b761690a565b5b602002015160ff168360ff1614156142d4576001915050614323565b80806142df906166f5565b915050614292565b5060009050614323565b6040517f7d8d432900000000000000000000000000000000000000000000000000000000815260040160405180910390fd5b92915050565b6000808360000151905083600001518360000151101561434b57826000015190505b60008460200151905060008460200151905060005b8381101561444257600080845191508351905080821461440e5760007fffffffffffffffffffffffffffffffffffffffffffffffffffffffffffffffff905060208710156143e8576001848860206143b8919061651a565b6143c2919061618e565b60086143ce91906163bd565b60026143da919061629f565b6143e4919061651a565b1990505b60008183168285160390506000811461440b57809850505050505050505061445d565b50505b60208561441b919061618e565b945060208461442a919061618e565b9350505060208161443b919061618e565b9050614360565b50846000015186600001516144579190616452565b93505050505b92915050565b60008085841161458f576020841161452b576000808511156144b757600185602061448e919061651a565b600861449a91906163bd565b60026144a6919061629f565b6144b0919061651a565b1960001b90505b60008185511690508588886144cc919061618e565b6144d6919061651a565b925060008284511690505b818114614514578784116144fb5787945050505050614594565b838061450690616668565b9450508284511690506144e1565b8684614520919061618e565b945050505050614594565b60008484209050848761453e919061651a565b86614549919061618e565b91505b85821061458d57600085832090508082141561457857858361456e919061618e565b9350505050614594565b600183614585919061651a565b92505061454c565b505b849150505b949350505050565b60606000826000015167ffffffffffffffff8111156145be576145bd616939565b5b6040519080825280601f01601f1916602001820160405280156145f05781602001600182028036833780820191505090505b509050600060208201905061460e8185602001518660000151614a6c565b8192505050919050565b60606000821415614660576040518060400160405280600181526020017f3000000000000000000000000000000000000000000000000000000000000000815250905061479c565b600082905060005b6000821461469257808061467b906166f5565b915050600a8261468b919061621b565b9150614668565b60008167ffffffffffffffff8111156146ae576146ad616939565b5b6040519080825280601f01601f1916602001820160405280156146e05781602001600182028036833780820191505090505b50905060008290505b60008614614794576001816146fe919061651a565b90506000600a8088614710919061621b565b61471a91906163bd565b87614725919061651a565b603061473191906161e4565b905060008160f81b90508084848151811061474f5761474e61690a565b5b60200101907effffffffffffffffffffffffffffffffffffffffffffffffffffffffffffff1916908160001a905350600a8861478b919061621b565b975050506146e9565b819450505050505b919050565b600060018360ff1614806147b8575060038360ff16145b806147c6575060058360ff16145b806147d4575060078360ff16145b806147e2575060088360ff16145b806147f05750600a8360ff16145b806147fe5750600c8360ff16145b1561480c57601f9050614867565b60048360ff161480614821575060068360ff16145b8061482f575060098360ff16145b8061483d5750600b8360ff16145b1561484b57601e9050614867565b61485482614b18565b1561486257601d9050614867565b601c90505b92915050565b600080600090506000806301e1338085614887919061621b565b6107b261ffff16614898919061618e565b91506148a96107b261ffff16614984565b6148b68361ffff16614984565b6148c0919061651a565b9050806301e285006148d291906163bd565b836148dd919061618e565b9250806107b2836148ee91906164e6565b61ffff166148fc919061651a565b6301e1338061490b91906163bd565b83614916919061618e565b92505b848311156149795761493660018361493191906164e6565b614b18565b15614952576301e285008361494b919061651a565b9250614965565b6301e1338083614962919061651a565b92505b60018261497291906164e6565b9150614919565b819350505050919050565b6000600182614993919061651a565b9150610190826149a3919061621b565b6064836149b0919061621b565b6004846149bd919061621b565b6149c7919061651a565b6149d1919061618e565b9050919050565b60006018603c80846149ea919061621b565b6149f4919061621b565b6149fe91906167bd565b9050919050565b6000603c8083614a15919061621b565b614a1f91906167bd565b9050919050565b6000603c82614a3591906167bd565b9050919050565b6000600760046201518084614a51919061621b565b614a5b919061618e565b614a6591906167bd565b9050919050565b5b60208110614aab5781518352602083614a86919061618e565b9250602082614a95919061618e565b9150602081614aa4919061651a565b9050614a6d565b60007fffffffffffffffffffffffffffffffffffffffffffffffffffffffffffffffff90506000821115614b02576001826020614ae8919061651a565b610100614af5919061629f565b614aff919061651a565b90505b8019835116818551168181178652505050505050565b600080600483614b28919061678c565b61ffff1614614b3a5760009050614b82565b6000606483614b49919061678c565b61ffff1614614b5b5760019050614b82565b600061019083614b6b919061678c565b61ffff1614614b7d5760009050614b82565b600190505b919050565b5060009055565b508054614b9a90616692565b6000825580601f10614bac5750614bcb565b601f016020900490600052602060002090810190614bca9190614e0c565b5b50565b6040518060a00160405280614be1614d55565b8152602001614bee614d55565b8152602001614bfb614d55565b8152602001614c08614d55565b8152602001614c15614d55565b81525090565b828054614c2790616692565b90600052602060002090601f016020900481019282614c495760008555614c90565b82601f10614c6257805160ff1916838001178555614c90565b82800160010185558215614c90579182015b82811115614c8f578251825591602001919060010190614c74565b5b509050614c9d9190614e0c565b5090565b82601a601f01602090048101928215614d2a5791602002820160005b83821115614cfb57835183826101000a81548160ff021916908360ff1602179055509260200192600101602081600001049283019260010302614cbd565b8015614d285782816101000a81549060ff0219169055600101602081600001049283019260010302614cfb565b505b509050614d379190614e0c565b5090565b604051806040016040528060008152602001600081525090565b6040518060e0016040528060006004811115614d7457614d7361687d565b5b8152602001600060ff168152602001600060ff168152602001600060ff168152602001600060ff168152602001600060ff168152602001614db3614e29565b81525090565b6040518060e00160405280600061ffff168152602001600060ff168152602001600060ff168152602001600060ff168152602001600060ff168152602001600060ff168152602001600060ff1681525090565b5b80821115614e25576000816000905550600101614e0d565b5090565b604051806103400160405280601a90602082028036833780820191505090505090565b6000614e5f614e5a8461604c565b616027565b90508082856020860282011115614e7957614e78616977565b5b60005b85811015614ea95781614e8f88826152a3565b845260208401935060208301925050600181019050614e7c565b5050509392505050565b6000614ec6614ec184616072565b616027565b905082815260208101848484011115614ee257614ee161697c565b5b614eed848285616626565b509392505050565b6000614f08614f0384616072565b616027565b905082815260208101848484011115614f2457614f2361697c565b5b614f2f848285616635565b509392505050565b6000614f4a614f45846160a3565b616027565b905082815260208101848484011115614f6657614f6561697c565b5b614f71848285616626565b509392505050565b6000614f8c614f87846160a3565b616027565b905082815260208101848484011115614fa857614fa761697c565b5b614fb3848285616635565b509392505050565b600081359050614fca81616b12565b92915050565b600081359050614fdf81616b29565b92915050565b600082601f830112614ffa57614ff961696d565b5b601a615007848285614e4c565b91505092915050565b60008083601f8401126150265761502561696d565b5b8235905067ffffffffffffffff81111561504357615042616968565b5b60208301915083600182028301111561505f5761505e616977565b5b9250929050565b600082601f83011261507b5761507a61696d565b5b813561508b848260208601614eb3565b91505092915050565b600082601f8301126150a9576150a861696d565b5b81516150b9848260208601614ef5565b91505092915050565b6000815190506150d181616b40565b92915050565b600082601f8301126150ec576150eb61696d565b5b81356150fc848260208601614f37565b91505092915050565b600082601f83011261511a5761511961696d565b5b815161512a848260208601614f79565b91505092915050565b6000610400828403121561514a57615149616972565b5b61515460e0616027565b90506000615164848285016150c2565b6000830152506020615178848285016152a3565b602083015250604061518c848285016152a3565b60408301525060606151a0848285016152a3565b60608301525060806151b4848285016152a3565b60808301525060a06151c8848285016152a3565b60a08301525060c06151dc84828501614fe5565b60c08301525092915050565b600061140082840312156151ff576151fe616972565b5b61520960a0616027565b9050600061521984828501615133565b60008301525061040061522e84828501615133565b60208301525061080061524384828501615133565b604083015250610c0061525884828501615133565b60608301525061100061526d84828501615133565b60808301525092915050565b60008135905061528881616b50565b92915050565b60008151905061529d81616b50565b92915050565b6000815190506152b281616b67565b92915050565b6000602082840312156152ce576152cd616986565b5b60006152dc84828501614fbb565b91505092915050565b6000806000606084860312156152fe576152fd616986565b5b600061530c86828701614fbb565b935050602084013567ffffffffffffffff81111561532d5761532c616981565b5b61533986828701615066565b925050604084013567ffffffffffffffff81111561535a57615359616981565b5b61536686828701615066565b9150509250925092565b60008060006060848603121561538957615388616986565b5b600061539786828701614fbb565b935050602084013567ffffffffffffffff8111156153b8576153b7616981565b5b6153c486828701615066565b925050604084013567ffffffffffffffff8111156153e5576153e4616981565b5b6153f1868287016150d7565b9150509250925092565b6000806020838503121561541257615411616986565b5b600083013567ffffffffffffffff8111156154305761542f616981565b5b61543c85828601615010565b92509250509250929050565b60006020828403121561545e5761545d616986565b5b600082015167ffffffffffffffff81111561547c5761547b616981565b5b61548884828501615094565b91505092915050565b6000602082840312156154a7576154a6616986565b5b600082013567ffffffffffffffff8111156154c5576154c4616981565b5b6154d1848285016150d7565b91505092915050565b6000602082840312156154f0576154ef616986565b5b600082015167ffffffffffffffff81111561550e5761550d616981565b5b61551a84828501615105565b91505092915050565b6000611400828403121561553a57615539616986565b5b6000615548848285016151e8565b91505092915050565b60006020828403121561556757615566616986565b5b600061557584828501615279565b91505092915050565b60006020828403121561559457615593616986565b5b60006155a28482850161528e565b91505092915050565b600080600080608085870312156155c5576155c4616986565b5b60006155d387828801615279565b94505060206155e487828801615279565b93505060406155f587828801614fd0565b925050606085013567ffffffffffffffff81111561561657615615616981565b5b61562287828801615066565b91505092959194509250565b600061563a8383615b7e565b60208301905092915050565b60006156528383615b9c565b60208301905092915050565b61566781616582565b82525050565b61567e61567982616582565b616768565b82525050565b600061568f826160ee565b6156998185616134565b93506156a4836160d4565b8060005b838110156156d55781516156bc888261562e565b97506156c78361611a565b9250506001810190506156a8565b5085935050505092915050565b6156eb816160f9565b6156f58184616145565b9250615700826160e4565b8060005b838110156157315781516157188782615646565b965061572383616127565b925050600181019050615704565b505050505050565b615742816165a6565b82525050565b60006157548385616150565b9350615761838584616626565b61576a8361698b565b840190509392505050565b600061578082616104565b61578a8185616150565b935061579a818560208601616635565b6157a38161698b565b840191505092915050565b60006157b982616104565b6157c38185616161565b93506157d3818560208601616635565b80840191505092915050565b6157e881616614565b82525050565b60006157f98261610f565b615803818561616c565b9350615813818560208601616635565b61581c8161698b565b840191505092915050565b60006158328261610f565b61583c818561617d565b935061584c818560208601616635565b6158558161698b565b840191505092915050565b7f696e76657276616c206d757374206265202a2f28000000000000000000000000815250565b600061589360148361616c565b915061589e826169b6565b602082019050919050565b60006158b660168361616c565b91506158c1826169df565b602082019050919050565b60006158d960118361616c565b91506158e482616a08565b602082019050919050565b60006158fc60168361616c565b915061590782616a31565b602082019050919050565b7f2900000000000000000000000000000000000000000000000000000000000000815250565b7f20616e64203c3d00000000000000000000000000000000000000000000000000815250565b600061596b60108361616c565b915061597682616a5a565b602082019050919050565b7f6974656d7320696e206c697374206d7573742062652077697468696e20000000815250565b60006159b460178361616c565b91506159bf82616a83565b602082019050919050565b7f2d00000000000000000000000000000000000000000000000000000000000000815250565b7f76616c7565206d757374206265203e3d2c000000000000000000000000000000815250565b6000615a2360138361616c565b9150615a2e82616aac565b602082019050919050565b7f696e76657276616c206d7573742062652077697468696e200000000000000000815250565b6000615a6c60208361616c565b9150615a7782616ad5565b602082019050919050565b61040082016000820151615a9960008501826157df565b506020820151615aac6020850182615b9c565b506040820151615abf6040850182615b9c565b506060820151615ad26060850182615b9c565b506080820151615ae56080850182615b9c565b5060a0820151615af860a0850182615b9c565b5060c0820151615b0b60c08501826156e2565b50505050565b61140082016000820151615b286000850182615a82565b506020820151615b3c610400850182615a82565b506040820151615b50610800850182615a82565b506060820151615b64610c00850182615a82565b506080820151615b78611000850182615a82565b50505050565b615b87816165fd565b82525050565b615b96816165fd565b82525050565b615ba581616607565b82525050565b6000615bb7828561566d565b601482019150615bc782846157ae565b91508190509392505050565b6000615bdf82846157ae565b915081905092915050565b6000615bf582615860565b601482019150615c0582856157ae565b9150615c10826159ca565b600182019150615c2082846157ae565b9150615c2b82615912565b6001820191508190509392505050565b6000615c4682615981565b601d82019150615c5682856157ae565b9150615c61826159ca565b600182019150615c7182846157ae565b91508190509392505050565b6000615c88826159f0565b601182019150615c9882856157ae565b9150615ca382615938565b600782019150615cb382846157ae565b91508190509392505050565b6000615cca82615a39565b601882019150615cda82856157ae565b9150615ce5826159ca565b600182019150615cf582846157ae565b91508190509392505050565b6000602082019050615d16600083018461565e565b92915050565b6000604082019050615d31600083018561565e565b8181036020830152615d438184615775565b90509392505050565b6000608082019050615d61600083018761565e565b8181036020830152615d738186615775565b90508181036040830152615d8781856157ee565b9050615d966060830184615b8d565b95945050505050565b60006020820190508181036000830152615db98184615684565b905092915050565b6000602082019050615dd66000830184615739565b92915050565b6000604082019050615df16000830185615739565b8181036020830152615e038184615775565b90509392505050565b60006020820190508181036000830152615e27818486615748565b90509392505050565b60006020820190508181036000830152615e4a8184615775565b905092915050565b60006020820190508181036000830152615e6c8184615827565b905092915050565b60006040820190508181036000830152615e8e81856157ee565b90508181036020830152615ea281846157ee565b90509392505050565b60006040820190508181036000830152615ec581846157ee565b90508181036020830152615ed881615a5f565b905092915050565b60006020820190508181036000830152615ef981615886565b9050919050565b60006020820190508181036000830152615f19816158a9565b9050919050565b60006020820190508181036000830152615f39816158cc565b9050919050565b60006020820190508181036000830152615f59816158ef565b9050919050565b60006020820190508181036000830152615f798161595e565b9050919050565b60006020820190508181036000830152615f99816159a7565b9050919050565b60006020820190508181036000830152615fb981615a16565b9050919050565b600061140082019050615fd66000830184615b11565b92915050565b6000602082019050615ff16000830184615b8d565b92915050565b600060408201905061600c6000830185615b8d565b818103602083015261601e81846157ee565b90509392505050565b6000616031616042565b905061603d82826166c4565b919050565b6000604051905090565b600067ffffffffffffffff82111561606757616066616939565b5b602082029050919050565b600067ffffffffffffffff82111561608d5761608c616939565b5b6160968261698b565b9050602081019050919050565b600067ffffffffffffffff8211156160be576160bd616939565b5b6160c78261698b565b9050602081019050919050565b6000819050602082019050919050565b6000819050919050565b600081519050919050565b6000601a9050919050565b600081519050919050565b600081519050919050565b6000602082019050919050565b6000602082019050919050565b600082825260208201905092915050565b600081905092915050565b600082825260208201905092915050565b600081905092915050565b600082825260208201905092915050565b600082825260208201905092915050565b6000616199826165fd565b91506161a4836165fd565b9250827fffffffffffffffffffffffffffffffffffffffffffffffffffffffffffffffff038211156161d9576161d861681f565b5b828201905092915050565b60006161ef82616607565b91506161fa83616607565b92508260ff038211156162105761620f61681f565b5b828201905092915050565b6000616226826165fd565b9150616231836165fd565b9250826162415761624061684e565b5b828204905092915050565b6000808291508390505b6001851115616296578086048111156162725761627161681f565b5b60018516156162815780820291505b808102905061628f856169a9565b9450616256565b94509492505050565b60006162aa826165fd565b91506162b5836165fd565b92506162e27fffffffffffffffffffffffffffffffffffffffffffffffffffffffffffffffff84846162ea565b905092915050565b6000826162fa57600190506163b6565b8161630857600090506163b6565b816001811461631e576002811461632857616357565b60019150506163b6565b60ff84111561633a5761633961681f565b5b8360020a9150848211156163515761635061681f565b5b506163b6565b5060208310610133831016604e8410600b841016171561638c5782820a9050838111156163875761638661681f565b5b6163b6565b616399848484600161624c565b925090508184048111156163b0576163af61681f565b5b81810290505b9392505050565b60006163c8826165fd565b91506163d3836165fd565b9250817fffffffffffffffffffffffffffffffffffffffffffffffffffffffffffffffff048311821515161561640c5761640b61681f565b5b828202905092915050565b600061642282616607565b915061642d83616607565b92508160ff04831182151516156164475761644661681f565b5b828202905092915050565b600061645d826165c5565b9150616468836165c5565b9250827f8000000000000000000000000000000000000000000000000000000000000000018212600084121516156164a3576164a261681f565b5b827f7fffffffffffffffffffffffffffffffffffffffffffffffffffffffffffffff0182136000841216156164db576164da61681f565b5b828203905092915050565b60006164f1826165cf565b91506164fc836165cf565b92508282101561650f5761650e61681f565b5b828203905092915050565b6000616525826165fd565b9150616530836165fd565b9250828210156165435761654261681f565b5b828203905092915050565b600061655982616607565b915061656483616607565b9250828210156165775761657661681f565b5b828203905092915050565b600061658d826165dd565b9050919050565b600061659f826165dd565b9050919050565b60008115159050919050565b60008190506165c082616afe565b919050565b6000819050919050565b600061ffff82169050919050565b600073ffffffffffffffffffffffffffffffffffffffff82169050919050565b6000819050919050565b600060ff82169050919050565b600061661f826165b2565b9050919050565b82818337600083830152505050565b60005b83811015616653578082015181840152602081019050616638565b83811115616662576000848401525b50505050565b6000616673826165fd565b915060008214156166875761668661681f565b5b600182039050919050565b600060028204905060018216806166aa57607f821691505b602082108114156166be576166bd6168ac565b5b50919050565b6166cd8261698b565b810181811067ffffffffffffffff821117156166ec576166eb616939565b5b80604052505050565b6000616700826165fd565b91507fffffffffffffffffffffffffffffffffffffffffffffffffffffffffffffffff8214156167335761673261681f565b5b600182019050919050565b600061674982616607565b915060ff82141561675d5761675c61681f565b5b600182019050919050565b60006167738261677a565b9050919050565b60006167858261699c565b9050919050565b6000616797826165cf565b91506167a2836165cf565b9250826167b2576167b161684e565b5b828206905092915050565b60006167c8826165fd565b91506167d3836165fd565b9250826167e3576167e261684e565b5b828206905092915050565b60006167f982616607565b915061680483616607565b9250826168145761681361684e565b5b828206905092915050565b7f4e487b7100000000000000000000000000000000000000000000000000000000600052601160045260246000fd5b7f4e487b7100000000000000000000000000000000000000000000000000000000600052601260045260246000fd5b7f4e487b7100000000000000000000000000000000000000000000000000000000600052602160045260246000fd5b7f4e487b7100000000000000000000000000000000000000000000000000000000600052602260045260246000fd5b7f4e487b7100000000000000000000000000000000000000000000000000000000600052603160045260246000fd5b7f4e487b7100000000000000000000000000000000000000000000000000000000600052603260045260246000fd5b7f4e487b7100000000000000000000000000000000000000000000000000000000600052604160045260246000fd5b600080fd5b600080fd5b600080fd5b600080fd5b600080fd5b600080fd5b600080fd5b6000601f19601f8301169050919050565b60008160601b9050919050565b60008160011c9050919050565b7f5061757361626c653a206e6f7420706175736564000000000000000000000000600082015250565b7f4d7573742062652070726f706f736564206f776e657200000000000000000000600082015250565b7f3420737061636573207265717569726564000000000000000000000000000000600082015250565b7f4f6e6c792063616c6c61626c65206279206f776e657200000000000000000000600082015250565b7f5061757361626c653a2070617573656400000000000000000000000000000000600082015250565b7f43616e6e6f74207472616e7366657220746f2073656c66000000000000000000600082015250565b7f736f6d65206669656c6473206d697373696e6700000000000000000000000000600082015250565b7f6c69737473206d7573742068617665206174206c656173742032206974656d73600082015250565b60058110616b0f57616b0e61687d565b5b50565b616b1b81616582565b8114616b2657600080fd5b50565b616b3281616594565b8114616b3d57600080fd5b50565b60058110616b4d57600080fd5b50565b616b59816165fd565b8114616b6457600080fd5b50565b616b7081616607565b8114616b7b57600080fd5b5056fea264697066735822122072112e1bd539829d998e9da3dc461e444a77d266fcd4af36ad98d8852139eadf64736f6c63430008060033",
  "linkReferences": {
    "contracts/chainlink/v0.8/libraries/external/Cron.sol": {
      "Cron": [
        {
          "length": 20,
          "start": 4385
        },
        {
          "length": 20,
          "start": 4525
        },
        {
          "length": 20,
          "start": 5379
        }
      ]
    }
  },
  "deployedLinkReferences": {
    "contracts/chainlink/v0.8/libraries/external/Cron.sol": {
      "Cron": [
        {
          "length": 20,
          "start": 3211
        },
        {
          "length": 20,
          "start": 3351
        },
        {
          "length": 20,
          "start": 4205
        }
      ]
    }
  }
}