{
  "_format": "hh-sol-artifact-1",
  "contractName": "VRFTestHelper",
  "sourceName": "contracts/chainlink/v0.8/tests/VRFTestHelper.sol",
  "abi": [
    {
      "inputs": [
        {
          "internalType": "uint256[2]",
          "name": "p1",
          "type": "uint256[2]"
        },
        {
          "internalType": "uint256[2]",
          "name": "p2",
          "type": "uint256[2]"
        },
        {
          "internalType": "uint256",
          "name": "invZ",
          "type": "uint256"
        }
      ],
      "name": "affineECAdd_",
      "outputs": [
        {
          "internalType": "uint256[2]",
          "name": "",
          "type": "uint256[2]"
        }
      ],
      "stateMutability": "pure",
      "type": "function"
    },
    {
      "inputs": [
        {
          "internalType": "uint256",
          "name": "base",
          "type": "uint256"
        },
        {
          "internalType": "uint256",
          "name": "exponent",
          "type": "uint256"
        }
      ],
      "name": "bigModExp_",
      "outputs": [
        {
          "internalType": "uint256",
          "name": "",
          "type": "uint256"
        }
      ],
      "stateMutability": "view",
      "type": "function"
    },
    {
      "inputs": [
        {
          "internalType": "uint256[2]",
          "name": "x",
          "type": "uint256[2]"
        },
        {
          "internalType": "uint256",
          "name": "scalar",
          "type": "uint256"
        },
        {
          "internalType": "uint256[2]",
          "name": "q",
          "type": "uint256[2]"
        }
      ],
      "name": "ecmulVerify_",
      "outputs": [
        {
          "internalType": "bool",
          "name": "",
          "type": "bool"
        }
      ],
      "stateMutability": "pure",
      "type": "function"
    },
    {
      "inputs": [
        {
          "internalType": "bytes",
          "name": "b",
          "type": "bytes"
        }
      ],
      "name": "fieldHash_",
      "outputs": [
        {
          "internalType": "uint256",
          "name": "",
          "type": "uint256"
        }
      ],
      "stateMutability": "pure",
      "type": "function"
    },
    {
      "inputs": [
        {
          "internalType": "uint256[2]",
          "name": "pk",
          "type": "uint256[2]"
        },
        {
          "internalType": "uint256",
          "name": "x",
          "type": "uint256"
        }
      ],
      "name": "hashToCurve_",
      "outputs": [
        {
          "internalType": "uint256[2]",
          "name": "",
          "type": "uint256[2]"
        }
      ],
      "stateMutability": "view",
      "type": "function"
    },
    {
      "inputs": [
        {
          "internalType": "uint256[2]",
          "name": "p",
          "type": "uint256[2]"
        }
      ],
      "name": "isOnCurve_",
      "outputs": [
        {
          "internalType": "bool",
          "name": "",
          "type": "bool"
        }
      ],
      "stateMutability": "pure",
      "type": "function"
    },
    {
      "inputs": [
        {
          "internalType": "uint256",
          "name": "c",
          "type": "uint256"
        },
        {
          "internalType": "uint256[2]",
          "name": "p1",
          "type": "uint256[2]"
        },
        {
          "internalType": "uint256[2]",
          "name": "cp1Witness",
          "type": "uint256[2]"
        },
        {
          "internalType": "uint256",
          "name": "s",
          "type": "uint256"
        },
        {
          "internalType": "uint256[2]",
          "name": "p2",
          "type": "uint256[2]"
        },
        {
          "internalType": "uint256[2]",
          "name": "sp2Witness",
          "type": "uint256[2]"
        },
        {
          "internalType": "uint256",
          "name": "zInv",
          "type": "uint256"
        }
      ],
      "name": "linearCombination_",
      "outputs": [
        {
          "internalType": "uint256[2]",
          "name": "",
          "type": "uint256[2]"
        }
      ],
      "stateMutability": "pure",
      "type": "function"
    },
    {
      "inputs": [
        {
          "internalType": "uint256",
          "name": "px",
          "type": "uint256"
        },
        {
          "internalType": "uint256",
          "name": "py",
          "type": "uint256"
        },
        {
          "internalType": "uint256",
          "name": "qx",
          "type": "uint256"
        },
        {
          "internalType": "uint256",
          "name": "qy",
          "type": "uint256"
        }
      ],
      "name": "projectiveECAdd_",
      "outputs": [
        {
          "internalType": "uint256",
          "name": "",
          "type": "uint256"
        },
        {
          "internalType": "uint256",
          "name": "",
          "type": "uint256"
        },
        {
          "internalType": "uint256",
          "name": "",
          "type": "uint256"
        }
      ],
      "stateMutability": "pure",
      "type": "function"
    },
    {
      "inputs": [
        {
          "components": [
            {
              "internalType": "uint256[2]",
              "name": "pk",
              "type": "uint256[2]"
            },
            {
              "internalType": "uint256[2]",
              "name": "gamma",
              "type": "uint256[2]"
            },
            {
              "internalType": "uint256",
              "name": "c",
              "type": "uint256"
            },
            {
              "internalType": "uint256",
              "name": "s",
              "type": "uint256"
            },
            {
              "internalType": "uint256",
              "name": "seed",
              "type": "uint256"
            },
            {
              "internalType": "address",
              "name": "uWitness",
              "type": "address"
            },
            {
              "internalType": "uint256[2]",
              "name": "cGammaWitness",
              "type": "uint256[2]"
            },
            {
              "internalType": "uint256[2]",
              "name": "sHashWitness",
              "type": "uint256[2]"
            },
            {
              "internalType": "uint256",
              "name": "zInv",
              "type": "uint256"
            }
          ],
          "internalType": "struct VRF.Proof",
          "name": "proof",
          "type": "tuple"
        },
        {
          "internalType": "uint256",
          "name": "seed",
          "type": "uint256"
        }
      ],
      "name": "randomValueFromVRFProof_",
      "outputs": [
        {
          "internalType": "uint256",
          "name": "output",
          "type": "uint256"
        }
      ],
      "stateMutability": "view",
      "type": "function"
    },
    {
      "inputs": [
        {
          "internalType": "uint256[2]",
          "name": "hash",
          "type": "uint256[2]"
        },
        {
          "internalType": "uint256[2]",
          "name": "pk",
          "type": "uint256[2]"
        },
        {
          "internalType": "uint256[2]",
          "name": "gamma",
          "type": "uint256[2]"
        },
        {
          "internalType": "address",
          "name": "uWitness",
          "type": "address"
        },
        {
          "internalType": "uint256[2]",
          "name": "v",
          "type": "uint256[2]"
        }
      ],
      "name": "scalarFromCurvePoints_",
      "outputs": [
        {
          "internalType": "uint256",
          "name": "",
          "type": "uint256"
        }
      ],
      "stateMutability": "pure",
      "type": "function"
    },
    {
      "inputs": [
        {
          "internalType": "uint256",
          "name": "x",
          "type": "uint256"
        }
      ],
      "name": "squareRoot_",
      "outputs": [
        {
          "internalType": "uint256",
          "name": "",
          "type": "uint256"
        }
      ],
      "stateMutability": "view",
      "type": "function"
    },
    {
      "inputs": [
        {
          "internalType": "uint256",
          "name": "c",
          "type": "uint256"
        },
        {
          "internalType": "uint256[2]",
          "name": "p",
          "type": "uint256[2]"
        },
        {
          "internalType": "uint256",
          "name": "s",
          "type": "uint256"
        },
        {
          "internalType": "address",
          "name": "lcWitness",
          "type": "address"
        }
      ],
      "name": "verifyLinearCombinationWithGenerator_",
      "outputs": [
        {
          "internalType": "bool",
          "name": "",
          "type": "bool"
        }
      ],
      "stateMutability": "pure",
      "type": "function"
    },
    {
      "inputs": [
        {
          "internalType": "uint256[2]",
          "name": "pk",
          "type": "uint256[2]"
        },
        {
          "internalType": "uint256[2]",
          "name": "gamma",
          "type": "uint256[2]"
        },
        {
          "internalType": "uint256",
          "name": "c",
          "type": "uint256"
        },
        {
          "internalType": "uint256",
          "name": "s",
          "type": "uint256"
        },
        {
          "internalType": "uint256",
          "name": "seed",
          "type": "uint256"
        },
        {
          "internalType": "address",
          "name": "uWitness",
          "type": "address"
        },
        {
          "internalType": "uint256[2]",
          "name": "cGammaWitness",
          "type": "uint256[2]"
        },
        {
          "internalType": "uint256[2]",
          "name": "sHashWitness",
          "type": "uint256[2]"
        },
        {
          "internalType": "uint256",
          "name": "zInv",
          "type": "uint256"
        }
      ],
      "name": "verifyVRFProof_",
      "outputs": [],
      "stateMutability": "view",
      "type": "function"
    },
    {
      "inputs": [
        {
          "internalType": "uint256",
          "name": "x",
          "type": "uint256"
        }
      ],
      "name": "ySquared_",
      "outputs": [
        {
          "internalType": "uint256",
          "name": "",
          "type": "uint256"
        }
      ],
      "stateMutability": "pure",
      "type": "function"
    }
  ],
  "bytecode": "0x608060405234801561001057600080fd5b50612ba4806100206000396000f3fe608060405234801561001057600080fd5b50600436106100ea5760003560e01c80639d6f03371161008c578063b481e26011610066578063b481e260146102d1578063ef3b10ec14610301578063fd7e4af91461031d578063fe54f2a21461034d576100ea565b80639d6f033714610241578063a5e9508f14610271578063aa7b2fbb146102a1576100ea565b80637f8f50a8116100c85780637f8f50a81461017f5780638af046ea146101af57806391d5f691146101df57806395e6ee921461020f576100ea565b8063244f896d146100ef578063354524501461011f5780635de600421461014f575b600080fd5b61010960048036038101906101049190611a7f565b61037d565b60405161011691906122f2565b60405180910390f35b61013960048036038101906101349190611b9e565b610399565b60405161014691906122f2565b60405180910390f35b61016960048036038101906101649190611df5565b6103b3565b604051610176919061254d565b60405180910390f35b61019960048036038101906101949190611a03565b6103c7565b6040516101a6919061254d565b60405180910390f35b6101c960048036038101906101c49190611cbc565b6103e1565b6040516101d6919061254d565b60405180910390f35b6101f960048036038101906101f49190611d8e565b6103f3565b604051610206919061230d565b60405180910390f35b61022960048036038101906102249190611e35565b61040b565b60405161023893929190612591565b60405180910390f35b61025b60048036038101906102569190611cbc565b61042c565b604051610268919061254d565b60405180910390f35b61028b60048036038101906102869190611c7a565b61043e565b604051610298919061254d565b60405180910390f35b6102bb60048036038101906102b69190611bde565b610452565b6040516102c8919061230d565b60405180910390f35b6102eb60048036038101906102e69190611c31565b610468565b6040516102f8919061254d565b60405180910390f35b61031b60048036038101906103169190611ad2565b61047a565b005b610337600480360381019061033291906119d6565b610496565b604051610344919061230d565b60405180910390f35b61036760048036038101906103629190611ce9565b6104a8565b60405161037491906122f2565b60405180910390f35b610385611762565b6103908484846104cc565b90509392505050565b6103a1611762565b6103ab8383610648565b905092915050565b60006103bf83836106da565b905092915050565b60006103d6868686868661083a565b905095945050505050565b60006103ec8261087c565b9050919050565b6000610401858585856108bf565b9050949350505050565b600080600061041c87878787610add565b9250925092509450945094915050565b600061043782610cd4565b9050919050565b600061044a8383610d77565b905092915050565b600061045f848484610de4565b90509392505050565b600061047382610f7c565b9050919050565b61048b898989898989898989610fe9565b505050505050505050565b60006104a1826111d6565b9050919050565b6104b0611762565b6104bf88888888888888611357565b9050979650505050505050565b6104d4611762565b6000806000610545876000600281106104f0576104ef61283f565b5b6020020151886001600281106105095761050861283f565b5b6020020151886000600281106105225761052161283f565b5b60200201518960016002811061053b5761053a61283f565b5b6020020151610add565b80935081945082955050505060017ffffffffffffffffffffffffffffffffffffffffffffffffffffffffefffffc2f8061058257610581612810565b5b868309146105c5576040517f08c379a00000000000000000000000000000000000000000000000000000000081526004016105bc9061242d565b60405180910390fd5b60405180604001604052807ffffffffffffffffffffffffffffffffffffffffffffffffffffffffefffffc2f806105ff576105fe612810565b5b87860981526020017ffffffffffffffffffffffffffffffffffffffffffffffffffffffffefffffc2f8061063657610635612810565b5b87850981525093505050509392505050565b610650611762565b61067d60018484604051602001610669939291906122b5565b6040516020818303038152906040526114de565b90505b610689816111d6565b6106d4576106cd816000600281106106a4576106a361283f565b5b60200201516040516020016106b9919061222a565b6040516020818303038152906040526114de565b9050610680565b92915050565b6000806106e5611784565b6020816000600681106106fb576106fa61283f565b5b60200201818152505060208160016006811061071a5761071961283f565b5b6020020181815250506020816002600681106107395761073861283f565b5b60200201818152505084816003600681106107575761075661283f565b5b60200201818152505083816004600681106107755761077461283f565b5b6020020181815250507ffffffffffffffffffffffffffffffffffffffffffffffffffffffffefffffc2f816005600681106107b3576107b261283f565b5b6020020181815250506107c46117a6565b60208160c0846005600019fa92506000831415610816576040517f08c379a000000000000000000000000000000000000000000000000000000000815260040161080d906123ad565b60405180910390fd5b8060006001811061082a5761082961283f565b5b6020020151935050505092915050565b60006002868686858760405160200161085896959493929190612245565b6040516020818303038152906040528051906020012060001c905095945050505050565b60006108b882600260017ffffffffffffffffffffffffffffffffffffffffffffffffffffffffefffffc2f6108b1919061268d565b901c6106da565b9050919050565b60008073ffffffffffffffffffffffffffffffffffffffff168273ffffffffffffffffffffffffffffffffffffffff161415610930576040517f08c379a0000000000000000000000000000000000000000000000000000000008152600401610927906123ed565b60405180910390fd5b6000806002866001600281106109495761094861283f565b5b60200201518161095c5761095b612810565b5b061461096957601c61096c565b601b5b905060007ffffffffffffffffffffffffffffffffebaaedce6af48a03bbfd25e8cd03641418061099f5761099e612810565b5b85876000600281106109b4576109b361283f565b5b6020020151097ffffffffffffffffffffffffffffffffebaaedce6af48a03bbfd25e8cd03641410360001b905060007ffffffffffffffffffffffffffffffffebaaedce6af48a03bbfd25e8cd036414180610a1257610a11612810565b5b87600060028110610a2657610a2561283f565b5b6020020151890960001b90506000600183858a600060028110610a4c57610a4b61283f565b5b602002015160001b8560405160008152602001604052604051610a729493929190612328565b6020604051602081039080840390855afa158015610a94573d6000803e3d6000fd5b5050506020604051035190508573ffffffffffffffffffffffffffffffffffffffff168173ffffffffffffffffffffffffffffffffffffffff1614945050505050949350505050565b60008060008060006001809150915060007ffffffffffffffffffffffffffffffffffffffffffffffffffffffffefffffc2f80610b1d57610b1c612810565b5b897ffffffffffffffffffffffffffffffffffffffffffffffffffffffffefffffc2f038808905060007ffffffffffffffffffffffffffffffffffffffffffffffffffffffffefffffc2f80610b7557610b74612810565b5b8b7ffffffffffffffffffffffffffffffffffffffffffffffffffffffffefffffc2f038a0890506000610baa838385856115e2565b8092508199505050610bbe88828e8861165a565b8092508199505050610bd288828c8761165a565b80925081995050506000610be88d878b8561165a565b8092508199505050610bfc888286866115e2565b8092508199505050610c1088828e8961165a565b8092508199505050808214610cc0577ffffffffffffffffffffffffffffffffffffffffffffffffffffffffefffffc2f80610c4e57610c4d612810565b5b818a0998507ffffffffffffffffffffffffffffffffffffffffffffffffffffffffefffffc2f80610c8257610c81612810565b5b82890997507ffffffffffffffffffffffffffffffffffffffffffffffffffffffffefffffc2f80610cb657610cb5612810565b5b8183099650610cc4565b8196505b5050505050509450945094915050565b6000807ffffffffffffffffffffffffffffffffffffffffffffffffffffffffefffffc2f80610d0657610d05612810565b5b7ffffffffffffffffffffffffffffffffffffffffffffffffffffffffefffffc2f80610d3557610d34612810565b5b848509840990507ffffffffffffffffffffffffffffffffffffffffffffffffffffffffefffffc2f80610d6b57610d6a612810565b5b60078208915050919050565b6000610dab8360000151846020015185604001518660600151868860a001518960c001518a60e001518b6101000151610fe9565b60038360200151604051602001610dc3929190612568565b6040516020818303038152906040528051906020012060001c905092915050565b600080831415610e29576040517f08c379a0000000000000000000000000000000000000000000000000000000008152600401610e20906124ed565b60405180910390fd5b600084600060028110610e3f57610e3e61283f565b5b60200201519050600080600287600160028110610e5f57610e5e61283f565b5b6020020151610e6e91906127b0565b14610e7a57601c610e7d565b601b5b905060007ffffffffffffffffffffffffffffffffebaaedce6af48a03bbfd25e8cd036414180610eb057610eaf612810565b5b83870960001b9050600060016000801b848660001b8560405160008152602001604052604051610ee39493929190612328565b6020604051602081039080840390855afa158015610f05573d6000803e3d6000fd5b505050602060405103519050600086604051602001610f24919061220f565b6040516020818303038152906040528051906020012060001c90508073ffffffffffffffffffffffffffffffffffffffff168273ffffffffffffffffffffffffffffffffffffffff1614955050505050509392505050565b6000818051906020012060001c90505b7ffffffffffffffffffffffffffffffffffffffffffffffffffffffffefffffc2f8110610fe45780604051602001610fc4919061222a565b6040516020818303038152906040528051906020012060001c9050610f8c565b919050565b610ff2896111d6565b611031576040517f08c379a00000000000000000000000000000000000000000000000000000000081526004016110289061246d565b60405180910390fd5b61103a886111d6565b611079576040517f08c379a00000000000000000000000000000000000000000000000000000000081526004016110709061248d565b60405180910390fd5b611082836111d6565b6110c1576040517f08c379a00000000000000000000000000000000000000000000000000000000081526004016110b89061244d565b60405180910390fd5b6110ca826111d6565b611109576040517f08c379a00000000000000000000000000000000000000000000000000000000081526004016111009061252d565b60405180910390fd5b611115878a88876108bf565b611154576040517f08c379a000000000000000000000000000000000000000000000000000000000815260040161114b9061240d565b60405180910390fd5b60006111608a87610648565b90506000611173898b878b868989611357565b90506000611184838d8d8a8661083a565b9050808a146111c8576040517f08c379a00000000000000000000000000000000000000000000000000000000081526004016111bf906124ad565b60405180910390fd5b505050505050505050505050565b60007ffffffffffffffffffffffffffffffffffffffffffffffffffffffffefffffc2f8260006002811061120d5761120c61283f565b5b602002015110611252576040517f08c379a0000000000000000000000000000000000000000000000000000000008152600401611249906123cd565b60405180910390fd5b7ffffffffffffffffffffffffffffffffffffffffffffffffffffffffefffffc2f826001600281106112875761128661283f565b5b6020020151106112cc576040517f08c379a00000000000000000000000000000000000000000000000000000000081526004016112c39061250d565b60405180910390fd5b7ffffffffffffffffffffffffffffffffffffffffffffffffffffffffefffffc2f806112fb576112fa612810565b5b8260016002811061130f5761130e61283f565b5b6020020151836001600281106113285761132761283f565b5b60200201510961134f836000600281106113455761134461283f565b5b6020020151610cd4565b149050919050565b61135f611762565b7ffffffffffffffffffffffffffffffffffffffffffffffffffffffffefffffc2f836000600281106113945761139361283f565b5b6020020151816113a7576113a6612810565b5b067ffffffffffffffffffffffffffffffffffffffffffffffffffffffffefffffc2f876000600281106113dd576113dc61283f565b5b6020020151816113f0576113ef612810565b5b061415611432576040517f08c379a00000000000000000000000000000000000000000000000000000000081526004016114299061238d565b60405180910390fd5b61143d878988610de4565b61147c576040517f08c379a0000000000000000000000000000000000000000000000000000000008152600401611473906124cd565b60405180910390fd5b611487848685610de4565b6114c6576040517f08c379a00000000000000000000000000000000000000000000000000000000081526004016114bd9061236d565b60405180910390fd5b6114d18684846104cc565b9050979650505050505050565b6114e6611762565b6114ef82610f7c565b816000600281106115035761150261283f565b5b602002018181525050611535611530826000600281106115265761152561283f565b5b6020020151610cd4565b61087c565b816001600281106115495761154861283f565b5b602002018181525050600160028260016002811061156a5761156961283f565b5b60200201518161157d5761157c612810565b5b0614156115dd57806001600281106115985761159761283f565b5b60200201517ffffffffffffffffffffffffffffffffffffffffffffffffffffffffefffffc2f03816001600281106115d3576115d261283f565b5b6020020181815250505b919050565b6000807ffffffffffffffffffffffffffffffffffffffffffffffffffffffffefffffc2f8061161457611613612810565b5b8487097ffffffffffffffffffffffffffffffffffffffffffffffffffffffffefffffc2f8061164657611645612810565b5b848709809250819350505094509492505050565b60008060007ffffffffffffffffffffffffffffffffffffffffffffffffffffffffefffffc2f8061168e5761168d612810565b5b878509905060007ffffffffffffffffffffffffffffffffffffffffffffffffffffffffefffffc2f806116c4576116c3612810565b5b87877ffffffffffffffffffffffffffffffffffffffffffffffffffffffffefffffc2f030990507ffffffffffffffffffffffffffffffffffffffffffffffffffffffffefffffc2f8061171a57611719612810565b5b8183087ffffffffffffffffffffffffffffffffffffffffffffffffffffffffefffffc2f8061174c5761174b612810565b5b8689098094508195505050505094509492505050565b6040518060400160405280600290602082028036833780820191505090505090565b6040518060c00160405280600690602082028036833780820191505090505090565b6040518060200160405280600190602082028036833780820191505090505090565b60006117db6117d6846125ed565b6125c8565b905080828560208602820111156117f5576117f46128a7565b5b60005b85811015611825578161180b88826119c1565b8452602084019350602083019250506001810190506117f8565b5050509392505050565b600061184261183d84612613565b6125c8565b90508281526020810184848401111561185e5761185d6128ac565b5b611869848285612742565b509392505050565b60008135905061188081612b40565b92915050565b600082601f83011261189b5761189a61289d565b5b60026118a88482856117c8565b91505092915050565b600082601f8301126118c6576118c561289d565b5b81356118d684826020860161182f565b91505092915050565b60006101a082840312156118f6576118f56128a2565b5b6119016101206125c8565b9050600061191184828501611886565b600083015250604061192584828501611886565b6020830152506080611939848285016119c1565b60408301525060a061194d848285016119c1565b60608301525060c0611961848285016119c1565b60808301525060e061197584828501611871565b60a08301525061010061198a84828501611886565b60c08301525061014061199f84828501611886565b60e0830152506101806119b4848285016119c1565b6101008301525092915050565b6000813590506119d081612b57565b92915050565b6000604082840312156119ec576119eb6128b6565b5b60006119fa84828501611886565b91505092915050565b60008060008060006101208688031215611a2057611a1f6128b6565b5b6000611a2e88828901611886565b9550506040611a3f88828901611886565b9450506080611a5088828901611886565b93505060c0611a6188828901611871565b92505060e0611a7288828901611886565b9150509295509295909350565b600080600060a08486031215611a9857611a976128b6565b5b6000611aa686828701611886565b9350506040611ab786828701611886565b9250506080611ac8868287016119c1565b9150509250925092565b60008060008060008060008060006101a08a8c031215611af557611af46128b6565b5b6000611b038c828d01611886565b9950506040611b148c828d01611886565b9850506080611b258c828d016119c1565b97505060a0611b368c828d016119c1565b96505060c0611b478c828d016119c1565b95505060e0611b588c828d01611871565b945050610100611b6a8c828d01611886565b935050610140611b7c8c828d01611886565b925050610180611b8e8c828d016119c1565b9150509295985092959850929598565b60008060608385031215611bb557611bb46128b6565b5b6000611bc385828601611886565b9250506040611bd4858286016119c1565b9150509250929050565b600080600060a08486031215611bf757611bf66128b6565b5b6000611c0586828701611886565b9350506040611c16868287016119c1565b9250506060611c2786828701611886565b9150509250925092565b600060208284031215611c4757611c466128b6565b5b600082013567ffffffffffffffff811115611c6557611c646128b1565b5b611c71848285016118b1565b91505092915050565b6000806101c08385031215611c9257611c916128b6565b5b6000611ca0858286016118df565b9250506101a0611cb2858286016119c1565b9150509250929050565b600060208284031215611cd257611cd16128b6565b5b6000611ce0848285016119c1565b91505092915050565b6000806000806000806000610160888a031215611d0957611d086128b6565b5b6000611d178a828b016119c1565b9750506020611d288a828b01611886565b9650506060611d398a828b01611886565b95505060a0611d4a8a828b016119c1565b94505060c0611d5b8a828b01611886565b935050610100611d6d8a828b01611886565b925050610140611d7f8a828b016119c1565b91505092959891949750929550565b60008060008060a08587031215611da857611da76128b6565b5b6000611db6878288016119c1565b9450506020611dc787828801611886565b9350506060611dd8878288016119c1565b9250506080611de987828801611871565b91505092959194509250565b60008060408385031215611e0c57611e0b6128b6565b5b6000611e1a858286016119c1565b9250506020611e2b858286016119c1565b9150509250929050565b60008060008060808587031215611e4f57611e4e6128b6565b5b6000611e5d878288016119c1565b9450506020611e6e878288016119c1565b9350506040611e7f878288016119c1565b9250506060611e90878288016119c1565b91505092959194509250565b6000611ea883836121bc565b60208301905092915050565b6000611ec083836121da565b60208301905092915050565b611edd611ed8826126e3565b612782565b82525050565b611eec8161264e565b611ef68184612666565b9250611f0182612644565b8060005b83811015611f32578151611f198782611e9c565b9650611f2483612659565b925050600181019050611f05565b505050505050565b611f438161264e565b611f4d8184612671565b9250611f5882612644565b8060005b83811015611f89578151611f708782611eb4565b9650611f7b83612659565b925050600181019050611f5c565b505050505050565b611f9a816126f5565b82525050565b611fa981612701565b82525050565b6000611fbc60178361267c565b9150611fc7826128d9565b602082019050919050565b6000611fdf601e8361267c565b9150611fea82612902565b602082019050919050565b600061200260128361267c565b915061200d8261292b565b602082019050919050565b600061202560128361267c565b915061203082612954565b602082019050919050565b6000612048600b8361267c565b91506120538261297d565b602082019050919050565b600061206b60198361267c565b9150612076826129a6565b602082019050919050565b600061208e60198361267c565b9150612099826129cf565b602082019050919050565b60006120b1601d8361267c565b91506120bc826129f8565b602082019050919050565b60006120d4601a8361267c565b91506120df82612a21565b602082019050919050565b60006120f760158361267c565b915061210282612a4a565b602082019050919050565b600061211a600d8361267c565b915061212582612a73565b602082019050919050565b600061213d60168361267c565b915061214882612a9c565b602082019050919050565b6000612160600b8361267c565b915061216b82612ac5565b602082019050919050565b600061218360128361267c565b915061218e82612aee565b602082019050919050565b60006121a6601c8361267c565b91506121b182612b17565b602082019050919050565b6121c58161272b565b82525050565b6121d48161272b565b82525050565b6121e38161272b565b82525050565b6121fa6121f58261272b565b6127a6565b82525050565b61220981612735565b82525050565b600061221b8284611f3a565b60408201915081905092915050565b600061223682846121e9565b60208201915081905092915050565b600061225182896121e9565b6020820191506122618288611f3a565b6040820191506122718287611f3a565b6040820191506122818286611f3a565b6040820191506122918285611f3a565b6040820191506122a18284611ecc565b601482019150819050979650505050505050565b60006122c182866121e9565b6020820191506122d18285611f3a565b6040820191506122e182846121e9565b602082019150819050949350505050565b60006040820190506123076000830184611ee3565b92915050565b60006020820190506123226000830184611f91565b92915050565b600060808201905061233d6000830187611fa0565b61234a6020830186612200565b6123576040830185611fa0565b6123646060830184611fa0565b95945050505050565b6000602082019050818103600083015261238681611faf565b9050919050565b600060208201905081810360008301526123a681611fd2565b9050919050565b600060208201905081810360008301526123c681611ff5565b9050919050565b600060208201905081810360008301526123e681612018565b9050919050565b600060208201905081810360008301526124068161203b565b9050919050565b600060208201905081810360008301526124268161205e565b9050919050565b6000602082019050818103600083015261244681612081565b9050919050565b60006020820190508181036000830152612466816120a4565b9050919050565b60006020820190508181036000830152612486816120c7565b9050919050565b600060208201905081810360008301526124a6816120ea565b9050919050565b600060208201905081810360008301526124c68161210d565b9050919050565b600060208201905081810360008301526124e681612130565b9050919050565b6000602082019050818103600083015261250681612153565b9050919050565b6000602082019050818103600083015261252681612176565b9050919050565b6000602082019050818103600083015261254681612199565b9050919050565b600060208201905061256260008301846121cb565b92915050565b600060608201905061257d60008301856121cb565b61258a6020830184611ee3565b9392505050565b60006060820190506125a660008301866121cb565b6125b360208301856121cb565b6125c060408301846121cb565b949350505050565b60006125d26125e3565b90506125de8282612751565b919050565b6000604051905090565b600067ffffffffffffffff8211156126085761260761286e565b5b602082029050919050565b600067ffffffffffffffff82111561262e5761262d61286e565b5b612637826128bb565b9050602081019050919050565b6000819050919050565b600060029050919050565b6000602082019050919050565b600081905092915050565b600081905092915050565b600082825260208201905092915050565b60006126988261272b565b91506126a38361272b565b9250827fffffffffffffffffffffffffffffffffffffffffffffffffffffffffffffffff038211156126d8576126d76127e1565b5b828201905092915050565b60006126ee8261270b565b9050919050565b60008115159050919050565b6000819050919050565b600073ffffffffffffffffffffffffffffffffffffffff82169050919050565b6000819050919050565b600060ff82169050919050565b82818337600083830152505050565b61275a826128bb565b810181811067ffffffffffffffff821117156127795761277861286e565b5b80604052505050565b600061278d82612794565b9050919050565b600061279f826128cc565b9050919050565b6000819050919050565b60006127bb8261272b565b91506127c68361272b565b9250826127d6576127d5612810565b5b828206905092915050565b7f4e487b7100000000000000000000000000000000000000000000000000000000600052601160045260246000fd5b7f4e487b7100000000000000000000000000000000000000000000000000000000600052601260045260246000fd5b7f4e487b7100000000000000000000000000000000000000000000000000000000600052603260045260246000fd5b7f4e487b7100000000000000000000000000000000000000000000000000000000600052604160045260246000fd5b600080fd5b600080fd5b600080fd5b600080fd5b600080fd5b600080fd5b6000601f19601f8301169050919050565b60008160601b9050919050565b7f5365636f6e64206d756c20636865636b206661696c6564000000000000000000600082015250565b7f706f696e747320696e2073756d206d7573742062652064697374696e63740000600082015250565b7f6269674d6f64457870206661696c757265210000000000000000000000000000600082015250565b7f696e76616c696420782d6f7264696e6174650000000000000000000000000000600082015250565b7f626164207769746e657373000000000000000000000000000000000000000000600082015250565b7f6164647228632a706b2b732a6729213d5f755769746e65737300000000000000600082015250565b7f696e765a206d75737420626520696e7665727365206f66207a00000000000000600082015250565b7f6347616d6d615769746e657373206973206e6f74206f6e206375727665000000600082015250565b7f7075626c6963206b6579206973206e6f74206f6e206375727665000000000000600082015250565b7f67616d6d61206973206e6f74206f6e2063757276650000000000000000000000600082015250565b7f696e76616c69642070726f6f6600000000000000000000000000000000000000600082015250565b7f4669727374206d756c20636865636b206661696c656400000000000000000000600082015250565b7f7a65726f207363616c6172000000000000000000000000000000000000000000600082015250565b7f696e76616c696420792d6f7264696e6174650000000000000000000000000000600082015250565b7f73486173685769746e657373206973206e6f74206f6e20637572766500000000600082015250565b612b49816126e3565b8114612b5457600080fd5b50565b612b608161272b565b8114612b6b57600080fd5b5056fea2646970667358221220a35d5d285650f09255434c16a4dd299533ae1e22a429efb857261567608ae24164736f6c63430008060033",
  "linkReferences": {},
  "deployedLinkReferences": {}
}