{
  "_format": "hh-sol-artifact-1",
  "contractName": "CronExternalTestHelper",
  "sourceName": "contracts/chainlink/v0.8/tests/CronTestHelper.sol",
  "abi": [
    {
      "inputs": [
        {
          "internalType": "string",
          "name": "cronString",
          "type": "string"
        }
      ],
      "name": "calculateLastTick",
      "outputs": [
        {
          "internalType": "uint256",
          "name": "",
          "type": "uint256"
        }
      ],
      "stateMutability": "view",
      "type": "function"
    },
    {
      "inputs": [
        {
          "internalType": "string",
          "name": "cronString",
          "type": "string"
        }
      ],
      "name": "calculateNextTick",
      "outputs": [
        {
          "internalType": "uint256",
          "name": "",
          "type": "uint256"
        }
      ],
      "stateMutability": "view",
      "type": "function"
    },
    {
      "inputs": [
        {
          "internalType": "string",
          "name": "cronString",
          "type": "string"
        }
      ],
      "name": "cronStringtoEncodedSpec",
      "outputs": [
        {
          "components": [
            {
              "components": [
                {
                  "internalType": "enum FieldType",
                  "name": "fieldType",
                  "type": "uint8"
                },
                {
                  "internalType": "uint8",
                  "name": "singleValue",
                  "type": "uint8"
                },
                {
                  "internalType": "uint8",
                  "name": "interval",
                  "type": "uint8"
                },
                {
                  "internalType": "uint8",
                  "name": "rangeStart",
                  "type": "uint8"
                },
                {
                  "internalType": "uint8",
                  "name": "rangeEnd",
                  "type": "uint8"
                },
                {
                  "internalType": "uint8",
                  "name": "listLength",
                  "type": "uint8"
                },
                {
                  "internalType": "uint8[26]",
                  "name": "list",
                  "type": "uint8[26]"
                }
              ],
              "internalType": "struct Field",
              "name": "minute",
              "type": "tuple"
            },
            {
              "components": [
                {
                  "internalType": "enum FieldType",
                  "name": "fieldType",
                  "type": "uint8"
                },
                {
                  "internalType": "uint8",
                  "name": "singleValue",
                  "type": "uint8"
                },
                {
                  "internalType": "uint8",
                  "name": "interval",
                  "type": "uint8"
                },
                {
                  "internalType": "uint8",
                  "name": "rangeStart",
                  "type": "uint8"
                },
                {
                  "internalType": "uint8",
                  "name": "rangeEnd",
                  "type": "uint8"
                },
                {
                  "internalType": "uint8",
                  "name": "listLength",
                  "type": "uint8"
                },
                {
                  "internalType": "uint8[26]",
                  "name": "list",
                  "type": "uint8[26]"
                }
              ],
              "internalType": "struct Field",
              "name": "hour",
              "type": "tuple"
            },
            {
              "components": [
                {
                  "internalType": "enum FieldType",
                  "name": "fieldType",
                  "type": "uint8"
                },
                {
                  "internalType": "uint8",
                  "name": "singleValue",
                  "type": "uint8"
                },
                {
                  "internalType": "uint8",
                  "name": "interval",
                  "type": "uint8"
                },
                {
                  "internalType": "uint8",
                  "name": "rangeStart",
                  "type": "uint8"
                },
                {
                  "internalType": "uint8",
                  "name": "rangeEnd",
                  "type": "uint8"
                },
                {
                  "internalType": "uint8",
                  "name": "listLength",
                  "type": "uint8"
                },
                {
                  "internalType": "uint8[26]",
                  "name": "list",
                  "type": "uint8[26]"
                }
              ],
              "internalType": "struct Field",
              "name": "day",
              "type": "tuple"
            },
            {
              "components": [
                {
                  "internalType": "enum FieldType",
                  "name": "fieldType",
                  "type": "uint8"
                },
                {
                  "internalType": "uint8",
                  "name": "singleValue",
                  "type": "uint8"
                },
                {
                  "internalType": "uint8",
                  "name": "interval",
                  "type": "uint8"
                },
                {
                  "internalType": "uint8",
                  "name": "rangeStart",
                  "type": "uint8"
                },
                {
                  "internalType": "uint8",
                  "name": "rangeEnd",
                  "type": "uint8"
                },
                {
                  "internalType": "uint8",
                  "name": "listLength",
                  "type": "uint8"
                },
                {
                  "internalType": "uint8[26]",
                  "name": "list",
                  "type": "uint8[26]"
                }
              ],
              "internalType": "struct Field",
              "name": "month",
              "type": "tuple"
            },
            {
              "components": [
                {
                  "internalType": "enum FieldType",
                  "name": "fieldType",
                  "type": "uint8"
                },
                {
                  "internalType": "uint8",
                  "name": "singleValue",
                  "type": "uint8"
                },
                {
                  "internalType": "uint8",
                  "name": "interval",
                  "type": "uint8"
                },
                {
                  "internalType": "uint8",
                  "name": "rangeStart",
                  "type": "uint8"
                },
                {
                  "internalType": "uint8",
                  "name": "rangeEnd",
                  "type": "uint8"
                },
                {
                  "internalType": "uint8",
                  "name": "listLength",
                  "type": "uint8"
                },
                {
                  "internalType": "uint8[26]",
                  "name": "list",
                  "type": "uint8[26]"
                }
              ],
              "internalType": "struct Field",
              "name": "dayOfWeek",
              "type": "tuple"
            }
          ],
          "internalType": "struct Spec",
          "name": "",
          "type": "tuple"
        }
      ],
      "stateMutability": "pure",
      "type": "function"
    },
    {
      "inputs": [
        {
          "internalType": "string",
          "name": "cronString",
          "type": "string"
        }
      ],
      "name": "encodeCronString",
      "outputs": [
        {
          "internalType": "bytes",
          "name": "",
          "type": "bytes"
        }
      ],
      "stateMutability": "pure",
      "type": "function"
    },
    {
      "inputs": [
        {
          "internalType": "bytes",
          "name": "encodedSpec",
          "type": "bytes"
        }
      ],
      "name": "encodedSpecToString",
      "outputs": [
        {
          "internalType": "string",
          "name": "",
          "type": "string"
        }
      ],
      "stateMutability": "pure",
      "type": "function"
    }
  ],
  "bytecode": "0x608060405234801561001057600080fd5b506112f5806100206000396000f3fe608060405234801561001057600080fd5b50600436106100575760003560e01c806324e5ce8b1461005c5780633d051dda1461008c57806347b1fa07146100bc5780635209173b146100ec578063a6379ca91461011c575b600080fd5b61007660048036038101906100719190610a91565b61014c565b6040516100839190610fe8565b60405180910390f35b6100a660048036038101906100a19190610a91565b610263565b6040516100b39190610fcc565b60405180910390f35b6100d660048036038101906100d19190610a91565b6102fa565b6040516100e39190610f4a565b60405180910390f35b61010660048036038101906101019190610a91565b61038f565b6040516101139190610fe8565b60405180910390f35b610136600480360381019061013191906109ff565b6104a6565b6040516101439190610f8e565b60405180910390f35b600073__$e40eea5aa87277fbecb84887800c1cc45b$__63b70d697073__$e40eea5aa87277fbecb84887800c1cc45b$__6336d24def856040518263ffffffff1660e01b815260040161019f9190610f6c565b6114006040518083038186803b1580156101b857600080fd5b505af41580156101cc573d6000803e3d6000fd5b505050506040513d601f19601f820116820180604052508101906101f09190610b23565b6040518263ffffffff1660e01b815260040161020c9190610fb0565b60206040518083038186803b15801561022457600080fd5b505af4158015610238573d6000803e3d6000fd5b505050506040513d601f19601f8201168201806040525081019061025c9190610b51565b9050919050565b61026b610554565b73__$e40eea5aa87277fbecb84887800c1cc45b$__6336d24def836040518263ffffffff1660e01b81526004016102a29190610f6c565b6114006040518083038186803b1580156102bb57600080fd5b505af41580156102cf573d6000803e3d6000fd5b505050506040513d601f19601f820116820180604052508101906102f39190610b23565b9050919050565b606073__$e40eea5aa87277fbecb84887800c1cc45b$__63e04b9769836040518263ffffffff1660e01b81526004016103339190610f6c565b60006040518083038186803b15801561034b57600080fd5b505af415801561035f573d6000803e3d6000fd5b505050506040513d6000823e3d601f19601f820116820180604052508101906103889190610a48565b9050919050565b600073__$e40eea5aa87277fbecb84887800c1cc45b$__6334373a3b73__$e40eea5aa87277fbecb84887800c1cc45b$__6336d24def856040518263ffffffff1660e01b81526004016103e29190610f6c565b6114006040518083038186803b1580156103fb57600080fd5b505af415801561040f573d6000803e3d6000fd5b505050506040513d601f19601f820116820180604052508101906104339190610b23565b6040518263ffffffff1660e01b815260040161044f9190610fb0565b60206040518083038186803b15801561046757600080fd5b505af415801561047b573d6000803e3d6000fd5b505050506040513d601f19601f8201168201806040525081019061049f9190610b51565b9050919050565b60606000828060200190518101906104be9190610b23565b905073__$e40eea5aa87277fbecb84887800c1cc45b$__63a1ab24f4826040518263ffffffff1660e01b81526004016104f79190610fb0565b60006040518083038186803b15801561050f57600080fd5b505af4158015610523573d6000803e3d6000fd5b505050506040513d6000823e3d601f19601f8201168201806040525081019061054c9190610ada565b915050919050565b6040518060a001604052806105676105a1565b81526020016105746105a1565b81526020016105816105a1565b815260200161058e6105a1565b815260200161059b6105a1565b81525090565b6040518060e00160405280600060048111156105c0576105bf6111e0565b5b8152602001600060ff168152602001600060ff168152602001600060ff168152602001600060ff168152602001600060ff1681526020016105ff610605565b81525090565b604051806103400160405280601a90602082028036833780820191505090505090565b600061063b61063684611028565b611003565b9050808285602086028201111561065557610654611248565b5b60005b85811015610685578161066b88826109ea565b845260208401935060208301925050600181019050610658565b5050509392505050565b60006106a261069d8461104e565b611003565b9050828152602081018484840111156106be576106bd61124d565b5b6106c984828561116d565b509392505050565b60006106e46106df8461104e565b611003565b905082815260208101848484011115610700576106ff61124d565b5b61070b84828561117c565b509392505050565b60006107266107218461107f565b611003565b9050828152602081018484840111156107425761074161124d565b5b61074d84828561116d565b509392505050565b60006107686107638461107f565b611003565b9050828152602081018484840111156107845761078361124d565b5b61078f84828561117c565b509392505050565b600082601f8301126107ac576107ab61123e565b5b601a6107b9848285610628565b91505092915050565b600082601f8301126107d7576107d661123e565b5b81356107e784826020860161068f565b91505092915050565b600082601f8301126108055761080461123e565b5b81516108158482602086016106d1565b91505092915050565b60008151905061082d81611281565b92915050565b600082601f8301126108485761084761123e565b5b8135610858848260208601610713565b91505092915050565b600082601f8301126108765761087561123e565b5b8151610886848260208601610755565b91505092915050565b600061040082840312156108a6576108a5611243565b5b6108b060e0611003565b905060006108c08482850161081e565b60008301525060206108d4848285016109ea565b60208301525060406108e8848285016109ea565b60408301525060606108fc848285016109ea565b6060830152506080610910848285016109ea565b60808301525060a0610924848285016109ea565b60a08301525060c061093884828501610797565b60c08301525092915050565b6000611400828403121561095b5761095a611243565b5b61096560a0611003565b905060006109758482850161088f565b60008301525061040061098a8482850161088f565b60208301525061080061099f8482850161088f565b604083015250610c006109b48482850161088f565b6060830152506110006109c98482850161088f565b60808301525092915050565b6000815190506109e481611291565b92915050565b6000815190506109f9816112a8565b92915050565b600060208284031215610a1557610a14611257565b5b600082013567ffffffffffffffff811115610a3357610a32611252565b5b610a3f848285016107c2565b91505092915050565b600060208284031215610a5e57610a5d611257565b5b600082015167ffffffffffffffff811115610a7c57610a7b611252565b5b610a88848285016107f0565b91505092915050565b600060208284031215610aa757610aa6611257565b5b600082013567ffffffffffffffff811115610ac557610ac4611252565b5b610ad184828501610833565b91505092915050565b600060208284031215610af057610aef611257565b5b600082015167ffffffffffffffff811115610b0e57610b0d611252565b5b610b1a84828501610861565b91505092915050565b60006114008284031215610b3a57610b39611257565b5b6000610b4884828501610944565b91505092915050565b600060208284031215610b6757610b66611257565b5b6000610b75848285016109d5565b91505092915050565b6000610b8a8383610f2c565b60208301905092915050565b6000610ba28383610f3b565b60208301905092915050565b610bb7816110ba565b610bc181846110e8565b9250610bcc826110b0565b8060005b83811015610bfd578151610be48782610b7e565b9650610bef836110db565b925050600181019050610bd0565b505050505050565b610c0e816110ba565b610c1881846110f3565b9250610c23826110b0565b8060005b83811015610c54578151610c3b8782610b96565b9650610c46836110db565b925050600181019050610c27565b505050505050565b6000610c67826110c5565b610c7181856110fe565b9350610c8181856020860161117c565b610c8a8161125c565b840191505092915050565b610c9e8161115b565b82525050565b610cad8161115b565b82525050565b6000610cbe826110d0565b610cc8818561110f565b9350610cd881856020860161117c565b610ce18161125c565b840191505092915050565b6000610cf7826110d0565b610d018185611120565b9350610d1181856020860161117c565b610d1a8161125c565b840191505092915050565b61040082016000820151610d3c6000850182610c95565b506020820151610d4f6020850182610f2c565b506040820151610d626040850182610f2c565b506060820151610d756060850182610f2c565b506080820151610d886080850182610f2c565b5060a0820151610d9b60a0850182610f2c565b5060c0820151610dae60c0850182610bae565b50505050565b61040082016000820151610dcb6000850182610ca4565b506020820151610dde6020850182610f3b565b506040820151610df16040850182610f3b565b506060820151610e046060850182610f3b565b506080820151610e176080850182610f3b565b5060a0820151610e2a60a0850182610f3b565b5060c0820151610e3d60c0850182610c05565b50505050565b61140082016000820151610e5a6000850182610d25565b506020820151610e6e610400850182610d25565b506040820151610e82610800850182610d25565b506060820151610e96610c00850182610d25565b506080820151610eaa611000850182610d25565b50505050565b61140082016000820151610ec76000850182610db4565b506020820151610edb610400850182610db4565b506040820151610eef610800850182610db4565b506060820151610f03610c00850182610db4565b506080820151610f17611000850182610db4565b50505050565b610f2681611144565b82525050565b610f358161114e565b82525050565b610f448161114e565b82525050565b60006020820190508181036000830152610f648184610c5c565b905092915050565b60006020820190508181036000830152610f868184610cec565b905092915050565b60006020820190508181036000830152610fa88184610cb3565b905092915050565b600061140082019050610fc66000830184610eb0565b92915050565b600061140082019050610fe26000830184610e43565b92915050565b6000602082019050610ffd6000830184610f1d565b92915050565b600061100d61101e565b905061101982826111af565b919050565b6000604051905090565b600067ffffffffffffffff8211156110435761104261120f565b5b602082029050919050565b600067ffffffffffffffff8211156110695761106861120f565b5b6110728261125c565b9050602081019050919050565b600067ffffffffffffffff82111561109a5761109961120f565b5b6110a38261125c565b9050602081019050919050565b6000819050919050565b6000601a9050919050565b600081519050919050565b600081519050919050565b6000602082019050919050565b600081905092915050565b600081905092915050565b600082825260208201905092915050565b600082825260208201905092915050565b600082825260208201905092915050565b600081905061113f8261126d565b919050565b6000819050919050565b600060ff82169050919050565b600061116682611131565b9050919050565b82818337600083830152505050565b60005b8381101561119a57808201518184015260208101905061117f565b838111156111a9576000848401525b50505050565b6111b88261125c565b810181811067ffffffffffffffff821117156111d7576111d661120f565b5b80604052505050565b7f4e487b7100000000000000000000000000000000000000000000000000000000600052602160045260246000fd5b7f4e487b7100000000000000000000000000000000000000000000000000000000600052604160045260246000fd5b600080fd5b600080fd5b600080fd5b600080fd5b600080fd5b600080fd5b6000601f19601f8301169050919050565b6005811061127e5761127d6111e0565b5b50565b6005811061128e57600080fd5b50565b61129a81611144565b81146112a557600080fd5b50565b6112b18161114e565b81146112bc57600080fd5b5056fea26469706673582212201834ba9da45d56309eee79cfe493a20cfafb3112764b6bfd0dc56cef5f1f4c7764736f6c63430008060033",
  "linkReferences": {
    "contracts/chainlink/v0.8/libraries/external/Cron.sol": {
      "Cron": [
        {
          "length": 20,
          "start": 368
        },
        {
          "length": 20,
          "start": 394
        },
        {
          "length": 20,
          "start": 653
        },
        {
          "length": 20,
          "start": 798
        },
        {
          "length": 20,
          "start": 947
        },
        {
          "length": 20,
          "start": 973
        },
        {
          "length": 20,
          "start": 1250
        }
      ]
    }
  },
  "deployedLinkReferences": {
    "contracts/chainlink/v0.8/libraries/external/Cron.sol": {
      "Cron": [
        {
          "length": 20,
          "start": 336
        },
        {
          "length": 20,
          "start": 362
        },
        {
          "length": 20,
          "start": 621
        },
        {
          "length": 20,
          "start": 766
        },
        {
          "length": 20,
          "start": 915
        },
        {
          "length": 20,
          "start": 941
        },
        {
          "length": 20,
          "start": 1218
        }
      ]
    }
  }
}