{
  "_format": "hh-sol-artifact-1",
  "contractName": "CronInternalTestHelper",
  "sourceName": "contracts/chainlink/v0.8/tests/CronTestHelper.sol",
  "abi": [
    {
      "inputs": [
        {
          "internalType": "string",
          "name": "field",
          "type": "string"
        },
        {
          "internalType": "string",
          "name": "reason",
          "type": "string"
        }
      ],
      "name": "InvalidField",
      "type": "error"
    },
    {
      "inputs": [
        {
          "internalType": "string",
          "name": "reason",
          "type": "string"
        }
      ],
      "name": "InvalidSpec",
      "type": "error"
    },
    {
      "inputs": [],
      "name": "ListTooLarge",
      "type": "error"
    },
    {
      "inputs": [],
      "name": "UnknownFieldType",
      "type": "error"
    },
    {
      "inputs": [
        {
          "internalType": "string",
          "name": "cronString",
          "type": "string"
        }
      ],
      "name": "calculateLastTick",
      "outputs": [
        {
          "internalType": "uint256",
          "name": "",
          "type": "uint256"
        }
      ],
      "stateMutability": "view",
      "type": "function"
    },
    {
      "inputs": [
        {
          "internalType": "string",
          "name": "cronString",
          "type": "string"
        }
      ],
      "name": "calculateNextTick",
      "outputs": [
        {
          "internalType": "uint256",
          "name": "",
          "type": "uint256"
        }
      ],
      "stateMutability": "view",
      "type": "function"
    },
    {
      "inputs": [
        {
          "internalType": "string",
          "name": "cronString",
          "type": "string"
        }
      ],
      "name": "cronStringtoEncodedSpec",
      "outputs": [
        {
          "components": [
            {
              "components": [
                {
                  "internalType": "enum FieldType",
                  "name": "fieldType",
                  "type": "uint8"
                },
                {
                  "internalType": "uint8",
                  "name": "singleValue",
                  "type": "uint8"
                },
                {
                  "internalType": "uint8",
                  "name": "interval",
                  "type": "uint8"
                },
                {
                  "internalType": "uint8",
                  "name": "rangeStart",
                  "type": "uint8"
                },
                {
                  "internalType": "uint8",
                  "name": "rangeEnd",
                  "type": "uint8"
                },
                {
                  "internalType": "uint8",
                  "name": "listLength",
                  "type": "uint8"
                },
                {
                  "internalType": "uint8[26]",
                  "name": "list",
                  "type": "uint8[26]"
                }
              ],
              "internalType": "struct Field",
              "name": "minute",
              "type": "tuple"
            },
            {
              "components": [
                {
                  "internalType": "enum FieldType",
                  "name": "fieldType",
                  "type": "uint8"
                },
                {
                  "internalType": "uint8",
                  "name": "singleValue",
                  "type": "uint8"
                },
                {
                  "internalType": "uint8",
                  "name": "interval",
                  "type": "uint8"
                },
                {
                  "internalType": "uint8",
                  "name": "rangeStart",
                  "type": "uint8"
                },
                {
                  "internalType": "uint8",
                  "name": "rangeEnd",
                  "type": "uint8"
                },
                {
                  "internalType": "uint8",
                  "name": "listLength",
                  "type": "uint8"
                },
                {
                  "internalType": "uint8[26]",
                  "name": "list",
                  "type": "uint8[26]"
                }
              ],
              "internalType": "struct Field",
              "name": "hour",
              "type": "tuple"
            },
            {
              "components": [
                {
                  "internalType": "enum FieldType",
                  "name": "fieldType",
                  "type": "uint8"
                },
                {
                  "internalType": "uint8",
                  "name": "singleValue",
                  "type": "uint8"
                },
                {
                  "internalType": "uint8",
                  "name": "interval",
                  "type": "uint8"
                },
                {
                  "internalType": "uint8",
                  "name": "rangeStart",
                  "type": "uint8"
                },
                {
                  "internalType": "uint8",
                  "name": "rangeEnd",
                  "type": "uint8"
                },
                {
                  "internalType": "uint8",
                  "name": "listLength",
                  "type": "uint8"
                },
                {
                  "internalType": "uint8[26]",
                  "name": "list",
                  "type": "uint8[26]"
                }
              ],
              "internalType": "struct Field",
              "name": "day",
              "type": "tuple"
            },
            {
              "components": [
                {
                  "internalType": "enum FieldType",
                  "name": "fieldType",
                  "type": "uint8"
                },
                {
                  "internalType": "uint8",
                  "name": "singleValue",
                  "type": "uint8"
                },
                {
                  "internalType": "uint8",
                  "name": "interval",
                  "type": "uint8"
                },
                {
                  "internalType": "uint8",
                  "name": "rangeStart",
                  "type": "uint8"
                },
                {
                  "internalType": "uint8",
                  "name": "rangeEnd",
                  "type": "uint8"
                },
                {
                  "internalType": "uint8",
                  "name": "listLength",
                  "type": "uint8"
                },
                {
                  "internalType": "uint8[26]",
                  "name": "list",
                  "type": "uint8[26]"
                }
              ],
              "internalType": "struct Field",
              "name": "month",
              "type": "tuple"
            },
            {
              "components": [
                {
                  "internalType": "enum FieldType",
                  "name": "fieldType",
                  "type": "uint8"
                },
                {
                  "internalType": "uint8",
                  "name": "singleValue",
                  "type": "uint8"
                },
                {
                  "internalType": "uint8",
                  "name": "interval",
                  "type": "uint8"
                },
                {
                  "internalType": "uint8",
                  "name": "rangeStart",
                  "type": "uint8"
                },
                {
                  "internalType": "uint8",
                  "name": "rangeEnd",
                  "type": "uint8"
                },
                {
                  "internalType": "uint8",
                  "name": "listLength",
                  "type": "uint8"
                },
                {
                  "internalType": "uint8[26]",
                  "name": "list",
                  "type": "uint8[26]"
                }
              ],
              "internalType": "struct Field",
              "name": "dayOfWeek",
              "type": "tuple"
            }
          ],
          "internalType": "struct Spec",
          "name": "",
          "type": "tuple"
        }
      ],
      "stateMutability": "pure",
      "type": "function"
    },
    {
      "inputs": [
        {
          "internalType": "string",
          "name": "cronString",
          "type": "string"
        }
      ],
      "name": "encodeCronString",
      "outputs": [
        {
          "internalType": "bytes",
          "name": "",
          "type": "bytes"
        }
      ],
      "stateMutability": "pure",
      "type": "function"
    },
    {
      "inputs": [
        {
          "internalType": "bytes",
          "name": "encodedSpec",
          "type": "bytes"
        }
      ],
      "name": "encodedSpecToString",
      "outputs": [
        {
          "internalType": "string",
          "name": "",
          "type": "string"
        }
      ],
      "stateMutability": "pure",
      "type": "function"
    }
  ],
  "bytecode": "0x608060405234801561001057600080fd5b5061421b806100206000396000f3fe608060405234801561001057600080fd5b50600436106100575760003560e01c806324e5ce8b1461005c5780633d051dda1461008c57806347b1fa07146100bc5780635209173b146100ec578063a6379ca91461011c575b600080fd5b61007660048036038101906100719190613099565b61014c565b6040516100839190613866565b60405180910390f35b6100a660048036038101906100a19190613099565b610166565b6040516100b3919061384a565b60405180910390f35b6100d660048036038101906100d19190613099565b61017e565b6040516100e3919061375a565b60405180910390f35b61010660048036038101906101019190613099565b610190565b6040516101139190613866565b60405180910390f35b61013660048036038101906101319190613050565b6101aa565b604051610143919061377c565b60405180910390f35b600061015f61015a836101d5565b6103d9565b9050919050565b61016e612c0a565b610177826101d5565b9050919050565b6060610189826105e0565b9050919050565b60006101a361019e836101d5565b610611565b9050919050565b60606000828060200190518101906101c291906130e2565b90506101cd816107e1565b915050919050565b6101dd612c0a565b600061021d6040518060400160405280600181526020017f200000000000000000000000000000000000000000000000000000000000000081525061084e565b9050600061022a8461084e565b90506004610241838361087c90919063ffffffff16565b14610281576040517faf64694e0000000000000000000000000000000000000000000000000000000081526004016102789061380a565b60405180910390fd5b6000610296838361092490919063ffffffff16565b905060006102ad848461092490919063ffffffff16565b905060006102c4858561092490919063ffffffff16565b905060006102db868661092490919063ffffffff16565b905060006102e88561093e565b14806102fc575060006102fa8461093e565b145b8061030f5750600061030d8361093e565b145b80610322575060006103208261093e565b145b80610335575060006103338661093e565b145b15610375576040517faf64694e00000000000000000000000000000000000000000000000000000000815260040161036c9061382a565b60405180910390fd5b6103cc6040518060a0016040528061038c87610a4d565b815260200161039a86610a4d565b81526020016103a885610a4d565b81526020016103b684610a4d565b81526020016103c488610a4d565b815250610e3e565b9650505050505050919050565b6000806103e542610fc2565b905060006103f2426110d9565b905060006103ff426110ef565b9050600061040c42611105565b9050600061041942611132565b90506000805b6001156105d3575b60008660ff1611156105bc57610441896060015187611153565b610456576001905060179350603b92506105a9565b8015610469576104668688611347565b94505b5b60008560ff1611156105a457610484896040015186611153565b6104955760179350603b9250610591565b6104a86104a3888888611413565b61142e565b91506104b8896080015183611153565b6104c95760179350603b9250610591565b5b60008460ff161061058c576104e3896020015185611153565b61050157603b925060008460ff1614156104fc5761058c565b610579565b5b60008360ff16106105635761051b896000015184611153565b6105355760008360ff16141561053057610563565b610550565b610542878787878761145e565b9750505050505050506105db565b828061055b90613e7c565b935050610502565b603b925060008460ff1614156105785761058c565b5b838061058490613e7c565b9450506104ca565b601793505b848061059c90613e7c565b95505061046a565b600190505b85806105b490613e7c565b965050610427565b600c955086806105cb90613e28565b97505061041f565b505050505050505b919050565b60606105eb826101d5565b6040516020016105fb919061384a565b6040516020818303038152906040529050919050565b60008061061d42610fc2565b9050600061062a426110d9565b90506000610637426110ef565b9050600061064442611105565b9050600061065142611132565b905060005b6001156107d5575b600c8560ff16116107be57610677886060015186611153565b61068c576001935060009250600091506107ab565b60006106988688611347565b90505b8060ff168560ff16116107a5576106b6896040015186611153565b6106c7576000935060009250610792565b6106da6106d5888888611413565b61142e565b91506106ea896080015183611153565b6106fb576000935060009250610792565b5b60188460ff16101561078d57610716896020015185611153565b610723576000925061077a565b5b603c8360ff1610156107755761073e896000015184611153565b61074757610762565b610754878787878761145e565b9750505050505050506107dc565b828061076d90613f4b565b935050610724565b600092505b838061078590613f4b565b9450506106fc565b600093505b848061079d90613f4b565b95505061069b565b60019450505b84806107b690613f4b565b95505061065e565b6001945085806107cd90613ed7565b965050610656565b5050505050505b919050565b60606107f0826000015161147a565b6107fd836020015161147a565b61080a846040015161147a565b610817856060015161147a565b610824866080015161147a565b604051602001610838959493929190613563565b6040516020818303038152906040529050919050565b610856612c57565b600060208301905060405180604001604052808451815260200182815250915050919050565b60008082600001516108a08560000151866020015186600001518760200151611721565b6108aa919061399e565b90505b836000015184602001516108c1919061399e565b811161091d5781806108d290613f02565b925050826000015161090c8560200151836108ed9190613d2a565b86600001516108fc9190613d2a565b8386600001518760200151611721565b610916919061399e565b90506108ad565b5092915050565b61092c612c57565b61093783838361186b565b5092915050565b600080601f83602001516109529190613d2a565b90506000836000015182610966919061399e565b9050600092505b80821015610a4657600060ff835116905060808160ff16101561099e57600183610997919061399e565b9250610a32565b60e08160ff1610156109be576002836109b7919061399e565b9250610a31565b60f08160ff1610156109de576003836109d7919061399e565b9250610a30565b60f88160ff1610156109fe576004836109f7919061399e565b9250610a2f565b60fc8160ff161015610a1e57600583610a17919061399e565b9250610a2e565b600683610a2b919061399e565b92505b5b5b5b5b508280610a3e90613f02565b93505061096d565b5050919050565b610a55612c71565b6000610a956040518060400160405280600181526020017f2a0000000000000000000000000000000000000000000000000000000000000081525061084e565b90506000610ad76040518060400160405280600181526020017f2d0000000000000000000000000000000000000000000000000000000000000081525061084e565b90506000610b196040518060400160405280600181526020017f2f0000000000000000000000000000000000000000000000000000000000000081525061084e565b90506000610b5b6040518060400160405280600181526020017f2c0000000000000000000000000000000000000000000000000000000000000081525061084e565b9050610b65612c71565b610b78858861193690919063ffffffff16565b15610bb357600081600001906004811115610b9657610b95614066565b5b90816004811115610baa57610ba9614066565b5b81525050610e31565b610bc6848861194c90919063ffffffff16565b15610c4d57600381600001906004811115610be457610be3614066565b5b90816004811115610bf857610bf7614066565b5b815250506000610c11858961092490919063ffffffff16565b9050610c1c81611979565b826060019060ff16908160ff1681525050610c3688611979565b826080019060ff16908160ff168152505050610e30565b610c60838861194c90919063ffffffff16565b15610cc957600281600001906004811115610c7e57610c7d614066565b5b90816004811115610c9257610c91614066565b5b81525050610ca9838861092490919063ffffffff16565b50610cb387611979565b816040019060ff16908160ff1681525050610e2f565b610cdc828861194c90919063ffffffff16565b15610de257600481600001906004811115610cfa57610cf9614066565b5b90816004811115610d0e57610d0d614066565b5b81525050610d1a612c57565b5b6000610d268961093e565b1115610ddc5760198260a0015160ff161115610d6e576040517f88b27b5f00000000000000000000000000000000000000000000000000000000815260040160405180910390fd5b610d81838961092490919063ffffffff16565b9050610d8c81611979565b8260c001518360a0015160ff16601a8110610daa57610da9614095565b5b602002019060ff16908160ff16815250508160a0018051809190610dcd90613f4b565b60ff1660ff1681525050610d1b565b50610e2e565b600181600001906004811115610dfb57610dfa614066565b5b90816004811115610e0f57610e0e614066565b5b81525050610e1c87611979565b816020019060ff16908160ff16815250505b5b5b5b8095505050505050919050565b610e46612c0a565b610e8d82608001516040518060400160405280600b81526020017f646179206f66207765656b00000000000000000000000000000000000000000081525060006006611a2a565b610ed482606001516040518060400160405280600581526020017f6d6f6e74680000000000000000000000000000000000000000000000000000008152506001600c611a2a565b6000610ee38360600151611e88565b9050610f2b83604001516040518060400160405280600381526020017f6461790000000000000000000000000000000000000000000000000000000000815250600184611a2a565b610f7283602001516040518060400160405280600481526020017f686f75720000000000000000000000000000000000000000000000000000000081525060006017611a2a565b610fb983600001516040518060400160405280600681526020017f6d696e75746500000000000000000000000000000000000000000000000000008152506000603b611a2a565b82915050919050565b600080600090506000806301e1338085610fdc9190613a2b565b6107b261ffff16610fed919061399e565b9150610ffe6107b261ffff16612091565b61100b8361ffff16612091565b6110159190613d2a565b9050806301e285006110279190613bcd565b83611032919061399e565b9250806107b2836110439190613cf6565b61ffff166110519190613d2a565b6301e133806110609190613bcd565b8361106b919061399e565b92505b848311156110ce5761108b6001836110869190613cf6565b6120e5565b156110a7576301e28500836110a09190613d2a565b92506110ba565b6301e13380836110b79190613d2a565b92505b6001826110c79190613cf6565b915061106e565b819350505050919050565b60006110e482612154565b602001519050919050565b60006110fa82612154565b604001519050919050565b60006018603c80846111179190613a2b565b6111219190613a2b565b61112b9190613fa6565b9050919050565b6000603c80836111429190613a2b565b61114c9190613fa6565b9050919050565b600080600481111561116857611167614066565b5b8360000151600481111561117f5761117e614066565b5b141561118e5760019050611341565b600260048111156111a2576111a1614066565b5b836000015160048111156111b9576111b8614066565b5b14156111dc5760008360400151836111d19190613fd7565b60ff16149050611341565b600160048111156111f0576111ef614066565b5b8360000151600481111561120757611206614066565b5b141561122157826020015160ff168260ff16149050611341565b6003600481111561123557611234614066565b5b8360000151600481111561124c5761124b614066565b5b141561127d57826060015160ff168260ff16101580156112765750826080015160ff168260ff1611155b9050611341565b6004808111156112905761128f614066565b5b836000015160048111156112a7576112a6614066565b5b141561130f5760005b8360a0015160ff16811015611305578360c0015181601a81106112d6576112d5614095565b5b602002015160ff168360ff1614156112f2576001915050611341565b80806112fd90613f02565b9150506112b0565b5060009050611341565b6040517f7d8d432900000000000000000000000000000000000000000000000000000000815260040160405180910390fd5b92915050565b600060018360ff16148061135e575060038360ff16145b8061136c575060058360ff16145b8061137a575060078360ff16145b80611388575060088360ff16145b806113965750600a8360ff16145b806113a45750600c8360ff16145b156113b257601f905061140d565b60048360ff1614806113c7575060068360ff16145b806113d5575060098360ff16145b806113e35750600b8360ff16145b156113f157601e905061140d565b6113fa826120e5565b1561140857601d905061140d565b601c90505b92915050565b60006114258484846000806000612365565b90509392505050565b60006007600462015180846114439190613a2b565b61144d919061399e565b6114579190613fa6565b9050919050565b600061146f86868686866000612365565b905095945050505050565b6060600060048111156114905761148f614066565b5b826000015160048111156114a7576114a6614066565b5b14156114ea576040518060400160405280600181526020017f2a00000000000000000000000000000000000000000000000000000000000000815250905061171c565b600160048111156114fe576114fd614066565b5b8260000151600481111561151557611514614066565b5b14156115325761152b826020015160ff166126d0565b905061171c565b6003600481111561154657611545614066565b5b8260000151600481111561155d5761155c614066565b5b14156115aa57611573826060015160ff166126d0565b611583836080015160ff166126d0565b6040516020016115949291906135ea565b604051602081830303815290604052905061171c565b600260048111156115be576115bd614066565b5b826000015160048111156115d5576115d4614066565b5b1415611611576115eb826040015160ff166126d0565b6040516020016115fb919061366e565b604051602081830303815290604052905061171c565b60048081111561162457611623614066565b5b8260000151600481111561163b5761163a614066565b5b14156116ea57600061166b8360c001516000601a811061165e5761165d614095565b5b602002015160ff166126d0565b90506000600190505b8360a0015160ff168110156116e057816116ab8560c0015183601a811061169e5761169d614095565b5b602002015160ff166126d0565b6040516020016116bc929190613530565b604051602081830303815290604052915080806116d890613f02565b915050611674565b508091505061171c565b6040517f7d8d432900000000000000000000000000000000000000000000000000000000815260040160405180910390fd5b919050565b600080849050600086851161185257602085116117f45760008086111561177a5760018660206117519190613d2a565b600861175d9190613bcd565b60026117699190613aaf565b6117739190613d2a565b1960001b90505b60008186511690506000878a8a611791919061399e565b61179b9190613d2a565b905060008386511690505b8281146117e6578186106117cd578a8a6117c0919061399e565b9650505050505050611863565b85806117d890613f02565b9650508386511690506117a6565b859650505050505050611863565b60008585209050600091505b858861180c9190613d2a565b821161185057600086842090508082141561182d5783945050505050611863565b60018461183a919061399e565b935050818061184890613f02565b925050611800565b505b868661185e919061399e565b925050505b949350505050565b611873612c57565b60006118918560000151866020015186600001518760200151611721565b905084602001518360200181815250508460200151816118b19190613d2a565b836000018181525050846000015185602001516118ce919061399e565b8114156118e557600085600001818152505061192b565b836000015183600001516118f9919061399e565b8560000181815161190a9190613d2a565b91508181525050836000015181611921919061399e565b8560200181815250505b829150509392505050565b6000806119438484612859565b14905092915050565b6000826020015161196f8460000151856020015185600001518660200151612993565b1415905092915050565b60008061198583612acc565b905060008060009050600091505b82518260ff161015611a1f576000838360ff16815181106119b7576119b6614095565b5b602001015160f81c60f81b60f81c905060308160ff16101580156119df575060398160ff1611155b15611a0b576030816119f19190613d5e565b600a836119fe9190613c27565b611a0891906139f4565b91505b508180611a1790613f4b565b925050611993565b809350505050919050565b60006004811115611a3e57611a3d614066565b5b84600001516004811115611a5557611a54614066565b5b1415611a6057611e82565b60016004811115611a7457611a73614066565b5b84600001516004811115611a8b57611a8a614066565b5b1415611b37578160ff16846020015160ff161080611ab257508060ff16846020015160ff16115b15611b32576000611ac58360ff166126d0565b611ad18360ff166126d0565b604051602001611ae29291906136d6565b604051602081830303815290604052905083816040517f20689754000000000000000000000000000000000000000000000000000000008152600401611b2992919061379e565b60405180910390fd5b611e81565b60026004811115611b4b57611b4a614066565b5b84600001516004811115611b6257611b61614066565b5b1415611c0a576001846040015160ff161080611b8757508060ff16846040015160ff16115b15611c05576000611b9860016126d0565b611ba48360ff166126d0565b604051602001611bb592919061361d565b604051602081830303815290604052905083816040517f20689754000000000000000000000000000000000000000000000000000000008152600401611bfc92919061379e565b60405180910390fd5b611e80565b60036004811115611c1e57611c1d614066565b5b84600001516004811115611c3557611c34614066565b5b1415611ce6578060ff16846080015160ff161180611c615750836060015160ff16846080015160ff1611155b15611ce1576000611c748360ff166126d0565b611c808360ff166126d0565b604051602001611c91929190613718565b604051602081830303815290604052905083816040517f20689754000000000000000000000000000000000000000000000000000000008152600401611cd892919061379e565b60405180910390fd5b611e7f565b600480811115611cf957611cf8614066565b5b84600001516004811115611d1057611d0f614066565b5b1415611e4c5760028460a0015160ff161015611d6357826040517f20689754000000000000000000000000000000000000000000000000000000008152600401611d5a91906137d5565b60405180910390fd5b6000611d718360ff166126d0565b611d7d8360ff166126d0565b604051602001611d8e929190613694565b6040516020818303038152906040529050600080600090505b8660a0015160ff16811015611e44578660c0015181601a8110611dcd57611dcc614095565b5b602002015191508460ff168260ff161080611ded57508360ff168260ff16115b15611e315785836040517f20689754000000000000000000000000000000000000000000000000000000008152600401611e2892919061379e565b60405180910390fd5b8080611e3c90613f02565b915050611da7565b505050611e7e565b6040517f7d8d432900000000000000000000000000000000000000000000000000000000815260040160405180910390fd5b5b5b5b5b50505050565b6000806004811115611e9d57611e9c614066565b5b82600001516004811115611eb457611eb3614066565b5b1480611ee8575060036004811115611ecf57611ece614066565b5b82600001516004811115611ee657611ee5614066565b5b145b15611ef657601f905061208c565b60016004811115611f0a57611f09614066565b5b82600001516004811115611f2157611f20614066565b5b1415611f3d57611f3682602001516004611347565b905061208c565b60026004811115611f5157611f50614066565b5b82600001516004811115611f6857611f67614066565b5b1415611fa2576009826040015160ff161480611f8b5750600b826040015160ff16145b15611f9957601e905061208c565b601f905061208c565b600480811115611fb557611fb4614066565b5b82600001516004811115611fcc57611fcb614066565b5b141561205a57600080600090505b8360a0015160ff168110156120505760006120118560c0015183601a811061200557612004614095565b5b60200201516004611347565b9050601f8160ff16141561202a5780935050505061208c565b8260ff168160ff16111561203c578092505b50808061204890613f02565b915050611fda565b508091505061208c565b6040517f7d8d432900000000000000000000000000000000000000000000000000000000815260040160405180910390fd5b919050565b60006001826120a09190613d2a565b9150610190826120b09190613a2b565b6064836120bd9190613a2b565b6004846120ca9190613a2b565b6120d49190613d2a565b6120de919061399e565b9050919050565b6000806004836120f59190613f75565b61ffff1614612107576000905061214f565b60006064836121169190613f75565b61ffff1614612128576001905061214f565b6000610190836121389190613f75565b61ffff161461214a576000905061214f565b600190505b919050565b61215c612cd5565b6000808061216985610fc2565b846000019061ffff16908161ffff168152505061218b6107b261ffff16612091565b61219c856000015161ffff16612091565b6121a69190613d2a565b9150816301e285006121b89190613bcd565b836121c3919061399e565b9250816107b285600001516121d89190613cf6565b61ffff166121e69190613d2a565b6301e133806121f59190613bcd565b83612200919061399e565b92506000600191505b600c8260ff161161228057612222828660000151611347565b60ff16620151806122339190613bcd565b9050858482612242919061399e565b111561225f5781856020019060ff16908160ff1681525050612280565b808461226b919061399e565b9350818061227890613f4b565b925050612209565b600191505b61229785602001518660000151611347565b60ff168260ff16116122f4578584620151806122b3919061399e565b11156122d05781856040019060ff16908160ff16815250506122f4565b62015180846122df919061399e565b935081806122ec90613f4b565b925050612285565b6122fd86611105565b856060019060ff16908160ff168152505061231786611132565b856080019060ff16908160ff168152505061233186612b48565b8560a0019060ff16908160ff168152505061234b8661142e565b8560c0019060ff16908160ff168152505050505050919050565b6000806107b290505b8761ffff168161ffff1610156123c957612387816120e5565b156123a3576301e285008261239c919061399e565b91506123b6565b6301e13380826123b3919061399e565b91505b80806123c190613ed7565b91505061236e565b6123d1612d28565b601f816000600c81106123e7576123e6614095565b5b602002019060ff16908160ff1681525050612401896120e5565b1561243257601d816001600c811061241c5761241b614095565b5b602002019060ff16908160ff168152505061245a565b601c816001600c811061244857612447614095565b5b602002019060ff16908160ff16815250505b601f816002600c81106124705761246f614095565b5b602002019060ff16908160ff1681525050601e816003600c811061249757612496614095565b5b602002019060ff16908160ff1681525050601f816004600c81106124be576124bd614095565b5b602002019060ff16908160ff1681525050601e816005600c81106124e5576124e4614095565b5b602002019060ff16908160ff1681525050601f816006600c811061250c5761250b614095565b5b602002019060ff16908160ff1681525050601f816007600c811061253357612532614095565b5b602002019060ff16908160ff1681525050601e816008600c811061255a57612559614095565b5b602002019060ff16908160ff1681525050601f816009600c811061258157612580614095565b5b602002019060ff16908160ff1681525050601e81600a600c81106125a8576125a7614095565b5b602002019060ff16908160ff1681525050601f81600b600c81106125cf576125ce614095565b5b602002019060ff16908160ff1681525050600191505b8760ff168261ffff16101561264d57806001836126029190613cf6565b61ffff16600c811061261757612616614095565b5b602002015160ff166201518061262d9190613bcd565b83612638919061399e565b9250818061264590613ed7565b9250506125e5565b60018761265a9190613d5e565b60ff166201518061266b9190613bcd565b83612676919061399e565b92508560ff16610e106126899190613bcd565b83612694919061399e565b92508460ff16603c6126a69190613bcd565b836126b1919061399e565b92508360ff16836126c2919061399e565b925050509695505050505050565b60606000821415612718576040518060400160405280600181526020017f30000000000000000000000000000000000000000000000000000000000000008152509050612854565b600082905060005b6000821461274a57808061273390613f02565b915050600a826127439190613a2b565b9150612720565b60008167ffffffffffffffff811115612766576127656140c4565b5b6040519080825280601f01601f1916602001820160405280156127985781602001600182028036833780820191505090505b50905060008290505b6000861461284c576001816127b69190613d2a565b90506000600a80886127c89190613a2b565b6127d29190613bcd565b876127dd9190613d2a565b60306127e991906139f4565b905060008160f81b90508084848151811061280757612806614095565b5b60200101907effffffffffffffffffffffffffffffffffffffffffffffffffffffffffffff1916908160001a905350600a886128439190613a2b565b975050506127a1565b819450505050505b919050565b6000808360000151905083600001518360000151101561287b57826000015190505b60008460200151905060008460200151905060005b8381101561297257600080845191508351905080821461293e5760007fffffffffffffffffffffffffffffffffffffffffffffffffffffffffffffffff90506020871015612918576001848860206128e89190613d2a565b6128f2919061399e565b60086128fe9190613bcd565b600261290a9190613aaf565b6129149190613d2a565b1990505b60008183168285160390506000811461293b57809850505050505050505061298d565b50505b60208561294b919061399e565b945060208461295a919061399e565b9350505060208161296b919061399e565b9050612890565b50846000015186600001516129879190613c62565b93505050505b92915050565b600080858411612abf5760208411612a5b576000808511156129e75760018560206129be9190613d2a565b60086129ca9190613bcd565b60026129d69190613aaf565b6129e09190613d2a565b1960001b90505b60008185511690508588886129fc919061399e565b612a069190613d2a565b925060008284511690505b818114612a4457878411612a2b5787945050505050612ac4565b8380612a3690613e52565b945050828451169050612a11565b8684612a50919061399e565b945050505050612ac4565b600084842090508487612a6e9190613d2a565b86612a79919061399e565b91505b858210612abd576000858320905080821415612aa8578583612a9e919061399e565b9350505050612ac4565b600183612ab59190613d2a565b925050612a7c565b505b849150505b949350505050565b60606000826000015167ffffffffffffffff811115612aee57612aed6140c4565b5b6040519080825280601f01601f191660200182016040528015612b205781602001600182028036833780820191505090505b5090506000602082019050612b3e8185602001518660000151612b5e565b8192505050919050565b6000603c82612b579190613fa6565b9050919050565b5b60208110612b9d5781518352602083612b78919061399e565b9250602082612b87919061399e565b9150602081612b969190613d2a565b9050612b5f565b60007fffffffffffffffffffffffffffffffffffffffffffffffffffffffffffffffff90506000821115612bf4576001826020612bda9190613d2a565b610100612be79190613aaf565b612bf19190613d2a565b90505b8019835116818551168181178652505050505050565b6040518060a00160405280612c1d612c71565b8152602001612c2a612c71565b8152602001612c37612c71565b8152602001612c44612c71565b8152602001612c51612c71565b81525090565b604051806040016040528060008152602001600081525090565b6040518060e0016040528060006004811115612c9057612c8f614066565b5b8152602001600060ff168152602001600060ff168152602001600060ff168152602001600060ff168152602001600060ff168152602001612ccf612d4b565b81525090565b6040518060e00160405280600061ffff168152602001600060ff168152602001600060ff168152602001600060ff168152602001600060ff168152602001600060ff168152602001600060ff1681525090565b604051806101800160405280600c90602082028036833780820191505090505090565b604051806103400160405280601a90602082028036833780820191505090505090565b6000612d81612d7c846138a6565b613881565b90508082856020860282011115612d9b57612d9a6140fd565b5b60005b85811015612dcb5781612db1888261303b565b845260208401935060208301925050600181019050612d9e565b5050509392505050565b6000612de8612de3846138cc565b613881565b905082815260208101848484011115612e0457612e03614102565b5b612e0f848285613de6565b509392505050565b6000612e2a612e25846138fd565b613881565b905082815260208101848484011115612e4657612e45614102565b5b612e51848285613de6565b509392505050565b600082601f830112612e6e57612e6d6140f3565b5b601a612e7b848285612d6e565b91505092915050565b600082601f830112612e9957612e986140f3565b5b8135612ea9848260208601612dd5565b91505092915050565b600081519050612ec1816141be565b92915050565b600082601f830112612edc57612edb6140f3565b5b8135612eec848260208601612e17565b91505092915050565b60006104008284031215612f0c57612f0b6140f8565b5b612f1660e0613881565b90506000612f2684828501612eb2565b6000830152506020612f3a8482850161303b565b6020830152506040612f4e8482850161303b565b6040830152506060612f628482850161303b565b6060830152506080612f768482850161303b565b60808301525060a0612f8a8482850161303b565b60a08301525060c0612f9e84828501612e59565b60c08301525092915050565b60006114008284031215612fc157612fc06140f8565b5b612fcb60a0613881565b90506000612fdb84828501612ef5565b600083015250610400612ff084828501612ef5565b60208301525061080061300584828501612ef5565b604083015250610c0061301a84828501612ef5565b60608301525061100061302f84828501612ef5565b60808301525092915050565b60008151905061304a816141ce565b92915050565b6000602082840312156130665761306561410c565b5b600082013567ffffffffffffffff81111561308457613083614107565b5b61309084828501612e84565b91505092915050565b6000602082840312156130af576130ae61410c565b5b600082013567ffffffffffffffff8111156130cd576130cc614107565b5b6130d984828501612ec7565b91505092915050565b600061140082840312156130f9576130f861410c565b5b600061310784828501612faa565b91505092915050565b600061311c8383613521565b60208301905092915050565b61313181613938565b61313b8184613966565b92506131468261392e565b8060005b8381101561317757815161315e8782613110565b965061316983613959565b92505060018101905061314a565b505050505050565b600061318a82613943565b6131948185613971565b93506131a4818560208601613df5565b6131ad81614111565b840191505092915050565b60006131c382613943565b6131cd8185613982565b93506131dd818560208601613df5565b80840191505092915050565b6131f281613dd4565b82525050565b60006132038261394e565b61320d818561398d565b935061321d818560208601613df5565b61322681614111565b840191505092915050565b7f696e76657276616c206d757374206265202a2f28000000000000000000000000815250565b600061326460118361398d565b915061326f8261412f565b602082019050919050565b7f2a2f000000000000000000000000000000000000000000000000000000000000815250565b7f2c00000000000000000000000000000000000000000000000000000000000000815250565b7f2900000000000000000000000000000000000000000000000000000000000000815250565b7f20616e64203c3d00000000000000000000000000000000000000000000000000815250565b7f2000000000000000000000000000000000000000000000000000000000000000815250565b7f6974656d7320696e206c697374206d7573742062652077697468696e20000000815250565b7f2d00000000000000000000000000000000000000000000000000000000000000815250565b7f76616c7565206d757374206265203e3d2c000000000000000000000000000000815250565b60006133b760138361398d565b91506133c282614158565b602082019050919050565b7f696e76657276616c206d7573742062652077697468696e200000000000000000815250565b600061340060208361398d565b915061340b82614181565b602082019050919050565b6104008201600082015161342d60008501826131e9565b5060208201516134406020850182613521565b5060408201516134536040850182613521565b5060608201516134666060850182613521565b5060808201516134796080850182613521565b5060a082015161348c60a0850182613521565b5060c082015161349f60c0850182613128565b50505050565b611400820160008201516134bc6000850182613416565b5060208201516134d0610400850182613416565b5060408201516134e4610800850182613416565b5060608201516134f8610c00850182613416565b50608082015161350c611000850182613416565b50505050565b61351b81613dbd565b82525050565b61352a81613dc7565b82525050565b600061353c82856131b8565b9150613547826132a0565b60018201915061355782846131b8565b91508190509392505050565b600061356f82886131b8565b915061357a82613312565b60018201915061358a82876131b8565b915061359582613312565b6001820191506135a582866131b8565b91506135b082613312565b6001820191506135c082856131b8565b91506135cb82613312565b6001820191506135db82846131b8565b91508190509695505050505050565b60006135f682856131b8565b91506136018261335e565b60018201915061361182846131b8565b91508190509392505050565b600061362882613231565b60148201915061363882856131b8565b91506136438261335e565b60018201915061365382846131b8565b915061365e826132c6565b6001820191508190509392505050565b60006136798261327a565b60028201915061368982846131b8565b915081905092915050565b600061369f82613338565b601d820191506136af82856131b8565b91506136ba8261335e565b6001820191506136ca82846131b8565b91508190509392505050565b60006136e182613384565b6011820191506136f182856131b8565b91506136fc826132ec565b60078201915061370c82846131b8565b91508190509392505050565b6000613723826133cd565b60188201915061373382856131b8565b915061373e8261335e565b60018201915061374e82846131b8565b91508190509392505050565b60006020820190508181036000830152613774818461317f565b905092915050565b6000602082019050818103600083015261379681846131f8565b905092915050565b600060408201905081810360008301526137b881856131f8565b905081810360208301526137cc81846131f8565b90509392505050565b600060408201905081810360008301526137ef81846131f8565b90508181036020830152613802816133f3565b905092915050565b6000602082019050818103600083015261382381613257565b9050919050565b60006020820190508181036000830152613843816133aa565b9050919050565b60006114008201905061386060008301846134a5565b92915050565b600060208201905061387b6000830184613512565b92915050565b600061388b61389c565b90506138978282613ea6565b919050565b6000604051905090565b600067ffffffffffffffff8211156138c1576138c06140c4565b5b602082029050919050565b600067ffffffffffffffff8211156138e7576138e66140c4565b5b6138f082614111565b9050602081019050919050565b600067ffffffffffffffff821115613918576139176140c4565b5b61392182614111565b9050602081019050919050565b6000819050919050565b6000601a9050919050565b600081519050919050565b600081519050919050565b6000602082019050919050565b600081905092915050565b600082825260208201905092915050565b600081905092915050565b600082825260208201905092915050565b60006139a982613dbd565b91506139b483613dbd565b9250827fffffffffffffffffffffffffffffffffffffffffffffffffffffffffffffffff038211156139e9576139e8614008565b5b828201905092915050565b60006139ff82613dc7565b9150613a0a83613dc7565b92508260ff03821115613a2057613a1f614008565b5b828201905092915050565b6000613a3682613dbd565b9150613a4183613dbd565b925082613a5157613a50614037565b5b828204905092915050565b6000808291508390505b6001851115613aa657808604811115613a8257613a81614008565b5b6001851615613a915780820291505b8081029050613a9f85614122565b9450613a66565b94509492505050565b6000613aba82613dbd565b9150613ac583613dbd565b9250613af27fffffffffffffffffffffffffffffffffffffffffffffffffffffffffffffffff8484613afa565b905092915050565b600082613b0a5760019050613bc6565b81613b185760009050613bc6565b8160018114613b2e5760028114613b3857613b67565b6001915050613bc6565b60ff841115613b4a57613b49614008565b5b8360020a915084821115613b6157613b60614008565b5b50613bc6565b5060208310610133831016604e8410600b8410161715613b9c5782820a905083811115613b9757613b96614008565b5b613bc6565b613ba98484846001613a5c565b92509050818404811115613bc057613bbf614008565b5b81810290505b9392505050565b6000613bd882613dbd565b9150613be383613dbd565b9250817fffffffffffffffffffffffffffffffffffffffffffffffffffffffffffffffff0483118215151615613c1c57613c1b614008565b5b828202905092915050565b6000613c3282613dc7565b9150613c3d83613dc7565b92508160ff0483118215151615613c5757613c56614008565b5b828202905092915050565b6000613c6d82613da5565b9150613c7883613da5565b9250827f800000000000000000000000000000000000000000000000000000000000000001821260008412151615613cb357613cb2614008565b5b827f7fffffffffffffffffffffffffffffffffffffffffffffffffffffffffffffff018213600084121615613ceb57613cea614008565b5b828203905092915050565b6000613d0182613daf565b9150613d0c83613daf565b925082821015613d1f57613d1e614008565b5b828203905092915050565b6000613d3582613dbd565b9150613d4083613dbd565b925082821015613d5357613d52614008565b5b828203905092915050565b6000613d6982613dc7565b9150613d7483613dc7565b925082821015613d8757613d86614008565b5b828203905092915050565b6000819050613da0826141aa565b919050565b6000819050919050565b600061ffff82169050919050565b6000819050919050565b600060ff82169050919050565b6000613ddf82613d92565b9050919050565b82818337600083830152505050565b60005b83811015613e13578082015181840152602081019050613df8565b83811115613e22576000848401525b50505050565b6000613e3382613daf565b91506000821415613e4757613e46614008565b5b600182039050919050565b6000613e5d82613dbd565b91506000821415613e7157613e70614008565b5b600182039050919050565b6000613e8782613dc7565b91506000821415613e9b57613e9a614008565b5b600182039050919050565b613eaf82614111565b810181811067ffffffffffffffff82111715613ece57613ecd6140c4565b5b80604052505050565b6000613ee282613daf565b915061ffff821415613ef757613ef6614008565b5b600182019050919050565b6000613f0d82613dbd565b91507fffffffffffffffffffffffffffffffffffffffffffffffffffffffffffffffff821415613f4057613f3f614008565b5b600182019050919050565b6000613f5682613dc7565b915060ff821415613f6a57613f69614008565b5b600182019050919050565b6000613f8082613daf565b9150613f8b83613daf565b925082613f9b57613f9a614037565b5b828206905092915050565b6000613fb182613dbd565b9150613fbc83613dbd565b925082613fcc57613fcb614037565b5b828206905092915050565b6000613fe282613dc7565b9150613fed83613dc7565b925082613ffd57613ffc614037565b5b828206905092915050565b7f4e487b7100000000000000000000000000000000000000000000000000000000600052601160045260246000fd5b7f4e487b7100000000000000000000000000000000000000000000000000000000600052601260045260246000fd5b7f4e487b7100000000000000000000000000000000000000000000000000000000600052602160045260246000fd5b7f4e487b7100000000000000000000000000000000000000000000000000000000600052603260045260246000fd5b7f4e487b7100000000000000000000000000000000000000000000000000000000600052604160045260246000fd5b600080fd5b600080fd5b600080fd5b600080fd5b600080fd5b600080fd5b6000601f19601f8301169050919050565b60008160011c9050919050565b7f3420737061636573207265717569726564000000000000000000000000000000600082015250565b7f736f6d65206669656c6473206d697373696e6700000000000000000000000000600082015250565b7f6c69737473206d7573742068617665206174206c656173742032206974656d73600082015250565b600581106141bb576141ba614066565b5b50565b600581106141cb57600080fd5b50565b6141d781613dc7565b81146141e257600080fd5b5056fea2646970667358221220f7a897d3e1233f08165543149f696932b1b5ec582b6e3e41793bbf5d92694f4d64736f6c63430008060033",
  "linkReferences": {},
  "deployedLinkReferences": {}
}