{
  "_format": "hh-sol-artifact-1",
  "contractName": "CronUpkeepFactory",
  "sourceName": "contracts/chainlink/v0.8/factories/CronUpkeepFactory.sol",
  "abi": [
    {
      "inputs": [],
      "stateMutability": "nonpayable",
      "type": "constructor"
    },
    {
      "anonymous": false,
      "inputs": [
        {
          "indexed": false,
          "internalType": "address",
          "name": "upkeep",
          "type": "address"
        },
        {
          "indexed": false,
          "internalType": "address",
          "name": "owner",
          "type": "address"
        }
      ],
      "name": "NewCronUpkeepCreated",
      "type": "event"
    },
    {
      "inputs": [],
      "name": "cronDelegateAddress",
      "outputs": [
        {
          "internalType": "address",
          "name": "",
          "type": "address"
        }
      ],
      "stateMutability": "view",
      "type": "function"
    },
    {
      "inputs": [],
      "name": "newCronUpkeep",
      "outputs": [],
      "stateMutability": "nonpayable",
      "type": "function"
    }
  ],
  "bytecode": "0x60a060405234801561001057600080fd5b5060405161001d90610075565b604051809103906000f080158015610039573d6000803e3d6000fd5b5073ffffffffffffffffffffffffffffffffffffffff1660808173ffffffffffffffffffffffffffffffffffffffff1660601b81525050610082565b611dd4806150c783390190565b60805160601c6150226100a5600039600081816087015260f701526150226000f3fe608060405234801561001057600080fd5b50600436106100365760003560e01c806398092b711461003b578063a1ef9e7b14610045575b600080fd5b610043610063565b005b61004d6100f3565b60405161005a9190610137565b60405180910390f35b7f959d571686b1c9343b61bdc3c0459760cb9695fcd4c4c64845e3b2cdd6865ced337f00000000000000000000000000000000000000000000000000000000000000006040516100b29061011b565b6100bd929190610152565b604051809103906000f0801580156100d9573d6000803e3d6000fd5b50336040516100e9929190610152565b60405180910390a1565b60007f0000000000000000000000000000000000000000000000000000000000000000905090565b614e3f806101ae83390190565b6101318161017b565b82525050565b600060208201905061014c6000830184610128565b92915050565b60006040820190506101676000830185610128565b6101746020830184610128565b9392505050565b60006101868261018d565b9050919050565b600073ffffffffffffffffffffffffffffffffffffffff8216905091905056fe60a060405260016002553480156200001657600080fd5b5060405162004e3f38038062004e3f83398181016040528101906200003c9190620002dd565b818060008073ffffffffffffffffffffffffffffffffffffffff168273ffffffffffffffffffffffffffffffffffffffff161415620000b2576040517f08c379a0000000000000000000000000000000000000000000000000000000008152600401620000a99062000372565b60405180910390fd5b816000806101000a81548173ffffffffffffffffffffffffffffffffffffffff021916908373ffffffffffffffffffffffffffffffffffffffff160217905550600073ffffffffffffffffffffffffffffffffffffffff168173ffffffffffffffffffffffffffffffffffffffff1614620001395762000138816200019660201b60201c565b5b5050506000600160146101000a81548160ff0219169083151502179055508073ffffffffffffffffffffffffffffffffffffffff1660808173ffffffffffffffffffffffffffffffffffffffff1660601b8152505050506200046c565b3373ffffffffffffffffffffffffffffffffffffffff168173ffffffffffffffffffffffffffffffffffffffff16141562000208576040517f08c379a0000000000000000000000000000000000000000000000000000000008152600401620001ff9062000394565b60405180910390fd5b80600160006101000a81548173ffffffffffffffffffffffffffffffffffffffff021916908373ffffffffffffffffffffffffffffffffffffffff1602179055508073ffffffffffffffffffffffffffffffffffffffff1660008054906101000a900473ffffffffffffffffffffffffffffffffffffffff1673ffffffffffffffffffffffffffffffffffffffff167fed8889f560326eb138920d842192f0eb3dd22b4f139c87a2c57538e05bae127860405160405180910390a350565b600081519050620002d78162000452565b92915050565b60008060408385031215620002f757620002f6620003fb565b5b60006200030785828601620002c6565b92505060206200031a85828601620002c6565b9150509250929050565b600062000333601883620003b6565b9150620003408262000400565b602082019050919050565b60006200035a601783620003b6565b9150620003678262000429565b602082019050919050565b600060208201905081810360008301526200038d8162000324565b9050919050565b60006020820190508181036000830152620003af816200034b565b9050919050565b600082825260208201905092915050565b6000620003d482620003db565b9050919050565b600073ffffffffffffffffffffffffffffffffffffffff82169050919050565b600080fd5b7f43616e6e6f7420736574206f776e657220746f207a65726f0000000000000000600082015250565b7f43616e6e6f74207472616e7366657220746f2073656c66000000000000000000600082015250565b6200045d81620003c7565b81146200046957600080fd5b50565b60805160601c6149ad6200049260003960008181610e1301526115a501526149ad6000f3fe6080604052600436106100c65760003560e01c80637d67dfb31161007f5780638da5cb5b116100595780638da5cb5b1461025c578063cb647f1014610287578063ea87605b146102b2578063f2fde38b146102db576100d5565b80637d67dfb3146101df57806380fc37b31461021c5780638456cb5914610245576100d5565b80633f4ba83a146100df5780634585e33b146100f65780635077e92f1461011f5780635c975abb1461015f5780636e04ff0d1461018a57806379ba5097146101c8576100d5565b366100d5576100d3610304565b005b6100dd610304565b005b3480156100eb57600080fd5b506100f461031e565b005b34801561010257600080fd5b5061011d600480360381019061011891906138e2565b610330565b005b34801561012b57600080fd5b5061014660048036038101906101419190613a38565b6104b6565b6040516101569493929190613f7c565b60405180910390f35b34801561016b57600080fd5b50610174610da3565b6040516101819190613ff1565b60405180910390f35b34801561019657600080fd5b506101b160048036038101906101ac91906138e2565b610dba565b6040516101bf92919061400c565b60405180910390f35b3480156101d457600080fd5b506101dd610e3e565b005b3480156101eb57600080fd5b5061020660048036038101906102019190613978565b610fd3565b604051610213919061403c565b60405180910390f35b34801561022857600080fd5b50610243600480360381019061023e9190613857565b611068565b005b34801561025157600080fd5b5061025a611091565b005b34801561026857600080fd5b506102716110a3565b60405161027e9190613f31565b60405180910390f35b34801561029357600080fd5b5061029c6110cc565b6040516102a99190613fcf565b60405180910390f35b3480156102be57600080fd5b506102d960048036038101906102d49190613a38565b611183565b005b3480156102e757600080fd5b5061030260048036038101906102fd919061382a565b61158b565b005b61030c61159f565b61031c6103176115a1565b6115c9565b565b6103266115ef565b61032e61167f565b565b610338610da3565b15610378576040517f08c379a000000000000000000000000000000000000000000000000000000000815260040161036f906140e0565b60405180910390fd5b600080600080858581019061038d9190613a92565b93509350935093506103a184848484611721565b4260056000868152602001908152602001600020819055506000808373ffffffffffffffffffffffffffffffffffffffff16836040516103e19190613f1a565b6000604051808303816000865af19150503d806000811461041e576040519150601f19603f3d011682016040523d82523d6000602084013e610423565b606091505b509150915081610474578561043782611ed6565b6040517fd3de944600000000000000000000000000000000000000000000000000000000815260040161046b929190614157565b60405180910390fd5b857f30f05dfc7571f43926790e295bb282b76b7174d9121c31c2b26def175b63a759426040516104a4919061413c565b60405180910390a25050505050505050565b60006060806000846104d2816003611f4190919063ffffffff16565b61051357806040517f453d079a00000000000000000000000000000000000000000000000000000000815260040161050a919061413c565b60405180910390fd5b6000600660008881526020019081526020016000206040518060a0016040529081600082016040518060e00160405290816000820160009054906101000a900460ff166004811115610568576105676146fe565b5b600481111561057a576105796146fe565b5b81526020016000820160019054906101000a900460ff1660ff1660ff1681526020016000820160029054906101000a900460ff1660ff1660ff1681526020016000820160039054906101000a900460ff1660ff1660ff1681526020016000820160049054906101000a900460ff1660ff1660ff1681526020016000820160059054906101000a900460ff1660ff1660ff16815260200160018201601a806020026040519081016040528092919082601a8015610671576020028201916000905b82829054906101000a900460ff1660ff168152602001906001019060208260000104928301926001038202915080841161063a5790505b5050505050815250508152602001600282016040518060e00160405290816000820160009054906101000a900460ff1660048111156106b3576106b26146fe565b5b60048111156106c5576106c46146fe565b5b81526020016000820160019054906101000a900460ff1660ff1660ff1681526020016000820160029054906101000a900460ff1660ff1660ff1681526020016000820160039054906101000a900460ff1660ff1660ff1681526020016000820160049054906101000a900460ff1660ff1660ff1681526020016000820160059054906101000a900460ff1660ff1660ff16815260200160018201601a806020026040519081016040528092919082601a80156107bc576020028201916000905b82829054906101000a900460ff1660ff16815260200190600101906020826000010492830192600103820291508084116107855790505b5050505050815250508152602001600482016040518060e00160405290816000820160009054906101000a900460ff1660048111156107fe576107fd6146fe565b5b60048111156108105761080f6146fe565b5b81526020016000820160019054906101000a900460ff1660ff1660ff1681526020016000820160029054906101000a900460ff1660ff1660ff1681526020016000820160039054906101000a900460ff1660ff1660ff1681526020016000820160049054906101000a900460ff1660ff1660ff1681526020016000820160059054906101000a900460ff1660ff1660ff16815260200160018201601a806020026040519081016040528092919082601a8015610907576020028201916000905b82829054906101000a900460ff1660ff16815260200190600101906020826000010492830192600103820291508084116108d05790505b5050505050815250508152602001600682016040518060e00160405290816000820160009054906101000a900460ff166004811115610949576109486146fe565b5b600481111561095b5761095a6146fe565b5b81526020016000820160019054906101000a900460ff1660ff1660ff1681526020016000820160029054906101000a900460ff1660ff1660ff1681526020016000820160039054906101000a900460ff1660ff1660ff1681526020016000820160049054906101000a900460ff1660ff1660ff1681526020016000820160059054906101000a900460ff1660ff1660ff16815260200160018201601a806020026040519081016040528092919082601a8015610a52576020028201916000905b82829054906101000a900460ff1660ff1681526020019060010190602082600001049283019260010382029150808411610a1b5790505b5050505050815250508152602001600882016040518060e00160405290816000820160009054906101000a900460ff166004811115610a9457610a936146fe565b5b6004811115610aa657610aa56146fe565b5b81526020016000820160019054906101000a900460ff1660ff1660ff1681526020016000820160029054906101000a900460ff1660ff1660ff1681526020016000820160039054906101000a900460ff1660ff1660ff1681526020016000820160049054906101000a900460ff1660ff1660ff1681526020016000820160059054906101000a900460ff1660ff1660ff16815260200160018201601a806020026040519081016040528092919082601a8015610b9d576020028201916000905b82829054906101000a900460ff1660ff1681526020019060010190602082600001049283019260010382029150808411610b665790505b5050505050815250508152505090506007600088815260200190815260200160002060009054906101000a900473ffffffffffffffffffffffffffffffffffffffff166008600089815260200190815260200160002073__$e40eea5aa87277fbecb84887800c1cc45b$__63a1ab24f4846040518263ffffffff1660e01b8152600401610c2a9190614120565b60006040518083038186803b158015610c4257600080fd5b505af4158015610c56573d6000803e3d6000fd5b505050506040513d6000823e3d601f19601f82011682018060405250810190610c7f91906139c1565b73__$e40eea5aa87277fbecb84887800c1cc45b$__6334373a3b856040518263ffffffff1660e01b8152600401610cb69190614120565b60206040518083038186803b158015610cce57600080fd5b505af4158015610ce2573d6000803e3d6000fd5b505050506040513d601f19601f82011682018060405250810190610d069190613a65565b828054610d1290614513565b80601f0160208091040260200160405190810160405280929190818152602001828054610d3e90614513565b8015610d8b5780601f10610d6057610100808354040283529160200191610d8b565b820191906000526020600020905b815481529060010190602001808311610d6e57829003601f168201915b50505050509250955095509550955050509193509193565b6000600160149054906101000a900460ff16905090565b60006060610dc6610da3565b15610e06576040517f08c379a0000000000000000000000000000000000000000000000000000000008152600401610dfd906140e0565b60405180910390fd5b610e0e611f5b565b610e377f00000000000000000000000000000000000000000000000000000000000000006115c9565b9250929050565b600160009054906101000a900473ffffffffffffffffffffffffffffffffffffffff1673ffffffffffffffffffffffffffffffffffffffff163373ffffffffffffffffffffffffffffffffffffffff1614610ece576040517f08c379a0000000000000000000000000000000000000000000000000000000008152600401610ec5906140a0565b60405180910390fd5b60008060009054906101000a900473ffffffffffffffffffffffffffffffffffffffff169050336000806101000a81548173ffffffffffffffffffffffffffffffffffffffff021916908373ffffffffffffffffffffffffffffffffffffffff1602179055506000600160006101000a81548173ffffffffffffffffffffffffffffffffffffffff021916908373ffffffffffffffffffffffffffffffffffffffff1602179055503373ffffffffffffffffffffffffffffffffffffffff168173ffffffffffffffffffffffffffffffffffffffff167f8be0079c531659141344cd1fd0a4f28419497f9722a3daafe3b4186f6b6457e060405160405180910390a350565b606073__$e40eea5aa87277fbecb84887800c1cc45b$__63e04b9769836040518263ffffffff1660e01b815260040161100c919061405e565b60006040518083038186803b15801561102457600080fd5b505af4158015611038573d6000803e3d6000fd5b505050506040513d6000823e3d601f19601f82011682018060405250810190611061919061392f565b9050919050565b60008180602001905181019061107e9190613a0a565b905061108b848483611fc3565b50505050565b6110996115ef565b6110a16125e1565b565b60008060009054906101000a900473ffffffffffffffffffffffffffffffffffffffff16905090565b606060006110da6003612683565b905060008167ffffffffffffffff8111156110f8576110f76147ba565b5b6040519080825280602002602001820160405280156111265781602001602082028036833780820191505090505b50905060005b8281101561117a5761114881600361269890919063ffffffff16565b82828151811061115b5761115a61478b565b5b602002602001018181525050808061117290614576565b91505061112c565b50809250505090565b61118b6115ef565b806111a0816003611f4190919063ffffffff16565b6111e157806040517f453d079a0000000000000000000000000000000000000000000000000000000081526004016111d8919061413c565b60405180910390fd5b6005600083815260200190815260200160002060009055600660008381526020019081526020016000206000808201600080820160006101000a81549060ff02191690556000820160016101000a81549060ff02191690556000820160026101000a81549060ff02191690556000820160036101000a81549060ff02191690556000820160046101000a81549060ff02191690556000820160056101000a81549060ff021916905560018201600061129991906131e7565b505060028201600080820160006101000a81549060ff02191690556000820160016101000a81549060ff02191690556000820160026101000a81549060ff02191690556000820160036101000a81549060ff02191690556000820160046101000a81549060ff02191690556000820160056101000a81549060ff021916905560018201600061132891906131e7565b505060048201600080820160006101000a81549060ff02191690556000820160016101000a81549060ff02191690556000820160026101000a81549060ff02191690556000820160036101000a81549060ff02191690556000820160046101000a81549060ff02191690556000820160056101000a81549060ff02191690556001820160006113b791906131e7565b505060068201600080820160006101000a81549060ff02191690556000820160016101000a81549060ff02191690556000820160026101000a81549060ff02191690556000820160036101000a81549060ff02191690556000820160046101000a81549060ff02191690556000820160056101000a81549060ff021916905560018201600061144691906131e7565b505060088201600080820160006101000a81549060ff02191690556000820160016101000a81549060ff02191690556000820160026101000a81549060ff02191690556000820160036101000a81549060ff02191690556000820160046101000a81549060ff02191690556000820160056101000a81549060ff02191690556001820160006114d591906131e7565b505050506007600083815260200190815260200160002060006101000a81549073ffffffffffffffffffffffffffffffffffffffff021916905560086000838152602001908152602001600020600061152e91906131ee565b60096000838152602001908152602001600020600090556115598260036126b290919063ffffffff16565b50817f7aaa5a7c35e162386d922bd67e91ea476d38d9bb931bc369d8b15ab11325097460405160405180910390a25050565b6115936115ef565b61159c816126cc565b50565b565b60007f0000000000000000000000000000000000000000000000000000000000000000905090565b3660008037600080366000845af43d6000803e80600081146115ea573d6000f35b3d6000fd5b60008054906101000a900473ffffffffffffffffffffffffffffffffffffffff1673ffffffffffffffffffffffffffffffffffffffff163373ffffffffffffffffffffffffffffffffffffffff161461167d576040517f08c379a0000000000000000000000000000000000000000000000000000000008152600401611674906140c0565b60405180910390fd5b565b611687610da3565b6116c6576040517f08c379a00000000000000000000000000000000000000000000000000000000081526004016116bd90614080565b60405180910390fd5b6000600160146101000a81548160ff0219169083151502179055507f5db9ee0a495bf2e6ff9c91a7834c1ba4fdd244a5e8aa4e537bd38aeae4b073aa61170a6127f9565b6040516117179190613f31565b60405180910390a1565b8242101561175b576040517fa0ef619600000000000000000000000000000000000000000000000000000000815260040160405180910390fd5b600560008581526020019081526020016000205483116117a7576040517f753a4acf00000000000000000000000000000000000000000000000000000000815260040160405180910390fd5b611e45600660008681526020019081526020016000206040518060a0016040529081600082016040518060e00160405290816000820160009054906101000a900460ff1660048111156117fd576117fc6146fe565b5b600481111561180f5761180e6146fe565b5b81526020016000820160019054906101000a900460ff1660ff1660ff1681526020016000820160029054906101000a900460ff1660ff1660ff1681526020016000820160039054906101000a900460ff1660ff1660ff1681526020016000820160049054906101000a900460ff1660ff1660ff1681526020016000820160059054906101000a900460ff1660ff1660ff16815260200160018201601a806020026040519081016040528092919082601a8015611906576020028201916000905b82829054906101000a900460ff1660ff16815260200190600101906020826000010492830192600103820291508084116118cf5790505b5050505050815250508152602001600282016040518060e00160405290816000820160009054906101000a900460ff166004811115611948576119476146fe565b5b600481111561195a576119596146fe565b5b81526020016000820160019054906101000a900460ff1660ff1660ff1681526020016000820160029054906101000a900460ff1660ff1660ff1681526020016000820160039054906101000a900460ff1660ff1660ff1681526020016000820160049054906101000a900460ff1660ff1660ff1681526020016000820160059054906101000a900460ff1660ff1660ff16815260200160018201601a806020026040519081016040528092919082601a8015611a51576020028201916000905b82829054906101000a900460ff1660ff1681526020019060010190602082600001049283019260010382029150808411611a1a5790505b5050505050815250508152602001600482016040518060e00160405290816000820160009054906101000a900460ff166004811115611a9357611a926146fe565b5b6004811115611aa557611aa46146fe565b5b81526020016000820160019054906101000a900460ff1660ff1660ff1681526020016000820160029054906101000a900460ff1660ff1660ff1681526020016000820160039054906101000a900460ff1660ff1660ff1681526020016000820160049054906101000a900460ff1660ff1660ff1681526020016000820160059054906101000a900460ff1660ff1660ff16815260200160018201601a806020026040519081016040528092919082601a8015611b9c576020028201916000905b82829054906101000a900460ff1660ff1681526020019060010190602082600001049283019260010382029150808411611b655790505b5050505050815250508152602001600682016040518060e00160405290816000820160009054906101000a900460ff166004811115611bde57611bdd6146fe565b5b6004811115611bf057611bef6146fe565b5b81526020016000820160019054906101000a900460ff1660ff1660ff1681526020016000820160029054906101000a900460ff1660ff1660ff1681526020016000820160039054906101000a900460ff1660ff1660ff1681526020016000820160049054906101000a900460ff1660ff1660ff1681526020016000820160059054906101000a900460ff1660ff1660ff16815260200160018201601a806020026040519081016040528092919082601a8015611ce7576020028201916000905b82829054906101000a900460ff1660ff1681526020019060010190602082600001049283019260010382029150808411611cb05790505b5050505050815250508152602001600882016040518060e00160405290816000820160009054906101000a900460ff166004811115611d2957611d286146fe565b5b6004811115611d3b57611d3a6146fe565b5b81526020016000820160019054906101000a900460ff1660ff1660ff1681526020016000820160029054906101000a900460ff1660ff1660ff1681526020016000820160039054906101000a900460ff1660ff1660ff1681526020016000820160049054906101000a900460ff1660ff1660ff1681526020016000820160059054906101000a900460ff1660ff1660ff16815260200160018201601a806020026040519081016040528092919082601a8015611e32576020028201916000905b82829054906101000a900460ff1660ff1681526020019060010190602082600001049283019260010382029150808411611dfb5790505b5050505050815250508152505084612801565b611e7b576040517f1653b6bd00000000000000000000000000000000000000000000000000000000815260040160405180910390fd5b6009600085815260200190815260200160002054611e998383612878565b14611ed0576040517fd8f59fa500000000000000000000000000000000000000000000000000000000815260040160405180910390fd5b50505050565b6060604482511015611f1f576040518060400160405280601d81526020017f7472616e73616374696f6e2072657665727465642073696c656e746c790000008152509050611f3c565b60048201915081806020019051810190611f3991906139c1565b90505b919050565b6000611f53836000018360001b6128ab565b905092915050565b600073ffffffffffffffffffffffffffffffffffffffff163273ffffffffffffffffffffffffffffffffffffffff1614611fc1576040517fb60ac5db00000000000000000000000000000000000000000000000000000000815260040160405180910390fd5b565b611fcb6115ef565b60006002549050611fe68160036128ce90919063ffffffff16565b50836007600083815260200190815260200160002060006101000a81548173ffffffffffffffffffffffffffffffffffffffff021916908373ffffffffffffffffffffffffffffffffffffffff1602179055508260086000838152602001908152602001600020908051906020019061206092919061322e565b50816006600083815260200190815260200160002060008201518160000160008201518160000160006101000a81548160ff021916908360048111156120a9576120a86146fe565b5b021790555060208201518160000160016101000a81548160ff021916908360ff16021790555060408201518160000160026101000a81548160ff021916908360ff16021790555060608201518160000160036101000a81548160ff021916908360ff16021790555060808201518160000160046101000a81548160ff021916908360ff16021790555060a08201518160000160056101000a81548160ff021916908360ff16021790555060c08201518160010190601a61216a9291906132b4565b50505060208201518160020160008201518160000160006101000a81548160ff021916908360048111156121a1576121a06146fe565b5b021790555060208201518160000160016101000a81548160ff021916908360ff16021790555060408201518160000160026101000a81548160ff021916908360ff16021790555060608201518160000160036101000a81548160ff021916908360ff16021790555060808201518160000160046101000a81548160ff021916908360ff16021790555060a08201518160000160056101000a81548160ff021916908360ff16021790555060c08201518160010190601a6122629291906132b4565b50505060408201518160040160008201518160000160006101000a81548160ff02191690836004811115612299576122986146fe565b5b021790555060208201518160000160016101000a81548160ff021916908360ff16021790555060408201518160000160026101000a81548160ff021916908360ff16021790555060608201518160000160036101000a81548160ff021916908360ff16021790555060808201518160000160046101000a81548160ff021916908360ff16021790555060a08201518160000160056101000a81548160ff021916908360ff16021790555060c08201518160010190601a61235a9291906132b4565b50505060608201518160060160008201518160000160006101000a81548160ff02191690836004811115612391576123906146fe565b5b021790555060208201518160000160016101000a81548160ff021916908360ff16021790555060408201518160000160026101000a81548160ff021916908360ff16021790555060608201518160000160036101000a81548160ff021916908360ff16021790555060808201518160000160046101000a81548160ff021916908360ff16021790555060a08201518160000160056101000a81548160ff021916908360ff16021790555060c08201518160010190601a6124529291906132b4565b50505060808201518160080160008201518160000160006101000a81548160ff02191690836004811115612489576124886146fe565b5b021790555060208201518160000160016101000a81548160ff021916908360ff16021790555060408201518160000160026101000a81548160ff021916908360ff16021790555060608201518160000160036101000a81548160ff021916908360ff16021790555060808201518160000160046101000a81548160ff021916908360ff16021790555060a08201518160000160056101000a81548160ff021916908360ff16021790555060c08201518160010190601a61254a9291906132b4565b5050509050504260056000838152602001908152602001600020819055506125728484612878565b60096000838152602001908152602001600020819055506002600081548092919061259c90614576565b9190505550807fe66fb0bca0f9d6a395d3eaf5f39c6ac87dd34aff4e3f2f9a9b33a46f1558962785856040516125d3929190613f4c565b60405180910390a250505050565b6125e9610da3565b15612629576040517f08c379a0000000000000000000000000000000000000000000000000000000008152600401612620906140e0565b60405180910390fd5b60018060146101000a81548160ff0219169083151502179055507f62e78cea01bee320cd4e420270b5ea74000d11b0c9f74754ebdbfc544b05a25861266c6127f9565b6040516126799190613f31565b60405180910390a1565b6000612691826000016128e8565b9050919050565b60006126a783600001836128f9565b60001c905092915050565b60006126c4836000018360001b612924565b905092915050565b3373ffffffffffffffffffffffffffffffffffffffff168173ffffffffffffffffffffffffffffffffffffffff16141561273b576040517f08c379a000000000000000000000000000000000000000000000000000000000815260040161273290614100565b60405180910390fd5b80600160006101000a81548173ffffffffffffffffffffffffffffffffffffffff021916908373ffffffffffffffffffffffffffffffffffffffff1602179055508073ffffffffffffffffffffffffffffffffffffffff1660008054906101000a900473ffffffffffffffffffffffffffffffffffffffff1673ffffffffffffffffffffffffffffffffffffffff167fed8889f560326eb138920d842192f0eb3dd22b4f139c87a2c57538e05bae127860405160405180910390a350565b600033905090565b60008061280d83612a38565b905061282184606001518260200151612c49565b801561283b575061283a84604001518260400151612c49565b5b8015612855575061285484602001518260600151612c49565b5b801561286f575061286e84600001518260800151612c49565b5b91505092915050565b6000828260405160200161288d929190613ef2565b60405160208183030381529060405280519060200120905092915050565b600080836001016000848152602001908152602001600020541415905092915050565b60006128e0836000018360001b612e3d565b905092915050565b600081600001805490509050919050565b60008260000182815481106129115761291061478b565b5b9060005260206000200154905092915050565b60008083600101600084815260200190815260200160002054905060008114612a2c5760006001826129569190614403565b905060006001866000018054905061296e9190614403565b90508181146129dd57600086600001828154811061298f5761298e61478b565b5b90600052602060002001549050808760000184815481106129b3576129b261478b565b5b90600052602060002001819055508387600101600083815260200190815260200160002081905550505b856000018054806129f1576129f061475c565b5b600190038181906000526020600020016000905590558560010160008681526020019081526020016000206000905560019350505050612a32565b60009150505b92915050565b612a4061334e565b60008080612a4d85612ead565b846000019061ffff16908161ffff1681525050612a6f6107b261ffff16612fc4565b612a80856000015161ffff16612fc4565b612a8a9190614403565b9150816301e28500612a9c9190614375565b83612aa791906142ee565b9250816107b28560000151612abc91906143cf565b61ffff16612aca9190614403565b6301e13380612ad99190614375565b83612ae491906142ee565b92506000600191505b600c8260ff1611612b6457612b06828660000151613018565b60ff1662015180612b179190614375565b9050858482612b2691906142ee565b1115612b435781856020019060ff16908160ff1681525050612b64565b8084612b4f91906142ee565b93508180612b5c906145bf565b925050612aed565b600191505b612b7b85602001518660000151613018565b60ff168260ff1611612bd857858462015180612b9791906142ee565b1115612bb45781856040019060ff16908160ff1681525050612bd8565b6201518084612bc391906142ee565b93508180612bd0906145bf565b925050612b69565b612be1866130e4565b856060019060ff16908160ff1681525050612bfb86613111565b856080019060ff16908160ff1681525050612c1586613132565b8560a0019060ff16908160ff1681525050612c2f86613148565b8560c0019060ff16908160ff168152505050505050919050565b6000806004811115612c5e57612c5d6146fe565b5b83600001516004811115612c7557612c746146fe565b5b1415612c845760019050612e37565b60026004811115612c9857612c976146fe565b5b83600001516004811115612caf57612cae6146fe565b5b1415612cd2576000836040015183612cc7919061466f565b60ff16149050612e37565b60016004811115612ce657612ce56146fe565b5b83600001516004811115612cfd57612cfc6146fe565b5b1415612d1757826020015160ff168260ff16149050612e37565b60036004811115612d2b57612d2a6146fe565b5b83600001516004811115612d4257612d416146fe565b5b1415612d7357826060015160ff168260ff1610158015612d6c5750826080015160ff168260ff1611155b9050612e37565b600480811115612d8657612d856146fe565b5b83600001516004811115612d9d57612d9c6146fe565b5b1415612e055760005b8360a0015160ff16811015612dfb578360c0015181601a8110612dcc57612dcb61478b565b5b602002015160ff168360ff161415612de8576001915050612e37565b8080612df390614576565b915050612da6565b5060009050612e37565b6040517f7d8d432900000000000000000000000000000000000000000000000000000000815260040160405180910390fd5b92915050565b6000612e4983836128ab565b612ea2578260000182908060018154018082558091505060019003906000526020600020016000909190919091505582600001805490508360010160008481526020019081526020016000208190555060019050612ea7565b600090505b92915050565b600080600090506000806301e1338085612ec79190614344565b6107b261ffff16612ed891906142ee565b9150612ee96107b261ffff16612fc4565b612ef68361ffff16612fc4565b612f009190614403565b9050806301e28500612f129190614375565b83612f1d91906142ee565b9250806107b283612f2e91906143cf565b61ffff16612f3c9190614403565b6301e13380612f4b9190614375565b83612f5691906142ee565b92505b84831115612fb957612f76600183612f7191906143cf565b613178565b15612f92576301e2850083612f8b9190614403565b9250612fa5565b6301e1338083612fa29190614403565b92505b600182612fb291906143cf565b9150612f59565b819350505050919050565b6000600182612fd39190614403565b915061019082612fe39190614344565b606483612ff09190614344565b600484612ffd9190614344565b6130079190614403565b61301191906142ee565b9050919050565b600060018360ff16148061302f575060038360ff16145b8061303d575060058360ff16145b8061304b575060078360ff16145b80613059575060088360ff16145b806130675750600a8360ff16145b806130755750600c8360ff16145b1561308357601f90506130de565b60048360ff161480613098575060068360ff16145b806130a6575060098360ff16145b806130b45750600b8360ff16145b156130c257601e90506130de565b6130cb82613178565b156130d957601d90506130de565b601c90505b92915050565b60006018603c80846130f69190614344565b6131009190614344565b61310a919061463e565b9050919050565b6000603c80836131219190614344565b61312b919061463e565b9050919050565b6000603c82613141919061463e565b9050919050565b600060076004620151808461315d9190614344565b61316791906142ee565b613171919061463e565b9050919050565b600080600483613188919061460d565b61ffff161461319a57600090506131e2565b60006064836131a9919061460d565b61ffff16146131bb57600190506131e2565b6000610190836131cb919061460d565b61ffff16146131dd57600090506131e2565b600190505b919050565b5060009055565b5080546131fa90614513565b6000825580601f1061320c575061322b565b601f01602090049060005260206000209081019061322a91906133a1565b5b50565b82805461323a90614513565b90600052602060002090601f01602090048101928261325c57600085556132a3565b82601f1061327557805160ff19168380011785556132a3565b828001600101855582156132a3579182015b828111156132a2578251825591602001919060010190613287565b5b5090506132b091906133a1565b5090565b82601a601f0160209004810192821561333d5791602002820160005b8382111561330e57835183826101000a81548160ff021916908360ff16021790555092602001926001016020816000010492830192600103026132d0565b801561333b5782816101000a81549060ff021916905560010160208160000104928301926001030261330e565b505b50905061334a91906133a1565b5090565b6040518060e00160405280600061ffff168152602001600060ff168152602001600060ff168152602001600060ff168152602001600060ff168152602001600060ff168152602001600060ff1681525090565b5b808211156133ba5760008160009055506001016133a2565b5090565b60006133d16133cc846141ac565b614187565b905080828560208602820111156133eb576133ea6147f8565b5b60005b8581101561341b57816134018882613815565b8452602084019350602083019250506001810190506133ee565b5050509392505050565b6000613438613433846141d2565b614187565b905082815260208101848484011115613454576134536147fd565b5b61345f8482856144d1565b509392505050565b600061347a613475846141d2565b614187565b905082815260208101848484011115613496576134956147fd565b5b6134a18482856144e0565b509392505050565b60006134bc6134b784614203565b614187565b9050828152602081018484840111156134d8576134d76147fd565b5b6134e38482856144d1565b509392505050565b60006134fe6134f984614203565b614187565b90508281526020810184848401111561351a576135196147fd565b5b6135258482856144e0565b509392505050565b60008135905061353c8161490b565b92915050565b60008135905061355181614922565b92915050565b600082601f83011261356c5761356b6147ee565b5b601a6135798482856133be565b91505092915050565b60008083601f840112613598576135976147ee565b5b8235905067ffffffffffffffff8111156135b5576135b46147e9565b5b6020830191508360018202830111156135d1576135d06147f8565b5b9250929050565b600082601f8301126135ed576135ec6147ee565b5b81356135fd848260208601613425565b91505092915050565b600082601f83011261361b5761361a6147ee565b5b815161362b848260208601613467565b91505092915050565b60008151905061364381614939565b92915050565b600082601f83011261365e5761365d6147ee565b5b813561366e8482602086016134a9565b91505092915050565b600082601f83011261368c5761368b6147ee565b5b815161369c8482602086016134eb565b91505092915050565b600061040082840312156136bc576136bb6147f3565b5b6136c660e0614187565b905060006136d684828501613634565b60008301525060206136ea84828501613815565b60208301525060406136fe84828501613815565b604083015250606061371284828501613815565b606083015250608061372684828501613815565b60808301525060a061373a84828501613815565b60a08301525060c061374e84828501613557565b60c08301525092915050565b60006114008284031215613771576137706147f3565b5b61377b60a0614187565b9050600061378b848285016136a5565b6000830152506104006137a0848285016136a5565b6020830152506108006137b5848285016136a5565b604083015250610c006137ca848285016136a5565b6060830152506110006137df848285016136a5565b60808301525092915050565b6000813590506137fa81614949565b92915050565b60008151905061380f81614949565b92915050565b60008151905061382481614960565b92915050565b6000602082840312156138405761383f614807565b5b600061384e8482850161352d565b91505092915050565b6000806000606084860312156138705761386f614807565b5b600061387e8682870161352d565b935050602084013567ffffffffffffffff81111561389f5761389e614802565b5b6138ab868287016135d8565b925050604084013567ffffffffffffffff8111156138cc576138cb614802565b5b6138d8868287016135d8565b9150509250925092565b600080602083850312156138f9576138f8614807565b5b600083013567ffffffffffffffff81111561391757613916614802565b5b61392385828601613582565b92509250509250929050565b60006020828403121561394557613944614807565b5b600082015167ffffffffffffffff81111561396357613962614802565b5b61396f84828501613606565b91505092915050565b60006020828403121561398e5761398d614807565b5b600082013567ffffffffffffffff8111156139ac576139ab614802565b5b6139b884828501613649565b91505092915050565b6000602082840312156139d7576139d6614807565b5b600082015167ffffffffffffffff8111156139f5576139f4614802565b5b613a0184828501613677565b91505092915050565b60006114008284031215613a2157613a20614807565b5b6000613a2f8482850161375a565b91505092915050565b600060208284031215613a4e57613a4d614807565b5b6000613a5c848285016137eb565b91505092915050565b600060208284031215613a7b57613a7a614807565b5b6000613a8984828501613800565b91505092915050565b60008060008060808587031215613aac57613aab614807565b5b6000613aba878288016137eb565b9450506020613acb878288016137eb565b9350506040613adc87828801613542565b925050606085013567ffffffffffffffff811115613afd57613afc614802565b5b613b09878288016135d8565b91505092959194509250565b6000613b218383613ec5565b60208301905092915050565b6000613b398383613ee3565b60208301905092915050565b613b4e81614437565b82525050565b613b65613b6082614437565b6145e9565b82525050565b6000613b768261424e565b613b808185614294565b9350613b8b83614234565b8060005b83811015613bbc578151613ba38882613b15565b9750613bae8361427a565b925050600181019050613b8f565b5085935050505092915050565b613bd281614259565b613bdc81846142a5565b9250613be782614244565b8060005b83811015613c18578151613bff8782613b2d565b9650613c0a83614287565b925050600181019050613beb565b505050505050565b613c298161445b565b82525050565b6000613c3a82614264565b613c4481856142b0565b9350613c548185602086016144e0565b613c5d8161480c565b840191505092915050565b6000613c7382614264565b613c7d81856142c1565b9350613c8d8185602086016144e0565b80840191505092915050565b613ca2816144bf565b82525050565b6000613cb38261426f565b613cbd81856142cc565b9350613ccd8185602086016144e0565b613cd68161480c565b840191505092915050565b6000613cec8261426f565b613cf681856142dd565b9350613d068185602086016144e0565b613d0f8161480c565b840191505092915050565b6000613d276014836142cc565b9150613d328261482a565b602082019050919050565b6000613d4a6016836142cc565b9150613d5582614853565b602082019050919050565b6000613d6d6016836142cc565b9150613d788261487c565b602082019050919050565b6000613d906010836142cc565b9150613d9b826148a5565b602082019050919050565b6000613db36017836142cc565b9150613dbe826148ce565b602082019050919050565b61040082016000820151613de06000850182613c99565b506020820151613df36020850182613ee3565b506040820151613e066040850182613ee3565b506060820151613e196060850182613ee3565b506080820151613e2c6080850182613ee3565b5060a0820151613e3f60a0850182613ee3565b5060c0820151613e5260c0850182613bc9565b50505050565b61140082016000820151613e6f6000850182613dc9565b506020820151613e83610400850182613dc9565b506040820151613e97610800850182613dc9565b506060820151613eab610c00850182613dc9565b506080820151613ebf611000850182613dc9565b50505050565b613ece816144a8565b82525050565b613edd816144a8565b82525050565b613eec816144b2565b82525050565b6000613efe8285613b54565b601482019150613f0e8284613c68565b91508190509392505050565b6000613f268284613c68565b915081905092915050565b6000602082019050613f466000830184613b45565b92915050565b6000604082019050613f616000830185613b45565b8181036020830152613f738184613c2f565b90509392505050565b6000608082019050613f916000830187613b45565b8181036020830152613fa38186613c2f565b90508181036040830152613fb78185613ca8565b9050613fc66060830184613ed4565b95945050505050565b60006020820190508181036000830152613fe98184613b6b565b905092915050565b60006020820190506140066000830184613c20565b92915050565b60006040820190506140216000830185613c20565b81810360208301526140338184613c2f565b90509392505050565b600060208201905081810360008301526140568184613c2f565b905092915050565b600060208201905081810360008301526140788184613ce1565b905092915050565b6000602082019050818103600083015261409981613d1a565b9050919050565b600060208201905081810360008301526140b981613d3d565b9050919050565b600060208201905081810360008301526140d981613d60565b9050919050565b600060208201905081810360008301526140f981613d83565b9050919050565b6000602082019050818103600083015261411981613da6565b9050919050565b6000611400820190506141366000830184613e58565b92915050565b60006020820190506141516000830184613ed4565b92915050565b600060408201905061416c6000830185613ed4565b818103602083015261417e8184613ca8565b90509392505050565b60006141916141a2565b905061419d8282614545565b919050565b6000604051905090565b600067ffffffffffffffff8211156141c7576141c66147ba565b5b602082029050919050565b600067ffffffffffffffff8211156141ed576141ec6147ba565b5b6141f68261480c565b9050602081019050919050565b600067ffffffffffffffff82111561421e5761421d6147ba565b5b6142278261480c565b9050602081019050919050565b6000819050602082019050919050565b6000819050919050565b600081519050919050565b6000601a9050919050565b600081519050919050565b600081519050919050565b6000602082019050919050565b6000602082019050919050565b600082825260208201905092915050565b600081905092915050565b600082825260208201905092915050565b600081905092915050565b600082825260208201905092915050565b600082825260208201905092915050565b60006142f9826144a8565b9150614304836144a8565b9250827fffffffffffffffffffffffffffffffffffffffffffffffffffffffffffffffff03821115614339576143386146a0565b5b828201905092915050565b600061434f826144a8565b915061435a836144a8565b92508261436a576143696146cf565b5b828204905092915050565b6000614380826144a8565b915061438b836144a8565b9250817fffffffffffffffffffffffffffffffffffffffffffffffffffffffffffffffff04831182151516156143c4576143c36146a0565b5b828202905092915050565b60006143da8261447a565b91506143e58361447a565b9250828210156143f8576143f76146a0565b5b828203905092915050565b600061440e826144a8565b9150614419836144a8565b92508282101561442c5761442b6146a0565b5b828203905092915050565b600061444282614488565b9050919050565b600061445482614488565b9050919050565b60008115159050919050565b6000819050614475826148f7565b919050565b600061ffff82169050919050565b600073ffffffffffffffffffffffffffffffffffffffff82169050919050565b6000819050919050565b600060ff82169050919050565b60006144ca82614467565b9050919050565b82818337600083830152505050565b60005b838110156144fe5780820151818401526020810190506144e3565b8381111561450d576000848401525b50505050565b6000600282049050600182168061452b57607f821691505b6020821081141561453f5761453e61472d565b5b50919050565b61454e8261480c565b810181811067ffffffffffffffff8211171561456d5761456c6147ba565b5b80604052505050565b6000614581826144a8565b91507fffffffffffffffffffffffffffffffffffffffffffffffffffffffffffffffff8214156145b4576145b36146a0565b5b600182019050919050565b60006145ca826144b2565b915060ff8214156145de576145dd6146a0565b5b600182019050919050565b60006145f4826145fb565b9050919050565b60006146068261481d565b9050919050565b60006146188261447a565b91506146238361447a565b925082614633576146326146cf565b5b828206905092915050565b6000614649826144a8565b9150614654836144a8565b925082614664576146636146cf565b5b828206905092915050565b600061467a826144b2565b9150614685836144b2565b925082614695576146946146cf565b5b828206905092915050565b7f4e487b7100000000000000000000000000000000000000000000000000000000600052601160045260246000fd5b7f4e487b7100000000000000000000000000000000000000000000000000000000600052601260045260246000fd5b7f4e487b7100000000000000000000000000000000000000000000000000000000600052602160045260246000fd5b7f4e487b7100000000000000000000000000000000000000000000000000000000600052602260045260246000fd5b7f4e487b7100000000000000000000000000000000000000000000000000000000600052603160045260246000fd5b7f4e487b7100000000000000000000000000000000000000000000000000000000600052603260045260246000fd5b7f4e487b7100000000000000000000000000000000000000000000000000000000600052604160045260246000fd5b600080fd5b600080fd5b600080fd5b600080fd5b600080fd5b600080fd5b600080fd5b6000601f19601f8301169050919050565b60008160601b9050919050565b7f5061757361626c653a206e6f7420706175736564000000000000000000000000600082015250565b7f4d7573742062652070726f706f736564206f776e657200000000000000000000600082015250565b7f4f6e6c792063616c6c61626c65206279206f776e657200000000000000000000600082015250565b7f5061757361626c653a2070617573656400000000000000000000000000000000600082015250565b7f43616e6e6f74207472616e7366657220746f2073656c66000000000000000000600082015250565b60058110614908576149076146fe565b5b50565b61491481614437565b811461491f57600080fd5b50565b61492b81614449565b811461493657600080fd5b50565b6005811061494657600080fd5b50565b614952816144a8565b811461495d57600080fd5b50565b614969816144b2565b811461497457600080fd5b5056fea264697066735822122063d283b33912f7b0b7a8e9b9c002a81b2123aa8b2d7f12e2e2f0d8f67f07c8fd64736f6c63430008060033a2646970667358221220259c7c0c2ab029fbfe899d892455b2d1c89f4dd01b5515251f53f59e6a88c27a64736f6c63430008060033608060405234801561001057600080fd5b50611db4806100206000396000f3fe608060405234801561001057600080fd5b506004361061002b5760003560e01c80636e04ff0d14610030575b600080fd5b61004a600480360381019061004591906116bf565b610061565b6040516100589291906117f2565b60405180910390f35b60006060600061007160036100f8565b9050600081436100819190611c07565b905060006060610091838561010d565b809250819350505081156100ae57818195509550505050506100f1565b6100b960008461010d565b809250819350505081156100d657818195509550505050506100f1565b60006040518060200160405280600081525095509550505050505b9250929050565b600061010682600001610889565b9050919050565b6000606060008060008690505b8581101561087e5761013681600361089a90919063ffffffff16565b92506107d5600660008581526020019081526020016000206040518060a0016040529081600082016040518060e00160405290816000820160009054906101000a900460ff16600481111561018e5761018d611cc7565b5b60048111156101a05761019f611cc7565b5b81526020016000820160019054906101000a900460ff1660ff1660ff1681526020016000820160029054906101000a900460ff1660ff1660ff1681526020016000820160039054906101000a900460ff1660ff1660ff1681526020016000820160049054906101000a900460ff1660ff1660ff1681526020016000820160059054906101000a900460ff1660ff1660ff16815260200160018201601a806020026040519081016040528092919082601a8015610297576020028201916000905b82829054906101000a900460ff1660ff16815260200190600101906020826000010492830192600103820291508084116102605790505b5050505050815250508152602001600282016040518060e00160405290816000820160009054906101000a900460ff1660048111156102d9576102d8611cc7565b5b60048111156102eb576102ea611cc7565b5b81526020016000820160019054906101000a900460ff1660ff1660ff1681526020016000820160029054906101000a900460ff1660ff1660ff1681526020016000820160039054906101000a900460ff1660ff1660ff1681526020016000820160049054906101000a900460ff1660ff1660ff1681526020016000820160059054906101000a900460ff1660ff1660ff16815260200160018201601a806020026040519081016040528092919082601a80156103e2576020028201916000905b82829054906101000a900460ff1660ff16815260200190600101906020826000010492830192600103820291508084116103ab5790505b5050505050815250508152602001600482016040518060e00160405290816000820160009054906101000a900460ff16600481111561042457610423611cc7565b5b600481111561043657610435611cc7565b5b81526020016000820160019054906101000a900460ff1660ff1660ff1681526020016000820160029054906101000a900460ff1660ff1660ff1681526020016000820160039054906101000a900460ff1660ff1660ff1681526020016000820160049054906101000a900460ff1660ff1660ff1681526020016000820160059054906101000a900460ff1660ff1660ff16815260200160018201601a806020026040519081016040528092919082601a801561052d576020028201916000905b82829054906101000a900460ff1660ff16815260200190600101906020826000010492830192600103820291508084116104f65790505b5050505050815250508152602001600682016040518060e00160405290816000820160009054906101000a900460ff16600481111561056f5761056e611cc7565b5b600481111561058157610580611cc7565b5b81526020016000820160019054906101000a900460ff1660ff1660ff1681526020016000820160029054906101000a900460ff1660ff1660ff1681526020016000820160039054906101000a900460ff1660ff1660ff1681526020016000820160049054906101000a900460ff1660ff1660ff1681526020016000820160059054906101000a900460ff1660ff1660ff16815260200160018201601a806020026040519081016040528092919082601a8015610678576020028201916000905b82829054906101000a900460ff1660ff16815260200190600101906020826000010492830192600103820291508084116106415790505b5050505050815250508152602001600882016040518060e00160405290816000820160009054906101000a900460ff1660048111156106ba576106b9611cc7565b5b60048111156106cc576106cb611cc7565b5b81526020016000820160019054906101000a900460ff1660ff1660ff1681526020016000820160029054906101000a900460ff1660ff1660ff1681526020016000820160039054906101000a900460ff1660ff1660ff1681526020016000820160049054906101000a900460ff1660ff1660ff1681526020016000820160059054906101000a900460ff1660ff1660ff16815260200160018201601a806020026040519081016040528092919082601a80156107c3576020028201916000905b82829054906101000a900460ff1660ff168152602001906001019060208260000104928301926001038202915080841161078c5790505b505050505081525050815250506108b4565b9150600560008481526020019081526020016000205482111561086b57600183836007600087815260200190815260200160002060009054906101000a900473ffffffffffffffffffffffffffffffffffffffff16600860008881526020019081526020016000206040516020016108509493929190611822565b60405160208183030381529060405294509450505050610882565b808061087690611b63565b91505061011a565b5050505b9250929050565b600081600001805490509050919050565b60006108a98360000183610abb565b60001c905092915050565b6000806108c042610ae6565b905060006108cd42610bfd565b905060006108da42610c13565b905060006108e742610c29565b905060006108f442610c56565b90506000805b600115610aae575b60008660ff161115610a975761091c896060015187610c77565b610931576001905060179350603b9250610a84565b8015610944576109418688610e6b565b94505b5b60008560ff161115610a7f5761095f896040015186610c77565b6109705760179350603b9250610a6c565b61098361097e888888610f37565b610f52565b9150610993896080015183610c77565b6109a45760179350603b9250610a6c565b5b60008460ff1610610a67576109be896020015185610c77565b6109dc57603b925060008460ff1614156109d757610a67565b610a54565b5b60008360ff1610610a3e576109f6896000015184610c77565b610a105760008360ff161415610a0b57610a3e565b610a2b565b610a1d8787878787610f82565b975050505050505050610ab6565b8280610a3690611adc565b9350506109dd565b603b925060008460ff161415610a5357610a67565b5b8380610a5f90611adc565b9450506109a5565b601793505b8480610a7790611adc565b955050610945565b600190505b8580610a8f90611adc565b965050610902565b600c95508680610aa690611ab2565b9750506108fa565b505050505050505b919050565b6000826000018281548110610ad357610ad2611d25565b5b9060005260206000200154905092915050565b600080600090506000806301e1338085610b0091906118f5565b6107b261ffff16610b11919061189f565b9150610b226107b261ffff16610f9e565b610b2f8361ffff16610f9e565b610b3991906119b4565b9050806301e28500610b4b9190611926565b83610b56919061189f565b9250806107b283610b679190611980565b61ffff16610b7591906119b4565b6301e13380610b849190611926565b83610b8f919061189f565b92505b84831115610bf257610baf600183610baa9190611980565b610ff2565b15610bcb576301e2850083610bc491906119b4565b9250610bde565b6301e1338083610bdb91906119b4565b92505b600182610beb9190611980565b9150610b92565b819350505050919050565b6000610c0882611061565b602001519050919050565b6000610c1e82611061565b604001519050919050565b60006018603c8084610c3b91906118f5565b610c4591906118f5565b610c4f9190611c07565b9050919050565b6000603c8083610c6691906118f5565b610c709190611c07565b9050919050565b6000806004811115610c8c57610c8b611cc7565b5b83600001516004811115610ca357610ca2611cc7565b5b1415610cb25760019050610e65565b60026004811115610cc657610cc5611cc7565b5b83600001516004811115610cdd57610cdc611cc7565b5b1415610d00576000836040015183610cf59190611c38565b60ff16149050610e65565b60016004811115610d1457610d13611cc7565b5b83600001516004811115610d2b57610d2a611cc7565b5b1415610d4557826020015160ff168260ff16149050610e65565b60036004811115610d5957610d58611cc7565b5b83600001516004811115610d7057610d6f611cc7565b5b1415610da157826060015160ff168260ff1610158015610d9a5750826080015160ff168260ff1611155b9050610e65565b600480811115610db457610db3611cc7565b5b83600001516004811115610dcb57610dca611cc7565b5b1415610e335760005b8360a0015160ff16811015610e29578360c0015181601a8110610dfa57610df9611d25565b5b602002015160ff168360ff161415610e16576001915050610e65565b8080610e2190611b63565b915050610dd4565b5060009050610e65565b6040517f7d8d432900000000000000000000000000000000000000000000000000000000815260040160405180910390fd5b92915050565b600060018360ff161480610e82575060038360ff16145b80610e90575060058360ff16145b80610e9e575060078360ff16145b80610eac575060088360ff16145b80610eba5750600a8360ff16145b80610ec85750600c8360ff16145b15610ed657601f9050610f31565b60048360ff161480610eeb575060068360ff16145b80610ef9575060098360ff16145b80610f075750600b8360ff16145b15610f1557601e9050610f31565b610f1e82610ff2565b15610f2c57601d9050610f31565b601c90505b92915050565b6000610f498484846000806000611272565b90509392505050565b6000600760046201518084610f6791906118f5565b610f71919061189f565b610f7b9190611c07565b9050919050565b6000610f9386868686866000611272565b905095945050505050565b6000600182610fad91906119b4565b915061019082610fbd91906118f5565b606483610fca91906118f5565b600484610fd791906118f5565b610fe191906119b4565b610feb919061189f565b9050919050565b6000806004836110029190611bd6565b61ffff1614611014576000905061105c565b60006064836110239190611bd6565b61ffff1614611035576001905061105c565b6000610190836110459190611bd6565b61ffff1614611057576000905061105c565b600190505b919050565b6110696115f3565b6000808061107685610ae6565b846000019061ffff16908161ffff16815250506110986107b261ffff16610f9e565b6110a9856000015161ffff16610f9e565b6110b391906119b4565b9150816301e285006110c59190611926565b836110d0919061189f565b9250816107b285600001516110e59190611980565b61ffff166110f391906119b4565b6301e133806111029190611926565b8361110d919061189f565b92506000600191505b600c8260ff161161118d5761112f828660000151610e6b565b60ff16620151806111409190611926565b905085848261114f919061189f565b111561116c5781856020019060ff16908160ff168152505061118d565b8084611178919061189f565b9350818061118590611bac565b925050611116565b600191505b6111a485602001518660000151610e6b565b60ff168260ff1611611201578584620151806111c0919061189f565b11156111dd5781856040019060ff16908160ff1681525050611201565b62015180846111ec919061189f565b935081806111f990611bac565b925050611192565b61120a86610c29565b856060019060ff16908160ff168152505061122486610c56565b856080019060ff16908160ff168152505061123e866115dd565b8560a0019060ff16908160ff168152505061125886610f52565b8560c0019060ff16908160ff168152505050505050919050565b6000806107b290505b8761ffff168161ffff1610156112d65761129481610ff2565b156112b0576301e28500826112a9919061189f565b91506112c3565b6301e13380826112c0919061189f565b91505b80806112ce90611b38565b91505061127b565b6112de611646565b601f816000600c81106112f4576112f3611d25565b5b602002019060ff16908160ff168152505061130e89610ff2565b1561133f57601d816001600c811061132957611328611d25565b5b602002019060ff16908160ff1681525050611367565b601c816001600c811061135557611354611d25565b5b602002019060ff16908160ff16815250505b601f816002600c811061137d5761137c611d25565b5b602002019060ff16908160ff1681525050601e816003600c81106113a4576113a3611d25565b5b602002019060ff16908160ff1681525050601f816004600c81106113cb576113ca611d25565b5b602002019060ff16908160ff1681525050601e816005600c81106113f2576113f1611d25565b5b602002019060ff16908160ff1681525050601f816006600c811061141957611418611d25565b5b602002019060ff16908160ff1681525050601f816007600c81106114405761143f611d25565b5b602002019060ff16908160ff1681525050601e816008600c811061146757611466611d25565b5b602002019060ff16908160ff1681525050601f816009600c811061148e5761148d611d25565b5b602002019060ff16908160ff1681525050601e81600a600c81106114b5576114b4611d25565b5b602002019060ff16908160ff1681525050601f81600b600c81106114dc576114db611d25565b5b602002019060ff16908160ff1681525050600191505b8760ff168261ffff16101561155a578060018361150f9190611980565b61ffff16600c811061152457611523611d25565b5b602002015160ff166201518061153a9190611926565b83611545919061189f565b9250818061155290611b38565b9250506114f2565b60018761156791906119e8565b60ff16620151806115789190611926565b83611583919061189f565b92508560ff16610e106115969190611926565b836115a1919061189f565b92508460ff16603c6115b39190611926565b836115be919061189f565b92508360ff16836115cf919061189f565b925050509695505050505050565b6000603c826115ec9190611c07565b9050919050565b6040518060e00160405280600061ffff168152602001600060ff168152602001600060ff168152602001600060ff168152602001600060ff168152602001600060ff168152602001600060ff1681525090565b604051806101800160405280600c90602082028036833780820191505090505090565b60008083601f84011261167f5761167e611d59565b5b8235905067ffffffffffffffff81111561169c5761169b611d54565b5b6020830191508360018202830111156116b8576116b7611d5e565b5b9250929050565b600080602083850312156116d6576116d5611d68565b5b600083013567ffffffffffffffff8111156116f4576116f3611d63565b5b61170085828601611669565b92509250509250929050565b61171581611a1c565b82525050565b61172481611a2e565b82525050565b600061173582611883565b61173f818561188e565b935061174f818560208601611a7f565b61175881611d6d565b840191505092915050565b6000815461177081611b06565b61177a818661188e565b9450600182166000811461179557600181146117a7576117da565b60ff19831686526020860193506117da565b6117b08561186e565b60005b838110156117d2578154818901526001820191506020810190506117b3565b808801955050505b50505092915050565b6117ec81611a68565b82525050565b6000604082019050611807600083018561171b565b8181036020830152611819818461172a565b90509392505050565b600060808201905061183760008301876117e3565b61184460208301866117e3565b611851604083018561170c565b81810360608301526118638184611763565b905095945050505050565b60008190508160005260206000209050919050565b600081519050919050565b600082825260208201905092915050565b60006118aa82611a68565b91506118b583611a68565b9250827fffffffffffffffffffffffffffffffffffffffffffffffffffffffffffffffff038211156118ea576118e9611c69565b5b828201905092915050565b600061190082611a68565b915061190b83611a68565b92508261191b5761191a611c98565b5b828204905092915050565b600061193182611a68565b915061193c83611a68565b9250817fffffffffffffffffffffffffffffffffffffffffffffffffffffffffffffffff048311821515161561197557611974611c69565b5b828202905092915050565b600061198b82611a3a565b915061199683611a3a565b9250828210156119a9576119a8611c69565b5b828203905092915050565b60006119bf82611a68565b91506119ca83611a68565b9250828210156119dd576119dc611c69565b5b828203905092915050565b60006119f382611a72565b91506119fe83611a72565b925082821015611a1157611a10611c69565b5b828203905092915050565b6000611a2782611a48565b9050919050565b60008115159050919050565b600061ffff82169050919050565b600073ffffffffffffffffffffffffffffffffffffffff82169050919050565b6000819050919050565b600060ff82169050919050565b60005b83811015611a9d578082015181840152602081019050611a82565b83811115611aac576000848401525b50505050565b6000611abd82611a3a565b91506000821415611ad157611ad0611c69565b5b600182039050919050565b6000611ae782611a72565b91506000821415611afb57611afa611c69565b5b600182039050919050565b60006002820490506001821680611b1e57607f821691505b60208210811415611b3257611b31611cf6565b5b50919050565b6000611b4382611a3a565b915061ffff821415611b5857611b57611c69565b5b600182019050919050565b6000611b6e82611a68565b91507fffffffffffffffffffffffffffffffffffffffffffffffffffffffffffffffff821415611ba157611ba0611c69565b5b600182019050919050565b6000611bb782611a72565b915060ff821415611bcb57611bca611c69565b5b600182019050919050565b6000611be182611a3a565b9150611bec83611a3a565b925082611bfc57611bfb611c98565b5b828206905092915050565b6000611c1282611a68565b9150611c1d83611a68565b925082611c2d57611c2c611c98565b5b828206905092915050565b6000611c4382611a72565b9150611c4e83611a72565b925082611c5e57611c5d611c98565b5b828206905092915050565b7f4e487b7100000000000000000000000000000000000000000000000000000000600052601160045260246000fd5b7f4e487b7100000000000000000000000000000000000000000000000000000000600052601260045260246000fd5b7f4e487b7100000000000000000000000000000000000000000000000000000000600052602160045260246000fd5b7f4e487b7100000000000000000000000000000000000000000000000000000000600052602260045260246000fd5b7f4e487b7100000000000000000000000000000000000000000000000000000000600052603260045260246000fd5b600080fd5b600080fd5b600080fd5b600080fd5b600080fd5b6000601f19601f830116905091905056fea26469706673582212209dd0e8bbe4d8c5d15ac2a7a25f1f56b9bc76b446106fb3483b283a94f2ab625864736f6c63430008060033",
  "linkReferences": {
    "contracts/chainlink/v0.8/libraries/external/Cron.sol": {
      "Cron": [
        {
          "length": 20,
          "start": 4826
        },
        {
          "length": 20,
          "start": 4966
        },
        {
          "length": 20,
          "start": 5820
        }
      ]
    }
  },
  "deployedLinkReferences": {
    "contracts/chainlink/v0.8/libraries/external/Cron.sol": {
      "Cron": [
        {
          "length": 20,
          "start": 4661
        },
        {
          "length": 20,
          "start": 4801
        },
        {
          "length": 20,
          "start": 5655
        }
      ]
    }
  }
}