{
  "_format": "hh-sol-artifact-1",
  "contractName": "ArbitrumCrossDomainGovernor",
  "sourceName": "contracts/chainlink/v0.8/dev/ArbitrumCrossDomainGovernor.sol",
  "abi": [
    {
      "inputs": [
        {
          "internalType": "address",
          "name": "l1OwnerAddr",
          "type": "address"
        }
      ],
      "stateMutability": "nonpayable",
      "type": "constructor"
    },
    {
      "anonymous": false,
      "inputs": [
        {
          "indexed": true,
          "internalType": "address",
          "name": "from",
          "type": "address"
        },
        {
          "indexed": true,
          "internalType": "address",
          "name": "to",
          "type": "address"
        }
      ],
      "name": "L1OwnershipTransferRequested",
      "type": "event"
    },
    {
      "anonymous": false,
      "inputs": [
        {
          "indexed": true,
          "internalType": "address",
          "name": "from",
          "type": "address"
        },
        {
          "indexed": true,
          "internalType": "address",
          "name": "to",
          "type": "address"
        }
      ],
      "name": "L1OwnershipTransferred",
      "type": "event"
    },
    {
      "anonymous": false,
      "inputs": [
        {
          "indexed": true,
          "internalType": "address",
          "name": "from",
          "type": "address"
        },
        {
          "indexed": true,
          "internalType": "address",
          "name": "to",
          "type": "address"
        }
      ],
      "name": "OwnershipTransferRequested",
      "type": "event"
    },
    {
      "anonymous": false,
      "inputs": [
        {
          "indexed": true,
          "internalType": "address",
          "name": "from",
          "type": "address"
        },
        {
          "indexed": true,
          "internalType": "address",
          "name": "to",
          "type": "address"
        }
      ],
      "name": "OwnershipTransferred",
      "type": "event"
    },
    {
      "inputs": [],
      "name": "acceptL1Ownership",
      "outputs": [],
      "stateMutability": "nonpayable",
      "type": "function"
    },
    {
      "inputs": [],
      "name": "acceptOwnership",
      "outputs": [],
      "stateMutability": "nonpayable",
      "type": "function"
    },
    {
      "inputs": [],
      "name": "crossDomainMessenger",
      "outputs": [
        {
          "internalType": "address",
          "name": "",
          "type": "address"
        }
      ],
      "stateMutability": "view",
      "type": "function"
    },
    {
      "inputs": [
        {
          "internalType": "address",
          "name": "target",
          "type": "address"
        },
        {
          "internalType": "bytes",
          "name": "data",
          "type": "bytes"
        }
      ],
      "name": "forward",
      "outputs": [],
      "stateMutability": "nonpayable",
      "type": "function"
    },
    {
      "inputs": [
        {
          "internalType": "address",
          "name": "target",
          "type": "address"
        },
        {
          "internalType": "bytes",
          "name": "data",
          "type": "bytes"
        }
      ],
      "name": "forwardDelegate",
      "outputs": [],
      "stateMutability": "nonpayable",
      "type": "function"
    },
    {
      "inputs": [],
      "name": "l1Owner",
      "outputs": [
        {
          "internalType": "address",
          "name": "",
          "type": "address"
        }
      ],
      "stateMutability": "view",
      "type": "function"
    },
    {
      "inputs": [],
      "name": "owner",
      "outputs": [
        {
          "internalType": "address",
          "name": "",
          "type": "address"
        }
      ],
      "stateMutability": "view",
      "type": "function"
    },
    {
      "inputs": [
        {
          "internalType": "address",
          "name": "to",
          "type": "address"
        }
      ],
      "name": "transferL1Ownership",
      "outputs": [],
      "stateMutability": "nonpayable",
      "type": "function"
    },
    {
      "inputs": [
        {
          "internalType": "address",
          "name": "to",
          "type": "address"
        }
      ],
      "name": "transferOwnership",
      "outputs": [],
      "stateMutability": "nonpayable",
      "type": "function"
    },
    {
      "inputs": [],
      "name": "typeAndVersion",
      "outputs": [
        {
          "internalType": "string",
          "name": "",
          "type": "string"
        }
      ],
      "stateMutability": "pure",
      "type": "function"
    }
  ],
  "bytecode": "0x60806040523480156200001157600080fd5b5060405162001ac138038062001ac18339818101604052810190620000379190620003a2565b8080338060008073ffffffffffffffffffffffffffffffffffffffff168273ffffffffffffffffffffffffffffffffffffffff161415620000af576040517f08c379a0000000000000000000000000000000000000000000000000000000008152600401620000a69062000422565b60405180910390fd5b816000806101000a81548173ffffffffffffffffffffffffffffffffffffffff021916908373ffffffffffffffffffffffffffffffffffffffff160217905550600073ffffffffffffffffffffffffffffffffffffffff168173ffffffffffffffffffffffffffffffffffffffff1614620001365762000135816200015360201b60201c565b5b5050506200014a816200028360201b60201c565b5050506200051c565b3373ffffffffffffffffffffffffffffffffffffffff168173ffffffffffffffffffffffffffffffffffffffff161415620001c5576040517f08c379a0000000000000000000000000000000000000000000000000000000008152600401620001bc9062000444565b60405180910390fd5b80600160006101000a81548173ffffffffffffffffffffffffffffffffffffffff021916908373ffffffffffffffffffffffffffffffffffffffff1602179055508073ffffffffffffffffffffffffffffffffffffffff1660008054906101000a900473ffffffffffffffffffffffffffffffffffffffff1673ffffffffffffffffffffffffffffffffffffffff167fed8889f560326eb138920d842192f0eb3dd22b4f139c87a2c57538e05bae127860405160405180910390a350565b6000600260009054906101000a900473ffffffffffffffffffffffffffffffffffffffff16905081600260006101000a81548173ffffffffffffffffffffffffffffffffffffffff021916908373ffffffffffffffffffffffffffffffffffffffff1602179055506000600360006101000a81548173ffffffffffffffffffffffffffffffffffffffff021916908373ffffffffffffffffffffffffffffffffffffffff1602179055508173ffffffffffffffffffffffffffffffffffffffff168173ffffffffffffffffffffffffffffffffffffffff167fb0121dbcab67289d5cb13a1f35ca086715f35ef418e0eda134c4145a086b627260405160405180910390a35050565b6000815190506200039c8162000502565b92915050565b600060208284031215620003bb57620003ba620004ab565b5b6000620003cb848285016200038b565b91505092915050565b6000620003e360188362000466565b9150620003f082620004b0565b602082019050919050565b60006200040a60178362000466565b91506200041782620004d9565b602082019050919050565b600060208201905081810360008301526200043d81620003d4565b9050919050565b600060208201905081810360008301526200045f81620003fb565b9050919050565b600082825260208201905092915050565b600062000484826200048b565b9050919050565b600073ffffffffffffffffffffffffffffffffffffffff82169050919050565b600080fd5b7f43616e6e6f7420736574206f776e657220746f207a65726f0000000000000000600082015250565b7f43616e6e6f74207472616e7366657220746f2073656c66000000000000000000600082015250565b6200050d8162000477565b81146200051957600080fd5b50565b611595806200052c6000396000f3fe608060405234801561001057600080fd5b506004361061009e5760003560e01c806396b8d7c01161006657806396b8d7c014610121578063b2ec07871461013d578063d2db637214610147578063f2fde38b14610165578063f43b3613146101815761009e565b8063181f5a77146100a357806326929eb6146100c15780636fadcf72146100dd57806379ba5097146100f95780638da5cb5b14610103575b600080fd5b6100ab61019f565b6040516100b89190611081565b60405180910390f35b6100db60048036038101906100d69190610e3f565b6101bf565b005b6100f760048036038101906100f29190610e3f565b6102b6565b005b6101016103ad565b005b61010b610542565b6040516101189190611066565b60405180910390f35b61013b60048036038101906101369190610e12565b61056b565b005b6101456105ec565b005b61014f6106b1565b60405161015c9190611066565b60405180910390f35b61017f600480360381019061017a9190610e12565b6106db565b005b6101896106ef565b6040516101969190611066565b60405180910390f35b606060405180606001604052806021815260200161153f60219139905090565b6101c76106ef565b73ffffffffffffffffffffffffffffffffffffffff163373ffffffffffffffffffffffffffffffffffffffff1614806102325750610203610542565b73ffffffffffffffffffffffffffffffffffffffff163373ffffffffffffffffffffffffffffffffffffffff16145b610271576040517f08c379a0000000000000000000000000000000000000000000000000000000008152600401610268906110c3565b60405180910390fd5b6102b182826040518060400160405280601e81526020017f476f7665726e6f722064656c656761746563616c6c2072657665727465640000815250610706565b505050565b6102be6106ef565b73ffffffffffffffffffffffffffffffffffffffff163373ffffffffffffffffffffffffffffffffffffffff16148061032957506102fa610542565b73ffffffffffffffffffffffffffffffffffffffff163373ffffffffffffffffffffffffffffffffffffffff16145b610368576040517f08c379a000000000000000000000000000000000000000000000000000000000815260040161035f906110c3565b60405180910390fd5b6103a882826040518060400160405280601681526020017f476f7665726e6f722063616c6c207265766572746564000000000000000000008152506107d3565b505050565b600160009054906101000a900473ffffffffffffffffffffffffffffffffffffffff1673ffffffffffffffffffffffffffffffffffffffff163373ffffffffffffffffffffffffffffffffffffffff161461043d576040517f08c379a0000000000000000000000000000000000000000000000000000000008152600401610434906110a3565b60405180910390fd5b60008060009054906101000a900473ffffffffffffffffffffffffffffffffffffffff169050336000806101000a81548173ffffffffffffffffffffffffffffffffffffffff021916908373ffffffffffffffffffffffffffffffffffffffff1602179055506000600160006101000a81548173ffffffffffffffffffffffffffffffffffffffff021916908373ffffffffffffffffffffffffffffffffffffffff1602179055503373ffffffffffffffffffffffffffffffffffffffff168173ffffffffffffffffffffffffffffffffffffffff167f8be0079c531659141344cd1fd0a4f28419497f9722a3daafe3b4186f6b6457e060405160405180910390a350565b60008060009054906101000a900473ffffffffffffffffffffffffffffffffffffffff16905090565b6105736106ef565b73ffffffffffffffffffffffffffffffffffffffff163373ffffffffffffffffffffffffffffffffffffffff16146105e0576040517f08c379a00000000000000000000000000000000000000000000000000000000081526004016105d7906110e3565b60405180910390fd5b6105e9816107eb565b50565b610617600360009054906101000a900473ffffffffffffffffffffffffffffffffffffffff1661091a565b73ffffffffffffffffffffffffffffffffffffffff163373ffffffffffffffffffffffffffffffffffffffff1614610684576040517f08c379a000000000000000000000000000000000000000000000000000000000815260040161067b90611143565b60405180910390fd5b6106af600360009054906101000a900473ffffffffffffffffffffffffffffffffffffffff1661093a565b565b6000600260009054906101000a900473ffffffffffffffffffffffffffffffffffffffff16905090565b6106e3610a42565b6106ec81610ad2565b50565b60006107016106fc6106b1565b61091a565b905090565b606061071184610bff565b610750576040517f08c379a000000000000000000000000000000000000000000000000000000000815260040161074790611163565b60405180910390fd5b6000808573ffffffffffffffffffffffffffffffffffffffff1685604051610778919061104f565b600060405180830381855af49150503d80600081146107b3576040519150601f19603f3d011682016040523d82523d6000602084013e6107b8565b606091505b50915091506107c8828286610c12565b925050509392505050565b60606107e28484600085610c79565b90509392505050565b3373ffffffffffffffffffffffffffffffffffffffff168173ffffffffffffffffffffffffffffffffffffffff16141561085a576040517f08c379a0000000000000000000000000000000000000000000000000000000008152600401610851906111a3565b60405180910390fd5b80600360006101000a81548173ffffffffffffffffffffffffffffffffffffffff021916908373ffffffffffffffffffffffffffffffffffffffff1602179055508073ffffffffffffffffffffffffffffffffffffffff16600260009054906101000a900473ffffffffffffffffffffffffffffffffffffffff1673ffffffffffffffffffffffffffffffffffffffff167f55eb94b097b1cd6441a2403b6e04742bd36cfd6e6905ea13cbc5879d26e5b20f60405160405180910390a350565b600073111100000000000000000000000000000000111182019050919050565b6000600260009054906101000a900473ffffffffffffffffffffffffffffffffffffffff16905081600260006101000a81548173ffffffffffffffffffffffffffffffffffffffff021916908373ffffffffffffffffffffffffffffffffffffffff1602179055506000600360006101000a81548173ffffffffffffffffffffffffffffffffffffffff021916908373ffffffffffffffffffffffffffffffffffffffff1602179055508173ffffffffffffffffffffffffffffffffffffffff168173ffffffffffffffffffffffffffffffffffffffff167fb0121dbcab67289d5cb13a1f35ca086715f35ef418e0eda134c4145a086b627260405160405180910390a35050565b60008054906101000a900473ffffffffffffffffffffffffffffffffffffffff1673ffffffffffffffffffffffffffffffffffffffff163373ffffffffffffffffffffffffffffffffffffffff1614610ad0576040517f08c379a0000000000000000000000000000000000000000000000000000000008152600401610ac790611103565b60405180910390fd5b565b3373ffffffffffffffffffffffffffffffffffffffff168173ffffffffffffffffffffffffffffffffffffffff161415610b41576040517f08c379a0000000000000000000000000000000000000000000000000000000008152600401610b38906111a3565b60405180910390fd5b80600160006101000a81548173ffffffffffffffffffffffffffffffffffffffff021916908373ffffffffffffffffffffffffffffffffffffffff1602179055508073ffffffffffffffffffffffffffffffffffffffff1660008054906101000a900473ffffffffffffffffffffffffffffffffffffffff1673ffffffffffffffffffffffffffffffffffffffff167fed8889f560326eb138920d842192f0eb3dd22b4f139c87a2c57538e05bae127860405160405180910390a350565b600080823b905060008111915050919050565b60608315610c2257829050610c72565b600083511115610c355782518084602001fd5b816040517f08c379a0000000000000000000000000000000000000000000000000000000008152600401610c699190611081565b60405180910390fd5b9392505050565b606082471015610cbe576040517f08c379a0000000000000000000000000000000000000000000000000000000008152600401610cb590611123565b60405180910390fd5b610cc785610bff565b610d06576040517f08c379a0000000000000000000000000000000000000000000000000000000008152600401610cfd90611183565b60405180910390fd5b6000808673ffffffffffffffffffffffffffffffffffffffff168587604051610d2f919061104f565b60006040518083038185875af1925050503d8060008114610d6c576040519150601f19603f3d011682016040523d82523d6000602084013e610d71565b606091505b5091509150610d81828286610c12565b92505050949350505050565b6000610da0610d9b846111e8565b6111c3565b905082815260208101848484011115610dbc57610dbb611324565b5b610dc784828561127d565b509392505050565b600081359050610dde81611527565b92915050565b600082601f830112610df957610df861131f565b5b8135610e09848260208601610d8d565b91505092915050565b600060208284031215610e2857610e2761132e565b5b6000610e3684828501610dcf565b91505092915050565b60008060408385031215610e5657610e5561132e565b5b6000610e6485828601610dcf565b925050602083013567ffffffffffffffff811115610e8557610e84611329565b5b610e9185828601610de4565b9150509250929050565b610ea48161124b565b82525050565b6000610eb582611219565b610ebf818561122f565b9350610ecf81856020860161128c565b80840191505092915050565b6000610ee682611224565b610ef0818561123a565b9350610f0081856020860161128c565b610f0981611333565b840191505092915050565b6000610f2160168361123a565b9150610f2c82611344565b602082019050919050565b6000610f4460278361123a565b9150610f4f8261136d565b604082019050919050565b6000610f67601e8361123a565b9150610f72826113bc565b602082019050919050565b6000610f8a60168361123a565b9150610f95826113e5565b602082019050919050565b6000610fad60268361123a565b9150610fb88261140e565b604082019050919050565b6000610fd060198361123a565b9150610fdb8261145d565b602082019050919050565b6000610ff360268361123a565b9150610ffe82611486565b604082019050919050565b6000611016601d8361123a565b9150611021826114d5565b602082019050919050565b600061103960178361123a565b9150611044826114fe565b602082019050919050565b600061105b8284610eaa565b915081905092915050565b600060208201905061107b6000830184610e9b565b92915050565b6000602082019050818103600083015261109b8184610edb565b905092915050565b600060208201905081810360008301526110bc81610f14565b9050919050565b600060208201905081810360008301526110dc81610f37565b9050919050565b600060208201905081810360008301526110fc81610f5a565b9050919050565b6000602082019050818103600083015261111c81610f7d565b9050919050565b6000602082019050818103600083015261113c81610fa0565b9050919050565b6000602082019050818103600083015261115c81610fc3565b9050919050565b6000602082019050818103600083015261117c81610fe6565b9050919050565b6000602082019050818103600083015261119c81611009565b9050919050565b600060208201905081810360008301526111bc8161102c565b9050919050565b60006111cd6111de565b90506111d982826112bf565b919050565b6000604051905090565b600067ffffffffffffffff821115611203576112026112f0565b5b61120c82611333565b9050602081019050919050565b600081519050919050565b600081519050919050565b600081905092915050565b600082825260208201905092915050565b60006112568261125d565b9050919050565b600073ffffffffffffffffffffffffffffffffffffffff82169050919050565b82818337600083830152505050565b60005b838110156112aa57808201518184015260208101905061128f565b838111156112b9576000848401525b50505050565b6112c882611333565b810181811067ffffffffffffffff821117156112e7576112e66112f0565b5b80604052505050565b7f4e487b7100000000000000000000000000000000000000000000000000000000600052604160045260246000fd5b600080fd5b600080fd5b600080fd5b600080fd5b6000601f19601f8301169050919050565b7f4d7573742062652070726f706f736564206f776e657200000000000000000000600082015250565b7f53656e646572206973206e6f7420746865204c32206d657373656e676572206f60008201527f72206f776e657200000000000000000000000000000000000000000000000000602082015250565b7f53656e646572206973206e6f7420746865204c32206d657373656e6765720000600082015250565b7f4f6e6c792063616c6c61626c65206279206f776e657200000000000000000000600082015250565b7f416464726573733a20696e73756666696369656e742062616c616e636520666f60008201527f722063616c6c0000000000000000000000000000000000000000000000000000602082015250565b7f4d7573742062652070726f706f736564204c31206f776e657200000000000000600082015250565b7f416464726573733a2064656c65676174652063616c6c20746f206e6f6e2d636f60008201527f6e74726163740000000000000000000000000000000000000000000000000000602082015250565b7f416464726573733a2063616c6c20746f206e6f6e2d636f6e7472616374000000600082015250565b7f43616e6e6f74207472616e7366657220746f2073656c66000000000000000000600082015250565b6115308161124b565b811461153b57600080fd5b5056fe417262697472756d43726f7373446f6d61696e476f7665726e6f7220312e302e30a2646970667358221220e7b723cfe0557d63cbca359fc4c08e502974606d06e265ba27bb367963ce015864736f6c63430008060033",
  "linkReferences": {},
  "deployedLinkReferences": {}
}