{
  "_format": "hh-sol-artifact-1",
  "contractName": "EthBalanceMonitorExposed",
  "sourceName": "contracts/chainlink/v0.8/tests/EthBalanceMonitorExposed.sol",
  "abi": [
    {
      "inputs": [
        {
          "internalType": "address",
          "name": "keeperRegistryAddress",
          "type": "address"
        },
        {
          "internalType": "uint256",
          "name": "minWaitPeriod",
          "type": "uint256"
        }
      ],
      "stateMutability": "nonpayable",
      "type": "constructor"
    },
    {
      "inputs": [
        {
          "internalType": "address",
          "name": "duplicate",
          "type": "address"
        }
      ],
      "name": "DuplicateAddress",
      "type": "error"
    },
    {
      "inputs": [],
      "name": "InvalidWatchList",
      "type": "error"
    },
    {
      "inputs": [],
      "name": "OnlyKeeperRegistry",
      "type": "error"
    },
    {
      "anonymous": false,
      "inputs": [
        {
          "indexed": false,
          "internalType": "uint256",
          "name": "amountAdded",
          "type": "uint256"
        },
        {
          "indexed": false,
          "internalType": "uint256",
          "name": "newBalance",
          "type": "uint256"
        },
        {
          "indexed": false,
          "internalType": "address",
          "name": "sender",
          "type": "address"
        }
      ],
      "name": "FundsAdded",
      "type": "event"
    },
    {
      "anonymous": false,
      "inputs": [
        {
          "indexed": false,
          "internalType": "uint256",
          "name": "amountWithdrawn",
          "type": "uint256"
        },
        {
          "indexed": false,
          "internalType": "address",
          "name": "payee",
          "type": "address"
        }
      ],
      "name": "FundsWithdrawn",
      "type": "event"
    },
    {
      "anonymous": false,
      "inputs": [
        {
          "indexed": false,
          "internalType": "address",
          "name": "oldAddress",
          "type": "address"
        },
        {
          "indexed": false,
          "internalType": "address",
          "name": "newAddress",
          "type": "address"
        }
      ],
      "name": "KeeperRegistryAddressUpdated",
      "type": "event"
    },
    {
      "anonymous": false,
      "inputs": [
        {
          "indexed": false,
          "internalType": "uint256",
          "name": "oldMinWaitPeriod",
          "type": "uint256"
        },
        {
          "indexed": false,
          "internalType": "uint256",
          "name": "newMinWaitPeriod",
          "type": "uint256"
        }
      ],
      "name": "MinWaitPeriodUpdated",
      "type": "event"
    },
    {
      "anonymous": false,
      "inputs": [
        {
          "indexed": true,
          "internalType": "address",
          "name": "from",
          "type": "address"
        },
        {
          "indexed": true,
          "internalType": "address",
          "name": "to",
          "type": "address"
        }
      ],
      "name": "OwnershipTransferRequested",
      "type": "event"
    },
    {
      "anonymous": false,
      "inputs": [
        {
          "indexed": true,
          "internalType": "address",
          "name": "from",
          "type": "address"
        },
        {
          "indexed": true,
          "internalType": "address",
          "name": "to",
          "type": "address"
        }
      ],
      "name": "OwnershipTransferred",
      "type": "event"
    },
    {
      "anonymous": false,
      "inputs": [
        {
          "indexed": false,
          "internalType": "address",
          "name": "account",
          "type": "address"
        }
      ],
      "name": "Paused",
      "type": "event"
    },
    {
      "anonymous": false,
      "inputs": [
        {
          "indexed": true,
          "internalType": "address",
          "name": "recipient",
          "type": "address"
        }
      ],
      "name": "TopUpFailed",
      "type": "event"
    },
    {
      "anonymous": false,
      "inputs": [
        {
          "indexed": true,
          "internalType": "address",
          "name": "recipient",
          "type": "address"
        }
      ],
      "name": "TopUpSucceeded",
      "type": "event"
    },
    {
      "anonymous": false,
      "inputs": [
        {
          "indexed": false,
          "internalType": "address",
          "name": "account",
          "type": "address"
        }
      ],
      "name": "Unpaused",
      "type": "event"
    },
    {
      "inputs": [],
      "name": "acceptOwnership",
      "outputs": [],
      "stateMutability": "nonpayable",
      "type": "function"
    },
    {
      "inputs": [
        {
          "internalType": "bytes",
          "name": "",
          "type": "bytes"
        }
      ],
      "name": "checkUpkeep",
      "outputs": [
        {
          "internalType": "bool",
          "name": "upkeepNeeded",
          "type": "bool"
        },
        {
          "internalType": "bytes",
          "name": "performData",
          "type": "bytes"
        }
      ],
      "stateMutability": "view",
      "type": "function"
    },
    {
      "inputs": [
        {
          "internalType": "address",
          "name": "targetAddress",
          "type": "address"
        }
      ],
      "name": "getAccountInfo",
      "outputs": [
        {
          "internalType": "bool",
          "name": "isActive",
          "type": "bool"
        },
        {
          "internalType": "uint96",
          "name": "minBalanceWei",
          "type": "uint96"
        },
        {
          "internalType": "uint96",
          "name": "topUpAmountWei",
          "type": "uint96"
        },
        {
          "internalType": "uint56",
          "name": "lastTopUpTimestamp",
          "type": "uint56"
        }
      ],
      "stateMutability": "view",
      "type": "function"
    },
    {
      "inputs": [],
      "name": "getKeeperRegistryAddress",
      "outputs": [
        {
          "internalType": "address",
          "name": "keeperRegistryAddress",
          "type": "address"
        }
      ],
      "stateMutability": "view",
      "type": "function"
    },
    {
      "inputs": [],
      "name": "getMinWaitPeriodSeconds",
      "outputs": [
        {
          "internalType": "uint256",
          "name": "",
          "type": "uint256"
        }
      ],
      "stateMutability": "view",
      "type": "function"
    },
    {
      "inputs": [],
      "name": "getUnderfundedAddresses",
      "outputs": [
        {
          "internalType": "address[]",
          "name": "",
          "type": "address[]"
        }
      ],
      "stateMutability": "view",
      "type": "function"
    },
    {
      "inputs": [],
      "name": "getWatchList",
      "outputs": [
        {
          "internalType": "address[]",
          "name": "",
          "type": "address[]"
        }
      ],
      "stateMutability": "view",
      "type": "function"
    },
    {
      "inputs": [],
      "name": "owner",
      "outputs": [
        {
          "internalType": "address",
          "name": "",
          "type": "address"
        }
      ],
      "stateMutability": "view",
      "type": "function"
    },
    {
      "inputs": [],
      "name": "pause",
      "outputs": [],
      "stateMutability": "nonpayable",
      "type": "function"
    },
    {
      "inputs": [],
      "name": "paused",
      "outputs": [
        {
          "internalType": "bool",
          "name": "",
          "type": "bool"
        }
      ],
      "stateMutability": "view",
      "type": "function"
    },
    {
      "inputs": [
        {
          "internalType": "bytes",
          "name": "performData",
          "type": "bytes"
        }
      ],
      "name": "performUpkeep",
      "outputs": [],
      "stateMutability": "nonpayable",
      "type": "function"
    },
    {
      "inputs": [
        {
          "internalType": "address",
          "name": "keeperRegistryAddress",
          "type": "address"
        }
      ],
      "name": "setKeeperRegistryAddress",
      "outputs": [],
      "stateMutability": "nonpayable",
      "type": "function"
    },
    {
      "inputs": [
        {
          "internalType": "address",
          "name": "target",
          "type": "address"
        },
        {
          "internalType": "uint56",
          "name": "lastTopUpTimestamp",
          "type": "uint56"
        }
      ],
      "name": "setLastTopUpXXXTestOnly",
      "outputs": [],
      "stateMutability": "nonpayable",
      "type": "function"
    },
    {
      "inputs": [
        {
          "internalType": "uint256",
          "name": "period",
          "type": "uint256"
        }
      ],
      "name": "setMinWaitPeriodSeconds",
      "outputs": [],
      "stateMutability": "nonpayable",
      "type": "function"
    },
    {
      "inputs": [
        {
          "internalType": "address[]",
          "name": "addresses",
          "type": "address[]"
        },
        {
          "internalType": "uint96[]",
          "name": "minBalancesWei",
          "type": "uint96[]"
        },
        {
          "internalType": "uint96[]",
          "name": "topUpAmountsWei",
          "type": "uint96[]"
        }
      ],
      "name": "setWatchList",
      "outputs": [],
      "stateMutability": "nonpayable",
      "type": "function"
    },
    {
      "inputs": [
        {
          "internalType": "address[]",
          "name": "needsFunding",
          "type": "address[]"
        }
      ],
      "name": "topUp",
      "outputs": [],
      "stateMutability": "nonpayable",
      "type": "function"
    },
    {
      "inputs": [
        {
          "internalType": "address",
          "name": "to",
          "type": "address"
        }
      ],
      "name": "transferOwnership",
      "outputs": [],
      "stateMutability": "nonpayable",
      "type": "function"
    },
    {
      "inputs": [],
      "name": "unpause",
      "outputs": [],
      "stateMutability": "nonpayable",
      "type": "function"
    },
    {
      "inputs": [
        {
          "internalType": "uint256",
          "name": "amount",
          "type": "uint256"
        },
        {
          "internalType": "address payable",
          "name": "payee",
          "type": "address"
        }
      ],
      "name": "withdraw",
      "outputs": [],
      "stateMutability": "nonpayable",
      "type": "function"
    },
    {
      "stateMutability": "payable",
      "type": "receive"
    }
  ],
  "bytecode": "0x60806040523480156200001157600080fd5b50604051620031a9380380620031a98339818101604052810190620000379190620004b4565b8181338060008073ffffffffffffffffffffffffffffffffffffffff168273ffffffffffffffffffffffffffffffffffffffff161415620000af576040517f08c379a0000000000000000000000000000000000000000000000000000000008152600401620000a690620005e1565b60405180910390fd5b816000806101000a81548173ffffffffffffffffffffffffffffffffffffffff021916908373ffffffffffffffffffffffffffffffffffffffff160217905550600073ffffffffffffffffffffffffffffffffffffffff168173ffffffffffffffffffffffffffffffffffffffff1614620001365762000135816200018060201b60201c565b5b5050506000600160146101000a81548160ff0219169083151502179055506200016582620002b060201b60201c565b62000176816200039c60201b60201c565b5050505062000755565b3373ffffffffffffffffffffffffffffffffffffffff168173ffffffffffffffffffffffffffffffffffffffff161415620001f2576040517f08c379a0000000000000000000000000000000000000000000000000000000008152600401620001e99062000603565b60405180910390fd5b80600160006101000a81548173ffffffffffffffffffffffffffffffffffffffff021916908373ffffffffffffffffffffffffffffffffffffffff1602179055508073ffffffffffffffffffffffffffffffffffffffff1660008054906101000a900473ffffffffffffffffffffffffffffffffffffffff1673ffffffffffffffffffffffffffffffffffffffff167fed8889f560326eb138920d842192f0eb3dd22b4f139c87a2c57538e05bae127860405160405180910390a350565b620002c0620003f360201b60201c565b600073ffffffffffffffffffffffffffffffffffffffff168173ffffffffffffffffffffffffffffffffffffffff161415620002fb57600080fd5b7fb732223055abcde751d7a24272ffc8a3aa571cb72b443969a4199b7ecd59f8b9600260009054906101000a900473ffffffffffffffffffffffffffffffffffffffff16826040516200035092919062000592565b60405180910390a180600260006101000a81548173ffffffffffffffffffffffffffffffffffffffff021916908373ffffffffffffffffffffffffffffffffffffffff16021790555050565b620003ac620003f360201b60201c565b7f04330086c73b1fe1e13cd47a61c692e7c4399b5de08ed94b7ab824684af0932360035482604051620003e192919062000625565b60405180910390a18060038190555050565b60008054906101000a900473ffffffffffffffffffffffffffffffffffffffff1673ffffffffffffffffffffffffffffffffffffffff163373ffffffffffffffffffffffffffffffffffffffff161462000484576040517f08c379a00000000000000000000000000000000000000000000000000000000081526004016200047b90620005bf565b60405180910390fd5b565b600081519050620004978162000721565b92915050565b600081519050620004ae816200073b565b92915050565b60008060408385031215620004ce57620004cd620006a1565b5b6000620004de8582860162000486565b9250506020620004f1858286016200049d565b9150509250929050565b620005068162000663565b82525050565b60006200051b60168362000652565b91506200052882620006a6565b602082019050919050565b60006200054260188362000652565b91506200054f82620006cf565b602082019050919050565b60006200056960178362000652565b91506200057682620006f8565b602082019050919050565b6200058c8162000697565b82525050565b6000604082019050620005a96000830185620004fb565b620005b86020830184620004fb565b9392505050565b60006020820190508181036000830152620005da816200050c565b9050919050565b60006020820190508181036000830152620005fc8162000533565b9050919050565b600060208201905081810360008301526200061e816200055a565b9050919050565b60006040820190506200063c600083018562000581565b6200064b602083018462000581565b9392505050565b600082825260208201905092915050565b6000620006708262000677565b9050919050565b600073ffffffffffffffffffffffffffffffffffffffff82169050919050565b6000819050919050565b600080fd5b7f4f6e6c792063616c6c61626c65206279206f776e657200000000000000000000600082015250565b7f43616e6e6f7420736574206f776e657220746f207a65726f0000000000000000600082015250565b7f43616e6e6f74207472616e7366657220746f2073656c66000000000000000000600082015250565b6200072c8162000663565b81146200073857600080fd5b50565b620007468162000697565b81146200075257600080fd5b50565b612a4480620007656000396000f3fe6080604052600436106101175760003560e01c8063728584b7116100a05780638da5cb5b116100645780638da5cb5b1461039c57806394555114146103c7578063b1d52fa0146103f0578063cfbc490c14610419578063f2fde38b1461044257610159565b8063728584b7146102d857806379ba5097146103035780637b510fe81461031a578063810623e31461035a5780638456cb591461038557610159565b80633f85861f116100e75780633f85861f146101f257806341d2052e1461021b5780634585e33b146102465780635c975abb1461026f5780636e04ff0d1461029a57610159565b8062f714ce1461015e5780630b67ddce146101875780633e4ca677146101b25780633f4ba83a146101db57610159565b36610159577fc6f3fb0fec49e4877342d4625d77a632541f55b7aae0f9d0b34c69b3478706dc34473360405161014f93929190612537565b60405180910390a1005b600080fd5b34801561016a57600080fd5b5061018560048036038101906101809190612100565b61046b565b005b34801561019357600080fd5b5061019c610531565b6040516101a99190612378565b60405180910390f35b3480156101be57600080fd5b506101d960048036038101906101d4919061203d565b6108a9565b005b3480156101e757600080fd5b506101f0610c8e565b005b3480156101fe57600080fd5b50610219600480360381019061021491906120d3565b610ca0565b005b34801561022757600080fd5b50610230610ced565b60405161023d91906124ca565b60405180910390f35b34801561025257600080fd5b5061026d60048036038101906102689190612086565b610cf7565b005b34801561027b57600080fd5b50610284610de7565b604051610291919061239a565b60405180910390f35b3480156102a657600080fd5b506102c160048036038101906102bc9190612086565b610dfe565b6040516102cf9291906123b5565b60405180910390f35b3480156102e457600080fd5b506102ed610e87565b6040516102fa9190612378565b60405180910390f35b34801561030f57600080fd5b50610318610f15565b005b34801561032657600080fd5b50610341600480360381019061033c9190611f1c565b6110aa565b60405161035194939291906123e5565b60405180910390f35b34801561036657600080fd5b5061036f6111e8565b60405161037c9190612334565b60405180910390f35b34801561039157600080fd5b5061039a611212565b005b3480156103a857600080fd5b506103b1611224565b6040516103be9190612334565b60405180910390f35b3480156103d357600080fd5b506103ee60048036038101906103e99190611f1c565b61124d565b005b3480156103fc57600080fd5b5061041760048036038101906104129190611f89565b61132e565b005b34801561042557600080fd5b50610440600480360381019061043b9190611f49565b61187f565b005b34801561044e57600080fd5b5061046960048036038101906104649190611f1c565b6118ea565b005b6104736118fe565b600073ffffffffffffffffffffffffffffffffffffffff168173ffffffffffffffffffffffffffffffffffffffff1614156104ad57600080fd5b7f6141b54b56b8a52a8c6f5cd2a857f6117b18ffbf4d46bd3106f300a839cbf5ea82826040516104de9291906124e5565b60405180910390a18073ffffffffffffffffffffffffffffffffffffffff166108fc839081150290604051600060405180830381858888f1935050505015801561052c573d6000803e3d6000fd5b505050565b6060600060048054806020026020016040519081016040528092919081815260200182805480156105b757602002820191906000526020600020905b8160009054906101000a900473ffffffffffffffffffffffffffffffffffffffff1673ffffffffffffffffffffffffffffffffffffffff168152602001906001019080831161056d575b505050505090506000815167ffffffffffffffff8111156105db576105da612875565b5b6040519080825280602002602001820160405280156106095781602001602082028036833780820191505090505b50905060008060035490506000479050610621611c07565b60005b8651811015610890576005600088838151811061064457610643612846565b5b602002602001015173ffffffffffffffffffffffffffffffffffffffff1673ffffffffffffffffffffffffffffffffffffffff1681526020019081526020016000206040518060800160405290816000820160009054906101000a900460ff161515151581526020016000820160019054906101000a90046bffffffffffffffffffffffff166bffffffffffffffffffffffff166bffffffffffffffffffffffff16815260200160008201600d9054906101000a90046bffffffffffffffffffffffff166bffffffffffffffffffffffff166bffffffffffffffffffffffff1681526020016000820160199054906101000a900466ffffffffffffff1666ffffffffffffff1666ffffffffffffff168152505091504284836060015166ffffffffffffff166107739190612625565b11158015610793575081604001516bffffffffffffffffffffffff168310155b80156107e1575081602001516bffffffffffffffffffffffff168782815181106107c0576107bf612846565b5b602002602001015173ffffffffffffffffffffffffffffffffffffffff1631105b1561087d578681815181106107f9576107f8612846565b5b602002602001015186868151811061081457610813612846565b5b602002602001019073ffffffffffffffffffffffffffffffffffffffff16908173ffffffffffffffffffffffffffffffffffffffff16815250508480610859906127ce565b95505081604001516bffffffffffffffffffffffff168361087a919061267b565b92505b8080610888906127ce565b915050610624565b508551841461089d578385525b84965050505050505090565b6108b1610de7565b156108f1576040517f08c379a00000000000000000000000000000000000000000000000000000000081526004016108e89061248a565b60405180910390fd5b60006003549050610900611c07565b60005b8351811015610c87576005600085838151811061092357610922612846565b5b602002602001015173ffffffffffffffffffffffffffffffffffffffff1673ffffffffffffffffffffffffffffffffffffffff1681526020019081526020016000206040518060800160405290816000820160009054906101000a900460ff161515151581526020016000820160019054906101000a90046bffffffffffffffffffffffff166bffffffffffffffffffffffff166bffffffffffffffffffffffff16815260200160008201600d9054906101000a90046bffffffffffffffffffffffff166bffffffffffffffffffffffff166bffffffffffffffffffffffff1681526020016000820160199054906101000a900466ffffffffffffff1666ffffffffffffff1666ffffffffffffff1681525050915081600001518015610a6157504283836060015166ffffffffffffff16610a5e9190612625565b11155b8015610aaf575081602001516bffffffffffffffffffffffff16848281518110610a8e57610a8d612846565b5b602002602001015173ffffffffffffffffffffffffffffffffffffffff1631105b15610c62576000848281518110610ac957610ac8612846565b5b602002602001015173ffffffffffffffffffffffffffffffffffffffff166108fc84604001516bffffffffffffffffffffffff169081150290604051600060405180830381858888f1935050505090508015610c02574260056000878581518110610b3757610b36612846565b5b602002602001015173ffffffffffffffffffffffffffffffffffffffff1673ffffffffffffffffffffffffffffffffffffffff16815260200190815260200160002060000160196101000a81548166ffffffffffffff021916908366ffffffffffffff160217905550848281518110610bb357610bb2612846565b5b602002602001015173ffffffffffffffffffffffffffffffffffffffff167f9eec55c371a49ce19e0a5792787c79b32dcf7d3490aa737436b49c0978ce9ce960405160405180910390a2610c60565b848281518110610c1557610c14612846565b5b602002602001015173ffffffffffffffffffffffffffffffffffffffff167fa9ff7a9b96721b0e16adb7de9db0764fbfd6a4516d4d165f9564e8c3755eb10560405160405180910390a25b505b61d6d85a1015610c7457505050610c8b565b8080610c7f906127ce565b915050610903565b5050505b50565b610c966118fe565b610c9e61198e565b565b610ca86118fe565b7f04330086c73b1fe1e13cd47a61c692e7c4399b5de08ed94b7ab824684af0932360035482604051610cdb92919061250e565b60405180910390a18060038190555050565b6000600354905090565b600260009054906101000a900473ffffffffffffffffffffffffffffffffffffffff1673ffffffffffffffffffffffffffffffffffffffff163373ffffffffffffffffffffffffffffffffffffffff1614610d7e576040517fd3a6803400000000000000000000000000000000000000000000000000000000815260040160405180910390fd5b610d86610de7565b15610dc6576040517f08c379a0000000000000000000000000000000000000000000000000000000008152600401610dbd9061248a565b60405180910390fd5b60008282810190610dd7919061203d565b9050610de2816108a9565b505050565b6000600160149054906101000a900460ff16905090565b60006060610e0a610de7565b15610e4a576040517f08c379a0000000000000000000000000000000000000000000000000000000008152600401610e419061248a565b60405180910390fd5b6000610e54610531565b90506000815111925080604051602001610e6e9190612378565b6040516020818303038152906040529150509250929050565b60606004805480602002602001604051908101604052809291908181526020018280548015610f0b57602002820191906000526020600020905b8160009054906101000a900473ffffffffffffffffffffffffffffffffffffffff1673ffffffffffffffffffffffffffffffffffffffff1681526020019060010190808311610ec1575b5050505050905090565b600160009054906101000a900473ffffffffffffffffffffffffffffffffffffffff1673ffffffffffffffffffffffffffffffffffffffff163373ffffffffffffffffffffffffffffffffffffffff1614610fa5576040517f08c379a0000000000000000000000000000000000000000000000000000000008152600401610f9c9061244a565b60405180910390fd5b60008060009054906101000a900473ffffffffffffffffffffffffffffffffffffffff169050336000806101000a81548173ffffffffffffffffffffffffffffffffffffffff021916908373ffffffffffffffffffffffffffffffffffffffff1602179055506000600160006101000a81548173ffffffffffffffffffffffffffffffffffffffff021916908373ffffffffffffffffffffffffffffffffffffffff1602179055503373ffffffffffffffffffffffffffffffffffffffff168173ffffffffffffffffffffffffffffffffffffffff167f8be0079c531659141344cd1fd0a4f28419497f9722a3daafe3b4186f6b6457e060405160405180910390a350565b6000806000806000600560008773ffffffffffffffffffffffffffffffffffffffff1673ffffffffffffffffffffffffffffffffffffffff1681526020019081526020016000206040518060800160405290816000820160009054906101000a900460ff161515151581526020016000820160019054906101000a90046bffffffffffffffffffffffff166bffffffffffffffffffffffff166bffffffffffffffffffffffff16815260200160008201600d9054906101000a90046bffffffffffffffffffffffff166bffffffffffffffffffffffff166bffffffffffffffffffffffff1681526020016000820160199054906101000a900466ffffffffffffff1666ffffffffffffff1666ffffffffffffff1681525050905080600001518160200151826040015183606001519450945094509450509193509193565b6000600260009054906101000a900473ffffffffffffffffffffffffffffffffffffffff16905090565b61121a6118fe565b611222611a30565b565b60008060009054906101000a900473ffffffffffffffffffffffffffffffffffffffff16905090565b6112556118fe565b600073ffffffffffffffffffffffffffffffffffffffff168173ffffffffffffffffffffffffffffffffffffffff16141561128f57600080fd5b7fb732223055abcde751d7a24272ffc8a3aa571cb72b443969a4199b7ecd59f8b9600260009054906101000a900473ffffffffffffffffffffffffffffffffffffffff16826040516112e292919061234f565b60405180910390a180600260006101000a81548173ffffffffffffffffffffffffffffffffffffffff021916908373ffffffffffffffffffffffffffffffffffffffff16021790555050565b6113366118fe565b83839050868690501415806113515750818190508686905014155b15611388576040517f3869bbe600000000000000000000000000000000000000000000000000000000815260040160405180910390fd5b6000600480548060200260200160405190810160405280929190818152602001828054801561140c57602002820191906000526020600020905b8160009054906101000a900473ffffffffffffffffffffffffffffffffffffffff1673ffffffffffffffffffffffffffffffffffffffff16815260200190600101908083116113c2575b5050505050905060005b81518110156114a75760006005600084848151811061143857611437612846565b5b602002602001015173ffffffffffffffffffffffffffffffffffffffff1673ffffffffffffffffffffffffffffffffffffffff16815260200190815260200160002060000160006101000a81548160ff021916908315150217905550808061149f906127ce565b915050611416565b5060005b8787905081101561186357600560008989848181106114cd576114cc612846565b5b90506020020160208101906114e29190611f1c565b73ffffffffffffffffffffffffffffffffffffffff1673ffffffffffffffffffffffffffffffffffffffff16815260200190815260200160002060000160009054906101000a900460ff16156115965787878281811061154557611544612846565b5b905060200201602081019061155a9190611f1c565b6040517f9f2277f300000000000000000000000000000000000000000000000000000000815260040161158d9190612334565b60405180910390fd5b600073ffffffffffffffffffffffffffffffffffffffff168888838181106115c1576115c0612846565b5b90506020020160208101906115d69190611f1c565b73ffffffffffffffffffffffffffffffffffffffff161415611624576040517f3869bbe600000000000000000000000000000000000000000000000000000000815260040160405180910390fd5b600084848381811061163957611638612846565b5b905060200201602081019061164e9190612140565b6bffffffffffffffffffffffff161415611694576040517f3869bbe600000000000000000000000000000000000000000000000000000000815260040160405180910390fd5b60405180608001604052806001151581526020018787848181106116bb576116ba612846565b5b90506020020160208101906116d09190612140565b6bffffffffffffffffffffffff1681526020018585848181106116f6576116f5612846565b5b905060200201602081019061170b9190612140565b6bffffffffffffffffffffffff168152602001600066ffffffffffffff16815250600560008a8a8581811061174357611742612846565b5b90506020020160208101906117589190611f1c565b73ffffffffffffffffffffffffffffffffffffffff1673ffffffffffffffffffffffffffffffffffffffff16815260200190815260200160002060008201518160000160006101000a81548160ff02191690831515021790555060208201518160000160016101000a8154816bffffffffffffffffffffffff02191690836bffffffffffffffffffffffff160217905550604082015181600001600d6101000a8154816bffffffffffffffffffffffff02191690836bffffffffffffffffffffffff16021790555060608201518160000160196101000a81548166ffffffffffffff021916908366ffffffffffffff160217905550905050808061185b906127ce565b9150506114ab565b50868660049190611875929190611c56565b5050505050505050565b80600560008473ffffffffffffffffffffffffffffffffffffffff1673ffffffffffffffffffffffffffffffffffffffff16815260200190815260200160002060000160196101000a81548166ffffffffffffff021916908366ffffffffffffff1602179055505050565b6118f26118fe565b6118fb81611ad2565b50565b60008054906101000a900473ffffffffffffffffffffffffffffffffffffffff1673ffffffffffffffffffffffffffffffffffffffff163373ffffffffffffffffffffffffffffffffffffffff161461198c576040517f08c379a00000000000000000000000000000000000000000000000000000000081526004016119839061246a565b60405180910390fd5b565b611996610de7565b6119d5576040517f08c379a00000000000000000000000000000000000000000000000000000000081526004016119cc9061242a565b60405180910390fd5b6000600160146101000a81548160ff0219169083151502179055507f5db9ee0a495bf2e6ff9c91a7834c1ba4fdd244a5e8aa4e537bd38aeae4b073aa611a19611bff565b604051611a269190612334565b60405180910390a1565b611a38610de7565b15611a78576040517f08c379a0000000000000000000000000000000000000000000000000000000008152600401611a6f9061248a565b60405180910390fd5b60018060146101000a81548160ff0219169083151502179055507f62e78cea01bee320cd4e420270b5ea74000d11b0c9f74754ebdbfc544b05a258611abb611bff565b604051611ac89190612334565b60405180910390a1565b3373ffffffffffffffffffffffffffffffffffffffff168173ffffffffffffffffffffffffffffffffffffffff161415611b41576040517f08c379a0000000000000000000000000000000000000000000000000000000008152600401611b38906124aa565b60405180910390fd5b80600160006101000a81548173ffffffffffffffffffffffffffffffffffffffff021916908373ffffffffffffffffffffffffffffffffffffffff1602179055508073ffffffffffffffffffffffffffffffffffffffff1660008054906101000a900473ffffffffffffffffffffffffffffffffffffffff1673ffffffffffffffffffffffffffffffffffffffff167fed8889f560326eb138920d842192f0eb3dd22b4f139c87a2c57538e05bae127860405160405180910390a350565b600033905090565b604051806080016040528060001515815260200160006bffffffffffffffffffffffff16815260200160006bffffffffffffffffffffffff168152602001600066ffffffffffffff1681525090565b828054828255906000526020600020908101928215611ce5579160200282015b82811115611ce457823573ffffffffffffffffffffffffffffffffffffffff168260006101000a81548173ffffffffffffffffffffffffffffffffffffffff021916908373ffffffffffffffffffffffffffffffffffffffff16021790555091602001919060010190611c76565b5b509050611cf29190611cf6565b5090565b5b80821115611d0f576000816000905550600101611cf7565b5090565b6000611d26611d2184612593565b61256e565b90508083825260208201905082856020860282011115611d4957611d486128ae565b5b60005b85811015611d795781611d5f8882611d83565b845260208401935060208301925050600181019050611d4c565b5050509392505050565b600081359050611d928161299b565b92915050565b600081359050611da7816129b2565b92915050565b60008083601f840112611dc357611dc26128a9565b5b8235905067ffffffffffffffff811115611de057611ddf6128a4565b5b602083019150836020820283011115611dfc57611dfb6128ae565b5b9250929050565b600082601f830112611e1857611e176128a9565b5b8135611e28848260208601611d13565b91505092915050565b60008083601f840112611e4757611e466128a9565b5b8235905067ffffffffffffffff811115611e6457611e636128a4565b5b602083019150836020820283011115611e8057611e7f6128ae565b5b9250929050565b60008083601f840112611e9d57611e9c6128a9565b5b8235905067ffffffffffffffff811115611eba57611eb96128a4565b5b602083019150836001820283011115611ed657611ed56128ae565b5b9250929050565b600081359050611eec816129c9565b92915050565b600081359050611f01816129e0565b92915050565b600081359050611f16816129f7565b92915050565b600060208284031215611f3257611f316128b8565b5b6000611f4084828501611d83565b91505092915050565b60008060408385031215611f6057611f5f6128b8565b5b6000611f6e85828601611d83565b9250506020611f7f85828601611ef2565b9150509250929050565b60008060008060008060608789031215611fa657611fa56128b8565b5b600087013567ffffffffffffffff811115611fc457611fc36128b3565b5b611fd089828a01611dad565b9650965050602087013567ffffffffffffffff811115611ff357611ff26128b3565b5b611fff89828a01611e31565b9450945050604087013567ffffffffffffffff811115612022576120216128b3565b5b61202e89828a01611e31565b92509250509295509295509295565b600060208284031215612053576120526128b8565b5b600082013567ffffffffffffffff811115612071576120706128b3565b5b61207d84828501611e03565b91505092915050565b6000806020838503121561209d5761209c6128b8565b5b600083013567ffffffffffffffff8111156120bb576120ba6128b3565b5b6120c785828601611e87565b92509250509250929050565b6000602082840312156120e9576120e86128b8565b5b60006120f784828501611edd565b91505092915050565b60008060408385031215612117576121166128b8565b5b600061212585828601611edd565b925050602061213685828601611d98565b9150509250929050565b600060208284031215612156576121556128b8565b5b600061216484828501611f07565b91505092915050565b60006121798383612194565b60208301905092915050565b61218e81612734565b82525050565b61219d816126af565b82525050565b6121ac816126af565b82525050565b60006121bd826125cf565b6121c781856125f2565b93506121d2836125bf565b8060005b838110156122035781516121ea888261216d565b97506121f5836125e5565b9250506001810190506121d6565b5085935050505092915050565b612219816126d3565b82525050565b600061222a826125da565b6122348185612603565b935061224481856020860161276a565b61224d816128bd565b840191505092915050565b6000612265601483612614565b9150612270826128ce565b602082019050919050565b6000612288601683612614565b9150612293826128f7565b602082019050919050565b60006122ab601683612614565b91506122b682612920565b602082019050919050565b60006122ce601083612614565b91506122d982612949565b602082019050919050565b60006122f1601783612614565b91506122fc82612972565b602082019050919050565b612310816126ff565b82525050565b61231f81612709565b82525050565b61232e8161271c565b82525050565b600060208201905061234960008301846121a3565b92915050565b600060408201905061236460008301856121a3565b61237160208301846121a3565b9392505050565b6000602082019050818103600083015261239281846121b2565b905092915050565b60006020820190506123af6000830184612210565b92915050565b60006040820190506123ca6000830185612210565b81810360208301526123dc818461221f565b90509392505050565b60006080820190506123fa6000830187612210565b6124076020830186612325565b6124146040830185612325565b6124216060830184612316565b95945050505050565b6000602082019050818103600083015261244381612258565b9050919050565b600060208201905081810360008301526124638161227b565b9050919050565b600060208201905081810360008301526124838161229e565b9050919050565b600060208201905081810360008301526124a3816122c1565b9050919050565b600060208201905081810360008301526124c3816122e4565b9050919050565b60006020820190506124df6000830184612307565b92915050565b60006040820190506124fa6000830185612307565b6125076020830184612185565b9392505050565b60006040820190506125236000830185612307565b6125306020830184612307565b9392505050565b600060608201905061254c6000830186612307565b6125596020830185612307565b61256660408301846121a3565b949350505050565b6000612578612589565b9050612584828261279d565b919050565b6000604051905090565b600067ffffffffffffffff8211156125ae576125ad612875565b5b602082029050602081019050919050565b6000819050602082019050919050565b600081519050919050565b600081519050919050565b6000602082019050919050565b600082825260208201905092915050565b600082825260208201905092915050565b600082825260208201905092915050565b6000612630826126ff565b915061263b836126ff565b9250827fffffffffffffffffffffffffffffffffffffffffffffffffffffffffffffffff038211156126705761266f612817565b5b828201905092915050565b6000612686826126ff565b9150612691836126ff565b9250828210156126a4576126a3612817565b5b828203905092915050565b60006126ba826126df565b9050919050565b60006126cc826126df565b9050919050565b60008115159050919050565b600073ffffffffffffffffffffffffffffffffffffffff82169050919050565b6000819050919050565b600066ffffffffffffff82169050919050565b60006bffffffffffffffffffffffff82169050919050565b600061273f82612746565b9050919050565b600061275182612758565b9050919050565b6000612763826126df565b9050919050565b60005b8381101561278857808201518184015260208101905061276d565b83811115612797576000848401525b50505050565b6127a6826128bd565b810181811067ffffffffffffffff821117156127c5576127c4612875565b5b80604052505050565b60006127d9826126ff565b91507fffffffffffffffffffffffffffffffffffffffffffffffffffffffffffffffff82141561280c5761280b612817565b5b600182019050919050565b7f4e487b7100000000000000000000000000000000000000000000000000000000600052601160045260246000fd5b7f4e487b7100000000000000000000000000000000000000000000000000000000600052603260045260246000fd5b7f4e487b7100000000000000000000000000000000000000000000000000000000600052604160045260246000fd5b600080fd5b600080fd5b600080fd5b600080fd5b600080fd5b6000601f19601f8301169050919050565b7f5061757361626c653a206e6f7420706175736564000000000000000000000000600082015250565b7f4d7573742062652070726f706f736564206f776e657200000000000000000000600082015250565b7f4f6e6c792063616c6c61626c65206279206f776e657200000000000000000000600082015250565b7f5061757361626c653a2070617573656400000000000000000000000000000000600082015250565b7f43616e6e6f74207472616e7366657220746f2073656c66000000000000000000600082015250565b6129a4816126af565b81146129af57600080fd5b50565b6129bb816126c1565b81146129c657600080fd5b50565b6129d2816126ff565b81146129dd57600080fd5b50565b6129e981612709565b81146129f457600080fd5b50565b612a008161271c565b8114612a0b57600080fd5b5056fea2646970667358221220607f31429af7fa3f83f235246546fc32715254b8884986c3083ad2bec0ecb26f64736f6c63430008060033",
  "linkReferences": {},
  "deployedLinkReferences": {}
}