{
  "_format": "hh-sol-artifact-1",
  "contractName": "NftBet",
  "sourceName": "contracts/main.sol",
  "abi": [
    {
      "inputs": [],
      "stateMutability": "nonpayable",
      "type": "constructor"
    },
    {
      "anonymous": false,
      "inputs": [
        {
          "indexed": true,
          "internalType": "bytes32",
          "name": "id",
          "type": "bytes32"
        }
      ],
      "name": "ChainlinkCancelled",
      "type": "event"
    },
    {
      "anonymous": false,
      "inputs": [
        {
          "indexed": true,
          "internalType": "bytes32",
          "name": "id",
          "type": "bytes32"
        }
      ],
      "name": "ChainlinkFulfilled",
      "type": "event"
    },
    {
      "anonymous": false,
      "inputs": [
        {
          "indexed": true,
          "internalType": "bytes32",
          "name": "id",
          "type": "bytes32"
        }
      ],
      "name": "ChainlinkRequested",
      "type": "event"
    },
    {
      "anonymous": false,
      "inputs": [
        {
          "indexed": false,
          "internalType": "address",
          "name": "creator",
          "type": "address"
        }
      ],
      "name": "GameCreated",
      "type": "event"
    },
    {
      "anonymous": false,
      "inputs": [
        {
          "indexed": false,
          "internalType": "bytes32",
          "name": "requestId",
          "type": "bytes32"
        }
      ],
      "name": "OracleRequestSent",
      "type": "event"
    },
    {
      "anonymous": false,
      "inputs": [
        {
          "indexed": false,
          "internalType": "bytes32",
          "name": "requestId",
          "type": "bytes32"
        },
        {
          "indexed": false,
          "internalType": "uint256",
          "name": "data",
          "type": "uint256"
        }
      ],
      "name": "OracleResultReturned",
      "type": "event"
    },
    {
      "inputs": [
        {
          "internalType": "string",
          "name": "gameName",
          "type": "string"
        },
        {
          "internalType": "string",
          "name": "gameSymbol",
          "type": "string"
        },
        {
          "internalType": "string",
          "name": "networkId",
          "type": "string"
        },
        {
          "internalType": "address",
          "name": "collectionAddress",
          "type": "address"
        },
        {
          "internalType": "string",
          "name": "date",
          "type": "string"
        },
        {
          "internalType": "string",
          "name": "floor_price",
          "type": "string"
        }
      ],
      "name": "createGame",
      "outputs": [
        {
          "internalType": "bool",
          "name": "",
          "type": "bool"
        }
      ],
      "stateMutability": "nonpayable",
      "type": "function"
    },
    {
      "inputs": [
        {
          "internalType": "bytes32",
          "name": "_requestId",
          "type": "bytes32"
        },
        {
          "internalType": "uint256",
          "name": "_data",
          "type": "uint256"
        }
      ],
      "name": "fulfill",
      "outputs": [],
      "stateMutability": "nonpayable",
      "type": "function"
    },
    {
      "inputs": [
        {
          "internalType": "uint256",
          "name": "",
          "type": "uint256"
        }
      ],
      "name": "gameArray",
      "outputs": [
        {
          "internalType": "string",
          "name": "name",
          "type": "string"
        },
        {
          "internalType": "string",
          "name": "symbol",
          "type": "string"
        },
        {
          "internalType": "address",
          "name": "creator",
          "type": "address"
        },
        {
          "internalType": "string",
          "name": "networkId",
          "type": "string"
        },
        {
          "internalType": "address",
          "name": "collectionAddress",
          "type": "address"
        },
        {
          "internalType": "string",
          "name": "date",
          "type": "string"
        },
        {
          "internalType": "string",
          "name": "floor_price",
          "type": "string"
        },
        {
          "internalType": "uint256",
          "name": "gameID",
          "type": "uint256"
        },
        {
          "internalType": "bytes32",
          "name": "results",
          "type": "bytes32"
        }
      ],
      "stateMutability": "view",
      "type": "function"
    },
    {
      "inputs": [
        {
          "internalType": "uint256",
          "name": "",
          "type": "uint256"
        }
      ],
      "name": "games",
      "outputs": [
        {
          "internalType": "string",
          "name": "name",
          "type": "string"
        },
        {
          "internalType": "string",
          "name": "symbol",
          "type": "string"
        },
        {
          "internalType": "address",
          "name": "creator",
          "type": "address"
        },
        {
          "internalType": "string",
          "name": "networkId",
          "type": "string"
        },
        {
          "internalType": "address",
          "name": "collectionAddress",
          "type": "address"
        },
        {
          "internalType": "string",
          "name": "date",
          "type": "string"
        },
        {
          "internalType": "string",
          "name": "floor_price",
          "type": "string"
        },
        {
          "internalType": "uint256",
          "name": "gameID",
          "type": "uint256"
        },
        {
          "internalType": "bytes32",
          "name": "results",
          "type": "bytes32"
        }
      ],
      "stateMutability": "view",
      "type": "function"
    },
    {
      "inputs": [],
      "name": "price",
      "outputs": [
        {
          "internalType": "uint256",
          "name": "",
          "type": "uint256"
        }
      ],
      "stateMutability": "view",
      "type": "function"
    },
    {
      "inputs": [
        {
          "internalType": "string",
          "name": "apiKey",
          "type": "string"
        },
        {
          "internalType": "uint256",
          "name": "gameID",
          "type": "uint256"
        }
      ],
      "name": "requestData",
      "outputs": [
        {
          "internalType": "bytes32",
          "name": "requestId",
          "type": "bytes32"
        }
      ],
      "stateMutability": "nonpayable",
      "type": "function"
    },
    {
      "inputs": [
        {
          "internalType": "uint256",
          "name": "gameID",
          "type": "uint256"
        }
      ],
      "name": "resolveGame",
      "outputs": [
        {
          "internalType": "bool",
          "name": "",
          "type": "bool"
        }
      ],
      "stateMutability": "nonpayable",
      "type": "function"
    }
  ],
  "bytecode": "0x608060405260016004556000600d5534801561001a57600080fd5b5033600a60006101000a81548173ffffffffffffffffffffffffffffffffffffffff021916908373ffffffffffffffffffffffffffffffffffffffff16021790555061007f73326c977e6efc84e512bb9c30f76e30c160ed06fb61010e60201b60201c565b7358bbdbfb6fca3129b91f0dbe372098123b38b5e9600760006101000a81548173ffffffffffffffffffffffffffffffffffffffff021916908373ffffffffffffffffffffffffffffffffffffffff1602179055507f6138323439356138666435623463623439326231376463306363333161346665600881905550662386f26fc10000600981905550610152565b80600260006101000a81548173ffffffffffffffffffffffffffffffffffffffff021916908373ffffffffffffffffffffffffffffffffffffffff16021790555050565b6159d280620001626000396000f3fe60806040523480156200001157600080fd5b5060043610620000885760003560e01c80633cbde95611620000635780633cbde956146200013f5780634357855e1462000175578063a035b1fe1462000195578063b7a5a5b614620001b75762000088565b8063047e27ae146200008d578063071a7bb014620000c3578063117a5b901462000101575b600080fd5b620000ab6004803603810190620000a5919062001dc7565b620001ed565b604051620000ba9190620023d6565b60405180910390f35b620000e16004803603810190620000db919062001efe565b62000603565b604051620000f8999897969594939291906200243d565b60405180910390f35b6200011f600480360381019062000119919062001efe565b62000972565b60405162000136999897969594939291906200243d565b60405180910390f35b6200015d600480360381019062000157919062001d5d565b62000cd0565b6040516200016c9190620023f3565b60405180910390f35b6200019360048036038101906200018d919062001d16565b62000ff7565b005b6200019f6200113f565b604051620001ae919062002543565b60405180910390f35b620001d56004803603810190620001cf919062001efe565b62001145565b604051620001e49190620023d6565b60405180910390f35b6000620001f9620019e9565b33816040019073ffffffffffffffffffffffffffffffffffffffff16908173ffffffffffffffffffffffffffffffffffffffff168152505087816000018190525086816020018190525085816060018190525084816080019073ffffffffffffffffffffffffffffffffffffffff16908173ffffffffffffffffffffffffffffffffffffffff1681525050838160a00181905250828160c00181905250600d60008154620002a790620029ec565b9190508190558160e0018181525050600c81908060018154018082558091505060019003906000526020600020906009020160009091909190915060008201518160000190805190602001906200030092919062001a64565b5060208201518160010190805190602001906200031f92919062001a64565b5060408201518160020160006101000a81548173ffffffffffffffffffffffffffffffffffffffff021916908373ffffffffffffffffffffffffffffffffffffffff16021790555060608201518160030190805190602001906200038592919062001a64565b5060808201518160040160006101000a81548173ffffffffffffffffffffffffffffffffffffffff021916908373ffffffffffffffffffffffffffffffffffffffff16021790555060a0820151816005019080519060200190620003eb92919062001a64565b5060c08201518160060190805190602001906200040a92919062001a64565b5060e082015181600701556101008201518160080155505080600b6000600d54815260200190815260200160002060008201518160000190805190602001906200045692919062001a64565b5060208201518160010190805190602001906200047592919062001a64565b5060408201518160020160006101000a81548173ffffffffffffffffffffffffffffffffffffffff021916908373ffffffffffffffffffffffffffffffffffffffff1602179055506060820151816003019080519060200190620004db92919062001a64565b5060808201518160040160006101000a81548173ffffffffffffffffffffffffffffffffffffffff021916908373ffffffffffffffffffffffffffffffffffffffff16021790555060a08201518160050190805190602001906200054192919062001a64565b5060c08201518160060190805190602001906200056092919062001a64565b5060e08201518160070155610100820151816008015590505060003389896040516200058c9062001af5565b6200059a93929190620022b2565b604051809103906000f080158015620005b7573d6000803e3d6000fd5b5090507f4f0d1d413a983b9df8ab6ab954635b186a1e9a09ee6dc1b43263ddbf4841226733604051620005eb919062002295565b60405180910390a16001925050509695505050505050565b600c81815481106200061457600080fd5b9060005260206000209060090201600091509050806000018054620006399062002980565b80601f0160208091040260200160405190810160405280929190818152602001828054620006679062002980565b8015620006b85780601f106200068c57610100808354040283529160200191620006b8565b820191906000526020600020905b8154815290600101906020018083116200069a57829003601f168201915b505050505090806001018054620006cf9062002980565b80601f0160208091040260200160405190810160405280929190818152602001828054620006fd9062002980565b80156200074e5780601f1062000722576101008083540402835291602001916200074e565b820191906000526020600020905b8154815290600101906020018083116200073057829003601f168201915b5050505050908060020160009054906101000a900473ffffffffffffffffffffffffffffffffffffffff16908060030180546200078b9062002980565b80601f0160208091040260200160405190810160405280929190818152602001828054620007b99062002980565b80156200080a5780601f10620007de576101008083540402835291602001916200080a565b820191906000526020600020905b815481529060010190602001808311620007ec57829003601f168201915b5050505050908060040160009054906101000a900473ffffffffffffffffffffffffffffffffffffffff1690806005018054620008479062002980565b80601f0160208091040260200160405190810160405280929190818152602001828054620008759062002980565b8015620008c65780601f106200089a57610100808354040283529160200191620008c6565b820191906000526020600020905b815481529060010190602001808311620008a857829003601f168201915b505050505090806006018054620008dd9062002980565b80601f01602080910402602001604051908101604052809291908181526020018280546200090b9062002980565b80156200095c5780601f1062000930576101008083540402835291602001916200095c565b820191906000526020600020905b8154815290600101906020018083116200093e57829003601f168201915b5050505050908060070154908060080154905089565b600b602052806000526040600020600091509050806000018054620009979062002980565b80601f0160208091040260200160405190810160405280929190818152602001828054620009c59062002980565b801562000a165780601f10620009ea5761010080835404028352916020019162000a16565b820191906000526020600020905b815481529060010190602001808311620009f857829003601f168201915b50505050509080600101805462000a2d9062002980565b80601f016020809104026020016040519081016040528092919081815260200182805462000a5b9062002980565b801562000aac5780601f1062000a805761010080835404028352916020019162000aac565b820191906000526020600020905b81548152906001019060200180831162000a8e57829003601f168201915b5050505050908060020160009054906101000a900473ffffffffffffffffffffffffffffffffffffffff169080600301805462000ae99062002980565b80601f016020809104026020016040519081016040528092919081815260200182805462000b179062002980565b801562000b685780601f1062000b3c5761010080835404028352916020019162000b68565b820191906000526020600020905b81548152906001019060200180831162000b4a57829003601f168201915b5050505050908060040160009054906101000a900473ffffffffffffffffffffffffffffffffffffffff169080600501805462000ba59062002980565b80601f016020809104026020016040519081016040528092919081815260200182805462000bd39062002980565b801562000c245780601f1062000bf85761010080835404028352916020019162000c24565b820191906000526020600020905b81548152906001019060200180831162000c0657829003601f168201915b50505050509080600601805462000c3b9062002980565b80601f016020809104026020016040519081016040528092919081815260200182805462000c699062002980565b801562000cba5780601f1062000c8e5761010080835404028352916020019162000cba565b820191906000526020600020905b81548152906001019060200180831162000c9c57829003601f168201915b5050505050908060070154908060080154905089565b600080600b6000848152602001908152602001600020600301805462000cf69062002980565b80601f016020809104026020016040519081016040528092919081815260200182805462000d249062002980565b801562000d755780601f1062000d495761010080835404028352916020019162000d75565b820191906000526020600020905b81548152906001019060200180831162000d5757829003601f168201915b505050505090506000600b600085815260200190815260200160002060040160009054906101000a900473ffffffffffffffffffffffffffffffffffffffff1690506000600b6000868152602001908152602001600020600501805462000ddc9062002980565b80601f016020809104026020016040519081016040528092919081815260200182805462000e0a9062002980565b801562000e5b5780601f1062000e2f5761010080835404028352916020019162000e5b565b820191906000526020600020905b81548152906001019060200180831162000e3d57829003601f168201915b505050505090506000838383848b8b60405160200162000e8196959493929190620021f9565b6040516020818303038152906040529050600062000eaa60085430634357855e60e01b62001150565b905062000ef86040518060400160405280600381526020017f67657400000000000000000000000000000000000000000000000000000000008152508383620011879092919063ffffffff16565b62000f796040518060400160405280600481526020017f70617468000000000000000000000000000000000000000000000000000000008152506040518060400160405280601f81526020017f646174612e6974656d732e302e666c6f6f725f70726963655f7765695f37640081525083620011879092919063ffffffff16565b600062000fac600760009054906101000a900473ffffffffffffffffffffffffffffffffffffffff1683600954620011be565b90507f2623af4aa03af6c852d773dd28dec675dda47e077d1d72e414ca1529258de93c8160405162000fdf9190620023f3565b60405180910390a18096505050505050509392505050565b816005600082815260200190815260200160002060009054906101000a900473ffffffffffffffffffffffffffffffffffffffff1673ffffffffffffffffffffffffffffffffffffffff163373ffffffffffffffffffffffffffffffffffffffff16146200109c576040517f08c379a0000000000000000000000000000000000000000000000000000000008152600401620010939062002521565b60405180910390fd5b6005600082815260200190815260200160002060006101000a81549073ffffffffffffffffffffffffffffffffffffffff0219169055807f7cc135e0cebb02c3480ae5d74d377283180a2601f8f644edf7987b009316c63a60405160405180910390a27f071e7138c97f32f4505a0134b38495a4b1edd2efa63648be59575c96b31bf82b83836040516200113292919062002410565b60405180910390a1505050565b60065481565b600060019050919050565b6200115a62001b03565b6200116462001b03565b6200117d8585858462001290909392919063ffffffff16565b9150509392505050565b620011a08284608001516200134490919063ffffffff16565b620011b98184608001516200134490919063ffffffff16565b505050565b6000806004549050600181620011d5919062002602565b6004819055506000634042994660e01b60008087600001513089604001518760018c608001516000015160405160240162001218989796959493929190620022fd565b604051602081830303815290604052907bffffffffffffffffffffffffffffffffffffffffffffffffffffffff19166020820180517bffffffffffffffffffffffffffffffffffffffffffffffffffffffff8381831617835250505050905062001285868386846200136d565b925050509392505050565b6200129a62001b03565b620012ac85608001516101006200151c565b508385600001818152505082856020019073ffffffffffffffffffffffffffffffffffffffff16908173ffffffffffffffffffffffffffffffffffffffff16815250508185604001907bffffffffffffffffffffffffffffffffffffffffffffffffffffffff191690817bffffffffffffffffffffffffffffffffffffffffffffffffffffffff191681525050849050949350505050565b62001353826003835162001591565b6200136881836200173090919063ffffffff16565b505050565b6000308460405160200162001384929190620021c9565b604051602081830303815290604052805190602001209050846005600083815260200190815260200160002060006101000a81548173ffffffffffffffffffffffffffffffffffffffff021916908373ffffffffffffffffffffffffffffffffffffffff160217905550807fb5e6e01e79f91267dc17b4e6314d5d4d03593d2ceee0fbb452b750bd70ea5af960405160405180910390a2600260009054906101000a900473ffffffffffffffffffffffffffffffffffffffff1673ffffffffffffffffffffffffffffffffffffffff16634000aea08685856040518463ffffffff1660e01b81526004016200147c9392919062002392565b602060405180830381600087803b1580156200149757600080fd5b505af1158015620014ac573d6000803e3d6000fd5b505050506040513d601f19601f82011682018060405250810190620014d2919062001ce4565b62001514576040517f08c379a00000000000000000000000000000000000000000000000000000000081526004016200150b90620024ff565b60405180910390fd5b949350505050565b6200152662001b72565b600060208362001537919062002a6c565b146200156a576020826200154c919062002a6c565b60206200155a919062002858565b8262001567919062002602565b91505b81836020018181525050604051808452600081528281016020016040525082905092915050565b60178167ffffffffffffffff1611620015cc57620015c58160058460ff16901b60ff1617846200175690919063ffffffff16565b506200172b565b60ff8167ffffffffffffffff16116200162857620015fe601860058460ff16901b17846200175690919063ffffffff16565b50620016218167ffffffffffffffff166001856200177a9092919063ffffffff16565b506200172a565b61ffff8167ffffffffffffffff161162001685576200165b601960058460ff16901b17846200175690919063ffffffff16565b506200167e8167ffffffffffffffff166002856200177a9092919063ffffffff16565b5062001729565b63ffffffff8167ffffffffffffffff1611620016e457620016ba601a60058460ff16901b17846200175690919063ffffffff16565b50620016dd8167ffffffffffffffff166004856200177a9092919063ffffffff16565b5062001728565b62001703601b60058460ff16901b17846200175690919063ffffffff16565b50620017268167ffffffffffffffff166008856200177a9092919063ffffffff16565b505b5b5b5b505050565b6200173a62001b72565b6200174e83846000015151848551620017a0565b905092915050565b6200176062001b72565b620017728384600001515184620018a6565b905092915050565b6200178462001b72565b6200179784856000015151858562001905565b90509392505050565b620017aa62001b72565b8251821115620017b957600080fd5b84602001518285620017cc919062002602565b11156200180a5762001809856002620017f788602001518887620017f1919062002602565b620019a3565b620018039190620027f7565b620019c1565b5b6000808651805187602083010193508088870111156200182a5787860182525b60208701925050505b602084106200187957805182526020826200184f919062002602565b915060208162001860919062002602565b905060208462001871919062002858565b935062001833565b60006001856020036101000a03905080198251168184511681811785525050508692505050949350505050565b620018b062001b72565b83602001518310620018db57620018da8460028660200151620018d49190620027f7565b620019c1565b5b8351805160208583010184815381861415620018f8576001820183525b5050508390509392505050565b6200190f62001b72565b8460200151848362001922919062002602565b111562001951576200195085600286856200193e919062002602565b6200194a9190620027f7565b620019c1565b5b6000600183610100620019659190620026ba565b62001971919062002858565b90508551838682010185831982511617815281518588011115620019955784870182525b505085915050949350505050565b600081831115620019b757829050620019bb565b8190505b92915050565b600082600001519050620019d683836200151c565b50620019e3838262001730565b50505050565b6040518061012001604052806060815260200160608152602001600073ffffffffffffffffffffffffffffffffffffffff16815260200160608152602001600073ffffffffffffffffffffffffffffffffffffffff168152602001606081526020016060815260200160008152602001600080191681525090565b82805462001a729062002980565b90600052602060002090601f01602090048101928262001a96576000855562001ae2565b82601f1062001ab157805160ff191683800117855562001ae2565b8280016001018555821562001ae2579182015b8281111562001ae157825182559160200191906001019062001ac4565b5b50905062001af1919062001b8c565b5090565b612bfa8062002da383390190565b6040518060a0016040528060008019168152602001600073ffffffffffffffffffffffffffffffffffffffff16815260200160007bffffffffffffffffffffffffffffffffffffffffffffffffffffffff191681526020016000815260200162001b6c62001b72565b81525090565b604051806040016040528060608152602001600081525090565b5b8082111562001ba757600081600090555060010162001b8d565b5090565b600062001bc262001bbc8462002589565b62002560565b90508281526020810184848401111562001be15762001be062002b6f565b5b62001bee8482856200293b565b509392505050565b60008135905062001c078162002d3a565b92915050565b60008151905062001c1e8162002d54565b92915050565b60008135905062001c358162002d6e565b92915050565b60008083601f84011262001c545762001c5362002b65565b5b8235905067ffffffffffffffff81111562001c745762001c7362002b60565b5b60208301915083600182028301111562001c935762001c9262002b6a565b5b9250929050565b600082601f83011262001cb25762001cb162002b65565b5b813562001cc484826020860162001bab565b91505092915050565b60008135905062001cde8162002d88565b92915050565b60006020828403121562001cfd5762001cfc62002b79565b5b600062001d0d8482850162001c0d565b91505092915050565b6000806040838503121562001d305762001d2f62002b79565b5b600062001d408582860162001c24565b925050602062001d538582860162001ccd565b9150509250929050565b60008060006040848603121562001d795762001d7862002b79565b5b600084013567ffffffffffffffff81111562001d9a5762001d9962002b74565b5b62001da88682870162001c3b565b9350935050602062001dbd8682870162001ccd565b9150509250925092565b60008060008060008060c0878903121562001de75762001de662002b79565b5b600087013567ffffffffffffffff81111562001e085762001e0762002b74565b5b62001e1689828a0162001c9a565b965050602087013567ffffffffffffffff81111562001e3a5762001e3962002b74565b5b62001e4889828a0162001c9a565b955050604087013567ffffffffffffffff81111562001e6c5762001e6b62002b74565b5b62001e7a89828a0162001c9a565b945050606062001e8d89828a0162001bf6565b935050608087013567ffffffffffffffff81111562001eb15762001eb062002b74565b5b62001ebf89828a0162001c9a565b92505060a087013567ffffffffffffffff81111562001ee35762001ee262002b74565b5b62001ef189828a0162001c9a565b9150509295509295509295565b60006020828403121562001f175762001f1662002b79565b5b600062001f278482850162001ccd565b91505092915050565b62001f3b8162002893565b82525050565b62001f5662001f508262002893565b62002a3a565b82525050565b62001f6781620028a7565b82525050565b62001f7881620028b3565b82525050565b62001f8981620028bd565b82525050565b600062001f9c82620025bf565b62001fa88185620025d5565b935062001fba8185602086016200294a565b62001fc58162002b7e565b840191505092915050565b62001fe562001fdf8262002913565b62002a3a565b82525050565b600062001ff98385620025f7565b9350620020088385846200293b565b82840190509392505050565b60006200202182620025ca565b6200202d8185620025e6565b93506200203f8185602086016200294a565b6200204a8162002b7e565b840191505092915050565b60006200206282620025ca565b6200206e8185620025f7565b9350620020808185602086016200294a565b80840191505092915050565b60006200209b602383620025e6565b9150620020a88262002ba9565b604082019050919050565b6000620020c2602683620025f7565b9150620020cf8262002bf8565b602682019050919050565b6000620020e9600583620025f7565b9150620020f68262002c47565b600582019050919050565b600062002110600483620025f7565b91506200211d8262002c70565b600482019050919050565b600062002137601e83620025f7565b9150620021448262002c99565b601e82019050919050565b60006200215e601783620025f7565b91506200216b8262002cc2565b601782019050919050565b600062002185602883620025e6565b9150620021928262002ceb565b604082019050919050565b620021a88162002909565b82525050565b620021c3620021bd8262002909565b62002a62565b82525050565b6000620021d7828562001fd0565b601482019150620021e98284620021ae565b6020820191508190509392505050565b6000620022068262002128565b915062002214828962002055565b915062002221826200214f565b91506200222f828862001f41565b6014820191506200224082620020b3565b91506200224e828762002055565b91506200225b8262002101565b915062002269828662002055565b91506200227682620020da565b91506200228582848662001feb565b9150819050979650505050505050565b6000602082019050620022ac600083018462001f30565b92915050565b6000606082019050620022c9600083018662001f30565b8181036020830152620022dd818562002014565b90508181036040830152620022f3818462002014565b9050949350505050565b60006101008201905062002315600083018b62001f30565b62002324602083018a6200219d565b62002333604083018962001f6d565b62002342606083018862001f30565b62002351608083018762001f7e565b6200236060a08301866200219d565b6200236f60c08301856200219d565b81810360e083015262002383818462001f8f565b90509998505050505050505050565b6000606082019050620023a9600083018662001f30565b620023b860208301856200219d565b8181036040830152620023cc818462001f8f565b9050949350505050565b6000602082019050620023ed600083018462001f5c565b92915050565b60006020820190506200240a600083018462001f6d565b92915050565b600060408201905062002427600083018562001f6d565b6200243660208301846200219d565b9392505050565b60006101208201905081810360008301526200245a818c62002014565b9050818103602083015262002470818b62002014565b905062002481604083018a62001f30565b818103606083015262002495818962002014565b9050620024a6608083018862001f30565b81810360a0830152620024ba818762002014565b905081810360c0830152620024d0818662002014565b9050620024e160e08301856200219d565b620024f161010083018462001f6d565b9a9950505050505050505050565b600060208201905081810360008301526200251a816200208c565b9050919050565b600060208201905081810360008301526200253c8162002176565b9050919050565b60006020820190506200255a60008301846200219d565b92915050565b60006200256c6200257f565b90506200257a8282620029b6565b919050565b6000604051905090565b600067ffffffffffffffff821115620025a757620025a662002b31565b5b620025b28262002b7e565b9050602081019050919050565b600081519050919050565b600081519050919050565b600082825260208201905092915050565b600082825260208201905092915050565b600081905092915050565b60006200260f8262002909565b91506200261c8362002909565b9250827fffffffffffffffffffffffffffffffffffffffffffffffffffffffffffffffff0382111562002654576200265362002aa4565b5b828201905092915050565b6000808291508390505b6001851115620026b15780860481111562002689576200268862002aa4565b5b6001851615620026995780820291505b8081029050620026a98562002b9c565b945062002669565b94509492505050565b6000620026c78262002909565b9150620026d48362002909565b9250620027037fffffffffffffffffffffffffffffffffffffffffffffffffffffffffffffffff84846200270b565b905092915050565b6000826200271d5760019050620027f0565b816200272d5760009050620027f0565b8160018114620027465760028114620027515762002787565b6001915050620027f0565b60ff84111562002766576200276562002aa4565b5b8360020a91508482111562002780576200277f62002aa4565b5b50620027f0565b5060208310610133831016604e8410600b8410161715620027c15782820a905083811115620027bb57620027ba62002aa4565b5b620027f0565b620027d084848460016200265f565b92509050818404811115620027ea57620027e962002aa4565b5b81810290505b9392505050565b6000620028048262002909565b9150620028118362002909565b9250817fffffffffffffffffffffffffffffffffffffffffffffffffffffffffffffffff04831182151516156200284d576200284c62002aa4565b5b828202905092915050565b6000620028658262002909565b9150620028728362002909565b92508282101562002888576200288762002aa4565b5b828203905092915050565b6000620028a082620028e9565b9050919050565b60008115159050919050565b6000819050919050565b60007fffffffff0000000000000000000000000000000000000000000000000000000082169050919050565b600073ffffffffffffffffffffffffffffffffffffffff82169050919050565b6000819050919050565b6000620029208262002927565b9050919050565b60006200293482620028e9565b9050919050565b82818337600083830152505050565b60005b838110156200296a5780820151818401526020810190506200294d565b838111156200297a576000848401525b50505050565b600060028204905060018216806200299957607f821691505b60208210811415620029b057620029af62002b02565b5b50919050565b620029c18262002b7e565b810181811067ffffffffffffffff82111715620029e357620029e262002b31565b5b80604052505050565b6000620029f98262002909565b91507fffffffffffffffffffffffffffffffffffffffffffffffffffffffffffffffff82141562002a2f5762002a2e62002aa4565b5b600182019050919050565b600062002a478262002a4e565b9050919050565b600062002a5b8262002b8f565b9050919050565b6000819050919050565b600062002a798262002909565b915062002a868362002909565b92508262002a995762002a9862002ad3565b5b828206905092915050565b7f4e487b7100000000000000000000000000000000000000000000000000000000600052601160045260246000fd5b7f4e487b7100000000000000000000000000000000000000000000000000000000600052601260045260246000fd5b7f4e487b7100000000000000000000000000000000000000000000000000000000600052602260045260246000fd5b7f4e487b7100000000000000000000000000000000000000000000000000000000600052604160045260246000fd5b600080fd5b600080fd5b600080fd5b600080fd5b600080fd5b600080fd5b6000601f19601f8301169050919050565b60008160601b9050919050565b60008160011c9050919050565b7f756e61626c6520746f207472616e73666572416e6443616c6c20746f206f726160008201527f636c650000000000000000000000000000000000000000000000000000000000602082015250565b7f2f3f71756f74652d63757272656e63793d55534426666f726d61743d4a534f4e60008201527f2666726f6d3d0000000000000000000000000000000000000000000000000000602082015250565b7f266b65793d000000000000000000000000000000000000000000000000000000600082015250565b7f26746f3d00000000000000000000000000000000000000000000000000000000600082015250565b7f68747470733a2f2f6170692e636f76616c656e7468712e636f6d2f76312f0000600082015250565b7f2f6e66745f6d61726b65742f636f6c6c656374696f6e2f000000000000000000600082015250565b7f536f75726365206d75737420626520746865206f7261636c65206f662074686560008201527f2072657175657374000000000000000000000000000000000000000000000000602082015250565b62002d458162002893565b811462002d5157600080fd5b50565b62002d5f81620028a7565b811462002d6b57600080fd5b50565b62002d7981620028b3565b811462002d8557600080fd5b50565b62002d938162002909565b811462002d9f57600080fd5b5056fe60806040523480156200001157600080fd5b5060405162002bfa38038062002bfa833981810160405281019062000037919062000425565b8181816000908051906020019062000051929190620002e0565b5080600190805190602001906200006a929190620002e0565b505050620000808360016200008960201b60201c565b5050506200081c565b600073ffffffffffffffffffffffffffffffffffffffff168273ffffffffffffffffffffffffffffffffffffffff161415620000fc576040517f08c379a0000000000000000000000000000000000000000000000000000000008152600401620000f3906200052f565b60405180910390fd5b6200010d816200026f60201b60201c565b1562000150576040517f08c379a000000000000000000000000000000000000000000000000000000000815260040162000147906200050d565b60405180910390fd5b6200016460008383620002db60201b60201c565b6001600360008473ffffffffffffffffffffffffffffffffffffffff1673ffffffffffffffffffffffffffffffffffffffff1681526020019081526020016000206000828254620001b69190620005c1565b92505081905550816002600083815260200190815260200160002060006101000a81548173ffffffffffffffffffffffffffffffffffffffff021916908373ffffffffffffffffffffffffffffffffffffffff160217905550808273ffffffffffffffffffffffffffffffffffffffff16600073ffffffffffffffffffffffffffffffffffffffff167fddf252ad1be2c89b69c2b068fc378daa952ba7f163c4a11628f55a4df523b3ef60405160405180910390a45050565b60008073ffffffffffffffffffffffffffffffffffffffff166002600084815260200190815260200160002060009054906101000a900473ffffffffffffffffffffffffffffffffffffffff1673ffffffffffffffffffffffffffffffffffffffff1614159050919050565b505050565b828054620002ee9062000692565b90600052602060002090601f0160209004810192826200031257600085556200035e565b82601f106200032d57805160ff19168380011785556200035e565b828001600101855582156200035e579182015b828111156200035d57825182559160200191906001019062000340565b5b5090506200036d919062000371565b5090565b5b808211156200038c57600081600090555060010162000372565b5090565b6000620003a7620003a1846200057a565b62000551565b905082815260208101848484011115620003c657620003c562000790565b5b620003d38482856200065c565b509392505050565b600081519050620003ec8162000802565b92915050565b600082601f8301126200040a57620004096200078b565b5b81516200041c84826020860162000390565b91505092915050565b6000806000606084860312156200044157620004406200079a565b5b60006200045186828701620003db565b935050602084015167ffffffffffffffff81111562000475576200047462000795565b5b6200048386828701620003f2565b925050604084015167ffffffffffffffff811115620004a757620004a662000795565b5b620004b586828701620003f2565b9150509250925092565b6000620004ce601c83620005b0565b9150620004db82620007b0565b602082019050919050565b6000620004f5602083620005b0565b91506200050282620007d9565b602082019050919050565b600060208201905081810360008301526200052881620004bf565b9050919050565b600060208201905081810360008301526200054a81620004e6565b9050919050565b60006200055d62000570565b90506200056b8282620006c8565b919050565b6000604051905090565b600067ffffffffffffffff8211156200059857620005976200075c565b5b620005a3826200079f565b9050602081019050919050565b600082825260208201905092915050565b6000620005ce8262000652565b9150620005db8362000652565b9250827fffffffffffffffffffffffffffffffffffffffffffffffffffffffffffffffff03821115620006135762000612620006fe565b5b828201905092915050565b60006200062b8262000632565b9050919050565b600073ffffffffffffffffffffffffffffffffffffffff82169050919050565b6000819050919050565b60005b838110156200067c5780820151818401526020810190506200065f565b838111156200068c576000848401525b50505050565b60006002820490506001821680620006ab57607f821691505b60208210811415620006c257620006c16200072d565b5b50919050565b620006d3826200079f565b810181811067ffffffffffffffff82111715620006f557620006f46200075c565b5b80604052505050565b7f4e487b7100000000000000000000000000000000000000000000000000000000600052601160045260246000fd5b7f4e487b7100000000000000000000000000000000000000000000000000000000600052602260045260246000fd5b7f4e487b7100000000000000000000000000000000000000000000000000000000600052604160045260246000fd5b600080fd5b600080fd5b600080fd5b600080fd5b6000601f19601f8301169050919050565b7f4552433732313a20746f6b656e20616c7265616479206d696e74656400000000600082015250565b7f4552433732313a206d696e7420746f20746865207a65726f2061646472657373600082015250565b6200080d816200061e565b81146200081957600080fd5b50565b6123ce806200082c6000396000f3fe608060405234801561001057600080fd5b50600436106100cf5760003560e01c80636352211e1161008c578063a22cb46511610066578063a22cb46514610224578063b88d4fde14610240578063c87b56dd1461025c578063e985e9c51461028c576100cf565b80636352211e146101a657806370a08231146101d657806395d89b4114610206576100cf565b806301ffc9a7146100d457806306fdde0314610104578063081812fc14610122578063095ea7b31461015257806323b872dd1461016e57806342842e0e1461018a575b600080fd5b6100ee60048036038101906100e99190611659565b6102bc565b6040516100fb91906119df565b60405180910390f35b61010c61039e565b60405161011991906119fa565b60405180910390f35b61013c600480360381019061013791906116b3565b610430565b6040516101499190611978565b60405180910390f35b61016c60048036038101906101679190611619565b6104b5565b005b61018860048036038101906101839190611503565b6105cd565b005b6101a4600480360381019061019f9190611503565b61062d565b005b6101c060048036038101906101bb91906116b3565b61064d565b6040516101cd9190611978565b60405180910390f35b6101f060048036038101906101eb9190611496565b6106ff565b6040516101fd9190611b9c565b60405180910390f35b61020e6107b7565b60405161021b91906119fa565b60405180910390f35b61023e600480360381019061023991906115d9565b610849565b005b61025a60048036038101906102559190611556565b61085f565b005b610276600480360381019061027191906116b3565b6108c1565b60405161028391906119fa565b60405180910390f35b6102a660048036038101906102a191906114c3565b610968565b6040516102b391906119df565b60405180910390f35b60007f80ac58cd000000000000000000000000000000000000000000000000000000007bffffffffffffffffffffffffffffffffffffffffffffffffffffffff1916827bffffffffffffffffffffffffffffffffffffffffffffffffffffffff1916148061038757507f5b5e139f000000000000000000000000000000000000000000000000000000007bffffffffffffffffffffffffffffffffffffffffffffffffffffffff1916827bffffffffffffffffffffffffffffffffffffffffffffffffffffffff1916145b806103975750610396826109fc565b5b9050919050565b6060600080546103ad90611dc1565b80601f01602080910402602001604051908101604052809291908181526020018280546103d990611dc1565b80156104265780601f106103fb57610100808354040283529160200191610426565b820191906000526020600020905b81548152906001019060200180831161040957829003601f168201915b5050505050905090565b600061043b82610a66565b61047a576040517f08c379a000000000000000000000000000000000000000000000000000000000815260040161047190611afc565b60405180910390fd5b6004600083815260200190815260200160002060009054906101000a900473ffffffffffffffffffffffffffffffffffffffff169050919050565b60006104c08261064d565b90508073ffffffffffffffffffffffffffffffffffffffff168373ffffffffffffffffffffffffffffffffffffffff161415610531576040517f08c379a000000000000000000000000000000000000000000000000000000000815260040161052890611b5c565b60405180910390fd5b8073ffffffffffffffffffffffffffffffffffffffff16610550610ad2565b73ffffffffffffffffffffffffffffffffffffffff16148061057f575061057e81610579610ad2565b610968565b5b6105be576040517f08c379a00000000000000000000000000000000000000000000000000000000081526004016105b590611a9c565b60405180910390fd5b6105c88383610ada565b505050565b6105de6105d8610ad2565b82610b93565b61061d576040517f08c379a000000000000000000000000000000000000000000000000000000000815260040161061490611b7c565b60405180910390fd5b610628838383610c71565b505050565b6106488383836040518060200160405280600081525061085f565b505050565b6000806002600084815260200190815260200160002060009054906101000a900473ffffffffffffffffffffffffffffffffffffffff169050600073ffffffffffffffffffffffffffffffffffffffff168173ffffffffffffffffffffffffffffffffffffffff1614156106f6576040517f08c379a00000000000000000000000000000000000000000000000000000000081526004016106ed90611adc565b60405180910390fd5b80915050919050565b60008073ffffffffffffffffffffffffffffffffffffffff168273ffffffffffffffffffffffffffffffffffffffff161415610770576040517f08c379a000000000000000000000000000000000000000000000000000000000815260040161076790611abc565b60405180910390fd5b600360008373ffffffffffffffffffffffffffffffffffffffff1673ffffffffffffffffffffffffffffffffffffffff168152602001908152602001600020549050919050565b6060600180546107c690611dc1565b80601f01602080910402602001604051908101604052809291908181526020018280546107f290611dc1565b801561083f5780601f106108145761010080835404028352916020019161083f565b820191906000526020600020905b81548152906001019060200180831161082257829003601f168201915b5050505050905090565b61085b610854610ad2565b8383610ecd565b5050565b61087061086a610ad2565b83610b93565b6108af576040517f08c379a00000000000000000000000000000000000000000000000000000000081526004016108a690611b7c565b60405180910390fd5b6108bb8484848461103a565b50505050565b60606108cc82610a66565b61090b576040517f08c379a000000000000000000000000000000000000000000000000000000000815260040161090290611b3c565b60405180910390fd5b6000610915611096565b905060008151116109355760405180602001604052806000815250610960565b8061093f846110ad565b604051602001610950929190611954565b6040516020818303038152906040525b915050919050565b6000600560008473ffffffffffffffffffffffffffffffffffffffff1673ffffffffffffffffffffffffffffffffffffffff16815260200190815260200160002060008373ffffffffffffffffffffffffffffffffffffffff1673ffffffffffffffffffffffffffffffffffffffff16815260200190815260200160002060009054906101000a900460ff16905092915050565b60007f01ffc9a7000000000000000000000000000000000000000000000000000000007bffffffffffffffffffffffffffffffffffffffffffffffffffffffff1916827bffffffffffffffffffffffffffffffffffffffffffffffffffffffff1916149050919050565b60008073ffffffffffffffffffffffffffffffffffffffff166002600084815260200190815260200160002060009054906101000a900473ffffffffffffffffffffffffffffffffffffffff1673ffffffffffffffffffffffffffffffffffffffff1614159050919050565b600033905090565b816004600083815260200190815260200160002060006101000a81548173ffffffffffffffffffffffffffffffffffffffff021916908373ffffffffffffffffffffffffffffffffffffffff160217905550808273ffffffffffffffffffffffffffffffffffffffff16610b4d8361064d565b73ffffffffffffffffffffffffffffffffffffffff167f8c5be1e5ebec7d5bd14f71427d1e84f3dd0314c0f7b2291e5b200ac8c7c3b92560405160405180910390a45050565b6000610b9e82610a66565b610bdd576040517f08c379a0000000000000000000000000000000000000000000000000000000008152600401610bd490611a7c565b60405180910390fd5b6000610be88361064d565b90508073ffffffffffffffffffffffffffffffffffffffff168473ffffffffffffffffffffffffffffffffffffffff161480610c5757508373ffffffffffffffffffffffffffffffffffffffff16610c3f84610430565b73ffffffffffffffffffffffffffffffffffffffff16145b80610c685750610c678185610968565b5b91505092915050565b8273ffffffffffffffffffffffffffffffffffffffff16610c918261064d565b73ffffffffffffffffffffffffffffffffffffffff1614610ce7576040517f08c379a0000000000000000000000000000000000000000000000000000000008152600401610cde90611b1c565b60405180910390fd5b600073ffffffffffffffffffffffffffffffffffffffff168273ffffffffffffffffffffffffffffffffffffffff161415610d57576040517f08c379a0000000000000000000000000000000000000000000000000000000008152600401610d4e90611a3c565b60405180910390fd5b610d6283838361120e565b610d6d600082610ada565b6001600360008573ffffffffffffffffffffffffffffffffffffffff1673ffffffffffffffffffffffffffffffffffffffff1681526020019081526020016000206000828254610dbd9190611cd7565b925050819055506001600360008473ffffffffffffffffffffffffffffffffffffffff1673ffffffffffffffffffffffffffffffffffffffff1681526020019081526020016000206000828254610e149190611c50565b92505081905550816002600083815260200190815260200160002060006101000a81548173ffffffffffffffffffffffffffffffffffffffff021916908373ffffffffffffffffffffffffffffffffffffffff160217905550808273ffffffffffffffffffffffffffffffffffffffff168473ffffffffffffffffffffffffffffffffffffffff167fddf252ad1be2c89b69c2b068fc378daa952ba7f163c4a11628f55a4df523b3ef60405160405180910390a4505050565b8173ffffffffffffffffffffffffffffffffffffffff168373ffffffffffffffffffffffffffffffffffffffff161415610f3c576040517f08c379a0000000000000000000000000000000000000000000000000000000008152600401610f3390611a5c565b60405180910390fd5b80600560008573ffffffffffffffffffffffffffffffffffffffff1673ffffffffffffffffffffffffffffffffffffffff16815260200190815260200160002060008473ffffffffffffffffffffffffffffffffffffffff1673ffffffffffffffffffffffffffffffffffffffff16815260200190815260200160002060006101000a81548160ff0219169083151502179055508173ffffffffffffffffffffffffffffffffffffffff168373ffffffffffffffffffffffffffffffffffffffff167f17307eab39ab6107e8899845ad3d59bd9653f200f220920489ca2b5937696c318360405161102d91906119df565b60405180910390a3505050565b611045848484610c71565b61105184848484611213565b611090576040517f08c379a000000000000000000000000000000000000000000000000000000000815260040161108790611a1c565b60405180910390fd5b50505050565b606060405180602001604052806000815250905090565b606060008214156110f5576040518060400160405280600181526020017f30000000000000000000000000000000000000000000000000000000000000008152509050611209565b600082905060005b6000821461112757808061111090611e24565b915050600a826111209190611ca6565b91506110fd565b60008167ffffffffffffffff81111561114357611142611f5a565b5b6040519080825280601f01601f1916602001820160405280156111755781602001600182028036833780820191505090505b5090505b600085146112025760018261118e9190611cd7565b9150600a8561119d9190611e6d565b60306111a99190611c50565b60f81b8183815181106111bf576111be611f2b565b5b60200101907effffffffffffffffffffffffffffffffffffffffffffffffffffffffffffff1916908160001a905350600a856111fb9190611ca6565b9450611179565b8093505050505b919050565b505050565b60006112348473ffffffffffffffffffffffffffffffffffffffff166113aa565b1561139d578373ffffffffffffffffffffffffffffffffffffffff1663150b7a0261125d610ad2565b8786866040518563ffffffff1660e01b815260040161127f9493929190611993565b602060405180830381600087803b15801561129957600080fd5b505af19250505080156112ca57506040513d601f19601f820116820180604052508101906112c79190611686565b60015b61134d573d80600081146112fa576040519150601f19603f3d011682016040523d82523d6000602084013e6112ff565b606091505b50600081511415611345576040517f08c379a000000000000000000000000000000000000000000000000000000000815260040161133c90611a1c565b60405180910390fd5b805181602001fd5b63150b7a0260e01b7bffffffffffffffffffffffffffffffffffffffffffffffffffffffff1916817bffffffffffffffffffffffffffffffffffffffffffffffffffffffff1916149150506113a2565b600190505b949350505050565b600080823b905060008111915050919050565b60006113d06113cb84611bdc565b611bb7565b9050828152602081018484840111156113ec576113eb611f8e565b5b6113f7848285611d7f565b509392505050565b60008135905061140e8161233c565b92915050565b60008135905061142381612353565b92915050565b6000813590506114388161236a565b92915050565b60008151905061144d8161236a565b92915050565b600082601f83011261146857611467611f89565b5b81356114788482602086016113bd565b91505092915050565b60008135905061149081612381565b92915050565b6000602082840312156114ac576114ab611f98565b5b60006114ba848285016113ff565b91505092915050565b600080604083850312156114da576114d9611f98565b5b60006114e8858286016113ff565b92505060206114f9858286016113ff565b9150509250929050565b60008060006060848603121561151c5761151b611f98565b5b600061152a868287016113ff565b935050602061153b868287016113ff565b925050604061154c86828701611481565b9150509250925092565b600080600080608085870312156115705761156f611f98565b5b600061157e878288016113ff565b945050602061158f878288016113ff565b93505060406115a087828801611481565b925050606085013567ffffffffffffffff8111156115c1576115c0611f93565b5b6115cd87828801611453565b91505092959194509250565b600080604083850312156115f0576115ef611f98565b5b60006115fe858286016113ff565b925050602061160f85828601611414565b9150509250929050565b600080604083850312156116305761162f611f98565b5b600061163e858286016113ff565b925050602061164f85828601611481565b9150509250929050565b60006020828403121561166f5761166e611f98565b5b600061167d84828501611429565b91505092915050565b60006020828403121561169c5761169b611f98565b5b60006116aa8482850161143e565b91505092915050565b6000602082840312156116c9576116c8611f98565b5b60006116d784828501611481565b91505092915050565b6116e981611d0b565b82525050565b6116f881611d1d565b82525050565b600061170982611c0d565b6117138185611c23565b9350611723818560208601611d8e565b61172c81611f9d565b840191505092915050565b600061174282611c18565b61174c8185611c34565b935061175c818560208601611d8e565b61176581611f9d565b840191505092915050565b600061177b82611c18565b6117858185611c45565b9350611795818560208601611d8e565b80840191505092915050565b60006117ae603283611c34565b91506117b982611fae565b604082019050919050565b60006117d1602483611c34565b91506117dc82611ffd565b604082019050919050565b60006117f4601983611c34565b91506117ff8261204c565b602082019050919050565b6000611817602c83611c34565b915061182282612075565b604082019050919050565b600061183a603883611c34565b9150611845826120c4565b604082019050919050565b600061185d602a83611c34565b915061186882612113565b604082019050919050565b6000611880602983611c34565b915061188b82612162565b604082019050919050565b60006118a3602c83611c34565b91506118ae826121b1565b604082019050919050565b60006118c6602983611c34565b91506118d182612200565b604082019050919050565b60006118e9602f83611c34565b91506118f48261224f565b604082019050919050565b600061190c602183611c34565b91506119178261229e565b604082019050919050565b600061192f603183611c34565b915061193a826122ed565b604082019050919050565b61194e81611d75565b82525050565b60006119608285611770565b915061196c8284611770565b91508190509392505050565b600060208201905061198d60008301846116e0565b92915050565b60006080820190506119a860008301876116e0565b6119b560208301866116e0565b6119c26040830185611945565b81810360608301526119d481846116fe565b905095945050505050565b60006020820190506119f460008301846116ef565b92915050565b60006020820190508181036000830152611a148184611737565b905092915050565b60006020820190508181036000830152611a35816117a1565b9050919050565b60006020820190508181036000830152611a55816117c4565b9050919050565b60006020820190508181036000830152611a75816117e7565b9050919050565b60006020820190508181036000830152611a958161180a565b9050919050565b60006020820190508181036000830152611ab58161182d565b9050919050565b60006020820190508181036000830152611ad581611850565b9050919050565b60006020820190508181036000830152611af581611873565b9050919050565b60006020820190508181036000830152611b1581611896565b9050919050565b60006020820190508181036000830152611b35816118b9565b9050919050565b60006020820190508181036000830152611b55816118dc565b9050919050565b60006020820190508181036000830152611b75816118ff565b9050919050565b60006020820190508181036000830152611b9581611922565b9050919050565b6000602082019050611bb16000830184611945565b92915050565b6000611bc1611bd2565b9050611bcd8282611df3565b919050565b6000604051905090565b600067ffffffffffffffff821115611bf757611bf6611f5a565b5b611c0082611f9d565b9050602081019050919050565b600081519050919050565b600081519050919050565b600082825260208201905092915050565b600082825260208201905092915050565b600081905092915050565b6000611c5b82611d75565b9150611c6683611d75565b9250827fffffffffffffffffffffffffffffffffffffffffffffffffffffffffffffffff03821115611c9b57611c9a611e9e565b5b828201905092915050565b6000611cb182611d75565b9150611cbc83611d75565b925082611ccc57611ccb611ecd565b5b828204905092915050565b6000611ce282611d75565b9150611ced83611d75565b925082821015611d0057611cff611e9e565b5b828203905092915050565b6000611d1682611d55565b9050919050565b60008115159050919050565b60007fffffffff0000000000000000000000000000000000000000000000000000000082169050919050565b600073ffffffffffffffffffffffffffffffffffffffff82169050919050565b6000819050919050565b82818337600083830152505050565b60005b83811015611dac578082015181840152602081019050611d91565b83811115611dbb576000848401525b50505050565b60006002820490506001821680611dd957607f821691505b60208210811415611ded57611dec611efc565b5b50919050565b611dfc82611f9d565b810181811067ffffffffffffffff82111715611e1b57611e1a611f5a565b5b80604052505050565b6000611e2f82611d75565b91507fffffffffffffffffffffffffffffffffffffffffffffffffffffffffffffffff821415611e6257611e61611e9e565b5b600182019050919050565b6000611e7882611d75565b9150611e8383611d75565b925082611e9357611e92611ecd565b5b828206905092915050565b7f4e487b7100000000000000000000000000000000000000000000000000000000600052601160045260246000fd5b7f4e487b7100000000000000000000000000000000000000000000000000000000600052601260045260246000fd5b7f4e487b7100000000000000000000000000000000000000000000000000000000600052602260045260246000fd5b7f4e487b7100000000000000000000000000000000000000000000000000000000600052603260045260246000fd5b7f4e487b7100000000000000000000000000000000000000000000000000000000600052604160045260246000fd5b600080fd5b600080fd5b600080fd5b600080fd5b6000601f19601f8301169050919050565b7f4552433732313a207472616e7366657220746f206e6f6e20455243373231526560008201527f63656976657220696d706c656d656e7465720000000000000000000000000000602082015250565b7f4552433732313a207472616e7366657220746f20746865207a65726f2061646460008201527f7265737300000000000000000000000000000000000000000000000000000000602082015250565b7f4552433732313a20617070726f766520746f2063616c6c657200000000000000600082015250565b7f4552433732313a206f70657261746f7220717565727920666f72206e6f6e657860008201527f697374656e7420746f6b656e0000000000000000000000000000000000000000602082015250565b7f4552433732313a20617070726f76652063616c6c6572206973206e6f74206f7760008201527f6e6572206e6f7220617070726f76656420666f7220616c6c0000000000000000602082015250565b7f4552433732313a2062616c616e636520717565727920666f7220746865207a6560008201527f726f206164647265737300000000000000000000000000000000000000000000602082015250565b7f4552433732313a206f776e657220717565727920666f72206e6f6e657869737460008201527f656e7420746f6b656e0000000000000000000000000000000000000000000000602082015250565b7f4552433732313a20617070726f76656420717565727920666f72206e6f6e657860008201527f697374656e7420746f6b656e0000000000000000000000000000000000000000602082015250565b7f4552433732313a207472616e73666572206f6620746f6b656e2074686174206960008201527f73206e6f74206f776e0000000000000000000000000000000000000000000000602082015250565b7f4552433732314d657461646174613a2055524920717565727920666f72206e6f60008201527f6e6578697374656e7420746f6b656e0000000000000000000000000000000000602082015250565b7f4552433732313a20617070726f76616c20746f2063757272656e74206f776e6560008201527f7200000000000000000000000000000000000000000000000000000000000000602082015250565b7f4552433732313a207472616e736665722063616c6c6572206973206e6f74206f60008201527f776e6572206e6f7220617070726f766564000000000000000000000000000000602082015250565b61234581611d0b565b811461235057600080fd5b50565b61235c81611d1d565b811461236757600080fd5b50565b61237381611d29565b811461237e57600080fd5b50565b61238a81611d75565b811461239557600080fd5b5056fea26469706673582212205b6517722b0b703f8a1d6d6fa6cd0cc40d96f5a610796bb81b1ce82e07ef08eb64736f6c63430008060033a26469706673582212209a1f3c6d5d6fdaaabfa4fe2bd690dc23e29824187d77fd205b4433c47ad03e1a64736f6c63430008060033",
  "linkReferences": {},
  "deployedLinkReferences": {}
}