{
  "_format": "hh-sol-artifact-1",
  "contractName": "NftBet",
  "sourceName": "contracts/main.sol",
  "abi": [
    {
      "inputs": [],
      "stateMutability": "nonpayable",
      "type": "constructor"
    },
    {
      "anonymous": false,
      "inputs": [
        {
          "indexed": true,
          "internalType": "bytes32",
          "name": "id",
          "type": "bytes32"
        }
      ],
      "name": "ChainlinkCancelled",
      "type": "event"
    },
    {
      "anonymous": false,
      "inputs": [
        {
          "indexed": true,
          "internalType": "bytes32",
          "name": "id",
          "type": "bytes32"
        }
      ],
      "name": "ChainlinkFulfilled",
      "type": "event"
    },
    {
      "anonymous": false,
      "inputs": [
        {
          "indexed": true,
          "internalType": "bytes32",
          "name": "id",
          "type": "bytes32"
        }
      ],
      "name": "ChainlinkRequested",
      "type": "event"
    },
    {
      "anonymous": false,
      "inputs": [
        {
          "indexed": false,
          "internalType": "address",
          "name": "creator",
          "type": "address"
        }
      ],
      "name": "GameCreated",
      "type": "event"
    },
    {
      "anonymous": false,
      "inputs": [
        {
          "indexed": false,
          "internalType": "bytes32",
          "name": "requestId",
          "type": "bytes32"
        }
      ],
      "name": "OracleRequestSent",
      "type": "event"
    },
    {
      "anonymous": false,
      "inputs": [
        {
          "indexed": false,
          "internalType": "bytes32",
          "name": "requestId",
          "type": "bytes32"
        },
        {
          "indexed": false,
          "internalType": "uint256",
          "name": "data",
          "type": "uint256"
        }
      ],
      "name": "OracleResultReturned",
      "type": "event"
    },
    {
      "inputs": [
        {
          "internalType": "string",
          "name": "gameName",
          "type": "string"
        },
        {
          "internalType": "string",
          "name": "gameSymbol",
          "type": "string"
        },
        {
          "internalType": "string",
          "name": "networkId",
          "type": "string"
        },
        {
          "internalType": "address",
          "name": "collectionAddress",
          "type": "address"
        },
        {
          "internalType": "string",
          "name": "date",
          "type": "string"
        },
        {
          "internalType": "string",
          "name": "floor_price",
          "type": "string"
        }
      ],
      "name": "createGame",
      "outputs": [
        {
          "internalType": "bool",
          "name": "",
          "type": "bool"
        }
      ],
      "stateMutability": "nonpayable",
      "type": "function"
    },
    {
      "inputs": [
        {
          "internalType": "bytes32",
          "name": "_requestId",
          "type": "bytes32"
        },
        {
          "internalType": "uint256",
          "name": "_data",
          "type": "uint256"
        }
      ],
      "name": "fulfill",
      "outputs": [],
      "stateMutability": "nonpayable",
      "type": "function"
    },
    {
      "inputs": [
        {
          "internalType": "uint256",
          "name": "",
          "type": "uint256"
        }
      ],
      "name": "gameArray",
      "outputs": [
        {
          "internalType": "string",
          "name": "name",
          "type": "string"
        },
        {
          "internalType": "string",
          "name": "symbol",
          "type": "string"
        },
        {
          "internalType": "address",
          "name": "gameAddress",
          "type": "address"
        },
        {
          "internalType": "address",
          "name": "creator",
          "type": "address"
        },
        {
          "internalType": "string",
          "name": "networkId",
          "type": "string"
        },
        {
          "internalType": "address",
          "name": "collectionAddress",
          "type": "address"
        },
        {
          "internalType": "string",
          "name": "date",
          "type": "string"
        },
        {
          "internalType": "string",
          "name": "floor_price",
          "type": "string"
        },
        {
          "internalType": "uint256",
          "name": "gameID",
          "type": "uint256"
        },
        {
          "internalType": "bytes32",
          "name": "results",
          "type": "bytes32"
        }
      ],
      "stateMutability": "view",
      "type": "function"
    },
    {
      "inputs": [
        {
          "internalType": "uint256",
          "name": "",
          "type": "uint256"
        }
      ],
      "name": "games",
      "outputs": [
        {
          "internalType": "string",
          "name": "name",
          "type": "string"
        },
        {
          "internalType": "string",
          "name": "symbol",
          "type": "string"
        },
        {
          "internalType": "address",
          "name": "gameAddress",
          "type": "address"
        },
        {
          "internalType": "address",
          "name": "creator",
          "type": "address"
        },
        {
          "internalType": "string",
          "name": "networkId",
          "type": "string"
        },
        {
          "internalType": "address",
          "name": "collectionAddress",
          "type": "address"
        },
        {
          "internalType": "string",
          "name": "date",
          "type": "string"
        },
        {
          "internalType": "string",
          "name": "floor_price",
          "type": "string"
        },
        {
          "internalType": "uint256",
          "name": "gameID",
          "type": "uint256"
        },
        {
          "internalType": "bytes32",
          "name": "results",
          "type": "bytes32"
        }
      ],
      "stateMutability": "view",
      "type": "function"
    },
    {
      "inputs": [],
      "name": "price",
      "outputs": [
        {
          "internalType": "uint256",
          "name": "",
          "type": "uint256"
        }
      ],
      "stateMutability": "view",
      "type": "function"
    },
    {
      "inputs": [
        {
          "internalType": "string",
          "name": "apiKey",
          "type": "string"
        },
        {
          "internalType": "uint256",
          "name": "gameID",
          "type": "uint256"
        }
      ],
      "name": "requestData",
      "outputs": [
        {
          "internalType": "bytes32",
          "name": "requestId",
          "type": "bytes32"
        }
      ],
      "stateMutability": "nonpayable",
      "type": "function"
    },
    {
      "inputs": [
        {
          "internalType": "uint256",
          "name": "gameID",
          "type": "uint256"
        }
      ],
      "name": "resolveGame",
      "outputs": [
        {
          "internalType": "bool",
          "name": "",
          "type": "bool"
        }
      ],
      "stateMutability": "nonpayable",
      "type": "function"
    }
  ],
  "bytecode": "0x608060405260016004556000600d5534801561001a57600080fd5b5033600a60006101000a81548173ffffffffffffffffffffffffffffffffffffffff021916908373ffffffffffffffffffffffffffffffffffffffff16021790555061007f73326c977e6efc84e512bb9c30f76e30c160ed06fb61010e60201b60201c565b7358bbdbfb6fca3129b91f0dbe372098123b38b5e9600760006101000a81548173ffffffffffffffffffffffffffffffffffffffff021916908373ffffffffffffffffffffffffffffffffffffffff1602179055507f6138323439356138666435623463623439326231376463306363333161346665600881905550662386f26fc10000600981905550610152565b80600260006101000a81548173ffffffffffffffffffffffffffffffffffffffff021916908373ffffffffffffffffffffffffffffffffffffffff16021790555050565b615c3080620001626000396000f3fe60806040523480156200001157600080fd5b5060043610620000885760003560e01c80633cbde95611620000635780633cbde95614620001415780634357855e1462000177578063a035b1fe1462000197578063b7a5a5b614620001b95762000088565b8063047e27ae146200008d578063071a7bb014620000c3578063117a5b901462000102575b600080fd5b620000ab6004803603810190620000a5919062001fd3565b620001ef565b604051620000ba9190620025e2565b60405180910390f35b620000e16004803603810190620000db91906200210a565b6200074f565b604051620000f99a9998979695949392919062002649565b60405180910390f35b6200012060048036038101906200011a91906200210a565b62000ae4565b604051620001389a9998979695949392919062002649565b60405180910390f35b6200015f600480360381019062000159919062001f69565b62000e68565b6040516200016e9190620025ff565b60405180910390f35b6200019560048036038101906200018f919062001f22565b6200118f565b005b620001a1620012e2565b604051620001b0919062002760565b60405180910390f35b620001d76004803603810190620001d191906200210a565b620012e8565b604051620001e69190620025e2565b60405180910390f35b6000620001fb62001b8f565b60003389896040516200020e9062001c27565b6200021c93929190620024be565b604051809103906000f08015801562000239573d6000803e3d6000fd5b50905033826060019073ffffffffffffffffffffffffffffffffffffffff16908173ffffffffffffffffffffffffffffffffffffffff1681525050888260000181905250878260200181905250868260800181905250858260a0019073ffffffffffffffffffffffffffffffffffffffff16908173ffffffffffffffffffffffffffffffffffffffff1681525050848260c00181905250838260e00181905250600d60008154620002ea9062002c09565b919050819055826101000181815250508073ffffffffffffffffffffffffffffffffffffffff166338cc48316040518163ffffffff1660e01b815260040160206040518083038186803b1580156200034157600080fd5b505afa15801562000356573d6000803e3d6000fd5b505050506040513d601f19601f820116820180604052508101906200037c919062001ebe565b826040019073ffffffffffffffffffffffffffffffffffffffff16908173ffffffffffffffffffffffffffffffffffffffff1681525050600c8290806001815401808255809150506001900390600052602060002090600a02016000909190919091506000820151816000019080519060200190620003fd92919062001c35565b5060208201518160010190805190602001906200041c92919062001c35565b5060408201518160020160006101000a81548173ffffffffffffffffffffffffffffffffffffffff021916908373ffffffffffffffffffffffffffffffffffffffff16021790555060608201518160030160006101000a81548173ffffffffffffffffffffffffffffffffffffffff021916908373ffffffffffffffffffffffffffffffffffffffff1602179055506080820151816004019080519060200190620004c992919062001c35565b5060a08201518160050160006101000a81548173ffffffffffffffffffffffffffffffffffffffff021916908373ffffffffffffffffffffffffffffffffffffffff16021790555060c08201518160060190805190602001906200052f92919062001c35565b5060e08201518160070190805190602001906200054e92919062001c35565b5061010082015181600801556101208201518160090155505081600b6000600d54815260200190815260200160002060008201518160000190805190602001906200059b92919062001c35565b506020820151816001019080519060200190620005ba92919062001c35565b5060408201518160020160006101000a81548173ffffffffffffffffffffffffffffffffffffffff021916908373ffffffffffffffffffffffffffffffffffffffff16021790555060608201518160030160006101000a81548173ffffffffffffffffffffffffffffffffffffffff021916908373ffffffffffffffffffffffffffffffffffffffff16021790555060808201518160040190805190602001906200066792919062001c35565b5060a08201518160050160006101000a81548173ffffffffffffffffffffffffffffffffffffffff021916908373ffffffffffffffffffffffffffffffffffffffff16021790555060c0820151816006019080519060200190620006cd92919062001c35565b5060e0820151816007019080519060200190620006ec92919062001c35565b50610100820151816008015561012082015181600901559050507f4f0d1d413a983b9df8ab6ab954635b186a1e9a09ee6dc1b43263ddbf4841226733604051620007379190620024a1565b60405180910390a16001925050509695505050505050565b600c81815481106200076057600080fd5b90600052602060002090600a0201600091509050806000018054620007859062002b9d565b80601f0160208091040260200160405190810160405280929190818152602001828054620007b39062002b9d565b8015620008045780601f10620007d85761010080835404028352916020019162000804565b820191906000526020600020905b815481529060010190602001808311620007e657829003601f168201915b5050505050908060010180546200081b9062002b9d565b80601f0160208091040260200160405190810160405280929190818152602001828054620008499062002b9d565b80156200089a5780601f106200086e576101008083540402835291602001916200089a565b820191906000526020600020905b8154815290600101906020018083116200087c57829003601f168201915b5050505050908060020160009054906101000a900473ffffffffffffffffffffffffffffffffffffffff16908060030160009054906101000a900473ffffffffffffffffffffffffffffffffffffffff1690806004018054620008fd9062002b9d565b80601f01602080910402602001604051908101604052809291908181526020018280546200092b9062002b9d565b80156200097c5780601f1062000950576101008083540402835291602001916200097c565b820191906000526020600020905b8154815290600101906020018083116200095e57829003601f168201915b5050505050908060050160009054906101000a900473ffffffffffffffffffffffffffffffffffffffff1690806006018054620009b99062002b9d565b80601f0160208091040260200160405190810160405280929190818152602001828054620009e79062002b9d565b801562000a385780601f1062000a0c5761010080835404028352916020019162000a38565b820191906000526020600020905b81548152906001019060200180831162000a1a57829003601f168201915b50505050509080600701805462000a4f9062002b9d565b80601f016020809104026020016040519081016040528092919081815260200182805462000a7d9062002b9d565b801562000ace5780601f1062000aa25761010080835404028352916020019162000ace565b820191906000526020600020905b81548152906001019060200180831162000ab057829003601f168201915b505050505090806008015490806009015490508a565b600b60205280600052604060002060009150905080600001805462000b099062002b9d565b80601f016020809104026020016040519081016040528092919081815260200182805462000b379062002b9d565b801562000b885780601f1062000b5c5761010080835404028352916020019162000b88565b820191906000526020600020905b81548152906001019060200180831162000b6a57829003601f168201915b50505050509080600101805462000b9f9062002b9d565b80601f016020809104026020016040519081016040528092919081815260200182805462000bcd9062002b9d565b801562000c1e5780601f1062000bf25761010080835404028352916020019162000c1e565b820191906000526020600020905b81548152906001019060200180831162000c0057829003601f168201915b5050505050908060020160009054906101000a900473ffffffffffffffffffffffffffffffffffffffff16908060030160009054906101000a900473ffffffffffffffffffffffffffffffffffffffff169080600401805462000c819062002b9d565b80601f016020809104026020016040519081016040528092919081815260200182805462000caf9062002b9d565b801562000d005780601f1062000cd45761010080835404028352916020019162000d00565b820191906000526020600020905b81548152906001019060200180831162000ce257829003601f168201915b5050505050908060050160009054906101000a900473ffffffffffffffffffffffffffffffffffffffff169080600601805462000d3d9062002b9d565b80601f016020809104026020016040519081016040528092919081815260200182805462000d6b9062002b9d565b801562000dbc5780601f1062000d905761010080835404028352916020019162000dbc565b820191906000526020600020905b81548152906001019060200180831162000d9e57829003601f168201915b50505050509080600701805462000dd39062002b9d565b80601f016020809104026020016040519081016040528092919081815260200182805462000e019062002b9d565b801562000e525780601f1062000e265761010080835404028352916020019162000e52565b820191906000526020600020905b81548152906001019060200180831162000e3457829003601f168201915b505050505090806008015490806009015490508a565b600080600b6000848152602001908152602001600020600401805462000e8e9062002b9d565b80601f016020809104026020016040519081016040528092919081815260200182805462000ebc9062002b9d565b801562000f0d5780601f1062000ee15761010080835404028352916020019162000f0d565b820191906000526020600020905b81548152906001019060200180831162000eef57829003601f168201915b505050505090506000600b600085815260200190815260200160002060050160009054906101000a900473ffffffffffffffffffffffffffffffffffffffff1690506000600b6000868152602001908152602001600020600601805462000f749062002b9d565b80601f016020809104026020016040519081016040528092919081815260200182805462000fa29062002b9d565b801562000ff35780601f1062000fc75761010080835404028352916020019162000ff3565b820191906000526020600020905b81548152906001019060200180831162000fd557829003601f168201915b505050505090506000838383848b8b604051602001620010199695949392919062002405565b604051602081830303815290604052905060006200104260085430634357855e60e01b620012f3565b9050620010906040518060400160405280600381526020017f676574000000000000000000000000000000000000000000000000000000000081525083836200132a9092919063ffffffff16565b620011116040518060400160405280600481526020017f70617468000000000000000000000000000000000000000000000000000000008152506040518060400160405280601f81526020017f646174612e6974656d732e302e666c6f6f725f70726963655f7765695f376400815250836200132a9092919063ffffffff16565b600062001144600760009054906101000a900473ffffffffffffffffffffffffffffffffffffffff168360095462001361565b90507f2623af4aa03af6c852d773dd28dec675dda47e077d1d72e414ca1529258de93c81604051620011779190620025ff565b60405180910390a18096505050505050509392505050565b816005600082815260200190815260200160002060009054906101000a900473ffffffffffffffffffffffffffffffffffffffff1673ffffffffffffffffffffffffffffffffffffffff163373ffffffffffffffffffffffffffffffffffffffff161462001234576040517f08c379a00000000000000000000000000000000000000000000000000000000081526004016200122b906200273e565b60405180910390fd5b6005600082815260200190815260200160002060006101000a81549073ffffffffffffffffffffffffffffffffffffffff0219169055807f7cc135e0cebb02c3480ae5d74d377283180a2601f8f644edf7987b009316c63a60405160405180910390a27f071e7138c97f32f4505a0134b38495a4b1edd2efa63648be59575c96b31bf82b8383604051620012ca9291906200261c565b60405180910390a1620012dd8262001433565b505050565b60065481565b600060019050919050565b620012fd62001cc6565b6200130762001cc6565b620013208585858462001436909392919063ffffffff16565b9150509392505050565b62001343828460800151620014ea90919063ffffffff16565b6200135c818460800151620014ea90919063ffffffff16565b505050565b60008060045490506001816200137891906200281f565b6004819055506000634042994660e01b60008087600001513089604001518760018c6080015160000151604051602401620013bb98979695949392919062002509565b604051602081830303815290604052907bffffffffffffffffffffffffffffffffffffffffffffffffffffffff19166020820180517bffffffffffffffffffffffffffffffffffffffffffffffffffffffff83818316178352505050509050620014288683868462001513565b925050509392505050565b50565b6200144062001cc6565b620014528560800151610100620016c2565b508385600001818152505082856020019073ffffffffffffffffffffffffffffffffffffffff16908173ffffffffffffffffffffffffffffffffffffffff16815250508185604001907bffffffffffffffffffffffffffffffffffffffffffffffffffffffff191690817bffffffffffffffffffffffffffffffffffffffffffffffffffffffff191681525050849050949350505050565b620014f9826003835162001737565b6200150e8183620018d690919063ffffffff16565b505050565b600030846040516020016200152a929190620023d5565b604051602081830303815290604052805190602001209050846005600083815260200190815260200160002060006101000a81548173ffffffffffffffffffffffffffffffffffffffff021916908373ffffffffffffffffffffffffffffffffffffffff160217905550807fb5e6e01e79f91267dc17b4e6314d5d4d03593d2ceee0fbb452b750bd70ea5af960405160405180910390a2600260009054906101000a900473ffffffffffffffffffffffffffffffffffffffff1673ffffffffffffffffffffffffffffffffffffffff16634000aea08685856040518463ffffffff1660e01b815260040162001622939291906200259e565b602060405180830381600087803b1580156200163d57600080fd5b505af115801562001652573d6000803e3d6000fd5b505050506040513d601f19601f8201168201806040525081019062001678919062001ef0565b620016ba576040517f08c379a0000000000000000000000000000000000000000000000000000000008152600401620016b1906200271c565b60405180910390fd5b949350505050565b620016cc62001d35565b6000602083620016dd919062002c89565b146200171057602082620016f2919062002c89565b602062001700919062002a75565b826200170d91906200281f565b91505b81836020018181525050604051808452600081528281016020016040525082905092915050565b60178167ffffffffffffffff161162001772576200176b8160058460ff16901b60ff161784620018fc90919063ffffffff16565b50620018d1565b60ff8167ffffffffffffffff1611620017ce57620017a4601860058460ff16901b1784620018fc90919063ffffffff16565b50620017c78167ffffffffffffffff16600185620019209092919063ffffffff16565b50620018d0565b61ffff8167ffffffffffffffff16116200182b5762001801601960058460ff16901b1784620018fc90919063ffffffff16565b50620018248167ffffffffffffffff16600285620019209092919063ffffffff16565b50620018cf565b63ffffffff8167ffffffffffffffff16116200188a5762001860601a60058460ff16901b1784620018fc90919063ffffffff16565b50620018838167ffffffffffffffff16600485620019209092919063ffffffff16565b50620018ce565b620018a9601b60058460ff16901b1784620018fc90919063ffffffff16565b50620018cc8167ffffffffffffffff16600885620019209092919063ffffffff16565b505b5b5b5b505050565b620018e062001d35565b620018f48384600001515184855162001946565b905092915050565b6200190662001d35565b62001918838460000151518462001a4c565b905092915050565b6200192a62001d35565b6200193d84856000015151858562001aab565b90509392505050565b6200195062001d35565b82518211156200195f57600080fd5b846020015182856200197291906200281f565b1115620019b057620019af8560026200199d886020015188876200199791906200281f565b62001b49565b620019a9919062002a14565b62001b67565b5b600080865180518760208301019350808887011115620019d05787860182525b60208701925050505b6020841062001a1f5780518252602082620019f591906200281f565b915060208162001a0691906200281f565b905060208462001a17919062002a75565b9350620019d9565b60006001856020036101000a03905080198251168184511681811785525050508692505050949350505050565b62001a5662001d35565b8360200151831062001a815762001a80846002866020015162001a7a919062002a14565b62001b67565b5b835180516020858301018481538186141562001a9e576001820183525b5050508390509392505050565b62001ab562001d35565b8460200151848362001ac891906200281f565b111562001af75762001af6856002868562001ae491906200281f565b62001af0919062002a14565b62001b67565b5b600060018361010062001b0b9190620028d7565b62001b17919062002a75565b9050855183868201018583198251161781528151858801111562001b3b5784870182525b505085915050949350505050565b60008183111562001b5d5782905062001b61565b8190505b92915050565b60008260000151905062001b7c8383620016c2565b5062001b898382620018d6565b50505050565b6040518061014001604052806060815260200160608152602001600073ffffffffffffffffffffffffffffffffffffffff168152602001600073ffffffffffffffffffffffffffffffffffffffff16815260200160608152602001600073ffffffffffffffffffffffffffffffffffffffff168152602001606081526020016060815260200160008152602001600080191681525090565b612c3b8062002fc083390190565b82805462001c439062002b9d565b90600052602060002090601f01602090048101928262001c67576000855562001cb3565b82601f1062001c8257805160ff191683800117855562001cb3565b8280016001018555821562001cb3579182015b8281111562001cb257825182559160200191906001019062001c95565b5b50905062001cc2919062001d4f565b5090565b6040518060a0016040528060008019168152602001600073ffffffffffffffffffffffffffffffffffffffff16815260200160007bffffffffffffffffffffffffffffffffffffffffffffffffffffffff191681526020016000815260200162001d2f62001d35565b81525090565b604051806040016040528060608152602001600081525090565b5b8082111562001d6a57600081600090555060010162001d50565b5090565b600062001d8562001d7f84620027a6565b6200277d565b90508281526020810184848401111562001da45762001da362002d8c565b5b62001db184828562002b58565b509392505050565b60008135905062001dca8162002f57565b92915050565b60008151905062001de18162002f57565b92915050565b60008151905062001df88162002f71565b92915050565b60008135905062001e0f8162002f8b565b92915050565b60008083601f84011262001e2e5762001e2d62002d82565b5b8235905067ffffffffffffffff81111562001e4e5762001e4d62002d7d565b5b60208301915083600182028301111562001e6d5762001e6c62002d87565b5b9250929050565b600082601f83011262001e8c5762001e8b62002d82565b5b813562001e9e84826020860162001d6e565b91505092915050565b60008135905062001eb88162002fa5565b92915050565b60006020828403121562001ed75762001ed662002d96565b5b600062001ee78482850162001dd0565b91505092915050565b60006020828403121562001f095762001f0862002d96565b5b600062001f198482850162001de7565b91505092915050565b6000806040838503121562001f3c5762001f3b62002d96565b5b600062001f4c8582860162001dfe565b925050602062001f5f8582860162001ea7565b9150509250929050565b60008060006040848603121562001f855762001f8462002d96565b5b600084013567ffffffffffffffff81111562001fa65762001fa562002d91565b5b62001fb48682870162001e15565b9350935050602062001fc98682870162001ea7565b9150509250925092565b60008060008060008060c0878903121562001ff35762001ff262002d96565b5b600087013567ffffffffffffffff81111562002014576200201362002d91565b5b6200202289828a0162001e74565b965050602087013567ffffffffffffffff81111562002046576200204562002d91565b5b6200205489828a0162001e74565b955050604087013567ffffffffffffffff81111562002078576200207762002d91565b5b6200208689828a0162001e74565b94505060606200209989828a0162001db9565b935050608087013567ffffffffffffffff811115620020bd57620020bc62002d91565b5b620020cb89828a0162001e74565b92505060a087013567ffffffffffffffff811115620020ef57620020ee62002d91565b5b620020fd89828a0162001e74565b9150509295509295509295565b60006020828403121562002123576200212262002d96565b5b6000620021338482850162001ea7565b91505092915050565b620021478162002ab0565b82525050565b620021626200215c8262002ab0565b62002c57565b82525050565b620021738162002ac4565b82525050565b620021848162002ad0565b82525050565b620021958162002ada565b82525050565b6000620021a882620027dc565b620021b48185620027f2565b9350620021c681856020860162002b67565b620021d18162002d9b565b840191505092915050565b620021f1620021eb8262002b30565b62002c57565b82525050565b600062002205838562002814565b93506200221483858462002b58565b82840190509392505050565b60006200222d82620027e7565b62002239818562002803565b93506200224b81856020860162002b67565b620022568162002d9b565b840191505092915050565b60006200226e82620027e7565b6200227a818562002814565b93506200228c81856020860162002b67565b80840191505092915050565b6000620022a760238362002803565b9150620022b48262002dc6565b604082019050919050565b6000620022ce60268362002814565b9150620022db8262002e15565b602682019050919050565b6000620022f560058362002814565b9150620023028262002e64565b600582019050919050565b60006200231c60048362002814565b9150620023298262002e8d565b600482019050919050565b600062002343601e8362002814565b9150620023508262002eb6565b601e82019050919050565b60006200236a60178362002814565b9150620023778262002edf565b601782019050919050565b60006200239160288362002803565b91506200239e8262002f08565b604082019050919050565b620023b48162002b26565b82525050565b620023cf620023c98262002b26565b62002c7f565b82525050565b6000620023e38285620021dc565b601482019150620023f58284620023ba565b6020820191508190509392505050565b6000620024128262002334565b915062002420828962002261565b91506200242d826200235b565b91506200243b82886200214d565b6014820191506200244c82620022bf565b91506200245a828762002261565b915062002467826200230d565b915062002475828662002261565b91506200248282620022e6565b915062002491828486620021f7565b9150819050979650505050505050565b6000602082019050620024b860008301846200213c565b92915050565b6000606082019050620024d560008301866200213c565b8181036020830152620024e9818562002220565b90508181036040830152620024ff818462002220565b9050949350505050565b60006101008201905062002521600083018b6200213c565b62002530602083018a620023a9565b6200253f604083018962002179565b6200254e60608301886200213c565b6200255d60808301876200218a565b6200256c60a0830186620023a9565b6200257b60c0830185620023a9565b81810360e08301526200258f81846200219b565b90509998505050505050505050565b6000606082019050620025b560008301866200213c565b620025c46020830185620023a9565b8181036040830152620025d881846200219b565b9050949350505050565b6000602082019050620025f9600083018462002168565b92915050565b600060208201905062002616600083018462002179565b92915050565b600060408201905062002633600083018562002179565b620026426020830184620023a9565b9392505050565b600061014082019050818103600083015262002666818d62002220565b905081810360208301526200267c818c62002220565b90506200268d604083018b6200213c565b6200269c606083018a6200213c565b8181036080830152620026b0818962002220565b9050620026c160a08301886200213c565b81810360c0830152620026d5818762002220565b905081810360e0830152620026eb818662002220565b9050620026fd610100830185620023a9565b6200270d61012083018462002179565b9b9a5050505050505050505050565b60006020820190508181036000830152620027378162002298565b9050919050565b60006020820190508181036000830152620027598162002382565b9050919050565b6000602082019050620027776000830184620023a9565b92915050565b6000620027896200279c565b905062002797828262002bd3565b919050565b6000604051905090565b600067ffffffffffffffff821115620027c457620027c362002d4e565b5b620027cf8262002d9b565b9050602081019050919050565b600081519050919050565b600081519050919050565b600082825260208201905092915050565b600082825260208201905092915050565b600081905092915050565b60006200282c8262002b26565b9150620028398362002b26565b9250827fffffffffffffffffffffffffffffffffffffffffffffffffffffffffffffffff0382111562002871576200287062002cc1565b5b828201905092915050565b6000808291508390505b6001851115620028ce57808604811115620028a657620028a562002cc1565b5b6001851615620028b65780820291505b8081029050620028c68562002db9565b945062002886565b94509492505050565b6000620028e48262002b26565b9150620028f18362002b26565b9250620029207fffffffffffffffffffffffffffffffffffffffffffffffffffffffffffffffff848462002928565b905092915050565b6000826200293a576001905062002a0d565b816200294a576000905062002a0d565b81600181146200296357600281146200296e57620029a4565b600191505062002a0d565b60ff84111562002983576200298262002cc1565b5b8360020a9150848211156200299d576200299c62002cc1565b5b5062002a0d565b5060208310610133831016604e8410600b8410161715620029de5782820a905083811115620029d857620029d762002cc1565b5b62002a0d565b620029ed84848460016200287c565b9250905081840481111562002a075762002a0662002cc1565b5b81810290505b9392505050565b600062002a218262002b26565b915062002a2e8362002b26565b9250817fffffffffffffffffffffffffffffffffffffffffffffffffffffffffffffffff048311821515161562002a6a5762002a6962002cc1565b5b828202905092915050565b600062002a828262002b26565b915062002a8f8362002b26565b92508282101562002aa55762002aa462002cc1565b5b828203905092915050565b600062002abd8262002b06565b9050919050565b60008115159050919050565b6000819050919050565b60007fffffffff0000000000000000000000000000000000000000000000000000000082169050919050565b600073ffffffffffffffffffffffffffffffffffffffff82169050919050565b6000819050919050565b600062002b3d8262002b44565b9050919050565b600062002b518262002b06565b9050919050565b82818337600083830152505050565b60005b8381101562002b8757808201518184015260208101905062002b6a565b8381111562002b97576000848401525b50505050565b6000600282049050600182168062002bb657607f821691505b6020821081141562002bcd5762002bcc62002d1f565b5b50919050565b62002bde8262002d9b565b810181811067ffffffffffffffff8211171562002c005762002bff62002d4e565b5b80604052505050565b600062002c168262002b26565b91507fffffffffffffffffffffffffffffffffffffffffffffffffffffffffffffffff82141562002c4c5762002c4b62002cc1565b5b600182019050919050565b600062002c648262002c6b565b9050919050565b600062002c788262002dac565b9050919050565b6000819050919050565b600062002c968262002b26565b915062002ca38362002b26565b92508262002cb65762002cb562002cf0565b5b828206905092915050565b7f4e487b7100000000000000000000000000000000000000000000000000000000600052601160045260246000fd5b7f4e487b7100000000000000000000000000000000000000000000000000000000600052601260045260246000fd5b7f4e487b7100000000000000000000000000000000000000000000000000000000600052602260045260246000fd5b7f4e487b7100000000000000000000000000000000000000000000000000000000600052604160045260246000fd5b600080fd5b600080fd5b600080fd5b600080fd5b600080fd5b600080fd5b6000601f19601f8301169050919050565b60008160601b9050919050565b60008160011c9050919050565b7f756e61626c6520746f207472616e73666572416e6443616c6c20746f206f726160008201527f636c650000000000000000000000000000000000000000000000000000000000602082015250565b7f2f3f71756f74652d63757272656e63793d55534426666f726d61743d4a534f4e60008201527f2666726f6d3d0000000000000000000000000000000000000000000000000000602082015250565b7f266b65793d000000000000000000000000000000000000000000000000000000600082015250565b7f26746f3d00000000000000000000000000000000000000000000000000000000600082015250565b7f68747470733a2f2f6170692e636f76616c656e7468712e636f6d2f76312f0000600082015250565b7f2f6e66745f6d61726b65742f636f6c6c656374696f6e2f000000000000000000600082015250565b7f536f75726365206d75737420626520746865206f7261636c65206f662074686560008201527f2072657175657374000000000000000000000000000000000000000000000000602082015250565b62002f628162002ab0565b811462002f6e57600080fd5b50565b62002f7c8162002ac4565b811462002f8857600080fd5b50565b62002f968162002ad0565b811462002fa257600080fd5b50565b62002fb08162002b26565b811462002fbc57600080fd5b5056fe60806040523480156200001157600080fd5b5060405162002c3b38038062002c3b833981810160405281019062000037919062000425565b8181816000908051906020019062000051929190620002e0565b5080600190805190602001906200006a929190620002e0565b505050620000808360016200008960201b60201c565b5050506200081c565b600073ffffffffffffffffffffffffffffffffffffffff168273ffffffffffffffffffffffffffffffffffffffff161415620000fc576040517f08c379a0000000000000000000000000000000000000000000000000000000008152600401620000f3906200052f565b60405180910390fd5b6200010d816200026f60201b60201c565b1562000150576040517f08c379a000000000000000000000000000000000000000000000000000000000815260040162000147906200050d565b60405180910390fd5b6200016460008383620002db60201b60201c565b6001600360008473ffffffffffffffffffffffffffffffffffffffff1673ffffffffffffffffffffffffffffffffffffffff1681526020019081526020016000206000828254620001b69190620005c1565b92505081905550816002600083815260200190815260200160002060006101000a81548173ffffffffffffffffffffffffffffffffffffffff021916908373ffffffffffffffffffffffffffffffffffffffff160217905550808273ffffffffffffffffffffffffffffffffffffffff16600073ffffffffffffffffffffffffffffffffffffffff167fddf252ad1be2c89b69c2b068fc378daa952ba7f163c4a11628f55a4df523b3ef60405160405180910390a45050565b60008073ffffffffffffffffffffffffffffffffffffffff166002600084815260200190815260200160002060009054906101000a900473ffffffffffffffffffffffffffffffffffffffff1673ffffffffffffffffffffffffffffffffffffffff1614159050919050565b505050565b828054620002ee9062000692565b90600052602060002090601f0160209004810192826200031257600085556200035e565b82601f106200032d57805160ff19168380011785556200035e565b828001600101855582156200035e579182015b828111156200035d57825182559160200191906001019062000340565b5b5090506200036d919062000371565b5090565b5b808211156200038c57600081600090555060010162000372565b5090565b6000620003a7620003a1846200057a565b62000551565b905082815260208101848484011115620003c657620003c562000790565b5b620003d38482856200065c565b509392505050565b600081519050620003ec8162000802565b92915050565b600082601f8301126200040a57620004096200078b565b5b81516200041c84826020860162000390565b91505092915050565b6000806000606084860312156200044157620004406200079a565b5b60006200045186828701620003db565b935050602084015167ffffffffffffffff81111562000475576200047462000795565b5b6200048386828701620003f2565b925050604084015167ffffffffffffffff811115620004a757620004a662000795565b5b620004b586828701620003f2565b9150509250925092565b6000620004ce601c83620005b0565b9150620004db82620007b0565b602082019050919050565b6000620004f5602083620005b0565b91506200050282620007d9565b602082019050919050565b600060208201905081810360008301526200052881620004bf565b9050919050565b600060208201905081810360008301526200054a81620004e6565b9050919050565b60006200055d62000570565b90506200056b8282620006c8565b919050565b6000604051905090565b600067ffffffffffffffff8211156200059857620005976200075c565b5b620005a3826200079f565b9050602081019050919050565b600082825260208201905092915050565b6000620005ce8262000652565b9150620005db8362000652565b9250827fffffffffffffffffffffffffffffffffffffffffffffffffffffffffffffffff03821115620006135762000612620006fe565b5b828201905092915050565b60006200062b8262000632565b9050919050565b600073ffffffffffffffffffffffffffffffffffffffff82169050919050565b6000819050919050565b60005b838110156200067c5780820151818401526020810190506200065f565b838111156200068c576000848401525b50505050565b60006002820490506001821680620006ab57607f821691505b60208210811415620006c257620006c16200072d565b5b50919050565b620006d3826200079f565b810181811067ffffffffffffffff82111715620006f557620006f46200075c565b5b80604052505050565b7f4e487b7100000000000000000000000000000000000000000000000000000000600052601160045260246000fd5b7f4e487b7100000000000000000000000000000000000000000000000000000000600052602260045260246000fd5b7f4e487b7100000000000000000000000000000000000000000000000000000000600052604160045260246000fd5b600080fd5b600080fd5b600080fd5b600080fd5b6000601f19601f8301169050919050565b7f4552433732313a20746f6b656e20616c7265616479206d696e74656400000000600082015250565b7f4552433732313a206d696e7420746f20746865207a65726f2061646472657373600082015250565b6200080d816200061e565b81146200081957600080fd5b50565b61240f806200082c6000396000f3fe608060405234801561001057600080fd5b50600436106100ea5760003560e01c80636352211e1161008c578063a22cb46511610066578063a22cb4651461025d578063b88d4fde14610279578063c87b56dd14610295578063e985e9c5146102c5576100ea565b80636352211e146101df57806370a082311461020f57806395d89b411461023f576100ea565b8063095ea7b3116100c8578063095ea7b31461016d57806323b872dd1461018957806338cc4831146101a557806342842e0e146101c3576100ea565b806301ffc9a7146100ef57806306fdde031461011f578063081812fc1461013d575b600080fd5b6101096004803603810190610104919061169a565b6102f5565b6040516101169190611a20565b60405180910390f35b6101276103d7565b6040516101349190611a3b565b60405180910390f35b610157600480360381019061015291906116f4565b610469565b60405161016491906119b9565b60405180910390f35b6101876004803603810190610182919061165a565b6104ee565b005b6101a3600480360381019061019e9190611544565b610606565b005b6101ad610666565b6040516101ba91906119b9565b60405180910390f35b6101dd60048036038101906101d89190611544565b61066e565b005b6101f960048036038101906101f491906116f4565b61068e565b60405161020691906119b9565b60405180910390f35b610229600480360381019061022491906114d7565b610740565b6040516102369190611bdd565b60405180910390f35b6102476107f8565b6040516102549190611a3b565b60405180910390f35b6102776004803603810190610272919061161a565b61088a565b005b610293600480360381019061028e9190611597565b6108a0565b005b6102af60048036038101906102aa91906116f4565b610902565b6040516102bc9190611a3b565b60405180910390f35b6102df60048036038101906102da9190611504565b6109a9565b6040516102ec9190611a20565b60405180910390f35b60007f80ac58cd000000000000000000000000000000000000000000000000000000007bffffffffffffffffffffffffffffffffffffffffffffffffffffffff1916827bffffffffffffffffffffffffffffffffffffffffffffffffffffffff191614806103c057507f5b5e139f000000000000000000000000000000000000000000000000000000007bffffffffffffffffffffffffffffffffffffffffffffffffffffffff1916827bffffffffffffffffffffffffffffffffffffffffffffffffffffffff1916145b806103d057506103cf82610a3d565b5b9050919050565b6060600080546103e690611e02565b80601f016020809104026020016040519081016040528092919081815260200182805461041290611e02565b801561045f5780601f106104345761010080835404028352916020019161045f565b820191906000526020600020905b81548152906001019060200180831161044257829003601f168201915b5050505050905090565b600061047482610aa7565b6104b3576040517f08c379a00000000000000000000000000000000000000000000000000000000081526004016104aa90611b3d565b60405180910390fd5b6004600083815260200190815260200160002060009054906101000a900473ffffffffffffffffffffffffffffffffffffffff169050919050565b60006104f98261068e565b90508073ffffffffffffffffffffffffffffffffffffffff168373ffffffffffffffffffffffffffffffffffffffff16141561056a576040517f08c379a000000000000000000000000000000000000000000000000000000000815260040161056190611b9d565b60405180910390fd5b8073ffffffffffffffffffffffffffffffffffffffff16610589610b13565b73ffffffffffffffffffffffffffffffffffffffff1614806105b857506105b7816105b2610b13565b6109a9565b5b6105f7576040517f08c379a00000000000000000000000000000000000000000000000000000000081526004016105ee90611add565b60405180910390fd5b6106018383610b1b565b505050565b610617610611610b13565b82610bd4565b610656576040517f08c379a000000000000000000000000000000000000000000000000000000000815260040161064d90611bbd565b60405180910390fd5b610661838383610cb2565b505050565b600030905090565b610689838383604051806020016040528060008152506108a0565b505050565b6000806002600084815260200190815260200160002060009054906101000a900473ffffffffffffffffffffffffffffffffffffffff169050600073ffffffffffffffffffffffffffffffffffffffff168173ffffffffffffffffffffffffffffffffffffffff161415610737576040517f08c379a000000000000000000000000000000000000000000000000000000000815260040161072e90611b1d565b60405180910390fd5b80915050919050565b60008073ffffffffffffffffffffffffffffffffffffffff168273ffffffffffffffffffffffffffffffffffffffff1614156107b1576040517f08c379a00000000000000000000000000000000000000000000000000000000081526004016107a890611afd565b60405180910390fd5b600360008373ffffffffffffffffffffffffffffffffffffffff1673ffffffffffffffffffffffffffffffffffffffff168152602001908152602001600020549050919050565b60606001805461080790611e02565b80601f016020809104026020016040519081016040528092919081815260200182805461083390611e02565b80156108805780601f1061085557610100808354040283529160200191610880565b820191906000526020600020905b81548152906001019060200180831161086357829003601f168201915b5050505050905090565b61089c610895610b13565b8383610f0e565b5050565b6108b16108ab610b13565b83610bd4565b6108f0576040517f08c379a00000000000000000000000000000000000000000000000000000000081526004016108e790611bbd565b60405180910390fd5b6108fc8484848461107b565b50505050565b606061090d82610aa7565b61094c576040517f08c379a000000000000000000000000000000000000000000000000000000000815260040161094390611b7d565b60405180910390fd5b60006109566110d7565b9050600081511161097657604051806020016040528060008152506109a1565b80610980846110ee565b604051602001610991929190611995565b6040516020818303038152906040525b915050919050565b6000600560008473ffffffffffffffffffffffffffffffffffffffff1673ffffffffffffffffffffffffffffffffffffffff16815260200190815260200160002060008373ffffffffffffffffffffffffffffffffffffffff1673ffffffffffffffffffffffffffffffffffffffff16815260200190815260200160002060009054906101000a900460ff16905092915050565b60007f01ffc9a7000000000000000000000000000000000000000000000000000000007bffffffffffffffffffffffffffffffffffffffffffffffffffffffff1916827bffffffffffffffffffffffffffffffffffffffffffffffffffffffff1916149050919050565b60008073ffffffffffffffffffffffffffffffffffffffff166002600084815260200190815260200160002060009054906101000a900473ffffffffffffffffffffffffffffffffffffffff1673ffffffffffffffffffffffffffffffffffffffff1614159050919050565b600033905090565b816004600083815260200190815260200160002060006101000a81548173ffffffffffffffffffffffffffffffffffffffff021916908373ffffffffffffffffffffffffffffffffffffffff160217905550808273ffffffffffffffffffffffffffffffffffffffff16610b8e8361068e565b73ffffffffffffffffffffffffffffffffffffffff167f8c5be1e5ebec7d5bd14f71427d1e84f3dd0314c0f7b2291e5b200ac8c7c3b92560405160405180910390a45050565b6000610bdf82610aa7565b610c1e576040517f08c379a0000000000000000000000000000000000000000000000000000000008152600401610c1590611abd565b60405180910390fd5b6000610c298361068e565b90508073ffffffffffffffffffffffffffffffffffffffff168473ffffffffffffffffffffffffffffffffffffffff161480610c9857508373ffffffffffffffffffffffffffffffffffffffff16610c8084610469565b73ffffffffffffffffffffffffffffffffffffffff16145b80610ca95750610ca881856109a9565b5b91505092915050565b8273ffffffffffffffffffffffffffffffffffffffff16610cd28261068e565b73ffffffffffffffffffffffffffffffffffffffff1614610d28576040517f08c379a0000000000000000000000000000000000000000000000000000000008152600401610d1f90611b5d565b60405180910390fd5b600073ffffffffffffffffffffffffffffffffffffffff168273ffffffffffffffffffffffffffffffffffffffff161415610d98576040517f08c379a0000000000000000000000000000000000000000000000000000000008152600401610d8f90611a7d565b60405180910390fd5b610da383838361124f565b610dae600082610b1b565b6001600360008573ffffffffffffffffffffffffffffffffffffffff1673ffffffffffffffffffffffffffffffffffffffff1681526020019081526020016000206000828254610dfe9190611d18565b925050819055506001600360008473ffffffffffffffffffffffffffffffffffffffff1673ffffffffffffffffffffffffffffffffffffffff1681526020019081526020016000206000828254610e559190611c91565b92505081905550816002600083815260200190815260200160002060006101000a81548173ffffffffffffffffffffffffffffffffffffffff021916908373ffffffffffffffffffffffffffffffffffffffff160217905550808273ffffffffffffffffffffffffffffffffffffffff168473ffffffffffffffffffffffffffffffffffffffff167fddf252ad1be2c89b69c2b068fc378daa952ba7f163c4a11628f55a4df523b3ef60405160405180910390a4505050565b8173ffffffffffffffffffffffffffffffffffffffff168373ffffffffffffffffffffffffffffffffffffffff161415610f7d576040517f08c379a0000000000000000000000000000000000000000000000000000000008152600401610f7490611a9d565b60405180910390fd5b80600560008573ffffffffffffffffffffffffffffffffffffffff1673ffffffffffffffffffffffffffffffffffffffff16815260200190815260200160002060008473ffffffffffffffffffffffffffffffffffffffff1673ffffffffffffffffffffffffffffffffffffffff16815260200190815260200160002060006101000a81548160ff0219169083151502179055508173ffffffffffffffffffffffffffffffffffffffff168373ffffffffffffffffffffffffffffffffffffffff167f17307eab39ab6107e8899845ad3d59bd9653f200f220920489ca2b5937696c318360405161106e9190611a20565b60405180910390a3505050565b611086848484610cb2565b61109284848484611254565b6110d1576040517f08c379a00000000000000000000000000000000000000000000000000000000081526004016110c890611a5d565b60405180910390fd5b50505050565b606060405180602001604052806000815250905090565b60606000821415611136576040518060400160405280600181526020017f3000000000000000000000000000000000000000000000000000000000000000815250905061124a565b600082905060005b6000821461116857808061115190611e65565b915050600a826111619190611ce7565b915061113e565b60008167ffffffffffffffff81111561118457611183611f9b565b5b6040519080825280601f01601f1916602001820160405280156111b65781602001600182028036833780820191505090505b5090505b60008514611243576001826111cf9190611d18565b9150600a856111de9190611eae565b60306111ea9190611c91565b60f81b818381518110611200576111ff611f6c565b5b60200101907effffffffffffffffffffffffffffffffffffffffffffffffffffffffffffff1916908160001a905350600a8561123c9190611ce7565b94506111ba565b8093505050505b919050565b505050565b60006112758473ffffffffffffffffffffffffffffffffffffffff166113eb565b156113de578373ffffffffffffffffffffffffffffffffffffffff1663150b7a0261129e610b13565b8786866040518563ffffffff1660e01b81526004016112c094939291906119d4565b602060405180830381600087803b1580156112da57600080fd5b505af192505050801561130b57506040513d601f19601f8201168201806040525081019061130891906116c7565b60015b61138e573d806000811461133b576040519150601f19603f3d011682016040523d82523d6000602084013e611340565b606091505b50600081511415611386576040517f08c379a000000000000000000000000000000000000000000000000000000000815260040161137d90611a5d565b60405180910390fd5b805181602001fd5b63150b7a0260e01b7bffffffffffffffffffffffffffffffffffffffffffffffffffffffff1916817bffffffffffffffffffffffffffffffffffffffffffffffffffffffff1916149150506113e3565b600190505b949350505050565b600080823b905060008111915050919050565b600061141161140c84611c1d565b611bf8565b90508281526020810184848401111561142d5761142c611fcf565b5b611438848285611dc0565b509392505050565b60008135905061144f8161237d565b92915050565b60008135905061146481612394565b92915050565b600081359050611479816123ab565b92915050565b60008151905061148e816123ab565b92915050565b600082601f8301126114a9576114a8611fca565b5b81356114b98482602086016113fe565b91505092915050565b6000813590506114d1816123c2565b92915050565b6000602082840312156114ed576114ec611fd9565b5b60006114fb84828501611440565b91505092915050565b6000806040838503121561151b5761151a611fd9565b5b600061152985828601611440565b925050602061153a85828601611440565b9150509250929050565b60008060006060848603121561155d5761155c611fd9565b5b600061156b86828701611440565b935050602061157c86828701611440565b925050604061158d868287016114c2565b9150509250925092565b600080600080608085870312156115b1576115b0611fd9565b5b60006115bf87828801611440565b94505060206115d087828801611440565b93505060406115e1878288016114c2565b925050606085013567ffffffffffffffff81111561160257611601611fd4565b5b61160e87828801611494565b91505092959194509250565b6000806040838503121561163157611630611fd9565b5b600061163f85828601611440565b925050602061165085828601611455565b9150509250929050565b6000806040838503121561167157611670611fd9565b5b600061167f85828601611440565b9250506020611690858286016114c2565b9150509250929050565b6000602082840312156116b0576116af611fd9565b5b60006116be8482850161146a565b91505092915050565b6000602082840312156116dd576116dc611fd9565b5b60006116eb8482850161147f565b91505092915050565b60006020828403121561170a57611709611fd9565b5b6000611718848285016114c2565b91505092915050565b61172a81611d4c565b82525050565b61173981611d5e565b82525050565b600061174a82611c4e565b6117548185611c64565b9350611764818560208601611dcf565b61176d81611fde565b840191505092915050565b600061178382611c59565b61178d8185611c75565b935061179d818560208601611dcf565b6117a681611fde565b840191505092915050565b60006117bc82611c59565b6117c68185611c86565b93506117d6818560208601611dcf565b80840191505092915050565b60006117ef603283611c75565b91506117fa82611fef565b604082019050919050565b6000611812602483611c75565b915061181d8261203e565b604082019050919050565b6000611835601983611c75565b91506118408261208d565b602082019050919050565b6000611858602c83611c75565b9150611863826120b6565b604082019050919050565b600061187b603883611c75565b915061188682612105565b604082019050919050565b600061189e602a83611c75565b91506118a982612154565b604082019050919050565b60006118c1602983611c75565b91506118cc826121a3565b604082019050919050565b60006118e4602c83611c75565b91506118ef826121f2565b604082019050919050565b6000611907602983611c75565b915061191282612241565b604082019050919050565b600061192a602f83611c75565b915061193582612290565b604082019050919050565b600061194d602183611c75565b9150611958826122df565b604082019050919050565b6000611970603183611c75565b915061197b8261232e565b604082019050919050565b61198f81611db6565b82525050565b60006119a182856117b1565b91506119ad82846117b1565b91508190509392505050565b60006020820190506119ce6000830184611721565b92915050565b60006080820190506119e96000830187611721565b6119f66020830186611721565b611a036040830185611986565b8181036060830152611a15818461173f565b905095945050505050565b6000602082019050611a356000830184611730565b92915050565b60006020820190508181036000830152611a558184611778565b905092915050565b60006020820190508181036000830152611a76816117e2565b9050919050565b60006020820190508181036000830152611a9681611805565b9050919050565b60006020820190508181036000830152611ab681611828565b9050919050565b60006020820190508181036000830152611ad68161184b565b9050919050565b60006020820190508181036000830152611af68161186e565b9050919050565b60006020820190508181036000830152611b1681611891565b9050919050565b60006020820190508181036000830152611b36816118b4565b9050919050565b60006020820190508181036000830152611b56816118d7565b9050919050565b60006020820190508181036000830152611b76816118fa565b9050919050565b60006020820190508181036000830152611b968161191d565b9050919050565b60006020820190508181036000830152611bb681611940565b9050919050565b60006020820190508181036000830152611bd681611963565b9050919050565b6000602082019050611bf26000830184611986565b92915050565b6000611c02611c13565b9050611c0e8282611e34565b919050565b6000604051905090565b600067ffffffffffffffff821115611c3857611c37611f9b565b5b611c4182611fde565b9050602081019050919050565b600081519050919050565b600081519050919050565b600082825260208201905092915050565b600082825260208201905092915050565b600081905092915050565b6000611c9c82611db6565b9150611ca783611db6565b9250827fffffffffffffffffffffffffffffffffffffffffffffffffffffffffffffffff03821115611cdc57611cdb611edf565b5b828201905092915050565b6000611cf282611db6565b9150611cfd83611db6565b925082611d0d57611d0c611f0e565b5b828204905092915050565b6000611d2382611db6565b9150611d2e83611db6565b925082821015611d4157611d40611edf565b5b828203905092915050565b6000611d5782611d96565b9050919050565b60008115159050919050565b60007fffffffff0000000000000000000000000000000000000000000000000000000082169050919050565b600073ffffffffffffffffffffffffffffffffffffffff82169050919050565b6000819050919050565b82818337600083830152505050565b60005b83811015611ded578082015181840152602081019050611dd2565b83811115611dfc576000848401525b50505050565b60006002820490506001821680611e1a57607f821691505b60208210811415611e2e57611e2d611f3d565b5b50919050565b611e3d82611fde565b810181811067ffffffffffffffff82111715611e5c57611e5b611f9b565b5b80604052505050565b6000611e7082611db6565b91507fffffffffffffffffffffffffffffffffffffffffffffffffffffffffffffffff821415611ea357611ea2611edf565b5b600182019050919050565b6000611eb982611db6565b9150611ec483611db6565b925082611ed457611ed3611f0e565b5b828206905092915050565b7f4e487b7100000000000000000000000000000000000000000000000000000000600052601160045260246000fd5b7f4e487b7100000000000000000000000000000000000000000000000000000000600052601260045260246000fd5b7f4e487b7100000000000000000000000000000000000000000000000000000000600052602260045260246000fd5b7f4e487b7100000000000000000000000000000000000000000000000000000000600052603260045260246000fd5b7f4e487b7100000000000000000000000000000000000000000000000000000000600052604160045260246000fd5b600080fd5b600080fd5b600080fd5b600080fd5b6000601f19601f8301169050919050565b7f4552433732313a207472616e7366657220746f206e6f6e20455243373231526560008201527f63656976657220696d706c656d656e7465720000000000000000000000000000602082015250565b7f4552433732313a207472616e7366657220746f20746865207a65726f2061646460008201527f7265737300000000000000000000000000000000000000000000000000000000602082015250565b7f4552433732313a20617070726f766520746f2063616c6c657200000000000000600082015250565b7f4552433732313a206f70657261746f7220717565727920666f72206e6f6e657860008201527f697374656e7420746f6b656e0000000000000000000000000000000000000000602082015250565b7f4552433732313a20617070726f76652063616c6c6572206973206e6f74206f7760008201527f6e6572206e6f7220617070726f76656420666f7220616c6c0000000000000000602082015250565b7f4552433732313a2062616c616e636520717565727920666f7220746865207a6560008201527f726f206164647265737300000000000000000000000000000000000000000000602082015250565b7f4552433732313a206f776e657220717565727920666f72206e6f6e657869737460008201527f656e7420746f6b656e0000000000000000000000000000000000000000000000602082015250565b7f4552433732313a20617070726f76656420717565727920666f72206e6f6e657860008201527f697374656e7420746f6b656e0000000000000000000000000000000000000000602082015250565b7f4552433732313a207472616e73666572206f6620746f6b656e2074686174206960008201527f73206e6f74206f776e0000000000000000000000000000000000000000000000602082015250565b7f4552433732314d657461646174613a2055524920717565727920666f72206e6f60008201527f6e6578697374656e7420746f6b656e0000000000000000000000000000000000602082015250565b7f4552433732313a20617070726f76616c20746f2063757272656e74206f776e6560008201527f7200000000000000000000000000000000000000000000000000000000000000602082015250565b7f4552433732313a207472616e736665722063616c6c6572206973206e6f74206f60008201527f776e6572206e6f7220617070726f766564000000000000000000000000000000602082015250565b61238681611d4c565b811461239157600080fd5b50565b61239d81611d5e565b81146123a857600080fd5b50565b6123b481611d6a565b81146123bf57600080fd5b50565b6123cb81611db6565b81146123d657600080fd5b5056fea2646970667358221220c7ab7a979a46765068eccc466facfec3442290aebf170044aefbe5269e16c39b64736f6c63430008060033a2646970667358221220e98f15c13dc2cea4835f6707b98acc43d4844415d4f3392c1807c668fe607fb764736f6c63430008060033",
  "linkReferences": {},
  "deployedLinkReferences": {}
}