{
  "_format": "hh-sol-artifact-1",
  "contractName": "NftBet",
  "sourceName": "contracts/main.sol",
  "abi": [
    {
      "inputs": [],
      "stateMutability": "nonpayable",
      "type": "constructor"
    },
    {
      "anonymous": false,
      "inputs": [
        {
          "indexed": true,
          "internalType": "bytes32",
          "name": "id",
          "type": "bytes32"
        }
      ],
      "name": "ChainlinkCancelled",
      "type": "event"
    },
    {
      "anonymous": false,
      "inputs": [
        {
          "indexed": true,
          "internalType": "bytes32",
          "name": "id",
          "type": "bytes32"
        }
      ],
      "name": "ChainlinkFulfilled",
      "type": "event"
    },
    {
      "anonymous": false,
      "inputs": [
        {
          "indexed": true,
          "internalType": "bytes32",
          "name": "id",
          "type": "bytes32"
        }
      ],
      "name": "ChainlinkRequested",
      "type": "event"
    },
    {
      "anonymous": false,
      "inputs": [
        {
          "indexed": false,
          "internalType": "address",
          "name": "creator",
          "type": "address"
        }
      ],
      "name": "GameCreated",
      "type": "event"
    },
    {
      "anonymous": false,
      "inputs": [
        {
          "indexed": false,
          "internalType": "bytes32",
          "name": "requestId",
          "type": "bytes32"
        }
      ],
      "name": "OracleRequestSent",
      "type": "event"
    },
    {
      "anonymous": false,
      "inputs": [
        {
          "indexed": false,
          "internalType": "bytes32",
          "name": "requestId",
          "type": "bytes32"
        },
        {
          "indexed": false,
          "internalType": "uint256",
          "name": "data",
          "type": "uint256"
        }
      ],
      "name": "OracleResultReturned",
      "type": "event"
    },
    {
      "anonymous": false,
      "inputs": [
        {
          "indexed": false,
          "internalType": "bytes32",
          "name": "requestId",
          "type": "bytes32"
        },
        {
          "indexed": false,
          "internalType": "bool",
          "name": "data",
          "type": "bool"
        }
      ],
      "name": "OracleResultReturnedBool",
      "type": "event"
    },
    {
      "inputs": [
        {
          "internalType": "string",
          "name": "gameName",
          "type": "string"
        },
        {
          "internalType": "string",
          "name": "gameSymbol",
          "type": "string"
        },
        {
          "internalType": "string",
          "name": "networkId",
          "type": "string"
        },
        {
          "internalType": "address",
          "name": "collectionAddress",
          "type": "address"
        },
        {
          "internalType": "string",
          "name": "date",
          "type": "string"
        },
        {
          "internalType": "string",
          "name": "floor_price",
          "type": "string"
        },
        {
          "internalType": "bool",
          "name": "direction",
          "type": "bool"
        }
      ],
      "name": "createGame",
      "outputs": [
        {
          "internalType": "bool",
          "name": "",
          "type": "bool"
        }
      ],
      "stateMutability": "nonpayable",
      "type": "function"
    },
    {
      "inputs": [
        {
          "internalType": "bytes32",
          "name": "_requestId",
          "type": "bytes32"
        },
        {
          "internalType": "bool",
          "name": "_data",
          "type": "bool"
        }
      ],
      "name": "fulfill",
      "outputs": [],
      "stateMutability": "nonpayable",
      "type": "function"
    },
    {
      "inputs": [
        {
          "internalType": "uint256",
          "name": "",
          "type": "uint256"
        }
      ],
      "name": "gameArray",
      "outputs": [
        {
          "internalType": "string",
          "name": "name",
          "type": "string"
        },
        {
          "internalType": "string",
          "name": "symbol",
          "type": "string"
        },
        {
          "internalType": "address",
          "name": "gameAddress",
          "type": "address"
        },
        {
          "internalType": "address",
          "name": "creator",
          "type": "address"
        },
        {
          "internalType": "string",
          "name": "networkId",
          "type": "string"
        },
        {
          "internalType": "address",
          "name": "collectionAddress",
          "type": "address"
        },
        {
          "internalType": "string",
          "name": "date",
          "type": "string"
        },
        {
          "internalType": "string",
          "name": "floor_price",
          "type": "string"
        },
        {
          "internalType": "uint256",
          "name": "gameID",
          "type": "uint256"
        },
        {
          "internalType": "bytes32",
          "name": "results",
          "type": "bytes32"
        },
        {
          "internalType": "bool",
          "name": "direction",
          "type": "bool"
        }
      ],
      "stateMutability": "view",
      "type": "function"
    },
    {
      "inputs": [
        {
          "internalType": "uint256",
          "name": "",
          "type": "uint256"
        }
      ],
      "name": "games",
      "outputs": [
        {
          "internalType": "string",
          "name": "name",
          "type": "string"
        },
        {
          "internalType": "string",
          "name": "symbol",
          "type": "string"
        },
        {
          "internalType": "address",
          "name": "gameAddress",
          "type": "address"
        },
        {
          "internalType": "address",
          "name": "creator",
          "type": "address"
        },
        {
          "internalType": "string",
          "name": "networkId",
          "type": "string"
        },
        {
          "internalType": "address",
          "name": "collectionAddress",
          "type": "address"
        },
        {
          "internalType": "string",
          "name": "date",
          "type": "string"
        },
        {
          "internalType": "string",
          "name": "floor_price",
          "type": "string"
        },
        {
          "internalType": "uint256",
          "name": "gameID",
          "type": "uint256"
        },
        {
          "internalType": "bytes32",
          "name": "results",
          "type": "bytes32"
        },
        {
          "internalType": "bool",
          "name": "direction",
          "type": "bool"
        }
      ],
      "stateMutability": "view",
      "type": "function"
    },
    {
      "inputs": [],
      "name": "price",
      "outputs": [
        {
          "internalType": "uint256",
          "name": "",
          "type": "uint256"
        }
      ],
      "stateMutability": "view",
      "type": "function"
    },
    {
      "inputs": [
        {
          "internalType": "string",
          "name": "apiKey",
          "type": "string"
        },
        {
          "internalType": "uint256",
          "name": "gameID",
          "type": "uint256"
        }
      ],
      "name": "requestData",
      "outputs": [
        {
          "internalType": "bytes32",
          "name": "requestId",
          "type": "bytes32"
        }
      ],
      "stateMutability": "nonpayable",
      "type": "function"
    },
    {
      "inputs": [
        {
          "internalType": "uint256",
          "name": "gameID",
          "type": "uint256"
        }
      ],
      "name": "resolveGame",
      "outputs": [
        {
          "internalType": "bool",
          "name": "",
          "type": "bool"
        }
      ],
      "stateMutability": "nonpayable",
      "type": "function"
    }
  ],
  "bytecode": "0x608060405260016004556000600d5534801561001a57600080fd5b5033600a60006101000a81548173ffffffffffffffffffffffffffffffffffffffff021916908373ffffffffffffffffffffffffffffffffffffffff16021790555061007f73326c977e6efc84e512bb9c30f76e30c160ed06fb61010e60201b60201c565b73c8d925525ca8759812d0c299b90247917d4d4b7c600760006101000a81548173ffffffffffffffffffffffffffffffffffffffff021916908373ffffffffffffffffffffffffffffffffffffffff1602179055507f3939623162383036613866383462313461323534323330636366303934373437600881905550662386f26fc10000600981905550610152565b80600260006101000a81548173ffffffffffffffffffffffffffffffffffffffff021916908373ffffffffffffffffffffffffffffffffffffffff16021790555050565b615ac280620001626000396000f3fe60806040523480156200001157600080fd5b5060043610620000885760003560e01c80633cbde95611620000635780633cbde9561462000143578063a035b1fe1462000179578063b7a5a5b6146200019b578063fd68990a14620001d15762000088565b8063071a7bb0146200008d578063117a5b9014620000cd57806336b945f5146200010d575b600080fd5b620000ab6004803603810190620000a59190620021a0565b620001f1565b604051620000c49b9a9998979695949392919062002505565b60405180910390f35b620000eb6004803603810190620000e59190620021a0565b62000599565b604051620001049b9a9998979695949392919062002505565b60405180910390f35b6200012b600480360381019062000125919062002052565b62000930565b6040516200013a91906200249e565b60405180910390f35b6200016160048036038101906200015b919062001fe8565b62000ee6565b604051620001709190620024bb565b60405180910390f35b62000183620011fc565b6040516200019291906200262d565b60405180910390f35b620001b96004803603810190620001b39190620021a0565b62001202565b604051620001c891906200249e565b60405180910390f35b620001ef6004803603810190620001e9919062001fa1565b6200120d565b005b600c81815481106200020257600080fd5b90600052602060002090600b0201600091509050806000018054620002279062002a5f565b80601f0160208091040260200160405190810160405280929190818152602001828054620002559062002a5f565b8015620002a65780601f106200027a57610100808354040283529160200191620002a6565b820191906000526020600020905b8154815290600101906020018083116200028857829003601f168201915b505050505090806001018054620002bd9062002a5f565b80601f0160208091040260200160405190810160405280929190818152602001828054620002eb9062002a5f565b80156200033c5780601f1062000310576101008083540402835291602001916200033c565b820191906000526020600020905b8154815290600101906020018083116200031e57829003601f168201915b5050505050908060020160009054906101000a900473ffffffffffffffffffffffffffffffffffffffff16908060030160009054906101000a900473ffffffffffffffffffffffffffffffffffffffff16908060040180546200039f9062002a5f565b80601f0160208091040260200160405190810160405280929190818152602001828054620003cd9062002a5f565b80156200041e5780601f10620003f2576101008083540402835291602001916200041e565b820191906000526020600020905b8154815290600101906020018083116200040057829003601f168201915b5050505050908060050160009054906101000a900473ffffffffffffffffffffffffffffffffffffffff16908060060180546200045b9062002a5f565b80601f0160208091040260200160405190810160405280929190818152602001828054620004899062002a5f565b8015620004da5780601f10620004ae57610100808354040283529160200191620004da565b820191906000526020600020905b815481529060010190602001808311620004bc57829003601f168201915b505050505090806007018054620004f19062002a5f565b80601f01602080910402602001604051908101604052809291908181526020018280546200051f9062002a5f565b8015620005705780601f10620005445761010080835404028352916020019162000570565b820191906000526020600020905b8154815290600101906020018083116200055257829003601f168201915b50505050509080600801549080600901549080600a0160009054906101000a900460ff1690508b565b600b602052806000526040600020600091509050806000018054620005be9062002a5f565b80601f0160208091040260200160405190810160405280929190818152602001828054620005ec9062002a5f565b80156200063d5780601f1062000611576101008083540402835291602001916200063d565b820191906000526020600020905b8154815290600101906020018083116200061f57829003601f168201915b505050505090806001018054620006549062002a5f565b80601f0160208091040260200160405190810160405280929190818152602001828054620006829062002a5f565b8015620006d35780601f10620006a757610100808354040283529160200191620006d3565b820191906000526020600020905b815481529060010190602001808311620006b557829003601f168201915b5050505050908060020160009054906101000a900473ffffffffffffffffffffffffffffffffffffffff16908060030160009054906101000a900473ffffffffffffffffffffffffffffffffffffffff1690806004018054620007369062002a5f565b80601f0160208091040260200160405190810160405280929190818152602001828054620007649062002a5f565b8015620007b55780601f106200078957610100808354040283529160200191620007b5565b820191906000526020600020905b8154815290600101906020018083116200079757829003601f168201915b5050505050908060050160009054906101000a900473ffffffffffffffffffffffffffffffffffffffff1690806006018054620007f29062002a5f565b80601f0160208091040260200160405190810160405280929190818152602001828054620008209062002a5f565b8015620008715780601f10620008455761010080835404028352916020019162000871565b820191906000526020600020905b8154815290600101906020018083116200085357829003601f168201915b505050505090806007018054620008889062002a5f565b80601f0160208091040260200160405190810160405280929190818152602001828054620008b69062002a5f565b8015620009075780601f10620008db5761010080835404028352916020019162000907565b820191906000526020600020905b815481529060010190602001808311620008e957829003601f168201915b50505050509080600801549080600901549080600a0160009054906101000a900460ff1690508b565b60006200093c62001bee565b6000338a8a6040516200094f9062001c8f565b6200095d939291906200237a565b604051809103906000f0801580156200097a573d6000803e3d6000fd5b50905033826060019073ffffffffffffffffffffffffffffffffffffffff16908173ffffffffffffffffffffffffffffffffffffffff1681525050898260000181905250888260200181905250878260800181905250868260a0019073ffffffffffffffffffffffffffffffffffffffff16908173ffffffffffffffffffffffffffffffffffffffff1681525050858260c00181905250848260e001819052508382610140019015159081151581525050600d600081548092919062000a409062002acb565b91905055826101000181815250508073ffffffffffffffffffffffffffffffffffffffff166338cc48316040518163ffffffff1660e01b815260040160206040518083038186803b15801562000a9557600080fd5b505afa15801562000aaa573d6000803e3d6000fd5b505050506040513d601f19601f8201168201806040525081019062000ad0919062001f3d565b826040019073ffffffffffffffffffffffffffffffffffffffff16908173ffffffffffffffffffffffffffffffffffffffff1681525050600c8290806001815401808255809150506001900390600052602060002090600b0201600090919091909150600082015181600001908051906020019062000b5192919062001c9d565b50602082015181600101908051906020019062000b7092919062001c9d565b5060408201518160020160006101000a81548173ffffffffffffffffffffffffffffffffffffffff021916908373ffffffffffffffffffffffffffffffffffffffff16021790555060608201518160030160006101000a81548173ffffffffffffffffffffffffffffffffffffffff021916908373ffffffffffffffffffffffffffffffffffffffff160217905550608082015181600401908051906020019062000c1d92919062001c9d565b5060a08201518160050160006101000a81548173ffffffffffffffffffffffffffffffffffffffff021916908373ffffffffffffffffffffffffffffffffffffffff16021790555060c082015181600601908051906020019062000c8392919062001c9d565b5060e082015181600701908051906020019062000ca292919062001c9d565b506101008201518160080155610120820151816009015561014082015181600a0160006101000a81548160ff021916908315150217905550505081600b6000600d548152602001908152602001600020600082015181600001908051906020019062000d1092919062001c9d565b50602082015181600101908051906020019062000d2f92919062001c9d565b5060408201518160020160006101000a81548173ffffffffffffffffffffffffffffffffffffffff021916908373ffffffffffffffffffffffffffffffffffffffff16021790555060608201518160030160006101000a81548173ffffffffffffffffffffffffffffffffffffffff021916908373ffffffffffffffffffffffffffffffffffffffff160217905550608082015181600401908051906020019062000ddc92919062001c9d565b5060a08201518160050160006101000a81548173ffffffffffffffffffffffffffffffffffffffff021916908373ffffffffffffffffffffffffffffffffffffffff16021790555060c082015181600601908051906020019062000e4292919062001c9d565b5060e082015181600701908051906020019062000e6192919062001c9d565b506101008201518160080155610120820151816009015561014082015181600a0160006101000a81548160ff0219169083151502179055509050507f4f0d1d413a983b9df8ab6ab954635b186a1e9a09ee6dc1b43263ddbf484122673360405162000ecd91906200235d565b60405180910390a1600192505050979650505050505050565b600080600b6000848152602001908152602001600020600401805462000f0c9062002a5f565b80601f016020809104026020016040519081016040528092919081815260200182805462000f3a9062002a5f565b801562000f8b5780601f1062000f5f5761010080835404028352916020019162000f8b565b820191906000526020600020905b81548152906001019060200180831162000f6d57829003601f168201915b505050505090506000600b600085815260200190815260200160002060050160009054906101000a900473ffffffffffffffffffffffffffffffffffffffff1690506000600b6000868152602001908152602001600020600601805462000ff29062002a5f565b80601f0160208091040260200160405190810160405280929190818152602001828054620010209062002a5f565b8015620010715780601f10620010455761010080835404028352916020019162001071565b820191906000526020600020905b8154815290600101906020018083116200105357829003601f168201915b50505050509050600060405180610100016040528060c38152602001620059ca60c3913990506000620010af6008543063fd68990a60e01b62001355565b9050620010fd6040518060400160405280600381526020017f676574000000000000000000000000000000000000000000000000000000000081525083836200138c9092919063ffffffff16565b6200117e6040518060400160405280600481526020017f70617468000000000000000000000000000000000000000000000000000000008152506040518060400160405280600581526020017f6572726f72000000000000000000000000000000000000000000000000000000815250836200138c9092919063ffffffff16565b6000620011b1600760009054906101000a900473ffffffffffffffffffffffffffffffffffffffff1683600954620013c3565b90507f2623af4aa03af6c852d773dd28dec675dda47e077d1d72e414ca1529258de93c81604051620011e49190620024bb565b60405180910390a18096505050505050509392505050565b60065481565b600060019050919050565b816005600082815260200190815260200160002060009054906101000a900473ffffffffffffffffffffffffffffffffffffffff1673ffffffffffffffffffffffffffffffffffffffff163373ffffffffffffffffffffffffffffffffffffffff1614620012b2576040517f08c379a0000000000000000000000000000000000000000000000000000000008152600401620012a9906200260b565b60405180910390fd5b6005600082815260200190815260200160002060006101000a81549073ffffffffffffffffffffffffffffffffffffffff0219169055807f7cc135e0cebb02c3480ae5d74d377283180a2601f8f644edf7987b009316c63a60405160405180910390a27fe02a49848260c1001afb1f3324a2c9ed2984ce652636b5be92f66aefbb2c96a9838360405162001348929190620024d8565b60405180910390a1505050565b6200135f62001d2e565b6200136962001d2e565b620013828585858462001495909392919063ffffffff16565b9150509392505050565b620013a58284608001516200154990919063ffffffff16565b620013be8184608001516200154990919063ffffffff16565b505050565b6000806004549050600181620013da9190620026e1565b6004819055506000634042994660e01b60008087600001513089604001518760018c60800151600001516040516024016200141d989796959493929190620023c5565b604051602081830303815290604052907bffffffffffffffffffffffffffffffffffffffffffffffffffffffff19166020820180517bffffffffffffffffffffffffffffffffffffffffffffffffffffffff838183161783525050505090506200148a8683868462001572565b925050509392505050565b6200149f62001d2e565b620014b1856080015161010062001721565b508385600001818152505082856020019073ffffffffffffffffffffffffffffffffffffffff16908173ffffffffffffffffffffffffffffffffffffffff16815250508185604001907bffffffffffffffffffffffffffffffffffffffffffffffffffffffff191690817bffffffffffffffffffffffffffffffffffffffffffffffffffffffff191681525050849050949350505050565b62001558826003835162001796565b6200156d81836200193590919063ffffffff16565b505050565b60003084604051602001620015899291906200232d565b604051602081830303815290604052805190602001209050846005600083815260200190815260200160002060006101000a81548173ffffffffffffffffffffffffffffffffffffffff021916908373ffffffffffffffffffffffffffffffffffffffff160217905550807fb5e6e01e79f91267dc17b4e6314d5d4d03593d2ceee0fbb452b750bd70ea5af960405160405180910390a2600260009054906101000a900473ffffffffffffffffffffffffffffffffffffffff1673ffffffffffffffffffffffffffffffffffffffff16634000aea08685856040518463ffffffff1660e01b815260040162001681939291906200245a565b602060405180830381600087803b1580156200169c57600080fd5b505af1158015620016b1573d6000803e3d6000fd5b505050506040513d601f19601f82011682018060405250810190620016d7919062001f6f565b62001719576040517f08c379a00000000000000000000000000000000000000000000000000000000081526004016200171090620025e9565b60405180910390fd5b949350505050565b6200172b62001d9d565b60006020836200173c919062002b4b565b146200176f5760208262001751919062002b4b565b60206200175f919062002937565b826200176c9190620026e1565b91505b81836020018181525050604051808452600081528281016020016040525082905092915050565b60178167ffffffffffffffff1611620017d157620017ca8160058460ff16901b60ff1617846200195b90919063ffffffff16565b5062001930565b60ff8167ffffffffffffffff16116200182d5762001803601860058460ff16901b17846200195b90919063ffffffff16565b50620018268167ffffffffffffffff166001856200197f9092919063ffffffff16565b506200192f565b61ffff8167ffffffffffffffff16116200188a5762001860601960058460ff16901b17846200195b90919063ffffffff16565b50620018838167ffffffffffffffff166002856200197f9092919063ffffffff16565b506200192e565b63ffffffff8167ffffffffffffffff1611620018e957620018bf601a60058460ff16901b17846200195b90919063ffffffff16565b50620018e28167ffffffffffffffff166004856200197f9092919063ffffffff16565b506200192d565b62001908601b60058460ff16901b17846200195b90919063ffffffff16565b506200192b8167ffffffffffffffff166008856200197f9092919063ffffffff16565b505b5b5b5b505050565b6200193f62001d9d565b6200195383846000015151848551620019a5565b905092915050565b6200196562001d9d565b62001977838460000151518462001aab565b905092915050565b6200198962001d9d565b6200199c84856000015151858562001b0a565b90509392505050565b620019af62001d9d565b8251821115620019be57600080fd5b84602001518285620019d19190620026e1565b111562001a0f5762001a0e856002620019fc88602001518887620019f69190620026e1565b62001ba8565b62001a089190620028d6565b62001bc6565b5b60008086518051876020830101935080888701111562001a2f5787860182525b60208701925050505b6020841062001a7e578051825260208262001a549190620026e1565b915060208162001a659190620026e1565b905060208462001a76919062002937565b935062001a38565b60006001856020036101000a03905080198251168184511681811785525050508692505050949350505050565b62001ab562001d9d565b8360200151831062001ae05762001adf846002866020015162001ad99190620028d6565b62001bc6565b5b835180516020858301018481538186141562001afd576001820183525b5050508390509392505050565b62001b1462001d9d565b8460200151848362001b279190620026e1565b111562001b565762001b55856002868562001b439190620026e1565b62001b4f9190620028d6565b62001bc6565b5b600060018361010062001b6a919062002799565b62001b76919062002937565b9050855183868201018583198251161781528151858801111562001b9a5784870182525b505085915050949350505050565b60008183111562001bbc5782905062001bc0565b8190505b92915050565b60008260000151905062001bdb838362001721565b5062001be8838262001935565b50505050565b6040518061016001604052806060815260200160608152602001600073ffffffffffffffffffffffffffffffffffffffff168152602001600073ffffffffffffffffffffffffffffffffffffffff16815260200160608152602001600073ffffffffffffffffffffffffffffffffffffffff168152602001606081526020016060815260200160008152602001600080191681526020016000151581525090565b612c3b8062002d8f83390190565b82805462001cab9062002a5f565b90600052602060002090601f01602090048101928262001ccf576000855562001d1b565b82601f1062001cea57805160ff191683800117855562001d1b565b8280016001018555821562001d1b579182015b8281111562001d1a57825182559160200191906001019062001cfd565b5b50905062001d2a919062001db7565b5090565b6040518060a0016040528060008019168152602001600073ffffffffffffffffffffffffffffffffffffffff16815260200160007bffffffffffffffffffffffffffffffffffffffffffffffffffffffff191681526020016000815260200162001d9762001d9d565b81525090565b604051806040016040528060608152602001600081525090565b5b8082111562001dd257600081600090555060010162001db8565b5090565b600062001ded62001de78462002673565b6200264a565b90508281526020810184848401111562001e0c5762001e0b62002c4e565b5b62001e1984828562002a1a565b509392505050565b60008135905062001e328162002d26565b92915050565b60008151905062001e498162002d26565b92915050565b60008135905062001e608162002d40565b92915050565b60008151905062001e778162002d40565b92915050565b60008135905062001e8e8162002d5a565b92915050565b60008083601f84011262001ead5762001eac62002c44565b5b8235905067ffffffffffffffff81111562001ecd5762001ecc62002c3f565b5b60208301915083600182028301111562001eec5762001eeb62002c49565b5b9250929050565b600082601f83011262001f0b5762001f0a62002c44565b5b813562001f1d84826020860162001dd6565b91505092915050565b60008135905062001f378162002d74565b92915050565b60006020828403121562001f565762001f5562002c58565b5b600062001f668482850162001e38565b91505092915050565b60006020828403121562001f885762001f8762002c58565b5b600062001f988482850162001e66565b91505092915050565b6000806040838503121562001fbb5762001fba62002c58565b5b600062001fcb8582860162001e7d565b925050602062001fde8582860162001e4f565b9150509250929050565b60008060006040848603121562002004576200200362002c58565b5b600084013567ffffffffffffffff81111562002025576200202462002c53565b5b620020338682870162001e94565b93509350506020620020488682870162001f26565b9150509250925092565b600080600080600080600060e0888a03121562002074576200207362002c58565b5b600088013567ffffffffffffffff81111562002095576200209462002c53565b5b620020a38a828b0162001ef3565b975050602088013567ffffffffffffffff811115620020c757620020c662002c53565b5b620020d58a828b0162001ef3565b965050604088013567ffffffffffffffff811115620020f957620020f862002c53565b5b620021078a828b0162001ef3565b95505060606200211a8a828b0162001e21565b945050608088013567ffffffffffffffff8111156200213e576200213d62002c53565b5b6200214c8a828b0162001ef3565b93505060a088013567ffffffffffffffff81111562002170576200216f62002c53565b5b6200217e8a828b0162001ef3565b92505060c0620021918a828b0162001e4f565b91505092959891949750929550565b600060208284031215620021b957620021b862002c58565b5b6000620021c98482850162001f26565b91505092915050565b620021dd8162002972565b82525050565b620021ee8162002986565b82525050565b620021ff8162002992565b82525050565b62002210816200299c565b82525050565b60006200222382620026a9565b6200222f8185620026bf565b93506200224181856020860162002a29565b6200224c8162002c5d565b840191505092915050565b6200226c6200226682620029f2565b62002b19565b82525050565b60006200227f82620026b4565b6200228b8185620026d0565b93506200229d81856020860162002a29565b620022a88162002c5d565b840191505092915050565b6000620022c2602383620026d0565b9150620022cf8262002c88565b604082019050919050565b6000620022e9602883620026d0565b9150620022f68262002cd7565b604082019050919050565b6200230c81620029e8565b82525050565b620023276200232182620029e8565b62002b41565b82525050565b60006200233b828562002257565b6014820191506200234d828462002312565b6020820191508190509392505050565b6000602082019050620023746000830184620021d2565b92915050565b6000606082019050620023916000830186620021d2565b8181036020830152620023a5818562002272565b90508181036040830152620023bb818462002272565b9050949350505050565b600061010082019050620023dd600083018b620021d2565b620023ec602083018a62002301565b620023fb6040830189620021f4565b6200240a6060830188620021d2565b62002419608083018762002205565b6200242860a083018662002301565b6200243760c083018562002301565b81810360e08301526200244b818462002216565b90509998505050505050505050565b6000606082019050620024716000830186620021d2565b62002480602083018562002301565b818103604083015262002494818462002216565b9050949350505050565b6000602082019050620024b56000830184620021e3565b92915050565b6000602082019050620024d26000830184620021f4565b92915050565b6000604082019050620024ef6000830185620021f4565b620024fe6020830184620021e3565b9392505050565b600061016082019050818103600083015262002522818e62002272565b9050818103602083015262002538818d62002272565b905062002549604083018c620021d2565b62002558606083018b620021d2565b81810360808301526200256c818a62002272565b90506200257d60a0830189620021d2565b81810360c083015262002591818862002272565b905081810360e0830152620025a7818762002272565b9050620025b961010083018662002301565b620025c9610120830185620021f4565b620025d9610140830184620021e3565b9c9b505050505050505050505050565b600060208201905081810360008301526200260481620022b3565b9050919050565b600060208201905081810360008301526200262681620022da565b9050919050565b600060208201905062002644600083018462002301565b92915050565b60006200265662002669565b905062002664828262002a95565b919050565b6000604051905090565b600067ffffffffffffffff82111562002691576200269062002c10565b5b6200269c8262002c5d565b9050602081019050919050565b600081519050919050565b600081519050919050565b600082825260208201905092915050565b600082825260208201905092915050565b6000620026ee82620029e8565b9150620026fb83620029e8565b9250827fffffffffffffffffffffffffffffffffffffffffffffffffffffffffffffffff0382111562002733576200273262002b83565b5b828201905092915050565b6000808291508390505b6001851115620027905780860481111562002768576200276762002b83565b5b6001851615620027785780820291505b8081029050620027888562002c7b565b945062002748565b94509492505050565b6000620027a682620029e8565b9150620027b383620029e8565b9250620027e27fffffffffffffffffffffffffffffffffffffffffffffffffffffffffffffffff8484620027ea565b905092915050565b600082620027fc5760019050620028cf565b816200280c5760009050620028cf565b8160018114620028255760028114620028305762002866565b6001915050620028cf565b60ff84111562002845576200284462002b83565b5b8360020a9150848211156200285f576200285e62002b83565b5b50620028cf565b5060208310610133831016604e8410600b8410161715620028a05782820a9050838111156200289a576200289962002b83565b5b620028cf565b620028af84848460016200273e565b92509050818404811115620028c957620028c862002b83565b5b81810290505b9392505050565b6000620028e382620029e8565b9150620028f083620029e8565b9250817fffffffffffffffffffffffffffffffffffffffffffffffffffffffffffffffff04831182151516156200292c576200292b62002b83565b5b828202905092915050565b60006200294482620029e8565b91506200295183620029e8565b92508282101562002967576200296662002b83565b5b828203905092915050565b60006200297f82620029c8565b9050919050565b60008115159050919050565b6000819050919050565b60007fffffffff0000000000000000000000000000000000000000000000000000000082169050919050565b600073ffffffffffffffffffffffffffffffffffffffff82169050919050565b6000819050919050565b6000620029ff8262002a06565b9050919050565b600062002a1382620029c8565b9050919050565b82818337600083830152505050565b60005b8381101562002a4957808201518184015260208101905062002a2c565b8381111562002a59576000848401525b50505050565b6000600282049050600182168062002a7857607f821691505b6020821081141562002a8f5762002a8e62002be1565b5b50919050565b62002aa08262002c5d565b810181811067ffffffffffffffff8211171562002ac25762002ac162002c10565b5b80604052505050565b600062002ad882620029e8565b91507fffffffffffffffffffffffffffffffffffffffffffffffffffffffffffffffff82141562002b0e5762002b0d62002b83565b5b600182019050919050565b600062002b268262002b2d565b9050919050565b600062002b3a8262002c6e565b9050919050565b6000819050919050565b600062002b5882620029e8565b915062002b6583620029e8565b92508262002b785762002b7762002bb2565b5b828206905092915050565b7f4e487b7100000000000000000000000000000000000000000000000000000000600052601160045260246000fd5b7f4e487b7100000000000000000000000000000000000000000000000000000000600052601260045260246000fd5b7f4e487b7100000000000000000000000000000000000000000000000000000000600052602260045260246000fd5b7f4e487b7100000000000000000000000000000000000000000000000000000000600052604160045260246000fd5b600080fd5b600080fd5b600080fd5b600080fd5b600080fd5b600080fd5b6000601f19601f8301169050919050565b60008160601b9050919050565b60008160011c9050919050565b7f756e61626c6520746f207472616e73666572416e6443616c6c20746f206f726160008201527f636c650000000000000000000000000000000000000000000000000000000000602082015250565b7f536f75726365206d75737420626520746865206f7261636c65206f662074686560008201527f2072657175657374000000000000000000000000000000000000000000000000602082015250565b62002d318162002972565b811462002d3d57600080fd5b50565b62002d4b8162002986565b811462002d5757600080fd5b50565b62002d658162002992565b811462002d7157600080fd5b50565b62002d7f81620029e8565b811462002d8b57600080fd5b5056fe60806040523480156200001157600080fd5b5060405162002c3b38038062002c3b833981810160405281019062000037919062000425565b8181816000908051906020019062000051929190620002e0565b5080600190805190602001906200006a929190620002e0565b505050620000808360016200008960201b60201c565b5050506200081c565b600073ffffffffffffffffffffffffffffffffffffffff168273ffffffffffffffffffffffffffffffffffffffff161415620000fc576040517f08c379a0000000000000000000000000000000000000000000000000000000008152600401620000f3906200052f565b60405180910390fd5b6200010d816200026f60201b60201c565b1562000150576040517f08c379a000000000000000000000000000000000000000000000000000000000815260040162000147906200050d565b60405180910390fd5b6200016460008383620002db60201b60201c565b6001600360008473ffffffffffffffffffffffffffffffffffffffff1673ffffffffffffffffffffffffffffffffffffffff1681526020019081526020016000206000828254620001b69190620005c1565b92505081905550816002600083815260200190815260200160002060006101000a81548173ffffffffffffffffffffffffffffffffffffffff021916908373ffffffffffffffffffffffffffffffffffffffff160217905550808273ffffffffffffffffffffffffffffffffffffffff16600073ffffffffffffffffffffffffffffffffffffffff167fddf252ad1be2c89b69c2b068fc378daa952ba7f163c4a11628f55a4df523b3ef60405160405180910390a45050565b60008073ffffffffffffffffffffffffffffffffffffffff166002600084815260200190815260200160002060009054906101000a900473ffffffffffffffffffffffffffffffffffffffff1673ffffffffffffffffffffffffffffffffffffffff1614159050919050565b505050565b828054620002ee9062000692565b90600052602060002090601f0160209004810192826200031257600085556200035e565b82601f106200032d57805160ff19168380011785556200035e565b828001600101855582156200035e579182015b828111156200035d57825182559160200191906001019062000340565b5b5090506200036d919062000371565b5090565b5b808211156200038c57600081600090555060010162000372565b5090565b6000620003a7620003a1846200057a565b62000551565b905082815260208101848484011115620003c657620003c562000790565b5b620003d38482856200065c565b509392505050565b600081519050620003ec8162000802565b92915050565b600082601f8301126200040a57620004096200078b565b5b81516200041c84826020860162000390565b91505092915050565b6000806000606084860312156200044157620004406200079a565b5b60006200045186828701620003db565b935050602084015167ffffffffffffffff81111562000475576200047462000795565b5b6200048386828701620003f2565b925050604084015167ffffffffffffffff811115620004a757620004a662000795565b5b620004b586828701620003f2565b9150509250925092565b6000620004ce601c83620005b0565b9150620004db82620007b0565b602082019050919050565b6000620004f5602083620005b0565b91506200050282620007d9565b602082019050919050565b600060208201905081810360008301526200052881620004bf565b9050919050565b600060208201905081810360008301526200054a81620004e6565b9050919050565b60006200055d62000570565b90506200056b8282620006c8565b919050565b6000604051905090565b600067ffffffffffffffff8211156200059857620005976200075c565b5b620005a3826200079f565b9050602081019050919050565b600082825260208201905092915050565b6000620005ce8262000652565b9150620005db8362000652565b9250827fffffffffffffffffffffffffffffffffffffffffffffffffffffffffffffffff03821115620006135762000612620006fe565b5b828201905092915050565b60006200062b8262000632565b9050919050565b600073ffffffffffffffffffffffffffffffffffffffff82169050919050565b6000819050919050565b60005b838110156200067c5780820151818401526020810190506200065f565b838111156200068c576000848401525b50505050565b60006002820490506001821680620006ab57607f821691505b60208210811415620006c257620006c16200072d565b5b50919050565b620006d3826200079f565b810181811067ffffffffffffffff82111715620006f557620006f46200075c565b5b80604052505050565b7f4e487b7100000000000000000000000000000000000000000000000000000000600052601160045260246000fd5b7f4e487b7100000000000000000000000000000000000000000000000000000000600052602260045260246000fd5b7f4e487b7100000000000000000000000000000000000000000000000000000000600052604160045260246000fd5b600080fd5b600080fd5b600080fd5b600080fd5b6000601f19601f8301169050919050565b7f4552433732313a20746f6b656e20616c7265616479206d696e74656400000000600082015250565b7f4552433732313a206d696e7420746f20746865207a65726f2061646472657373600082015250565b6200080d816200061e565b81146200081957600080fd5b50565b61240f806200082c6000396000f3fe608060405234801561001057600080fd5b50600436106100ea5760003560e01c80636352211e1161008c578063a22cb46511610066578063a22cb4651461025d578063b88d4fde14610279578063c87b56dd14610295578063e985e9c5146102c5576100ea565b80636352211e146101df57806370a082311461020f57806395d89b411461023f576100ea565b8063095ea7b3116100c8578063095ea7b31461016d57806323b872dd1461018957806338cc4831146101a557806342842e0e146101c3576100ea565b806301ffc9a7146100ef57806306fdde031461011f578063081812fc1461013d575b600080fd5b6101096004803603810190610104919061169a565b6102f5565b6040516101169190611a20565b60405180910390f35b6101276103d7565b6040516101349190611a3b565b60405180910390f35b610157600480360381019061015291906116f4565b610469565b60405161016491906119b9565b60405180910390f35b6101876004803603810190610182919061165a565b6104ee565b005b6101a3600480360381019061019e9190611544565b610606565b005b6101ad610666565b6040516101ba91906119b9565b60405180910390f35b6101dd60048036038101906101d89190611544565b61066e565b005b6101f960048036038101906101f491906116f4565b61068e565b60405161020691906119b9565b60405180910390f35b610229600480360381019061022491906114d7565b610740565b6040516102369190611bdd565b60405180910390f35b6102476107f8565b6040516102549190611a3b565b60405180910390f35b6102776004803603810190610272919061161a565b61088a565b005b610293600480360381019061028e9190611597565b6108a0565b005b6102af60048036038101906102aa91906116f4565b610902565b6040516102bc9190611a3b565b60405180910390f35b6102df60048036038101906102da9190611504565b6109a9565b6040516102ec9190611a20565b60405180910390f35b60007f80ac58cd000000000000000000000000000000000000000000000000000000007bffffffffffffffffffffffffffffffffffffffffffffffffffffffff1916827bffffffffffffffffffffffffffffffffffffffffffffffffffffffff191614806103c057507f5b5e139f000000000000000000000000000000000000000000000000000000007bffffffffffffffffffffffffffffffffffffffffffffffffffffffff1916827bffffffffffffffffffffffffffffffffffffffffffffffffffffffff1916145b806103d057506103cf82610a3d565b5b9050919050565b6060600080546103e690611e02565b80601f016020809104026020016040519081016040528092919081815260200182805461041290611e02565b801561045f5780601f106104345761010080835404028352916020019161045f565b820191906000526020600020905b81548152906001019060200180831161044257829003601f168201915b5050505050905090565b600061047482610aa7565b6104b3576040517f08c379a00000000000000000000000000000000000000000000000000000000081526004016104aa90611b3d565b60405180910390fd5b6004600083815260200190815260200160002060009054906101000a900473ffffffffffffffffffffffffffffffffffffffff169050919050565b60006104f98261068e565b90508073ffffffffffffffffffffffffffffffffffffffff168373ffffffffffffffffffffffffffffffffffffffff16141561056a576040517f08c379a000000000000000000000000000000000000000000000000000000000815260040161056190611b9d565b60405180910390fd5b8073ffffffffffffffffffffffffffffffffffffffff16610589610b13565b73ffffffffffffffffffffffffffffffffffffffff1614806105b857506105b7816105b2610b13565b6109a9565b5b6105f7576040517f08c379a00000000000000000000000000000000000000000000000000000000081526004016105ee90611add565b60405180910390fd5b6106018383610b1b565b505050565b610617610611610b13565b82610bd4565b610656576040517f08c379a000000000000000000000000000000000000000000000000000000000815260040161064d90611bbd565b60405180910390fd5b610661838383610cb2565b505050565b600030905090565b610689838383604051806020016040528060008152506108a0565b505050565b6000806002600084815260200190815260200160002060009054906101000a900473ffffffffffffffffffffffffffffffffffffffff169050600073ffffffffffffffffffffffffffffffffffffffff168173ffffffffffffffffffffffffffffffffffffffff161415610737576040517f08c379a000000000000000000000000000000000000000000000000000000000815260040161072e90611b1d565b60405180910390fd5b80915050919050565b60008073ffffffffffffffffffffffffffffffffffffffff168273ffffffffffffffffffffffffffffffffffffffff1614156107b1576040517f08c379a00000000000000000000000000000000000000000000000000000000081526004016107a890611afd565b60405180910390fd5b600360008373ffffffffffffffffffffffffffffffffffffffff1673ffffffffffffffffffffffffffffffffffffffff168152602001908152602001600020549050919050565b60606001805461080790611e02565b80601f016020809104026020016040519081016040528092919081815260200182805461083390611e02565b80156108805780601f1061085557610100808354040283529160200191610880565b820191906000526020600020905b81548152906001019060200180831161086357829003601f168201915b5050505050905090565b61089c610895610b13565b8383610f0e565b5050565b6108b16108ab610b13565b83610bd4565b6108f0576040517f08c379a00000000000000000000000000000000000000000000000000000000081526004016108e790611bbd565b60405180910390fd5b6108fc8484848461107b565b50505050565b606061090d82610aa7565b61094c576040517f08c379a000000000000000000000000000000000000000000000000000000000815260040161094390611b7d565b60405180910390fd5b60006109566110d7565b9050600081511161097657604051806020016040528060008152506109a1565b80610980846110ee565b604051602001610991929190611995565b6040516020818303038152906040525b915050919050565b6000600560008473ffffffffffffffffffffffffffffffffffffffff1673ffffffffffffffffffffffffffffffffffffffff16815260200190815260200160002060008373ffffffffffffffffffffffffffffffffffffffff1673ffffffffffffffffffffffffffffffffffffffff16815260200190815260200160002060009054906101000a900460ff16905092915050565b60007f01ffc9a7000000000000000000000000000000000000000000000000000000007bffffffffffffffffffffffffffffffffffffffffffffffffffffffff1916827bffffffffffffffffffffffffffffffffffffffffffffffffffffffff1916149050919050565b60008073ffffffffffffffffffffffffffffffffffffffff166002600084815260200190815260200160002060009054906101000a900473ffffffffffffffffffffffffffffffffffffffff1673ffffffffffffffffffffffffffffffffffffffff1614159050919050565b600033905090565b816004600083815260200190815260200160002060006101000a81548173ffffffffffffffffffffffffffffffffffffffff021916908373ffffffffffffffffffffffffffffffffffffffff160217905550808273ffffffffffffffffffffffffffffffffffffffff16610b8e8361068e565b73ffffffffffffffffffffffffffffffffffffffff167f8c5be1e5ebec7d5bd14f71427d1e84f3dd0314c0f7b2291e5b200ac8c7c3b92560405160405180910390a45050565b6000610bdf82610aa7565b610c1e576040517f08c379a0000000000000000000000000000000000000000000000000000000008152600401610c1590611abd565b60405180910390fd5b6000610c298361068e565b90508073ffffffffffffffffffffffffffffffffffffffff168473ffffffffffffffffffffffffffffffffffffffff161480610c9857508373ffffffffffffffffffffffffffffffffffffffff16610c8084610469565b73ffffffffffffffffffffffffffffffffffffffff16145b80610ca95750610ca881856109a9565b5b91505092915050565b8273ffffffffffffffffffffffffffffffffffffffff16610cd28261068e565b73ffffffffffffffffffffffffffffffffffffffff1614610d28576040517f08c379a0000000000000000000000000000000000000000000000000000000008152600401610d1f90611b5d565b60405180910390fd5b600073ffffffffffffffffffffffffffffffffffffffff168273ffffffffffffffffffffffffffffffffffffffff161415610d98576040517f08c379a0000000000000000000000000000000000000000000000000000000008152600401610d8f90611a7d565b60405180910390fd5b610da383838361124f565b610dae600082610b1b565b6001600360008573ffffffffffffffffffffffffffffffffffffffff1673ffffffffffffffffffffffffffffffffffffffff1681526020019081526020016000206000828254610dfe9190611d18565b925050819055506001600360008473ffffffffffffffffffffffffffffffffffffffff1673ffffffffffffffffffffffffffffffffffffffff1681526020019081526020016000206000828254610e559190611c91565b92505081905550816002600083815260200190815260200160002060006101000a81548173ffffffffffffffffffffffffffffffffffffffff021916908373ffffffffffffffffffffffffffffffffffffffff160217905550808273ffffffffffffffffffffffffffffffffffffffff168473ffffffffffffffffffffffffffffffffffffffff167fddf252ad1be2c89b69c2b068fc378daa952ba7f163c4a11628f55a4df523b3ef60405160405180910390a4505050565b8173ffffffffffffffffffffffffffffffffffffffff168373ffffffffffffffffffffffffffffffffffffffff161415610f7d576040517f08c379a0000000000000000000000000000000000000000000000000000000008152600401610f7490611a9d565b60405180910390fd5b80600560008573ffffffffffffffffffffffffffffffffffffffff1673ffffffffffffffffffffffffffffffffffffffff16815260200190815260200160002060008473ffffffffffffffffffffffffffffffffffffffff1673ffffffffffffffffffffffffffffffffffffffff16815260200190815260200160002060006101000a81548160ff0219169083151502179055508173ffffffffffffffffffffffffffffffffffffffff168373ffffffffffffffffffffffffffffffffffffffff167f17307eab39ab6107e8899845ad3d59bd9653f200f220920489ca2b5937696c318360405161106e9190611a20565b60405180910390a3505050565b611086848484610cb2565b61109284848484611254565b6110d1576040517f08c379a00000000000000000000000000000000000000000000000000000000081526004016110c890611a5d565b60405180910390fd5b50505050565b606060405180602001604052806000815250905090565b60606000821415611136576040518060400160405280600181526020017f3000000000000000000000000000000000000000000000000000000000000000815250905061124a565b600082905060005b6000821461116857808061115190611e65565b915050600a826111619190611ce7565b915061113e565b60008167ffffffffffffffff81111561118457611183611f9b565b5b6040519080825280601f01601f1916602001820160405280156111b65781602001600182028036833780820191505090505b5090505b60008514611243576001826111cf9190611d18565b9150600a856111de9190611eae565b60306111ea9190611c91565b60f81b818381518110611200576111ff611f6c565b5b60200101907effffffffffffffffffffffffffffffffffffffffffffffffffffffffffffff1916908160001a905350600a8561123c9190611ce7565b94506111ba565b8093505050505b919050565b505050565b60006112758473ffffffffffffffffffffffffffffffffffffffff166113eb565b156113de578373ffffffffffffffffffffffffffffffffffffffff1663150b7a0261129e610b13565b8786866040518563ffffffff1660e01b81526004016112c094939291906119d4565b602060405180830381600087803b1580156112da57600080fd5b505af192505050801561130b57506040513d601f19601f8201168201806040525081019061130891906116c7565b60015b61138e573d806000811461133b576040519150601f19603f3d011682016040523d82523d6000602084013e611340565b606091505b50600081511415611386576040517f08c379a000000000000000000000000000000000000000000000000000000000815260040161137d90611a5d565b60405180910390fd5b805181602001fd5b63150b7a0260e01b7bffffffffffffffffffffffffffffffffffffffffffffffffffffffff1916817bffffffffffffffffffffffffffffffffffffffffffffffffffffffff1916149150506113e3565b600190505b949350505050565b600080823b905060008111915050919050565b600061141161140c84611c1d565b611bf8565b90508281526020810184848401111561142d5761142c611fcf565b5b611438848285611dc0565b509392505050565b60008135905061144f8161237d565b92915050565b60008135905061146481612394565b92915050565b600081359050611479816123ab565b92915050565b60008151905061148e816123ab565b92915050565b600082601f8301126114a9576114a8611fca565b5b81356114b98482602086016113fe565b91505092915050565b6000813590506114d1816123c2565b92915050565b6000602082840312156114ed576114ec611fd9565b5b60006114fb84828501611440565b91505092915050565b6000806040838503121561151b5761151a611fd9565b5b600061152985828601611440565b925050602061153a85828601611440565b9150509250929050565b60008060006060848603121561155d5761155c611fd9565b5b600061156b86828701611440565b935050602061157c86828701611440565b925050604061158d868287016114c2565b9150509250925092565b600080600080608085870312156115b1576115b0611fd9565b5b60006115bf87828801611440565b94505060206115d087828801611440565b93505060406115e1878288016114c2565b925050606085013567ffffffffffffffff81111561160257611601611fd4565b5b61160e87828801611494565b91505092959194509250565b6000806040838503121561163157611630611fd9565b5b600061163f85828601611440565b925050602061165085828601611455565b9150509250929050565b6000806040838503121561167157611670611fd9565b5b600061167f85828601611440565b9250506020611690858286016114c2565b9150509250929050565b6000602082840312156116b0576116af611fd9565b5b60006116be8482850161146a565b91505092915050565b6000602082840312156116dd576116dc611fd9565b5b60006116eb8482850161147f565b91505092915050565b60006020828403121561170a57611709611fd9565b5b6000611718848285016114c2565b91505092915050565b61172a81611d4c565b82525050565b61173981611d5e565b82525050565b600061174a82611c4e565b6117548185611c64565b9350611764818560208601611dcf565b61176d81611fde565b840191505092915050565b600061178382611c59565b61178d8185611c75565b935061179d818560208601611dcf565b6117a681611fde565b840191505092915050565b60006117bc82611c59565b6117c68185611c86565b93506117d6818560208601611dcf565b80840191505092915050565b60006117ef603283611c75565b91506117fa82611fef565b604082019050919050565b6000611812602483611c75565b915061181d8261203e565b604082019050919050565b6000611835601983611c75565b91506118408261208d565b602082019050919050565b6000611858602c83611c75565b9150611863826120b6565b604082019050919050565b600061187b603883611c75565b915061188682612105565b604082019050919050565b600061189e602a83611c75565b91506118a982612154565b604082019050919050565b60006118c1602983611c75565b91506118cc826121a3565b604082019050919050565b60006118e4602c83611c75565b91506118ef826121f2565b604082019050919050565b6000611907602983611c75565b915061191282612241565b604082019050919050565b600061192a602f83611c75565b915061193582612290565b604082019050919050565b600061194d602183611c75565b9150611958826122df565b604082019050919050565b6000611970603183611c75565b915061197b8261232e565b604082019050919050565b61198f81611db6565b82525050565b60006119a182856117b1565b91506119ad82846117b1565b91508190509392505050565b60006020820190506119ce6000830184611721565b92915050565b60006080820190506119e96000830187611721565b6119f66020830186611721565b611a036040830185611986565b8181036060830152611a15818461173f565b905095945050505050565b6000602082019050611a356000830184611730565b92915050565b60006020820190508181036000830152611a558184611778565b905092915050565b60006020820190508181036000830152611a76816117e2565b9050919050565b60006020820190508181036000830152611a9681611805565b9050919050565b60006020820190508181036000830152611ab681611828565b9050919050565b60006020820190508181036000830152611ad68161184b565b9050919050565b60006020820190508181036000830152611af68161186e565b9050919050565b60006020820190508181036000830152611b1681611891565b9050919050565b60006020820190508181036000830152611b36816118b4565b9050919050565b60006020820190508181036000830152611b56816118d7565b9050919050565b60006020820190508181036000830152611b76816118fa565b9050919050565b60006020820190508181036000830152611b968161191d565b9050919050565b60006020820190508181036000830152611bb681611940565b9050919050565b60006020820190508181036000830152611bd681611963565b9050919050565b6000602082019050611bf26000830184611986565b92915050565b6000611c02611c13565b9050611c0e8282611e34565b919050565b6000604051905090565b600067ffffffffffffffff821115611c3857611c37611f9b565b5b611c4182611fde565b9050602081019050919050565b600081519050919050565b600081519050919050565b600082825260208201905092915050565b600082825260208201905092915050565b600081905092915050565b6000611c9c82611db6565b9150611ca783611db6565b9250827fffffffffffffffffffffffffffffffffffffffffffffffffffffffffffffffff03821115611cdc57611cdb611edf565b5b828201905092915050565b6000611cf282611db6565b9150611cfd83611db6565b925082611d0d57611d0c611f0e565b5b828204905092915050565b6000611d2382611db6565b9150611d2e83611db6565b925082821015611d4157611d40611edf565b5b828203905092915050565b6000611d5782611d96565b9050919050565b60008115159050919050565b60007fffffffff0000000000000000000000000000000000000000000000000000000082169050919050565b600073ffffffffffffffffffffffffffffffffffffffff82169050919050565b6000819050919050565b82818337600083830152505050565b60005b83811015611ded578082015181840152602081019050611dd2565b83811115611dfc576000848401525b50505050565b60006002820490506001821680611e1a57607f821691505b60208210811415611e2e57611e2d611f3d565b5b50919050565b611e3d82611fde565b810181811067ffffffffffffffff82111715611e5c57611e5b611f9b565b5b80604052505050565b6000611e7082611db6565b91507fffffffffffffffffffffffffffffffffffffffffffffffffffffffffffffffff821415611ea357611ea2611edf565b5b600182019050919050565b6000611eb982611db6565b9150611ec483611db6565b925082611ed457611ed3611f0e565b5b828206905092915050565b7f4e487b7100000000000000000000000000000000000000000000000000000000600052601160045260246000fd5b7f4e487b7100000000000000000000000000000000000000000000000000000000600052601260045260246000fd5b7f4e487b7100000000000000000000000000000000000000000000000000000000600052602260045260246000fd5b7f4e487b7100000000000000000000000000000000000000000000000000000000600052603260045260246000fd5b7f4e487b7100000000000000000000000000000000000000000000000000000000600052604160045260246000fd5b600080fd5b600080fd5b600080fd5b600080fd5b6000601f19601f8301169050919050565b7f4552433732313a207472616e7366657220746f206e6f6e20455243373231526560008201527f63656976657220696d706c656d656e7465720000000000000000000000000000602082015250565b7f4552433732313a207472616e7366657220746f20746865207a65726f2061646460008201527f7265737300000000000000000000000000000000000000000000000000000000602082015250565b7f4552433732313a20617070726f766520746f2063616c6c657200000000000000600082015250565b7f4552433732313a206f70657261746f7220717565727920666f72206e6f6e657860008201527f697374656e7420746f6b656e0000000000000000000000000000000000000000602082015250565b7f4552433732313a20617070726f76652063616c6c6572206973206e6f74206f7760008201527f6e6572206e6f7220617070726f76656420666f7220616c6c0000000000000000602082015250565b7f4552433732313a2062616c616e636520717565727920666f7220746865207a6560008201527f726f206164647265737300000000000000000000000000000000000000000000602082015250565b7f4552433732313a206f776e657220717565727920666f72206e6f6e657869737460008201527f656e7420746f6b656e0000000000000000000000000000000000000000000000602082015250565b7f4552433732313a20617070726f76656420717565727920666f72206e6f6e657860008201527f697374656e7420746f6b656e0000000000000000000000000000000000000000602082015250565b7f4552433732313a207472616e73666572206f6620746f6b656e2074686174206960008201527f73206e6f74206f776e0000000000000000000000000000000000000000000000602082015250565b7f4552433732314d657461646174613a2055524920717565727920666f72206e6f60008201527f6e6578697374656e7420746f6b656e0000000000000000000000000000000000602082015250565b7f4552433732313a20617070726f76616c20746f2063757272656e74206f776e6560008201527f7200000000000000000000000000000000000000000000000000000000000000602082015250565b7f4552433732313a207472616e736665722063616c6c6572206973206e6f74206f60008201527f776e6572206e6f7220617070726f766564000000000000000000000000000000602082015250565b61238681611d4c565b811461239157600080fd5b50565b61239d81611d5e565b81146123a857600080fd5b50565b6123b481611d6a565b81146123bf57600080fd5b50565b6123cb81611db6565b81146123d657600080fd5b5056fea2646970667358221220e311bbf369f2a1aacbe0dffc869396758502a3b39ff52e6746d6d852c430da9e64736f6c6343000806003368747470733a2f2f6170692e636f76616c656e7468712e636f6d2f76312f312f6e66745f6d61726b65742f636f6c6c656374696f6e2f3078424334434130456441373634374138614237433230363163324531313841313861393336663133442f3f71756f74652d63757272656e63793d55534426666f726d61743d4a534f4e2666726f6d3d323032322d30322d303526746f3d323032322d30322d3035266b65793d636b65795f363136386138636437663738343236323866303334643565343262a2646970667358221220bd3eba1fe214705149d6e147677335348b5e5defb59dd0d8d0c555e33aea84a064736f6c63430008060033",
  "linkReferences": {},
  "deployedLinkReferences": {}
}