{
  "_format": "hh-sol-artifact-1",
  "contractName": "NftBet",
  "sourceName": "contracts/main.sol",
  "abi": [
    {
      "inputs": [],
      "stateMutability": "nonpayable",
      "type": "constructor"
    },
    {
      "anonymous": false,
      "inputs": [
        {
          "indexed": true,
          "internalType": "bytes32",
          "name": "id",
          "type": "bytes32"
        }
      ],
      "name": "ChainlinkCancelled",
      "type": "event"
    },
    {
      "anonymous": false,
      "inputs": [
        {
          "indexed": true,
          "internalType": "bytes32",
          "name": "id",
          "type": "bytes32"
        }
      ],
      "name": "ChainlinkFulfilled",
      "type": "event"
    },
    {
      "anonymous": false,
      "inputs": [
        {
          "indexed": true,
          "internalType": "bytes32",
          "name": "id",
          "type": "bytes32"
        }
      ],
      "name": "ChainlinkRequested",
      "type": "event"
    },
    {
      "anonymous": false,
      "inputs": [
        {
          "indexed": false,
          "internalType": "address",
          "name": "creator",
          "type": "address"
        }
      ],
      "name": "GameCreated",
      "type": "event"
    },
    {
      "anonymous": false,
      "inputs": [
        {
          "indexed": false,
          "internalType": "bytes32",
          "name": "requestId",
          "type": "bytes32"
        }
      ],
      "name": "OracleRequestSent",
      "type": "event"
    },
    {
      "anonymous": false,
      "inputs": [
        {
          "indexed": false,
          "internalType": "bytes32",
          "name": "requestId",
          "type": "bytes32"
        },
        {
          "indexed": false,
          "internalType": "uint256",
          "name": "data",
          "type": "uint256"
        }
      ],
      "name": "OracleResultReturned",
      "type": "event"
    },
    {
      "anonymous": false,
      "inputs": [
        {
          "indexed": false,
          "internalType": "bytes32",
          "name": "requestId",
          "type": "bytes32"
        },
        {
          "indexed": false,
          "internalType": "bool",
          "name": "data",
          "type": "bool"
        }
      ],
      "name": "OracleResultReturnedBool",
      "type": "event"
    },
    {
      "inputs": [
        {
          "internalType": "uint256",
          "name": "",
          "type": "uint256"
        }
      ],
      "name": "betsArray",
      "outputs": [
        {
          "internalType": "uint256",
          "name": "bet",
          "type": "uint256"
        },
        {
          "internalType": "string",
          "name": "direction",
          "type": "string"
        },
        {
          "internalType": "address",
          "name": "addr",
          "type": "address"
        },
        {
          "internalType": "uint256",
          "name": "gameID",
          "type": "uint256"
        }
      ],
      "stateMutability": "view",
      "type": "function"
    },
    {
      "inputs": [
        {
          "internalType": "uint256",
          "name": "",
          "type": "uint256"
        }
      ],
      "name": "betsArray",
      "outputs": [
        {
          "internalType": "uint256",
          "name": "bet",
          "type": "uint256"
        },
        {
          "internalType": "string",
          "name": "direction",
          "type": "string"
        },
        {
          "internalType": "address",
          "name": "addr",
          "type": "address"
        },
        {
          "internalType": "uint256",
          "name": "gameID",
          "type": "uint256"
        }
      ],
      "stateMutability": "view",
      "type": "function"
    },
    {
      "inputs": [
        {
          "internalType": "string",
          "name": "gameName",
          "type": "string"
        },
        {
          "internalType": "string",
          "name": "gameSymbol",
          "type": "string"
        },
        {
          "internalType": "string",
          "name": "networkId",
          "type": "string"
        },
        {
          "internalType": "address",
          "name": "collectionAddress",
          "type": "address"
        },
        {
          "internalType": "string",
          "name": "date",
          "type": "string"
        },
        {
          "internalType": "string",
          "name": "floor_price",
          "type": "string"
        },
        {
          "internalType": "bool",
          "name": "direction",
          "type": "bool"
        }
      ],
      "name": "createGame",
      "outputs": [
        {
          "internalType": "bool",
          "name": "",
          "type": "bool"
        }
      ],
      "stateMutability": "nonpayable",
      "type": "function"
    },
    {
      "inputs": [
        {
          "internalType": "bytes32",
          "name": "_requestId",
          "type": "bytes32"
        },
        {
          "internalType": "bool",
          "name": "_data",
          "type": "bool"
        }
      ],
      "name": "fulfill",
      "outputs": [],
      "stateMutability": "nonpayable",
      "type": "function"
    },
    {
      "inputs": [
        {
          "internalType": "uint256",
          "name": "",
          "type": "uint256"
        }
      ],
      "name": "gameArray",
      "outputs": [
        {
          "internalType": "string",
          "name": "name",
          "type": "string"
        },
        {
          "internalType": "string",
          "name": "symbol",
          "type": "string"
        },
        {
          "internalType": "address",
          "name": "gameAddress",
          "type": "address"
        },
        {
          "internalType": "address",
          "name": "creator",
          "type": "address"
        },
        {
          "internalType": "string",
          "name": "networkId",
          "type": "string"
        },
        {
          "internalType": "address",
          "name": "collectionAddress",
          "type": "address"
        },
        {
          "internalType": "string",
          "name": "date",
          "type": "string"
        },
        {
          "internalType": "string",
          "name": "floor_price",
          "type": "string"
        },
        {
          "internalType": "uint256",
          "name": "gameID",
          "type": "uint256"
        },
        {
          "internalType": "bytes32",
          "name": "results",
          "type": "bytes32"
        },
        {
          "internalType": "bool",
          "name": "direction",
          "type": "bool"
        }
      ],
      "stateMutability": "view",
      "type": "function"
    },
    {
      "inputs": [
        {
          "internalType": "uint256",
          "name": "",
          "type": "uint256"
        }
      ],
      "name": "games",
      "outputs": [
        {
          "internalType": "string",
          "name": "name",
          "type": "string"
        },
        {
          "internalType": "string",
          "name": "symbol",
          "type": "string"
        },
        {
          "internalType": "address",
          "name": "gameAddress",
          "type": "address"
        },
        {
          "internalType": "address",
          "name": "creator",
          "type": "address"
        },
        {
          "internalType": "string",
          "name": "networkId",
          "type": "string"
        },
        {
          "internalType": "address",
          "name": "collectionAddress",
          "type": "address"
        },
        {
          "internalType": "string",
          "name": "date",
          "type": "string"
        },
        {
          "internalType": "string",
          "name": "floor_price",
          "type": "string"
        },
        {
          "internalType": "uint256",
          "name": "gameID",
          "type": "uint256"
        },
        {
          "internalType": "bytes32",
          "name": "results",
          "type": "bytes32"
        },
        {
          "internalType": "bool",
          "name": "direction",
          "type": "bool"
        }
      ],
      "stateMutability": "view",
      "type": "function"
    },
    {
      "inputs": [],
      "name": "getGameCount",
      "outputs": [
        {
          "internalType": "uint256",
          "name": "",
          "type": "uint256"
        }
      ],
      "stateMutability": "view",
      "type": "function"
    },
    {
      "inputs": [
        {
          "internalType": "uint256",
          "name": "gameID",
          "type": "uint256"
        },
        {
          "internalType": "uint256",
          "name": "placedBet",
          "type": "uint256"
        },
        {
          "internalType": "string",
          "name": "direction",
          "type": "string"
        }
      ],
      "name": "placeBet",
      "outputs": [],
      "stateMutability": "nonpayable",
      "type": "function"
    },
    {
      "inputs": [],
      "name": "price",
      "outputs": [
        {
          "internalType": "uint256",
          "name": "",
          "type": "uint256"
        }
      ],
      "stateMutability": "view",
      "type": "function"
    },
    {
      "inputs": [
        {
          "internalType": "string",
          "name": "apiKey",
          "type": "string"
        },
        {
          "internalType": "uint256",
          "name": "gameID",
          "type": "uint256"
        }
      ],
      "name": "requestData",
      "outputs": [
        {
          "internalType": "bytes32",
          "name": "requestId",
          "type": "bytes32"
        }
      ],
      "stateMutability": "nonpayable",
      "type": "function"
    },
    {
      "inputs": [
        {
          "internalType": "uint256",
          "name": "gameID",
          "type": "uint256"
        }
      ],
      "name": "resolveGame",
      "outputs": [
        {
          "internalType": "bool",
          "name": "",
          "type": "bool"
        }
      ],
      "stateMutability": "nonpayable",
      "type": "function"
    }
  ],
  "bytecode": "0x608060405260016004556000600e553480156200001b57600080fd5b5033600a60006101000a81548173ffffffffffffffffffffffffffffffffffffffff021916908373ffffffffffffffffffffffffffffffffffffffff1602179055506200008273326c977e6efc84e512bb9c30f76e30c160ed06fb6200011260201b60201c565b73c8d925525ca8759812d0c299b90247917d4d4b7c600760006101000a81548173ffffffffffffffffffffffffffffffffffffffff021916908373ffffffffffffffffffffffffffffffffffffffff1602179055507f6262663062616461643239643439646338383735303462616366626239303562600881905550662386f26fc1000060098190555062000156565b80600260006101000a81548173ffffffffffffffffffffffffffffffffffffffff021916908373ffffffffffffffffffffffffffffffffffffffff16021790555050565b61638b80620001666000396000f3fe60806040523480156200001157600080fd5b5060043610620000ac5760003560e01c8063a035b1fe116200006f578063a035b1fe14620001d6578063b7a5a5b614620001f8578063e87c0ee6146200022e578063ed732ddb1462000250578063fd68990a146200027057620000ac565b8063071a7bb014620000b1578063117a5b9014620000f157806336b945f514620001315780633cbde95614620001675780635660d348146200019d575b600080fd5b620000cf6004803603810190620000c9919062002756565b62000290565b604051620000e89b9a9998979695949392919062002d10565b60405180910390f35b6200010f600480360381019062000109919062002756565b62000638565b604051620001289b9a9998979695949392919062002d10565b60405180910390f35b6200014f600480360381019062000149919062002608565b620009cf565b6040516200015e919062002ca9565b60405180910390f35b6200018560048036038101906200017f91906200259e565b62000f85565b60405162000194919062002cc6565b60405180910390f35b620001bb6004803603810190620001b5919062002756565b6200145f565b604051620001cd949392919062002e55565b60405180910390f35b620001e062001550565b604051620001ef919062002e38565b60405180910390f35b62000216600480360381019062000210919062002756565b62001556565b60405162000225919062002ca9565b60405180910390f35b6200023862001561565b60405162000247919062002e38565b60405180910390f35b6200026e600480360381019062000268919062002788565b6200156b565b005b6200028e600480360381019062000288919062002557565b62001678565b005b600c8181548110620002a157600080fd5b90600052602060002090600b0201600091509050806000018054620002c690620032c9565b80601f0160208091040260200160405190810160405280929190818152602001828054620002f490620032c9565b8015620003455780601f10620003195761010080835404028352916020019162000345565b820191906000526020600020905b8154815290600101906020018083116200032757829003601f168201915b5050505050908060010180546200035c90620032c9565b80601f01602080910402602001604051908101604052809291908181526020018280546200038a90620032c9565b8015620003db5780601f10620003af57610100808354040283529160200191620003db565b820191906000526020600020905b815481529060010190602001808311620003bd57829003601f168201915b5050505050908060020160009054906101000a900473ffffffffffffffffffffffffffffffffffffffff16908060030160009054906101000a900473ffffffffffffffffffffffffffffffffffffffff16908060040180546200043e90620032c9565b80601f01602080910402602001604051908101604052809291908181526020018280546200046c90620032c9565b8015620004bd5780601f106200049157610100808354040283529160200191620004bd565b820191906000526020600020905b8154815290600101906020018083116200049f57829003601f168201915b5050505050908060050160009054906101000a900473ffffffffffffffffffffffffffffffffffffffff1690806006018054620004fa90620032c9565b80601f01602080910402602001604051908101604052809291908181526020018280546200052890620032c9565b8015620005795780601f106200054d5761010080835404028352916020019162000579565b820191906000526020600020905b8154815290600101906020018083116200055b57829003601f168201915b5050505050908060070180546200059090620032c9565b80601f0160208091040260200160405190810160405280929190818152602001828054620005be90620032c9565b80156200060f5780601f10620005e3576101008083540402835291602001916200060f565b820191906000526020600020905b815481529060010190602001808311620005f157829003601f168201915b50505050509080600801549080600901549080600a0160009054906101000a900460ff1690508b565b600b6020528060005260406000206000915090508060000180546200065d90620032c9565b80601f01602080910402602001604051908101604052809291908181526020018280546200068b90620032c9565b8015620006dc5780601f10620006b057610100808354040283529160200191620006dc565b820191906000526020600020905b815481529060010190602001808311620006be57829003601f168201915b505050505090806001018054620006f390620032c9565b80601f01602080910402602001604051908101604052809291908181526020018280546200072190620032c9565b8015620007725780601f10620007465761010080835404028352916020019162000772565b820191906000526020600020905b8154815290600101906020018083116200075457829003601f168201915b5050505050908060020160009054906101000a900473ffffffffffffffffffffffffffffffffffffffff16908060030160009054906101000a900473ffffffffffffffffffffffffffffffffffffffff1690806004018054620007d590620032c9565b80601f01602080910402602001604051908101604052809291908181526020018280546200080390620032c9565b8015620008545780601f10620008285761010080835404028352916020019162000854565b820191906000526020600020905b8154815290600101906020018083116200083657829003601f168201915b5050505050908060050160009054906101000a900473ffffffffffffffffffffffffffffffffffffffff16908060060180546200089190620032c9565b80601f0160208091040260200160405190810160405280929190818152602001828054620008bf90620032c9565b8015620009105780601f10620008e45761010080835404028352916020019162000910565b820191906000526020600020905b815481529060010190602001808311620008f257829003601f168201915b5050505050908060070180546200092790620032c9565b80601f01602080910402602001604051908101604052809291908181526020018280546200095590620032c9565b8015620009a65780601f106200097a57610100808354040283529160200191620009a6565b820191906000526020600020905b8154815290600101906020018083116200098857829003601f168201915b50505050509080600801549080600901549080600a0160009054906101000a900460ff1690508b565b6000620009db62002166565b6000338a8a604051620009ee9062002207565b620009fc9392919062002b85565b604051809103906000f08015801562000a19573d6000803e3d6000fd5b50905033826060019073ffffffffffffffffffffffffffffffffffffffff16908173ffffffffffffffffffffffffffffffffffffffff1681525050898260000181905250888260200181905250878260800181905250868260a0019073ffffffffffffffffffffffffffffffffffffffff16908173ffffffffffffffffffffffffffffffffffffffff1681525050858260c00181905250848260e001819052508382610140019015159081151581525050600e600081548092919062000adf9062003335565b91905055826101000181815250508073ffffffffffffffffffffffffffffffffffffffff166338cc48316040518163ffffffff1660e01b815260040160206040518083038186803b15801562000b3457600080fd5b505afa15801562000b49573d6000803e3d6000fd5b505050506040513d601f19601f8201168201806040525081019062000b6f9190620024f3565b826040019073ffffffffffffffffffffffffffffffffffffffff16908173ffffffffffffffffffffffffffffffffffffffff1681525050600c8290806001815401808255809150506001900390600052602060002090600b0201600090919091909150600082015181600001908051906020019062000bf092919062002215565b50602082015181600101908051906020019062000c0f92919062002215565b5060408201518160020160006101000a81548173ffffffffffffffffffffffffffffffffffffffff021916908373ffffffffffffffffffffffffffffffffffffffff16021790555060608201518160030160006101000a81548173ffffffffffffffffffffffffffffffffffffffff021916908373ffffffffffffffffffffffffffffffffffffffff160217905550608082015181600401908051906020019062000cbc92919062002215565b5060a08201518160050160006101000a81548173ffffffffffffffffffffffffffffffffffffffff021916908373ffffffffffffffffffffffffffffffffffffffff16021790555060c082015181600601908051906020019062000d2292919062002215565b5060e082015181600701908051906020019062000d4192919062002215565b506101008201518160080155610120820151816009015561014082015181600a0160006101000a81548160ff021916908315150217905550505081600b6000600e548152602001908152602001600020600082015181600001908051906020019062000daf92919062002215565b50602082015181600101908051906020019062000dce92919062002215565b5060408201518160020160006101000a81548173ffffffffffffffffffffffffffffffffffffffff021916908373ffffffffffffffffffffffffffffffffffffffff16021790555060608201518160030160006101000a81548173ffffffffffffffffffffffffffffffffffffffff021916908373ffffffffffffffffffffffffffffffffffffffff160217905550608082015181600401908051906020019062000e7b92919062002215565b5060a08201518160050160006101000a81548173ffffffffffffffffffffffffffffffffffffffff021916908373ffffffffffffffffffffffffffffffffffffffff16021790555060c082015181600601908051906020019062000ee192919062002215565b5060e082015181600701908051906020019062000f0092919062002215565b506101008201518160080155610120820151816009015561014082015181600a0160006101000a81548160ff0219169083151502179055509050507f4f0d1d413a983b9df8ab6ab954635b186a1e9a09ee6dc1b43263ddbf484122673360405162000f6c919062002b68565b60405180910390a1600192505050979650505050505050565b600080600b6000848152602001908152602001600020600401805462000fab90620032c9565b80601f016020809104026020016040519081016040528092919081815260200182805462000fd990620032c9565b80156200102a5780601f1062000ffe576101008083540402835291602001916200102a565b820191906000526020600020905b8154815290600101906020018083116200100c57829003601f168201915b505050505090506000600b600085815260200190815260200160002060050160009054906101000a900473ffffffffffffffffffffffffffffffffffffffff1690506000600b600086815260200190815260200160002060060180546200109190620032c9565b80601f0160208091040260200160405190810160405280929190818152602001828054620010bf90620032c9565b8015620011105780601f10620010e45761010080835404028352916020019162001110565b820191906000526020600020905b815481529060010190602001808311620010f257829003601f168201915b505050505090506000838383848b8b604051602001620011369695949392919062002acc565b604051602081830303815290604052905060006200119c6200118d6040518060400160405280602081526020017f6262663062616461643239643439646338383735303462616366626239303562815250620017c7565b3063fd68990a60e01b620017f3565b9050620011ea6040518060400160405280600381526020017f676574000000000000000000000000000000000000000000000000000000000081525083836200182a9092919063ffffffff16565b6000600467ffffffffffffffff8111156200120a5762001209620034a9565b5b6040519080825280602002602001820160405280156200123f57816020015b6060815260200190600190039081620012295790505b5090506040518060400160405280600481526020017f6461746100000000000000000000000000000000000000000000000000000000815250816000815181106200128f576200128e6200347a565b5b60200260200101819052506040518060400160405280600581526020017f6974656d7300000000000000000000000000000000000000000000000000000081525081600181518110620012e757620012e66200347a565b5b60200260200101819052506040518060400160405280600181526020017f3000000000000000000000000000000000000000000000000000000000000000815250816002815181106200133f576200133e6200347a565b5b60200260200101819052506040518060400160405280601281526020017f666c6f6f725f70726963655f7765695f37640000000000000000000000000000815250816003815181106200139757620013966200347a565b5b6020026020010181905250620013ee6040518060400160405280600481526020017f70617468000000000000000000000000000000000000000000000000000000008152508284620018619092919063ffffffff16565b60006200141373c8d925525ca8759812d0c299b90247917d4d4b7c84600954620018f7565b90507f2623af4aa03af6c852d773dd28dec675dda47e077d1d72e414ca1529258de93c8160405162001446919062002cc6565b60405180910390a1809750505050505050509392505050565b600d81815481106200147057600080fd5b90600052602060002090600402016000915090508060000154908060010180546200149b90620032c9565b80601f0160208091040260200160405190810160405280929190818152602001828054620014c990620032c9565b80156200151a5780601f10620014ee576101008083540402835291602001916200151a565b820191906000526020600020905b815481529060010190602001808311620014fc57829003601f168201915b5050505050908060020160009054906101000a900473ffffffffffffffffffffffffffffffffffffffff16908060030154905084565b60065481565b600060019050919050565b6000600e54905090565b62001575620022a6565b828160000181815250508181602001819052508381606001818152505033816040019073ffffffffffffffffffffffffffffffffffffffff16908173ffffffffffffffffffffffffffffffffffffffff1681525050600d8190806001815401808255809150506001900390600052602060002090600402016000909190919091506000820151816000015560208201518160010190805190602001906200161e92919062002215565b5060408201518160020160006101000a81548173ffffffffffffffffffffffffffffffffffffffff021916908373ffffffffffffffffffffffffffffffffffffffff16021790555060608201518160030155505050505050565b816005600082815260200190815260200160002060009054906101000a900473ffffffffffffffffffffffffffffffffffffffff1673ffffffffffffffffffffffffffffffffffffffff163373ffffffffffffffffffffffffffffffffffffffff16146200171d576040517f08c379a0000000000000000000000000000000000000000000000000000000008152600401620017149062002e16565b60405180910390fd5b6005600082815260200190815260200160002060006101000a81549073ffffffffffffffffffffffffffffffffffffffff0219169055807f7cc135e0cebb02c3480ae5d74d377283180a2601f8f644edf7987b009316c63a60405160405180910390a27fe02a49848260c1001afb1f3324a2c9ed2984ce652636b5be92f66aefbb2c96a98383604051620017b392919062002ce3565b60405180910390a160006001905050505050565b600080829050600081511415620017e5576000801b915050620017ee565b60208301519150505b919050565b620017fd620022e4565b62001807620022e4565b6200182085858584620019c9909392919063ffffffff16565b9150509392505050565b6200184382846080015162001a7d90919063ffffffff16565b6200185c81846080015162001a7d90919063ffffffff16565b505050565b6200187a82846080015162001a7d90919063ffffffff16565b62001889836080015162001aa6565b60005b8151811015620018e257620018cc828281518110620018b057620018af6200347a565b5b6020026020010151856080015162001a7d90919063ffffffff16565b8080620018d99062003335565b9150506200188c565b50620018f2836080015162001ab6565b505050565b60008060045490506001816200190e919062002f4b565b6004819055506000634042994660e01b60008087600001513089604001518760018c60800151600001516040516024016200195198979695949392919062002bd0565b604051602081830303815290604052907bffffffffffffffffffffffffffffffffffffffffffffffffffffffff19166020820180517bffffffffffffffffffffffffffffffffffffffffffffffffffffffff83818316178352505050509050620019be8683868462001ac6565b925050509392505050565b620019d3620022e4565b620019e5856080015161010062001c75565b508385600001818152505082856020019073ffffffffffffffffffffffffffffffffffffffff16908173ffffffffffffffffffffffffffffffffffffffff16815250508185604001907bffffffffffffffffffffffffffffffffffffffffffffffffffffffff191690817bffffffffffffffffffffffffffffffffffffffffffffffffffffffff191681525050849050949350505050565b62001a8c826003835162001cea565b62001aa1818362001e8990919063ffffffff16565b505050565b62001ab381600462001eaf565b50565b62001ac381600762001eaf565b50565b6000308460405160200162001add92919062002a9c565b604051602081830303815290604052805190602001209050846005600083815260200190815260200160002060006101000a81548173ffffffffffffffffffffffffffffffffffffffff021916908373ffffffffffffffffffffffffffffffffffffffff160217905550807fb5e6e01e79f91267dc17b4e6314d5d4d03593d2ceee0fbb452b750bd70ea5af960405160405180910390a2600260009054906101000a900473ffffffffffffffffffffffffffffffffffffffff1673ffffffffffffffffffffffffffffffffffffffff16634000aea08685856040518463ffffffff1660e01b815260040162001bd59392919062002c65565b602060405180830381600087803b15801562001bf057600080fd5b505af115801562001c05573d6000803e3d6000fd5b505050506040513d601f19601f8201168201806040525081019062001c2b919062002525565b62001c6d576040517f08c379a000000000000000000000000000000000000000000000000000000000815260040162001c649062002df4565b60405180910390fd5b949350505050565b62001c7f62002353565b600060208362001c909190620033b5565b1462001cc35760208262001ca59190620033b5565b602062001cb39190620031a1565b8262001cc0919062002f4b565b91505b81836020018181525050604051808452600081528281016020016040525082905092915050565b60178167ffffffffffffffff161162001d255762001d1e8160058460ff16901b60ff16178462001ed390919063ffffffff16565b5062001e84565b60ff8167ffffffffffffffff161162001d815762001d57601860058460ff16901b178462001ed390919063ffffffff16565b5062001d7a8167ffffffffffffffff1660018562001ef79092919063ffffffff16565b5062001e83565b61ffff8167ffffffffffffffff161162001dde5762001db4601960058460ff16901b178462001ed390919063ffffffff16565b5062001dd78167ffffffffffffffff1660028562001ef79092919063ffffffff16565b5062001e82565b63ffffffff8167ffffffffffffffff161162001e3d5762001e13601a60058460ff16901b178462001ed390919063ffffffff16565b5062001e368167ffffffffffffffff1660048562001ef79092919063ffffffff16565b5062001e81565b62001e5c601b60058460ff16901b178462001ed390919063ffffffff16565b5062001e7f8167ffffffffffffffff1660088562001ef79092919063ffffffff16565b505b5b5b5b505050565b62001e9362002353565b62001ea78384600001515184855162001f1d565b905092915050565b62001ece601f60058360ff16901b178362001ed390919063ffffffff16565b505050565b62001edd62002353565b62001eef838460000151518462002023565b905092915050565b62001f0162002353565b62001f1484856000015151858562002082565b90509392505050565b62001f2762002353565b825182111562001f3657600080fd5b8460200151828562001f49919062002f4b565b111562001f875762001f8685600262001f748860200151888762001f6e919062002f4b565b62002120565b62001f80919062003140565b6200213e565b5b60008086518051876020830101935080888701111562001fa75787860182525b60208701925050505b6020841062001ff6578051825260208262001fcc919062002f4b565b915060208162001fdd919062002f4b565b905060208462001fee9190620031a1565b935062001fb0565b60006001856020036101000a03905080198251168184511681811785525050508692505050949350505050565b6200202d62002353565b83602001518310620020585762002057846002866020015162002051919062003140565b6200213e565b5b835180516020858301018481538186141562002075576001820183525b5050508390509392505050565b6200208c62002353565b846020015184836200209f919062002f4b565b1115620020ce57620020cd8560028685620020bb919062002f4b565b620020c7919062003140565b6200213e565b5b6000600183610100620020e2919062003003565b620020ee9190620031a1565b90508551838682010185831982511617815281518588011115620021125784870182525b505085915050949350505050565b600081831115620021345782905062002138565b8190505b92915050565b60008260000151905062002153838362001c75565b5062002160838262001e89565b50505050565b6040518061016001604052806060815260200160608152602001600073ffffffffffffffffffffffffffffffffffffffff168152602001600073ffffffffffffffffffffffffffffffffffffffff16815260200160608152602001600073ffffffffffffffffffffffffffffffffffffffff168152602001606081526020016060815260200160008152602001600080191681526020016000151581525090565b612c3b806200371b83390190565b8280546200222390620032c9565b90600052602060002090601f01602090048101928262002247576000855562002293565b82601f106200226257805160ff191683800117855562002293565b8280016001018555821562002293579182015b828111156200229257825182559160200191906001019062002275565b5b509050620022a291906200236d565b5090565b60405180608001604052806000815260200160608152602001600073ffffffffffffffffffffffffffffffffffffffff168152602001600081525090565b6040518060a0016040528060008019168152602001600073ffffffffffffffffffffffffffffffffffffffff16815260200160007bffffffffffffffffffffffffffffffffffffffffffffffffffffffff19168152602001600081526020016200234d62002353565b81525090565b604051806040016040528060608152602001600081525090565b5b80821115620023885760008160009055506001016200236e565b5090565b6000620023a36200239d8462002ed2565b62002ea9565b905082815260208101848484011115620023c257620023c1620034e7565b5b620023cf84828562003284565b509392505050565b600081359050620023e881620036b2565b92915050565b600081519050620023ff81620036b2565b92915050565b6000813590506200241681620036cc565b92915050565b6000815190506200242d81620036cc565b92915050565b6000813590506200244481620036e6565b92915050565b60008083601f840112620024635762002462620034dd565b5b8235905067ffffffffffffffff811115620024835762002482620034d8565b5b602083019150836001820283011115620024a257620024a1620034e2565b5b9250929050565b600082601f830112620024c157620024c0620034dd565b5b8135620024d38482602086016200238c565b91505092915050565b600081359050620024ed8162003700565b92915050565b6000602082840312156200250c576200250b620034f1565b5b60006200251c84828501620023ee565b91505092915050565b6000602082840312156200253e576200253d620034f1565b5b60006200254e848285016200241c565b91505092915050565b60008060408385031215620025715762002570620034f1565b5b6000620025818582860162002433565b9250506020620025948582860162002405565b9150509250929050565b600080600060408486031215620025ba57620025b9620034f1565b5b600084013567ffffffffffffffff811115620025db57620025da620034ec565b5b620025e9868287016200244a565b93509350506020620025fe86828701620024dc565b9150509250925092565b600080600080600080600060e0888a0312156200262a5762002629620034f1565b5b600088013567ffffffffffffffff8111156200264b576200264a620034ec565b5b620026598a828b01620024a9565b975050602088013567ffffffffffffffff8111156200267d576200267c620034ec565b5b6200268b8a828b01620024a9565b965050604088013567ffffffffffffffff811115620026af57620026ae620034ec565b5b620026bd8a828b01620024a9565b9550506060620026d08a828b01620023d7565b945050608088013567ffffffffffffffff811115620026f457620026f3620034ec565b5b620027028a828b01620024a9565b93505060a088013567ffffffffffffffff811115620027265762002725620034ec565b5b620027348a828b01620024a9565b92505060c0620027478a828b0162002405565b91505092959891949750929550565b6000602082840312156200276f576200276e620034f1565b5b60006200277f84828501620024dc565b91505092915050565b600080600060608486031215620027a457620027a3620034f1565b5b6000620027b486828701620024dc565b9350506020620027c786828701620024dc565b925050604084013567ffffffffffffffff811115620027eb57620027ea620034ec565b5b620027f986828701620024a9565b9150509250925092565b6200280e81620031dc565b82525050565b620028296200282382620031dc565b62003383565b82525050565b6200283a81620031f0565b82525050565b6200284b81620031fc565b82525050565b6200285c8162003206565b82525050565b60006200286f8262002f08565b6200287b818562002f1e565b93506200288d81856020860162003293565b6200289881620034f6565b840191505092915050565b620028b8620028b2826200325c565b62003383565b82525050565b6000620028cc838562002f40565b9350620028db83858462003284565b82840190509392505050565b6000620028f48262002f13565b62002900818562002f2f565b93506200291281856020860162003293565b6200291d81620034f6565b840191505092915050565b6000620029358262002f13565b62002941818562002f40565b93506200295381856020860162003293565b80840191505092915050565b60006200296e60238362002f2f565b91506200297b8262003521565b604082019050919050565b60006200299560268362002f40565b9150620029a28262003570565b602682019050919050565b6000620029bc60058362002f40565b9150620029c982620035bf565b600582019050919050565b6000620029e360048362002f40565b9150620029f082620035e8565b600482019050919050565b600062002a0a601e8362002f40565b915062002a178262003611565b601e82019050919050565b600062002a3160178362002f40565b915062002a3e826200363a565b601782019050919050565b600062002a5860288362002f2f565b915062002a658262003663565b604082019050919050565b62002a7b8162003252565b82525050565b62002a9662002a908262003252565b620033ab565b82525050565b600062002aaa8285620028a3565b60148201915062002abc828462002a81565b6020820191508190509392505050565b600062002ad982620029fb565b915062002ae7828962002928565b915062002af48262002a22565b915062002b02828862002814565b60148201915062002b138262002986565b915062002b21828762002928565b915062002b2e82620029d4565b915062002b3c828662002928565b915062002b4982620029ad565b915062002b58828486620028be565b9150819050979650505050505050565b600060208201905062002b7f600083018462002803565b92915050565b600060608201905062002b9c600083018662002803565b818103602083015262002bb08185620028e7565b9050818103604083015262002bc68184620028e7565b9050949350505050565b60006101008201905062002be8600083018b62002803565b62002bf7602083018a62002a70565b62002c06604083018962002840565b62002c15606083018862002803565b62002c24608083018762002851565b62002c3360a083018662002a70565b62002c4260c083018562002a70565b81810360e083015262002c56818462002862565b90509998505050505050505050565b600060608201905062002c7c600083018662002803565b62002c8b602083018562002a70565b818103604083015262002c9f818462002862565b9050949350505050565b600060208201905062002cc060008301846200282f565b92915050565b600060208201905062002cdd600083018462002840565b92915050565b600060408201905062002cfa600083018562002840565b62002d0960208301846200282f565b9392505050565b600061016082019050818103600083015262002d2d818e620028e7565b9050818103602083015262002d43818d620028e7565b905062002d54604083018c62002803565b62002d63606083018b62002803565b818103608083015262002d77818a620028e7565b905062002d8860a083018962002803565b81810360c083015262002d9c8188620028e7565b905081810360e083015262002db28187620028e7565b905062002dc461010083018662002a70565b62002dd461012083018562002840565b62002de46101408301846200282f565b9c9b505050505050505050505050565b6000602082019050818103600083015262002e0f816200295f565b9050919050565b6000602082019050818103600083015262002e318162002a49565b9050919050565b600060208201905062002e4f600083018462002a70565b92915050565b600060808201905062002e6c600083018762002a70565b818103602083015262002e808186620028e7565b905062002e91604083018562002803565b62002ea0606083018462002a70565b95945050505050565b600062002eb562002ec8565b905062002ec38282620032ff565b919050565b6000604051905090565b600067ffffffffffffffff82111562002ef05762002eef620034a9565b5b62002efb82620034f6565b9050602081019050919050565b600081519050919050565b600081519050919050565b600082825260208201905092915050565b600082825260208201905092915050565b600081905092915050565b600062002f588262003252565b915062002f658362003252565b9250827fffffffffffffffffffffffffffffffffffffffffffffffffffffffffffffffff0382111562002f9d5762002f9c620033ed565b5b828201905092915050565b6000808291508390505b600185111562002ffa5780860481111562002fd25762002fd1620033ed565b5b600185161562002fe25780820291505b808102905062002ff28562003514565b945062002fb2565b94509492505050565b6000620030108262003252565b91506200301d8362003252565b92506200304c7fffffffffffffffffffffffffffffffffffffffffffffffffffffffffffffffff848462003054565b905092915050565b60008262003066576001905062003139565b8162003076576000905062003139565b81600181146200308f57600281146200309a57620030d0565b600191505062003139565b60ff841115620030af57620030ae620033ed565b5b8360020a915084821115620030c957620030c8620033ed565b5b5062003139565b5060208310610133831016604e8410600b84101617156200310a5782820a905083811115620031045762003103620033ed565b5b62003139565b62003119848484600162002fa8565b92509050818404811115620031335762003132620033ed565b5b81810290505b9392505050565b60006200314d8262003252565b91506200315a8362003252565b9250817fffffffffffffffffffffffffffffffffffffffffffffffffffffffffffffffff0483118215151615620031965762003195620033ed565b5b828202905092915050565b6000620031ae8262003252565b9150620031bb8362003252565b925082821015620031d157620031d0620033ed565b5b828203905092915050565b6000620031e98262003232565b9050919050565b60008115159050919050565b6000819050919050565b60007fffffffff0000000000000000000000000000000000000000000000000000000082169050919050565b600073ffffffffffffffffffffffffffffffffffffffff82169050919050565b6000819050919050565b6000620032698262003270565b9050919050565b60006200327d8262003232565b9050919050565b82818337600083830152505050565b60005b83811015620032b357808201518184015260208101905062003296565b83811115620032c3576000848401525b50505050565b60006002820490506001821680620032e257607f821691505b60208210811415620032f957620032f86200344b565b5b50919050565b6200330a82620034f6565b810181811067ffffffffffffffff821117156200332c576200332b620034a9565b5b80604052505050565b6000620033428262003252565b91507fffffffffffffffffffffffffffffffffffffffffffffffffffffffffffffffff821415620033785762003377620033ed565b5b600182019050919050565b6000620033908262003397565b9050919050565b6000620033a48262003507565b9050919050565b6000819050919050565b6000620033c28262003252565b9150620033cf8362003252565b925082620033e257620033e16200341c565b5b828206905092915050565b7f4e487b7100000000000000000000000000000000000000000000000000000000600052601160045260246000fd5b7f4e487b7100000000000000000000000000000000000000000000000000000000600052601260045260246000fd5b7f4e487b7100000000000000000000000000000000000000000000000000000000600052602260045260246000fd5b7f4e487b7100000000000000000000000000000000000000000000000000000000600052603260045260246000fd5b7f4e487b7100000000000000000000000000000000000000000000000000000000600052604160045260246000fd5b600080fd5b600080fd5b600080fd5b600080fd5b600080fd5b600080fd5b6000601f19601f8301169050919050565b60008160601b9050919050565b60008160011c9050919050565b7f756e61626c6520746f207472616e73666572416e6443616c6c20746f206f726160008201527f636c650000000000000000000000000000000000000000000000000000000000602082015250565b7f2f3f71756f74652d63757272656e63793d55534426666f726d61743d4a534f4e60008201527f2666726f6d3d0000000000000000000000000000000000000000000000000000602082015250565b7f266b65793d000000000000000000000000000000000000000000000000000000600082015250565b7f26746f3d00000000000000000000000000000000000000000000000000000000600082015250565b7f68747470733a2f2f6170692e636f76616c656e7468712e636f6d2f76312f0000600082015250565b7f2f6e66745f6d61726b65742f636f6c6c656374696f6e2f000000000000000000600082015250565b7f536f75726365206d75737420626520746865206f7261636c65206f662074686560008201527f2072657175657374000000000000000000000000000000000000000000000000602082015250565b620036bd81620031dc565b8114620036c957600080fd5b50565b620036d781620031f0565b8114620036e357600080fd5b50565b620036f181620031fc565b8114620036fd57600080fd5b50565b6200370b8162003252565b81146200371757600080fd5b5056fe60806040523480156200001157600080fd5b5060405162002c3b38038062002c3b833981810160405281019062000037919062000425565b8181816000908051906020019062000051929190620002e0565b5080600190805190602001906200006a929190620002e0565b505050620000808360016200008960201b60201c565b5050506200081c565b600073ffffffffffffffffffffffffffffffffffffffff168273ffffffffffffffffffffffffffffffffffffffff161415620000fc576040517f08c379a0000000000000000000000000000000000000000000000000000000008152600401620000f3906200052f565b60405180910390fd5b6200010d816200026f60201b60201c565b1562000150576040517f08c379a000000000000000000000000000000000000000000000000000000000815260040162000147906200050d565b60405180910390fd5b6200016460008383620002db60201b60201c565b6001600360008473ffffffffffffffffffffffffffffffffffffffff1673ffffffffffffffffffffffffffffffffffffffff1681526020019081526020016000206000828254620001b69190620005c1565b92505081905550816002600083815260200190815260200160002060006101000a81548173ffffffffffffffffffffffffffffffffffffffff021916908373ffffffffffffffffffffffffffffffffffffffff160217905550808273ffffffffffffffffffffffffffffffffffffffff16600073ffffffffffffffffffffffffffffffffffffffff167fddf252ad1be2c89b69c2b068fc378daa952ba7f163c4a11628f55a4df523b3ef60405160405180910390a45050565b60008073ffffffffffffffffffffffffffffffffffffffff166002600084815260200190815260200160002060009054906101000a900473ffffffffffffffffffffffffffffffffffffffff1673ffffffffffffffffffffffffffffffffffffffff1614159050919050565b505050565b828054620002ee9062000692565b90600052602060002090601f0160209004810192826200031257600085556200035e565b82601f106200032d57805160ff19168380011785556200035e565b828001600101855582156200035e579182015b828111156200035d57825182559160200191906001019062000340565b5b5090506200036d919062000371565b5090565b5b808211156200038c57600081600090555060010162000372565b5090565b6000620003a7620003a1846200057a565b62000551565b905082815260208101848484011115620003c657620003c562000790565b5b620003d38482856200065c565b509392505050565b600081519050620003ec8162000802565b92915050565b600082601f8301126200040a57620004096200078b565b5b81516200041c84826020860162000390565b91505092915050565b6000806000606084860312156200044157620004406200079a565b5b60006200045186828701620003db565b935050602084015167ffffffffffffffff81111562000475576200047462000795565b5b6200048386828701620003f2565b925050604084015167ffffffffffffffff811115620004a757620004a662000795565b5b620004b586828701620003f2565b9150509250925092565b6000620004ce601c83620005b0565b9150620004db82620007b0565b602082019050919050565b6000620004f5602083620005b0565b91506200050282620007d9565b602082019050919050565b600060208201905081810360008301526200052881620004bf565b9050919050565b600060208201905081810360008301526200054a81620004e6565b9050919050565b60006200055d62000570565b90506200056b8282620006c8565b919050565b6000604051905090565b600067ffffffffffffffff8211156200059857620005976200075c565b5b620005a3826200079f565b9050602081019050919050565b600082825260208201905092915050565b6000620005ce8262000652565b9150620005db8362000652565b9250827fffffffffffffffffffffffffffffffffffffffffffffffffffffffffffffffff03821115620006135762000612620006fe565b5b828201905092915050565b60006200062b8262000632565b9050919050565b600073ffffffffffffffffffffffffffffffffffffffff82169050919050565b6000819050919050565b60005b838110156200067c5780820151818401526020810190506200065f565b838111156200068c576000848401525b50505050565b60006002820490506001821680620006ab57607f821691505b60208210811415620006c257620006c16200072d565b5b50919050565b620006d3826200079f565b810181811067ffffffffffffffff82111715620006f557620006f46200075c565b5b80604052505050565b7f4e487b7100000000000000000000000000000000000000000000000000000000600052601160045260246000fd5b7f4e487b7100000000000000000000000000000000000000000000000000000000600052602260045260246000fd5b7f4e487b7100000000000000000000000000000000000000000000000000000000600052604160045260246000fd5b600080fd5b600080fd5b600080fd5b600080fd5b6000601f19601f8301169050919050565b7f4552433732313a20746f6b656e20616c7265616479206d696e74656400000000600082015250565b7f4552433732313a206d696e7420746f20746865207a65726f2061646472657373600082015250565b6200080d816200061e565b81146200081957600080fd5b50565b61240f806200082c6000396000f3fe608060405234801561001057600080fd5b50600436106100ea5760003560e01c80636352211e1161008c578063a22cb46511610066578063a22cb4651461025d578063b88d4fde14610279578063c87b56dd14610295578063e985e9c5146102c5576100ea565b80636352211e146101df57806370a082311461020f57806395d89b411461023f576100ea565b8063095ea7b3116100c8578063095ea7b31461016d57806323b872dd1461018957806338cc4831146101a557806342842e0e146101c3576100ea565b806301ffc9a7146100ef57806306fdde031461011f578063081812fc1461013d575b600080fd5b6101096004803603810190610104919061169a565b6102f5565b6040516101169190611a20565b60405180910390f35b6101276103d7565b6040516101349190611a3b565b60405180910390f35b610157600480360381019061015291906116f4565b610469565b60405161016491906119b9565b60405180910390f35b6101876004803603810190610182919061165a565b6104ee565b005b6101a3600480360381019061019e9190611544565b610606565b005b6101ad610666565b6040516101ba91906119b9565b60405180910390f35b6101dd60048036038101906101d89190611544565b61066e565b005b6101f960048036038101906101f491906116f4565b61068e565b60405161020691906119b9565b60405180910390f35b610229600480360381019061022491906114d7565b610740565b6040516102369190611bdd565b60405180910390f35b6102476107f8565b6040516102549190611a3b565b60405180910390f35b6102776004803603810190610272919061161a565b61088a565b005b610293600480360381019061028e9190611597565b6108a0565b005b6102af60048036038101906102aa91906116f4565b610902565b6040516102bc9190611a3b565b60405180910390f35b6102df60048036038101906102da9190611504565b6109a9565b6040516102ec9190611a20565b60405180910390f35b60007f80ac58cd000000000000000000000000000000000000000000000000000000007bffffffffffffffffffffffffffffffffffffffffffffffffffffffff1916827bffffffffffffffffffffffffffffffffffffffffffffffffffffffff191614806103c057507f5b5e139f000000000000000000000000000000000000000000000000000000007bffffffffffffffffffffffffffffffffffffffffffffffffffffffff1916827bffffffffffffffffffffffffffffffffffffffffffffffffffffffff1916145b806103d057506103cf82610a3d565b5b9050919050565b6060600080546103e690611e02565b80601f016020809104026020016040519081016040528092919081815260200182805461041290611e02565b801561045f5780601f106104345761010080835404028352916020019161045f565b820191906000526020600020905b81548152906001019060200180831161044257829003601f168201915b5050505050905090565b600061047482610aa7565b6104b3576040517f08c379a00000000000000000000000000000000000000000000000000000000081526004016104aa90611b3d565b60405180910390fd5b6004600083815260200190815260200160002060009054906101000a900473ffffffffffffffffffffffffffffffffffffffff169050919050565b60006104f98261068e565b90508073ffffffffffffffffffffffffffffffffffffffff168373ffffffffffffffffffffffffffffffffffffffff16141561056a576040517f08c379a000000000000000000000000000000000000000000000000000000000815260040161056190611b9d565b60405180910390fd5b8073ffffffffffffffffffffffffffffffffffffffff16610589610b13565b73ffffffffffffffffffffffffffffffffffffffff1614806105b857506105b7816105b2610b13565b6109a9565b5b6105f7576040517f08c379a00000000000000000000000000000000000000000000000000000000081526004016105ee90611add565b60405180910390fd5b6106018383610b1b565b505050565b610617610611610b13565b82610bd4565b610656576040517f08c379a000000000000000000000000000000000000000000000000000000000815260040161064d90611bbd565b60405180910390fd5b610661838383610cb2565b505050565b600030905090565b610689838383604051806020016040528060008152506108a0565b505050565b6000806002600084815260200190815260200160002060009054906101000a900473ffffffffffffffffffffffffffffffffffffffff169050600073ffffffffffffffffffffffffffffffffffffffff168173ffffffffffffffffffffffffffffffffffffffff161415610737576040517f08c379a000000000000000000000000000000000000000000000000000000000815260040161072e90611b1d565b60405180910390fd5b80915050919050565b60008073ffffffffffffffffffffffffffffffffffffffff168273ffffffffffffffffffffffffffffffffffffffff1614156107b1576040517f08c379a00000000000000000000000000000000000000000000000000000000081526004016107a890611afd565b60405180910390fd5b600360008373ffffffffffffffffffffffffffffffffffffffff1673ffffffffffffffffffffffffffffffffffffffff168152602001908152602001600020549050919050565b60606001805461080790611e02565b80601f016020809104026020016040519081016040528092919081815260200182805461083390611e02565b80156108805780601f1061085557610100808354040283529160200191610880565b820191906000526020600020905b81548152906001019060200180831161086357829003601f168201915b5050505050905090565b61089c610895610b13565b8383610f0e565b5050565b6108b16108ab610b13565b83610bd4565b6108f0576040517f08c379a00000000000000000000000000000000000000000000000000000000081526004016108e790611bbd565b60405180910390fd5b6108fc8484848461107b565b50505050565b606061090d82610aa7565b61094c576040517f08c379a000000000000000000000000000000000000000000000000000000000815260040161094390611b7d565b60405180910390fd5b60006109566110d7565b9050600081511161097657604051806020016040528060008152506109a1565b80610980846110ee565b604051602001610991929190611995565b6040516020818303038152906040525b915050919050565b6000600560008473ffffffffffffffffffffffffffffffffffffffff1673ffffffffffffffffffffffffffffffffffffffff16815260200190815260200160002060008373ffffffffffffffffffffffffffffffffffffffff1673ffffffffffffffffffffffffffffffffffffffff16815260200190815260200160002060009054906101000a900460ff16905092915050565b60007f01ffc9a7000000000000000000000000000000000000000000000000000000007bffffffffffffffffffffffffffffffffffffffffffffffffffffffff1916827bffffffffffffffffffffffffffffffffffffffffffffffffffffffff1916149050919050565b60008073ffffffffffffffffffffffffffffffffffffffff166002600084815260200190815260200160002060009054906101000a900473ffffffffffffffffffffffffffffffffffffffff1673ffffffffffffffffffffffffffffffffffffffff1614159050919050565b600033905090565b816004600083815260200190815260200160002060006101000a81548173ffffffffffffffffffffffffffffffffffffffff021916908373ffffffffffffffffffffffffffffffffffffffff160217905550808273ffffffffffffffffffffffffffffffffffffffff16610b8e8361068e565b73ffffffffffffffffffffffffffffffffffffffff167f8c5be1e5ebec7d5bd14f71427d1e84f3dd0314c0f7b2291e5b200ac8c7c3b92560405160405180910390a45050565b6000610bdf82610aa7565b610c1e576040517f08c379a0000000000000000000000000000000000000000000000000000000008152600401610c1590611abd565b60405180910390fd5b6000610c298361068e565b90508073ffffffffffffffffffffffffffffffffffffffff168473ffffffffffffffffffffffffffffffffffffffff161480610c9857508373ffffffffffffffffffffffffffffffffffffffff16610c8084610469565b73ffffffffffffffffffffffffffffffffffffffff16145b80610ca95750610ca881856109a9565b5b91505092915050565b8273ffffffffffffffffffffffffffffffffffffffff16610cd28261068e565b73ffffffffffffffffffffffffffffffffffffffff1614610d28576040517f08c379a0000000000000000000000000000000000000000000000000000000008152600401610d1f90611b5d565b60405180910390fd5b600073ffffffffffffffffffffffffffffffffffffffff168273ffffffffffffffffffffffffffffffffffffffff161415610d98576040517f08c379a0000000000000000000000000000000000000000000000000000000008152600401610d8f90611a7d565b60405180910390fd5b610da383838361124f565b610dae600082610b1b565b6001600360008573ffffffffffffffffffffffffffffffffffffffff1673ffffffffffffffffffffffffffffffffffffffff1681526020019081526020016000206000828254610dfe9190611d18565b925050819055506001600360008473ffffffffffffffffffffffffffffffffffffffff1673ffffffffffffffffffffffffffffffffffffffff1681526020019081526020016000206000828254610e559190611c91565b92505081905550816002600083815260200190815260200160002060006101000a81548173ffffffffffffffffffffffffffffffffffffffff021916908373ffffffffffffffffffffffffffffffffffffffff160217905550808273ffffffffffffffffffffffffffffffffffffffff168473ffffffffffffffffffffffffffffffffffffffff167fddf252ad1be2c89b69c2b068fc378daa952ba7f163c4a11628f55a4df523b3ef60405160405180910390a4505050565b8173ffffffffffffffffffffffffffffffffffffffff168373ffffffffffffffffffffffffffffffffffffffff161415610f7d576040517f08c379a0000000000000000000000000000000000000000000000000000000008152600401610f7490611a9d565b60405180910390fd5b80600560008573ffffffffffffffffffffffffffffffffffffffff1673ffffffffffffffffffffffffffffffffffffffff16815260200190815260200160002060008473ffffffffffffffffffffffffffffffffffffffff1673ffffffffffffffffffffffffffffffffffffffff16815260200190815260200160002060006101000a81548160ff0219169083151502179055508173ffffffffffffffffffffffffffffffffffffffff168373ffffffffffffffffffffffffffffffffffffffff167f17307eab39ab6107e8899845ad3d59bd9653f200f220920489ca2b5937696c318360405161106e9190611a20565b60405180910390a3505050565b611086848484610cb2565b61109284848484611254565b6110d1576040517f08c379a00000000000000000000000000000000000000000000000000000000081526004016110c890611a5d565b60405180910390fd5b50505050565b606060405180602001604052806000815250905090565b60606000821415611136576040518060400160405280600181526020017f3000000000000000000000000000000000000000000000000000000000000000815250905061124a565b600082905060005b6000821461116857808061115190611e65565b915050600a826111619190611ce7565b915061113e565b60008167ffffffffffffffff81111561118457611183611f9b565b5b6040519080825280601f01601f1916602001820160405280156111b65781602001600182028036833780820191505090505b5090505b60008514611243576001826111cf9190611d18565b9150600a856111de9190611eae565b60306111ea9190611c91565b60f81b818381518110611200576111ff611f6c565b5b60200101907effffffffffffffffffffffffffffffffffffffffffffffffffffffffffffff1916908160001a905350600a8561123c9190611ce7565b94506111ba565b8093505050505b919050565b505050565b60006112758473ffffffffffffffffffffffffffffffffffffffff166113eb565b156113de578373ffffffffffffffffffffffffffffffffffffffff1663150b7a0261129e610b13565b8786866040518563ffffffff1660e01b81526004016112c094939291906119d4565b602060405180830381600087803b1580156112da57600080fd5b505af192505050801561130b57506040513d601f19601f8201168201806040525081019061130891906116c7565b60015b61138e573d806000811461133b576040519150601f19603f3d011682016040523d82523d6000602084013e611340565b606091505b50600081511415611386576040517f08c379a000000000000000000000000000000000000000000000000000000000815260040161137d90611a5d565b60405180910390fd5b805181602001fd5b63150b7a0260e01b7bffffffffffffffffffffffffffffffffffffffffffffffffffffffff1916817bffffffffffffffffffffffffffffffffffffffffffffffffffffffff1916149150506113e3565b600190505b949350505050565b600080823b905060008111915050919050565b600061141161140c84611c1d565b611bf8565b90508281526020810184848401111561142d5761142c611fcf565b5b611438848285611dc0565b509392505050565b60008135905061144f8161237d565b92915050565b60008135905061146481612394565b92915050565b600081359050611479816123ab565b92915050565b60008151905061148e816123ab565b92915050565b600082601f8301126114a9576114a8611fca565b5b81356114b98482602086016113fe565b91505092915050565b6000813590506114d1816123c2565b92915050565b6000602082840312156114ed576114ec611fd9565b5b60006114fb84828501611440565b91505092915050565b6000806040838503121561151b5761151a611fd9565b5b600061152985828601611440565b925050602061153a85828601611440565b9150509250929050565b60008060006060848603121561155d5761155c611fd9565b5b600061156b86828701611440565b935050602061157c86828701611440565b925050604061158d868287016114c2565b9150509250925092565b600080600080608085870312156115b1576115b0611fd9565b5b60006115bf87828801611440565b94505060206115d087828801611440565b93505060406115e1878288016114c2565b925050606085013567ffffffffffffffff81111561160257611601611fd4565b5b61160e87828801611494565b91505092959194509250565b6000806040838503121561163157611630611fd9565b5b600061163f85828601611440565b925050602061165085828601611455565b9150509250929050565b6000806040838503121561167157611670611fd9565b5b600061167f85828601611440565b9250506020611690858286016114c2565b9150509250929050565b6000602082840312156116b0576116af611fd9565b5b60006116be8482850161146a565b91505092915050565b6000602082840312156116dd576116dc611fd9565b5b60006116eb8482850161147f565b91505092915050565b60006020828403121561170a57611709611fd9565b5b6000611718848285016114c2565b91505092915050565b61172a81611d4c565b82525050565b61173981611d5e565b82525050565b600061174a82611c4e565b6117548185611c64565b9350611764818560208601611dcf565b61176d81611fde565b840191505092915050565b600061178382611c59565b61178d8185611c75565b935061179d818560208601611dcf565b6117a681611fde565b840191505092915050565b60006117bc82611c59565b6117c68185611c86565b93506117d6818560208601611dcf565b80840191505092915050565b60006117ef603283611c75565b91506117fa82611fef565b604082019050919050565b6000611812602483611c75565b915061181d8261203e565b604082019050919050565b6000611835601983611c75565b91506118408261208d565b602082019050919050565b6000611858602c83611c75565b9150611863826120b6565b604082019050919050565b600061187b603883611c75565b915061188682612105565b604082019050919050565b600061189e602a83611c75565b91506118a982612154565b604082019050919050565b60006118c1602983611c75565b91506118cc826121a3565b604082019050919050565b60006118e4602c83611c75565b91506118ef826121f2565b604082019050919050565b6000611907602983611c75565b915061191282612241565b604082019050919050565b600061192a602f83611c75565b915061193582612290565b604082019050919050565b600061194d602183611c75565b9150611958826122df565b604082019050919050565b6000611970603183611c75565b915061197b8261232e565b604082019050919050565b61198f81611db6565b82525050565b60006119a182856117b1565b91506119ad82846117b1565b91508190509392505050565b60006020820190506119ce6000830184611721565b92915050565b60006080820190506119e96000830187611721565b6119f66020830186611721565b611a036040830185611986565b8181036060830152611a15818461173f565b905095945050505050565b6000602082019050611a356000830184611730565b92915050565b60006020820190508181036000830152611a558184611778565b905092915050565b60006020820190508181036000830152611a76816117e2565b9050919050565b60006020820190508181036000830152611a9681611805565b9050919050565b60006020820190508181036000830152611ab681611828565b9050919050565b60006020820190508181036000830152611ad68161184b565b9050919050565b60006020820190508181036000830152611af68161186e565b9050919050565b60006020820190508181036000830152611b1681611891565b9050919050565b60006020820190508181036000830152611b36816118b4565b9050919050565b60006020820190508181036000830152611b56816118d7565b9050919050565b60006020820190508181036000830152611b76816118fa565b9050919050565b60006020820190508181036000830152611b968161191d565b9050919050565b60006020820190508181036000830152611bb681611940565b9050919050565b60006020820190508181036000830152611bd681611963565b9050919050565b6000602082019050611bf26000830184611986565b92915050565b6000611c02611c13565b9050611c0e8282611e34565b919050565b6000604051905090565b600067ffffffffffffffff821115611c3857611c37611f9b565b5b611c4182611fde565b9050602081019050919050565b600081519050919050565b600081519050919050565b600082825260208201905092915050565b600082825260208201905092915050565b600081905092915050565b6000611c9c82611db6565b9150611ca783611db6565b9250827fffffffffffffffffffffffffffffffffffffffffffffffffffffffffffffffff03821115611cdc57611cdb611edf565b5b828201905092915050565b6000611cf282611db6565b9150611cfd83611db6565b925082611d0d57611d0c611f0e565b5b828204905092915050565b6000611d2382611db6565b9150611d2e83611db6565b925082821015611d4157611d40611edf565b5b828203905092915050565b6000611d5782611d96565b9050919050565b60008115159050919050565b60007fffffffff0000000000000000000000000000000000000000000000000000000082169050919050565b600073ffffffffffffffffffffffffffffffffffffffff82169050919050565b6000819050919050565b82818337600083830152505050565b60005b83811015611ded578082015181840152602081019050611dd2565b83811115611dfc576000848401525b50505050565b60006002820490506001821680611e1a57607f821691505b60208210811415611e2e57611e2d611f3d565b5b50919050565b611e3d82611fde565b810181811067ffffffffffffffff82111715611e5c57611e5b611f9b565b5b80604052505050565b6000611e7082611db6565b91507fffffffffffffffffffffffffffffffffffffffffffffffffffffffffffffffff821415611ea357611ea2611edf565b5b600182019050919050565b6000611eb982611db6565b9150611ec483611db6565b925082611ed457611ed3611f0e565b5b828206905092915050565b7f4e487b7100000000000000000000000000000000000000000000000000000000600052601160045260246000fd5b7f4e487b7100000000000000000000000000000000000000000000000000000000600052601260045260246000fd5b7f4e487b7100000000000000000000000000000000000000000000000000000000600052602260045260246000fd5b7f4e487b7100000000000000000000000000000000000000000000000000000000600052603260045260246000fd5b7f4e487b7100000000000000000000000000000000000000000000000000000000600052604160045260246000fd5b600080fd5b600080fd5b600080fd5b600080fd5b6000601f19601f8301169050919050565b7f4552433732313a207472616e7366657220746f206e6f6e20455243373231526560008201527f63656976657220696d706c656d656e7465720000000000000000000000000000602082015250565b7f4552433732313a207472616e7366657220746f20746865207a65726f2061646460008201527f7265737300000000000000000000000000000000000000000000000000000000602082015250565b7f4552433732313a20617070726f766520746f2063616c6c657200000000000000600082015250565b7f4552433732313a206f70657261746f7220717565727920666f72206e6f6e657860008201527f697374656e7420746f6b656e0000000000000000000000000000000000000000602082015250565b7f4552433732313a20617070726f76652063616c6c6572206973206e6f74206f7760008201527f6e6572206e6f7220617070726f76656420666f7220616c6c0000000000000000602082015250565b7f4552433732313a2062616c616e636520717565727920666f7220746865207a6560008201527f726f206164647265737300000000000000000000000000000000000000000000602082015250565b7f4552433732313a206f776e657220717565727920666f72206e6f6e657869737460008201527f656e7420746f6b656e0000000000000000000000000000000000000000000000602082015250565b7f4552433732313a20617070726f76656420717565727920666f72206e6f6e657860008201527f697374656e7420746f6b656e0000000000000000000000000000000000000000602082015250565b7f4552433732313a207472616e73666572206f6620746f6b656e2074686174206960008201527f73206e6f74206f776e0000000000000000000000000000000000000000000000602082015250565b7f4552433732314d657461646174613a2055524920717565727920666f72206e6f60008201527f6e6578697374656e7420746f6b656e0000000000000000000000000000000000602082015250565b7f4552433732313a20617070726f76616c20746f2063757272656e74206f776e6560008201527f7200000000000000000000000000000000000000000000000000000000000000602082015250565b7f4552433732313a207472616e736665722063616c6c6572206973206e6f74206f60008201527f776e6572206e6f7220617070726f766564000000000000000000000000000000602082015250565b61238681611d4c565b811461239157600080fd5b50565b61239d81611d5e565b81146123a857600080fd5b50565b6123b481611d6a565b81146123bf57600080fd5b50565b6123cb81611db6565b81146123d657600080fd5b5056fea2646970667358221220e311bbf369f2a1aacbe0dffc869396758502a3b39ff52e6746d6d852c430da9e64736f6c63430008060033a2646970667358221220a438074307fc497bbf9b13285f264a08018a746b691844a4d5725965b1c78fb564736f6c63430008060033",
  "linkReferences": {},
  "deployedLinkReferences": {}
}