{
  "_format": "hh-sol-artifact-1",
  "contractName": "NftBet",
  "sourceName": "contracts/main.sol",
  "abi": [
    {
      "inputs": [],
      "stateMutability": "nonpayable",
      "type": "constructor"
    },
    {
      "anonymous": false,
      "inputs": [
        {
          "indexed": true,
          "internalType": "bytes32",
          "name": "id",
          "type": "bytes32"
        }
      ],
      "name": "ChainlinkCancelled",
      "type": "event"
    },
    {
      "anonymous": false,
      "inputs": [
        {
          "indexed": true,
          "internalType": "bytes32",
          "name": "id",
          "type": "bytes32"
        }
      ],
      "name": "ChainlinkFulfilled",
      "type": "event"
    },
    {
      "anonymous": false,
      "inputs": [
        {
          "indexed": true,
          "internalType": "bytes32",
          "name": "id",
          "type": "bytes32"
        }
      ],
      "name": "ChainlinkRequested",
      "type": "event"
    },
    {
      "anonymous": false,
      "inputs": [
        {
          "indexed": false,
          "internalType": "address",
          "name": "creator",
          "type": "address"
        }
      ],
      "name": "GameCreated",
      "type": "event"
    },
    {
      "inputs": [
        {
          "internalType": "address",
          "name": "requiredCollection",
          "type": "address"
        },
        {
          "internalType": "string",
          "name": "url",
          "type": "string"
        }
      ],
      "name": "createGame",
      "outputs": [
        {
          "internalType": "bool",
          "name": "",
          "type": "bool"
        }
      ],
      "stateMutability": "nonpayable",
      "type": "function"
    },
    {
      "inputs": [
        {
          "internalType": "bytes32",
          "name": "requestId",
          "type": "bytes32"
        },
        {
          "internalType": "uint256",
          "name": "result",
          "type": "uint256"
        }
      ],
      "name": "fulfill",
      "outputs": [],
      "stateMutability": "nonpayable",
      "type": "function"
    },
    {
      "inputs": [
        {
          "internalType": "uint256",
          "name": "",
          "type": "uint256"
        }
      ],
      "name": "gameArray",
      "outputs": [
        {
          "internalType": "address",
          "name": "creator",
          "type": "address"
        },
        {
          "internalType": "address",
          "name": "tokenAddress",
          "type": "address"
        },
        {
          "internalType": "string",
          "name": "url",
          "type": "string"
        }
      ],
      "stateMutability": "view",
      "type": "function"
    },
    {
      "inputs": [
        {
          "internalType": "uint256",
          "name": "",
          "type": "uint256"
        }
      ],
      "name": "games",
      "outputs": [
        {
          "internalType": "address",
          "name": "creator",
          "type": "address"
        },
        {
          "internalType": "address",
          "name": "tokenAddress",
          "type": "address"
        },
        {
          "internalType": "string",
          "name": "url",
          "type": "string"
        }
      ],
      "stateMutability": "view",
      "type": "function"
    },
    {
      "inputs": [
        {
          "internalType": "uint256",
          "name": "tokenId",
          "type": "uint256"
        }
      ],
      "name": "resolveGame",
      "outputs": [
        {
          "internalType": "bool",
          "name": "",
          "type": "bool"
        }
      ],
      "stateMutability": "nonpayable",
      "type": "function"
    },
    {
      "inputs": [
        {
          "internalType": "uint256",
          "name": "tokenId",
          "type": "uint256"
        },
        {
          "internalType": "uint256",
          "name": "streamRate",
          "type": "uint256"
        },
        {
          "internalType": "bool",
          "name": "gameResult",
          "type": "bool"
        }
      ],
      "name": "setBetStream",
      "outputs": [
        {
          "internalType": "bool",
          "name": "",
          "type": "bool"
        }
      ],
      "stateMutability": "nonpayable",
      "type": "function"
    }
  ],
  "bytecode": "0x6080604052600160045534801561001557600080fd5b5033600660006101000a81548173ffffffffffffffffffffffffffffffffffffffff021916908373ffffffffffffffffffffffffffffffffffffffff16021790555061091f806100666000396000f3fe608060405234801561001057600080fd5b50600436106100625760003560e01c8063071a7bb014610067578063117a5b90146100995780634357855e146100cb578063b7a5a5b6146100e7578063ec06bb5d14610117578063f06e1fbe14610147575b600080fd5b610081600480360381019061007c91906105c0565b610177565b604051610090939291906106b2565b60405180910390f35b6100b360048036038101906100ae91906105c0565b610279565b6040516100c2939291906106b2565b60405180910390f35b6100e560048036038101906100e09190610584565b61036b565b005b61010160048036038101906100fc91906105c0565b610475565b60405161010e91906106f0565b60405180910390f35b610131600480360381019061012c919061052c565b61047c565b60405161013e91906106f0565b60405180910390f35b610161600480360381019061015c91906105e9565b610485565b60405161016e91906106f0565b60405180910390f35b6008818154811061018757600080fd5b90600052602060002090600402016000915090508060000160009054906101000a900473ffffffffffffffffffffffffffffffffffffffff16908060010160009054906101000a900473ffffffffffffffffffffffffffffffffffffffff16908060020180546101f6906107cc565b80601f0160208091040260200160405190810160405280929190818152602001828054610222906107cc565b801561026f5780601f106102445761010080835404028352916020019161026f565b820191906000526020600020905b81548152906001019060200180831161025257829003601f168201915b5050505050905083565b60076020528060005260406000206000915090508060000160009054906101000a900473ffffffffffffffffffffffffffffffffffffffff16908060010160009054906101000a900473ffffffffffffffffffffffffffffffffffffffff16908060020180546102e8906107cc565b80601f0160208091040260200160405190810160405280929190818152602001828054610314906107cc565b80156103615780601f1061033657610100808354040283529160200191610361565b820191906000526020600020905b81548152906001019060200180831161034457829003601f168201915b5050505050905083565b816005600082815260200190815260200160002060009054906101000a900473ffffffffffffffffffffffffffffffffffffffff1673ffffffffffffffffffffffffffffffffffffffff163373ffffffffffffffffffffffffffffffffffffffff161461040d576040517f08c379a00000000000000000000000000000000000000000000000000000000081526004016104049061070b565b60405180910390fd5b6005600082815260200190815260200160002060006101000a81549073ffffffffffffffffffffffffffffffffffffffff0219169055807f7cc135e0cebb02c3480ae5d74d377283180a2601f8f644edf7987b009316c63a60405160405180910390a2505050565b6000919050565b60009392505050565b60009392505050565b60008135905061049d8161088d565b92915050565b6000813590506104b2816108a4565b92915050565b6000813590506104c7816108bb565b92915050565b60008083601f8401126104df57600080fd5b8235905067ffffffffffffffff8111156104f857600080fd5b60208301915083600182028301111561051057600080fd5b9250929050565b600081359050610526816108d2565b92915050565b60008060006040848603121561054157600080fd5b600061054f8682870161048e565b935050602084013567ffffffffffffffff81111561056c57600080fd5b610578868287016104cd565b92509250509250925092565b6000806040838503121561059757600080fd5b60006105a5858286016104b8565b92505060206105b685828601610517565b9150509250929050565b6000602082840312156105d257600080fd5b60006105e084828501610517565b91505092915050565b6000806000606084860312156105fe57600080fd5b600061060c86828701610517565b935050602061061d86828701610517565b925050604061062e868287016104a3565b9150509250925092565b61064181610747565b82525050565b61065081610759565b82525050565b60006106618261072b565b61066b8185610736565b935061067b818560208601610799565b6106848161082d565b840191505092915050565b600061069c602883610736565b91506106a78261083e565b604082019050919050565b60006060820190506106c76000830186610638565b6106d46020830185610638565b81810360408301526106e68184610656565b9050949350505050565b60006020820190506107056000830184610647565b92915050565b600060208201905081810360008301526107248161068f565b9050919050565b600081519050919050565b600082825260208201905092915050565b60006107528261076f565b9050919050565b60008115159050919050565b6000819050919050565b600073ffffffffffffffffffffffffffffffffffffffff82169050919050565b6000819050919050565b60005b838110156107b757808201518184015260208101905061079c565b838111156107c6576000848401525b50505050565b600060028204905060018216806107e457607f821691505b602082108114156107f8576107f76107fe565b5b50919050565b7f4e487b7100000000000000000000000000000000000000000000000000000000600052602260045260246000fd5b6000601f19601f8301169050919050565b7f536f75726365206d75737420626520746865206f7261636c65206f662074686560008201527f2072657175657374000000000000000000000000000000000000000000000000602082015250565b61089681610747565b81146108a157600080fd5b50565b6108ad81610759565b81146108b857600080fd5b50565b6108c481610765565b81146108cf57600080fd5b50565b6108db8161078f565b81146108e657600080fd5b5056fea2646970667358221220addc27276956e0fb5e405364ac1a265652d8248d85801a8cb6be76bb12ca348864736f6c63430008030033",
  "linkReferences": {},
  "deployedLinkReferences": {}
}