{
  "_format": "hh-sol-artifact-1",
  "contractName": "CronUpkeepDelegate",
  "sourceName": "contracts/chainlink/v0.8/upkeeps/CronUpkeepDelegate.sol",
  "abi": [
    {
      "inputs": [],
      "name": "UnknownFieldType",
      "type": "error"
    },
    {
      "inputs": [
        {
          "internalType": "bytes",
          "name": "",
          "type": "bytes"
        }
      ],
      "name": "checkUpkeep",
      "outputs": [
        {
          "internalType": "bool",
          "name": "",
          "type": "bool"
        },
        {
          "internalType": "bytes",
          "name": "",
          "type": "bytes"
        }
      ],
      "stateMutability": "view",
      "type": "function"
    }
  ],
  "bytecode": "0x608060405234801561001057600080fd5b50611db4806100206000396000f3fe608060405234801561001057600080fd5b506004361061002b5760003560e01c80636e04ff0d14610030575b600080fd5b61004a600480360381019061004591906116bf565b610061565b6040516100589291906117f2565b60405180910390f35b60006060600061007160036100f8565b9050600081436100819190611c07565b905060006060610091838561010d565b809250819350505081156100ae57818195509550505050506100f1565b6100b960008461010d565b809250819350505081156100d657818195509550505050506100f1565b60006040518060200160405280600081525095509550505050505b9250929050565b600061010682600001610889565b9050919050565b6000606060008060008690505b8581101561087e5761013681600361089a90919063ffffffff16565b92506107d5600660008581526020019081526020016000206040518060a0016040529081600082016040518060e00160405290816000820160009054906101000a900460ff16600481111561018e5761018d611cc7565b5b60048111156101a05761019f611cc7565b5b81526020016000820160019054906101000a900460ff1660ff1660ff1681526020016000820160029054906101000a900460ff1660ff1660ff1681526020016000820160039054906101000a900460ff1660ff1660ff1681526020016000820160049054906101000a900460ff1660ff1660ff1681526020016000820160059054906101000a900460ff1660ff1660ff16815260200160018201601a806020026040519081016040528092919082601a8015610297576020028201916000905b82829054906101000a900460ff1660ff16815260200190600101906020826000010492830192600103820291508084116102605790505b5050505050815250508152602001600282016040518060e00160405290816000820160009054906101000a900460ff1660048111156102d9576102d8611cc7565b5b60048111156102eb576102ea611cc7565b5b81526020016000820160019054906101000a900460ff1660ff1660ff1681526020016000820160029054906101000a900460ff1660ff1660ff1681526020016000820160039054906101000a900460ff1660ff1660ff1681526020016000820160049054906101000a900460ff1660ff1660ff1681526020016000820160059054906101000a900460ff1660ff1660ff16815260200160018201601a806020026040519081016040528092919082601a80156103e2576020028201916000905b82829054906101000a900460ff1660ff16815260200190600101906020826000010492830192600103820291508084116103ab5790505b5050505050815250508152602001600482016040518060e00160405290816000820160009054906101000a900460ff16600481111561042457610423611cc7565b5b600481111561043657610435611cc7565b5b81526020016000820160019054906101000a900460ff1660ff1660ff1681526020016000820160029054906101000a900460ff1660ff1660ff1681526020016000820160039054906101000a900460ff1660ff1660ff1681526020016000820160049054906101000a900460ff1660ff1660ff1681526020016000820160059054906101000a900460ff1660ff1660ff16815260200160018201601a806020026040519081016040528092919082601a801561052d576020028201916000905b82829054906101000a900460ff1660ff16815260200190600101906020826000010492830192600103820291508084116104f65790505b5050505050815250508152602001600682016040518060e00160405290816000820160009054906101000a900460ff16600481111561056f5761056e611cc7565b5b600481111561058157610580611cc7565b5b81526020016000820160019054906101000a900460ff1660ff1660ff1681526020016000820160029054906101000a900460ff1660ff1660ff1681526020016000820160039054906101000a900460ff1660ff1660ff1681526020016000820160049054906101000a900460ff1660ff1660ff1681526020016000820160059054906101000a900460ff1660ff1660ff16815260200160018201601a806020026040519081016040528092919082601a8015610678576020028201916000905b82829054906101000a900460ff1660ff16815260200190600101906020826000010492830192600103820291508084116106415790505b5050505050815250508152602001600882016040518060e00160405290816000820160009054906101000a900460ff1660048111156106ba576106b9611cc7565b5b60048111156106cc576106cb611cc7565b5b81526020016000820160019054906101000a900460ff1660ff1660ff1681526020016000820160029054906101000a900460ff1660ff1660ff1681526020016000820160039054906101000a900460ff1660ff1660ff1681526020016000820160049054906101000a900460ff1660ff1660ff1681526020016000820160059054906101000a900460ff1660ff1660ff16815260200160018201601a806020026040519081016040528092919082601a80156107c3576020028201916000905b82829054906101000a900460ff1660ff168152602001906001019060208260000104928301926001038202915080841161078c5790505b505050505081525050815250506108b4565b9150600560008481526020019081526020016000205482111561086b57600183836007600087815260200190815260200160002060009054906101000a900473ffffffffffffffffffffffffffffffffffffffff16600860008881526020019081526020016000206040516020016108509493929190611822565b60405160208183030381529060405294509450505050610882565b808061087690611b63565b91505061011a565b5050505b9250929050565b600081600001805490509050919050565b60006108a98360000183610abb565b60001c905092915050565b6000806108c042610ae6565b905060006108cd42610bfd565b905060006108da42610c13565b905060006108e742610c29565b905060006108f442610c56565b90506000805b600115610aae575b60008660ff161115610a975761091c896060015187610c77565b610931576001905060179350603b9250610a84565b8015610944576109418688610e6b565b94505b5b60008560ff161115610a7f5761095f896040015186610c77565b6109705760179350603b9250610a6c565b61098361097e888888610f37565b610f52565b9150610993896080015183610c77565b6109a45760179350603b9250610a6c565b5b60008460ff1610610a67576109be896020015185610c77565b6109dc57603b925060008460ff1614156109d757610a67565b610a54565b5b60008360ff1610610a3e576109f6896000015184610c77565b610a105760008360ff161415610a0b57610a3e565b610a2b565b610a1d8787878787610f82565b975050505050505050610ab6565b8280610a3690611adc565b9350506109dd565b603b925060008460ff161415610a5357610a67565b5b8380610a5f90611adc565b9450506109a5565b601793505b8480610a7790611adc565b955050610945565b600190505b8580610a8f90611adc565b965050610902565b600c95508680610aa690611ab2565b9750506108fa565b505050505050505b919050565b6000826000018281548110610ad357610ad2611d25565b5b9060005260206000200154905092915050565b600080600090506000806301e1338085610b0091906118f5565b6107b261ffff16610b11919061189f565b9150610b226107b261ffff16610f9e565b610b2f8361ffff16610f9e565b610b3991906119b4565b9050806301e28500610b4b9190611926565b83610b56919061189f565b9250806107b283610b679190611980565b61ffff16610b7591906119b4565b6301e13380610b849190611926565b83610b8f919061189f565b92505b84831115610bf257610baf600183610baa9190611980565b610ff2565b15610bcb576301e2850083610bc491906119b4565b9250610bde565b6301e1338083610bdb91906119b4565b92505b600182610beb9190611980565b9150610b92565b819350505050919050565b6000610c0882611061565b602001519050919050565b6000610c1e82611061565b604001519050919050565b60006018603c8084610c3b91906118f5565b610c4591906118f5565b610c4f9190611c07565b9050919050565b6000603c8083610c6691906118f5565b610c709190611c07565b9050919050565b6000806004811115610c8c57610c8b611cc7565b5b83600001516004811115610ca357610ca2611cc7565b5b1415610cb25760019050610e65565b60026004811115610cc657610cc5611cc7565b5b83600001516004811115610cdd57610cdc611cc7565b5b1415610d00576000836040015183610cf59190611c38565b60ff16149050610e65565b60016004811115610d1457610d13611cc7565b5b83600001516004811115610d2b57610d2a611cc7565b5b1415610d4557826020015160ff168260ff16149050610e65565b60036004811115610d5957610d58611cc7565b5b83600001516004811115610d7057610d6f611cc7565b5b1415610da157826060015160ff168260ff1610158015610d9a5750826080015160ff168260ff1611155b9050610e65565b600480811115610db457610db3611cc7565b5b83600001516004811115610dcb57610dca611cc7565b5b1415610e335760005b8360a0015160ff16811015610e29578360c0015181601a8110610dfa57610df9611d25565b5b602002015160ff168360ff161415610e16576001915050610e65565b8080610e2190611b63565b915050610dd4565b5060009050610e65565b6040517f7d8d432900000000000000000000000000000000000000000000000000000000815260040160405180910390fd5b92915050565b600060018360ff161480610e82575060038360ff16145b80610e90575060058360ff16145b80610e9e575060078360ff16145b80610eac575060088360ff16145b80610eba5750600a8360ff16145b80610ec85750600c8360ff16145b15610ed657601f9050610f31565b60048360ff161480610eeb575060068360ff16145b80610ef9575060098360ff16145b80610f075750600b8360ff16145b15610f1557601e9050610f31565b610f1e82610ff2565b15610f2c57601d9050610f31565b601c90505b92915050565b6000610f498484846000806000611272565b90509392505050565b6000600760046201518084610f6791906118f5565b610f71919061189f565b610f7b9190611c07565b9050919050565b6000610f9386868686866000611272565b905095945050505050565b6000600182610fad91906119b4565b915061019082610fbd91906118f5565b606483610fca91906118f5565b600484610fd791906118f5565b610fe191906119b4565b610feb919061189f565b9050919050565b6000806004836110029190611bd6565b61ffff1614611014576000905061105c565b60006064836110239190611bd6565b61ffff1614611035576001905061105c565b6000610190836110459190611bd6565b61ffff1614611057576000905061105c565b600190505b919050565b6110696115f3565b6000808061107685610ae6565b846000019061ffff16908161ffff16815250506110986107b261ffff16610f9e565b6110a9856000015161ffff16610f9e565b6110b391906119b4565b9150816301e285006110c59190611926565b836110d0919061189f565b9250816107b285600001516110e59190611980565b61ffff166110f391906119b4565b6301e133806111029190611926565b8361110d919061189f565b92506000600191505b600c8260ff161161118d5761112f828660000151610e6b565b60ff16620151806111409190611926565b905085848261114f919061189f565b111561116c5781856020019060ff16908160ff168152505061118d565b8084611178919061189f565b9350818061118590611bac565b925050611116565b600191505b6111a485602001518660000151610e6b565b60ff168260ff1611611201578584620151806111c0919061189f565b11156111dd5781856040019060ff16908160ff1681525050611201565b62015180846111ec919061189f565b935081806111f990611bac565b925050611192565b61120a86610c29565b856060019060ff16908160ff168152505061122486610c56565b856080019060ff16908160ff168152505061123e866115dd565b8560a0019060ff16908160ff168152505061125886610f52565b8560c0019060ff16908160ff168152505050505050919050565b6000806107b290505b8761ffff168161ffff1610156112d65761129481610ff2565b156112b0576301e28500826112a9919061189f565b91506112c3565b6301e13380826112c0919061189f565b91505b80806112ce90611b38565b91505061127b565b6112de611646565b601f816000600c81106112f4576112f3611d25565b5b602002019060ff16908160ff168152505061130e89610ff2565b1561133f57601d816001600c811061132957611328611d25565b5b602002019060ff16908160ff1681525050611367565b601c816001600c811061135557611354611d25565b5b602002019060ff16908160ff16815250505b601f816002600c811061137d5761137c611d25565b5b602002019060ff16908160ff1681525050601e816003600c81106113a4576113a3611d25565b5b602002019060ff16908160ff1681525050601f816004600c81106113cb576113ca611d25565b5b602002019060ff16908160ff1681525050601e816005600c81106113f2576113f1611d25565b5b602002019060ff16908160ff1681525050601f816006600c811061141957611418611d25565b5b602002019060ff16908160ff1681525050601f816007600c81106114405761143f611d25565b5b602002019060ff16908160ff1681525050601e816008600c811061146757611466611d25565b5b602002019060ff16908160ff1681525050601f816009600c811061148e5761148d611d25565b5b602002019060ff16908160ff1681525050601e81600a600c81106114b5576114b4611d25565b5b602002019060ff16908160ff1681525050601f81600b600c81106114dc576114db611d25565b5b602002019060ff16908160ff1681525050600191505b8760ff168261ffff16101561155a578060018361150f9190611980565b61ffff16600c811061152457611523611d25565b5b602002015160ff166201518061153a9190611926565b83611545919061189f565b9250818061155290611b38565b9250506114f2565b60018761156791906119e8565b60ff16620151806115789190611926565b83611583919061189f565b92508560ff16610e106115969190611926565b836115a1919061189f565b92508460ff16603c6115b39190611926565b836115be919061189f565b92508360ff16836115cf919061189f565b925050509695505050505050565b6000603c826115ec9190611c07565b9050919050565b6040518060e00160405280600061ffff168152602001600060ff168152602001600060ff168152602001600060ff168152602001600060ff168152602001600060ff168152602001600060ff1681525090565b604051806101800160405280600c90602082028036833780820191505090505090565b60008083601f84011261167f5761167e611d59565b5b8235905067ffffffffffffffff81111561169c5761169b611d54565b5b6020830191508360018202830111156116b8576116b7611d5e565b5b9250929050565b600080602083850312156116d6576116d5611d68565b5b600083013567ffffffffffffffff8111156116f4576116f3611d63565b5b61170085828601611669565b92509250509250929050565b61171581611a1c565b82525050565b61172481611a2e565b82525050565b600061173582611883565b61173f818561188e565b935061174f818560208601611a7f565b61175881611d6d565b840191505092915050565b6000815461177081611b06565b61177a818661188e565b9450600182166000811461179557600181146117a7576117da565b60ff19831686526020860193506117da565b6117b08561186e565b60005b838110156117d2578154818901526001820191506020810190506117b3565b808801955050505b50505092915050565b6117ec81611a68565b82525050565b6000604082019050611807600083018561171b565b8181036020830152611819818461172a565b90509392505050565b600060808201905061183760008301876117e3565b61184460208301866117e3565b611851604083018561170c565b81810360608301526118638184611763565b905095945050505050565b60008190508160005260206000209050919050565b600081519050919050565b600082825260208201905092915050565b60006118aa82611a68565b91506118b583611a68565b9250827fffffffffffffffffffffffffffffffffffffffffffffffffffffffffffffffff038211156118ea576118e9611c69565b5b828201905092915050565b600061190082611a68565b915061190b83611a68565b92508261191b5761191a611c98565b5b828204905092915050565b600061193182611a68565b915061193c83611a68565b9250817fffffffffffffffffffffffffffffffffffffffffffffffffffffffffffffffff048311821515161561197557611974611c69565b5b828202905092915050565b600061198b82611a3a565b915061199683611a3a565b9250828210156119a9576119a8611c69565b5b828203905092915050565b60006119bf82611a68565b91506119ca83611a68565b9250828210156119dd576119dc611c69565b5b828203905092915050565b60006119f382611a72565b91506119fe83611a72565b925082821015611a1157611a10611c69565b5b828203905092915050565b6000611a2782611a48565b9050919050565b60008115159050919050565b600061ffff82169050919050565b600073ffffffffffffffffffffffffffffffffffffffff82169050919050565b6000819050919050565b600060ff82169050919050565b60005b83811015611a9d578082015181840152602081019050611a82565b83811115611aac576000848401525b50505050565b6000611abd82611a3a565b91506000821415611ad157611ad0611c69565b5b600182039050919050565b6000611ae782611a72565b91506000821415611afb57611afa611c69565b5b600182039050919050565b60006002820490506001821680611b1e57607f821691505b60208210811415611b3257611b31611cf6565b5b50919050565b6000611b4382611a3a565b915061ffff821415611b5857611b57611c69565b5b600182019050919050565b6000611b6e82611a68565b91507fffffffffffffffffffffffffffffffffffffffffffffffffffffffffffffffff821415611ba157611ba0611c69565b5b600182019050919050565b6000611bb782611a72565b915060ff821415611bcb57611bca611c69565b5b600182019050919050565b6000611be182611a3a565b9150611bec83611a3a565b925082611bfc57611bfb611c98565b5b828206905092915050565b6000611c1282611a68565b9150611c1d83611a68565b925082611c2d57611c2c611c98565b5b828206905092915050565b6000611c4382611a72565b9150611c4e83611a72565b925082611c5e57611c5d611c98565b5b828206905092915050565b7f4e487b7100000000000000000000000000000000000000000000000000000000600052601160045260246000fd5b7f4e487b7100000000000000000000000000000000000000000000000000000000600052601260045260246000fd5b7f4e487b7100000000000000000000000000000000000000000000000000000000600052602160045260246000fd5b7f4e487b7100000000000000000000000000000000000000000000000000000000600052602260045260246000fd5b7f4e487b7100000000000000000000000000000000000000000000000000000000600052603260045260246000fd5b600080fd5b600080fd5b600080fd5b600080fd5b600080fd5b6000601f19601f830116905091905056fea26469706673582212209dd0e8bbe4d8c5d15ac2a7a25f1f56b9bc76b446106fb3483b283a94f2ab625864736f6c63430008060033",
  "linkReferences": {},
  "deployedLinkReferences": {}
}