{
  "_format": "hh-sol-artifact-1",
  "contractName": "VRFConsumerV2",
  "sourceName": "contracts/chainlink/v0.8/tests/VRFConsumerV2.sol",
  "abi": [
    {
      "inputs": [
        {
          "internalType": "address",
          "name": "vrfCoordinator",
          "type": "address"
        },
        {
          "internalType": "address",
          "name": "link",
          "type": "address"
        }
      ],
      "stateMutability": "nonpayable",
      "type": "constructor"
    },
    {
      "inputs": [
        {
          "internalType": "address",
          "name": "have",
          "type": "address"
        },
        {
          "internalType": "address",
          "name": "want",
          "type": "address"
        }
      ],
      "name": "OnlyCoordinatorCanFulfill",
      "type": "error"
    },
    {
      "inputs": [
        {
          "internalType": "uint256",
          "name": "requestId",
          "type": "uint256"
        },
        {
          "internalType": "uint256[]",
          "name": "randomWords",
          "type": "uint256[]"
        }
      ],
      "name": "rawFulfillRandomWords",
      "outputs": [],
      "stateMutability": "nonpayable",
      "type": "function"
    },
    {
      "inputs": [],
      "name": "s_gasAvailable",
      "outputs": [
        {
          "internalType": "uint256",
          "name": "",
          "type": "uint256"
        }
      ],
      "stateMutability": "view",
      "type": "function"
    },
    {
      "inputs": [
        {
          "internalType": "uint256",
          "name": "",
          "type": "uint256"
        }
      ],
      "name": "s_randomWords",
      "outputs": [
        {
          "internalType": "uint256",
          "name": "",
          "type": "uint256"
        }
      ],
      "stateMutability": "view",
      "type": "function"
    },
    {
      "inputs": [],
      "name": "s_requestId",
      "outputs": [
        {
          "internalType": "uint256",
          "name": "",
          "type": "uint256"
        }
      ],
      "stateMutability": "view",
      "type": "function"
    },
    {
      "inputs": [],
      "name": "s_subId",
      "outputs": [
        {
          "internalType": "uint64",
          "name": "",
          "type": "uint64"
        }
      ],
      "stateMutability": "view",
      "type": "function"
    },
    {
      "inputs": [
        {
          "internalType": "uint96",
          "name": "amount",
          "type": "uint96"
        }
      ],
      "name": "testCreateSubscriptionAndFund",
      "outputs": [],
      "stateMutability": "nonpayable",
      "type": "function"
    },
    {
      "inputs": [
        {
          "internalType": "bytes32",
          "name": "keyHash",
          "type": "bytes32"
        },
        {
          "internalType": "uint64",
          "name": "subId",
          "type": "uint64"
        },
        {
          "internalType": "uint16",
          "name": "minReqConfs",
          "type": "uint16"
        },
        {
          "internalType": "uint32",
          "name": "callbackGasLimit",
          "type": "uint32"
        },
        {
          "internalType": "uint32",
          "name": "numWords",
          "type": "uint32"
        }
      ],
      "name": "testRequestRandomness",
      "outputs": [
        {
          "internalType": "uint256",
          "name": "",
          "type": "uint256"
        }
      ],
      "stateMutability": "nonpayable",
      "type": "function"
    },
    {
      "inputs": [
        {
          "internalType": "uint96",
          "name": "amount",
          "type": "uint96"
        }
      ],
      "name": "topUpSubscription",
      "outputs": [],
      "stateMutability": "nonpayable",
      "type": "function"
    },
    {
      "inputs": [
        {
          "internalType": "address[]",
          "name": "consumers",
          "type": "address[]"
        }
      ],
      "name": "updateSubscription",
      "outputs": [],
      "stateMutability": "nonpayable",
      "type": "function"
    }
  ],
  "bytecode": "0x60a06040523480156200001157600080fd5b506040516200164638038062001646833981810160405281019062000037919062000111565b818073ffffffffffffffffffffffffffffffffffffffff1660808173ffffffffffffffffffffffffffffffffffffffff1660601b815250505081600260006101000a81548173ffffffffffffffffffffffffffffffffffffffff021916908373ffffffffffffffffffffffffffffffffffffffff16021790555080600360006101000a81548173ffffffffffffffffffffffffffffffffffffffff021916908373ffffffffffffffffffffffffffffffffffffffff1602179055505050620001ab565b6000815190506200010b8162000191565b92915050565b600080604083850312156200012b576200012a6200018c565b5b60006200013b85828601620000fa565b92505060206200014e85828601620000fa565b9150509250929050565b600062000165826200016c565b9050919050565b600073ffffffffffffffffffffffffffffffffffffffff82169050919050565b600080fd5b6200019c8162000158565b8114620001a857600080fd5b50565b60805160601c611475620001d1600039600081816101c4015261021801526114756000f3fe608060405234801561001057600080fd5b50600436106100935760003560e01c80636802f726116100665780636802f7261461011c578063706da1ca14610138578063e89e106a14610156578063f08c5daa14610174578063f6eaffc81461019257610093565b80631fe543e31461009857806327784fad146100b45780632fa4e442146100e457806336bfffed14610100575b600080fd5b6100b260048036038101906100ad9190610d1b565b6101c2565b005b6100ce60048036038101906100c99190610c46565b610282565b6040516100db9190610ff6565b60405180910390f35b6100fe60048036038101906100f99190610da4565b61034d565b005b61011a60048036038101906101159190610bd0565b6104bd565b005b61013660048036038101906101319190610da4565b610603565b005b6101406108a8565b60405161014d9190611011565b60405180910390f35b61015e6108c2565b60405161016b9190610ff6565b60405180910390f35b61017c6108c8565b6040516101899190610ff6565b60405180910390f35b6101ac60048036038101906101a79190610cc1565b6108ce565b6040516101b99190610ff6565b60405180910390f35b7f000000000000000000000000000000000000000000000000000000000000000073ffffffffffffffffffffffffffffffffffffffff163373ffffffffffffffffffffffffffffffffffffffff161461027457337f00000000000000000000000000000000000000000000000000000000000000006040517f1cf993f400000000000000000000000000000000000000000000000000000000815260040161026b929190610edc565b60405180910390fd5b61027e82826108f2565b5050565b6000600260009054906101000a900473ffffffffffffffffffffffffffffffffffffffff1673ffffffffffffffffffffffffffffffffffffffff16635d3b1d3087878787876040518663ffffffff1660e01b81526004016102e7959493929190610f43565b602060405180830381600087803b15801561030157600080fd5b505af1158015610315573d6000803e3d6000fd5b505050506040513d601f19601f820116820180604052508101906103399190610cee565b600181905550600154905095945050505050565b6000600360149054906101000a900467ffffffffffffffff1667ffffffffffffffff1614156103b1576040517f08c379a00000000000000000000000000000000000000000000000000000000081526004016103a890610f96565b60405180910390fd5b600360009054906101000a900473ffffffffffffffffffffffffffffffffffffffff1673ffffffffffffffffffffffffffffffffffffffff16634000aea0600260009054906101000a900473ffffffffffffffffffffffffffffffffffffffff1683600360149054906101000a900467ffffffffffffffff1660405160200161043a9190611011565b6040516020818303038152906040526040518463ffffffff1660e01b815260040161046793929190610f05565b602060405180830381600087803b15801561048157600080fd5b505af1158015610495573d6000803e3d6000fd5b505050506040513d601f19601f820116820180604052508101906104b99190610c19565b5050565b6000600360149054906101000a900467ffffffffffffffff1667ffffffffffffffff161415610521576040517f08c379a000000000000000000000000000000000000000000000000000000000815260040161051890610fd6565b60405180910390fd5b60005b81518110156105ff57600260009054906101000a900473ffffffffffffffffffffffffffffffffffffffff1673ffffffffffffffffffffffffffffffffffffffff16637341c10c600360149054906101000a900467ffffffffffffffff1684848151811061059557610594611289565b5b60200260200101516040518363ffffffff1660e01b81526004016105ba92919061102c565b600060405180830381600087803b1580156105d457600080fd5b505af11580156105e8573d6000803e3d6000fd5b5050505080806105f790611211565b915050610524565b5050565b6000600360149054906101000a900467ffffffffffffffff1667ffffffffffffffff16141561079c57600260009054906101000a900473ffffffffffffffffffffffffffffffffffffffff1673ffffffffffffffffffffffffffffffffffffffff1663a21a23e46040518163ffffffff1660e01b8152600401602060405180830381600087803b15801561069657600080fd5b505af11580156106aa573d6000803e3d6000fd5b505050506040513d601f19601f820116820180604052508101906106ce9190610d77565b600360146101000a81548167ffffffffffffffff021916908367ffffffffffffffff160217905550600260009054906101000a900473ffffffffffffffffffffffffffffffffffffffff1673ffffffffffffffffffffffffffffffffffffffff16637341c10c600360149054906101000a900467ffffffffffffffff16306040518363ffffffff1660e01b815260040161076992919061102c565b600060405180830381600087803b15801561078357600080fd5b505af1158015610797573d6000803e3d6000fd5b505050505b600360009054906101000a900473ffffffffffffffffffffffffffffffffffffffff1673ffffffffffffffffffffffffffffffffffffffff16634000aea0600260009054906101000a900473ffffffffffffffffffffffffffffffffffffffff1683600360149054906101000a900467ffffffffffffffff166040516020016108259190611011565b6040516020818303038152906040526040518463ffffffff1660e01b815260040161085293929190610f05565b602060405180830381600087803b15801561086c57600080fd5b505af1158015610880573d6000803e3d6000fd5b505050506040513d601f19601f820116820180604052508101906108a49190610c19565b5050565b600360149054906101000a900467ffffffffffffffff1681565b60015481565b60045481565b600081815481106108de57600080fd5b906000526020600020016000915090505481565b6001548214610936576040517f08c379a000000000000000000000000000000000000000000000000000000000815260040161092d90610fb6565b60405180910390fd5b5a6004819055508060009080519060200190610953929190610958565b505050565b828054828255906000526020600020908101928215610994579160200282015b82811115610993578251825591602001919060010190610978565b5b5090506109a191906109a5565b5090565b5b808211156109be5760008160009055506001016109a6565b5090565b60006109d56109d08461107a565b611055565b905080838252602082019050828560208602820111156109f8576109f76112ec565b5b60005b85811015610a285781610a0e8882610aa2565b8452602084019350602083019250506001810190506109fb565b5050509392505050565b6000610a45610a40846110a6565b611055565b90508083825260208201905082856020860282011115610a6857610a676112ec565b5b60005b85811015610a985781610a7e8882610b52565b845260208401935060208301925050600181019050610a6b565b5050509392505050565b600081359050610ab181611387565b92915050565b600082601f830112610acc57610acb6112e7565b5b8135610adc8482602086016109c2565b91505092915050565b600082601f830112610afa57610af96112e7565b5b8135610b0a848260208601610a32565b91505092915050565b600081519050610b228161139e565b92915050565b600081359050610b37816113b5565b92915050565b600081359050610b4c816113cc565b92915050565b600081359050610b61816113e3565b92915050565b600081519050610b76816113e3565b92915050565b600081359050610b8b816113fa565b92915050565b600081359050610ba081611411565b92915050565b600081519050610bb581611411565b92915050565b600081359050610bca81611428565b92915050565b600060208284031215610be657610be56112f6565b5b600082013567ffffffffffffffff811115610c0457610c036112f1565b5b610c1084828501610ab7565b91505092915050565b600060208284031215610c2f57610c2e6112f6565b5b6000610c3d84828501610b13565b91505092915050565b600080600080600060a08688031215610c6257610c616112f6565b5b6000610c7088828901610b28565b9550506020610c8188828901610b91565b9450506040610c9288828901610b3d565b9350506060610ca388828901610b7c565b9250506080610cb488828901610b7c565b9150509295509295909350565b600060208284031215610cd757610cd66112f6565b5b6000610ce584828501610b52565b91505092915050565b600060208284031215610d0457610d036112f6565b5b6000610d1284828501610b67565b91505092915050565b60008060408385031215610d3257610d316112f6565b5b6000610d4085828601610b52565b925050602083013567ffffffffffffffff811115610d6157610d606112f1565b5b610d6d85828601610ae5565b9150509250929050565b600060208284031215610d8d57610d8c6112f6565b5b6000610d9b84828501610ba6565b91505092915050565b600060208284031215610dba57610db96112f6565b5b6000610dc884828501610bbb565b91505092915050565b610dda816110ff565b82525050565b610de98161111d565b82525050565b6000610dfa826110d2565b610e0481856110dd565b9350610e148185602086016111ad565b610e1d816112fb565b840191505092915050565b6000610e35600b836110ee565b9150610e408261130c565b602082019050919050565b6000610e586017836110ee565b9150610e6382611335565b602082019050919050565b6000610e7b600d836110ee565b9150610e868261135e565b602082019050919050565b610e9a81611127565b82525050565b610ea981611155565b82525050565b610eb88161115f565b82525050565b610ec78161116f565b82525050565b610ed68161119b565b82525050565b6000604082019050610ef16000830185610dd1565b610efe6020830184610dd1565b9392505050565b6000606082019050610f1a6000830186610dd1565b610f276020830185610ecd565b8181036040830152610f398184610def565b9050949350505050565b600060a082019050610f586000830188610de0565b610f656020830187610ebe565b610f726040830186610e91565b610f7f6060830185610eaf565b610f8c6080830184610eaf565b9695505050505050565b60006020820190508181036000830152610faf81610e28565b9050919050565b60006020820190508181036000830152610fcf81610e4b565b9050919050565b60006020820190508181036000830152610fef81610e6e565b9050919050565b600060208201905061100b6000830184610ea0565b92915050565b60006020820190506110266000830184610ebe565b92915050565b60006040820190506110416000830185610ebe565b61104e6020830184610dd1565b9392505050565b600061105f611070565b905061106b82826111e0565b919050565b6000604051905090565b600067ffffffffffffffff821115611095576110946112b8565b5b602082029050602081019050919050565b600067ffffffffffffffff8211156110c1576110c06112b8565b5b602082029050602081019050919050565b600081519050919050565b600082825260208201905092915050565b600082825260208201905092915050565b600061110a82611135565b9050919050565b60008115159050919050565b6000819050919050565b600061ffff82169050919050565b600073ffffffffffffffffffffffffffffffffffffffff82169050919050565b6000819050919050565b600063ffffffff82169050919050565b600067ffffffffffffffff82169050919050565b60006bffffffffffffffffffffffff82169050919050565b60006111a682611183565b9050919050565b60005b838110156111cb5780820151818401526020810190506111b0565b838111156111da576000848401525b50505050565b6111e9826112fb565b810181811067ffffffffffffffff82111715611208576112076112b8565b5b80604052505050565b600061121c82611155565b91507fffffffffffffffffffffffffffffffffffffffffffffffffffffffffffffffff82141561124f5761124e61125a565b5b600182019050919050565b7f4e487b7100000000000000000000000000000000000000000000000000000000600052601160045260246000fd5b7f4e487b7100000000000000000000000000000000000000000000000000000000600052603260045260246000fd5b7f4e487b7100000000000000000000000000000000000000000000000000000000600052604160045260246000fd5b600080fd5b600080fd5b600080fd5b600080fd5b6000601f19601f8301169050919050565b7f737562206e6f7420736574000000000000000000000000000000000000000000600082015250565b7f7265717565737420494420697320696e636f7272656374000000000000000000600082015250565b7f7375624944206e6f742073657400000000000000000000000000000000000000600082015250565b611390816110ff565b811461139b57600080fd5b50565b6113a781611111565b81146113b257600080fd5b50565b6113be8161111d565b81146113c957600080fd5b50565b6113d581611127565b81146113e057600080fd5b50565b6113ec81611155565b81146113f757600080fd5b50565b6114038161115f565b811461140e57600080fd5b50565b61141a8161116f565b811461142557600080fd5b50565b61143181611183565b811461143c57600080fd5b5056fea2646970667358221220b83aeeafd7a82ebdd043cf1d8c7fface33d22408fec544e08bf7008a9631280764736f6c63430008060033",
  "linkReferences": {},
  "deployedLinkReferences": {}
}